{
	"contracts/verifier.sol": {
		"Verifier": {
			"abi": [
				{
					"inputs": [
						{
							"internalType": "uint256[2]",
							"name": "a",
							"type": "uint256[2]"
						},
						{
							"internalType": "uint256[2][2]",
							"name": "b",
							"type": "uint256[2][2]"
						},
						{
							"internalType": "uint256[2]",
							"name": "c",
							"type": "uint256[2]"
						},
						{
							"internalType": "uint256[2]",
							"name": "input",
							"type": "uint256[2]"
						}
					],
					"name": "verifyProof",
					"outputs": [
						{
							"internalType": "bool",
							"name": "r",
							"type": "bool"
						}
					],
					"stateMutability": "view",
					"type": "function"
				}
			],
			"devdoc": {
				"kind": "dev",
				"methods": {
					"verifyProof(uint256[2],uint256[2][2],uint256[2],uint256[2])": {
						"returns": {
							"r": " bool true if proof is valid"
						}
					}
				},
				"version": 1
			},
			"evm": {
				"assembly": "    /* \"contracts/verifier.sol\":7121:11555  contract Verifier {... */\n  mstore(0x40, 0x80)\n  callvalue\n  dup1\n  iszero\n  tag_1\n  jumpi\n  revert(0x00, 0x00)\ntag_1:\n  pop\n  dataSize(sub_0)\n  dup1\n  dataOffset(sub_0)\n  0x00\n  codecopy\n  0x00\n  return\nstop\n\nsub_0: assembly {\n        /* \"contracts/verifier.sol\":7121:11555  contract Verifier {... */\n      mstore(0x40, 0x80)\n      callvalue\n      dup1\n      iszero\n      tag_1\n      jumpi\n      revert(0x00, 0x00)\n    tag_1:\n      pop\n      jumpi(tag_2, lt(calldatasize, 0x04))\n      shr(0xe0, calldataload(0x00))\n      dup1\n      0xf5c9d69e\n      eq\n      tag_3\n      jumpi\n    tag_2:\n      revert(0x00, 0x00)\n        /* \"contracts/verifier.sol\":10878:11553  function verifyProof(... */\n    tag_3:\n      tag_4\n      0x04\n      dup1\n      calldatasize\n      sub\n      dup2\n      add\n      swap1\n      tag_5\n      swap2\n      swap1\n      tag_6\n      jump\t// in\n    tag_5:\n      tag_7\n      jump\t// in\n    tag_4:\n      mload(0x40)\n      tag_8\n      swap2\n      swap1\n      tag_9\n      jump\t// in\n    tag_8:\n      mload(0x40)\n      dup1\n      swap2\n      sub\n      swap1\n      return\n    tag_7:\n        /* \"contracts/verifier.sol\":11057:11063  bool r */\n      0x00\n        /* \"contracts/verifier.sol\":11075:11093  Proof memory proof */\n      tag_11\n      tag_12\n      jump\t// in\n    tag_11:\n        /* \"contracts/verifier.sol\":11113:11140  Pairing.G1Point(a[0], a[1]) */\n      mload(0x40)\n      dup1\n      0x40\n      add\n      0x40\n      mstore\n      dup1\n        /* \"contracts/verifier.sol\":11129:11130  a */\n      dup8\n        /* \"contracts/verifier.sol\":11131:11132  0 */\n      0x00\n        /* \"contracts/verifier.sol\":11129:11133  a[0] */\n      0x02\n      dup2\n      lt\n      tag_13\n      jumpi\n      tag_14\n      tag_15\n      jump\t// in\n    tag_14:\n    tag_13:\n      0x20\n      mul\n      add\n      mload\n        /* \"contracts/verifier.sol\":11113:11140  Pairing.G1Point(a[0], a[1]) */\n      dup2\n      mstore\n      0x20\n      add\n        /* \"contracts/verifier.sol\":11135:11136  a */\n      dup8\n        /* \"contracts/verifier.sol\":11137:11138  1 */\n      0x01\n        /* \"contracts/verifier.sol\":11135:11139  a[1] */\n      0x02\n      dup2\n      lt\n      tag_16\n      jumpi\n      tag_17\n      tag_15\n      jump\t// in\n    tag_17:\n    tag_16:\n      0x20\n      mul\n      add\n      mload\n        /* \"contracts/verifier.sol\":11113:11140  Pairing.G1Point(a[0], a[1]) */\n      dup2\n      mstore\n      pop\n        /* \"contracts/verifier.sol\":11103:11108  proof */\n      dup2\n        /* \"contracts/verifier.sol\":11103:11110  proof.A */\n      0x00\n      add\n        /* \"contracts/verifier.sol\":11103:11140  proof.A = Pairing.G1Point(a[0], a[1]) */\n      dup2\n      swap1\n      mstore\n      pop\n        /* \"contracts/verifier.sol\":11160:11215  Pairing.G2Point([b[0][0], b[0][1]], [b[1][0], b[1][1]]) */\n      mload(0x40)\n      dup1\n      0x40\n      add\n      0x40\n      mstore\n      dup1\n      mload(0x40)\n      dup1\n      0x40\n      add\n      0x40\n      mstore\n      dup1\n        /* \"contracts/verifier.sol\":11177:11178  b */\n      dup9\n        /* \"contracts/verifier.sol\":11179:11180  0 */\n      0x00\n        /* \"contracts/verifier.sol\":11177:11181  b[0] */\n      0x02\n      dup2\n      lt\n      tag_18\n      jumpi\n      tag_19\n      tag_15\n      jump\t// in\n    tag_19:\n    tag_18:\n      0x20\n      mul\n      add\n      mload\n        /* \"contracts/verifier.sol\":11182:11183  0 */\n      0x00\n        /* \"contracts/verifier.sol\":11177:11184  b[0][0] */\n      0x02\n      dup2\n      lt\n      tag_20\n      jumpi\n      tag_21\n      tag_15\n      jump\t// in\n    tag_21:\n    tag_20:\n      0x20\n      mul\n      add\n      mload\n        /* \"contracts/verifier.sol\":11160:11215  Pairing.G2Point([b[0][0], b[0][1]], [b[1][0], b[1][1]]) */\n      dup2\n      mstore\n      0x20\n      add\n        /* \"contracts/verifier.sol\":11186:11187  b */\n      dup9\n        /* \"contracts/verifier.sol\":11188:11189  0 */\n      0x00\n        /* \"contracts/verifier.sol\":11186:11190  b[0] */\n      0x02\n      dup2\n      lt\n      tag_22\n      jumpi\n      tag_23\n      tag_15\n      jump\t// in\n    tag_23:\n    tag_22:\n      0x20\n      mul\n      add\n      mload\n        /* \"contracts/verifier.sol\":11191:11192  1 */\n      0x01\n        /* \"contracts/verifier.sol\":11186:11193  b[0][1] */\n      0x02\n      dup2\n      lt\n      tag_24\n      jumpi\n      tag_25\n      tag_15\n      jump\t// in\n    tag_25:\n    tag_24:\n      0x20\n      mul\n      add\n      mload\n        /* \"contracts/verifier.sol\":11160:11215  Pairing.G2Point([b[0][0], b[0][1]], [b[1][0], b[1][1]]) */\n      dup2\n      mstore\n      pop\n      dup2\n      mstore\n      0x20\n      add\n      mload(0x40)\n      dup1\n      0x40\n      add\n      0x40\n      mstore\n      dup1\n        /* \"contracts/verifier.sol\":11197:11198  b */\n      dup9\n        /* \"contracts/verifier.sol\":11199:11200  1 */\n      0x01\n        /* \"contracts/verifier.sol\":11197:11201  b[1] */\n      0x02\n      dup2\n      lt\n      tag_26\n      jumpi\n      tag_27\n      tag_15\n      jump\t// in\n    tag_27:\n    tag_26:\n      0x20\n      mul\n      add\n      mload\n        /* \"contracts/verifier.sol\":11202:11203  0 */\n      0x00\n        /* \"contracts/verifier.sol\":11197:11204  b[1][0] */\n      0x02\n      dup2\n      lt\n      tag_28\n      jumpi\n      tag_29\n      tag_15\n      jump\t// in\n    tag_29:\n    tag_28:\n      0x20\n      mul\n      add\n      mload\n        /* \"contracts/verifier.sol\":11160:11215  Pairing.G2Point([b[0][0], b[0][1]], [b[1][0], b[1][1]]) */\n      dup2\n      mstore\n      0x20\n      add\n        /* \"contracts/verifier.sol\":11206:11207  b */\n      dup9\n        /* \"contracts/verifier.sol\":11208:11209  1 */\n      0x01\n        /* \"contracts/verifier.sol\":11206:11210  b[1] */\n      0x02\n      dup2\n      lt\n      tag_30\n      jumpi\n      tag_31\n      tag_15\n      jump\t// in\n    tag_31:\n    tag_30:\n      0x20\n      mul\n      add\n      mload\n        /* \"contracts/verifier.sol\":11211:11212  1 */\n      0x01\n        /* \"contracts/verifier.sol\":11206:11213  b[1][1] */\n      0x02\n      dup2\n      lt\n      tag_32\n      jumpi\n      tag_33\n      tag_15\n      jump\t// in\n    tag_33:\n    tag_32:\n      0x20\n      mul\n      add\n      mload\n        /* \"contracts/verifier.sol\":11160:11215  Pairing.G2Point([b[0][0], b[0][1]], [b[1][0], b[1][1]]) */\n      dup2\n      mstore\n      pop\n      dup2\n      mstore\n      pop\n        /* \"contracts/verifier.sol\":11150:11155  proof */\n      dup2\n        /* \"contracts/verifier.sol\":11150:11157  proof.B */\n      0x20\n      add\n        /* \"contracts/verifier.sol\":11150:11215  proof.B = Pairing.G2Point([b[0][0], b[0][1]], [b[1][0], b[1][1]]) */\n      dup2\n      swap1\n      mstore\n      pop\n        /* \"contracts/verifier.sol\":11235:11262  Pairing.G1Point(c[0], c[1]) */\n      mload(0x40)\n      dup1\n      0x40\n      add\n      0x40\n      mstore\n      dup1\n        /* \"contracts/verifier.sol\":11251:11252  c */\n      dup6\n        /* \"contracts/verifier.sol\":11253:11254  0 */\n      0x00\n        /* \"contracts/verifier.sol\":11251:11255  c[0] */\n      0x02\n      dup2\n      lt\n      tag_34\n      jumpi\n      tag_35\n      tag_15\n      jump\t// in\n    tag_35:\n    tag_34:\n      0x20\n      mul\n      add\n      mload\n        /* \"contracts/verifier.sol\":11235:11262  Pairing.G1Point(c[0], c[1]) */\n      dup2\n      mstore\n      0x20\n      add\n        /* \"contracts/verifier.sol\":11257:11258  c */\n      dup6\n        /* \"contracts/verifier.sol\":11259:11260  1 */\n      0x01\n        /* \"contracts/verifier.sol\":11257:11261  c[1] */\n      0x02\n      dup2\n      lt\n      tag_36\n      jumpi\n      tag_37\n      tag_15\n      jump\t// in\n    tag_37:\n    tag_36:\n      0x20\n      mul\n      add\n      mload\n        /* \"contracts/verifier.sol\":11235:11262  Pairing.G1Point(c[0], c[1]) */\n      dup2\n      mstore\n      pop\n        /* \"contracts/verifier.sol\":11225:11230  proof */\n      dup2\n        /* \"contracts/verifier.sol\":11225:11232  proof.C */\n      0x40\n      add\n        /* \"contracts/verifier.sol\":11225:11262  proof.C = Pairing.G1Point(c[0], c[1]) */\n      dup2\n      swap1\n      mstore\n      pop\n        /* \"contracts/verifier.sol\":11272:11297  uint[] memory inputValues */\n      0x00\n        /* \"contracts/verifier.sol\":11311:11323  input.length */\n      0x02\n        /* \"contracts/verifier.sol\":11300:11324  new uint[](input.length) */\n      0xffffffffffffffff\n      dup2\n      gt\n      iszero\n      tag_38\n      jumpi\n      tag_39\n      tag_40\n      jump\t// in\n    tag_39:\n    tag_38:\n      mload(0x40)\n      swap1\n      dup1\n      dup3\n      mstore\n      dup1\n      0x20\n      mul\n      0x20\n      add\n      dup3\n      add\n      0x40\n      mstore\n      dup1\n      iszero\n      tag_41\n      jumpi\n      dup2\n      0x20\n      add\n      0x20\n      dup3\n      mul\n      dup1\n      calldatasize\n      dup4\n      calldatacopy\n      dup1\n      dup3\n      add\n      swap2\n      pop\n      pop\n      swap1\n      pop\n    tag_41:\n      pop\n        /* \"contracts/verifier.sol\":11272:11324  uint[] memory inputValues = new uint[](input.length) */\n      swap1\n      pop\n        /* \"contracts/verifier.sol\":11338:11344  uint i */\n      0x00\n        /* \"contracts/verifier.sol\":11347:11348  0 */\n      0x00\n        /* \"contracts/verifier.sol\":11338:11348  uint i = 0 */\n      swap1\n      pop\n        /* \"contracts/verifier.sol\":11334:11422  for(uint i = 0; i < input.length; i++){... */\n    tag_42:\n        /* \"contracts/verifier.sol\":11354:11366  input.length */\n      0x02\n        /* \"contracts/verifier.sol\":11350:11351  i */\n      dup2\n        /* \"contracts/verifier.sol\":11350:11366  i < input.length */\n      lt\n        /* \"contracts/verifier.sol\":11334:11422  for(uint i = 0; i < input.length; i++){... */\n      iszero\n      tag_43\n      jumpi\n        /* \"contracts/verifier.sol\":11403:11408  input */\n      dup5\n        /* \"contracts/verifier.sol\":11409:11410  i */\n      dup2\n        /* \"contracts/verifier.sol\":11403:11411  input[i] */\n      0x02\n      dup2\n      lt\n      tag_45\n      jumpi\n      tag_46\n      tag_15\n      jump\t// in\n    tag_46:\n    tag_45:\n      0x20\n      mul\n      add\n      mload\n        /* \"contracts/verifier.sol\":11386:11397  inputValues */\n      dup3\n        /* \"contracts/verifier.sol\":11398:11399  i */\n      dup3\n        /* \"contracts/verifier.sol\":11386:11400  inputValues[i] */\n      dup2\n      mload\n      dup2\n      lt\n      tag_47\n      jumpi\n      tag_48\n      tag_15\n      jump\t// in\n    tag_48:\n    tag_47:\n      0x20\n      mul\n      0x20\n      add\n      add\n        /* \"contracts/verifier.sol\":11386:11411  inputValues[i] = input[i] */\n      dup2\n      dup2\n      mstore\n      pop\n      pop\n        /* \"contracts/verifier.sol\":11368:11371  i++ */\n      dup1\n      dup1\n      0x01\n      add\n      swap2\n      pop\n      pop\n        /* \"contracts/verifier.sol\":11334:11422  for(uint i = 0; i < input.length; i++){... */\n      jump(tag_42)\n    tag_43:\n      pop\n        /* \"contracts/verifier.sol\":11465:11466  0 */\n      0x00\n        /* \"contracts/verifier.sol\":11435:11461  verify(inputValues, proof) */\n      tag_49\n        /* \"contracts/verifier.sol\":11442:11453  inputValues */\n      dup3\n        /* \"contracts/verifier.sol\":11455:11460  proof */\n      dup5\n        /* \"contracts/verifier.sol\":11435:11441  verify */\n      tag_50\n        /* \"contracts/verifier.sol\":11435:11461  verify(inputValues, proof) */\n      jump\t// in\n    tag_49:\n        /* \"contracts/verifier.sol\":11435:11466  verify(inputValues, proof) == 0 */\n      sub\n        /* \"contracts/verifier.sol\":11431:11547  if (verify(inputValues, proof) == 0) {... */\n      tag_51\n      jumpi\n        /* \"contracts/verifier.sol\":11489:11493  true */\n      0x01\n        /* \"contracts/verifier.sol\":11482:11493  return true */\n      swap3\n      pop\n      pop\n      pop\n      jump(tag_10)\n        /* \"contracts/verifier.sol\":11431:11547  if (verify(inputValues, proof) == 0) {... */\n    tag_51:\n        /* \"contracts/verifier.sol\":11531:11536  false */\n      0x00\n        /* \"contracts/verifier.sol\":11524:11536  return false */\n      swap3\n      pop\n      pop\n      pop\n        /* \"contracts/verifier.sol\":10878:11553  function verifyProof(... */\n    tag_10:\n      swap5\n      swap4\n      pop\n      pop\n      pop\n      pop\n      jump\t// out\n        /* \"contracts/verifier.sol\":9894:10826  function verify(uint[] memory input, Proof memory proof) internal view returns (uint) {... */\n    tag_50:\n        /* \"contracts/verifier.sol\":9974:9978  uint */\n      0x00\n        /* \"contracts/verifier.sol\":9990:10016  uint256 snark_scalar_field */\n      0x00\n        /* \"contracts/verifier.sol\":10019:10096  21888242871839275222246405745257275088548364400416034343698204186575808495617 */\n      0x30644e72e131a029b85045b68181585d2833e84879b9709143e1f593f0000001\n        /* \"contracts/verifier.sol\":9990:10096  uint256 snark_scalar_field = 21888242871839275222246405745257275088548364400416034343698204186575808495617 */\n      swap1\n      pop\n        /* \"contracts/verifier.sol\":10106:10128  VerifyingKey memory vk */\n      0x00\n        /* \"contracts/verifier.sol\":10131:10145  verifyingKey() */\n      tag_54\n        /* \"contracts/verifier.sol\":10131:10143  verifyingKey */\n      tag_55\n        /* \"contracts/verifier.sol\":10131:10145  verifyingKey() */\n      jump\t// in\n    tag_54:\n        /* \"contracts/verifier.sol\":10106:10145  VerifyingKey memory vk = verifyingKey() */\n      swap1\n      pop\n        /* \"contracts/verifier.sol\":10183:10185  vk */\n      dup1\n        /* \"contracts/verifier.sol\":10183:10188  vk.IC */\n      0x80\n      add\n      mload\n        /* \"contracts/verifier.sol\":10183:10195  vk.IC.length */\n      mload\n        /* \"contracts/verifier.sol\":10178:10179  1 */\n      0x01\n        /* \"contracts/verifier.sol\":10163:10168  input */\n      dup7\n        /* \"contracts/verifier.sol\":10163:10175  input.length */\n      mload\n        /* \"contracts/verifier.sol\":10163:10179  input.length + 1 */\n      tag_56\n      swap2\n      swap1\n      tag_57\n      jump\t// in\n    tag_56:\n        /* \"contracts/verifier.sol\":10163:10195  input.length + 1 == vk.IC.length */\n      eq\n        /* \"contracts/verifier.sol\":10155:10217  require(input.length + 1 == vk.IC.length,\"verifier-bad-input\") */\n      tag_58\n      jumpi\n      mload(0x40)\n      0x08c379a000000000000000000000000000000000000000000000000000000000\n      dup2\n      mstore\n      0x04\n      add\n      tag_59\n      swap1\n      tag_60\n      jump\t// in\n    tag_59:\n      mload(0x40)\n      dup1\n      swap2\n      sub\n      swap1\n      revert\n    tag_58:\n        /* \"contracts/verifier.sol\":10274:10301  Pairing.G1Point memory vk_x */\n      0x00\n        /* \"contracts/verifier.sol\":10304:10325  Pairing.G1Point(0, 0) */\n      mload(0x40)\n      dup1\n      0x40\n      add\n      0x40\n      mstore\n      dup1\n        /* \"contracts/verifier.sol\":10320:10321  0 */\n      0x00\n        /* \"contracts/verifier.sol\":10304:10325  Pairing.G1Point(0, 0) */\n      dup2\n      mstore\n      0x20\n      add\n        /* \"contracts/verifier.sol\":10323:10324  0 */\n      0x00\n        /* \"contracts/verifier.sol\":10304:10325  Pairing.G1Point(0, 0) */\n      dup2\n      mstore\n      pop\n        /* \"contracts/verifier.sol\":10274:10325  Pairing.G1Point memory vk_x = Pairing.G1Point(0, 0) */\n      swap1\n      pop\n        /* \"contracts/verifier.sol\":10340:10346  uint i */\n      0x00\n        /* \"contracts/verifier.sol\":10349:10350  0 */\n      0x00\n        /* \"contracts/verifier.sol\":10340:10350  uint i = 0 */\n      swap1\n      pop\n        /* \"contracts/verifier.sol\":10335:10559  for (uint i = 0; i < input.length; i++) {... */\n    tag_61:\n        /* \"contracts/verifier.sol\":10356:10361  input */\n      dup7\n        /* \"contracts/verifier.sol\":10356:10368  input.length */\n      mload\n        /* \"contracts/verifier.sol\":10352:10353  i */\n      dup2\n        /* \"contracts/verifier.sol\":10352:10368  i < input.length */\n      lt\n        /* \"contracts/verifier.sol\":10335:10559  for (uint i = 0; i < input.length; i++) {... */\n      iszero\n      tag_62\n      jumpi\n        /* \"contracts/verifier.sol\":10408:10426  snark_scalar_field */\n      dup4\n        /* \"contracts/verifier.sol\":10397:10402  input */\n      dup8\n        /* \"contracts/verifier.sol\":10403:10404  i */\n      dup3\n        /* \"contracts/verifier.sol\":10397:10405  input[i] */\n      dup2\n      mload\n      dup2\n      lt\n      tag_64\n      jumpi\n      tag_65\n      tag_15\n      jump\t// in\n    tag_65:\n    tag_64:\n      0x20\n      mul\n      0x20\n      add\n      add\n      mload\n        /* \"contracts/verifier.sol\":10397:10426  input[i] < snark_scalar_field */\n      lt\n        /* \"contracts/verifier.sol\":10389:10461  require(input[i] < snark_scalar_field,\"verifier-gte-snark-scalar-field\") */\n      tag_66\n      jumpi\n      mload(0x40)\n      0x08c379a000000000000000000000000000000000000000000000000000000000\n      dup2\n      mstore\n      0x04\n      add\n      tag_67\n      swap1\n      tag_68\n      jump\t// in\n    tag_67:\n      mload(0x40)\n      dup1\n      swap2\n      sub\n      swap1\n      revert\n    tag_66:\n        /* \"contracts/verifier.sol\":10482:10548  Pairing.addition(vk_x, Pairing.scalar_mul(vk.IC[i + 1], input[i])) */\n      tag_69\n        /* \"contracts/verifier.sol\":10499:10503  vk_x */\n      dup3\n        /* \"contracts/verifier.sol\":10505:10547  Pairing.scalar_mul(vk.IC[i + 1], input[i]) */\n      tag_70\n        /* \"contracts/verifier.sol\":10524:10526  vk */\n      dup6\n        /* \"contracts/verifier.sol\":10524:10529  vk.IC */\n      0x80\n      add\n      mload\n        /* \"contracts/verifier.sol\":10534:10535  1 */\n      0x01\n        /* \"contracts/verifier.sol\":10530:10531  i */\n      dup6\n        /* \"contracts/verifier.sol\":10530:10535  i + 1 */\n      tag_71\n      swap2\n      swap1\n      tag_57\n      jump\t// in\n    tag_71:\n        /* \"contracts/verifier.sol\":10524:10536  vk.IC[i + 1] */\n      dup2\n      mload\n      dup2\n      lt\n      tag_72\n      jumpi\n      tag_73\n      tag_15\n      jump\t// in\n    tag_73:\n    tag_72:\n      0x20\n      mul\n      0x20\n      add\n      add\n      mload\n        /* \"contracts/verifier.sol\":10538:10543  input */\n      dup11\n        /* \"contracts/verifier.sol\":10544:10545  i */\n      dup6\n        /* \"contracts/verifier.sol\":10538:10546  input[i] */\n      dup2\n      mload\n      dup2\n      lt\n      tag_74\n      jumpi\n      tag_75\n      tag_15\n      jump\t// in\n    tag_75:\n    tag_74:\n      0x20\n      mul\n      0x20\n      add\n      add\n      mload\n        /* \"contracts/verifier.sol\":10505:10523  Pairing.scalar_mul */\n      tag_76\n        /* \"contracts/verifier.sol\":10505:10547  Pairing.scalar_mul(vk.IC[i + 1], input[i]) */\n      jump\t// in\n    tag_70:\n        /* \"contracts/verifier.sol\":10482:10498  Pairing.addition */\n      tag_77\n        /* \"contracts/verifier.sol\":10482:10548  Pairing.addition(vk_x, Pairing.scalar_mul(vk.IC[i + 1], input[i])) */\n      jump\t// in\n    tag_69:\n        /* \"contracts/verifier.sol\":10475:10548  vk_x = Pairing.addition(vk_x, Pairing.scalar_mul(vk.IC[i + 1], input[i])) */\n      swap2\n      pop\n        /* \"contracts/verifier.sol\":10370:10373  i++ */\n      dup1\n      dup1\n      0x01\n      add\n      swap2\n      pop\n      pop\n        /* \"contracts/verifier.sol\":10335:10559  for (uint i = 0; i < input.length; i++) {... */\n      jump(tag_61)\n    tag_62:\n      pop\n        /* \"contracts/verifier.sol\":10575:10607  Pairing.addition(vk_x, vk.IC[0]) */\n      tag_78\n        /* \"contracts/verifier.sol\":10592:10596  vk_x */\n      dup2\n        /* \"contracts/verifier.sol\":10598:10600  vk */\n      dup4\n        /* \"contracts/verifier.sol\":10598:10603  vk.IC */\n      0x80\n      add\n      mload\n        /* \"contracts/verifier.sol\":10604:10605  0 */\n      0x00\n        /* \"contracts/verifier.sol\":10598:10606  vk.IC[0] */\n      dup2\n      mload\n      dup2\n      lt\n      tag_79\n      jumpi\n      tag_80\n      tag_15\n      jump\t// in\n    tag_80:\n    tag_79:\n      0x20\n      mul\n      0x20\n      add\n      add\n      mload\n        /* \"contracts/verifier.sol\":10575:10591  Pairing.addition */\n      tag_77\n        /* \"contracts/verifier.sol\":10575:10607  Pairing.addition(vk_x, vk.IC[0]) */\n      jump\t// in\n    tag_78:\n        /* \"contracts/verifier.sol\":10568:10607  vk_x = Pairing.addition(vk_x, vk.IC[0]) */\n      swap1\n      pop\n        /* \"contracts/verifier.sol\":10622:10791  Pairing.pairingProd4(... */\n      tag_81\n        /* \"contracts/verifier.sol\":10656:10679  Pairing.negate(proof.A) */\n      tag_82\n        /* \"contracts/verifier.sol\":10671:10676  proof */\n      dup7\n        /* \"contracts/verifier.sol\":10671:10678  proof.A */\n      0x00\n      add\n      mload\n        /* \"contracts/verifier.sol\":10656:10670  Pairing.negate */\n      tag_83\n        /* \"contracts/verifier.sol\":10656:10679  Pairing.negate(proof.A) */\n      jump\t// in\n    tag_82:\n        /* \"contracts/verifier.sol\":10681:10686  proof */\n      dup7\n        /* \"contracts/verifier.sol\":10681:10688  proof.B */\n      0x20\n      add\n      mload\n        /* \"contracts/verifier.sol\":10702:10704  vk */\n      dup5\n        /* \"contracts/verifier.sol\":10702:10710  vk.alfa1 */\n      0x00\n      add\n      mload\n        /* \"contracts/verifier.sol\":10712:10714  vk */\n      dup6\n        /* \"contracts/verifier.sol\":10712:10720  vk.beta2 */\n      0x20\n      add\n      mload\n        /* \"contracts/verifier.sol\":10734:10738  vk_x */\n      dup6\n        /* \"contracts/verifier.sol\":10740:10742  vk */\n      dup8\n        /* \"contracts/verifier.sol\":10740:10749  vk.gamma2 */\n      0x40\n      add\n      mload\n        /* \"contracts/verifier.sol\":10763:10768  proof */\n      dup12\n        /* \"contracts/verifier.sol\":10763:10770  proof.C */\n      0x40\n      add\n      mload\n        /* \"contracts/verifier.sol\":10772:10774  vk */\n      dup10\n        /* \"contracts/verifier.sol\":10772:10781  vk.delta2 */\n      0x60\n      add\n      mload\n        /* \"contracts/verifier.sol\":10622:10642  Pairing.pairingProd4 */\n      tag_84\n        /* \"contracts/verifier.sol\":10622:10791  Pairing.pairingProd4(... */\n      jump\t// in\n    tag_81:\n        /* \"contracts/verifier.sol\":10617:10801  if (!Pairing.pairingProd4(... */\n      tag_85\n      jumpi\n        /* \"contracts/verifier.sol\":10800:10801  1 */\n      0x01\n        /* \"contracts/verifier.sol\":10793:10801  return 1 */\n      swap4\n      pop\n      pop\n      pop\n      pop\n      jump(tag_53)\n        /* \"contracts/verifier.sol\":10617:10801  if (!Pairing.pairingProd4(... */\n    tag_85:\n        /* \"contracts/verifier.sol\":10818:10819  0 */\n      0x00\n        /* \"contracts/verifier.sol\":10811:10819  return 0 */\n      swap4\n      pop\n      pop\n      pop\n      pop\n        /* \"contracts/verifier.sol\":9894:10826  function verify(uint[] memory input, Proof memory proof) internal view returns (uint) {... */\n    tag_53:\n      swap3\n      swap2\n      pop\n      pop\n      jump\t// out\n        /* \"contracts/verifier.sol\":7464:9889  function verifyingKey() internal pure returns (VerifyingKey memory vk) {... */\n    tag_55:\n        /* \"contracts/verifier.sol\":7511:7533  VerifyingKey memory vk */\n      tag_86\n      tag_87\n      jump\t// in\n    tag_86:\n        /* \"contracts/verifier.sol\":7556:7762  Pairing.G1Point(... */\n      mload(0x40)\n      dup1\n      0x40\n      add\n      0x40\n      mstore\n      dup1\n        /* \"contracts/verifier.sol\":7585:7662  20491192805390485299153009773594534940189261866228447918068658471970481763042 */\n      0x2d4d9aa7e302d9df41749d5507949d05dbea33fbb16c643b22f599a2be6df2e2\n        /* \"contracts/verifier.sol\":7556:7762  Pairing.G1Point(... */\n      dup2\n      mstore\n      0x20\n      add\n        /* \"contracts/verifier.sol\":7676:7752  9383485363053290200918347156157836566562967994039712273449902621266178545958 */\n      0x14bedd503c37ceb061d8ec60209fe345ce89830a19230301f076caff004d1926\n        /* \"contracts/verifier.sol\":7556:7762  Pairing.G1Point(... */\n      dup2\n      mstore\n      pop\n        /* \"contracts/verifier.sol\":7545:7547  vk */\n      dup2\n        /* \"contracts/verifier.sol\":7545:7553  vk.alfa1 */\n      0x00\n      add\n        /* \"contracts/verifier.sol\":7545:7762  vk.alfa1 = Pairing.G1Point(... */\n      dup2\n      swap1\n      mstore\n      pop\n        /* \"contracts/verifier.sol\":7784:8177  Pairing.G2Point(... */\n      mload(0x40)\n      dup1\n      0x40\n      add\n      0x40\n      mstore\n      dup1\n      mload(0x40)\n      dup1\n      0x40\n      add\n      0x40\n      mstore\n      dup1\n        /* \"contracts/verifier.sol\":7814:7890  4252822878758300859123897981450591353533073413197771768651442665752259397132 */\n      0x0967032fcbf776d1afc985f88877f182d38480a653f2decaa9794cbc3bf3060c\n        /* \"contracts/verifier.sol\":7784:8177  Pairing.G2Point(... */\n      dup2\n      mstore\n      0x20\n      add\n        /* \"contracts/verifier.sol\":7905:7981  6375614351688725206403948262868962793625744043794305715222011528459656738731 */\n      0x0e187847ad4c798374d0d6732bf501847dd68bc0e071241e0213bc7fc13db7ab\n        /* \"contracts/verifier.sol\":7784:8177  Pairing.G2Point(... */\n      dup2\n      mstore\n      pop\n      dup2\n      mstore\n      0x20\n      add\n      mload(0x40)\n      dup1\n      0x40\n      add\n      0x40\n      mstore\n      dup1\n        /* \"contracts/verifier.sol\":7997:8074  21847035105528745403288232691147584728191162732299865338377159692350059136679 */\n      0x304cfbd1e08a704a99f5e847d93f8c3caafddec46b7a0d379da69a4d112346a7\n        /* \"contracts/verifier.sol\":7784:8177  Pairing.G2Point(... */\n      dup2\n      mstore\n      0x20\n      add\n        /* \"contracts/verifier.sol\":8089:8166  10505242626370262277552901082094356697409835680220590971873171140371331206856 */\n      0x1739c1b1a457a8c7313123d24d2f9192f896b7c63eea05a9d57f06547ad0cec8\n        /* \"contracts/verifier.sol\":7784:8177  Pairing.G2Point(... */\n      dup2\n      mstore\n      pop\n      dup2\n      mstore\n      pop\n        /* \"contracts/verifier.sol\":7773:7775  vk */\n      dup2\n        /* \"contracts/verifier.sol\":7773:7781  vk.beta2 */\n      0x20\n      add\n        /* \"contracts/verifier.sol\":7773:8177  vk.beta2 = Pairing.G2Point(... */\n      dup2\n      swap1\n      mstore\n      pop\n        /* \"contracts/verifier.sol\":8199:8592  Pairing.G2Point(... */\n      mload(0x40)\n      dup1\n      0x40\n      add\n      0x40\n      mstore\n      dup1\n      mload(0x40)\n      dup1\n      0x40\n      add\n      0x40\n      mstore\n      dup1\n        /* \"contracts/verifier.sol\":8229:8306  11559732032986387107991004021392285783925812861821192530917403151452391805634 */\n      0x198e9393920d483a7260bfb731fb5d25f1aa493335a9e71297e485b7aef312c2\n        /* \"contracts/verifier.sol\":8199:8592  Pairing.G2Point(... */\n      dup2\n      mstore\n      0x20\n      add\n        /* \"contracts/verifier.sol\":8321:8398  10857046999023057135944570762232829481370756359578518086990519993285655852781 */\n      0x1800deef121f1e76426a00665e5c4479674322d4f75edadd46debd5cd992f6ed\n        /* \"contracts/verifier.sol\":8199:8592  Pairing.G2Point(... */\n      dup2\n      mstore\n      pop\n      dup2\n      mstore\n      0x20\n      add\n      mload(0x40)\n      dup1\n      0x40\n      add\n      0x40\n      mstore\n      dup1\n        /* \"contracts/verifier.sol\":8414:8490  4082367875863433681332203403145435568316851327593401208105741076214120093531 */\n      0x090689d0585ff075ec9e99ad690c3395bc4b313370b38ef355acdadcd122975b\n        /* \"contracts/verifier.sol\":8199:8592  Pairing.G2Point(... */\n      dup2\n      mstore\n      0x20\n      add\n        /* \"contracts/verifier.sol\":8505:8581  8495653923123431417604973247489272438418190587263600148770280649306958101930 */\n      0x12c85ea5db8c6deb4aab71808dcb408fe3d1e7690c43d37b4ce6cc0166fa7daa\n        /* \"contracts/verifier.sol\":8199:8592  Pairing.G2Point(... */\n      dup2\n      mstore\n      pop\n      dup2\n      mstore\n      pop\n        /* \"contracts/verifier.sol\":8187:8189  vk */\n      dup2\n        /* \"contracts/verifier.sol\":8187:8196  vk.gamma2 */\n      0x40\n      add\n        /* \"contracts/verifier.sol\":8187:8592  vk.gamma2 = Pairing.G2Point(... */\n      dup2\n      swap1\n      mstore\n      pop\n        /* \"contracts/verifier.sol\":8614:9007  Pairing.G2Point(... */\n      mload(0x40)\n      dup1\n      0x40\n      add\n      0x40\n      mstore\n      dup1\n      mload(0x40)\n      dup1\n      0x40\n      add\n      0x40\n      mstore\n      dup1\n        /* \"contracts/verifier.sol\":8644:8721  11559732032986387107991004021392285783925812861821192530917403151452391805634 */\n      0x198e9393920d483a7260bfb731fb5d25f1aa493335a9e71297e485b7aef312c2\n        /* \"contracts/verifier.sol\":8614:9007  Pairing.G2Point(... */\n      dup2\n      mstore\n      0x20\n      add\n        /* \"contracts/verifier.sol\":8736:8813  10857046999023057135944570762232829481370756359578518086990519993285655852781 */\n      0x1800deef121f1e76426a00665e5c4479674322d4f75edadd46debd5cd992f6ed\n        /* \"contracts/verifier.sol\":8614:9007  Pairing.G2Point(... */\n      dup2\n      mstore\n      pop\n      dup2\n      mstore\n      0x20\n      add\n      mload(0x40)\n      dup1\n      0x40\n      add\n      0x40\n      mstore\n      dup1\n        /* \"contracts/verifier.sol\":8829:8905  4082367875863433681332203403145435568316851327593401208105741076214120093531 */\n      0x090689d0585ff075ec9e99ad690c3395bc4b313370b38ef355acdadcd122975b\n        /* \"contracts/verifier.sol\":8614:9007  Pairing.G2Point(... */\n      dup2\n      mstore\n      0x20\n      add\n        /* \"contracts/verifier.sol\":8920:8996  8495653923123431417604973247489272438418190587263600148770280649306958101930 */\n      0x12c85ea5db8c6deb4aab71808dcb408fe3d1e7690c43d37b4ce6cc0166fa7daa\n        /* \"contracts/verifier.sol\":8614:9007  Pairing.G2Point(... */\n      dup2\n      mstore\n      pop\n      dup2\n      mstore\n      pop\n        /* \"contracts/verifier.sol\":8602:8604  vk */\n      dup2\n        /* \"contracts/verifier.sol\":8602:8611  vk.delta2 */\n      0x60\n      add\n        /* \"contracts/verifier.sol\":8602:9007  vk.delta2 = Pairing.G2Point(... */\n      dup2\n      swap1\n      mstore\n      pop\n        /* \"contracts/verifier.sol\":9047:9048  3 */\n      0x03\n        /* \"contracts/verifier.sol\":9025:9049  new Pairing.G1Point[](3) */\n      0xffffffffffffffff\n      dup2\n      gt\n      iszero\n      tag_89\n      jumpi\n      tag_90\n      tag_40\n      jump\t// in\n    tag_90:\n    tag_89:\n      mload(0x40)\n      swap1\n      dup1\n      dup3\n      mstore\n      dup1\n      0x20\n      mul\n      0x20\n      add\n      dup3\n      add\n      0x40\n      mstore\n      dup1\n      iszero\n      tag_91\n      jumpi\n      dup2\n      0x20\n      add\n    tag_92:\n      tag_93\n      tag_94\n      jump\t// in\n    tag_93:\n      dup2\n      mstore\n      0x20\n      add\n      swap1\n      0x01\n      swap1\n      sub\n      swap1\n      dup2\n      tag_92\n      jumpi\n      swap1\n      pop\n    tag_91:\n      pop\n        /* \"contracts/verifier.sol\":9017:9019  vk */\n      dup2\n        /* \"contracts/verifier.sol\":9017:9022  vk.IC */\n      0x80\n      add\n        /* \"contracts/verifier.sol\":9017:9049  vk.IC = new Pairing.G1Point[](3) */\n      dup2\n      swap1\n      mstore\n      pop\n        /* \"contracts/verifier.sol\":9079:9285  Pairing.G1Point( ... */\n      mload(0x40)\n      dup1\n      0x40\n      add\n      0x40\n      mstore\n      dup1\n        /* \"contracts/verifier.sol\":9109:9184  907082046166848403662755682318758048763333219052759262226888852664247719678 */\n      0x020163e70c56f84f120db0a5c8fdb675a5233d4474d7b7d5ea96b2e3c32d16fe\n        /* \"contracts/verifier.sol\":9079:9285  Pairing.G1Point( ... */\n      dup2\n      mstore\n      0x20\n      add\n        /* \"contracts/verifier.sol\":9198:9275  13772868673976322661276556815121724196712611456125880819435532265591384929117 */\n      0x1e732adbfb31f1fd6dea615e4304ac3372bc61d274a353bd34318f3f9d75735d\n        /* \"contracts/verifier.sol\":9079:9285  Pairing.G1Point( ... */\n      dup2\n      mstore\n      pop\n        /* \"contracts/verifier.sol\":9068:9070  vk */\n      dup2\n        /* \"contracts/verifier.sol\":9068:9073  vk.IC */\n      0x80\n      add\n      mload\n        /* \"contracts/verifier.sol\":9074:9075  0 */\n      0x00\n        /* \"contracts/verifier.sol\":9068:9076  vk.IC[0] */\n      dup2\n      mload\n      dup2\n      lt\n      tag_95\n      jumpi\n      tag_96\n      tag_15\n      jump\t// in\n    tag_96:\n    tag_95:\n      0x20\n      mul\n      0x20\n      add\n      add\n        /* \"contracts/verifier.sol\":9068:9285  vk.IC[0] = Pairing.G1Point( ... */\n      dup2\n      swap1\n      mstore\n      pop\n        /* \"contracts/verifier.sol\":9353:9560  Pairing.G1Point( ... */\n      mload(0x40)\n      dup1\n      0x40\n      add\n      0x40\n      mstore\n      dup1\n        /* \"contracts/verifier.sol\":9383:9460  14808146059947600581045955083782207443549812856960403909774034802573047162050 */\n      0x20bd1d187556a6d75fbb47ee23481ee36d1e8f81bf10043e5bffc1cd8536e4c2\n        /* \"contracts/verifier.sol\":9353:9560  Pairing.G1Point( ... */\n      dup2\n      mstore\n      0x20\n      add\n        /* \"contracts/verifier.sol\":9474:9550  1086338950447616826289662789021021878021771857362357242781351280816191633621 */\n      0x0266d8972ad53bba47b7f1337379b3d03434bc442a49cbd9b910f44c7dd6f8d5\n        /* \"contracts/verifier.sol\":9353:9560  Pairing.G1Point( ... */\n      dup2\n      mstore\n      pop\n        /* \"contracts/verifier.sol\":9342:9344  vk */\n      dup2\n        /* \"contracts/verifier.sol\":9342:9347  vk.IC */\n      0x80\n      add\n      mload\n        /* \"contracts/verifier.sol\":9348:9349  1 */\n      0x01\n        /* \"contracts/verifier.sol\":9342:9350  vk.IC[1] */\n      dup2\n      mload\n      dup2\n      lt\n      tag_97\n      jumpi\n      tag_98\n      tag_15\n      jump\t// in\n    tag_98:\n    tag_97:\n      0x20\n      mul\n      0x20\n      add\n      add\n        /* \"contracts/verifier.sol\":9342:9560  vk.IC[1] = Pairing.G1Point( ... */\n      dup2\n      swap1\n      mstore\n      pop\n        /* \"contracts/verifier.sol\":9628:9835  Pairing.G1Point( ... */\n      mload(0x40)\n      dup1\n      0x40\n      add\n      0x40\n      mstore\n      dup1\n        /* \"contracts/verifier.sol\":9658:9734  4409293795953421913352017523563336444457550942519899190266670184661945314920 */\n      0x09bf9264ae6f2136a12436bc78419bf4428fb9516943a3dc8a298fe798d26e68\n        /* \"contracts/verifier.sol\":9628:9835  Pairing.G1Point( ... */\n      dup2\n      mstore\n      0x20\n      add\n        /* \"contracts/verifier.sol\":9748:9825  13002239337001261969473038829996565475753673331173499940341032884807981931927 */\n      0x1cbf01b537141584b3b4775016a4653f566ec617331e2ad44c10657ec8f91d97\n        /* \"contracts/verifier.sol\":9628:9835  Pairing.G1Point( ... */\n      dup2\n      mstore\n      pop\n        /* \"contracts/verifier.sol\":9617:9619  vk */\n      dup2\n        /* \"contracts/verifier.sol\":9617:9622  vk.IC */\n      0x80\n      add\n      mload\n        /* \"contracts/verifier.sol\":9623:9624  2 */\n      0x02\n        /* \"contracts/verifier.sol\":9617:9625  vk.IC[2] */\n      dup2\n      mload\n      dup2\n      lt\n      tag_99\n      jumpi\n      tag_100\n      tag_15\n      jump\t// in\n    tag_100:\n    tag_99:\n      0x20\n      mul\n      0x20\n      add\n      add\n        /* \"contracts/verifier.sol\":9617:9835  vk.IC[2] = Pairing.G1Point( ... */\n      dup2\n      swap1\n      mstore\n      pop\n        /* \"contracts/verifier.sol\":7464:9889  function verifyingKey() internal pure returns (VerifyingKey memory vk) {... */\n      swap1\n      jump\t// out\n        /* \"contracts/verifier.sol\":3772:4311  function scalar_mul(G1Point memory p, uint s) internal view returns (G1Point memory r) {... */\n    tag_76:\n        /* \"contracts/verifier.sol\":3841:3857  G1Point memory r */\n      tag_101\n      tag_94\n      jump\t// in\n    tag_101:\n        /* \"contracts/verifier.sol\":3869:3889  uint[3] memory input */\n      tag_103\n      tag_104\n      jump\t// in\n    tag_103:\n        /* \"contracts/verifier.sol\":3910:3911  p */\n      dup4\n        /* \"contracts/verifier.sol\":3910:3913  p.X */\n      0x00\n      add\n      mload\n        /* \"contracts/verifier.sol\":3899:3904  input */\n      dup2\n        /* \"contracts/verifier.sol\":3905:3906  0 */\n      0x00\n        /* \"contracts/verifier.sol\":3899:3907  input[0] */\n      0x03\n      dup2\n      lt\n      tag_105\n      jumpi\n      tag_106\n      tag_15\n      jump\t// in\n    tag_106:\n    tag_105:\n      0x20\n      mul\n      add\n        /* \"contracts/verifier.sol\":3899:3913  input[0] = p.X */\n      dup2\n      dup2\n      mstore\n      pop\n      pop\n        /* \"contracts/verifier.sol\":3934:3935  p */\n      dup4\n        /* \"contracts/verifier.sol\":3934:3937  p.Y */\n      0x20\n      add\n      mload\n        /* \"contracts/verifier.sol\":3923:3928  input */\n      dup2\n        /* \"contracts/verifier.sol\":3929:3930  1 */\n      0x01\n        /* \"contracts/verifier.sol\":3923:3931  input[1] */\n      0x03\n      dup2\n      lt\n      tag_107\n      jumpi\n      tag_108\n      tag_15\n      jump\t// in\n    tag_108:\n    tag_107:\n      0x20\n      mul\n      add\n        /* \"contracts/verifier.sol\":3923:3937  input[1] = p.Y */\n      dup2\n      dup2\n      mstore\n      pop\n      pop\n        /* \"contracts/verifier.sol\":3958:3959  s */\n      dup3\n        /* \"contracts/verifier.sol\":3947:3952  input */\n      dup2\n        /* \"contracts/verifier.sol\":3953:3954  2 */\n      0x02\n        /* \"contracts/verifier.sol\":3947:3955  input[2] */\n      0x03\n      dup2\n      lt\n      tag_109\n      jumpi\n      tag_110\n      tag_15\n      jump\t// in\n    tag_110:\n    tag_109:\n      0x20\n      mul\n      add\n        /* \"contracts/verifier.sol\":3947:3959  input[2] = s */\n      dup2\n      dup2\n      mstore\n      pop\n      pop\n        /* \"contracts/verifier.sol\":3969:3981  bool success */\n      0x00\n        /* \"contracts/verifier.sol\":4137:4141  0x60 */\n      0x60\n        /* \"contracts/verifier.sol\":4134:4135  r */\n      dup4\n        /* \"contracts/verifier.sol\":4128:4132  0x80 */\n      0x80\n        /* \"contracts/verifier.sol\":4121:4126  input */\n      dup5\n        /* \"contracts/verifier.sol\":4118:4119  7 */\n      0x07\n        /* \"contracts/verifier.sol\":4111:4115  2000 */\n      0x07d0\n        /* \"contracts/verifier.sol\":4104:4109  gas() */\n      gas\n        /* \"contracts/verifier.sol\":4100:4116  sub(gas(), 2000) */\n      sub\n        /* \"contracts/verifier.sol\":4089:4142  staticcall(sub(gas(), 2000), 7, input, 0x80, r, 0x60) */\n      staticcall\n        /* \"contracts/verifier.sol\":4078:4142  success := staticcall(sub(gas(), 2000), 7, input, 0x80, r, 0x60) */\n      swap1\n      pop\n        /* \"contracts/verifier.sol\":4219:4226  success */\n      dup1\n        /* \"contracts/verifier.sol\":4232:4233  0 */\n      0x00\n        /* \"contracts/verifier.sol\":4227:4247  case 0 { invalid() } */\n      dup2\n      sub\n        /* \"contracts/verifier.sol\":4212:4247  switch success case 0 { invalid() } */\n      tag_111\n        /* \"contracts/verifier.sol\":4227:4247  case 0 { invalid() } */\n      jumpi\n        /* \"contracts/verifier.sol\":4236:4245  invalid() */\n      invalid\n        /* \"contracts/verifier.sol\":4212:4247  switch success case 0 { invalid() } */\n    tag_111:\n      pop\n        /* \"contracts/verifier.sol\":4275:4282  success */\n      dup1\n        /* \"contracts/verifier.sol\":4266:4304  require (success,\"pairing-mul-failed\") */\n      tag_113\n      jumpi\n      mload(0x40)\n      0x08c379a000000000000000000000000000000000000000000000000000000000\n      dup2\n      mstore\n      0x04\n      add\n      tag_114\n      swap1\n      tag_115\n      jump\t// in\n    tag_114:\n      mload(0x40)\n      dup1\n      swap2\n      sub\n      swap1\n      revert\n    tag_113:\n        /* \"contracts/verifier.sol\":3859:4311  {... */\n      pop\n      pop\n        /* \"contracts/verifier.sol\":3772:4311  function scalar_mul(G1Point memory p, uint s) internal view returns (G1Point memory r) {... */\n      swap3\n      swap2\n      pop\n      pop\n      jump\t// out\n        /* \"contracts/verifier.sol\":3039:3617  function addition(G1Point memory p1, G1Point memory p2) internal view returns (G1Point memory r) {... */\n    tag_77:\n        /* \"contracts/verifier.sol\":3118:3134  G1Point memory r */\n      tag_116\n      tag_94\n      jump\t// in\n    tag_116:\n        /* \"contracts/verifier.sol\":3146:3166  uint[4] memory input */\n      tag_118\n      tag_119\n      jump\t// in\n    tag_118:\n        /* \"contracts/verifier.sol\":3187:3189  p1 */\n      dup4\n        /* \"contracts/verifier.sol\":3187:3191  p1.X */\n      0x00\n      add\n      mload\n        /* \"contracts/verifier.sol\":3176:3181  input */\n      dup2\n        /* \"contracts/verifier.sol\":3182:3183  0 */\n      0x00\n        /* \"contracts/verifier.sol\":3176:3184  input[0] */\n      0x04\n      dup2\n      lt\n      tag_120\n      jumpi\n      tag_121\n      tag_15\n      jump\t// in\n    tag_121:\n    tag_120:\n      0x20\n      mul\n      add\n        /* \"contracts/verifier.sol\":3176:3191  input[0] = p1.X */\n      dup2\n      dup2\n      mstore\n      pop\n      pop\n        /* \"contracts/verifier.sol\":3212:3214  p1 */\n      dup4\n        /* \"contracts/verifier.sol\":3212:3216  p1.Y */\n      0x20\n      add\n      mload\n        /* \"contracts/verifier.sol\":3201:3206  input */\n      dup2\n        /* \"contracts/verifier.sol\":3207:3208  1 */\n      0x01\n        /* \"contracts/verifier.sol\":3201:3209  input[1] */\n      0x04\n      dup2\n      lt\n      tag_122\n      jumpi\n      tag_123\n      tag_15\n      jump\t// in\n    tag_123:\n    tag_122:\n      0x20\n      mul\n      add\n        /* \"contracts/verifier.sol\":3201:3216  input[1] = p1.Y */\n      dup2\n      dup2\n      mstore\n      pop\n      pop\n        /* \"contracts/verifier.sol\":3237:3239  p2 */\n      dup3\n        /* \"contracts/verifier.sol\":3237:3241  p2.X */\n      0x00\n      add\n      mload\n        /* \"contracts/verifier.sol\":3226:3231  input */\n      dup2\n        /* \"contracts/verifier.sol\":3232:3233  2 */\n      0x02\n        /* \"contracts/verifier.sol\":3226:3234  input[2] */\n      0x04\n      dup2\n      lt\n      tag_124\n      jumpi\n      tag_125\n      tag_15\n      jump\t// in\n    tag_125:\n    tag_124:\n      0x20\n      mul\n      add\n        /* \"contracts/verifier.sol\":3226:3241  input[2] = p2.X */\n      dup2\n      dup2\n      mstore\n      pop\n      pop\n        /* \"contracts/verifier.sol\":3262:3264  p2 */\n      dup3\n        /* \"contracts/verifier.sol\":3262:3266  p2.Y */\n      0x20\n      add\n      mload\n        /* \"contracts/verifier.sol\":3251:3256  input */\n      dup2\n        /* \"contracts/verifier.sol\":3257:3258  3 */\n      0x03\n        /* \"contracts/verifier.sol\":3251:3259  input[3] */\n      0x04\n      dup2\n      lt\n      tag_126\n      jumpi\n      tag_127\n      tag_15\n      jump\t// in\n    tag_127:\n    tag_126:\n      0x20\n      mul\n      add\n        /* \"contracts/verifier.sol\":3251:3266  input[3] = p2.Y */\n      dup2\n      dup2\n      mstore\n      pop\n      pop\n        /* \"contracts/verifier.sol\":3276:3288  bool success */\n      0x00\n        /* \"contracts/verifier.sol\":3444:3448  0x60 */\n      0x60\n        /* \"contracts/verifier.sol\":3441:3442  r */\n      dup4\n        /* \"contracts/verifier.sol\":3435:3439  0xc0 */\n      0xc0\n        /* \"contracts/verifier.sol\":3428:3433  input */\n      dup5\n        /* \"contracts/verifier.sol\":3425:3426  6 */\n      0x06\n        /* \"contracts/verifier.sol\":3418:3422  2000 */\n      0x07d0\n        /* \"contracts/verifier.sol\":3411:3416  gas() */\n      gas\n        /* \"contracts/verifier.sol\":3407:3423  sub(gas(), 2000) */\n      sub\n        /* \"contracts/verifier.sol\":3396:3449  staticcall(sub(gas(), 2000), 6, input, 0xc0, r, 0x60) */\n      staticcall\n        /* \"contracts/verifier.sol\":3385:3449  success := staticcall(sub(gas(), 2000), 6, input, 0xc0, r, 0x60) */\n      swap1\n      pop\n        /* \"contracts/verifier.sol\":3526:3533  success */\n      dup1\n        /* \"contracts/verifier.sol\":3539:3540  0 */\n      0x00\n        /* \"contracts/verifier.sol\":3534:3554  case 0 { invalid() } */\n      dup2\n      sub\n        /* \"contracts/verifier.sol\":3519:3554  switch success case 0 { invalid() } */\n      tag_128\n        /* \"contracts/verifier.sol\":3534:3554  case 0 { invalid() } */\n      jumpi\n        /* \"contracts/verifier.sol\":3543:3552  invalid() */\n      invalid\n        /* \"contracts/verifier.sol\":3519:3554  switch success case 0 { invalid() } */\n    tag_128:\n      pop\n        /* \"contracts/verifier.sol\":3581:3588  success */\n      dup1\n        /* \"contracts/verifier.sol\":3573:3610  require(success,\"pairing-add-failed\") */\n      tag_130\n      jumpi\n      mload(0x40)\n      0x08c379a000000000000000000000000000000000000000000000000000000000\n      dup2\n      mstore\n      0x04\n      add\n      tag_131\n      swap1\n      tag_132\n      jump\t// in\n    tag_131:\n      mload(0x40)\n      dup1\n      swap2\n      sub\n      swap1\n      revert\n    tag_130:\n        /* \"contracts/verifier.sol\":3136:3617  {... */\n      pop\n      pop\n        /* \"contracts/verifier.sol\":3039:3617  function addition(G1Point memory p1, G1Point memory p2) internal view returns (G1Point memory r) {... */\n      swap3\n      swap2\n      pop\n      pop\n      jump\t// out\n        /* \"contracts/verifier.sol\":2646:2988  function negate(G1Point memory p) internal pure returns (G1Point memory r) {... */\n    tag_83:\n        /* \"contracts/verifier.sol\":2703:2719  G1Point memory r */\n      tag_133\n      tag_94\n      jump\t// in\n    tag_133:\n        /* \"contracts/verifier.sol\":2783:2789  uint q */\n      0x00\n        /* \"contracts/verifier.sol\":2792:2869  21888242871839275222246405745257275088696311157297823662689037894645226208583 */\n      0x30644e72e131a029b85045b68181585d97816a916871ca8d3c208c16d87cfd47\n        /* \"contracts/verifier.sol\":2783:2869  uint q = 21888242871839275222246405745257275088696311157297823662689037894645226208583 */\n      swap1\n      pop\n        /* \"contracts/verifier.sol\":2890:2891  0 */\n      0x00\n        /* \"contracts/verifier.sol\":2883:2884  p */\n      dup4\n        /* \"contracts/verifier.sol\":2883:2886  p.X */\n      0x00\n      add\n      mload\n        /* \"contracts/verifier.sol\":2883:2891  p.X == 0 */\n      eq\n        /* \"contracts/verifier.sol\":2883:2903  p.X == 0 && p.Y == 0 */\n      dup1\n      iszero\n      tag_135\n      jumpi\n      pop\n        /* \"contracts/verifier.sol\":2902:2903  0 */\n      0x00\n        /* \"contracts/verifier.sol\":2895:2896  p */\n      dup4\n        /* \"contracts/verifier.sol\":2895:2898  p.Y */\n      0x20\n      add\n      mload\n        /* \"contracts/verifier.sol\":2895:2903  p.Y == 0 */\n      eq\n        /* \"contracts/verifier.sol\":2883:2903  p.X == 0 && p.Y == 0 */\n    tag_135:\n        /* \"contracts/verifier.sol\":2879:2937  if (p.X == 0 && p.Y == 0)... */\n      iszero\n      tag_136\n      jumpi\n        /* \"contracts/verifier.sol\":2924:2937  G1Point(0, 0) */\n      mload(0x40)\n      dup1\n      0x40\n      add\n      0x40\n      mstore\n      dup1\n        /* \"contracts/verifier.sol\":2932:2933  0 */\n      0x00\n        /* \"contracts/verifier.sol\":2924:2937  G1Point(0, 0) */\n      dup2\n      mstore\n      0x20\n      add\n        /* \"contracts/verifier.sol\":2935:2936  0 */\n      0x00\n        /* \"contracts/verifier.sol\":2924:2937  G1Point(0, 0) */\n      dup2\n      mstore\n      pop\n        /* \"contracts/verifier.sol\":2917:2937  return G1Point(0, 0) */\n      swap2\n      pop\n      pop\n      jump(tag_134)\n        /* \"contracts/verifier.sol\":2879:2937  if (p.X == 0 && p.Y == 0)... */\n    tag_136:\n        /* \"contracts/verifier.sol\":2954:2981  G1Point(p.X, q - (p.Y % q)) */\n      mload(0x40)\n      dup1\n      0x40\n      add\n      0x40\n      mstore\n      dup1\n        /* \"contracts/verifier.sol\":2962:2963  p */\n      dup5\n        /* \"contracts/verifier.sol\":2962:2965  p.X */\n      0x00\n      add\n      mload\n        /* \"contracts/verifier.sol\":2954:2981  G1Point(p.X, q - (p.Y % q)) */\n      dup2\n      mstore\n      0x20\n      add\n        /* \"contracts/verifier.sol\":2978:2979  q */\n      dup3\n        /* \"contracts/verifier.sol\":2972:2973  p */\n      dup6\n        /* \"contracts/verifier.sol\":2972:2975  p.Y */\n      0x20\n      add\n      mload\n        /* \"contracts/verifier.sol\":2972:2979  p.Y % q */\n      tag_137\n      swap2\n      swap1\n      tag_138\n      jump\t// in\n    tag_137:\n        /* \"contracts/verifier.sol\":2967:2968  q */\n      dup4\n        /* \"contracts/verifier.sol\":2967:2980  q - (p.Y % q) */\n      tag_139\n      swap2\n      swap1\n      tag_140\n      jump\t// in\n    tag_139:\n        /* \"contracts/verifier.sol\":2954:2981  G1Point(p.X, q - (p.Y % q)) */\n      dup2\n      mstore\n      pop\n        /* \"contracts/verifier.sol\":2947:2981  return G1Point(p.X, q - (p.Y % q)) */\n      swap2\n      pop\n      pop\n        /* \"contracts/verifier.sol\":2646:2988  function negate(G1Point memory p) internal pure returns (G1Point memory r) {... */\n    tag_134:\n      swap2\n      swap1\n      pop\n      jump\t// out\n        /* \"contracts/verifier.sol\":6566:7118  function pairingProd4(... */\n    tag_84:\n        /* \"contracts/verifier.sol\":6817:6821  bool */\n      0x00\n        /* \"contracts/verifier.sol\":6833:6852  G1Point[] memory p1 */\n      0x00\n        /* \"contracts/verifier.sol\":6869:6870  4 */\n      0x04\n        /* \"contracts/verifier.sol\":6855:6871  new G1Point[](4) */\n      0xffffffffffffffff\n      dup2\n      gt\n      iszero\n      tag_142\n      jumpi\n      tag_143\n      tag_40\n      jump\t// in\n    tag_143:\n    tag_142:\n      mload(0x40)\n      swap1\n      dup1\n      dup3\n      mstore\n      dup1\n      0x20\n      mul\n      0x20\n      add\n      dup3\n      add\n      0x40\n      mstore\n      dup1\n      iszero\n      tag_144\n      jumpi\n      dup2\n      0x20\n      add\n    tag_145:\n      tag_146\n      tag_94\n      jump\t// in\n    tag_146:\n      dup2\n      mstore\n      0x20\n      add\n      swap1\n      0x01\n      swap1\n      sub\n      swap1\n      dup2\n      tag_145\n      jumpi\n      swap1\n      pop\n    tag_144:\n      pop\n        /* \"contracts/verifier.sol\":6833:6871  G1Point[] memory p1 = new G1Point[](4) */\n      swap1\n      pop\n        /* \"contracts/verifier.sol\":6881:6900  G2Point[] memory p2 */\n      0x00\n        /* \"contracts/verifier.sol\":6917:6918  4 */\n      0x04\n        /* \"contracts/verifier.sol\":6903:6919  new G2Point[](4) */\n      0xffffffffffffffff\n      dup2\n      gt\n      iszero\n      tag_147\n      jumpi\n      tag_148\n      tag_40\n      jump\t// in\n    tag_148:\n    tag_147:\n      mload(0x40)\n      swap1\n      dup1\n      dup3\n      mstore\n      dup1\n      0x20\n      mul\n      0x20\n      add\n      dup3\n      add\n      0x40\n      mstore\n      dup1\n      iszero\n      tag_149\n      jumpi\n      dup2\n      0x20\n      add\n    tag_150:\n      tag_151\n      tag_152\n      jump\t// in\n    tag_151:\n      dup2\n      mstore\n      0x20\n      add\n      swap1\n      0x01\n      swap1\n      sub\n      swap1\n      dup2\n      tag_150\n      jumpi\n      swap1\n      pop\n    tag_149:\n      pop\n        /* \"contracts/verifier.sol\":6881:6919  G2Point[] memory p2 = new G2Point[](4) */\n      swap1\n      pop\n        /* \"contracts/verifier.sol\":6937:6939  a1 */\n      dup11\n        /* \"contracts/verifier.sol\":6929:6931  p1 */\n      dup3\n        /* \"contracts/verifier.sol\":6932:6933  0 */\n      0x00\n        /* \"contracts/verifier.sol\":6929:6934  p1[0] */\n      dup2\n      mload\n      dup2\n      lt\n      tag_153\n      jumpi\n      tag_154\n      tag_15\n      jump\t// in\n    tag_154:\n    tag_153:\n      0x20\n      mul\n      0x20\n      add\n      add\n        /* \"contracts/verifier.sol\":6929:6939  p1[0] = a1 */\n      dup2\n      swap1\n      mstore\n      pop\n        /* \"contracts/verifier.sol\":6957:6959  b1 */\n      dup9\n        /* \"contracts/verifier.sol\":6949:6951  p1 */\n      dup3\n        /* \"contracts/verifier.sol\":6952:6953  1 */\n      0x01\n        /* \"contracts/verifier.sol\":6949:6954  p1[1] */\n      dup2\n      mload\n      dup2\n      lt\n      tag_155\n      jumpi\n      tag_156\n      tag_15\n      jump\t// in\n    tag_156:\n    tag_155:\n      0x20\n      mul\n      0x20\n      add\n      add\n        /* \"contracts/verifier.sol\":6949:6959  p1[1] = b1 */\n      dup2\n      swap1\n      mstore\n      pop\n        /* \"contracts/verifier.sol\":6977:6979  c1 */\n      dup7\n        /* \"contracts/verifier.sol\":6969:6971  p1 */\n      dup3\n        /* \"contracts/verifier.sol\":6972:6973  2 */\n      0x02\n        /* \"contracts/verifier.sol\":6969:6974  p1[2] */\n      dup2\n      mload\n      dup2\n      lt\n      tag_157\n      jumpi\n      tag_158\n      tag_15\n      jump\t// in\n    tag_158:\n    tag_157:\n      0x20\n      mul\n      0x20\n      add\n      add\n        /* \"contracts/verifier.sol\":6969:6979  p1[2] = c1 */\n      dup2\n      swap1\n      mstore\n      pop\n        /* \"contracts/verifier.sol\":6997:6999  d1 */\n      dup5\n        /* \"contracts/verifier.sol\":6989:6991  p1 */\n      dup3\n        /* \"contracts/verifier.sol\":6992:6993  3 */\n      0x03\n        /* \"contracts/verifier.sol\":6989:6994  p1[3] */\n      dup2\n      mload\n      dup2\n      lt\n      tag_159\n      jumpi\n      tag_160\n      tag_15\n      jump\t// in\n    tag_160:\n    tag_159:\n      0x20\n      mul\n      0x20\n      add\n      add\n        /* \"contracts/verifier.sol\":6989:6999  p1[3] = d1 */\n      dup2\n      swap1\n      mstore\n      pop\n        /* \"contracts/verifier.sol\":7017:7019  a2 */\n      dup10\n        /* \"contracts/verifier.sol\":7009:7011  p2 */\n      dup2\n        /* \"contracts/verifier.sol\":7012:7013  0 */\n      0x00\n        /* \"contracts/verifier.sol\":7009:7014  p2[0] */\n      dup2\n      mload\n      dup2\n      lt\n      tag_161\n      jumpi\n      tag_162\n      tag_15\n      jump\t// in\n    tag_162:\n    tag_161:\n      0x20\n      mul\n      0x20\n      add\n      add\n        /* \"contracts/verifier.sol\":7009:7019  p2[0] = a2 */\n      dup2\n      swap1\n      mstore\n      pop\n        /* \"contracts/verifier.sol\":7037:7039  b2 */\n      dup8\n        /* \"contracts/verifier.sol\":7029:7031  p2 */\n      dup2\n        /* \"contracts/verifier.sol\":7032:7033  1 */\n      0x01\n        /* \"contracts/verifier.sol\":7029:7034  p2[1] */\n      dup2\n      mload\n      dup2\n      lt\n      tag_163\n      jumpi\n      tag_164\n      tag_15\n      jump\t// in\n    tag_164:\n    tag_163:\n      0x20\n      mul\n      0x20\n      add\n      add\n        /* \"contracts/verifier.sol\":7029:7039  p2[1] = b2 */\n      dup2\n      swap1\n      mstore\n      pop\n        /* \"contracts/verifier.sol\":7057:7059  c2 */\n      dup6\n        /* \"contracts/verifier.sol\":7049:7051  p2 */\n      dup2\n        /* \"contracts/verifier.sol\":7052:7053  2 */\n      0x02\n        /* \"contracts/verifier.sol\":7049:7054  p2[2] */\n      dup2\n      mload\n      dup2\n      lt\n      tag_165\n      jumpi\n      tag_166\n      tag_15\n      jump\t// in\n    tag_166:\n    tag_165:\n      0x20\n      mul\n      0x20\n      add\n      add\n        /* \"contracts/verifier.sol\":7049:7059  p2[2] = c2 */\n      dup2\n      swap1\n      mstore\n      pop\n        /* \"contracts/verifier.sol\":7077:7079  d2 */\n      dup4\n        /* \"contracts/verifier.sol\":7069:7071  p2 */\n      dup2\n        /* \"contracts/verifier.sol\":7072:7073  3 */\n      0x03\n        /* \"contracts/verifier.sol\":7069:7074  p2[3] */\n      dup2\n      mload\n      dup2\n      lt\n      tag_167\n      jumpi\n      tag_168\n      tag_15\n      jump\t// in\n    tag_168:\n    tag_167:\n      0x20\n      mul\n      0x20\n      add\n      add\n        /* \"contracts/verifier.sol\":7069:7079  p2[3] = d2 */\n      dup2\n      swap1\n      mstore\n      pop\n        /* \"contracts/verifier.sol\":7096:7111  pairing(p1, p2) */\n      tag_169\n        /* \"contracts/verifier.sol\":7104:7106  p1 */\n      dup3\n        /* \"contracts/verifier.sol\":7108:7110  p2 */\n      dup3\n        /* \"contracts/verifier.sol\":7096:7103  pairing */\n      tag_170\n        /* \"contracts/verifier.sol\":7096:7111  pairing(p1, p2) */\n      jump\t// in\n    tag_169:\n        /* \"contracts/verifier.sol\":7089:7111  return pairing(p1, p2) */\n      swap3\n      pop\n      pop\n      pop\n        /* \"contracts/verifier.sol\":6566:7118  function pairingProd4(... */\n      swap9\n      swap8\n      pop\n      pop\n      pop\n      pop\n      pop\n      pop\n      pop\n      pop\n      jump\t// out\n        /* \"contracts/verifier.sol\":4522:5558  function pairing(G1Point[] memory p1, G2Point[] memory p2) internal view returns (bool) {... */\n    tag_170:\n        /* \"contracts/verifier.sol\":4604:4608  bool */\n      0x00\n        /* \"contracts/verifier.sol\":4641:4643  p2 */\n      dup2\n        /* \"contracts/verifier.sol\":4641:4650  p2.length */\n      mload\n        /* \"contracts/verifier.sol\":4628:4630  p1 */\n      dup4\n        /* \"contracts/verifier.sol\":4628:4637  p1.length */\n      mload\n        /* \"contracts/verifier.sol\":4628:4650  p1.length == p2.length */\n      eq\n        /* \"contracts/verifier.sol\":4620:4676  require(p1.length == p2.length,\"pairing-lengths-failed\") */\n      tag_172\n      jumpi\n      mload(0x40)\n      0x08c379a000000000000000000000000000000000000000000000000000000000\n      dup2\n      mstore\n      0x04\n      add\n      tag_173\n      swap1\n      tag_174\n      jump\t// in\n    tag_173:\n      mload(0x40)\n      dup1\n      swap2\n      sub\n      swap1\n      revert\n    tag_172:\n        /* \"contracts/verifier.sol\":4686:4699  uint elements */\n      0x00\n        /* \"contracts/verifier.sol\":4702:4704  p1 */\n      dup4\n        /* \"contracts/verifier.sol\":4702:4711  p1.length */\n      mload\n        /* \"contracts/verifier.sol\":4686:4711  uint elements = p1.length */\n      swap1\n      pop\n        /* \"contracts/verifier.sol\":4721:4735  uint inputSize */\n      0x00\n        /* \"contracts/verifier.sol\":4749:4750  6 */\n      0x06\n        /* \"contracts/verifier.sol\":4738:4746  elements */\n      dup3\n        /* \"contracts/verifier.sol\":4738:4750  elements * 6 */\n      tag_175\n      swap2\n      swap1\n      tag_176\n      jump\t// in\n    tag_175:\n        /* \"contracts/verifier.sol\":4721:4750  uint inputSize = elements * 6 */\n      swap1\n      pop\n        /* \"contracts/verifier.sol\":4760:4779  uint[] memory input */\n      0x00\n        /* \"contracts/verifier.sol\":4793:4802  inputSize */\n      dup2\n        /* \"contracts/verifier.sol\":4782:4803  new uint[](inputSize) */\n      0xffffffffffffffff\n      dup2\n      gt\n      iszero\n      tag_177\n      jumpi\n      tag_178\n      tag_40\n      jump\t// in\n    tag_178:\n    tag_177:\n      mload(0x40)\n      swap1\n      dup1\n      dup3\n      mstore\n      dup1\n      0x20\n      mul\n      0x20\n      add\n      dup3\n      add\n      0x40\n      mstore\n      dup1\n      iszero\n      tag_179\n      jumpi\n      dup2\n      0x20\n      add\n      0x20\n      dup3\n      mul\n      dup1\n      calldatasize\n      dup4\n      calldatacopy\n      dup1\n      dup3\n      add\n      swap2\n      pop\n      pop\n      swap1\n      pop\n    tag_179:\n      pop\n        /* \"contracts/verifier.sol\":4760:4803  uint[] memory input = new uint[](inputSize) */\n      swap1\n      pop\n        /* \"contracts/verifier.sol\":4818:4824  uint i */\n      0x00\n        /* \"contracts/verifier.sol\":4827:4828  0 */\n      0x00\n        /* \"contracts/verifier.sol\":4818:4828  uint i = 0 */\n      swap1\n      pop\n        /* \"contracts/verifier.sol\":4813:5120  for (uint i = 0; i < elements; i++)... */\n    tag_180:\n        /* \"contracts/verifier.sol\":4834:4842  elements */\n      dup4\n        /* \"contracts/verifier.sol\":4830:4831  i */\n      dup2\n        /* \"contracts/verifier.sol\":4830:4842  i < elements */\n      lt\n        /* \"contracts/verifier.sol\":4813:5120  for (uint i = 0; i < elements; i++)... */\n      iszero\n      tag_181\n      jumpi\n        /* \"contracts/verifier.sol\":4890:4892  p1 */\n      dup7\n        /* \"contracts/verifier.sol\":4893:4894  i */\n      dup2\n        /* \"contracts/verifier.sol\":4890:4895  p1[i] */\n      dup2\n      mload\n      dup2\n      lt\n      tag_183\n      jumpi\n      tag_184\n      tag_15\n      jump\t// in\n    tag_184:\n    tag_183:\n      0x20\n      mul\n      0x20\n      add\n      add\n      mload\n        /* \"contracts/verifier.sol\":4890:4897  p1[i].X */\n      0x00\n      add\n      mload\n        /* \"contracts/verifier.sol\":4871:4876  input */\n      dup3\n        /* \"contracts/verifier.sol\":4885:4886  0 */\n      0x00\n        /* \"contracts/verifier.sol\":4881:4882  6 */\n      0x06\n        /* \"contracts/verifier.sol\":4877:4878  i */\n      dup5\n        /* \"contracts/verifier.sol\":4877:4882  i * 6 */\n      tag_185\n      swap2\n      swap1\n      tag_176\n      jump\t// in\n    tag_185:\n        /* \"contracts/verifier.sol\":4877:4886  i * 6 + 0 */\n      tag_186\n      swap2\n      swap1\n      tag_57\n      jump\t// in\n    tag_186:\n        /* \"contracts/verifier.sol\":4871:4887  input[i * 6 + 0] */\n      dup2\n      mload\n      dup2\n      lt\n      tag_187\n      jumpi\n      tag_188\n      tag_15\n      jump\t// in\n    tag_188:\n    tag_187:\n      0x20\n      mul\n      0x20\n      add\n      add\n        /* \"contracts/verifier.sol\":4871:4897  input[i * 6 + 0] = p1[i].X */\n      dup2\n      dup2\n      mstore\n      pop\n      pop\n        /* \"contracts/verifier.sol\":4930:4932  p1 */\n      dup7\n        /* \"contracts/verifier.sol\":4933:4934  i */\n      dup2\n        /* \"contracts/verifier.sol\":4930:4935  p1[i] */\n      dup2\n      mload\n      dup2\n      lt\n      tag_189\n      jumpi\n      tag_190\n      tag_15\n      jump\t// in\n    tag_190:\n    tag_189:\n      0x20\n      mul\n      0x20\n      add\n      add\n      mload\n        /* \"contracts/verifier.sol\":4930:4937  p1[i].Y */\n      0x20\n      add\n      mload\n        /* \"contracts/verifier.sol\":4911:4916  input */\n      dup3\n        /* \"contracts/verifier.sol\":4925:4926  1 */\n      0x01\n        /* \"contracts/verifier.sol\":4921:4922  6 */\n      0x06\n        /* \"contracts/verifier.sol\":4917:4918  i */\n      dup5\n        /* \"contracts/verifier.sol\":4917:4922  i * 6 */\n      tag_191\n      swap2\n      swap1\n      tag_176\n      jump\t// in\n    tag_191:\n        /* \"contracts/verifier.sol\":4917:4926  i * 6 + 1 */\n      tag_192\n      swap2\n      swap1\n      tag_57\n      jump\t// in\n    tag_192:\n        /* \"contracts/verifier.sol\":4911:4927  input[i * 6 + 1] */\n      dup2\n      mload\n      dup2\n      lt\n      tag_193\n      jumpi\n      tag_194\n      tag_15\n      jump\t// in\n    tag_194:\n    tag_193:\n      0x20\n      mul\n      0x20\n      add\n      add\n        /* \"contracts/verifier.sol\":4911:4937  input[i * 6 + 1] = p1[i].Y */\n      dup2\n      dup2\n      mstore\n      pop\n      pop\n        /* \"contracts/verifier.sol\":4970:4972  p2 */\n      dup6\n        /* \"contracts/verifier.sol\":4973:4974  i */\n      dup2\n        /* \"contracts/verifier.sol\":4970:4975  p2[i] */\n      dup2\n      mload\n      dup2\n      lt\n      tag_195\n      jumpi\n      tag_196\n      tag_15\n      jump\t// in\n    tag_196:\n    tag_195:\n      0x20\n      mul\n      0x20\n      add\n      add\n      mload\n        /* \"contracts/verifier.sol\":4970:4977  p2[i].X */\n      0x00\n      add\n      mload\n        /* \"contracts/verifier.sol\":4978:4979  0 */\n      0x00\n        /* \"contracts/verifier.sol\":4970:4980  p2[i].X[0] */\n      0x02\n      dup2\n      lt\n      tag_197\n      jumpi\n      tag_198\n      tag_15\n      jump\t// in\n    tag_198:\n    tag_197:\n      0x20\n      mul\n      add\n      mload\n        /* \"contracts/verifier.sol\":4951:4956  input */\n      dup3\n        /* \"contracts/verifier.sol\":4965:4966  2 */\n      0x02\n        /* \"contracts/verifier.sol\":4961:4962  6 */\n      0x06\n        /* \"contracts/verifier.sol\":4957:4958  i */\n      dup5\n        /* \"contracts/verifier.sol\":4957:4962  i * 6 */\n      tag_199\n      swap2\n      swap1\n      tag_176\n      jump\t// in\n    tag_199:\n        /* \"contracts/verifier.sol\":4957:4966  i * 6 + 2 */\n      tag_200\n      swap2\n      swap1\n      tag_57\n      jump\t// in\n    tag_200:\n        /* \"contracts/verifier.sol\":4951:4967  input[i * 6 + 2] */\n      dup2\n      mload\n      dup2\n      lt\n      tag_201\n      jumpi\n      tag_202\n      tag_15\n      jump\t// in\n    tag_202:\n    tag_201:\n      0x20\n      mul\n      0x20\n      add\n      add\n        /* \"contracts/verifier.sol\":4951:4980  input[i * 6 + 2] = p2[i].X[0] */\n      dup2\n      dup2\n      mstore\n      pop\n      pop\n        /* \"contracts/verifier.sol\":5013:5015  p2 */\n      dup6\n        /* \"contracts/verifier.sol\":5016:5017  i */\n      dup2\n        /* \"contracts/verifier.sol\":5013:5018  p2[i] */\n      dup2\n      mload\n      dup2\n      lt\n      tag_203\n      jumpi\n      tag_204\n      tag_15\n      jump\t// in\n    tag_204:\n    tag_203:\n      0x20\n      mul\n      0x20\n      add\n      add\n      mload\n        /* \"contracts/verifier.sol\":5013:5020  p2[i].X */\n      0x00\n      add\n      mload\n        /* \"contracts/verifier.sol\":5021:5022  1 */\n      0x01\n        /* \"contracts/verifier.sol\":5013:5023  p2[i].X[1] */\n      0x02\n      dup2\n      lt\n      tag_205\n      jumpi\n      tag_206\n      tag_15\n      jump\t// in\n    tag_206:\n    tag_205:\n      0x20\n      mul\n      add\n      mload\n        /* \"contracts/verifier.sol\":4994:4999  input */\n      dup3\n        /* \"contracts/verifier.sol\":5008:5009  3 */\n      0x03\n        /* \"contracts/verifier.sol\":5004:5005  6 */\n      0x06\n        /* \"contracts/verifier.sol\":5000:5001  i */\n      dup5\n        /* \"contracts/verifier.sol\":5000:5005  i * 6 */\n      tag_207\n      swap2\n      swap1\n      tag_176\n      jump\t// in\n    tag_207:\n        /* \"contracts/verifier.sol\":5000:5009  i * 6 + 3 */\n      tag_208\n      swap2\n      swap1\n      tag_57\n      jump\t// in\n    tag_208:\n        /* \"contracts/verifier.sol\":4994:5010  input[i * 6 + 3] */\n      dup2\n      mload\n      dup2\n      lt\n      tag_209\n      jumpi\n      tag_210\n      tag_15\n      jump\t// in\n    tag_210:\n    tag_209:\n      0x20\n      mul\n      0x20\n      add\n      add\n        /* \"contracts/verifier.sol\":4994:5023  input[i * 6 + 3] = p2[i].X[1] */\n      dup2\n      dup2\n      mstore\n      pop\n      pop\n        /* \"contracts/verifier.sol\":5056:5058  p2 */\n      dup6\n        /* \"contracts/verifier.sol\":5059:5060  i */\n      dup2\n        /* \"contracts/verifier.sol\":5056:5061  p2[i] */\n      dup2\n      mload\n      dup2\n      lt\n      tag_211\n      jumpi\n      tag_212\n      tag_15\n      jump\t// in\n    tag_212:\n    tag_211:\n      0x20\n      mul\n      0x20\n      add\n      add\n      mload\n        /* \"contracts/verifier.sol\":5056:5063  p2[i].Y */\n      0x20\n      add\n      mload\n        /* \"contracts/verifier.sol\":5064:5065  0 */\n      0x00\n        /* \"contracts/verifier.sol\":5056:5066  p2[i].Y[0] */\n      0x02\n      dup2\n      lt\n      tag_213\n      jumpi\n      tag_214\n      tag_15\n      jump\t// in\n    tag_214:\n    tag_213:\n      0x20\n      mul\n      add\n      mload\n        /* \"contracts/verifier.sol\":5037:5042  input */\n      dup3\n        /* \"contracts/verifier.sol\":5051:5052  4 */\n      0x04\n        /* \"contracts/verifier.sol\":5047:5048  6 */\n      0x06\n        /* \"contracts/verifier.sol\":5043:5044  i */\n      dup5\n        /* \"contracts/verifier.sol\":5043:5048  i * 6 */\n      tag_215\n      swap2\n      swap1\n      tag_176\n      jump\t// in\n    tag_215:\n        /* \"contracts/verifier.sol\":5043:5052  i * 6 + 4 */\n      tag_216\n      swap2\n      swap1\n      tag_57\n      jump\t// in\n    tag_216:\n        /* \"contracts/verifier.sol\":5037:5053  input[i * 6 + 4] */\n      dup2\n      mload\n      dup2\n      lt\n      tag_217\n      jumpi\n      tag_218\n      tag_15\n      jump\t// in\n    tag_218:\n    tag_217:\n      0x20\n      mul\n      0x20\n      add\n      add\n        /* \"contracts/verifier.sol\":5037:5066  input[i * 6 + 4] = p2[i].Y[0] */\n      dup2\n      dup2\n      mstore\n      pop\n      pop\n        /* \"contracts/verifier.sol\":5099:5101  p2 */\n      dup6\n        /* \"contracts/verifier.sol\":5102:5103  i */\n      dup2\n        /* \"contracts/verifier.sol\":5099:5104  p2[i] */\n      dup2\n      mload\n      dup2\n      lt\n      tag_219\n      jumpi\n      tag_220\n      tag_15\n      jump\t// in\n    tag_220:\n    tag_219:\n      0x20\n      mul\n      0x20\n      add\n      add\n      mload\n        /* \"contracts/verifier.sol\":5099:5106  p2[i].Y */\n      0x20\n      add\n      mload\n        /* \"contracts/verifier.sol\":5107:5108  1 */\n      0x01\n        /* \"contracts/verifier.sol\":5099:5109  p2[i].Y[1] */\n      0x02\n      dup2\n      lt\n      tag_221\n      jumpi\n      tag_222\n      tag_15\n      jump\t// in\n    tag_222:\n    tag_221:\n      0x20\n      mul\n      add\n      mload\n        /* \"contracts/verifier.sol\":5080:5085  input */\n      dup3\n        /* \"contracts/verifier.sol\":5094:5095  5 */\n      0x05\n        /* \"contracts/verifier.sol\":5090:5091  6 */\n      0x06\n        /* \"contracts/verifier.sol\":5086:5087  i */\n      dup5\n        /* \"contracts/verifier.sol\":5086:5091  i * 6 */\n      tag_223\n      swap2\n      swap1\n      tag_176\n      jump\t// in\n    tag_223:\n        /* \"contracts/verifier.sol\":5086:5095  i * 6 + 5 */\n      tag_224\n      swap2\n      swap1\n      tag_57\n      jump\t// in\n    tag_224:\n        /* \"contracts/verifier.sol\":5080:5096  input[i * 6 + 5] */\n      dup2\n      mload\n      dup2\n      lt\n      tag_225\n      jumpi\n      tag_226\n      tag_15\n      jump\t// in\n    tag_226:\n    tag_225:\n      0x20\n      mul\n      0x20\n      add\n      add\n        /* \"contracts/verifier.sol\":5080:5109  input[i * 6 + 5] = p2[i].Y[1] */\n      dup2\n      dup2\n      mstore\n      pop\n      pop\n        /* \"contracts/verifier.sol\":4844:4847  i++ */\n      dup1\n      dup1\n      0x01\n      add\n      swap2\n      pop\n      pop\n        /* \"contracts/verifier.sol\":4813:5120  for (uint i = 0; i < elements; i++)... */\n      jump(tag_180)\n    tag_181:\n      pop\n        /* \"contracts/verifier.sol\":5129:5147  uint[1] memory out */\n      tag_227\n      tag_228\n      jump\t// in\n    tag_227:\n        /* \"contracts/verifier.sol\":5157:5169  bool success */\n      0x00\n        /* \"contracts/verifier.sol\":5354:5358  0x20 */\n      0x20\n        /* \"contracts/verifier.sol\":5349:5352  out */\n      dup3\n        /* \"contracts/verifier.sol\":5342:5346  0x20 */\n      0x20\n        /* \"contracts/verifier.sol\":5331:5340  inputSize */\n      dup7\n        /* \"contracts/verifier.sol\":5327:5347  mul(inputSize, 0x20) */\n      mul\n        /* \"contracts/verifier.sol\":5320:5324  0x20 */\n      0x20\n        /* \"contracts/verifier.sol\":5313:5318  input */\n      dup7\n        /* \"contracts/verifier.sol\":5309:5325  add(input, 0x20) */\n      add\n        /* \"contracts/verifier.sol\":5306:5307  8 */\n      0x08\n        /* \"contracts/verifier.sol\":5299:5303  2000 */\n      0x07d0\n        /* \"contracts/verifier.sol\":5292:5297  gas() */\n      gas\n        /* \"contracts/verifier.sol\":5288:5304  sub(gas(), 2000) */\n      sub\n        /* \"contracts/verifier.sol\":5277:5359  staticcall(sub(gas(), 2000), 8, add(input, 0x20), mul(inputSize, 0x20), out, 0x20) */\n      staticcall\n        /* \"contracts/verifier.sol\":5266:5359  success := staticcall(sub(gas(), 2000), 8, add(input, 0x20), mul(inputSize, 0x20), out, 0x20) */\n      swap1\n      pop\n        /* \"contracts/verifier.sol\":5436:5443  success */\n      dup1\n        /* \"contracts/verifier.sol\":5449:5450  0 */\n      0x00\n        /* \"contracts/verifier.sol\":5444:5464  case 0 { invalid() } */\n      dup2\n      sub\n        /* \"contracts/verifier.sol\":5429:5464  switch success case 0 { invalid() } */\n      tag_229\n        /* \"contracts/verifier.sol\":5444:5464  case 0 { invalid() } */\n      jumpi\n        /* \"contracts/verifier.sol\":5453:5462  invalid() */\n      invalid\n        /* \"contracts/verifier.sol\":5429:5464  switch success case 0 { invalid() } */\n    tag_229:\n      pop\n        /* \"contracts/verifier.sol\":5491:5498  success */\n      dup1\n        /* \"contracts/verifier.sol\":5483:5523  require(success,\"pairing-opcode-failed\") */\n      tag_231\n      jumpi\n      mload(0x40)\n      0x08c379a000000000000000000000000000000000000000000000000000000000\n      dup2\n      mstore\n      0x04\n      add\n      tag_232\n      swap1\n      tag_233\n      jump\t// in\n    tag_232:\n      mload(0x40)\n      dup1\n      swap2\n      sub\n      swap1\n      revert\n    tag_231:\n        /* \"contracts/verifier.sol\":5550:5551  0 */\n      0x00\n        /* \"contracts/verifier.sol\":5540:5543  out */\n      dup3\n        /* \"contracts/verifier.sol\":5544:5545  0 */\n      0x00\n        /* \"contracts/verifier.sol\":5540:5546  out[0] */\n      0x01\n      dup2\n      lt\n      tag_234\n      jumpi\n      tag_235\n      tag_15\n      jump\t// in\n    tag_235:\n    tag_234:\n      0x20\n      mul\n      add\n      mload\n        /* \"contracts/verifier.sol\":5540:5551  out[0] != 0 */\n      eq\n      iszero\n        /* \"contracts/verifier.sol\":5533:5551  return out[0] != 0 */\n      swap6\n      pop\n      pop\n      pop\n      pop\n      pop\n      pop\n        /* \"contracts/verifier.sol\":4522:5558  function pairing(G1Point[] memory p1, G2Point[] memory p2) internal view returns (bool) {... */\n      swap3\n      swap2\n      pop\n      pop\n      jump\t// out\n    tag_12:\n      mload(0x40)\n      dup1\n      0x60\n      add\n      0x40\n      mstore\n      dup1\n      tag_236\n      tag_94\n      jump\t// in\n    tag_236:\n      dup2\n      mstore\n      0x20\n      add\n      tag_237\n      tag_152\n      jump\t// in\n    tag_237:\n      dup2\n      mstore\n      0x20\n      add\n      tag_238\n      tag_94\n      jump\t// in\n    tag_238:\n      dup2\n      mstore\n      pop\n      swap1\n      jump\t// out\n    tag_87:\n      mload(0x40)\n      dup1\n      0xa0\n      add\n      0x40\n      mstore\n      dup1\n      tag_239\n      tag_94\n      jump\t// in\n    tag_239:\n      dup2\n      mstore\n      0x20\n      add\n      tag_240\n      tag_152\n      jump\t// in\n    tag_240:\n      dup2\n      mstore\n      0x20\n      add\n      tag_241\n      tag_152\n      jump\t// in\n    tag_241:\n      dup2\n      mstore\n      0x20\n      add\n      tag_242\n      tag_152\n      jump\t// in\n    tag_242:\n      dup2\n      mstore\n      0x20\n      add\n      0x60\n      dup2\n      mstore\n      pop\n      swap1\n      jump\t// out\n    tag_94:\n      mload(0x40)\n      dup1\n      0x40\n      add\n      0x40\n      mstore\n      dup1\n      0x00\n      dup2\n      mstore\n      0x20\n      add\n      0x00\n      dup2\n      mstore\n      pop\n      swap1\n      jump\t// out\n    tag_104:\n      mload(0x40)\n      dup1\n      0x60\n      add\n      0x40\n      mstore\n      dup1\n      0x03\n      swap1\n      0x20\n      dup3\n      mul\n      dup1\n      calldatasize\n      dup4\n      calldatacopy\n      dup1\n      dup3\n      add\n      swap2\n      pop\n      pop\n      swap1\n      pop\n      pop\n      swap1\n      jump\t// out\n    tag_119:\n      mload(0x40)\n      dup1\n      0x80\n      add\n      0x40\n      mstore\n      dup1\n      0x04\n      swap1\n      0x20\n      dup3\n      mul\n      dup1\n      calldatasize\n      dup4\n      calldatacopy\n      dup1\n      dup3\n      add\n      swap2\n      pop\n      pop\n      swap1\n      pop\n      pop\n      swap1\n      jump\t// out\n    tag_152:\n      mload(0x40)\n      dup1\n      0x40\n      add\n      0x40\n      mstore\n      dup1\n      tag_243\n      tag_244\n      jump\t// in\n    tag_243:\n      dup2\n      mstore\n      0x20\n      add\n      tag_245\n      tag_244\n      jump\t// in\n    tag_245:\n      dup2\n      mstore\n      pop\n      swap1\n      jump\t// out\n    tag_228:\n      mload(0x40)\n      dup1\n      0x20\n      add\n      0x40\n      mstore\n      dup1\n      0x01\n      swap1\n      0x20\n      dup3\n      mul\n      dup1\n      calldatasize\n      dup4\n      calldatacopy\n      dup1\n      dup3\n      add\n      swap2\n      pop\n      pop\n      swap1\n      pop\n      pop\n      swap1\n      jump\t// out\n    tag_244:\n      mload(0x40)\n      dup1\n      0x40\n      add\n      0x40\n      mstore\n      dup1\n      0x02\n      swap1\n      0x20\n      dup3\n      mul\n      dup1\n      calldatasize\n      dup4\n      calldatacopy\n      dup1\n      dup3\n      add\n      swap2\n      pop\n      pop\n      swap1\n      pop\n      pop\n      swap1\n      jump\t// out\n        /* \"#utility.yul\":7:82   */\n    tag_246:\n        /* \"#utility.yul\":40:46   */\n      0x00\n        /* \"#utility.yul\":73:75   */\n      0x40\n        /* \"#utility.yul\":67:76   */\n      mload\n        /* \"#utility.yul\":57:76   */\n      swap1\n      pop\n        /* \"#utility.yul\":7:82   */\n      swap1\n      jump\t// out\n        /* \"#utility.yul\":88:205   */\n    tag_247:\n        /* \"#utility.yul\":197:198   */\n      0x00\n        /* \"#utility.yul\":194:195   */\n      0x00\n        /* \"#utility.yul\":187:199   */\n      revert\n        /* \"#utility.yul\":334:451   */\n    tag_249:\n        /* \"#utility.yul\":443:444   */\n      0x00\n        /* \"#utility.yul\":440:441   */\n      0x00\n        /* \"#utility.yul\":433:445   */\n      revert\n        /* \"#utility.yul\":457:559   */\n    tag_250:\n        /* \"#utility.yul\":498:504   */\n      0x00\n        /* \"#utility.yul\":549:551   */\n      0x1f\n        /* \"#utility.yul\":545:552   */\n      not\n        /* \"#utility.yul\":540:542   */\n      0x1f\n        /* \"#utility.yul\":533:538   */\n      dup4\n        /* \"#utility.yul\":529:543   */\n      add\n        /* \"#utility.yul\":525:553   */\n      and\n        /* \"#utility.yul\":515:553   */\n      swap1\n      pop\n        /* \"#utility.yul\":457:559   */\n      swap2\n      swap1\n      pop\n      jump\t// out\n        /* \"#utility.yul\":565:745   */\n    tag_40:\n        /* \"#utility.yul\":613:690   */\n      0x4e487b7100000000000000000000000000000000000000000000000000000000\n        /* \"#utility.yul\":610:611   */\n      0x00\n        /* \"#utility.yul\":603:691   */\n      mstore\n        /* \"#utility.yul\":710:714   */\n      0x41\n        /* \"#utility.yul\":707:708   */\n      0x04\n        /* \"#utility.yul\":700:715   */\n      mstore\n        /* \"#utility.yul\":734:738   */\n      0x24\n        /* \"#utility.yul\":731:732   */\n      0x00\n        /* \"#utility.yul\":724:739   */\n      revert\n        /* \"#utility.yul\":751:1032   */\n    tag_251:\n        /* \"#utility.yul\":834:861   */\n      tag_288\n        /* \"#utility.yul\":856:860   */\n      dup3\n        /* \"#utility.yul\":834:861   */\n      tag_250\n      jump\t// in\n    tag_288:\n        /* \"#utility.yul\":826:832   */\n      dup2\n        /* \"#utility.yul\":822:862   */\n      add\n        /* \"#utility.yul\":964:970   */\n      dup2\n        /* \"#utility.yul\":952:962   */\n      dup2\n        /* \"#utility.yul\":949:971   */\n      lt\n        /* \"#utility.yul\":928:946   */\n      0xffffffffffffffff\n        /* \"#utility.yul\":916:926   */\n      dup3\n        /* \"#utility.yul\":913:947   */\n      gt\n        /* \"#utility.yul\":910:972   */\n      or\n        /* \"#utility.yul\":907:995   */\n      iszero\n      tag_289\n      jumpi\n        /* \"#utility.yul\":975:993   */\n      tag_290\n      tag_40\n      jump\t// in\n    tag_290:\n        /* \"#utility.yul\":907:995   */\n    tag_289:\n        /* \"#utility.yul\":1015:1025   */\n      dup1\n        /* \"#utility.yul\":1011:1013   */\n      0x40\n        /* \"#utility.yul\":1004:1026   */\n      mstore\n        /* \"#utility.yul\":794:1032   */\n      pop\n        /* \"#utility.yul\":751:1032   */\n      pop\n      pop\n      jump\t// out\n        /* \"#utility.yul\":1038:1167   */\n    tag_252:\n        /* \"#utility.yul\":1072:1078   */\n      0x00\n        /* \"#utility.yul\":1099:1119   */\n      tag_292\n      tag_246\n      jump\t// in\n    tag_292:\n        /* \"#utility.yul\":1089:1119   */\n      swap1\n      pop\n        /* \"#utility.yul\":1128:1161   */\n      tag_293\n        /* \"#utility.yul\":1156:1160   */\n      dup3\n        /* \"#utility.yul\":1148:1154   */\n      dup3\n        /* \"#utility.yul\":1128:1161   */\n      tag_251\n      jump\t// in\n    tag_293:\n        /* \"#utility.yul\":1038:1167   */\n      swap2\n      swap1\n      pop\n      jump\t// out\n        /* \"#utility.yul\":1173:1422   */\n    tag_253:\n        /* \"#utility.yul\":1248:1252   */\n      0x00\n        /* \"#utility.yul\":1338:1356   */\n      0xffffffffffffffff\n        /* \"#utility.yul\":1330:1336   */\n      dup3\n        /* \"#utility.yul\":1327:1357   */\n      gt\n        /* \"#utility.yul\":1324:1380   */\n      iszero\n      tag_295\n      jumpi\n        /* \"#utility.yul\":1360:1378   */\n      tag_296\n      tag_40\n      jump\t// in\n    tag_296:\n        /* \"#utility.yul\":1324:1380   */\n    tag_295:\n        /* \"#utility.yul\":1410:1414   */\n      0x20\n        /* \"#utility.yul\":1402:1408   */\n      dup3\n        /* \"#utility.yul\":1398:1415   */\n      mul\n        /* \"#utility.yul\":1390:1415   */\n      swap1\n      pop\n        /* \"#utility.yul\":1173:1422   */\n      swap2\n      swap1\n      pop\n      jump\t// out\n        /* \"#utility.yul\":1428:1545   */\n    tag_254:\n        /* \"#utility.yul\":1537:1538   */\n      0x00\n        /* \"#utility.yul\":1534:1535   */\n      0x00\n        /* \"#utility.yul\":1527:1539   */\n      revert\n        /* \"#utility.yul\":1551:1628   */\n    tag_255:\n        /* \"#utility.yul\":1588:1595   */\n      0x00\n        /* \"#utility.yul\":1617:1622   */\n      dup2\n        /* \"#utility.yul\":1606:1622   */\n      swap1\n      pop\n        /* \"#utility.yul\":1551:1628   */\n      swap2\n      swap1\n      pop\n      jump\t// out\n        /* \"#utility.yul\":1634:1756   */\n    tag_256:\n        /* \"#utility.yul\":1707:1731   */\n      tag_300\n        /* \"#utility.yul\":1725:1730   */\n      dup2\n        /* \"#utility.yul\":1707:1731   */\n      tag_255\n      jump\t// in\n    tag_300:\n        /* \"#utility.yul\":1700:1705   */\n      dup2\n        /* \"#utility.yul\":1697:1732   */\n      eq\n        /* \"#utility.yul\":1687:1750   */\n      tag_301\n      jumpi\n        /* \"#utility.yul\":1746:1747   */\n      0x00\n        /* \"#utility.yul\":1743:1744   */\n      0x00\n        /* \"#utility.yul\":1736:1748   */\n      revert\n        /* \"#utility.yul\":1687:1750   */\n    tag_301:\n        /* \"#utility.yul\":1634:1756   */\n      pop\n      jump\t// out\n        /* \"#utility.yul\":1762:1901   */\n    tag_257:\n        /* \"#utility.yul\":1808:1813   */\n      0x00\n        /* \"#utility.yul\":1846:1852   */\n      dup2\n        /* \"#utility.yul\":1833:1853   */\n      calldataload\n        /* \"#utility.yul\":1824:1853   */\n      swap1\n      pop\n        /* \"#utility.yul\":1862:1895   */\n      tag_303\n        /* \"#utility.yul\":1889:1894   */\n      dup2\n        /* \"#utility.yul\":1862:1895   */\n      tag_256\n      jump\t// in\n    tag_303:\n        /* \"#utility.yul\":1762:1901   */\n      swap3\n      swap2\n      pop\n      pop\n      jump\t// out\n        /* \"#utility.yul\":1925:2568   */\n    tag_258:\n        /* \"#utility.yul\":2019:2024   */\n      0x00\n        /* \"#utility.yul\":2044:2123   */\n      tag_305\n        /* \"#utility.yul\":2060:2122   */\n      tag_306\n        /* \"#utility.yul\":2115:2121   */\n      dup5\n        /* \"#utility.yul\":2060:2122   */\n      tag_253\n      jump\t// in\n    tag_306:\n        /* \"#utility.yul\":2044:2123   */\n      tag_252\n      jump\t// in\n    tag_305:\n        /* \"#utility.yul\":2035:2123   */\n      swap1\n      pop\n        /* \"#utility.yul\":2143:2148   */\n      dup1\n        /* \"#utility.yul\":2196:2200   */\n      0x20\n        /* \"#utility.yul\":2188:2194   */\n      dup5\n        /* \"#utility.yul\":2184:2201   */\n      mul\n        /* \"#utility.yul\":2176:2182   */\n      dup4\n        /* \"#utility.yul\":2172:2202   */\n      add\n        /* \"#utility.yul\":2225:2228   */\n      dup6\n        /* \"#utility.yul\":2217:2223   */\n      dup2\n        /* \"#utility.yul\":2214:2229   */\n      gt\n        /* \"#utility.yul\":2211:2333   */\n      iszero\n      tag_307\n      jumpi\n        /* \"#utility.yul\":2244:2323   */\n      tag_308\n      tag_254\n      jump\t// in\n    tag_308:\n        /* \"#utility.yul\":2211:2333   */\n    tag_307:\n        /* \"#utility.yul\":2359:2365   */\n      dup4\n        /* \"#utility.yul\":2342:2562   */\n    tag_309:\n        /* \"#utility.yul\":2376:2382   */\n      dup2\n        /* \"#utility.yul\":2371:2374   */\n      dup2\n        /* \"#utility.yul\":2368:2383   */\n      lt\n        /* \"#utility.yul\":2342:2562   */\n      iszero\n      tag_311\n      jumpi\n        /* \"#utility.yul\":2451:2454   */\n      dup1\n        /* \"#utility.yul\":2480:2517   */\n      tag_312\n        /* \"#utility.yul\":2513:2516   */\n      dup9\n        /* \"#utility.yul\":2501:2511   */\n      dup3\n        /* \"#utility.yul\":2480:2517   */\n      tag_257\n      jump\t// in\n    tag_312:\n        /* \"#utility.yul\":2475:2478   */\n      dup5\n        /* \"#utility.yul\":2468:2518   */\n      mstore\n        /* \"#utility.yul\":2547:2551   */\n      0x20\n        /* \"#utility.yul\":2542:2545   */\n      dup5\n        /* \"#utility.yul\":2538:2552   */\n      add\n        /* \"#utility.yul\":2531:2552   */\n      swap4\n      pop\n        /* \"#utility.yul\":2418:2562   */\n      pop\n        /* \"#utility.yul\":2402:2406   */\n      0x20\n        /* \"#utility.yul\":2397:2400   */\n      dup2\n        /* \"#utility.yul\":2393:2407   */\n      add\n        /* \"#utility.yul\":2386:2407   */\n      swap1\n      pop\n        /* \"#utility.yul\":2342:2562   */\n      jump(tag_309)\n    tag_311:\n        /* \"#utility.yul\":2346:2367   */\n      pop\n        /* \"#utility.yul\":2025:2568   */\n      pop\n      pop\n        /* \"#utility.yul\":1925:2568   */\n      swap4\n      swap3\n      pop\n      pop\n      pop\n      jump\t// out\n        /* \"#utility.yul\":2592:2931   */\n    tag_259:\n        /* \"#utility.yul\":2661:2666   */\n      0x00\n        /* \"#utility.yul\":2710:2713   */\n      dup3\n        /* \"#utility.yul\":2703:2707   */\n      0x1f\n        /* \"#utility.yul\":2695:2701   */\n      dup4\n        /* \"#utility.yul\":2691:2708   */\n      add\n        /* \"#utility.yul\":2687:2714   */\n      slt\n        /* \"#utility.yul\":2677:2799   */\n      tag_314\n      jumpi\n        /* \"#utility.yul\":2718:2797   */\n      tag_315\n      tag_249\n      jump\t// in\n    tag_315:\n        /* \"#utility.yul\":2677:2799   */\n    tag_314:\n        /* \"#utility.yul\":2822:2826   */\n      0x02\n        /* \"#utility.yul\":2844:2925   */\n      tag_316\n        /* \"#utility.yul\":2921:2924   */\n      dup5\n        /* \"#utility.yul\":2913:2919   */\n      dup3\n        /* \"#utility.yul\":2905:2911   */\n      dup6\n        /* \"#utility.yul\":2844:2925   */\n      tag_258\n      jump\t// in\n    tag_316:\n        /* \"#utility.yul\":2835:2925   */\n      swap2\n      pop\n        /* \"#utility.yul\":2667:2931   */\n      pop\n        /* \"#utility.yul\":2592:2931   */\n      swap3\n      swap2\n      pop\n      pop\n      jump\t// out\n        /* \"#utility.yul\":2937:3209   */\n    tag_260:\n        /* \"#utility.yul\":3035:3039   */\n      0x00\n        /* \"#utility.yul\":3125:3143   */\n      0xffffffffffffffff\n        /* \"#utility.yul\":3117:3123   */\n      dup3\n        /* \"#utility.yul\":3114:3144   */\n      gt\n        /* \"#utility.yul\":3111:3167   */\n      iszero\n      tag_318\n      jumpi\n        /* \"#utility.yul\":3147:3165   */\n      tag_319\n      tag_40\n      jump\t// in\n    tag_319:\n        /* \"#utility.yul\":3111:3167   */\n    tag_318:\n        /* \"#utility.yul\":3197:3201   */\n      0x20\n        /* \"#utility.yul\":3189:3195   */\n      dup3\n        /* \"#utility.yul\":3185:3202   */\n      mul\n        /* \"#utility.yul\":3177:3202   */\n      swap1\n      pop\n        /* \"#utility.yul\":2937:3209   */\n      swap2\n      swap1\n      pop\n      jump\t// out\n        /* \"#utility.yul\":3236:3948   */\n    tag_261:\n        /* \"#utility.yul\":3353:3358   */\n      0x00\n        /* \"#utility.yul\":3378:3480   */\n      tag_321\n        /* \"#utility.yul\":3394:3479   */\n      tag_322\n        /* \"#utility.yul\":3472:3478   */\n      dup5\n        /* \"#utility.yul\":3394:3479   */\n      tag_260\n      jump\t// in\n    tag_322:\n        /* \"#utility.yul\":3378:3480   */\n      tag_252\n      jump\t// in\n    tag_321:\n        /* \"#utility.yul\":3369:3480   */\n      swap1\n      pop\n        /* \"#utility.yul\":3500:3505   */\n      dup1\n        /* \"#utility.yul\":3553:3557   */\n      0x40\n        /* \"#utility.yul\":3545:3551   */\n      dup5\n        /* \"#utility.yul\":3541:3558   */\n      mul\n        /* \"#utility.yul\":3533:3539   */\n      dup4\n        /* \"#utility.yul\":3529:3559   */\n      add\n        /* \"#utility.yul\":3582:3585   */\n      dup6\n        /* \"#utility.yul\":3574:3580   */\n      dup2\n        /* \"#utility.yul\":3571:3586   */\n      gt\n        /* \"#utility.yul\":3568:3690   */\n      iszero\n      tag_323\n      jumpi\n        /* \"#utility.yul\":3601:3680   */\n      tag_324\n      tag_254\n      jump\t// in\n    tag_324:\n        /* \"#utility.yul\":3568:3690   */\n    tag_323:\n        /* \"#utility.yul\":3716:3722   */\n      dup4\n        /* \"#utility.yul\":3699:3942   */\n    tag_325:\n        /* \"#utility.yul\":3733:3739   */\n      dup2\n        /* \"#utility.yul\":3728:3731   */\n      dup2\n        /* \"#utility.yul\":3725:3740   */\n      lt\n        /* \"#utility.yul\":3699:3942   */\n      iszero\n      tag_327\n      jumpi\n        /* \"#utility.yul\":3808:3811   */\n      dup1\n        /* \"#utility.yul\":3837:3897   */\n      tag_328\n        /* \"#utility.yul\":3893:3896   */\n      dup9\n        /* \"#utility.yul\":3881:3891   */\n      dup3\n        /* \"#utility.yul\":3837:3897   */\n      tag_259\n      jump\t// in\n    tag_328:\n        /* \"#utility.yul\":3832:3835   */\n      dup5\n        /* \"#utility.yul\":3825:3898   */\n      mstore\n        /* \"#utility.yul\":3927:3931   */\n      0x20\n        /* \"#utility.yul\":3922:3925   */\n      dup5\n        /* \"#utility.yul\":3918:3932   */\n      add\n        /* \"#utility.yul\":3911:3932   */\n      swap4\n      pop\n        /* \"#utility.yul\":3775:3942   */\n      pop\n        /* \"#utility.yul\":3759:3763   */\n      0x40\n        /* \"#utility.yul\":3754:3757   */\n      dup2\n        /* \"#utility.yul\":3750:3764   */\n      add\n        /* \"#utility.yul\":3743:3764   */\n      swap1\n      pop\n        /* \"#utility.yul\":3699:3942   */\n      jump(tag_325)\n    tag_327:\n        /* \"#utility.yul\":3703:3724   */\n      pop\n        /* \"#utility.yul\":3359:3948   */\n      pop\n      pop\n        /* \"#utility.yul\":3236:3948   */\n      swap4\n      swap3\n      pop\n      pop\n      pop\n      jump\t// out\n        /* \"#utility.yul\":3975:4360   */\n    tag_262:\n        /* \"#utility.yul\":4067:4072   */\n      0x00\n        /* \"#utility.yul\":4116:4119   */\n      dup3\n        /* \"#utility.yul\":4109:4113   */\n      0x1f\n        /* \"#utility.yul\":4101:4107   */\n      dup4\n        /* \"#utility.yul\":4097:4114   */\n      add\n        /* \"#utility.yul\":4093:4120   */\n      slt\n        /* \"#utility.yul\":4083:4205   */\n      tag_330\n      jumpi\n        /* \"#utility.yul\":4124:4203   */\n      tag_331\n      tag_249\n      jump\t// in\n    tag_331:\n        /* \"#utility.yul\":4083:4205   */\n    tag_330:\n        /* \"#utility.yul\":4228:4232   */\n      0x02\n        /* \"#utility.yul\":4250:4354   */\n      tag_332\n        /* \"#utility.yul\":4350:4353   */\n      dup5\n        /* \"#utility.yul\":4342:4348   */\n      dup3\n        /* \"#utility.yul\":4334:4340   */\n      dup6\n        /* \"#utility.yul\":4250:4354   */\n      tag_261\n      jump\t// in\n    tag_332:\n        /* \"#utility.yul\":4241:4354   */\n      swap2\n      pop\n        /* \"#utility.yul\":4073:4360   */\n      pop\n        /* \"#utility.yul\":3975:4360   */\n      swap3\n      swap2\n      pop\n      pop\n      jump\t// out\n        /* \"#utility.yul\":4366:5363   */\n    tag_6:\n        /* \"#utility.yul\":4567:4573   */\n      0x00\n        /* \"#utility.yul\":4575:4581   */\n      0x00\n        /* \"#utility.yul\":4583:4589   */\n      0x00\n        /* \"#utility.yul\":4591:4597   */\n      0x00\n        /* \"#utility.yul\":4640:4643   */\n      0x0140\n        /* \"#utility.yul\":4628:4637   */\n      dup6\n        /* \"#utility.yul\":4619:4626   */\n      dup8\n        /* \"#utility.yul\":4615:4638   */\n      sub\n        /* \"#utility.yul\":4611:4644   */\n      slt\n        /* \"#utility.yul\":4608:4728   */\n      iszero\n      tag_334\n      jumpi\n        /* \"#utility.yul\":4647:4726   */\n      tag_335\n      tag_247\n      jump\t// in\n    tag_335:\n        /* \"#utility.yul\":4608:4728   */\n    tag_334:\n        /* \"#utility.yul\":4767:4768   */\n      0x00\n        /* \"#utility.yul\":4792:4868   */\n      tag_336\n        /* \"#utility.yul\":4860:4867   */\n      dup8\n        /* \"#utility.yul\":4851:4857   */\n      dup3\n        /* \"#utility.yul\":4840:4849   */\n      dup9\n        /* \"#utility.yul\":4836:4858   */\n      add\n        /* \"#utility.yul\":4792:4868   */\n      tag_259\n      jump\t// in\n    tag_336:\n        /* \"#utility.yul\":4782:4868   */\n      swap5\n      pop\n        /* \"#utility.yul\":4738:4878   */\n      pop\n        /* \"#utility.yul\":4917:4919   */\n      0x40\n        /* \"#utility.yul\":4943:5042   */\n      tag_337\n        /* \"#utility.yul\":5034:5041   */\n      dup8\n        /* \"#utility.yul\":5025:5031   */\n      dup3\n        /* \"#utility.yul\":5014:5023   */\n      dup9\n        /* \"#utility.yul\":5010:5032   */\n      add\n        /* \"#utility.yul\":4943:5042   */\n      tag_262\n      jump\t// in\n    tag_337:\n        /* \"#utility.yul\":4933:5042   */\n      swap4\n      pop\n        /* \"#utility.yul\":4888:5052   */\n      pop\n        /* \"#utility.yul\":5091:5094   */\n      0xc0\n        /* \"#utility.yul\":5118:5194   */\n      tag_338\n        /* \"#utility.yul\":5186:5193   */\n      dup8\n        /* \"#utility.yul\":5177:5183   */\n      dup3\n        /* \"#utility.yul\":5166:5175   */\n      dup9\n        /* \"#utility.yul\":5162:5184   */\n      add\n        /* \"#utility.yul\":5118:5194   */\n      tag_259\n      jump\t// in\n    tag_338:\n        /* \"#utility.yul\":5108:5194   */\n      swap3\n      pop\n        /* \"#utility.yul\":5062:5204   */\n      pop\n        /* \"#utility.yul\":5243:5246   */\n      0x0100\n        /* \"#utility.yul\":5270:5346   */\n      tag_339\n        /* \"#utility.yul\":5338:5345   */\n      dup8\n        /* \"#utility.yul\":5329:5335   */\n      dup3\n        /* \"#utility.yul\":5318:5327   */\n      dup9\n        /* \"#utility.yul\":5314:5336   */\n      add\n        /* \"#utility.yul\":5270:5346   */\n      tag_259\n      jump\t// in\n    tag_339:\n        /* \"#utility.yul\":5260:5346   */\n      swap2\n      pop\n        /* \"#utility.yul\":5214:5356   */\n      pop\n        /* \"#utility.yul\":4366:5363   */\n      swap3\n      swap6\n      swap2\n      swap5\n      pop\n      swap3\n      pop\n      jump\t// out\n        /* \"#utility.yul\":5369:5459   */\n    tag_263:\n        /* \"#utility.yul\":5403:5410   */\n      0x00\n        /* \"#utility.yul\":5446:5451   */\n      dup2\n        /* \"#utility.yul\":5439:5452   */\n      iszero\n        /* \"#utility.yul\":5432:5453   */\n      iszero\n        /* \"#utility.yul\":5421:5453   */\n      swap1\n      pop\n        /* \"#utility.yul\":5369:5459   */\n      swap2\n      swap1\n      pop\n      jump\t// out\n        /* \"#utility.yul\":5465:5574   */\n    tag_264:\n        /* \"#utility.yul\":5546:5567   */\n      tag_342\n        /* \"#utility.yul\":5561:5566   */\n      dup2\n        /* \"#utility.yul\":5546:5567   */\n      tag_263\n      jump\t// in\n    tag_342:\n        /* \"#utility.yul\":5541:5544   */\n      dup3\n        /* \"#utility.yul\":5534:5568   */\n      mstore\n        /* \"#utility.yul\":5465:5574   */\n      pop\n      pop\n      jump\t// out\n        /* \"#utility.yul\":5580:5790   */\n    tag_9:\n        /* \"#utility.yul\":5667:5671   */\n      0x00\n        /* \"#utility.yul\":5705:5707   */\n      0x20\n        /* \"#utility.yul\":5694:5703   */\n      dup3\n        /* \"#utility.yul\":5690:5708   */\n      add\n        /* \"#utility.yul\":5682:5708   */\n      swap1\n      pop\n        /* \"#utility.yul\":5718:5783   */\n      tag_344\n        /* \"#utility.yul\":5780:5781   */\n      0x00\n        /* \"#utility.yul\":5769:5778   */\n      dup4\n        /* \"#utility.yul\":5765:5782   */\n      add\n        /* \"#utility.yul\":5756:5762   */\n      dup5\n        /* \"#utility.yul\":5718:5783   */\n      tag_264\n      jump\t// in\n    tag_344:\n        /* \"#utility.yul\":5580:5790   */\n      swap3\n      swap2\n      pop\n      pop\n      jump\t// out\n        /* \"#utility.yul\":5796:5976   */\n    tag_15:\n        /* \"#utility.yul\":5844:5921   */\n      0x4e487b7100000000000000000000000000000000000000000000000000000000\n        /* \"#utility.yul\":5841:5842   */\n      0x00\n        /* \"#utility.yul\":5834:5922   */\n      mstore\n        /* \"#utility.yul\":5941:5945   */\n      0x32\n        /* \"#utility.yul\":5938:5939   */\n      0x04\n        /* \"#utility.yul\":5931:5946   */\n      mstore\n        /* \"#utility.yul\":5965:5969   */\n      0x24\n        /* \"#utility.yul\":5962:5963   */\n      0x00\n        /* \"#utility.yul\":5955:5970   */\n      revert\n        /* \"#utility.yul\":5982:6162   */\n    tag_265:\n        /* \"#utility.yul\":6030:6107   */\n      0x4e487b7100000000000000000000000000000000000000000000000000000000\n        /* \"#utility.yul\":6027:6028   */\n      0x00\n        /* \"#utility.yul\":6020:6108   */\n      mstore\n        /* \"#utility.yul\":6127:6131   */\n      0x11\n        /* \"#utility.yul\":6124:6125   */\n      0x04\n        /* \"#utility.yul\":6117:6132   */\n      mstore\n        /* \"#utility.yul\":6151:6155   */\n      0x24\n        /* \"#utility.yul\":6148:6149   */\n      0x00\n        /* \"#utility.yul\":6141:6156   */\n      revert\n        /* \"#utility.yul\":6168:6359   */\n    tag_57:\n        /* \"#utility.yul\":6208:6211   */\n      0x00\n        /* \"#utility.yul\":6227:6247   */\n      tag_348\n        /* \"#utility.yul\":6245:6246   */\n      dup3\n        /* \"#utility.yul\":6227:6247   */\n      tag_255\n      jump\t// in\n    tag_348:\n        /* \"#utility.yul\":6222:6247   */\n      swap2\n      pop\n        /* \"#utility.yul\":6261:6281   */\n      tag_349\n        /* \"#utility.yul\":6279:6280   */\n      dup4\n        /* \"#utility.yul\":6261:6281   */\n      tag_255\n      jump\t// in\n    tag_349:\n        /* \"#utility.yul\":6256:6281   */\n      swap3\n      pop\n        /* \"#utility.yul\":6304:6305   */\n      dup3\n        /* \"#utility.yul\":6301:6302   */\n      dup3\n        /* \"#utility.yul\":6297:6306   */\n      add\n        /* \"#utility.yul\":6290:6306   */\n      swap1\n      pop\n        /* \"#utility.yul\":6325:6328   */\n      dup1\n        /* \"#utility.yul\":6322:6323   */\n      dup3\n        /* \"#utility.yul\":6319:6329   */\n      gt\n        /* \"#utility.yul\":6316:6352   */\n      iszero\n      tag_350\n      jumpi\n        /* \"#utility.yul\":6332:6350   */\n      tag_351\n      tag_265\n      jump\t// in\n    tag_351:\n        /* \"#utility.yul\":6316:6352   */\n    tag_350:\n        /* \"#utility.yul\":6168:6359   */\n      swap3\n      swap2\n      pop\n      pop\n      jump\t// out\n        /* \"#utility.yul\":6365:6534   */\n    tag_266:\n        /* \"#utility.yul\":6449:6460   */\n      0x00\n        /* \"#utility.yul\":6483:6489   */\n      dup3\n        /* \"#utility.yul\":6478:6481   */\n      dup3\n        /* \"#utility.yul\":6471:6490   */\n      mstore\n        /* \"#utility.yul\":6523:6527   */\n      0x20\n        /* \"#utility.yul\":6518:6521   */\n      dup3\n        /* \"#utility.yul\":6514:6528   */\n      add\n        /* \"#utility.yul\":6499:6528   */\n      swap1\n      pop\n        /* \"#utility.yul\":6365:6534   */\n      swap3\n      swap2\n      pop\n      pop\n      jump\t// out\n        /* \"#utility.yul\":6540:6708   */\n    tag_267:\n        /* \"#utility.yul\":6680:6700   */\n      0x76657269666965722d6261642d696e7075740000000000000000000000000000\n        /* \"#utility.yul\":6676:6677   */\n      0x00\n        /* \"#utility.yul\":6668:6674   */\n      dup3\n        /* \"#utility.yul\":6664:6678   */\n      add\n        /* \"#utility.yul\":6657:6701   */\n      mstore\n        /* \"#utility.yul\":6540:6708   */\n      pop\n      jump\t// out\n        /* \"#utility.yul\":6714:7080   */\n    tag_268:\n        /* \"#utility.yul\":6856:6859   */\n      0x00\n        /* \"#utility.yul\":6877:6944   */\n      tag_355\n        /* \"#utility.yul\":6941:6943   */\n      0x12\n        /* \"#utility.yul\":6936:6939   */\n      dup4\n        /* \"#utility.yul\":6877:6944   */\n      tag_266\n      jump\t// in\n    tag_355:\n        /* \"#utility.yul\":6870:6944   */\n      swap2\n      pop\n        /* \"#utility.yul\":6953:7046   */\n      tag_356\n        /* \"#utility.yul\":7042:7045   */\n      dup3\n        /* \"#utility.yul\":6953:7046   */\n      tag_267\n      jump\t// in\n    tag_356:\n        /* \"#utility.yul\":7071:7073   */\n      0x20\n        /* \"#utility.yul\":7066:7069   */\n      dup3\n        /* \"#utility.yul\":7062:7074   */\n      add\n        /* \"#utility.yul\":7055:7074   */\n      swap1\n      pop\n        /* \"#utility.yul\":6714:7080   */\n      swap2\n      swap1\n      pop\n      jump\t// out\n        /* \"#utility.yul\":7086:7505   */\n    tag_60:\n        /* \"#utility.yul\":7252:7256   */\n      0x00\n        /* \"#utility.yul\":7290:7292   */\n      0x20\n        /* \"#utility.yul\":7279:7288   */\n      dup3\n        /* \"#utility.yul\":7275:7293   */\n      add\n        /* \"#utility.yul\":7267:7293   */\n      swap1\n      pop\n        /* \"#utility.yul\":7339:7348   */\n      dup2\n        /* \"#utility.yul\":7333:7337   */\n      dup2\n        /* \"#utility.yul\":7329:7349   */\n      sub\n        /* \"#utility.yul\":7325:7326   */\n      0x00\n        /* \"#utility.yul\":7314:7323   */\n      dup4\n        /* \"#utility.yul\":7310:7327   */\n      add\n        /* \"#utility.yul\":7303:7350   */\n      mstore\n        /* \"#utility.yul\":7367:7498   */\n      tag_358\n        /* \"#utility.yul\":7493:7497   */\n      dup2\n        /* \"#utility.yul\":7367:7498   */\n      tag_268\n      jump\t// in\n    tag_358:\n        /* \"#utility.yul\":7359:7498   */\n      swap1\n      pop\n        /* \"#utility.yul\":7086:7505   */\n      swap2\n      swap1\n      pop\n      jump\t// out\n        /* \"#utility.yul\":7511:7692   */\n    tag_269:\n        /* \"#utility.yul\":7651:7684   */\n      0x76657269666965722d6774652d736e61726b2d7363616c61722d6669656c6400\n        /* \"#utility.yul\":7647:7648   */\n      0x00\n        /* \"#utility.yul\":7639:7645   */\n      dup3\n        /* \"#utility.yul\":7635:7649   */\n      add\n        /* \"#utility.yul\":7628:7685   */\n      mstore\n        /* \"#utility.yul\":7511:7692   */\n      pop\n      jump\t// out\n        /* \"#utility.yul\":7698:8064   */\n    tag_270:\n        /* \"#utility.yul\":7840:7843   */\n      0x00\n        /* \"#utility.yul\":7861:7928   */\n      tag_361\n        /* \"#utility.yul\":7925:7927   */\n      0x1f\n        /* \"#utility.yul\":7920:7923   */\n      dup4\n        /* \"#utility.yul\":7861:7928   */\n      tag_266\n      jump\t// in\n    tag_361:\n        /* \"#utility.yul\":7854:7928   */\n      swap2\n      pop\n        /* \"#utility.yul\":7937:8030   */\n      tag_362\n        /* \"#utility.yul\":8026:8029   */\n      dup3\n        /* \"#utility.yul\":7937:8030   */\n      tag_269\n      jump\t// in\n    tag_362:\n        /* \"#utility.yul\":8055:8057   */\n      0x20\n        /* \"#utility.yul\":8050:8053   */\n      dup3\n        /* \"#utility.yul\":8046:8058   */\n      add\n        /* \"#utility.yul\":8039:8058   */\n      swap1\n      pop\n        /* \"#utility.yul\":7698:8064   */\n      swap2\n      swap1\n      pop\n      jump\t// out\n        /* \"#utility.yul\":8070:8489   */\n    tag_68:\n        /* \"#utility.yul\":8236:8240   */\n      0x00\n        /* \"#utility.yul\":8274:8276   */\n      0x20\n        /* \"#utility.yul\":8263:8272   */\n      dup3\n        /* \"#utility.yul\":8259:8277   */\n      add\n        /* \"#utility.yul\":8251:8277   */\n      swap1\n      pop\n        /* \"#utility.yul\":8323:8332   */\n      dup2\n        /* \"#utility.yul\":8317:8321   */\n      dup2\n        /* \"#utility.yul\":8313:8333   */\n      sub\n        /* \"#utility.yul\":8309:8310   */\n      0x00\n        /* \"#utility.yul\":8298:8307   */\n      dup4\n        /* \"#utility.yul\":8294:8311   */\n      add\n        /* \"#utility.yul\":8287:8334   */\n      mstore\n        /* \"#utility.yul\":8351:8482   */\n      tag_364\n        /* \"#utility.yul\":8477:8481   */\n      dup2\n        /* \"#utility.yul\":8351:8482   */\n      tag_270\n      jump\t// in\n    tag_364:\n        /* \"#utility.yul\":8343:8482   */\n      swap1\n      pop\n        /* \"#utility.yul\":8070:8489   */\n      swap2\n      swap1\n      pop\n      jump\t// out\n        /* \"#utility.yul\":8495:8663   */\n    tag_271:\n        /* \"#utility.yul\":8635:8655   */\n      0x70616972696e672d6d756c2d6661696c65640000000000000000000000000000\n        /* \"#utility.yul\":8631:8632   */\n      0x00\n        /* \"#utility.yul\":8623:8629   */\n      dup3\n        /* \"#utility.yul\":8619:8633   */\n      add\n        /* \"#utility.yul\":8612:8656   */\n      mstore\n        /* \"#utility.yul\":8495:8663   */\n      pop\n      jump\t// out\n        /* \"#utility.yul\":8669:9035   */\n    tag_272:\n        /* \"#utility.yul\":8811:8814   */\n      0x00\n        /* \"#utility.yul\":8832:8899   */\n      tag_367\n        /* \"#utility.yul\":8896:8898   */\n      0x12\n        /* \"#utility.yul\":8891:8894   */\n      dup4\n        /* \"#utility.yul\":8832:8899   */\n      tag_266\n      jump\t// in\n    tag_367:\n        /* \"#utility.yul\":8825:8899   */\n      swap2\n      pop\n        /* \"#utility.yul\":8908:9001   */\n      tag_368\n        /* \"#utility.yul\":8997:9000   */\n      dup3\n        /* \"#utility.yul\":8908:9001   */\n      tag_271\n      jump\t// in\n    tag_368:\n        /* \"#utility.yul\":9026:9028   */\n      0x20\n        /* \"#utility.yul\":9021:9024   */\n      dup3\n        /* \"#utility.yul\":9017:9029   */\n      add\n        /* \"#utility.yul\":9010:9029   */\n      swap1\n      pop\n        /* \"#utility.yul\":8669:9035   */\n      swap2\n      swap1\n      pop\n      jump\t// out\n        /* \"#utility.yul\":9041:9460   */\n    tag_115:\n        /* \"#utility.yul\":9207:9211   */\n      0x00\n        /* \"#utility.yul\":9245:9247   */\n      0x20\n        /* \"#utility.yul\":9234:9243   */\n      dup3\n        /* \"#utility.yul\":9230:9248   */\n      add\n        /* \"#utility.yul\":9222:9248   */\n      swap1\n      pop\n        /* \"#utility.yul\":9294:9303   */\n      dup2\n        /* \"#utility.yul\":9288:9292   */\n      dup2\n        /* \"#utility.yul\":9284:9304   */\n      sub\n        /* \"#utility.yul\":9280:9281   */\n      0x00\n        /* \"#utility.yul\":9269:9278   */\n      dup4\n        /* \"#utility.yul\":9265:9282   */\n      add\n        /* \"#utility.yul\":9258:9305   */\n      mstore\n        /* \"#utility.yul\":9322:9453   */\n      tag_370\n        /* \"#utility.yul\":9448:9452   */\n      dup2\n        /* \"#utility.yul\":9322:9453   */\n      tag_272\n      jump\t// in\n    tag_370:\n        /* \"#utility.yul\":9314:9453   */\n      swap1\n      pop\n        /* \"#utility.yul\":9041:9460   */\n      swap2\n      swap1\n      pop\n      jump\t// out\n        /* \"#utility.yul\":9466:9634   */\n    tag_273:\n        /* \"#utility.yul\":9606:9626   */\n      0x70616972696e672d6164642d6661696c65640000000000000000000000000000\n        /* \"#utility.yul\":9602:9603   */\n      0x00\n        /* \"#utility.yul\":9594:9600   */\n      dup3\n        /* \"#utility.yul\":9590:9604   */\n      add\n        /* \"#utility.yul\":9583:9627   */\n      mstore\n        /* \"#utility.yul\":9466:9634   */\n      pop\n      jump\t// out\n        /* \"#utility.yul\":9640:10006   */\n    tag_274:\n        /* \"#utility.yul\":9782:9785   */\n      0x00\n        /* \"#utility.yul\":9803:9870   */\n      tag_373\n        /* \"#utility.yul\":9867:9869   */\n      0x12\n        /* \"#utility.yul\":9862:9865   */\n      dup4\n        /* \"#utility.yul\":9803:9870   */\n      tag_266\n      jump\t// in\n    tag_373:\n        /* \"#utility.yul\":9796:9870   */\n      swap2\n      pop\n        /* \"#utility.yul\":9879:9972   */\n      tag_374\n        /* \"#utility.yul\":9968:9971   */\n      dup3\n        /* \"#utility.yul\":9879:9972   */\n      tag_273\n      jump\t// in\n    tag_374:\n        /* \"#utility.yul\":9997:9999   */\n      0x20\n        /* \"#utility.yul\":9992:9995   */\n      dup3\n        /* \"#utility.yul\":9988:10000   */\n      add\n        /* \"#utility.yul\":9981:10000   */\n      swap1\n      pop\n        /* \"#utility.yul\":9640:10006   */\n      swap2\n      swap1\n      pop\n      jump\t// out\n        /* \"#utility.yul\":10012:10431   */\n    tag_132:\n        /* \"#utility.yul\":10178:10182   */\n      0x00\n        /* \"#utility.yul\":10216:10218   */\n      0x20\n        /* \"#utility.yul\":10205:10214   */\n      dup3\n        /* \"#utility.yul\":10201:10219   */\n      add\n        /* \"#utility.yul\":10193:10219   */\n      swap1\n      pop\n        /* \"#utility.yul\":10265:10274   */\n      dup2\n        /* \"#utility.yul\":10259:10263   */\n      dup2\n        /* \"#utility.yul\":10255:10275   */\n      sub\n        /* \"#utility.yul\":10251:10252   */\n      0x00\n        /* \"#utility.yul\":10240:10249   */\n      dup4\n        /* \"#utility.yul\":10236:10253   */\n      add\n        /* \"#utility.yul\":10229:10276   */\n      mstore\n        /* \"#utility.yul\":10293:10424   */\n      tag_376\n        /* \"#utility.yul\":10419:10423   */\n      dup2\n        /* \"#utility.yul\":10293:10424   */\n      tag_274\n      jump\t// in\n    tag_376:\n        /* \"#utility.yul\":10285:10424   */\n      swap1\n      pop\n        /* \"#utility.yul\":10012:10431   */\n      swap2\n      swap1\n      pop\n      jump\t// out\n        /* \"#utility.yul\":10437:10617   */\n    tag_275:\n        /* \"#utility.yul\":10485:10562   */\n      0x4e487b7100000000000000000000000000000000000000000000000000000000\n        /* \"#utility.yul\":10482:10483   */\n      0x00\n        /* \"#utility.yul\":10475:10563   */\n      mstore\n        /* \"#utility.yul\":10582:10586   */\n      0x12\n        /* \"#utility.yul\":10579:10580   */\n      0x04\n        /* \"#utility.yul\":10572:10587   */\n      mstore\n        /* \"#utility.yul\":10606:10610   */\n      0x24\n        /* \"#utility.yul\":10603:10604   */\n      0x00\n        /* \"#utility.yul\":10596:10611   */\n      revert\n        /* \"#utility.yul\":10623:10799   */\n    tag_138:\n        /* \"#utility.yul\":10655:10656   */\n      0x00\n        /* \"#utility.yul\":10672:10692   */\n      tag_379\n        /* \"#utility.yul\":10690:10691   */\n      dup3\n        /* \"#utility.yul\":10672:10692   */\n      tag_255\n      jump\t// in\n    tag_379:\n        /* \"#utility.yul\":10667:10692   */\n      swap2\n      pop\n        /* \"#utility.yul\":10706:10726   */\n      tag_380\n        /* \"#utility.yul\":10724:10725   */\n      dup4\n        /* \"#utility.yul\":10706:10726   */\n      tag_255\n      jump\t// in\n    tag_380:\n        /* \"#utility.yul\":10701:10726   */\n      swap3\n      pop\n        /* \"#utility.yul\":10745:10746   */\n      dup3\n        /* \"#utility.yul\":10735:10770   */\n      tag_381\n      jumpi\n        /* \"#utility.yul\":10750:10768   */\n      tag_382\n      tag_275\n      jump\t// in\n    tag_382:\n        /* \"#utility.yul\":10735:10770   */\n    tag_381:\n        /* \"#utility.yul\":10791:10792   */\n      dup3\n        /* \"#utility.yul\":10788:10789   */\n      dup3\n        /* \"#utility.yul\":10784:10793   */\n      mod\n        /* \"#utility.yul\":10779:10793   */\n      swap1\n      pop\n        /* \"#utility.yul\":10623:10799   */\n      swap3\n      swap2\n      pop\n      pop\n      jump\t// out\n        /* \"#utility.yul\":10805:10999   */\n    tag_140:\n        /* \"#utility.yul\":10845:10849   */\n      0x00\n        /* \"#utility.yul\":10865:10885   */\n      tag_384\n        /* \"#utility.yul\":10883:10884   */\n      dup3\n        /* \"#utility.yul\":10865:10885   */\n      tag_255\n      jump\t// in\n    tag_384:\n        /* \"#utility.yul\":10860:10885   */\n      swap2\n      pop\n        /* \"#utility.yul\":10899:10919   */\n      tag_385\n        /* \"#utility.yul\":10917:10918   */\n      dup4\n        /* \"#utility.yul\":10899:10919   */\n      tag_255\n      jump\t// in\n    tag_385:\n        /* \"#utility.yul\":10894:10919   */\n      swap3\n      pop\n        /* \"#utility.yul\":10943:10944   */\n      dup3\n        /* \"#utility.yul\":10940:10941   */\n      dup3\n        /* \"#utility.yul\":10936:10945   */\n      sub\n        /* \"#utility.yul\":10928:10945   */\n      swap1\n      pop\n        /* \"#utility.yul\":10967:10968   */\n      dup2\n        /* \"#utility.yul\":10961:10965   */\n      dup2\n        /* \"#utility.yul\":10958:10969   */\n      gt\n        /* \"#utility.yul\":10955:10992   */\n      iszero\n      tag_386\n      jumpi\n        /* \"#utility.yul\":10972:10990   */\n      tag_387\n      tag_265\n      jump\t// in\n    tag_387:\n        /* \"#utility.yul\":10955:10992   */\n    tag_386:\n        /* \"#utility.yul\":10805:10999   */\n      swap3\n      swap2\n      pop\n      pop\n      jump\t// out\n        /* \"#utility.yul\":11005:11177   */\n    tag_276:\n        /* \"#utility.yul\":11145:11169   */\n      0x70616972696e672d6c656e677468732d6661696c656400000000000000000000\n        /* \"#utility.yul\":11141:11142   */\n      0x00\n        /* \"#utility.yul\":11133:11139   */\n      dup3\n        /* \"#utility.yul\":11129:11143   */\n      add\n        /* \"#utility.yul\":11122:11170   */\n      mstore\n        /* \"#utility.yul\":11005:11177   */\n      pop\n      jump\t// out\n        /* \"#utility.yul\":11183:11549   */\n    tag_277:\n        /* \"#utility.yul\":11325:11328   */\n      0x00\n        /* \"#utility.yul\":11346:11413   */\n      tag_390\n        /* \"#utility.yul\":11410:11412   */\n      0x16\n        /* \"#utility.yul\":11405:11408   */\n      dup4\n        /* \"#utility.yul\":11346:11413   */\n      tag_266\n      jump\t// in\n    tag_390:\n        /* \"#utility.yul\":11339:11413   */\n      swap2\n      pop\n        /* \"#utility.yul\":11422:11515   */\n      tag_391\n        /* \"#utility.yul\":11511:11514   */\n      dup3\n        /* \"#utility.yul\":11422:11515   */\n      tag_276\n      jump\t// in\n    tag_391:\n        /* \"#utility.yul\":11540:11542   */\n      0x20\n        /* \"#utility.yul\":11535:11538   */\n      dup3\n        /* \"#utility.yul\":11531:11543   */\n      add\n        /* \"#utility.yul\":11524:11543   */\n      swap1\n      pop\n        /* \"#utility.yul\":11183:11549   */\n      swap2\n      swap1\n      pop\n      jump\t// out\n        /* \"#utility.yul\":11555:11974   */\n    tag_174:\n        /* \"#utility.yul\":11721:11725   */\n      0x00\n        /* \"#utility.yul\":11759:11761   */\n      0x20\n        /* \"#utility.yul\":11748:11757   */\n      dup3\n        /* \"#utility.yul\":11744:11762   */\n      add\n        /* \"#utility.yul\":11736:11762   */\n      swap1\n      pop\n        /* \"#utility.yul\":11808:11817   */\n      dup2\n        /* \"#utility.yul\":11802:11806   */\n      dup2\n        /* \"#utility.yul\":11798:11818   */\n      sub\n        /* \"#utility.yul\":11794:11795   */\n      0x00\n        /* \"#utility.yul\":11783:11792   */\n      dup4\n        /* \"#utility.yul\":11779:11796   */\n      add\n        /* \"#utility.yul\":11772:11819   */\n      mstore\n        /* \"#utility.yul\":11836:11967   */\n      tag_393\n        /* \"#utility.yul\":11962:11966   */\n      dup2\n        /* \"#utility.yul\":11836:11967   */\n      tag_277\n      jump\t// in\n    tag_393:\n        /* \"#utility.yul\":11828:11967   */\n      swap1\n      pop\n        /* \"#utility.yul\":11555:11974   */\n      swap2\n      swap1\n      pop\n      jump\t// out\n        /* \"#utility.yul\":11980:12390   */\n    tag_176:\n        /* \"#utility.yul\":12020:12027   */\n      0x00\n        /* \"#utility.yul\":12043:12063   */\n      tag_395\n        /* \"#utility.yul\":12061:12062   */\n      dup3\n        /* \"#utility.yul\":12043:12063   */\n      tag_255\n      jump\t// in\n    tag_395:\n        /* \"#utility.yul\":12038:12063   */\n      swap2\n      pop\n        /* \"#utility.yul\":12077:12097   */\n      tag_396\n        /* \"#utility.yul\":12095:12096   */\n      dup4\n        /* \"#utility.yul\":12077:12097   */\n      tag_255\n      jump\t// in\n    tag_396:\n        /* \"#utility.yul\":12072:12097   */\n      swap3\n      pop\n        /* \"#utility.yul\":12132:12133   */\n      dup3\n        /* \"#utility.yul\":12129:12130   */\n      dup3\n        /* \"#utility.yul\":12125:12134   */\n      mul\n        /* \"#utility.yul\":12154:12184   */\n      tag_397\n        /* \"#utility.yul\":12172:12183   */\n      dup2\n        /* \"#utility.yul\":12154:12184   */\n      tag_255\n      jump\t// in\n    tag_397:\n        /* \"#utility.yul\":12143:12184   */\n      swap2\n      pop\n        /* \"#utility.yul\":12333:12334   */\n      dup3\n        /* \"#utility.yul\":12324:12331   */\n      dup3\n        /* \"#utility.yul\":12320:12335   */\n      div\n        /* \"#utility.yul\":12317:12318   */\n      dup5\n        /* \"#utility.yul\":12314:12336   */\n      eq\n        /* \"#utility.yul\":12294:12295   */\n      dup4\n        /* \"#utility.yul\":12287:12296   */\n      iszero\n        /* \"#utility.yul\":12267:12350   */\n      or\n        /* \"#utility.yul\":12244:12383   */\n      tag_398\n      jumpi\n        /* \"#utility.yul\":12363:12381   */\n      tag_399\n      tag_265\n      jump\t// in\n    tag_399:\n        /* \"#utility.yul\":12244:12383   */\n    tag_398:\n        /* \"#utility.yul\":12028:12390   */\n      pop\n        /* \"#utility.yul\":11980:12390   */\n      swap3\n      swap2\n      pop\n      pop\n      jump\t// out\n        /* \"#utility.yul\":12396:12567   */\n    tag_278:\n        /* \"#utility.yul\":12536:12559   */\n      0x70616972696e672d6f70636f64652d6661696c65640000000000000000000000\n        /* \"#utility.yul\":12532:12533   */\n      0x00\n        /* \"#utility.yul\":12524:12530   */\n      dup3\n        /* \"#utility.yul\":12520:12534   */\n      add\n        /* \"#utility.yul\":12513:12560   */\n      mstore\n        /* \"#utility.yul\":12396:12567   */\n      pop\n      jump\t// out\n        /* \"#utility.yul\":12573:12939   */\n    tag_279:\n        /* \"#utility.yul\":12715:12718   */\n      0x00\n        /* \"#utility.yul\":12736:12803   */\n      tag_402\n        /* \"#utility.yul\":12800:12802   */\n      0x15\n        /* \"#utility.yul\":12795:12798   */\n      dup4\n        /* \"#utility.yul\":12736:12803   */\n      tag_266\n      jump\t// in\n    tag_402:\n        /* \"#utility.yul\":12729:12803   */\n      swap2\n      pop\n        /* \"#utility.yul\":12812:12905   */\n      tag_403\n        /* \"#utility.yul\":12901:12904   */\n      dup3\n        /* \"#utility.yul\":12812:12905   */\n      tag_278\n      jump\t// in\n    tag_403:\n        /* \"#utility.yul\":12930:12932   */\n      0x20\n        /* \"#utility.yul\":12925:12928   */\n      dup3\n        /* \"#utility.yul\":12921:12933   */\n      add\n        /* \"#utility.yul\":12914:12933   */\n      swap1\n      pop\n        /* \"#utility.yul\":12573:12939   */\n      swap2\n      swap1\n      pop\n      jump\t// out\n        /* \"#utility.yul\":12945:13364   */\n    tag_233:\n        /* \"#utility.yul\":13111:13115   */\n      0x00\n        /* \"#utility.yul\":13149:13151   */\n      0x20\n        /* \"#utility.yul\":13138:13147   */\n      dup3\n        /* \"#utility.yul\":13134:13152   */\n      add\n        /* \"#utility.yul\":13126:13152   */\n      swap1\n      pop\n        /* \"#utility.yul\":13198:13207   */\n      dup2\n        /* \"#utility.yul\":13192:13196   */\n      dup2\n        /* \"#utility.yul\":13188:13208   */\n      sub\n        /* \"#utility.yul\":13184:13185   */\n      0x00\n        /* \"#utility.yul\":13173:13182   */\n      dup4\n        /* \"#utility.yul\":13169:13186   */\n      add\n        /* \"#utility.yul\":13162:13209   */\n      mstore\n        /* \"#utility.yul\":13226:13357   */\n      tag_405\n        /* \"#utility.yul\":13352:13356   */\n      dup2\n        /* \"#utility.yul\":13226:13357   */\n      tag_279\n      jump\t// in\n    tag_405:\n        /* \"#utility.yul\":13218:13357   */\n      swap1\n      pop\n        /* \"#utility.yul\":12945:13364   */\n      swap2\n      swap1\n      pop\n      jump\t// out\n\n    auxdata: 0xa2646970667358221220d569ab945cee084f1f262a2f893e61af91f53a8f52b715475112dcdca2eab2d464736f6c634300081b0033\n}\n",
				"bytecode": {
					"linkReferences": {},
					"object": "6080604052348015600e575f5ffd5b506119248061001c5f395ff3fe608060405234801561000f575f5ffd5b5060043610610029575f3560e01c8063f5c9d69e1461002d575b5f5ffd5b61004760048036038101906100429190611477565b61005d565b60405161005491906114f7565b60405180910390f35b5f61006661110b565b6040518060400160405280875f6002811061008457610083611510565b5b60200201518152602001876001600281106100a2576100a1611510565b5b6020020151815250815f018190525060405180604001604052806040518060400160405280885f600281106100da576100d9611510565b5b60200201515f600281106100f1576100f0611510565b5b60200201518152602001885f6002811061010e5761010d611510565b5b602002015160016002811061012657610125611510565b5b6020020151815250815260200160405180604001604052808860016002811061015257610151611510565b5b60200201515f6002811061016957610168611510565b5b602002015181526020018860016002811061018757610186611510565b5b602002015160016002811061019f5761019e611510565b5b602002015181525081525081602001819052506040518060400160405280855f600281106101d0576101cf611510565b5b60200201518152602001856001600281106101ee576101ed611510565b5b602002015181525081604001819052505f600267ffffffffffffffff81111561021a5761021961126c565b5b6040519080825280602002602001820160405280156102485781602001602082028036833780820191505090505b5090505f5f90505b600281101561029d5784816002811061026c5761026b611510565b5b602002015182828151811061028457610283611510565b5b6020026020010181815250508080600101915050610250565b505f6102a982846102c7565b036102b9576001925050506102bf565b5f925050505b949350505050565b5f5f7f30644e72e131a029b85045b68181585d2833e84879b9709143e1f593f000000190505f6102f56104ad565b90508060800151516001865161030b919061156a565b1461034b576040517f08c379a0000000000000000000000000000000000000000000000000000000008152600401610342906115f7565b60405180910390fd5b5f60405180604001604052805f81526020015f81525090505f5f90505b8651811015610433578387828151811061038557610384611510565b5b6020026020010151106103cd576040517f08c379a00000000000000000000000000000000000000000000000000000000081526004016103c49061165f565b60405180910390fd5b6104248261041f85608001516001856103e6919061156a565b815181106103f7576103f6611510565b5b60200260200101518a858151811061041257610411611510565b5b6020026020010151610927565b6109fb565b91508080600101915050610368565b5061045c8183608001515f8151811061044f5761044e611510565b5b60200260200101516109fb565b905061049061046d865f0151610af4565b8660200151845f015185602001518587604001518b604001518960600151610b92565b6104a057600193505050506104a7565b5f93505050505b92915050565b6104b561113e565b60405180604001604052807f2d4d9aa7e302d9df41749d5507949d05dbea33fbb16c643b22f599a2be6df2e281526020017f14bedd503c37ceb061d8ec60209fe345ce89830a19230301f076caff004d1926815250815f0181905250604051806040016040528060405180604001604052807f0967032fcbf776d1afc985f88877f182d38480a653f2decaa9794cbc3bf3060c81526020017f0e187847ad4c798374d0d6732bf501847dd68bc0e071241e0213bc7fc13db7ab815250815260200160405180604001604052807f304cfbd1e08a704a99f5e847d93f8c3caafddec46b7a0d379da69a4d112346a781526020017f1739c1b1a457a8c7313123d24d2f9192f896b7c63eea05a9d57f06547ad0cec88152508152508160200181905250604051806040016040528060405180604001604052807f198e9393920d483a7260bfb731fb5d25f1aa493335a9e71297e485b7aef312c281526020017f1800deef121f1e76426a00665e5c4479674322d4f75edadd46debd5cd992f6ed815250815260200160405180604001604052807f090689d0585ff075ec9e99ad690c3395bc4b313370b38ef355acdadcd122975b81526020017f12c85ea5db8c6deb4aab71808dcb408fe3d1e7690c43d37b4ce6cc0166fa7daa8152508152508160400181905250604051806040016040528060405180604001604052807f198e9393920d483a7260bfb731fb5d25f1aa493335a9e71297e485b7aef312c281526020017f1800deef121f1e76426a00665e5c4479674322d4f75edadd46debd5cd992f6ed815250815260200160405180604001604052807f090689d0585ff075ec9e99ad690c3395bc4b313370b38ef355acdadcd122975b81526020017f12c85ea5db8c6deb4aab71808dcb408fe3d1e7690c43d37b4ce6cc0166fa7daa8152508152508160600181905250600367ffffffffffffffff81111561077b5761077a61126c565b5b6040519080825280602002602001820160405280156107b457816020015b6107a1611185565b8152602001906001900390816107995790505b50816080018190525060405180604001604052807f020163e70c56f84f120db0a5c8fdb675a5233d4474d7b7d5ea96b2e3c32d16fe81526020017f1e732adbfb31f1fd6dea615e4304ac3372bc61d274a353bd34318f3f9d75735d81525081608001515f8151811061082957610828611510565b5b602002602001018190525060405180604001604052807f20bd1d187556a6d75fbb47ee23481ee36d1e8f81bf10043e5bffc1cd8536e4c281526020017f0266d8972ad53bba47b7f1337379b3d03434bc442a49cbd9b910f44c7dd6f8d581525081608001516001815181106108a1576108a0611510565b5b602002602001018190525060405180604001604052807f09bf9264ae6f2136a12436bc78419bf4428fb9516943a3dc8a298fe798d26e6881526020017f1cbf01b537141584b3b4775016a4653f566ec617331e2ad44c10657ec8f91d97815250816080015160028151811061091957610918611510565b5b602002602001018190525090565b61092f611185565b61093761119d565b835f0151815f6003811061094e5761094d611510565b5b6020020181815250508360200151816001600381106109705761096f611510565b5b602002018181525050828160026003811061098e5761098d611510565b5b6020020181815250505f60608360808460076107d05a03fa9050805f81036109b257fe5b50806109f3576040517f08c379a00000000000000000000000000000000000000000000000000000000081526004016109ea906116c7565b60405180910390fd5b505092915050565b610a03611185565b610a0b6111bf565b835f0151815f60048110610a2257610a21611510565b5b602002018181525050836020015181600160048110610a4457610a43611510565b5b602002018181525050825f015181600260048110610a6557610a64611510565b5b602002018181525050826020015181600360048110610a8757610a86611510565b5b6020020181815250505f60608360c08460066107d05a03fa9050805f8103610aab57fe5b5080610aec576040517f08c379a0000000000000000000000000000000000000000000000000000000008152600401610ae39061172f565b60405180910390fd5b505092915050565b610afc611185565b5f7f30644e72e131a029b85045b68181585d97816a916871ca8d3c208c16d87cfd4790505f835f0151148015610b3557505f8360200151145b15610b575760405180604001604052805f81526020015f815250915050610b8d565b6040518060400160405280845f01518152602001828560200151610b7b919061177a565b83610b8691906117aa565b8152509150505b919050565b5f5f600467ffffffffffffffff811115610baf57610bae61126c565b5b604051908082528060200260200182016040528015610be857816020015b610bd5611185565b815260200190600190039081610bcd5790505b5090505f600467ffffffffffffffff811115610c0757610c0661126c565b5b604051908082528060200260200182016040528015610c4057816020015b610c2d6111e1565b815260200190600190039081610c255790505b5090508a825f81518110610c5757610c56611510565b5b60200260200101819052508882600181518110610c7757610c76611510565b5b60200260200101819052508682600281518110610c9757610c96611510565b5b60200260200101819052508482600381518110610cb757610cb6611510565b5b602002602001018190525089815f81518110610cd657610cd5611510565b5b60200260200101819052508781600181518110610cf657610cf5611510565b5b60200260200101819052508581600281518110610d1657610d15611510565b5b60200260200101819052508381600381518110610d3657610d35611510565b5b6020026020010181905250610d4b8282610d5b565b9250505098975050505050505050565b5f8151835114610da0576040517f08c379a0000000000000000000000000000000000000000000000000000000008152600401610d9790611827565b60405180910390fd5b5f835190505f600682610db39190611845565b90505f8167ffffffffffffffff811115610dd057610dcf61126c565b5b604051908082528060200260200182016040528015610dfe5781602001602082028036833780820191505090505b5090505f5f90505b8381101561107957868181518110610e2157610e20611510565b5b60200260200101515f0151825f600684610e3b9190611845565b610e45919061156a565b81518110610e5657610e55611510565b5b602002602001018181525050868181518110610e7557610e74611510565b5b602002602001015160200151826001600684610e919190611845565b610e9b919061156a565b81518110610eac57610eab611510565b5b602002602001018181525050858181518110610ecb57610eca611510565b5b60200260200101515f01515f60028110610ee857610ee7611510565b5b6020020151826002600684610efd9190611845565b610f07919061156a565b81518110610f1857610f17611510565b5b602002602001018181525050858181518110610f3757610f36611510565b5b60200260200101515f0151600160028110610f5557610f54611510565b5b6020020151826003600684610f6a9190611845565b610f74919061156a565b81518110610f8557610f84611510565b5b602002602001018181525050858181518110610fa457610fa3611510565b5b6020026020010151602001515f60028110610fc257610fc1611510565b5b6020020151826004600684610fd79190611845565b610fe1919061156a565b81518110610ff257610ff1611510565b5b60200260200101818152505085818151811061101157611010611510565b5b6020026020010151602001516001600281106110305761102f611510565b5b60200201518260056006846110459190611845565b61104f919061156a565b815181106110605761105f611510565b5b6020026020010181815250508080600101915050610e06565b50611082611207565b5f602082602086026020860160086107d05a03fa9050805f81036110a257fe5b50806110e3576040517f08c379a00000000000000000000000000000000000000000000000000000000081526004016110da906118d0565b60405180910390fd5b5f825f600181106110f7576110f6611510565b5b602002015114159550505050505092915050565b604051806060016040528061111e611185565b815260200161112b6111e1565b8152602001611138611185565b81525090565b6040518060a00160405280611151611185565b815260200161115e6111e1565b815260200161116b6111e1565b81526020016111786111e1565b8152602001606081525090565b60405180604001604052805f81526020015f81525090565b6040518060600160405280600390602082028036833780820191505090505090565b6040518060800160405280600490602082028036833780820191505090505090565b60405180604001604052806111f4611229565b8152602001611201611229565b81525090565b6040518060200160405280600190602082028036833780820191505090505090565b6040518060400160405280600290602082028036833780820191505090505090565b5f604051905090565b5f5ffd5b5f5ffd5b5f601f19601f8301169050919050565b7f4e487b71000000000000000000000000000000000000000000000000000000005f52604160045260245ffd5b6112a28261125c565b810181811067ffffffffffffffff821117156112c1576112c061126c565b5b80604052505050565b5f6112d361124b565b90506112df8282611299565b919050565b5f67ffffffffffffffff8211156112fe576112fd61126c565b5b602082029050919050565b5f5ffd5b5f819050919050565b61131f8161130d565b8114611329575f5ffd5b50565b5f8135905061133a81611316565b92915050565b5f61135261134d846112e4565b6112ca565b9050806020840283018581111561136c5761136b611309565b5b835b818110156113955780611381888261132c565b84526020840193505060208101905061136e565b5050509392505050565b5f82601f8301126113b3576113b2611258565b5b60026113c0848285611340565b91505092915050565b5f67ffffffffffffffff8211156113e3576113e261126c565b5b602082029050919050565b5f6114006113fb846113c9565b6112ca565b9050806040840283018581111561141a57611419611309565b5b835b81811015611443578061142f888261139f565b84526020840193505060408101905061141c565b5050509392505050565b5f82601f83011261146157611460611258565b5b600261146e8482856113ee565b91505092915050565b5f5f5f5f61014085870312156114905761148f611254565b5b5f61149d8782880161139f565b94505060406114ae8782880161144d565b93505060c06114bf8782880161139f565b9250506101006114d18782880161139f565b91505092959194509250565b5f8115159050919050565b6114f1816114dd565b82525050565b5f60208201905061150a5f8301846114e8565b92915050565b7f4e487b71000000000000000000000000000000000000000000000000000000005f52603260045260245ffd5b7f4e487b71000000000000000000000000000000000000000000000000000000005f52601160045260245ffd5b5f6115748261130d565b915061157f8361130d565b92508282019050808211156115975761159661153d565b5b92915050565b5f82825260208201905092915050565b7f76657269666965722d6261642d696e70757400000000000000000000000000005f82015250565b5f6115e160128361159d565b91506115ec826115ad565b602082019050919050565b5f6020820190508181035f83015261160e816115d5565b9050919050565b7f76657269666965722d6774652d736e61726b2d7363616c61722d6669656c64005f82015250565b5f611649601f8361159d565b915061165482611615565b602082019050919050565b5f6020820190508181035f8301526116768161163d565b9050919050565b7f70616972696e672d6d756c2d6661696c656400000000000000000000000000005f82015250565b5f6116b160128361159d565b91506116bc8261167d565b602082019050919050565b5f6020820190508181035f8301526116de816116a5565b9050919050565b7f70616972696e672d6164642d6661696c656400000000000000000000000000005f82015250565b5f61171960128361159d565b9150611724826116e5565b602082019050919050565b5f6020820190508181035f8301526117468161170d565b9050919050565b7f4e487b71000000000000000000000000000000000000000000000000000000005f52601260045260245ffd5b5f6117848261130d565b915061178f8361130d565b92508261179f5761179e61174d565b5b828206905092915050565b5f6117b48261130d565b91506117bf8361130d565b92508282039050818111156117d7576117d661153d565b5b92915050565b7f70616972696e672d6c656e677468732d6661696c6564000000000000000000005f82015250565b5f61181160168361159d565b915061181c826117dd565b602082019050919050565b5f6020820190508181035f83015261183e81611805565b9050919050565b5f61184f8261130d565b915061185a8361130d565b92508282026118688161130d565b9150828204841483151761187f5761187e61153d565b5b5092915050565b7f70616972696e672d6f70636f64652d6661696c656400000000000000000000005f82015250565b5f6118ba60158361159d565b91506118c582611886565b602082019050919050565b5f6020820190508181035f8301526118e7816118ae565b905091905056fea2646970667358221220d569ab945cee084f1f262a2f893e61af91f53a8f52b715475112dcdca2eab2d464736f6c634300081b0033",
					"opcodes": "PUSH1 0x80 PUSH1 0x40 MSTORE CALLVALUE DUP1 ISZERO PUSH1 0xE JUMPI PUSH0 PUSH0 REVERT JUMPDEST POP PUSH2 0x1924 DUP1 PUSH2 0x1C PUSH0 CODECOPY PUSH0 RETURN INVALID PUSH1 0x80 PUSH1 0x40 MSTORE CALLVALUE DUP1 ISZERO PUSH2 0xF JUMPI PUSH0 PUSH0 REVERT JUMPDEST POP PUSH1 0x4 CALLDATASIZE LT PUSH2 0x29 JUMPI PUSH0 CALLDATALOAD PUSH1 0xE0 SHR DUP1 PUSH4 0xF5C9D69E EQ PUSH2 0x2D JUMPI JUMPDEST PUSH0 PUSH0 REVERT JUMPDEST PUSH2 0x47 PUSH1 0x4 DUP1 CALLDATASIZE SUB DUP2 ADD SWAP1 PUSH2 0x42 SWAP2 SWAP1 PUSH2 0x1477 JUMP JUMPDEST PUSH2 0x5D JUMP JUMPDEST PUSH1 0x40 MLOAD PUSH2 0x54 SWAP2 SWAP1 PUSH2 0x14F7 JUMP JUMPDEST PUSH1 0x40 MLOAD DUP1 SWAP2 SUB SWAP1 RETURN JUMPDEST PUSH0 PUSH2 0x66 PUSH2 0x110B JUMP JUMPDEST PUSH1 0x40 MLOAD DUP1 PUSH1 0x40 ADD PUSH1 0x40 MSTORE DUP1 DUP8 PUSH0 PUSH1 0x2 DUP2 LT PUSH2 0x84 JUMPI PUSH2 0x83 PUSH2 0x1510 JUMP JUMPDEST JUMPDEST PUSH1 0x20 MUL ADD MLOAD DUP2 MSTORE PUSH1 0x20 ADD DUP8 PUSH1 0x1 PUSH1 0x2 DUP2 LT PUSH2 0xA2 JUMPI PUSH2 0xA1 PUSH2 0x1510 JUMP JUMPDEST JUMPDEST PUSH1 0x20 MUL ADD MLOAD DUP2 MSTORE POP DUP2 PUSH0 ADD DUP2 SWAP1 MSTORE POP PUSH1 0x40 MLOAD DUP1 PUSH1 0x40 ADD PUSH1 0x40 MSTORE DUP1 PUSH1 0x40 MLOAD DUP1 PUSH1 0x40 ADD PUSH1 0x40 MSTORE DUP1 DUP9 PUSH0 PUSH1 0x2 DUP2 LT PUSH2 0xDA JUMPI PUSH2 0xD9 PUSH2 0x1510 JUMP JUMPDEST JUMPDEST PUSH1 0x20 MUL ADD MLOAD PUSH0 PUSH1 0x2 DUP2 LT PUSH2 0xF1 JUMPI PUSH2 0xF0 PUSH2 0x1510 JUMP JUMPDEST JUMPDEST PUSH1 0x20 MUL ADD MLOAD DUP2 MSTORE PUSH1 0x20 ADD DUP9 PUSH0 PUSH1 0x2 DUP2 LT PUSH2 0x10E JUMPI PUSH2 0x10D PUSH2 0x1510 JUMP JUMPDEST JUMPDEST PUSH1 0x20 MUL ADD MLOAD PUSH1 0x1 PUSH1 0x2 DUP2 LT PUSH2 0x126 JUMPI PUSH2 0x125 PUSH2 0x1510 JUMP JUMPDEST JUMPDEST PUSH1 0x20 MUL ADD MLOAD DUP2 MSTORE POP DUP2 MSTORE PUSH1 0x20 ADD PUSH1 0x40 MLOAD DUP1 PUSH1 0x40 ADD PUSH1 0x40 MSTORE DUP1 DUP9 PUSH1 0x1 PUSH1 0x2 DUP2 LT PUSH2 0x152 JUMPI PUSH2 0x151 PUSH2 0x1510 JUMP JUMPDEST JUMPDEST PUSH1 0x20 MUL ADD MLOAD PUSH0 PUSH1 0x2 DUP2 LT PUSH2 0x169 JUMPI PUSH2 0x168 PUSH2 0x1510 JUMP JUMPDEST JUMPDEST PUSH1 0x20 MUL ADD MLOAD DUP2 MSTORE PUSH1 0x20 ADD DUP9 PUSH1 0x1 PUSH1 0x2 DUP2 LT PUSH2 0x187 JUMPI PUSH2 0x186 PUSH2 0x1510 JUMP JUMPDEST JUMPDEST PUSH1 0x20 MUL ADD MLOAD PUSH1 0x1 PUSH1 0x2 DUP2 LT PUSH2 0x19F JUMPI PUSH2 0x19E PUSH2 0x1510 JUMP JUMPDEST JUMPDEST PUSH1 0x20 MUL ADD MLOAD DUP2 MSTORE POP DUP2 MSTORE POP DUP2 PUSH1 0x20 ADD DUP2 SWAP1 MSTORE POP PUSH1 0x40 MLOAD DUP1 PUSH1 0x40 ADD PUSH1 0x40 MSTORE DUP1 DUP6 PUSH0 PUSH1 0x2 DUP2 LT PUSH2 0x1D0 JUMPI PUSH2 0x1CF PUSH2 0x1510 JUMP JUMPDEST JUMPDEST PUSH1 0x20 MUL ADD MLOAD DUP2 MSTORE PUSH1 0x20 ADD DUP6 PUSH1 0x1 PUSH1 0x2 DUP2 LT PUSH2 0x1EE JUMPI PUSH2 0x1ED PUSH2 0x1510 JUMP JUMPDEST JUMPDEST PUSH1 0x20 MUL ADD MLOAD DUP2 MSTORE POP DUP2 PUSH1 0x40 ADD DUP2 SWAP1 MSTORE POP PUSH0 PUSH1 0x2 PUSH8 0xFFFFFFFFFFFFFFFF DUP2 GT ISZERO PUSH2 0x21A JUMPI PUSH2 0x219 PUSH2 0x126C JUMP JUMPDEST JUMPDEST PUSH1 0x40 MLOAD SWAP1 DUP1 DUP3 MSTORE DUP1 PUSH1 0x20 MUL PUSH1 0x20 ADD DUP3 ADD PUSH1 0x40 MSTORE DUP1 ISZERO PUSH2 0x248 JUMPI DUP2 PUSH1 0x20 ADD PUSH1 0x20 DUP3 MUL DUP1 CALLDATASIZE DUP4 CALLDATACOPY DUP1 DUP3 ADD SWAP2 POP POP SWAP1 POP JUMPDEST POP SWAP1 POP PUSH0 PUSH0 SWAP1 POP JUMPDEST PUSH1 0x2 DUP2 LT ISZERO PUSH2 0x29D JUMPI DUP5 DUP2 PUSH1 0x2 DUP2 LT PUSH2 0x26C JUMPI PUSH2 0x26B PUSH2 0x1510 JUMP JUMPDEST JUMPDEST PUSH1 0x20 MUL ADD MLOAD DUP3 DUP3 DUP2 MLOAD DUP2 LT PUSH2 0x284 JUMPI PUSH2 0x283 PUSH2 0x1510 JUMP JUMPDEST JUMPDEST PUSH1 0x20 MUL PUSH1 0x20 ADD ADD DUP2 DUP2 MSTORE POP POP DUP1 DUP1 PUSH1 0x1 ADD SWAP2 POP POP PUSH2 0x250 JUMP JUMPDEST POP PUSH0 PUSH2 0x2A9 DUP3 DUP5 PUSH2 0x2C7 JUMP JUMPDEST SUB PUSH2 0x2B9 JUMPI PUSH1 0x1 SWAP3 POP POP POP PUSH2 0x2BF JUMP JUMPDEST PUSH0 SWAP3 POP POP POP JUMPDEST SWAP5 SWAP4 POP POP POP POP JUMP JUMPDEST PUSH0 PUSH0 PUSH32 0x30644E72E131A029B85045B68181585D2833E84879B9709143E1F593F0000001 SWAP1 POP PUSH0 PUSH2 0x2F5 PUSH2 0x4AD JUMP JUMPDEST SWAP1 POP DUP1 PUSH1 0x80 ADD MLOAD MLOAD PUSH1 0x1 DUP7 MLOAD PUSH2 0x30B SWAP2 SWAP1 PUSH2 0x156A JUMP JUMPDEST EQ PUSH2 0x34B JUMPI PUSH1 0x40 MLOAD PUSH32 0x8C379A000000000000000000000000000000000000000000000000000000000 DUP2 MSTORE PUSH1 0x4 ADD PUSH2 0x342 SWAP1 PUSH2 0x15F7 JUMP JUMPDEST PUSH1 0x40 MLOAD DUP1 SWAP2 SUB SWAP1 REVERT JUMPDEST PUSH0 PUSH1 0x40 MLOAD DUP1 PUSH1 0x40 ADD PUSH1 0x40 MSTORE DUP1 PUSH0 DUP2 MSTORE PUSH1 0x20 ADD PUSH0 DUP2 MSTORE POP SWAP1 POP PUSH0 PUSH0 SWAP1 POP JUMPDEST DUP7 MLOAD DUP2 LT ISZERO PUSH2 0x433 JUMPI DUP4 DUP8 DUP3 DUP2 MLOAD DUP2 LT PUSH2 0x385 JUMPI PUSH2 0x384 PUSH2 0x1510 JUMP JUMPDEST JUMPDEST PUSH1 0x20 MUL PUSH1 0x20 ADD ADD MLOAD LT PUSH2 0x3CD JUMPI PUSH1 0x40 MLOAD PUSH32 0x8C379A000000000000000000000000000000000000000000000000000000000 DUP2 MSTORE PUSH1 0x4 ADD PUSH2 0x3C4 SWAP1 PUSH2 0x165F JUMP JUMPDEST PUSH1 0x40 MLOAD DUP1 SWAP2 SUB SWAP1 REVERT JUMPDEST PUSH2 0x424 DUP3 PUSH2 0x41F DUP6 PUSH1 0x80 ADD MLOAD PUSH1 0x1 DUP6 PUSH2 0x3E6 SWAP2 SWAP1 PUSH2 0x156A JUMP JUMPDEST DUP2 MLOAD DUP2 LT PUSH2 0x3F7 JUMPI PUSH2 0x3F6 PUSH2 0x1510 JUMP JUMPDEST JUMPDEST PUSH1 0x20 MUL PUSH1 0x20 ADD ADD MLOAD DUP11 DUP6 DUP2 MLOAD DUP2 LT PUSH2 0x412 JUMPI PUSH2 0x411 PUSH2 0x1510 JUMP JUMPDEST JUMPDEST PUSH1 0x20 MUL PUSH1 0x20 ADD ADD MLOAD PUSH2 0x927 JUMP JUMPDEST PUSH2 0x9FB JUMP JUMPDEST SWAP2 POP DUP1 DUP1 PUSH1 0x1 ADD SWAP2 POP POP PUSH2 0x368 JUMP JUMPDEST POP PUSH2 0x45C DUP2 DUP4 PUSH1 0x80 ADD MLOAD PUSH0 DUP2 MLOAD DUP2 LT PUSH2 0x44F JUMPI PUSH2 0x44E PUSH2 0x1510 JUMP JUMPDEST JUMPDEST PUSH1 0x20 MUL PUSH1 0x20 ADD ADD MLOAD PUSH2 0x9FB JUMP JUMPDEST SWAP1 POP PUSH2 0x490 PUSH2 0x46D DUP7 PUSH0 ADD MLOAD PUSH2 0xAF4 JUMP JUMPDEST DUP7 PUSH1 0x20 ADD MLOAD DUP5 PUSH0 ADD MLOAD DUP6 PUSH1 0x20 ADD MLOAD DUP6 DUP8 PUSH1 0x40 ADD MLOAD DUP12 PUSH1 0x40 ADD MLOAD DUP10 PUSH1 0x60 ADD MLOAD PUSH2 0xB92 JUMP JUMPDEST PUSH2 0x4A0 JUMPI PUSH1 0x1 SWAP4 POP POP POP POP PUSH2 0x4A7 JUMP JUMPDEST PUSH0 SWAP4 POP POP POP POP JUMPDEST SWAP3 SWAP2 POP POP JUMP JUMPDEST PUSH2 0x4B5 PUSH2 0x113E JUMP JUMPDEST PUSH1 0x40 MLOAD DUP1 PUSH1 0x40 ADD PUSH1 0x40 MSTORE DUP1 PUSH32 0x2D4D9AA7E302D9DF41749D5507949D05DBEA33FBB16C643B22F599A2BE6DF2E2 DUP2 MSTORE PUSH1 0x20 ADD PUSH32 0x14BEDD503C37CEB061D8EC60209FE345CE89830A19230301F076CAFF004D1926 DUP2 MSTORE POP DUP2 PUSH0 ADD DUP2 SWAP1 MSTORE POP PUSH1 0x40 MLOAD DUP1 PUSH1 0x40 ADD PUSH1 0x40 MSTORE DUP1 PUSH1 0x40 MLOAD DUP1 PUSH1 0x40 ADD PUSH1 0x40 MSTORE DUP1 PUSH32 0x967032FCBF776D1AFC985F88877F182D38480A653F2DECAA9794CBC3BF3060C DUP2 MSTORE PUSH1 0x20 ADD PUSH32 0xE187847AD4C798374D0D6732BF501847DD68BC0E071241E0213BC7FC13DB7AB DUP2 MSTORE POP DUP2 MSTORE PUSH1 0x20 ADD PUSH1 0x40 MLOAD DUP1 PUSH1 0x40 ADD PUSH1 0x40 MSTORE DUP1 PUSH32 0x304CFBD1E08A704A99F5E847D93F8C3CAAFDDEC46B7A0D379DA69A4D112346A7 DUP2 MSTORE PUSH1 0x20 ADD PUSH32 0x1739C1B1A457A8C7313123D24D2F9192F896B7C63EEA05A9D57F06547AD0CEC8 DUP2 MSTORE POP DUP2 MSTORE POP DUP2 PUSH1 0x20 ADD DUP2 SWAP1 MSTORE POP PUSH1 0x40 MLOAD DUP1 PUSH1 0x40 ADD PUSH1 0x40 MSTORE DUP1 PUSH1 0x40 MLOAD DUP1 PUSH1 0x40 ADD PUSH1 0x40 MSTORE DUP1 PUSH32 0x198E9393920D483A7260BFB731FB5D25F1AA493335A9E71297E485B7AEF312C2 DUP2 MSTORE PUSH1 0x20 ADD PUSH32 0x1800DEEF121F1E76426A00665E5C4479674322D4F75EDADD46DEBD5CD992F6ED DUP2 MSTORE POP DUP2 MSTORE PUSH1 0x20 ADD PUSH1 0x40 MLOAD DUP1 PUSH1 0x40 ADD PUSH1 0x40 MSTORE DUP1 PUSH32 0x90689D0585FF075EC9E99AD690C3395BC4B313370B38EF355ACDADCD122975B DUP2 MSTORE PUSH1 0x20 ADD PUSH32 0x12C85EA5DB8C6DEB4AAB71808DCB408FE3D1E7690C43D37B4CE6CC0166FA7DAA DUP2 MSTORE POP DUP2 MSTORE POP DUP2 PUSH1 0x40 ADD DUP2 SWAP1 MSTORE POP PUSH1 0x40 MLOAD DUP1 PUSH1 0x40 ADD PUSH1 0x40 MSTORE DUP1 PUSH1 0x40 MLOAD DUP1 PUSH1 0x40 ADD PUSH1 0x40 MSTORE DUP1 PUSH32 0x198E9393920D483A7260BFB731FB5D25F1AA493335A9E71297E485B7AEF312C2 DUP2 MSTORE PUSH1 0x20 ADD PUSH32 0x1800DEEF121F1E76426A00665E5C4479674322D4F75EDADD46DEBD5CD992F6ED DUP2 MSTORE POP DUP2 MSTORE PUSH1 0x20 ADD PUSH1 0x40 MLOAD DUP1 PUSH1 0x40 ADD PUSH1 0x40 MSTORE DUP1 PUSH32 0x90689D0585FF075EC9E99AD690C3395BC4B313370B38EF355ACDADCD122975B DUP2 MSTORE PUSH1 0x20 ADD PUSH32 0x12C85EA5DB8C6DEB4AAB71808DCB408FE3D1E7690C43D37B4CE6CC0166FA7DAA DUP2 MSTORE POP DUP2 MSTORE POP DUP2 PUSH1 0x60 ADD DUP2 SWAP1 MSTORE POP PUSH1 0x3 PUSH8 0xFFFFFFFFFFFFFFFF DUP2 GT ISZERO PUSH2 0x77B JUMPI PUSH2 0x77A PUSH2 0x126C JUMP JUMPDEST JUMPDEST PUSH1 0x40 MLOAD SWAP1 DUP1 DUP3 MSTORE DUP1 PUSH1 0x20 MUL PUSH1 0x20 ADD DUP3 ADD PUSH1 0x40 MSTORE DUP1 ISZERO PUSH2 0x7B4 JUMPI DUP2 PUSH1 0x20 ADD JUMPDEST PUSH2 0x7A1 PUSH2 0x1185 JUMP JUMPDEST DUP2 MSTORE PUSH1 0x20 ADD SWAP1 PUSH1 0x1 SWAP1 SUB SWAP1 DUP2 PUSH2 0x799 JUMPI SWAP1 POP JUMPDEST POP DUP2 PUSH1 0x80 ADD DUP2 SWAP1 MSTORE POP PUSH1 0x40 MLOAD DUP1 PUSH1 0x40 ADD PUSH1 0x40 MSTORE DUP1 PUSH32 0x20163E70C56F84F120DB0A5C8FDB675A5233D4474D7B7D5EA96B2E3C32D16FE DUP2 MSTORE PUSH1 0x20 ADD PUSH32 0x1E732ADBFB31F1FD6DEA615E4304AC3372BC61D274A353BD34318F3F9D75735D DUP2 MSTORE POP DUP2 PUSH1 0x80 ADD MLOAD PUSH0 DUP2 MLOAD DUP2 LT PUSH2 0x829 JUMPI PUSH2 0x828 PUSH2 0x1510 JUMP JUMPDEST JUMPDEST PUSH1 0x20 MUL PUSH1 0x20 ADD ADD DUP2 SWAP1 MSTORE POP PUSH1 0x40 MLOAD DUP1 PUSH1 0x40 ADD PUSH1 0x40 MSTORE DUP1 PUSH32 0x20BD1D187556A6D75FBB47EE23481EE36D1E8F81BF10043E5BFFC1CD8536E4C2 DUP2 MSTORE PUSH1 0x20 ADD PUSH32 0x266D8972AD53BBA47B7F1337379B3D03434BC442A49CBD9B910F44C7DD6F8D5 DUP2 MSTORE POP DUP2 PUSH1 0x80 ADD MLOAD PUSH1 0x1 DUP2 MLOAD DUP2 LT PUSH2 0x8A1 JUMPI PUSH2 0x8A0 PUSH2 0x1510 JUMP JUMPDEST JUMPDEST PUSH1 0x20 MUL PUSH1 0x20 ADD ADD DUP2 SWAP1 MSTORE POP PUSH1 0x40 MLOAD DUP1 PUSH1 0x40 ADD PUSH1 0x40 MSTORE DUP1 PUSH32 0x9BF9264AE6F2136A12436BC78419BF4428FB9516943A3DC8A298FE798D26E68 DUP2 MSTORE PUSH1 0x20 ADD PUSH32 0x1CBF01B537141584B3B4775016A4653F566EC617331E2AD44C10657EC8F91D97 DUP2 MSTORE POP DUP2 PUSH1 0x80 ADD MLOAD PUSH1 0x2 DUP2 MLOAD DUP2 LT PUSH2 0x919 JUMPI PUSH2 0x918 PUSH2 0x1510 JUMP JUMPDEST JUMPDEST PUSH1 0x20 MUL PUSH1 0x20 ADD ADD DUP2 SWAP1 MSTORE POP SWAP1 JUMP JUMPDEST PUSH2 0x92F PUSH2 0x1185 JUMP JUMPDEST PUSH2 0x937 PUSH2 0x119D JUMP JUMPDEST DUP4 PUSH0 ADD MLOAD DUP2 PUSH0 PUSH1 0x3 DUP2 LT PUSH2 0x94E JUMPI PUSH2 0x94D PUSH2 0x1510 JUMP JUMPDEST JUMPDEST PUSH1 0x20 MUL ADD DUP2 DUP2 MSTORE POP POP DUP4 PUSH1 0x20 ADD MLOAD DUP2 PUSH1 0x1 PUSH1 0x3 DUP2 LT PUSH2 0x970 JUMPI PUSH2 0x96F PUSH2 0x1510 JUMP JUMPDEST JUMPDEST PUSH1 0x20 MUL ADD DUP2 DUP2 MSTORE POP POP DUP3 DUP2 PUSH1 0x2 PUSH1 0x3 DUP2 LT PUSH2 0x98E JUMPI PUSH2 0x98D PUSH2 0x1510 JUMP JUMPDEST JUMPDEST PUSH1 0x20 MUL ADD DUP2 DUP2 MSTORE POP POP PUSH0 PUSH1 0x60 DUP4 PUSH1 0x80 DUP5 PUSH1 0x7 PUSH2 0x7D0 GAS SUB STATICCALL SWAP1 POP DUP1 PUSH0 DUP2 SUB PUSH2 0x9B2 JUMPI INVALID JUMPDEST POP DUP1 PUSH2 0x9F3 JUMPI PUSH1 0x40 MLOAD PUSH32 0x8C379A000000000000000000000000000000000000000000000000000000000 DUP2 MSTORE PUSH1 0x4 ADD PUSH2 0x9EA SWAP1 PUSH2 0x16C7 JUMP JUMPDEST PUSH1 0x40 MLOAD DUP1 SWAP2 SUB SWAP1 REVERT JUMPDEST POP POP SWAP3 SWAP2 POP POP JUMP JUMPDEST PUSH2 0xA03 PUSH2 0x1185 JUMP JUMPDEST PUSH2 0xA0B PUSH2 0x11BF JUMP JUMPDEST DUP4 PUSH0 ADD MLOAD DUP2 PUSH0 PUSH1 0x4 DUP2 LT PUSH2 0xA22 JUMPI PUSH2 0xA21 PUSH2 0x1510 JUMP JUMPDEST JUMPDEST PUSH1 0x20 MUL ADD DUP2 DUP2 MSTORE POP POP DUP4 PUSH1 0x20 ADD MLOAD DUP2 PUSH1 0x1 PUSH1 0x4 DUP2 LT PUSH2 0xA44 JUMPI PUSH2 0xA43 PUSH2 0x1510 JUMP JUMPDEST JUMPDEST PUSH1 0x20 MUL ADD DUP2 DUP2 MSTORE POP POP DUP3 PUSH0 ADD MLOAD DUP2 PUSH1 0x2 PUSH1 0x4 DUP2 LT PUSH2 0xA65 JUMPI PUSH2 0xA64 PUSH2 0x1510 JUMP JUMPDEST JUMPDEST PUSH1 0x20 MUL ADD DUP2 DUP2 MSTORE POP POP DUP3 PUSH1 0x20 ADD MLOAD DUP2 PUSH1 0x3 PUSH1 0x4 DUP2 LT PUSH2 0xA87 JUMPI PUSH2 0xA86 PUSH2 0x1510 JUMP JUMPDEST JUMPDEST PUSH1 0x20 MUL ADD DUP2 DUP2 MSTORE POP POP PUSH0 PUSH1 0x60 DUP4 PUSH1 0xC0 DUP5 PUSH1 0x6 PUSH2 0x7D0 GAS SUB STATICCALL SWAP1 POP DUP1 PUSH0 DUP2 SUB PUSH2 0xAAB JUMPI INVALID JUMPDEST POP DUP1 PUSH2 0xAEC JUMPI PUSH1 0x40 MLOAD PUSH32 0x8C379A000000000000000000000000000000000000000000000000000000000 DUP2 MSTORE PUSH1 0x4 ADD PUSH2 0xAE3 SWAP1 PUSH2 0x172F JUMP JUMPDEST PUSH1 0x40 MLOAD DUP1 SWAP2 SUB SWAP1 REVERT JUMPDEST POP POP SWAP3 SWAP2 POP POP JUMP JUMPDEST PUSH2 0xAFC PUSH2 0x1185 JUMP JUMPDEST PUSH0 PUSH32 0x30644E72E131A029B85045B68181585D97816A916871CA8D3C208C16D87CFD47 SWAP1 POP PUSH0 DUP4 PUSH0 ADD MLOAD EQ DUP1 ISZERO PUSH2 0xB35 JUMPI POP PUSH0 DUP4 PUSH1 0x20 ADD MLOAD EQ JUMPDEST ISZERO PUSH2 0xB57 JUMPI PUSH1 0x40 MLOAD DUP1 PUSH1 0x40 ADD PUSH1 0x40 MSTORE DUP1 PUSH0 DUP2 MSTORE PUSH1 0x20 ADD PUSH0 DUP2 MSTORE POP SWAP2 POP POP PUSH2 0xB8D JUMP JUMPDEST PUSH1 0x40 MLOAD DUP1 PUSH1 0x40 ADD PUSH1 0x40 MSTORE DUP1 DUP5 PUSH0 ADD MLOAD DUP2 MSTORE PUSH1 0x20 ADD DUP3 DUP6 PUSH1 0x20 ADD MLOAD PUSH2 0xB7B SWAP2 SWAP1 PUSH2 0x177A JUMP JUMPDEST DUP4 PUSH2 0xB86 SWAP2 SWAP1 PUSH2 0x17AA JUMP JUMPDEST DUP2 MSTORE POP SWAP2 POP POP JUMPDEST SWAP2 SWAP1 POP JUMP JUMPDEST PUSH0 PUSH0 PUSH1 0x4 PUSH8 0xFFFFFFFFFFFFFFFF DUP2 GT ISZERO PUSH2 0xBAF JUMPI PUSH2 0xBAE PUSH2 0x126C JUMP JUMPDEST JUMPDEST PUSH1 0x40 MLOAD SWAP1 DUP1 DUP3 MSTORE DUP1 PUSH1 0x20 MUL PUSH1 0x20 ADD DUP3 ADD PUSH1 0x40 MSTORE DUP1 ISZERO PUSH2 0xBE8 JUMPI DUP2 PUSH1 0x20 ADD JUMPDEST PUSH2 0xBD5 PUSH2 0x1185 JUMP JUMPDEST DUP2 MSTORE PUSH1 0x20 ADD SWAP1 PUSH1 0x1 SWAP1 SUB SWAP1 DUP2 PUSH2 0xBCD JUMPI SWAP1 POP JUMPDEST POP SWAP1 POP PUSH0 PUSH1 0x4 PUSH8 0xFFFFFFFFFFFFFFFF DUP2 GT ISZERO PUSH2 0xC07 JUMPI PUSH2 0xC06 PUSH2 0x126C JUMP JUMPDEST JUMPDEST PUSH1 0x40 MLOAD SWAP1 DUP1 DUP3 MSTORE DUP1 PUSH1 0x20 MUL PUSH1 0x20 ADD DUP3 ADD PUSH1 0x40 MSTORE DUP1 ISZERO PUSH2 0xC40 JUMPI DUP2 PUSH1 0x20 ADD JUMPDEST PUSH2 0xC2D PUSH2 0x11E1 JUMP JUMPDEST DUP2 MSTORE PUSH1 0x20 ADD SWAP1 PUSH1 0x1 SWAP1 SUB SWAP1 DUP2 PUSH2 0xC25 JUMPI SWAP1 POP JUMPDEST POP SWAP1 POP DUP11 DUP3 PUSH0 DUP2 MLOAD DUP2 LT PUSH2 0xC57 JUMPI PUSH2 0xC56 PUSH2 0x1510 JUMP JUMPDEST JUMPDEST PUSH1 0x20 MUL PUSH1 0x20 ADD ADD DUP2 SWAP1 MSTORE POP DUP9 DUP3 PUSH1 0x1 DUP2 MLOAD DUP2 LT PUSH2 0xC77 JUMPI PUSH2 0xC76 PUSH2 0x1510 JUMP JUMPDEST JUMPDEST PUSH1 0x20 MUL PUSH1 0x20 ADD ADD DUP2 SWAP1 MSTORE POP DUP7 DUP3 PUSH1 0x2 DUP2 MLOAD DUP2 LT PUSH2 0xC97 JUMPI PUSH2 0xC96 PUSH2 0x1510 JUMP JUMPDEST JUMPDEST PUSH1 0x20 MUL PUSH1 0x20 ADD ADD DUP2 SWAP1 MSTORE POP DUP5 DUP3 PUSH1 0x3 DUP2 MLOAD DUP2 LT PUSH2 0xCB7 JUMPI PUSH2 0xCB6 PUSH2 0x1510 JUMP JUMPDEST JUMPDEST PUSH1 0x20 MUL PUSH1 0x20 ADD ADD DUP2 SWAP1 MSTORE POP DUP10 DUP2 PUSH0 DUP2 MLOAD DUP2 LT PUSH2 0xCD6 JUMPI PUSH2 0xCD5 PUSH2 0x1510 JUMP JUMPDEST JUMPDEST PUSH1 0x20 MUL PUSH1 0x20 ADD ADD DUP2 SWAP1 MSTORE POP DUP8 DUP2 PUSH1 0x1 DUP2 MLOAD DUP2 LT PUSH2 0xCF6 JUMPI PUSH2 0xCF5 PUSH2 0x1510 JUMP JUMPDEST JUMPDEST PUSH1 0x20 MUL PUSH1 0x20 ADD ADD DUP2 SWAP1 MSTORE POP DUP6 DUP2 PUSH1 0x2 DUP2 MLOAD DUP2 LT PUSH2 0xD16 JUMPI PUSH2 0xD15 PUSH2 0x1510 JUMP JUMPDEST JUMPDEST PUSH1 0x20 MUL PUSH1 0x20 ADD ADD DUP2 SWAP1 MSTORE POP DUP4 DUP2 PUSH1 0x3 DUP2 MLOAD DUP2 LT PUSH2 0xD36 JUMPI PUSH2 0xD35 PUSH2 0x1510 JUMP JUMPDEST JUMPDEST PUSH1 0x20 MUL PUSH1 0x20 ADD ADD DUP2 SWAP1 MSTORE POP PUSH2 0xD4B DUP3 DUP3 PUSH2 0xD5B JUMP JUMPDEST SWAP3 POP POP POP SWAP9 SWAP8 POP POP POP POP POP POP POP POP JUMP JUMPDEST PUSH0 DUP2 MLOAD DUP4 MLOAD EQ PUSH2 0xDA0 JUMPI PUSH1 0x40 MLOAD PUSH32 0x8C379A000000000000000000000000000000000000000000000000000000000 DUP2 MSTORE PUSH1 0x4 ADD PUSH2 0xD97 SWAP1 PUSH2 0x1827 JUMP JUMPDEST PUSH1 0x40 MLOAD DUP1 SWAP2 SUB SWAP1 REVERT JUMPDEST PUSH0 DUP4 MLOAD SWAP1 POP PUSH0 PUSH1 0x6 DUP3 PUSH2 0xDB3 SWAP2 SWAP1 PUSH2 0x1845 JUMP JUMPDEST SWAP1 POP PUSH0 DUP2 PUSH8 0xFFFFFFFFFFFFFFFF DUP2 GT ISZERO PUSH2 0xDD0 JUMPI PUSH2 0xDCF PUSH2 0x126C JUMP JUMPDEST JUMPDEST PUSH1 0x40 MLOAD SWAP1 DUP1 DUP3 MSTORE DUP1 PUSH1 0x20 MUL PUSH1 0x20 ADD DUP3 ADD PUSH1 0x40 MSTORE DUP1 ISZERO PUSH2 0xDFE JUMPI DUP2 PUSH1 0x20 ADD PUSH1 0x20 DUP3 MUL DUP1 CALLDATASIZE DUP4 CALLDATACOPY DUP1 DUP3 ADD SWAP2 POP POP SWAP1 POP JUMPDEST POP SWAP1 POP PUSH0 PUSH0 SWAP1 POP JUMPDEST DUP4 DUP2 LT ISZERO PUSH2 0x1079 JUMPI DUP7 DUP2 DUP2 MLOAD DUP2 LT PUSH2 0xE21 JUMPI PUSH2 0xE20 PUSH2 0x1510 JUMP JUMPDEST JUMPDEST PUSH1 0x20 MUL PUSH1 0x20 ADD ADD MLOAD PUSH0 ADD MLOAD DUP3 PUSH0 PUSH1 0x6 DUP5 PUSH2 0xE3B SWAP2 SWAP1 PUSH2 0x1845 JUMP JUMPDEST PUSH2 0xE45 SWAP2 SWAP1 PUSH2 0x156A JUMP JUMPDEST DUP2 MLOAD DUP2 LT PUSH2 0xE56 JUMPI PUSH2 0xE55 PUSH2 0x1510 JUMP JUMPDEST JUMPDEST PUSH1 0x20 MUL PUSH1 0x20 ADD ADD DUP2 DUP2 MSTORE POP POP DUP7 DUP2 DUP2 MLOAD DUP2 LT PUSH2 0xE75 JUMPI PUSH2 0xE74 PUSH2 0x1510 JUMP JUMPDEST JUMPDEST PUSH1 0x20 MUL PUSH1 0x20 ADD ADD MLOAD PUSH1 0x20 ADD MLOAD DUP3 PUSH1 0x1 PUSH1 0x6 DUP5 PUSH2 0xE91 SWAP2 SWAP1 PUSH2 0x1845 JUMP JUMPDEST PUSH2 0xE9B SWAP2 SWAP1 PUSH2 0x156A JUMP JUMPDEST DUP2 MLOAD DUP2 LT PUSH2 0xEAC JUMPI PUSH2 0xEAB PUSH2 0x1510 JUMP JUMPDEST JUMPDEST PUSH1 0x20 MUL PUSH1 0x20 ADD ADD DUP2 DUP2 MSTORE POP POP DUP6 DUP2 DUP2 MLOAD DUP2 LT PUSH2 0xECB JUMPI PUSH2 0xECA PUSH2 0x1510 JUMP JUMPDEST JUMPDEST PUSH1 0x20 MUL PUSH1 0x20 ADD ADD MLOAD PUSH0 ADD MLOAD PUSH0 PUSH1 0x2 DUP2 LT PUSH2 0xEE8 JUMPI PUSH2 0xEE7 PUSH2 0x1510 JUMP JUMPDEST JUMPDEST PUSH1 0x20 MUL ADD MLOAD DUP3 PUSH1 0x2 PUSH1 0x6 DUP5 PUSH2 0xEFD SWAP2 SWAP1 PUSH2 0x1845 JUMP JUMPDEST PUSH2 0xF07 SWAP2 SWAP1 PUSH2 0x156A JUMP JUMPDEST DUP2 MLOAD DUP2 LT PUSH2 0xF18 JUMPI PUSH2 0xF17 PUSH2 0x1510 JUMP JUMPDEST JUMPDEST PUSH1 0x20 MUL PUSH1 0x20 ADD ADD DUP2 DUP2 MSTORE POP POP DUP6 DUP2 DUP2 MLOAD DUP2 LT PUSH2 0xF37 JUMPI PUSH2 0xF36 PUSH2 0x1510 JUMP JUMPDEST JUMPDEST PUSH1 0x20 MUL PUSH1 0x20 ADD ADD MLOAD PUSH0 ADD MLOAD PUSH1 0x1 PUSH1 0x2 DUP2 LT PUSH2 0xF55 JUMPI PUSH2 0xF54 PUSH2 0x1510 JUMP JUMPDEST JUMPDEST PUSH1 0x20 MUL ADD MLOAD DUP3 PUSH1 0x3 PUSH1 0x6 DUP5 PUSH2 0xF6A SWAP2 SWAP1 PUSH2 0x1845 JUMP JUMPDEST PUSH2 0xF74 SWAP2 SWAP1 PUSH2 0x156A JUMP JUMPDEST DUP2 MLOAD DUP2 LT PUSH2 0xF85 JUMPI PUSH2 0xF84 PUSH2 0x1510 JUMP JUMPDEST JUMPDEST PUSH1 0x20 MUL PUSH1 0x20 ADD ADD DUP2 DUP2 MSTORE POP POP DUP6 DUP2 DUP2 MLOAD DUP2 LT PUSH2 0xFA4 JUMPI PUSH2 0xFA3 PUSH2 0x1510 JUMP JUMPDEST JUMPDEST PUSH1 0x20 MUL PUSH1 0x20 ADD ADD MLOAD PUSH1 0x20 ADD MLOAD PUSH0 PUSH1 0x2 DUP2 LT PUSH2 0xFC2 JUMPI PUSH2 0xFC1 PUSH2 0x1510 JUMP JUMPDEST JUMPDEST PUSH1 0x20 MUL ADD MLOAD DUP3 PUSH1 0x4 PUSH1 0x6 DUP5 PUSH2 0xFD7 SWAP2 SWAP1 PUSH2 0x1845 JUMP JUMPDEST PUSH2 0xFE1 SWAP2 SWAP1 PUSH2 0x156A JUMP JUMPDEST DUP2 MLOAD DUP2 LT PUSH2 0xFF2 JUMPI PUSH2 0xFF1 PUSH2 0x1510 JUMP JUMPDEST JUMPDEST PUSH1 0x20 MUL PUSH1 0x20 ADD ADD DUP2 DUP2 MSTORE POP POP DUP6 DUP2 DUP2 MLOAD DUP2 LT PUSH2 0x1011 JUMPI PUSH2 0x1010 PUSH2 0x1510 JUMP JUMPDEST JUMPDEST PUSH1 0x20 MUL PUSH1 0x20 ADD ADD MLOAD PUSH1 0x20 ADD MLOAD PUSH1 0x1 PUSH1 0x2 DUP2 LT PUSH2 0x1030 JUMPI PUSH2 0x102F PUSH2 0x1510 JUMP JUMPDEST JUMPDEST PUSH1 0x20 MUL ADD MLOAD DUP3 PUSH1 0x5 PUSH1 0x6 DUP5 PUSH2 0x1045 SWAP2 SWAP1 PUSH2 0x1845 JUMP JUMPDEST PUSH2 0x104F SWAP2 SWAP1 PUSH2 0x156A JUMP JUMPDEST DUP2 MLOAD DUP2 LT PUSH2 0x1060 JUMPI PUSH2 0x105F PUSH2 0x1510 JUMP JUMPDEST JUMPDEST PUSH1 0x20 MUL PUSH1 0x20 ADD ADD DUP2 DUP2 MSTORE POP POP DUP1 DUP1 PUSH1 0x1 ADD SWAP2 POP POP PUSH2 0xE06 JUMP JUMPDEST POP PUSH2 0x1082 PUSH2 0x1207 JUMP JUMPDEST PUSH0 PUSH1 0x20 DUP3 PUSH1 0x20 DUP7 MUL PUSH1 0x20 DUP7 ADD PUSH1 0x8 PUSH2 0x7D0 GAS SUB STATICCALL SWAP1 POP DUP1 PUSH0 DUP2 SUB PUSH2 0x10A2 JUMPI INVALID JUMPDEST POP DUP1 PUSH2 0x10E3 JUMPI PUSH1 0x40 MLOAD PUSH32 0x8C379A000000000000000000000000000000000000000000000000000000000 DUP2 MSTORE PUSH1 0x4 ADD PUSH2 0x10DA SWAP1 PUSH2 0x18D0 JUMP JUMPDEST PUSH1 0x40 MLOAD DUP1 SWAP2 SUB SWAP1 REVERT JUMPDEST PUSH0 DUP3 PUSH0 PUSH1 0x1 DUP2 LT PUSH2 0x10F7 JUMPI PUSH2 0x10F6 PUSH2 0x1510 JUMP JUMPDEST JUMPDEST PUSH1 0x20 MUL ADD MLOAD EQ ISZERO SWAP6 POP POP POP POP POP POP SWAP3 SWAP2 POP POP JUMP JUMPDEST PUSH1 0x40 MLOAD DUP1 PUSH1 0x60 ADD PUSH1 0x40 MSTORE DUP1 PUSH2 0x111E PUSH2 0x1185 JUMP JUMPDEST DUP2 MSTORE PUSH1 0x20 ADD PUSH2 0x112B PUSH2 0x11E1 JUMP JUMPDEST DUP2 MSTORE PUSH1 0x20 ADD PUSH2 0x1138 PUSH2 0x1185 JUMP JUMPDEST DUP2 MSTORE POP SWAP1 JUMP JUMPDEST PUSH1 0x40 MLOAD DUP1 PUSH1 0xA0 ADD PUSH1 0x40 MSTORE DUP1 PUSH2 0x1151 PUSH2 0x1185 JUMP JUMPDEST DUP2 MSTORE PUSH1 0x20 ADD PUSH2 0x115E PUSH2 0x11E1 JUMP JUMPDEST DUP2 MSTORE PUSH1 0x20 ADD PUSH2 0x116B PUSH2 0x11E1 JUMP JUMPDEST DUP2 MSTORE PUSH1 0x20 ADD PUSH2 0x1178 PUSH2 0x11E1 JUMP JUMPDEST DUP2 MSTORE PUSH1 0x20 ADD PUSH1 0x60 DUP2 MSTORE POP SWAP1 JUMP JUMPDEST PUSH1 0x40 MLOAD DUP1 PUSH1 0x40 ADD PUSH1 0x40 MSTORE DUP1 PUSH0 DUP2 MSTORE PUSH1 0x20 ADD PUSH0 DUP2 MSTORE POP SWAP1 JUMP JUMPDEST PUSH1 0x40 MLOAD DUP1 PUSH1 0x60 ADD PUSH1 0x40 MSTORE DUP1 PUSH1 0x3 SWAP1 PUSH1 0x20 DUP3 MUL DUP1 CALLDATASIZE DUP4 CALLDATACOPY DUP1 DUP3 ADD SWAP2 POP POP SWAP1 POP POP SWAP1 JUMP JUMPDEST PUSH1 0x40 MLOAD DUP1 PUSH1 0x80 ADD PUSH1 0x40 MSTORE DUP1 PUSH1 0x4 SWAP1 PUSH1 0x20 DUP3 MUL DUP1 CALLDATASIZE DUP4 CALLDATACOPY DUP1 DUP3 ADD SWAP2 POP POP SWAP1 POP POP SWAP1 JUMP JUMPDEST PUSH1 0x40 MLOAD DUP1 PUSH1 0x40 ADD PUSH1 0x40 MSTORE DUP1 PUSH2 0x11F4 PUSH2 0x1229 JUMP JUMPDEST DUP2 MSTORE PUSH1 0x20 ADD PUSH2 0x1201 PUSH2 0x1229 JUMP JUMPDEST DUP2 MSTORE POP SWAP1 JUMP JUMPDEST PUSH1 0x40 MLOAD DUP1 PUSH1 0x20 ADD PUSH1 0x40 MSTORE DUP1 PUSH1 0x1 SWAP1 PUSH1 0x20 DUP3 MUL DUP1 CALLDATASIZE DUP4 CALLDATACOPY DUP1 DUP3 ADD SWAP2 POP POP SWAP1 POP POP SWAP1 JUMP JUMPDEST PUSH1 0x40 MLOAD DUP1 PUSH1 0x40 ADD PUSH1 0x40 MSTORE DUP1 PUSH1 0x2 SWAP1 PUSH1 0x20 DUP3 MUL DUP1 CALLDATASIZE DUP4 CALLDATACOPY DUP1 DUP3 ADD SWAP2 POP POP SWAP1 POP POP SWAP1 JUMP JUMPDEST PUSH0 PUSH1 0x40 MLOAD SWAP1 POP SWAP1 JUMP JUMPDEST PUSH0 PUSH0 REVERT JUMPDEST PUSH0 PUSH0 REVERT JUMPDEST PUSH0 PUSH1 0x1F NOT PUSH1 0x1F DUP4 ADD AND SWAP1 POP SWAP2 SWAP1 POP JUMP JUMPDEST PUSH32 0x4E487B7100000000000000000000000000000000000000000000000000000000 PUSH0 MSTORE PUSH1 0x41 PUSH1 0x4 MSTORE PUSH1 0x24 PUSH0 REVERT JUMPDEST PUSH2 0x12A2 DUP3 PUSH2 0x125C JUMP JUMPDEST DUP2 ADD DUP2 DUP2 LT PUSH8 0xFFFFFFFFFFFFFFFF DUP3 GT OR ISZERO PUSH2 0x12C1 JUMPI PUSH2 0x12C0 PUSH2 0x126C JUMP JUMPDEST JUMPDEST DUP1 PUSH1 0x40 MSTORE POP POP POP JUMP JUMPDEST PUSH0 PUSH2 0x12D3 PUSH2 0x124B JUMP JUMPDEST SWAP1 POP PUSH2 0x12DF DUP3 DUP3 PUSH2 0x1299 JUMP JUMPDEST SWAP2 SWAP1 POP JUMP JUMPDEST PUSH0 PUSH8 0xFFFFFFFFFFFFFFFF DUP3 GT ISZERO PUSH2 0x12FE JUMPI PUSH2 0x12FD PUSH2 0x126C JUMP JUMPDEST JUMPDEST PUSH1 0x20 DUP3 MUL SWAP1 POP SWAP2 SWAP1 POP JUMP JUMPDEST PUSH0 PUSH0 REVERT JUMPDEST PUSH0 DUP2 SWAP1 POP SWAP2 SWAP1 POP JUMP JUMPDEST PUSH2 0x131F DUP2 PUSH2 0x130D JUMP JUMPDEST DUP2 EQ PUSH2 0x1329 JUMPI PUSH0 PUSH0 REVERT JUMPDEST POP JUMP JUMPDEST PUSH0 DUP2 CALLDATALOAD SWAP1 POP PUSH2 0x133A DUP2 PUSH2 0x1316 JUMP JUMPDEST SWAP3 SWAP2 POP POP JUMP JUMPDEST PUSH0 PUSH2 0x1352 PUSH2 0x134D DUP5 PUSH2 0x12E4 JUMP JUMPDEST PUSH2 0x12CA JUMP JUMPDEST SWAP1 POP DUP1 PUSH1 0x20 DUP5 MUL DUP4 ADD DUP6 DUP2 GT ISZERO PUSH2 0x136C JUMPI PUSH2 0x136B PUSH2 0x1309 JUMP JUMPDEST JUMPDEST DUP4 JUMPDEST DUP2 DUP2 LT ISZERO PUSH2 0x1395 JUMPI DUP1 PUSH2 0x1381 DUP9 DUP3 PUSH2 0x132C JUMP JUMPDEST DUP5 MSTORE PUSH1 0x20 DUP5 ADD SWAP4 POP POP PUSH1 0x20 DUP2 ADD SWAP1 POP PUSH2 0x136E JUMP JUMPDEST POP POP POP SWAP4 SWAP3 POP POP POP JUMP JUMPDEST PUSH0 DUP3 PUSH1 0x1F DUP4 ADD SLT PUSH2 0x13B3 JUMPI PUSH2 0x13B2 PUSH2 0x1258 JUMP JUMPDEST JUMPDEST PUSH1 0x2 PUSH2 0x13C0 DUP5 DUP3 DUP6 PUSH2 0x1340 JUMP JUMPDEST SWAP2 POP POP SWAP3 SWAP2 POP POP JUMP JUMPDEST PUSH0 PUSH8 0xFFFFFFFFFFFFFFFF DUP3 GT ISZERO PUSH2 0x13E3 JUMPI PUSH2 0x13E2 PUSH2 0x126C JUMP JUMPDEST JUMPDEST PUSH1 0x20 DUP3 MUL SWAP1 POP SWAP2 SWAP1 POP JUMP JUMPDEST PUSH0 PUSH2 0x1400 PUSH2 0x13FB DUP5 PUSH2 0x13C9 JUMP JUMPDEST PUSH2 0x12CA JUMP JUMPDEST SWAP1 POP DUP1 PUSH1 0x40 DUP5 MUL DUP4 ADD DUP6 DUP2 GT ISZERO PUSH2 0x141A JUMPI PUSH2 0x1419 PUSH2 0x1309 JUMP JUMPDEST JUMPDEST DUP4 JUMPDEST DUP2 DUP2 LT ISZERO PUSH2 0x1443 JUMPI DUP1 PUSH2 0x142F DUP9 DUP3 PUSH2 0x139F JUMP JUMPDEST DUP5 MSTORE PUSH1 0x20 DUP5 ADD SWAP4 POP POP PUSH1 0x40 DUP2 ADD SWAP1 POP PUSH2 0x141C JUMP JUMPDEST POP POP POP SWAP4 SWAP3 POP POP POP JUMP JUMPDEST PUSH0 DUP3 PUSH1 0x1F DUP4 ADD SLT PUSH2 0x1461 JUMPI PUSH2 0x1460 PUSH2 0x1258 JUMP JUMPDEST JUMPDEST PUSH1 0x2 PUSH2 0x146E DUP5 DUP3 DUP6 PUSH2 0x13EE JUMP JUMPDEST SWAP2 POP POP SWAP3 SWAP2 POP POP JUMP JUMPDEST PUSH0 PUSH0 PUSH0 PUSH0 PUSH2 0x140 DUP6 DUP8 SUB SLT ISZERO PUSH2 0x1490 JUMPI PUSH2 0x148F PUSH2 0x1254 JUMP JUMPDEST JUMPDEST PUSH0 PUSH2 0x149D DUP8 DUP3 DUP9 ADD PUSH2 0x139F JUMP JUMPDEST SWAP5 POP POP PUSH1 0x40 PUSH2 0x14AE DUP8 DUP3 DUP9 ADD PUSH2 0x144D JUMP JUMPDEST SWAP4 POP POP PUSH1 0xC0 PUSH2 0x14BF DUP8 DUP3 DUP9 ADD PUSH2 0x139F JUMP JUMPDEST SWAP3 POP POP PUSH2 0x100 PUSH2 0x14D1 DUP8 DUP3 DUP9 ADD PUSH2 0x139F JUMP JUMPDEST SWAP2 POP POP SWAP3 SWAP6 SWAP2 SWAP5 POP SWAP3 POP JUMP JUMPDEST PUSH0 DUP2 ISZERO ISZERO SWAP1 POP SWAP2 SWAP1 POP JUMP JUMPDEST PUSH2 0x14F1 DUP2 PUSH2 0x14DD JUMP JUMPDEST DUP3 MSTORE POP POP JUMP JUMPDEST PUSH0 PUSH1 0x20 DUP3 ADD SWAP1 POP PUSH2 0x150A PUSH0 DUP4 ADD DUP5 PUSH2 0x14E8 JUMP JUMPDEST SWAP3 SWAP2 POP POP JUMP JUMPDEST PUSH32 0x4E487B7100000000000000000000000000000000000000000000000000000000 PUSH0 MSTORE PUSH1 0x32 PUSH1 0x4 MSTORE PUSH1 0x24 PUSH0 REVERT JUMPDEST PUSH32 0x4E487B7100000000000000000000000000000000000000000000000000000000 PUSH0 MSTORE PUSH1 0x11 PUSH1 0x4 MSTORE PUSH1 0x24 PUSH0 REVERT JUMPDEST PUSH0 PUSH2 0x1574 DUP3 PUSH2 0x130D JUMP JUMPDEST SWAP2 POP PUSH2 0x157F DUP4 PUSH2 0x130D JUMP JUMPDEST SWAP3 POP DUP3 DUP3 ADD SWAP1 POP DUP1 DUP3 GT ISZERO PUSH2 0x1597 JUMPI PUSH2 0x1596 PUSH2 0x153D JUMP JUMPDEST JUMPDEST SWAP3 SWAP2 POP POP JUMP JUMPDEST PUSH0 DUP3 DUP3 MSTORE PUSH1 0x20 DUP3 ADD SWAP1 POP SWAP3 SWAP2 POP POP JUMP JUMPDEST PUSH32 0x76657269666965722D6261642D696E7075740000000000000000000000000000 PUSH0 DUP3 ADD MSTORE POP JUMP JUMPDEST PUSH0 PUSH2 0x15E1 PUSH1 0x12 DUP4 PUSH2 0x159D JUMP JUMPDEST SWAP2 POP PUSH2 0x15EC DUP3 PUSH2 0x15AD JUMP JUMPDEST PUSH1 0x20 DUP3 ADD SWAP1 POP SWAP2 SWAP1 POP JUMP JUMPDEST PUSH0 PUSH1 0x20 DUP3 ADD SWAP1 POP DUP2 DUP2 SUB PUSH0 DUP4 ADD MSTORE PUSH2 0x160E DUP2 PUSH2 0x15D5 JUMP JUMPDEST SWAP1 POP SWAP2 SWAP1 POP JUMP JUMPDEST PUSH32 0x76657269666965722D6774652D736E61726B2D7363616C61722D6669656C6400 PUSH0 DUP3 ADD MSTORE POP JUMP JUMPDEST PUSH0 PUSH2 0x1649 PUSH1 0x1F DUP4 PUSH2 0x159D JUMP JUMPDEST SWAP2 POP PUSH2 0x1654 DUP3 PUSH2 0x1615 JUMP JUMPDEST PUSH1 0x20 DUP3 ADD SWAP1 POP SWAP2 SWAP1 POP JUMP JUMPDEST PUSH0 PUSH1 0x20 DUP3 ADD SWAP1 POP DUP2 DUP2 SUB PUSH0 DUP4 ADD MSTORE PUSH2 0x1676 DUP2 PUSH2 0x163D JUMP JUMPDEST SWAP1 POP SWAP2 SWAP1 POP JUMP JUMPDEST PUSH32 0x70616972696E672D6D756C2D6661696C65640000000000000000000000000000 PUSH0 DUP3 ADD MSTORE POP JUMP JUMPDEST PUSH0 PUSH2 0x16B1 PUSH1 0x12 DUP4 PUSH2 0x159D JUMP JUMPDEST SWAP2 POP PUSH2 0x16BC DUP3 PUSH2 0x167D JUMP JUMPDEST PUSH1 0x20 DUP3 ADD SWAP1 POP SWAP2 SWAP1 POP JUMP JUMPDEST PUSH0 PUSH1 0x20 DUP3 ADD SWAP1 POP DUP2 DUP2 SUB PUSH0 DUP4 ADD MSTORE PUSH2 0x16DE DUP2 PUSH2 0x16A5 JUMP JUMPDEST SWAP1 POP SWAP2 SWAP1 POP JUMP JUMPDEST PUSH32 0x70616972696E672D6164642D6661696C65640000000000000000000000000000 PUSH0 DUP3 ADD MSTORE POP JUMP JUMPDEST PUSH0 PUSH2 0x1719 PUSH1 0x12 DUP4 PUSH2 0x159D JUMP JUMPDEST SWAP2 POP PUSH2 0x1724 DUP3 PUSH2 0x16E5 JUMP JUMPDEST PUSH1 0x20 DUP3 ADD SWAP1 POP SWAP2 SWAP1 POP JUMP JUMPDEST PUSH0 PUSH1 0x20 DUP3 ADD SWAP1 POP DUP2 DUP2 SUB PUSH0 DUP4 ADD MSTORE PUSH2 0x1746 DUP2 PUSH2 0x170D JUMP JUMPDEST SWAP1 POP SWAP2 SWAP1 POP JUMP JUMPDEST PUSH32 0x4E487B7100000000000000000000000000000000000000000000000000000000 PUSH0 MSTORE PUSH1 0x12 PUSH1 0x4 MSTORE PUSH1 0x24 PUSH0 REVERT JUMPDEST PUSH0 PUSH2 0x1784 DUP3 PUSH2 0x130D JUMP JUMPDEST SWAP2 POP PUSH2 0x178F DUP4 PUSH2 0x130D JUMP JUMPDEST SWAP3 POP DUP3 PUSH2 0x179F JUMPI PUSH2 0x179E PUSH2 0x174D JUMP JUMPDEST JUMPDEST DUP3 DUP3 MOD SWAP1 POP SWAP3 SWAP2 POP POP JUMP JUMPDEST PUSH0 PUSH2 0x17B4 DUP3 PUSH2 0x130D JUMP JUMPDEST SWAP2 POP PUSH2 0x17BF DUP4 PUSH2 0x130D JUMP JUMPDEST SWAP3 POP DUP3 DUP3 SUB SWAP1 POP DUP2 DUP2 GT ISZERO PUSH2 0x17D7 JUMPI PUSH2 0x17D6 PUSH2 0x153D JUMP JUMPDEST JUMPDEST SWAP3 SWAP2 POP POP JUMP JUMPDEST PUSH32 0x70616972696E672D6C656E677468732D6661696C656400000000000000000000 PUSH0 DUP3 ADD MSTORE POP JUMP JUMPDEST PUSH0 PUSH2 0x1811 PUSH1 0x16 DUP4 PUSH2 0x159D JUMP JUMPDEST SWAP2 POP PUSH2 0x181C DUP3 PUSH2 0x17DD JUMP JUMPDEST PUSH1 0x20 DUP3 ADD SWAP1 POP SWAP2 SWAP1 POP JUMP JUMPDEST PUSH0 PUSH1 0x20 DUP3 ADD SWAP1 POP DUP2 DUP2 SUB PUSH0 DUP4 ADD MSTORE PUSH2 0x183E DUP2 PUSH2 0x1805 JUMP JUMPDEST SWAP1 POP SWAP2 SWAP1 POP JUMP JUMPDEST PUSH0 PUSH2 0x184F DUP3 PUSH2 0x130D JUMP JUMPDEST SWAP2 POP PUSH2 0x185A DUP4 PUSH2 0x130D JUMP JUMPDEST SWAP3 POP DUP3 DUP3 MUL PUSH2 0x1868 DUP2 PUSH2 0x130D JUMP JUMPDEST SWAP2 POP DUP3 DUP3 DIV DUP5 EQ DUP4 ISZERO OR PUSH2 0x187F JUMPI PUSH2 0x187E PUSH2 0x153D JUMP JUMPDEST JUMPDEST POP SWAP3 SWAP2 POP POP JUMP JUMPDEST PUSH32 0x70616972696E672D6F70636F64652D6661696C65640000000000000000000000 PUSH0 DUP3 ADD MSTORE POP JUMP JUMPDEST PUSH0 PUSH2 0x18BA PUSH1 0x15 DUP4 PUSH2 0x159D JUMP JUMPDEST SWAP2 POP PUSH2 0x18C5 DUP3 PUSH2 0x1886 JUMP JUMPDEST PUSH1 0x20 DUP3 ADD SWAP1 POP SWAP2 SWAP1 POP JUMP JUMPDEST PUSH0 PUSH1 0x20 DUP3 ADD SWAP1 POP DUP2 DUP2 SUB PUSH0 DUP4 ADD MSTORE PUSH2 0x18E7 DUP2 PUSH2 0x18AE JUMP JUMPDEST SWAP1 POP SWAP2 SWAP1 POP JUMP INVALID LOG2 PUSH5 0x6970667358 0x22 SLT KECCAK256 0xD5 PUSH10 0xAB945CEE084F1F262A2F DUP10 RETURNDATACOPY PUSH2 0xAF91 CREATE2 GASPRICE DUP16 MSTORE 0xB7 ISZERO SELFBALANCE MLOAD SLT 0xDC 0xDC LOG2 0xEA 0xB2 0xD4 PUSH5 0x736F6C6343 STOP ADDMOD SHL STOP CALLER "
				},
				"gasEstimates": {
					"creation": {
						"codeDepositCost": "1287200",
						"executionCost": "1340",
						"totalCost": "1288540"
					},
					"external": {
						"verifyProof(uint256[2],uint256[2][2],uint256[2],uint256[2])": "infinite"
					},
					"internal": {
						"verify(uint256[] memory,struct Verifier.Proof memory)": "infinite",
						"verifyingKey()": "infinite"
					}
				},
				"methodIdentifiers": {
					"verifyProof(uint256[2],uint256[2][2],uint256[2],uint256[2])": "f5c9d69e"
				}
			},
			"storageLayout": {
				"storage": [],
				"types": null
			},
			"userdoc": {
				"kind": "user",
				"methods": {},
				"version": 1
			}
		}
	}
}