{
	"data": {
		"bytecode": {
			"linkReferences": {},
			"object": "60c06040525f60035f6101000a81548163ffffffff021916908363ffffffff1602179055505f600360046101000a81548163ffffffff021916908363ffffffff160217905550348015610050575f5ffd5b5060405161462b38038061462b83398181016040528101906100729190610aeb565b86868682825f8263ffffffff16116100bf576040517f08c379a00000000000000000000000000000000000000000000000000000000081526004016100b690610c08565b60405180910390fd5b60208263ffffffff1610610108576040517f08c379a00000000000000000000000000000000000000000000000000000000081526004016100ff90610c70565b60405180910390fd5b815f5f6101000a81548163ffffffff021916908363ffffffff1602179055508073ffffffffffffffffffffffffffffffffffffffff1660808173ffffffffffffffffffffffffffffffffffffffff16815250505f5f90505b8263ffffffff168163ffffffff1610156101b1576101898163ffffffff1661035760201b60201c565b60015f8363ffffffff1681526020019081526020015f20819055508080600101915050610160565b506101d36001836101c29190610cbb565b63ffffffff1661035760201b60201c565b60025f5f81526020019081526020015f208190555050508073ffffffffffffffffffffffffffffffffffffffff1660a08173ffffffffffffffffffffffffffffffffffffffff1681525050505050828410610263576040517f08c379a000000000000000000000000000000000000000000000000000000000815260040161025a90610d62565b60405180910390fd5b8082106102a5576040517f08c379a000000000000000000000000000000000000000000000000000000000815260040161029c90610df0565b60405180910390fd5b818311156102e8576040517f08c379a00000000000000000000000000000000000000000000000000000000081526004016102df90610e7e565b60405180910390fd5b3360065f6101000a81548173ffffffffffffffffffffffffffffffffffffffff021916908373ffffffffffffffffffffffffffffffffffffffff1602179055505f60098190555083600b8190555082600c8190555081600d8190555080600e8190555050505050505050610f04565b5f5f8203610389577f2fe54c60d3acabf3343a35b6eba15db4821b340f76e741e2249685ed4899af6c5f1b90506109d0565b600182036103bb577f256a6135777eee2fd26f54b8b7037a25439d5235caee224154186d2b8a52e31d5f1b90506109d0565b600282036103ed577f1151949895e82ab19924de92c40a3d6f7bcb60d92b00504b8199613683f0c2005f1b90506109d0565b6003820361041f577f20121ee811489ff8d61f09fb89e313f14959a0f28bb428a20dba6b0b068b3bdb5f1b90506109d0565b60048203610451577f0a89ca6ffa14cc462cfedb842c30ed221a50a3d6bf022a6a57dc82ab24c157c95f1b90506109d0565b60058203610483577f24ca05c2b5cd42e890d6be94c68d0689f4f21c9cec9c0f13fe41d566dfb549595f1b90506109d0565b600682036104b5577f1ccb97c932565a92c60156bdba2d08f3bf1377464e025cee765679e604a7315c5f1b90506109d0565b600782036104e7577f19156fbd7d1a8bf5cba8909367de1b624534ebab4f0f79e003bccdd1b182bdb45f1b90506109d0565b60088203610519577f261af8c1f0912e465744641409f622d466c3920ac6e5ff37e36604cb11dfff805f1b90506109d0565b6009820361054a577e58459724ff6ca5a1652fcbc3e82b93895cf08e975b19beab3f54c217d1c0075f1b90506109d0565b600a820361057c577f1f04ef20dee48d39984d8eabe768a70eafa6310ad20849d4573c3c40c2ad1e305f1b90506109d0565b600b82036105ae577f1bea3dec5dab51567ce7e200a30f7ba6d4276aeaa53e2686f962a46c66d511e55f1b90506109d0565b600c82036105e0577f0ee0f941e2da4b9e31c3ca97a40d8fa9ce68d97c084177071b3cb46cd3372f0f5f1b90506109d0565b600d8203610612577f1ca9503e8935884501bbaf20be14eb4c46b89772c97b96e3b2ebf3a36a948bbd5f1b90506109d0565b600e8203610644577f133a80e30697cd55d8f7d4b0965b7be24057ba5dc3da898ee2187232446cb1085f1b90506109d0565b600f8203610676577f13e6d8fc88839ed76e182c2a779af5b2c0da9dd18c90427a644f7e148a6253b65f1b90506109d0565b601082036106a8577f1eb16b057a477f4bc8f572ea6bee39561098f78f15bfb3699dcbb7bd8db618545f1b90506109d0565b601182036106da577f0da2cb16a1ceaabf1c16b838f7a9e3f2a3a3088d9e0a6debaa748114620696ea5f1b90506109d0565b6012820361070c577f24a3b3d822420b14b5d8cb6c28a574f01e98ea9e940551d2ebd75cee12649f9d5f1b90506109d0565b6013820361073e577f198622acbd783d1b0d9064105b1fc8e4d8889de95c4c519b3f635809fe6afc055f1b90506109d0565b60148203610770577f29d7ed391256ccc3ea596c86e933b89ff339d25ea8ddced975ae2fe30b5296d45f1b90506109d0565b601582036107a2577f19be59f2f0413ce78c0c3703a3a5451b1d7f39629fa33abd11548a76065b29675f1b90506109d0565b601682036107d4577f1ff3f61797e538b70e619310d33f2a063e7eb59104e112e95738da1254dc34535f1b90506109d0565b60178203610806577f10c16ae9959cf8358980d9dd9616e48228737310a10e2b6b731c1a548f036c485f1b90506109d0565b60188203610838577f0ba433a63174a90ac20992e75e3095496812b652685b5e1a2eae0b1bf4e8fcd15f1b90506109d0565b6019820361086a577f019ddb9df2bc98d987d0dfeca9d2b643deafab8f7036562e627c3667266a044c5f1b90506109d0565b601a820361089c577f2d3c88b23175c5a5565db928414c66d1912b11acf974b2e644caaac04739ce995f1b90506109d0565b601b82036108ce577f2eab55f6ae4e66e32c5189eed5c470840863445760f5ed7e7b69b2a62600f3545f1b90506109d0565b601c82036108ff577e2df37a2642621802383cf952bf4dd1f32e05433beeb1fd41031fb7eace979d5f1b90506109d0565b601d8203610931577f104aeb41435db66c3e62feccc1d6f5d98d0a0ed75d1374db457cf462e3a1f4275f1b90506109d0565b601e8203610963577f1f3c6fd858e9a7d4b0d1f38e256a09d81d5a5e3c963987e2d4b814cfab7c6ebb5f1b90506109d0565b601f8203610995577f2c7a07d20dff79d01fecedc1134284a8d08436606c93693b67e333f671bf69cc5f1b90506109d0565b6040517f08c379a00000000000000000000000000000000000000000000000000000000081526004016109c790610ee6565b60405180910390fd5b919050565b5f5ffd5b5f63ffffffff82169050919050565b6109f1816109d9565b81146109fb575f5ffd5b50565b5f81519050610a0c816109e8565b92915050565b5f73ffffffffffffffffffffffffffffffffffffffff82169050919050565b5f610a3b82610a12565b9050919050565b5f610a4c82610a31565b9050919050565b610a5c81610a42565b8114610a66575f5ffd5b50565b5f81519050610a7781610a53565b92915050565b5f610a8782610a31565b9050919050565b610a9781610a7d565b8114610aa1575f5ffd5b50565b5f81519050610ab281610a8e565b92915050565b5f819050919050565b610aca81610ab8565b8114610ad4575f5ffd5b50565b5f81519050610ae581610ac1565b92915050565b5f5f5f5f5f5f5f60e0888a031215610b0657610b056109d5565b5b5f610b138a828b016109fe565b9750506020610b248a828b01610a69565b9650506040610b358a828b01610aa4565b9550506060610b468a828b01610ad7565b9450506080610b578a828b01610ad7565b93505060a0610b688a828b01610ad7565b92505060c0610b798a828b01610ad7565b91505092959891949750929550565b5f82825260208201905092915050565b7f5f6c6576656c732073686f756c642062652067726561746572207468616e207a5f8201527f65726f0000000000000000000000000000000000000000000000000000000000602082015250565b5f610bf2602383610b88565b9150610bfd82610b98565b604082019050919050565b5f6020820190508181035f830152610c1f81610be6565b9050919050565b7f5f6c6576656c732073686f756c64206265206c657373207468616e20333200005f82015250565b5f610c5a601e83610b88565b9150610c6582610c26565b602082019050919050565b5f6020820190508181035f830152610c8781610c4e565b9050919050565b7f4e487b71000000000000000000000000000000000000000000000000000000005f52601160045260245ffd5b5f610cc5826109d9565b9150610cd0836109d9565b9250828203905063ffffffff811115610cec57610ceb610c8e565b5b92915050565b7f526567697374726174696f6e207374617274206d757374206265206265666f725f8201527f6520656e642074696d6500000000000000000000000000000000000000000000602082015250565b5f610d4c602a83610b88565b9150610d5782610cf2565b604082019050919050565b5f6020820190508181035f830152610d7981610d40565b9050919050565b7f566f74696e67207374617274206d757374206265206265666f726520656e64205f8201527f74696d6500000000000000000000000000000000000000000000000000000000602082015250565b5f610dda602483610b88565b9150610de582610d80565b604082019050919050565b5f6020820190508181035f830152610e0781610dce565b9050919050565b7f526567697374726174696f6e206d75737420656e64206265666f726520766f745f8201527f696e672073746172747300000000000000000000000000000000000000000000602082015250565b5f610e68602a83610b88565b9150610e7382610e0e565b604082019050919050565b5f6020820190508181035f830152610e9581610e5c565b9050919050565b7f496e646578206f7574206f6620626f756e6473000000000000000000000000005f82015250565b5f610ed0601383610b88565b9150610edb82610e9c565b602082019050919050565b5f6020820190508181035f830152610efd81610ec4565b9050919050565b60805160a0516136f1610f3a5f395f81816108ca0152611dfa01525f8181610d9701528181610e6e0152611d0501526136f15ff3fe608060405234801561000f575f5ffd5b5060043610610225575f3560e01c8063893d20e81161012e578063c1b1f732116100b6578063e82955881161007a578063e8295588146106a6578063ec732959146106d6578063ed33639f146106f4578063f178e47c14610712578063fc7e9c6f1461074257610225565b8063c1b1f732146105dc578063c2b40ae41461060c578063cd87a3b41461063c578063ce8f63771461065a578063d290a3cf1461067657610225565b8063955e0377116100fd578063955e037714610536578063a15a36c714610566578063b4062a3114610582578063b7ab4db5146105a0578063ba70f757146105be57610225565b8063893d20e8146104c05780638bb2fb75146104de5780638da5cb5b146104fa57806390eeb02b1461051857610225565b8063462e91ec116101b15780636d3cba61116101805780636d3cba61146103f65780636d9833e31461042657806378b9ac2514610456578063839df9451461047257806385a38635146104a257610225565b8063462e91ec1461036e5780634ecf518b1461038a5780635216509a146103a85780635bb93995146103c657610225565b80632b7ac3f3116101f85780632b7ac3f3146102b15780632e6997fe146102cf57806332bcce08146102ee5780633477ee2e1461031e578063414a37ba1461035057610225565b8063101158af1461022957806313446a75146102475780631e620cd4146102655780632997e86b14610281575b5f5ffd5b610231610760565b60405161023e9190611f8d565b60405180910390f35b61024f610766565b60405161025c9190611f8d565b60405180910390f35b61027f600480360381019061027a9190611fe1565b61076c565b005b61029b6004803603810190610296919061203f565b6108ab565b6040516102a89190612084565b60405180910390f35b6102b96108c8565b6040516102c69190612117565b60405180910390f35b6102d76108ec565b6040516102e592919061225b565b60405180910390f35b61030860048036038101906103039190611fe1565b610a24565b6040516103159190611f8d565b60405180910390f35b61033860048036038101906103339190611fe1565b610a39565b604051610347939291906122d1565b60405180910390f35b610358610af1565b6040516103659190611f8d565b60405180910390f35b61038860048036038101906103839190612439565b610b15565b005b610392610cae565b60405161039f919061249e565b60405180910390f35b6103b0610cc2565b6040516103bd9190611f8d565b60405180910390f35b6103e060048036038101906103db91906124b7565b610cc8565b6040516103ed9190612504565b60405180910390f35b610410600480360381019061040b9190611fe1565b610f1c565b60405161041d9190612084565b60405180910390f35b610440600480360381019061043b919061203f565b610f42565b60405161044d9190612084565b60405180910390f35b610470600480360381019061046b9190612558565b610fd5565b005b61048c6004803603810190610487919061203f565b6111a9565b6040516104999190612084565b60405180910390f35b6104aa6111c6565b6040516104b79190611f8d565b60405180910390f35b6104c86111cc565b6040516104d591906125b7565b60405180910390f35b6104f860048036038101906104f391906124b7565b6111f4565b005b6105026112d7565b60405161050f91906125b7565b60405180910390f35b6105206112fc565b60405161052d919061249e565b60405180910390f35b610550600480360381019061054b9190611fe1565b611311565b60405161055d9190611f8d565b60405180910390f35b610580600480360381019061057b91906124b7565b61132e565b005b61058a611411565b6040516105979190611f8d565b60405180910390f35b6105a8611417565b6040516105b59190612687565b60405180910390f35b6105c66114a2565b6040516105d39190612504565b60405180910390f35b6105f660048036038101906105f19190611fe1565b6114d1565b6040516106039190612084565b60405180910390f35b61062660048036038101906106219190611fe1565b6114ee565b6040516106339190612504565b60405180910390f35b610644611503565b604051610651919061249e565b60405180910390f35b610674600480360381019061066f9190612807565b611508565b005b610690600480360381019061068b9190611fe1565b611641565b60405161069d9190611f8d565b60405180910390f35b6106c060048036038101906106bb9190611fe1565b611661565b6040516106cd9190612504565b60405180910390f35b6106de611cdf565b6040516106eb9190611f8d565b60405180910390f35b6106fc611d03565b60405161070991906128b2565b60405180910390f35b61072c60048036038101906107279190611fe1565b611d27565b6040516107399190612504565b60405180910390f35b61074a611d3c565b604051610757919061249e565b60405180910390f35b600d5481565b600c5481565b60065f9054906101000a900473ffffffffffffffffffffffffffffffffffffffff1673ffffffffffffffffffffffffffffffffffffffff163373ffffffffffffffffffffffffffffffffffffffff16146107fb576040517f08c379a00000000000000000000000000000000000000000000000000000000081526004016107f29061293b565b60405180910390fd5b600954811061083f576040517f08c379a0000000000000000000000000000000000000000000000000000000008152600401610836906129a3565b60405180910390fd5b600a5f8281526020019081526020015f205f5f82015f61085f9190611f1d565b600182015f9055600282015f6101000a81549060ff02191690555050807f5768df5843e58ec5b2fc92eb6ef81241e9ec50a0b93fd074dec58b39efc4172060405160405180910390a250565b6004602052805f5260405f205f915054906101000a900460ff1681565b7f000000000000000000000000000000000000000000000000000000000000000081565b5f60605f60095467ffffffffffffffff81111561090c5761090b612315565b5b60405190808252806020026020018201604052801561093f57816020015b606081526020019060019003908161092a5790505b5090505f5f90505b600954811015610a1657600a5f8281526020019081526020015f205f01805461096f906129ee565b80601f016020809104026020016040519081016040528092919081815260200182805461099b906129ee565b80156109e65780601f106109bd576101008083540402835291602001916109e6565b820191905f5260205f20905b8154815290600101906020018083116109c957829003601f168201915b50505050508282815181106109fe576109fd612a1e565b5b60200260200101819052508080600101915050610947565b506009548192509250509091565b6008602052805f5260405f205f915090505481565b600a602052805f5260405f205f91509050805f018054610a58906129ee565b80601f0160208091040260200160405190810160405280929190818152602001828054610a84906129ee565b8015610acf5780601f10610aa657610100808354040283529160200191610acf565b820191905f5260205f20905b815481529060010190602001808311610ab257829003601f168201915b505050505090806001015490806002015f9054906101000a900460ff16905083565b7f30644e72e131a029b85045b68181585d2833e84879b9709143e1f593f000000181565b60065f9054906101000a900473ffffffffffffffffffffffffffffffffffffffff1673ffffffffffffffffffffffffffffffffffffffff163373ffffffffffffffffffffffffffffffffffffffff1614610ba4576040517f08c379a0000000000000000000000000000000000000000000000000000000008152600401610b9b9061293b565b60405180910390fd5b601481511115610be9576040517f08c379a0000000000000000000000000000000000000000000000000000000008152600401610be090612abb565b60405180910390fd5b60405180606001604052808281526020015f815260200160011515815250600a5f60095481526020019081526020015f205f820151815f019081610c2d9190612c70565b50602082015181600101556040820151816002015f6101000a81548160ff0219169083151502179055509050506009547fe83b2a43e7e82d975c8a0a6d2f045153c869e111136a34d1889ab7b598e396a382604051610c8c9190612d3f565b60405180910390a260095f815480929190610ca690612d8c565b919050555050565b5f5f9054906101000a900463ffffffff1681565b60095481565b5f7f30644e72e131a029b85045b68181585d2833e84879b9709143e1f593f00000018310610d2b576040517f08c379a0000000000000000000000000000000000000000000000000000000008152600401610d2290612e1d565b60405180910390fd5b7f30644e72e131a029b85045b68181585d2833e84879b9709143e1f593f00000018210610d8d576040517f08c379a0000000000000000000000000000000000000000000000000000000008152600401610d8490612eab565b60405180910390fd5b5f8390505f5f90507f000000000000000000000000000000000000000000000000000000000000000073ffffffffffffffffffffffffffffffffffffffff16633f1a118783835f6040518463ffffffff1660e01b8152600401610df293929190612f02565b6040805180830381865afa158015610e0c573d5f5f3e3d5ffd5b505050506040513d601f19601f82011682018060405250810190610e309190612f4b565b80925081935050507f30644e72e131a029b85045b68181585d2833e84879b9709143e1f593f000000180610e6757610e66612f89565b5b84830891507f000000000000000000000000000000000000000000000000000000000000000073ffffffffffffffffffffffffffffffffffffffff16633f1a118783835f6040518463ffffffff1660e01b8152600401610ec993929190612f02565b6040805180830381865afa158015610ee3573d5f5f3e3d5ffd5b505050506040513d601f19601f82011682018060405250810190610f079190612f4b565b8092508193505050815f1b9250505092915050565b5f60075f8381526020019081526020015f205f9054906101000a900460ff169050919050565b5f5f5f1b8203610f54575f9050610fd0565b5f60035f9054906101000a900463ffffffff1690505f8190505b60025f8263ffffffff1681526020019081526020015f20548403610f9757600192505050610fd0565b5f8163ffffffff1603610fa957601e90505b8080610fb490612fb6565b9150508163ffffffff168163ffffffff1603610f6e575f925050505b919050565b60065f9054906101000a900473ffffffffffffffffffffffffffffffffffffffff1673ffffffffffffffffffffffffffffffffffffffff163373ffffffffffffffffffffffffffffffffffffffff1614611064576040517f08c379a000000000000000000000000000000000000000000000000000000000815260040161105b9061293b565b60405180910390fd5b600b5442101580156110785750600c544211155b6110b7576040517f08c379a00000000000000000000000000000000000000000000000000000000081526004016110ae9061304d565b60405180910390fd5b60075f8381526020019081526020015f205f9054906101000a900460ff1615611115576040517f08c379a000000000000000000000000000000000000000000000000000000000815260040161110c906130db565b60405180910390fd5b600160075f8481526020019081526020015f205f6101000a81548160ff0219169083151502179055508060085f8481526020019081526020015f20819055508273ffffffffffffffffffffffffffffffffffffffff167f49a90692135172b11ff45007ef12b97c37df00bc650e48846f88da97b191b2d0838360405161119c9291906130f9565b60405180910390a2505050565b6005602052805f5260405f205f915054906101000a900460ff1681565b600e5481565b5f60065f9054906101000a900473ffffffffffffffffffffffffffffffffffffffff16905090565b60065f9054906101000a900473ffffffffffffffffffffffffffffffffffffffff1673ffffffffffffffffffffffffffffffffffffffff163373ffffffffffffffffffffffffffffffffffffffff1614611283576040517f08c379a000000000000000000000000000000000000000000000000000000000815260040161127a9061293b565b60405180910390fd5b8082106112c5576040517f08c379a00000000000000000000000000000000000000000000000000000000081526004016112bc90613190565b60405180910390fd5b81600b8190555080600c819055505050565b60065f9054906101000a900473ffffffffffffffffffffffffffffffffffffffff1681565b60035f9054906101000a900463ffffffff1681565b5f600a5f8381526020019081526020015f20600101549050919050565b60065f9054906101000a900473ffffffffffffffffffffffffffffffffffffffff1673ffffffffffffffffffffffffffffffffffffffff163373ffffffffffffffffffffffffffffffffffffffff16146113bd576040517f08c379a00000000000000000000000000000000000000000000000000000000081526004016113b49061293b565b60405180910390fd5b8082106113ff576040517f08c379a00000000000000000000000000000000000000000000000000000000081526004016113f690613190565b60405180910390fd5b81600d8190555080600e819055505050565b600b5481565b6060601080548060200260200160405190810160405280929190818152602001828054801561149857602002820191905f5260205f20905b815f9054906101000a900473ffffffffffffffffffffffffffffffffffffffff1673ffffffffffffffffffffffffffffffffffffffff168152602001906001019080831161144f575b5050505050905090565b5f60025f60035f9054906101000a900463ffffffff1663ffffffff1681526020019081526020015f2054905090565b6007602052805f5260405f205f915054906101000a900460ff1681565b6002602052805f5260405f205f915090505481565b601e81565b600d54421015801561151c5750600e544211155b61155b576040517f08c379a0000000000000000000000000000000000000000000000000000000008152600401611552906131f8565b60405180910390fd5b600954861061159f576040517f08c379a000000000000000000000000000000000000000000000000000000000815260040161159690613260565b60405180910390fd5b600a5f8781526020019081526020015f206002015f9054906101000a900460ff166115ff576040517f08c379a00000000000000000000000000000000000000000000000000000000081526004016115f6906132c8565b60405180910390fd5b611610855f1b855f1b858585611d52565b600a5f8781526020019081526020015f206001015f81548092919061163490612d8c565b9190505550505050505050565b600f8181548110611650575f80fd5b905f5260205f20015f915090505481565b5f5f8203611693577f2fe54c60d3acabf3343a35b6eba15db4821b340f76e741e2249685ed4899af6c5f1b9050611cda565b600182036116c5577f256a6135777eee2fd26f54b8b7037a25439d5235caee224154186d2b8a52e31d5f1b9050611cda565b600282036116f7577f1151949895e82ab19924de92c40a3d6f7bcb60d92b00504b8199613683f0c2005f1b9050611cda565b60038203611729577f20121ee811489ff8d61f09fb89e313f14959a0f28bb428a20dba6b0b068b3bdb5f1b9050611cda565b6004820361175b577f0a89ca6ffa14cc462cfedb842c30ed221a50a3d6bf022a6a57dc82ab24c157c95f1b9050611cda565b6005820361178d577f24ca05c2b5cd42e890d6be94c68d0689f4f21c9cec9c0f13fe41d566dfb549595f1b9050611cda565b600682036117bf577f1ccb97c932565a92c60156bdba2d08f3bf1377464e025cee765679e604a7315c5f1b9050611cda565b600782036117f1577f19156fbd7d1a8bf5cba8909367de1b624534ebab4f0f79e003bccdd1b182bdb45f1b9050611cda565b60088203611823577f261af8c1f0912e465744641409f622d466c3920ac6e5ff37e36604cb11dfff805f1b9050611cda565b60098203611854577e58459724ff6ca5a1652fcbc3e82b93895cf08e975b19beab3f54c217d1c0075f1b9050611cda565b600a8203611886577f1f04ef20dee48d39984d8eabe768a70eafa6310ad20849d4573c3c40c2ad1e305f1b9050611cda565b600b82036118b8577f1bea3dec5dab51567ce7e200a30f7ba6d4276aeaa53e2686f962a46c66d511e55f1b9050611cda565b600c82036118ea577f0ee0f941e2da4b9e31c3ca97a40d8fa9ce68d97c084177071b3cb46cd3372f0f5f1b9050611cda565b600d820361191c577f1ca9503e8935884501bbaf20be14eb4c46b89772c97b96e3b2ebf3a36a948bbd5f1b9050611cda565b600e820361194e577f133a80e30697cd55d8f7d4b0965b7be24057ba5dc3da898ee2187232446cb1085f1b9050611cda565b600f8203611980577f13e6d8fc88839ed76e182c2a779af5b2c0da9dd18c90427a644f7e148a6253b65f1b9050611cda565b601082036119b2577f1eb16b057a477f4bc8f572ea6bee39561098f78f15bfb3699dcbb7bd8db618545f1b9050611cda565b601182036119e4577f0da2cb16a1ceaabf1c16b838f7a9e3f2a3a3088d9e0a6debaa748114620696ea5f1b9050611cda565b60128203611a16577f24a3b3d822420b14b5d8cb6c28a574f01e98ea9e940551d2ebd75cee12649f9d5f1b9050611cda565b60138203611a48577f198622acbd783d1b0d9064105b1fc8e4d8889de95c4c519b3f635809fe6afc055f1b9050611cda565b60148203611a7a577f29d7ed391256ccc3ea596c86e933b89ff339d25ea8ddced975ae2fe30b5296d45f1b9050611cda565b60158203611aac577f19be59f2f0413ce78c0c3703a3a5451b1d7f39629fa33abd11548a76065b29675f1b9050611cda565b60168203611ade577f1ff3f61797e538b70e619310d33f2a063e7eb59104e112e95738da1254dc34535f1b9050611cda565b60178203611b10577f10c16ae9959cf8358980d9dd9616e48228737310a10e2b6b731c1a548f036c485f1b9050611cda565b60188203611b42577f0ba433a63174a90ac20992e75e3095496812b652685b5e1a2eae0b1bf4e8fcd15f1b9050611cda565b60198203611b74577f019ddb9df2bc98d987d0dfeca9d2b643deafab8f7036562e627c3667266a044c5f1b9050611cda565b601a8203611ba6577f2d3c88b23175c5a5565db928414c66d1912b11acf974b2e644caaac04739ce995f1b9050611cda565b601b8203611bd8577f2eab55f6ae4e66e32c5189eed5c470840863445760f5ed7e7b69b2a62600f3545f1b9050611cda565b601c8203611c09577e2df37a2642621802383cf952bf4dd1f32e05433beeb1fd41031fb7eace979d5f1b9050611cda565b601d8203611c3b577f104aeb41435db66c3e62feccc1d6f5d98d0a0ed75d1374db457cf462e3a1f4275f1b9050611cda565b601e8203611c6d577f1f3c6fd858e9a7d4b0d1f38e256a09d81d5a5e3c963987e2d4b814cfab7c6ebb5f1b9050611cda565b601f8203611c9f577f2c7a07d20dff79d01fecedc1134284a8d08436606c93693b67e333f671bf69cc5f1b9050611cda565b6040517f08c379a0000000000000000000000000000000000000000000000000000000008152600401611cd190613330565b60405180910390fd5b919050565b7f2fe54c60d3acabf3343a35b6eba15db4821b340f76e741e2249685ed4899af6c81565b7f000000000000000000000000000000000000000000000000000000000000000081565b6001602052805f5260405f205f915090505481565b600360049054906101000a900463ffffffff1681565b60045f8681526020019081526020015f205f9054906101000a900460ff1615611db0576040517f08c379a0000000000000000000000000000000000000000000000000000000008152600401611da790613398565b60405180910390fd5b611db984610f42565b611df8576040517f08c379a0000000000000000000000000000000000000000000000000000000008152600401611def90613400565b60405180910390fd5b7f000000000000000000000000000000000000000000000000000000000000000073ffffffffffffffffffffffffffffffffffffffff1663f5c9d69e84848460405180604001604052808b5f1c81526020018a5f1c8152506040518563ffffffff1660e01b8152600401611e6f94939291906135b9565b602060405180830381865afa158015611e8a573d5f5f3e3d5ffd5b505050506040513d601f19601f82011682018060405250810190611eae9190613628565b611eed576040517f08c379a0000000000000000000000000000000000000000000000000000000008152600401611ee49061369d565b60405180910390fd5b600160045f8781526020019081526020015f205f6101000a81548160ff0219169083151502179055505050505050565b508054611f29906129ee565b5f825580601f10611f3a5750611f57565b601f0160209004905f5260205f2090810190611f569190611f5a565b5b50565b5b80821115611f71575f815f905550600101611f5b565b5090565b5f819050919050565b611f8781611f75565b82525050565b5f602082019050611fa05f830184611f7e565b92915050565b5f604051905090565b5f5ffd5b5f5ffd5b611fc081611f75565b8114611fca575f5ffd5b50565b5f81359050611fdb81611fb7565b92915050565b5f60208284031215611ff657611ff5611faf565b5b5f61200384828501611fcd565b91505092915050565b5f819050919050565b61201e8161200c565b8114612028575f5ffd5b50565b5f8135905061203981612015565b92915050565b5f6020828403121561205457612053611faf565b5b5f6120618482850161202b565b91505092915050565b5f8115159050919050565b61207e8161206a565b82525050565b5f6020820190506120975f830184612075565b92915050565b5f73ffffffffffffffffffffffffffffffffffffffff82169050919050565b5f819050919050565b5f6120df6120da6120d58461209d565b6120bc565b61209d565b9050919050565b5f6120f0826120c5565b9050919050565b5f612101826120e6565b9050919050565b612111816120f7565b82525050565b5f60208201905061212a5f830184612108565b92915050565b5f81519050919050565b5f82825260208201905092915050565b5f819050602082019050919050565b5f81519050919050565b5f82825260208201905092915050565b8281835e5f83830152505050565b5f601f19601f8301169050919050565b5f61219b82612159565b6121a58185612163565b93506121b5818560208601612173565b6121be81612181565b840191505092915050565b5f6121d48383612191565b905092915050565b5f602082019050919050565b5f6121f282612130565b6121fc818561213a565b93508360208202850161220e8561214a565b805f5b85811015612249578484038952815161222a85826121c9565b9450612235836121dc565b925060208a01995050600181019050612211565b50829750879550505050505092915050565b5f60408201905061226e5f830185611f7e565b818103602083015261228081846121e8565b90509392505050565b5f82825260208201905092915050565b5f6122a382612159565b6122ad8185612289565b93506122bd818560208601612173565b6122c681612181565b840191505092915050565b5f6060820190508181035f8301526122e98186612299565b90506122f86020830185611f7e565b6123056040830184612075565b949350505050565b5f5ffd5b5f5ffd5b7f4e487b71000000000000000000000000000000000000000000000000000000005f52604160045260245ffd5b61234b82612181565b810181811067ffffffffffffffff8211171561236a57612369612315565b5b80604052505050565b5f61237c611fa6565b90506123888282612342565b919050565b5f67ffffffffffffffff8211156123a7576123a6612315565b5b6123b082612181565b9050602081019050919050565b828183375f83830152505050565b5f6123dd6123d88461238d565b612373565b9050828152602081018484840111156123f9576123f8612311565b5b6124048482856123bd565b509392505050565b5f82601f8301126124205761241f61230d565b5b81356124308482602086016123cb565b91505092915050565b5f6020828403121561244e5761244d611faf565b5b5f82013567ffffffffffffffff81111561246b5761246a611fb3565b5b6124778482850161240c565b91505092915050565b5f63ffffffff82169050919050565b61249881612480565b82525050565b5f6020820190506124b15f83018461248f565b92915050565b5f5f604083850312156124cd576124cc611faf565b5b5f6124da85828601611fcd565b92505060206124eb85828601611fcd565b9150509250929050565b6124fe8161200c565b82525050565b5f6020820190506125175f8301846124f5565b92915050565b5f6125278261209d565b9050919050565b6125378161251d565b8114612541575f5ffd5b50565b5f813590506125528161252e565b92915050565b5f5f5f6060848603121561256f5761256e611faf565b5b5f61257c86828701612544565b935050602061258d86828701611fcd565b925050604061259e86828701611fcd565b9150509250925092565b6125b18161251d565b82525050565b5f6020820190506125ca5f8301846125a8565b92915050565b5f81519050919050565b5f82825260208201905092915050565b5f819050602082019050919050565b6126028161251d565b82525050565b5f61261383836125f9565b60208301905092915050565b5f602082019050919050565b5f612635826125d0565b61263f81856125da565b935061264a836125ea565b805f5b8381101561267a5781516126618882612608565b975061266c8361261f565b92505060018101905061264d565b5085935050505092915050565b5f6020820190508181035f83015261269f818461262b565b905092915050565b5f67ffffffffffffffff8211156126c1576126c0612315565b5b602082029050919050565b5f5ffd5b5f6126e26126dd846126a7565b612373565b905080602084028301858111156126fc576126fb6126cc565b5b835b8181101561272557806127118882611fcd565b8452602084019350506020810190506126fe565b5050509392505050565b5f82601f8301126127435761274261230d565b5b60026127508482856126d0565b91505092915050565b5f67ffffffffffffffff82111561277357612772612315565b5b602082029050919050565b5f61279061278b84612759565b612373565b905080604084028301858111156127aa576127a96126cc565b5b835b818110156127d357806127bf888261272f565b8452602084019350506040810190506127ac565b5050509392505050565b5f82601f8301126127f1576127f061230d565b5b60026127fe84828561277e565b91505092915050565b5f5f5f5f5f5f610160878903121561282257612821611faf565b5b5f61282f89828a01611fcd565b965050602061284089828a01611fcd565b955050604061285189828a01611fcd565b945050606061286289828a0161272f565b93505060a061287389828a016127dd565b92505061012061288589828a0161272f565b9150509295509295509295565b5f61289c826120e6565b9050919050565b6128ac81612892565b82525050565b5f6020820190506128c55f8301846128a3565b92915050565b7f4f6e6c79206f776e65722063616e20706572666f726d207468697320616374695f8201527f6f6e210000000000000000000000000000000000000000000000000000000000602082015250565b5f612925602383612289565b9150612930826128cb565b604082019050919050565b5f6020820190508181035f83015261295281612919565b9050919050565b7f496e76616c69642063616e6469646174652049442100000000000000000000005f82015250565b5f61298d601583612289565b915061299882612959565b602082019050919050565b5f6020820190508181035f8301526129ba81612981565b9050919050565b7f4e487b71000000000000000000000000000000000000000000000000000000005f52602260045260245ffd5b5f6002820490506001821680612a0557607f821691505b602082108103612a1857612a176129c1565b5b50919050565b7f4e487b71000000000000000000000000000000000000000000000000000000005f52603260045260245ffd5b7f4e616d65206d7573742062652032302063686172616374657273206f72206c655f8201527f7373000000000000000000000000000000000000000000000000000000000000602082015250565b5f612aa5602283612289565b9150612ab082612a4b565b604082019050919050565b5f6020820190508181035f830152612ad281612a99565b9050919050565b5f819050815f5260205f209050919050565b5f6020601f8301049050919050565b5f82821b905092915050565b5f60088302612b357fffffffffffffffffffffffffffffffffffffffffffffffffffffffffffffffff82612afa565b612b3f8683612afa565b95508019841693508086168417925050509392505050565b5f612b71612b6c612b6784611f75565b6120bc565b611f75565b9050919050565b5f819050919050565b612b8a83612b57565b612b9e612b9682612b78565b848454612b06565b825550505050565b5f5f905090565b612bb5612ba6565b612bc0818484612b81565b505050565b5b81811015612be357612bd85f82612bad565b600181019050612bc6565b5050565b601f821115612c2857612bf981612ad9565b612c0284612aeb565b81016020851015612c11578190505b612c25612c1d85612aeb565b830182612bc5565b50505b505050565b5f82821c905092915050565b5f612c485f1984600802612c2d565b1980831691505092915050565b5f612c608383612c39565b9150826002028217905092915050565b612c7982612159565b67ffffffffffffffff811115612c9257612c91612315565b5b612c9c82546129ee565b612ca7828285612be7565b5f60209050601f831160018114612cd8575f8415612cc6578287015190505b612cd08582612c55565b865550612d37565b601f198416612ce686612ad9565b5f5b82811015612d0d57848901518255600182019150602085019450602081019050612ce8565b86831015612d2a5784890151612d26601f891682612c39565b8355505b6001600288020188555050505b505050505050565b5f6020820190508181035f830152612d578184612299565b905092915050565b7f4e487b71000000000000000000000000000000000000000000000000000000005f52601160045260245ffd5b5f612d9682611f75565b91507fffffffffffffffffffffffffffffffffffffffffffffffffffffffffffffffff8203612dc857612dc7612d5f565b5b600182019050919050565b7f5f6c6566742073686f756c6420626520696e7369646520746865206669656c645f82015250565b5f612e07602083612289565b9150612e1282612dd3565b602082019050919050565b5f6020820190508181035f830152612e3481612dfb565b9050919050565b7f5f72696768742073686f756c6420626520696e7369646520746865206669656c5f8201527f6400000000000000000000000000000000000000000000000000000000000000602082015250565b5f612e95602183612289565b9150612ea082612e3b565b604082019050919050565b5f6020820190508181035f830152612ec281612e89565b9050919050565b5f819050919050565b5f612eec612ee7612ee284612ec9565b6120bc565b611f75565b9050919050565b612efc81612ed2565b82525050565b5f606082019050612f155f830186611f7e565b612f226020830185611f7e565b612f2f6040830184612ef3565b949350505050565b5f81519050612f4581611fb7565b92915050565b5f5f60408385031215612f6157612f60611faf565b5b5f612f6e85828601612f37565b9250506020612f7f85828601612f37565b9150509250929050565b7f4e487b71000000000000000000000000000000000000000000000000000000005f52601260045260245ffd5b5f612fc082612480565b91505f8203612fd257612fd1612d5f565b5b600182039050919050565b7f4e6f742077697468696e2074686520726567697374726174696f6e20706572695f8201527f6f64210000000000000000000000000000000000000000000000000000000000602082015250565b5f613037602383612289565b915061304282612fdd565b604082019050919050565b5f6020820190508181035f8301526130648161302b565b9050919050565b7f5468697320756e69717565206861736820697320616c726561647920757365645f8201527f2100000000000000000000000000000000000000000000000000000000000000602082015250565b5f6130c5602183612289565b91506130d08261306b565b604082019050919050565b5f6020820190508181035f8301526130f2816130b9565b9050919050565b5f60408201905061310c5f830185611f7e565b6131196020830184611f7e565b9392505050565b7f53746172742074696d65206d757374206265206265666f726520656e642074695f8201527f6d65000000000000000000000000000000000000000000000000000000000000602082015250565b5f61317a602283612289565b915061318582613120565b604082019050919050565b5f6020820190508181035f8301526131a78161316e565b9050919050565b7f4e6f742077697468696e2074686520766f74696e6720706572696f64210000005f82015250565b5f6131e2601d83612289565b91506131ed826131ae565b602082019050919050565b5f6020820190508181035f83015261320f816131d6565b9050919050565b7f496e76616c69642063616e6469646174652100000000000000000000000000005f82015250565b5f61324a601283612289565b915061325582613216565b602082019050919050565b5f6020820190508181035f8301526132778161323e565b9050919050565b7f43616e64696461746520646f6573206e6f7420657869737421000000000000005f82015250565b5f6132b2601983612289565b91506132bd8261327e565b602082019050919050565b5f6020820190508181035f8301526132df816132a6565b9050919050565b7f496e646578206f7574206f6620626f756e6473000000000000000000000000005f82015250565b5f61331a601383612289565b9150613325826132e6565b602082019050919050565b5f6020820190508181035f8301526133478161330e565b9050919050565b7f546865206e756c6c696669657220686173206265656e207375626d69747465645f82015250565b5f613382602083612289565b915061338d8261334e565b602082019050919050565b5f6020820190508181035f8301526133af81613376565b9050919050565b7f43616e6e6f742066696e6420796f7572206d65726b6c6520726f6f74000000005f82015250565b5f6133ea601c83612289565b91506133f5826133b6565b602082019050919050565b5f6020820190508181035f830152613417816133de565b9050919050565b5f60029050919050565b5f81905092915050565b5f819050919050565b61344481611f75565b82525050565b5f613455838361343b565b60208301905092915050565b5f602082019050919050565b6134768161341e565b6134808184613428565b925061348b82613432565b805f5b838110156134bb5781516134a2878261344a565b96506134ad83613461565b92505060018101905061348e565b505050505050565b5f60029050919050565b5f81905092915050565b5f819050919050565b5f81905092915050565b6134f38161341e565b6134fd81846134e0565b925061350882613432565b805f5b8381101561353857815161351f878261344a565b965061352a83613461565b92505060018101905061350b565b505050505050565b5f61354b83836134ea565b60408301905092915050565b5f602082019050919050565b61356c816134c3565b61357681846134cd565b9250613581826134d7565b805f5b838110156135b15781516135988782613540565b96506135a383613557565b925050600181019050613584565b505050505050565b5f610140820190506135cd5f83018761346d565b6135da6040830186613563565b6135e760c083018561346d565b6135f561010083018461346d565b95945050505050565b6136078161206a565b8114613611575f5ffd5b50565b5f81519050613622816135fe565b92915050565b5f6020828403121561363d5761363c611faf565b5b5f61364a84828501613614565b91505092915050565b7f496e76616c69642070726f6f66000000000000000000000000000000000000005f82015250565b5f613687600d83612289565b915061369282613653565b602082019050919050565b5f6020820190508181035f8301526136b48161367b565b905091905056fea26469706673582212203699c0765cdf611b7660961e07fadcf8afffb17d8947a71d8bb9fcaed1948e6d64736f6c634300081b0033",
			"opcodes": "PUSH1 0xC0 PUSH1 0x40 MSTORE PUSH0 PUSH1 0x3 PUSH0 PUSH2 0x100 EXP DUP2 SLOAD DUP2 PUSH4 0xFFFFFFFF MUL NOT AND SWAP1 DUP4 PUSH4 0xFFFFFFFF AND MUL OR SWAP1 SSTORE POP PUSH0 PUSH1 0x3 PUSH1 0x4 PUSH2 0x100 EXP DUP2 SLOAD DUP2 PUSH4 0xFFFFFFFF MUL NOT AND SWAP1 DUP4 PUSH4 0xFFFFFFFF AND MUL OR SWAP1 SSTORE POP CALLVALUE DUP1 ISZERO PUSH2 0x50 JUMPI PUSH0 PUSH0 REVERT JUMPDEST POP PUSH1 0x40 MLOAD PUSH2 0x462B CODESIZE SUB DUP1 PUSH2 0x462B DUP4 CODECOPY DUP2 DUP2 ADD PUSH1 0x40 MSTORE DUP2 ADD SWAP1 PUSH2 0x72 SWAP2 SWAP1 PUSH2 0xAEB JUMP JUMPDEST DUP7 DUP7 DUP7 DUP3 DUP3 PUSH0 DUP3 PUSH4 0xFFFFFFFF AND GT PUSH2 0xBF JUMPI PUSH1 0x40 MLOAD PUSH32 0x8C379A000000000000000000000000000000000000000000000000000000000 DUP2 MSTORE PUSH1 0x4 ADD PUSH2 0xB6 SWAP1 PUSH2 0xC08 JUMP JUMPDEST PUSH1 0x40 MLOAD DUP1 SWAP2 SUB SWAP1 REVERT JUMPDEST PUSH1 0x20 DUP3 PUSH4 0xFFFFFFFF AND LT PUSH2 0x108 JUMPI PUSH1 0x40 MLOAD PUSH32 0x8C379A000000000000000000000000000000000000000000000000000000000 DUP2 MSTORE PUSH1 0x4 ADD PUSH2 0xFF SWAP1 PUSH2 0xC70 JUMP JUMPDEST PUSH1 0x40 MLOAD DUP1 SWAP2 SUB SWAP1 REVERT JUMPDEST DUP2 PUSH0 PUSH0 PUSH2 0x100 EXP DUP2 SLOAD DUP2 PUSH4 0xFFFFFFFF MUL NOT AND SWAP1 DUP4 PUSH4 0xFFFFFFFF AND MUL OR SWAP1 SSTORE POP DUP1 PUSH20 0xFFFFFFFFFFFFFFFFFFFFFFFFFFFFFFFFFFFFFFFF AND PUSH1 0x80 DUP2 PUSH20 0xFFFFFFFFFFFFFFFFFFFFFFFFFFFFFFFFFFFFFFFF AND DUP2 MSTORE POP POP PUSH0 PUSH0 SWAP1 POP JUMPDEST DUP3 PUSH4 0xFFFFFFFF AND DUP2 PUSH4 0xFFFFFFFF AND LT ISZERO PUSH2 0x1B1 JUMPI PUSH2 0x189 DUP2 PUSH4 0xFFFFFFFF AND PUSH2 0x357 PUSH1 0x20 SHL PUSH1 0x20 SHR JUMP JUMPDEST PUSH1 0x1 PUSH0 DUP4 PUSH4 0xFFFFFFFF AND DUP2 MSTORE PUSH1 0x20 ADD SWAP1 DUP2 MSTORE PUSH1 0x20 ADD PUSH0 KECCAK256 DUP2 SWAP1 SSTORE POP DUP1 DUP1 PUSH1 0x1 ADD SWAP2 POP POP PUSH2 0x160 JUMP JUMPDEST POP PUSH2 0x1D3 PUSH1 0x1 DUP4 PUSH2 0x1C2 SWAP2 SWAP1 PUSH2 0xCBB JUMP JUMPDEST PUSH4 0xFFFFFFFF AND PUSH2 0x357 PUSH1 0x20 SHL PUSH1 0x20 SHR JUMP JUMPDEST PUSH1 0x2 PUSH0 PUSH0 DUP2 MSTORE PUSH1 0x20 ADD SWAP1 DUP2 MSTORE PUSH1 0x20 ADD PUSH0 KECCAK256 DUP2 SWAP1 SSTORE POP POP POP DUP1 PUSH20 0xFFFFFFFFFFFFFFFFFFFFFFFFFFFFFFFFFFFFFFFF AND PUSH1 0xA0 DUP2 PUSH20 0xFFFFFFFFFFFFFFFFFFFFFFFFFFFFFFFFFFFFFFFF AND DUP2 MSTORE POP POP POP POP POP DUP3 DUP5 LT PUSH2 0x263 JUMPI PUSH1 0x40 MLOAD PUSH32 0x8C379A000000000000000000000000000000000000000000000000000000000 DUP2 MSTORE PUSH1 0x4 ADD PUSH2 0x25A SWAP1 PUSH2 0xD62 JUMP JUMPDEST PUSH1 0x40 MLOAD DUP1 SWAP2 SUB SWAP1 REVERT JUMPDEST DUP1 DUP3 LT PUSH2 0x2A5 JUMPI PUSH1 0x40 MLOAD PUSH32 0x8C379A000000000000000000000000000000000000000000000000000000000 DUP2 MSTORE PUSH1 0x4 ADD PUSH2 0x29C SWAP1 PUSH2 0xDF0 JUMP JUMPDEST PUSH1 0x40 MLOAD DUP1 SWAP2 SUB SWAP1 REVERT JUMPDEST DUP2 DUP4 GT ISZERO PUSH2 0x2E8 JUMPI PUSH1 0x40 MLOAD PUSH32 0x8C379A000000000000000000000000000000000000000000000000000000000 DUP2 MSTORE PUSH1 0x4 ADD PUSH2 0x2DF SWAP1 PUSH2 0xE7E JUMP JUMPDEST PUSH1 0x40 MLOAD DUP1 SWAP2 SUB SWAP1 REVERT JUMPDEST CALLER PUSH1 0x6 PUSH0 PUSH2 0x100 EXP DUP2 SLOAD DUP2 PUSH20 0xFFFFFFFFFFFFFFFFFFFFFFFFFFFFFFFFFFFFFFFF MUL NOT AND SWAP1 DUP4 PUSH20 0xFFFFFFFFFFFFFFFFFFFFFFFFFFFFFFFFFFFFFFFF AND MUL OR SWAP1 SSTORE POP PUSH0 PUSH1 0x9 DUP2 SWAP1 SSTORE POP DUP4 PUSH1 0xB DUP2 SWAP1 SSTORE POP DUP3 PUSH1 0xC DUP2 SWAP1 SSTORE POP DUP2 PUSH1 0xD DUP2 SWAP1 SSTORE POP DUP1 PUSH1 0xE DUP2 SWAP1 SSTORE POP POP POP POP POP POP POP POP PUSH2 0xF04 JUMP JUMPDEST PUSH0 PUSH0 DUP3 SUB PUSH2 0x389 JUMPI PUSH32 0x2FE54C60D3ACABF3343A35B6EBA15DB4821B340F76E741E2249685ED4899AF6C PUSH0 SHL SWAP1 POP PUSH2 0x9D0 JUMP JUMPDEST PUSH1 0x1 DUP3 SUB PUSH2 0x3BB JUMPI PUSH32 0x256A6135777EEE2FD26F54B8B7037A25439D5235CAEE224154186D2B8A52E31D PUSH0 SHL SWAP1 POP PUSH2 0x9D0 JUMP JUMPDEST PUSH1 0x2 DUP3 SUB PUSH2 0x3ED JUMPI PUSH32 0x1151949895E82AB19924DE92C40A3D6F7BCB60D92B00504B8199613683F0C200 PUSH0 SHL SWAP1 POP PUSH2 0x9D0 JUMP JUMPDEST PUSH1 0x3 DUP3 SUB PUSH2 0x41F JUMPI PUSH32 0x20121EE811489FF8D61F09FB89E313F14959A0F28BB428A20DBA6B0B068B3BDB PUSH0 SHL SWAP1 POP PUSH2 0x9D0 JUMP JUMPDEST PUSH1 0x4 DUP3 SUB PUSH2 0x451 JUMPI PUSH32 0xA89CA6FFA14CC462CFEDB842C30ED221A50A3D6BF022A6A57DC82AB24C157C9 PUSH0 SHL SWAP1 POP PUSH2 0x9D0 JUMP JUMPDEST PUSH1 0x5 DUP3 SUB PUSH2 0x483 JUMPI PUSH32 0x24CA05C2B5CD42E890D6BE94C68D0689F4F21C9CEC9C0F13FE41D566DFB54959 PUSH0 SHL SWAP1 POP PUSH2 0x9D0 JUMP JUMPDEST PUSH1 0x6 DUP3 SUB PUSH2 0x4B5 JUMPI PUSH32 0x1CCB97C932565A92C60156BDBA2D08F3BF1377464E025CEE765679E604A7315C PUSH0 SHL SWAP1 POP PUSH2 0x9D0 JUMP JUMPDEST PUSH1 0x7 DUP3 SUB PUSH2 0x4E7 JUMPI PUSH32 0x19156FBD7D1A8BF5CBA8909367DE1B624534EBAB4F0F79E003BCCDD1B182BDB4 PUSH0 SHL SWAP1 POP PUSH2 0x9D0 JUMP JUMPDEST PUSH1 0x8 DUP3 SUB PUSH2 0x519 JUMPI PUSH32 0x261AF8C1F0912E465744641409F622D466C3920AC6E5FF37E36604CB11DFFF80 PUSH0 SHL SWAP1 POP PUSH2 0x9D0 JUMP JUMPDEST PUSH1 0x9 DUP3 SUB PUSH2 0x54A JUMPI PUSH31 0x58459724FF6CA5A1652FCBC3E82B93895CF08E975B19BEAB3F54C217D1C007 PUSH0 SHL SWAP1 POP PUSH2 0x9D0 JUMP JUMPDEST PUSH1 0xA DUP3 SUB PUSH2 0x57C JUMPI PUSH32 0x1F04EF20DEE48D39984D8EABE768A70EAFA6310AD20849D4573C3C40C2AD1E30 PUSH0 SHL SWAP1 POP PUSH2 0x9D0 JUMP JUMPDEST PUSH1 0xB DUP3 SUB PUSH2 0x5AE JUMPI PUSH32 0x1BEA3DEC5DAB51567CE7E200A30F7BA6D4276AEAA53E2686F962A46C66D511E5 PUSH0 SHL SWAP1 POP PUSH2 0x9D0 JUMP JUMPDEST PUSH1 0xC DUP3 SUB PUSH2 0x5E0 JUMPI PUSH32 0xEE0F941E2DA4B9E31C3CA97A40D8FA9CE68D97C084177071B3CB46CD3372F0F PUSH0 SHL SWAP1 POP PUSH2 0x9D0 JUMP JUMPDEST PUSH1 0xD DUP3 SUB PUSH2 0x612 JUMPI PUSH32 0x1CA9503E8935884501BBAF20BE14EB4C46B89772C97B96E3B2EBF3A36A948BBD PUSH0 SHL SWAP1 POP PUSH2 0x9D0 JUMP JUMPDEST PUSH1 0xE DUP3 SUB PUSH2 0x644 JUMPI PUSH32 0x133A80E30697CD55D8F7D4B0965B7BE24057BA5DC3DA898EE2187232446CB108 PUSH0 SHL SWAP1 POP PUSH2 0x9D0 JUMP JUMPDEST PUSH1 0xF DUP3 SUB PUSH2 0x676 JUMPI PUSH32 0x13E6D8FC88839ED76E182C2A779AF5B2C0DA9DD18C90427A644F7E148A6253B6 PUSH0 SHL SWAP1 POP PUSH2 0x9D0 JUMP JUMPDEST PUSH1 0x10 DUP3 SUB PUSH2 0x6A8 JUMPI PUSH32 0x1EB16B057A477F4BC8F572EA6BEE39561098F78F15BFB3699DCBB7BD8DB61854 PUSH0 SHL SWAP1 POP PUSH2 0x9D0 JUMP JUMPDEST PUSH1 0x11 DUP3 SUB PUSH2 0x6DA JUMPI PUSH32 0xDA2CB16A1CEAABF1C16B838F7A9E3F2A3A3088D9E0A6DEBAA748114620696EA PUSH0 SHL SWAP1 POP PUSH2 0x9D0 JUMP JUMPDEST PUSH1 0x12 DUP3 SUB PUSH2 0x70C JUMPI PUSH32 0x24A3B3D822420B14B5D8CB6C28A574F01E98EA9E940551D2EBD75CEE12649F9D PUSH0 SHL SWAP1 POP PUSH2 0x9D0 JUMP JUMPDEST PUSH1 0x13 DUP3 SUB PUSH2 0x73E JUMPI PUSH32 0x198622ACBD783D1B0D9064105B1FC8E4D8889DE95C4C519B3F635809FE6AFC05 PUSH0 SHL SWAP1 POP PUSH2 0x9D0 JUMP JUMPDEST PUSH1 0x14 DUP3 SUB PUSH2 0x770 JUMPI PUSH32 0x29D7ED391256CCC3EA596C86E933B89FF339D25EA8DDCED975AE2FE30B5296D4 PUSH0 SHL SWAP1 POP PUSH2 0x9D0 JUMP JUMPDEST PUSH1 0x15 DUP3 SUB PUSH2 0x7A2 JUMPI PUSH32 0x19BE59F2F0413CE78C0C3703A3A5451B1D7F39629FA33ABD11548A76065B2967 PUSH0 SHL SWAP1 POP PUSH2 0x9D0 JUMP JUMPDEST PUSH1 0x16 DUP3 SUB PUSH2 0x7D4 JUMPI PUSH32 0x1FF3F61797E538B70E619310D33F2A063E7EB59104E112E95738DA1254DC3453 PUSH0 SHL SWAP1 POP PUSH2 0x9D0 JUMP JUMPDEST PUSH1 0x17 DUP3 SUB PUSH2 0x806 JUMPI PUSH32 0x10C16AE9959CF8358980D9DD9616E48228737310A10E2B6B731C1A548F036C48 PUSH0 SHL SWAP1 POP PUSH2 0x9D0 JUMP JUMPDEST PUSH1 0x18 DUP3 SUB PUSH2 0x838 JUMPI PUSH32 0xBA433A63174A90AC20992E75E3095496812B652685B5E1A2EAE0B1BF4E8FCD1 PUSH0 SHL SWAP1 POP PUSH2 0x9D0 JUMP JUMPDEST PUSH1 0x19 DUP3 SUB PUSH2 0x86A JUMPI PUSH32 0x19DDB9DF2BC98D987D0DFECA9D2B643DEAFAB8F7036562E627C3667266A044C PUSH0 SHL SWAP1 POP PUSH2 0x9D0 JUMP JUMPDEST PUSH1 0x1A DUP3 SUB PUSH2 0x89C JUMPI PUSH32 0x2D3C88B23175C5A5565DB928414C66D1912B11ACF974B2E644CAAAC04739CE99 PUSH0 SHL SWAP1 POP PUSH2 0x9D0 JUMP JUMPDEST PUSH1 0x1B DUP3 SUB PUSH2 0x8CE JUMPI PUSH32 0x2EAB55F6AE4E66E32C5189EED5C470840863445760F5ED7E7B69B2A62600F354 PUSH0 SHL SWAP1 POP PUSH2 0x9D0 JUMP JUMPDEST PUSH1 0x1C DUP3 SUB PUSH2 0x8FF JUMPI PUSH31 0x2DF37A2642621802383CF952BF4DD1F32E05433BEEB1FD41031FB7EACE979D PUSH0 SHL SWAP1 POP PUSH2 0x9D0 JUMP JUMPDEST PUSH1 0x1D DUP3 SUB PUSH2 0x931 JUMPI PUSH32 0x104AEB41435DB66C3E62FECCC1D6F5D98D0A0ED75D1374DB457CF462E3A1F427 PUSH0 SHL SWAP1 POP PUSH2 0x9D0 JUMP JUMPDEST PUSH1 0x1E DUP3 SUB PUSH2 0x963 JUMPI PUSH32 0x1F3C6FD858E9A7D4B0D1F38E256A09D81D5A5E3C963987E2D4B814CFAB7C6EBB PUSH0 SHL SWAP1 POP PUSH2 0x9D0 JUMP JUMPDEST PUSH1 0x1F DUP3 SUB PUSH2 0x995 JUMPI PUSH32 0x2C7A07D20DFF79D01FECEDC1134284A8D08436606C93693B67E333F671BF69CC PUSH0 SHL SWAP1 POP PUSH2 0x9D0 JUMP JUMPDEST PUSH1 0x40 MLOAD PUSH32 0x8C379A000000000000000000000000000000000000000000000000000000000 DUP2 MSTORE PUSH1 0x4 ADD PUSH2 0x9C7 SWAP1 PUSH2 0xEE6 JUMP JUMPDEST PUSH1 0x40 MLOAD DUP1 SWAP2 SUB SWAP1 REVERT JUMPDEST SWAP2 SWAP1 POP JUMP JUMPDEST PUSH0 PUSH0 REVERT JUMPDEST PUSH0 PUSH4 0xFFFFFFFF DUP3 AND SWAP1 POP SWAP2 SWAP1 POP JUMP JUMPDEST PUSH2 0x9F1 DUP2 PUSH2 0x9D9 JUMP JUMPDEST DUP2 EQ PUSH2 0x9FB JUMPI PUSH0 PUSH0 REVERT JUMPDEST POP JUMP JUMPDEST PUSH0 DUP2 MLOAD SWAP1 POP PUSH2 0xA0C DUP2 PUSH2 0x9E8 JUMP JUMPDEST SWAP3 SWAP2 POP POP JUMP JUMPDEST PUSH0 PUSH20 0xFFFFFFFFFFFFFFFFFFFFFFFFFFFFFFFFFFFFFFFF DUP3 AND SWAP1 POP SWAP2 SWAP1 POP JUMP JUMPDEST PUSH0 PUSH2 0xA3B DUP3 PUSH2 0xA12 JUMP JUMPDEST SWAP1 POP SWAP2 SWAP1 POP JUMP JUMPDEST PUSH0 PUSH2 0xA4C DUP3 PUSH2 0xA31 JUMP JUMPDEST SWAP1 POP SWAP2 SWAP1 POP JUMP JUMPDEST PUSH2 0xA5C DUP2 PUSH2 0xA42 JUMP JUMPDEST DUP2 EQ PUSH2 0xA66 JUMPI PUSH0 PUSH0 REVERT JUMPDEST POP JUMP JUMPDEST PUSH0 DUP2 MLOAD SWAP1 POP PUSH2 0xA77 DUP2 PUSH2 0xA53 JUMP JUMPDEST SWAP3 SWAP2 POP POP JUMP JUMPDEST PUSH0 PUSH2 0xA87 DUP3 PUSH2 0xA31 JUMP JUMPDEST SWAP1 POP SWAP2 SWAP1 POP JUMP JUMPDEST PUSH2 0xA97 DUP2 PUSH2 0xA7D JUMP JUMPDEST DUP2 EQ PUSH2 0xAA1 JUMPI PUSH0 PUSH0 REVERT JUMPDEST POP JUMP JUMPDEST PUSH0 DUP2 MLOAD SWAP1 POP PUSH2 0xAB2 DUP2 PUSH2 0xA8E JUMP JUMPDEST SWAP3 SWAP2 POP POP JUMP JUMPDEST PUSH0 DUP2 SWAP1 POP SWAP2 SWAP1 POP JUMP JUMPDEST PUSH2 0xACA DUP2 PUSH2 0xAB8 JUMP JUMPDEST DUP2 EQ PUSH2 0xAD4 JUMPI PUSH0 PUSH0 REVERT JUMPDEST POP JUMP JUMPDEST PUSH0 DUP2 MLOAD SWAP1 POP PUSH2 0xAE5 DUP2 PUSH2 0xAC1 JUMP JUMPDEST SWAP3 SWAP2 POP POP JUMP JUMPDEST PUSH0 PUSH0 PUSH0 PUSH0 PUSH0 PUSH0 PUSH0 PUSH1 0xE0 DUP9 DUP11 SUB SLT ISZERO PUSH2 0xB06 JUMPI PUSH2 0xB05 PUSH2 0x9D5 JUMP JUMPDEST JUMPDEST PUSH0 PUSH2 0xB13 DUP11 DUP3 DUP12 ADD PUSH2 0x9FE JUMP JUMPDEST SWAP8 POP POP PUSH1 0x20 PUSH2 0xB24 DUP11 DUP3 DUP12 ADD PUSH2 0xA69 JUMP JUMPDEST SWAP7 POP POP PUSH1 0x40 PUSH2 0xB35 DUP11 DUP3 DUP12 ADD PUSH2 0xAA4 JUMP JUMPDEST SWAP6 POP POP PUSH1 0x60 PUSH2 0xB46 DUP11 DUP3 DUP12 ADD PUSH2 0xAD7 JUMP JUMPDEST SWAP5 POP POP PUSH1 0x80 PUSH2 0xB57 DUP11 DUP3 DUP12 ADD PUSH2 0xAD7 JUMP JUMPDEST SWAP4 POP POP PUSH1 0xA0 PUSH2 0xB68 DUP11 DUP3 DUP12 ADD PUSH2 0xAD7 JUMP JUMPDEST SWAP3 POP POP PUSH1 0xC0 PUSH2 0xB79 DUP11 DUP3 DUP12 ADD PUSH2 0xAD7 JUMP JUMPDEST SWAP2 POP POP SWAP3 SWAP6 SWAP9 SWAP2 SWAP5 SWAP8 POP SWAP3 SWAP6 POP JUMP JUMPDEST PUSH0 DUP3 DUP3 MSTORE PUSH1 0x20 DUP3 ADD SWAP1 POP SWAP3 SWAP2 POP POP JUMP JUMPDEST PUSH32 0x5F6C6576656C732073686F756C642062652067726561746572207468616E207A PUSH0 DUP3 ADD MSTORE PUSH32 0x65726F0000000000000000000000000000000000000000000000000000000000 PUSH1 0x20 DUP3 ADD MSTORE POP JUMP JUMPDEST PUSH0 PUSH2 0xBF2 PUSH1 0x23 DUP4 PUSH2 0xB88 JUMP JUMPDEST SWAP2 POP PUSH2 0xBFD DUP3 PUSH2 0xB98 JUMP JUMPDEST PUSH1 0x40 DUP3 ADD SWAP1 POP SWAP2 SWAP1 POP JUMP JUMPDEST PUSH0 PUSH1 0x20 DUP3 ADD SWAP1 POP DUP2 DUP2 SUB PUSH0 DUP4 ADD MSTORE PUSH2 0xC1F DUP2 PUSH2 0xBE6 JUMP JUMPDEST SWAP1 POP SWAP2 SWAP1 POP JUMP JUMPDEST PUSH32 0x5F6C6576656C732073686F756C64206265206C657373207468616E2033320000 PUSH0 DUP3 ADD MSTORE POP JUMP JUMPDEST PUSH0 PUSH2 0xC5A PUSH1 0x1E DUP4 PUSH2 0xB88 JUMP JUMPDEST SWAP2 POP PUSH2 0xC65 DUP3 PUSH2 0xC26 JUMP JUMPDEST PUSH1 0x20 DUP3 ADD SWAP1 POP SWAP2 SWAP1 POP JUMP JUMPDEST PUSH0 PUSH1 0x20 DUP3 ADD SWAP1 POP DUP2 DUP2 SUB PUSH0 DUP4 ADD MSTORE PUSH2 0xC87 DUP2 PUSH2 0xC4E JUMP JUMPDEST SWAP1 POP SWAP2 SWAP1 POP JUMP JUMPDEST PUSH32 0x4E487B7100000000000000000000000000000000000000000000000000000000 PUSH0 MSTORE PUSH1 0x11 PUSH1 0x4 MSTORE PUSH1 0x24 PUSH0 REVERT JUMPDEST PUSH0 PUSH2 0xCC5 DUP3 PUSH2 0x9D9 JUMP JUMPDEST SWAP2 POP PUSH2 0xCD0 DUP4 PUSH2 0x9D9 JUMP JUMPDEST SWAP3 POP DUP3 DUP3 SUB SWAP1 POP PUSH4 0xFFFFFFFF DUP2 GT ISZERO PUSH2 0xCEC JUMPI PUSH2 0xCEB PUSH2 0xC8E JUMP JUMPDEST JUMPDEST SWAP3 SWAP2 POP POP JUMP JUMPDEST PUSH32 0x526567697374726174696F6E207374617274206D757374206265206265666F72 PUSH0 DUP3 ADD MSTORE PUSH32 0x6520656E642074696D6500000000000000000000000000000000000000000000 PUSH1 0x20 DUP3 ADD MSTORE POP JUMP JUMPDEST PUSH0 PUSH2 0xD4C PUSH1 0x2A DUP4 PUSH2 0xB88 JUMP JUMPDEST SWAP2 POP PUSH2 0xD57 DUP3 PUSH2 0xCF2 JUMP JUMPDEST PUSH1 0x40 DUP3 ADD SWAP1 POP SWAP2 SWAP1 POP JUMP JUMPDEST PUSH0 PUSH1 0x20 DUP3 ADD SWAP1 POP DUP2 DUP2 SUB PUSH0 DUP4 ADD MSTORE PUSH2 0xD79 DUP2 PUSH2 0xD40 JUMP JUMPDEST SWAP1 POP SWAP2 SWAP1 POP JUMP JUMPDEST PUSH32 0x566F74696E67207374617274206D757374206265206265666F726520656E6420 PUSH0 DUP3 ADD MSTORE PUSH32 0x74696D6500000000000000000000000000000000000000000000000000000000 PUSH1 0x20 DUP3 ADD MSTORE POP JUMP JUMPDEST PUSH0 PUSH2 0xDDA PUSH1 0x24 DUP4 PUSH2 0xB88 JUMP JUMPDEST SWAP2 POP PUSH2 0xDE5 DUP3 PUSH2 0xD80 JUMP JUMPDEST PUSH1 0x40 DUP3 ADD SWAP1 POP SWAP2 SWAP1 POP JUMP JUMPDEST PUSH0 PUSH1 0x20 DUP3 ADD SWAP1 POP DUP2 DUP2 SUB PUSH0 DUP4 ADD MSTORE PUSH2 0xE07 DUP2 PUSH2 0xDCE JUMP JUMPDEST SWAP1 POP SWAP2 SWAP1 POP JUMP JUMPDEST PUSH32 0x526567697374726174696F6E206D75737420656E64206265666F726520766F74 PUSH0 DUP3 ADD MSTORE PUSH32 0x696E672073746172747300000000000000000000000000000000000000000000 PUSH1 0x20 DUP3 ADD MSTORE POP JUMP JUMPDEST PUSH0 PUSH2 0xE68 PUSH1 0x2A DUP4 PUSH2 0xB88 JUMP JUMPDEST SWAP2 POP PUSH2 0xE73 DUP3 PUSH2 0xE0E JUMP JUMPDEST PUSH1 0x40 DUP3 ADD SWAP1 POP SWAP2 SWAP1 POP JUMP JUMPDEST PUSH0 PUSH1 0x20 DUP3 ADD SWAP1 POP DUP2 DUP2 SUB PUSH0 DUP4 ADD MSTORE PUSH2 0xE95 DUP2 PUSH2 0xE5C JUMP JUMPDEST SWAP1 POP SWAP2 SWAP1 POP JUMP JUMPDEST PUSH32 0x496E646578206F7574206F6620626F756E647300000000000000000000000000 PUSH0 DUP3 ADD MSTORE POP JUMP JUMPDEST PUSH0 PUSH2 0xED0 PUSH1 0x13 DUP4 PUSH2 0xB88 JUMP JUMPDEST SWAP2 POP PUSH2 0xEDB DUP3 PUSH2 0xE9C JUMP JUMPDEST PUSH1 0x20 DUP3 ADD SWAP1 POP SWAP2 SWAP1 POP JUMP JUMPDEST PUSH0 PUSH1 0x20 DUP3 ADD SWAP1 POP DUP2 DUP2 SUB PUSH0 DUP4 ADD MSTORE PUSH2 0xEFD DUP2 PUSH2 0xEC4 JUMP JUMPDEST SWAP1 POP SWAP2 SWAP1 POP JUMP JUMPDEST PUSH1 0x80 MLOAD PUSH1 0xA0 MLOAD PUSH2 0x36F1 PUSH2 0xF3A PUSH0 CODECOPY PUSH0 DUP2 DUP2 PUSH2 0x8CA ADD MSTORE PUSH2 0x1DFA ADD MSTORE PUSH0 DUP2 DUP2 PUSH2 0xD97 ADD MSTORE DUP2 DUP2 PUSH2 0xE6E ADD MSTORE PUSH2 0x1D05 ADD MSTORE PUSH2 0x36F1 PUSH0 RETURN INVALID PUSH1 0x80 PUSH1 0x40 MSTORE CALLVALUE DUP1 ISZERO PUSH2 0xF JUMPI PUSH0 PUSH0 REVERT JUMPDEST POP PUSH1 0x4 CALLDATASIZE LT PUSH2 0x225 JUMPI PUSH0 CALLDATALOAD PUSH1 0xE0 SHR DUP1 PUSH4 0x893D20E8 GT PUSH2 0x12E JUMPI DUP1 PUSH4 0xC1B1F732 GT PUSH2 0xB6 JUMPI DUP1 PUSH4 0xE8295588 GT PUSH2 0x7A JUMPI DUP1 PUSH4 0xE8295588 EQ PUSH2 0x6A6 JUMPI DUP1 PUSH4 0xEC732959 EQ PUSH2 0x6D6 JUMPI DUP1 PUSH4 0xED33639F EQ PUSH2 0x6F4 JUMPI DUP1 PUSH4 0xF178E47C EQ PUSH2 0x712 JUMPI DUP1 PUSH4 0xFC7E9C6F EQ PUSH2 0x742 JUMPI PUSH2 0x225 JUMP JUMPDEST DUP1 PUSH4 0xC1B1F732 EQ PUSH2 0x5DC JUMPI DUP1 PUSH4 0xC2B40AE4 EQ PUSH2 0x60C JUMPI DUP1 PUSH4 0xCD87A3B4 EQ PUSH2 0x63C JUMPI DUP1 PUSH4 0xCE8F6377 EQ PUSH2 0x65A JUMPI DUP1 PUSH4 0xD290A3CF EQ PUSH2 0x676 JUMPI PUSH2 0x225 JUMP JUMPDEST DUP1 PUSH4 0x955E0377 GT PUSH2 0xFD JUMPI DUP1 PUSH4 0x955E0377 EQ PUSH2 0x536 JUMPI DUP1 PUSH4 0xA15A36C7 EQ PUSH2 0x566 JUMPI DUP1 PUSH4 0xB4062A31 EQ PUSH2 0x582 JUMPI DUP1 PUSH4 0xB7AB4DB5 EQ PUSH2 0x5A0 JUMPI DUP1 PUSH4 0xBA70F757 EQ PUSH2 0x5BE JUMPI PUSH2 0x225 JUMP JUMPDEST DUP1 PUSH4 0x893D20E8 EQ PUSH2 0x4C0 JUMPI DUP1 PUSH4 0x8BB2FB75 EQ PUSH2 0x4DE JUMPI DUP1 PUSH4 0x8DA5CB5B EQ PUSH2 0x4FA JUMPI DUP1 PUSH4 0x90EEB02B EQ PUSH2 0x518 JUMPI PUSH2 0x225 JUMP JUMPDEST DUP1 PUSH4 0x462E91EC GT PUSH2 0x1B1 JUMPI DUP1 PUSH4 0x6D3CBA61 GT PUSH2 0x180 JUMPI DUP1 PUSH4 0x6D3CBA61 EQ PUSH2 0x3F6 JUMPI DUP1 PUSH4 0x6D9833E3 EQ PUSH2 0x426 JUMPI DUP1 PUSH4 0x78B9AC25 EQ PUSH2 0x456 JUMPI DUP1 PUSH4 0x839DF945 EQ PUSH2 0x472 JUMPI DUP1 PUSH4 0x85A38635 EQ PUSH2 0x4A2 JUMPI PUSH2 0x225 JUMP JUMPDEST DUP1 PUSH4 0x462E91EC EQ PUSH2 0x36E JUMPI DUP1 PUSH4 0x4ECF518B EQ PUSH2 0x38A JUMPI DUP1 PUSH4 0x5216509A EQ PUSH2 0x3A8 JUMPI DUP1 PUSH4 0x5BB93995 EQ PUSH2 0x3C6 JUMPI PUSH2 0x225 JUMP JUMPDEST DUP1 PUSH4 0x2B7AC3F3 GT PUSH2 0x1F8 JUMPI DUP1 PUSH4 0x2B7AC3F3 EQ PUSH2 0x2B1 JUMPI DUP1 PUSH4 0x2E6997FE EQ PUSH2 0x2CF JUMPI DUP1 PUSH4 0x32BCCE08 EQ PUSH2 0x2EE JUMPI DUP1 PUSH4 0x3477EE2E EQ PUSH2 0x31E JUMPI DUP1 PUSH4 0x414A37BA EQ PUSH2 0x350 JUMPI PUSH2 0x225 JUMP JUMPDEST DUP1 PUSH4 0x101158AF EQ PUSH2 0x229 JUMPI DUP1 PUSH4 0x13446A75 EQ PUSH2 0x247 JUMPI DUP1 PUSH4 0x1E620CD4 EQ PUSH2 0x265 JUMPI DUP1 PUSH4 0x2997E86B EQ PUSH2 0x281 JUMPI JUMPDEST PUSH0 PUSH0 REVERT JUMPDEST PUSH2 0x231 PUSH2 0x760 JUMP JUMPDEST PUSH1 0x40 MLOAD PUSH2 0x23E SWAP2 SWAP1 PUSH2 0x1F8D JUMP JUMPDEST PUSH1 0x40 MLOAD DUP1 SWAP2 SUB SWAP1 RETURN JUMPDEST PUSH2 0x24F PUSH2 0x766 JUMP JUMPDEST PUSH1 0x40 MLOAD PUSH2 0x25C SWAP2 SWAP1 PUSH2 0x1F8D JUMP JUMPDEST PUSH1 0x40 MLOAD DUP1 SWAP2 SUB SWAP1 RETURN JUMPDEST PUSH2 0x27F PUSH1 0x4 DUP1 CALLDATASIZE SUB DUP2 ADD SWAP1 PUSH2 0x27A SWAP2 SWAP1 PUSH2 0x1FE1 JUMP JUMPDEST PUSH2 0x76C JUMP JUMPDEST STOP JUMPDEST PUSH2 0x29B PUSH1 0x4 DUP1 CALLDATASIZE SUB DUP2 ADD SWAP1 PUSH2 0x296 SWAP2 SWAP1 PUSH2 0x203F JUMP JUMPDEST PUSH2 0x8AB JUMP JUMPDEST PUSH1 0x40 MLOAD PUSH2 0x2A8 SWAP2 SWAP1 PUSH2 0x2084 JUMP JUMPDEST PUSH1 0x40 MLOAD DUP1 SWAP2 SUB SWAP1 RETURN JUMPDEST PUSH2 0x2B9 PUSH2 0x8C8 JUMP JUMPDEST PUSH1 0x40 MLOAD PUSH2 0x2C6 SWAP2 SWAP1 PUSH2 0x2117 JUMP JUMPDEST PUSH1 0x40 MLOAD DUP1 SWAP2 SUB SWAP1 RETURN JUMPDEST PUSH2 0x2D7 PUSH2 0x8EC JUMP JUMPDEST PUSH1 0x40 MLOAD PUSH2 0x2E5 SWAP3 SWAP2 SWAP1 PUSH2 0x225B JUMP JUMPDEST PUSH1 0x40 MLOAD DUP1 SWAP2 SUB SWAP1 RETURN JUMPDEST PUSH2 0x308 PUSH1 0x4 DUP1 CALLDATASIZE SUB DUP2 ADD SWAP1 PUSH2 0x303 SWAP2 SWAP1 PUSH2 0x1FE1 JUMP JUMPDEST PUSH2 0xA24 JUMP JUMPDEST PUSH1 0x40 MLOAD PUSH2 0x315 SWAP2 SWAP1 PUSH2 0x1F8D JUMP JUMPDEST PUSH1 0x40 MLOAD DUP1 SWAP2 SUB SWAP1 RETURN JUMPDEST PUSH2 0x338 PUSH1 0x4 DUP1 CALLDATASIZE SUB DUP2 ADD SWAP1 PUSH2 0x333 SWAP2 SWAP1 PUSH2 0x1FE1 JUMP JUMPDEST PUSH2 0xA39 JUMP JUMPDEST PUSH1 0x40 MLOAD PUSH2 0x347 SWAP4 SWAP3 SWAP2 SWAP1 PUSH2 0x22D1 JUMP JUMPDEST PUSH1 0x40 MLOAD DUP1 SWAP2 SUB SWAP1 RETURN JUMPDEST PUSH2 0x358 PUSH2 0xAF1 JUMP JUMPDEST PUSH1 0x40 MLOAD PUSH2 0x365 SWAP2 SWAP1 PUSH2 0x1F8D JUMP JUMPDEST PUSH1 0x40 MLOAD DUP1 SWAP2 SUB SWAP1 RETURN JUMPDEST PUSH2 0x388 PUSH1 0x4 DUP1 CALLDATASIZE SUB DUP2 ADD SWAP1 PUSH2 0x383 SWAP2 SWAP1 PUSH2 0x2439 JUMP JUMPDEST PUSH2 0xB15 JUMP JUMPDEST STOP JUMPDEST PUSH2 0x392 PUSH2 0xCAE JUMP JUMPDEST PUSH1 0x40 MLOAD PUSH2 0x39F SWAP2 SWAP1 PUSH2 0x249E JUMP JUMPDEST PUSH1 0x40 MLOAD DUP1 SWAP2 SUB SWAP1 RETURN JUMPDEST PUSH2 0x3B0 PUSH2 0xCC2 JUMP JUMPDEST PUSH1 0x40 MLOAD PUSH2 0x3BD SWAP2 SWAP1 PUSH2 0x1F8D JUMP JUMPDEST PUSH1 0x40 MLOAD DUP1 SWAP2 SUB SWAP1 RETURN JUMPDEST PUSH2 0x3E0 PUSH1 0x4 DUP1 CALLDATASIZE SUB DUP2 ADD SWAP1 PUSH2 0x3DB SWAP2 SWAP1 PUSH2 0x24B7 JUMP JUMPDEST PUSH2 0xCC8 JUMP JUMPDEST PUSH1 0x40 MLOAD PUSH2 0x3ED SWAP2 SWAP1 PUSH2 0x2504 JUMP JUMPDEST PUSH1 0x40 MLOAD DUP1 SWAP2 SUB SWAP1 RETURN JUMPDEST PUSH2 0x410 PUSH1 0x4 DUP1 CALLDATASIZE SUB DUP2 ADD SWAP1 PUSH2 0x40B SWAP2 SWAP1 PUSH2 0x1FE1 JUMP JUMPDEST PUSH2 0xF1C JUMP JUMPDEST PUSH1 0x40 MLOAD PUSH2 0x41D SWAP2 SWAP1 PUSH2 0x2084 JUMP JUMPDEST PUSH1 0x40 MLOAD DUP1 SWAP2 SUB SWAP1 RETURN JUMPDEST PUSH2 0x440 PUSH1 0x4 DUP1 CALLDATASIZE SUB DUP2 ADD SWAP1 PUSH2 0x43B SWAP2 SWAP1 PUSH2 0x203F JUMP JUMPDEST PUSH2 0xF42 JUMP JUMPDEST PUSH1 0x40 MLOAD PUSH2 0x44D SWAP2 SWAP1 PUSH2 0x2084 JUMP JUMPDEST PUSH1 0x40 MLOAD DUP1 SWAP2 SUB SWAP1 RETURN JUMPDEST PUSH2 0x470 PUSH1 0x4 DUP1 CALLDATASIZE SUB DUP2 ADD SWAP1 PUSH2 0x46B SWAP2 SWAP1 PUSH2 0x2558 JUMP JUMPDEST PUSH2 0xFD5 JUMP JUMPDEST STOP JUMPDEST PUSH2 0x48C PUSH1 0x4 DUP1 CALLDATASIZE SUB DUP2 ADD SWAP1 PUSH2 0x487 SWAP2 SWAP1 PUSH2 0x203F JUMP JUMPDEST PUSH2 0x11A9 JUMP JUMPDEST PUSH1 0x40 MLOAD PUSH2 0x499 SWAP2 SWAP1 PUSH2 0x2084 JUMP JUMPDEST PUSH1 0x40 MLOAD DUP1 SWAP2 SUB SWAP1 RETURN JUMPDEST PUSH2 0x4AA PUSH2 0x11C6 JUMP JUMPDEST PUSH1 0x40 MLOAD PUSH2 0x4B7 SWAP2 SWAP1 PUSH2 0x1F8D JUMP JUMPDEST PUSH1 0x40 MLOAD DUP1 SWAP2 SUB SWAP1 RETURN JUMPDEST PUSH2 0x4C8 PUSH2 0x11CC JUMP JUMPDEST PUSH1 0x40 MLOAD PUSH2 0x4D5 SWAP2 SWAP1 PUSH2 0x25B7 JUMP JUMPDEST PUSH1 0x40 MLOAD DUP1 SWAP2 SUB SWAP1 RETURN JUMPDEST PUSH2 0x4F8 PUSH1 0x4 DUP1 CALLDATASIZE SUB DUP2 ADD SWAP1 PUSH2 0x4F3 SWAP2 SWAP1 PUSH2 0x24B7 JUMP JUMPDEST PUSH2 0x11F4 JUMP JUMPDEST STOP JUMPDEST PUSH2 0x502 PUSH2 0x12D7 JUMP JUMPDEST PUSH1 0x40 MLOAD PUSH2 0x50F SWAP2 SWAP1 PUSH2 0x25B7 JUMP JUMPDEST PUSH1 0x40 MLOAD DUP1 SWAP2 SUB SWAP1 RETURN JUMPDEST PUSH2 0x520 PUSH2 0x12FC JUMP JUMPDEST PUSH1 0x40 MLOAD PUSH2 0x52D SWAP2 SWAP1 PUSH2 0x249E JUMP JUMPDEST PUSH1 0x40 MLOAD DUP1 SWAP2 SUB SWAP1 RETURN JUMPDEST PUSH2 0x550 PUSH1 0x4 DUP1 CALLDATASIZE SUB DUP2 ADD SWAP1 PUSH2 0x54B SWAP2 SWAP1 PUSH2 0x1FE1 JUMP JUMPDEST PUSH2 0x1311 JUMP JUMPDEST PUSH1 0x40 MLOAD PUSH2 0x55D SWAP2 SWAP1 PUSH2 0x1F8D JUMP JUMPDEST PUSH1 0x40 MLOAD DUP1 SWAP2 SUB SWAP1 RETURN JUMPDEST PUSH2 0x580 PUSH1 0x4 DUP1 CALLDATASIZE SUB DUP2 ADD SWAP1 PUSH2 0x57B SWAP2 SWAP1 PUSH2 0x24B7 JUMP JUMPDEST PUSH2 0x132E JUMP JUMPDEST STOP JUMPDEST PUSH2 0x58A PUSH2 0x1411 JUMP JUMPDEST PUSH1 0x40 MLOAD PUSH2 0x597 SWAP2 SWAP1 PUSH2 0x1F8D JUMP JUMPDEST PUSH1 0x40 MLOAD DUP1 SWAP2 SUB SWAP1 RETURN JUMPDEST PUSH2 0x5A8 PUSH2 0x1417 JUMP JUMPDEST PUSH1 0x40 MLOAD PUSH2 0x5B5 SWAP2 SWAP1 PUSH2 0x2687 JUMP JUMPDEST PUSH1 0x40 MLOAD DUP1 SWAP2 SUB SWAP1 RETURN JUMPDEST PUSH2 0x5C6 PUSH2 0x14A2 JUMP JUMPDEST PUSH1 0x40 MLOAD PUSH2 0x5D3 SWAP2 SWAP1 PUSH2 0x2504 JUMP JUMPDEST PUSH1 0x40 MLOAD DUP1 SWAP2 SUB SWAP1 RETURN JUMPDEST PUSH2 0x5F6 PUSH1 0x4 DUP1 CALLDATASIZE SUB DUP2 ADD SWAP1 PUSH2 0x5F1 SWAP2 SWAP1 PUSH2 0x1FE1 JUMP JUMPDEST PUSH2 0x14D1 JUMP JUMPDEST PUSH1 0x40 MLOAD PUSH2 0x603 SWAP2 SWAP1 PUSH2 0x2084 JUMP JUMPDEST PUSH1 0x40 MLOAD DUP1 SWAP2 SUB SWAP1 RETURN JUMPDEST PUSH2 0x626 PUSH1 0x4 DUP1 CALLDATASIZE SUB DUP2 ADD SWAP1 PUSH2 0x621 SWAP2 SWAP1 PUSH2 0x1FE1 JUMP JUMPDEST PUSH2 0x14EE JUMP JUMPDEST PUSH1 0x40 MLOAD PUSH2 0x633 SWAP2 SWAP1 PUSH2 0x2504 JUMP JUMPDEST PUSH1 0x40 MLOAD DUP1 SWAP2 SUB SWAP1 RETURN JUMPDEST PUSH2 0x644 PUSH2 0x1503 JUMP JUMPDEST PUSH1 0x40 MLOAD PUSH2 0x651 SWAP2 SWAP1 PUSH2 0x249E JUMP JUMPDEST PUSH1 0x40 MLOAD DUP1 SWAP2 SUB SWAP1 RETURN JUMPDEST PUSH2 0x674 PUSH1 0x4 DUP1 CALLDATASIZE SUB DUP2 ADD SWAP1 PUSH2 0x66F SWAP2 SWAP1 PUSH2 0x2807 JUMP JUMPDEST PUSH2 0x1508 JUMP JUMPDEST STOP JUMPDEST PUSH2 0x690 PUSH1 0x4 DUP1 CALLDATASIZE SUB DUP2 ADD SWAP1 PUSH2 0x68B SWAP2 SWAP1 PUSH2 0x1FE1 JUMP JUMPDEST PUSH2 0x1641 JUMP JUMPDEST PUSH1 0x40 MLOAD PUSH2 0x69D SWAP2 SWAP1 PUSH2 0x1F8D JUMP JUMPDEST PUSH1 0x40 MLOAD DUP1 SWAP2 SUB SWAP1 RETURN JUMPDEST PUSH2 0x6C0 PUSH1 0x4 DUP1 CALLDATASIZE SUB DUP2 ADD SWAP1 PUSH2 0x6BB SWAP2 SWAP1 PUSH2 0x1FE1 JUMP JUMPDEST PUSH2 0x1661 JUMP JUMPDEST PUSH1 0x40 MLOAD PUSH2 0x6CD SWAP2 SWAP1 PUSH2 0x2504 JUMP JUMPDEST PUSH1 0x40 MLOAD DUP1 SWAP2 SUB SWAP1 RETURN JUMPDEST PUSH2 0x6DE PUSH2 0x1CDF JUMP JUMPDEST PUSH1 0x40 MLOAD PUSH2 0x6EB SWAP2 SWAP1 PUSH2 0x1F8D JUMP JUMPDEST PUSH1 0x40 MLOAD DUP1 SWAP2 SUB SWAP1 RETURN JUMPDEST PUSH2 0x6FC PUSH2 0x1D03 JUMP JUMPDEST PUSH1 0x40 MLOAD PUSH2 0x709 SWAP2 SWAP1 PUSH2 0x28B2 JUMP JUMPDEST PUSH1 0x40 MLOAD DUP1 SWAP2 SUB SWAP1 RETURN JUMPDEST PUSH2 0x72C PUSH1 0x4 DUP1 CALLDATASIZE SUB DUP2 ADD SWAP1 PUSH2 0x727 SWAP2 SWAP1 PUSH2 0x1FE1 JUMP JUMPDEST PUSH2 0x1D27 JUMP JUMPDEST PUSH1 0x40 MLOAD PUSH2 0x739 SWAP2 SWAP1 PUSH2 0x2504 JUMP JUMPDEST PUSH1 0x40 MLOAD DUP1 SWAP2 SUB SWAP1 RETURN JUMPDEST PUSH2 0x74A PUSH2 0x1D3C JUMP JUMPDEST PUSH1 0x40 MLOAD PUSH2 0x757 SWAP2 SWAP1 PUSH2 0x249E JUMP JUMPDEST PUSH1 0x40 MLOAD DUP1 SWAP2 SUB SWAP1 RETURN JUMPDEST PUSH1 0xD SLOAD DUP2 JUMP JUMPDEST PUSH1 0xC SLOAD DUP2 JUMP JUMPDEST PUSH1 0x6 PUSH0 SWAP1 SLOAD SWAP1 PUSH2 0x100 EXP SWAP1 DIV PUSH20 0xFFFFFFFFFFFFFFFFFFFFFFFFFFFFFFFFFFFFFFFF AND PUSH20 0xFFFFFFFFFFFFFFFFFFFFFFFFFFFFFFFFFFFFFFFF AND CALLER PUSH20 0xFFFFFFFFFFFFFFFFFFFFFFFFFFFFFFFFFFFFFFFF AND EQ PUSH2 0x7FB JUMPI PUSH1 0x40 MLOAD PUSH32 0x8C379A000000000000000000000000000000000000000000000000000000000 DUP2 MSTORE PUSH1 0x4 ADD PUSH2 0x7F2 SWAP1 PUSH2 0x293B JUMP JUMPDEST PUSH1 0x40 MLOAD DUP1 SWAP2 SUB SWAP1 REVERT JUMPDEST PUSH1 0x9 SLOAD DUP2 LT PUSH2 0x83F JUMPI PUSH1 0x40 MLOAD PUSH32 0x8C379A000000000000000000000000000000000000000000000000000000000 DUP2 MSTORE PUSH1 0x4 ADD PUSH2 0x836 SWAP1 PUSH2 0x29A3 JUMP JUMPDEST PUSH1 0x40 MLOAD DUP1 SWAP2 SUB SWAP1 REVERT JUMPDEST PUSH1 0xA PUSH0 DUP3 DUP2 MSTORE PUSH1 0x20 ADD SWAP1 DUP2 MSTORE PUSH1 0x20 ADD PUSH0 KECCAK256 PUSH0 PUSH0 DUP3 ADD PUSH0 PUSH2 0x85F SWAP2 SWAP1 PUSH2 0x1F1D JUMP JUMPDEST PUSH1 0x1 DUP3 ADD PUSH0 SWAP1 SSTORE PUSH1 0x2 DUP3 ADD PUSH0 PUSH2 0x100 EXP DUP2 SLOAD SWAP1 PUSH1 0xFF MUL NOT AND SWAP1 SSTORE POP POP DUP1 PUSH32 0x5768DF5843E58EC5B2FC92EB6EF81241E9EC50A0B93FD074DEC58B39EFC41720 PUSH1 0x40 MLOAD PUSH1 0x40 MLOAD DUP1 SWAP2 SUB SWAP1 LOG2 POP JUMP JUMPDEST PUSH1 0x4 PUSH1 0x20 MSTORE DUP1 PUSH0 MSTORE PUSH1 0x40 PUSH0 KECCAK256 PUSH0 SWAP2 POP SLOAD SWAP1 PUSH2 0x100 EXP SWAP1 DIV PUSH1 0xFF AND DUP2 JUMP JUMPDEST PUSH32 0x0 DUP2 JUMP JUMPDEST PUSH0 PUSH1 0x60 PUSH0 PUSH1 0x9 SLOAD PUSH8 0xFFFFFFFFFFFFFFFF DUP2 GT ISZERO PUSH2 0x90C JUMPI PUSH2 0x90B PUSH2 0x2315 JUMP JUMPDEST JUMPDEST PUSH1 0x40 MLOAD SWAP1 DUP1 DUP3 MSTORE DUP1 PUSH1 0x20 MUL PUSH1 0x20 ADD DUP3 ADD PUSH1 0x40 MSTORE DUP1 ISZERO PUSH2 0x93F JUMPI DUP2 PUSH1 0x20 ADD JUMPDEST PUSH1 0x60 DUP2 MSTORE PUSH1 0x20 ADD SWAP1 PUSH1 0x1 SWAP1 SUB SWAP1 DUP2 PUSH2 0x92A JUMPI SWAP1 POP JUMPDEST POP SWAP1 POP PUSH0 PUSH0 SWAP1 POP JUMPDEST PUSH1 0x9 SLOAD DUP2 LT ISZERO PUSH2 0xA16 JUMPI PUSH1 0xA PUSH0 DUP3 DUP2 MSTORE PUSH1 0x20 ADD SWAP1 DUP2 MSTORE PUSH1 0x20 ADD PUSH0 KECCAK256 PUSH0 ADD DUP1 SLOAD PUSH2 0x96F SWAP1 PUSH2 0x29EE JUMP JUMPDEST DUP1 PUSH1 0x1F ADD PUSH1 0x20 DUP1 SWAP2 DIV MUL PUSH1 0x20 ADD PUSH1 0x40 MLOAD SWAP1 DUP2 ADD PUSH1 0x40 MSTORE DUP1 SWAP3 SWAP2 SWAP1 DUP2 DUP2 MSTORE PUSH1 0x20 ADD DUP3 DUP1 SLOAD PUSH2 0x99B SWAP1 PUSH2 0x29EE JUMP JUMPDEST DUP1 ISZERO PUSH2 0x9E6 JUMPI DUP1 PUSH1 0x1F LT PUSH2 0x9BD JUMPI PUSH2 0x100 DUP1 DUP4 SLOAD DIV MUL DUP4 MSTORE SWAP2 PUSH1 0x20 ADD SWAP2 PUSH2 0x9E6 JUMP JUMPDEST DUP3 ADD SWAP2 SWAP1 PUSH0 MSTORE PUSH1 0x20 PUSH0 KECCAK256 SWAP1 JUMPDEST DUP2 SLOAD DUP2 MSTORE SWAP1 PUSH1 0x1 ADD SWAP1 PUSH1 0x20 ADD DUP1 DUP4 GT PUSH2 0x9C9 JUMPI DUP3 SWAP1 SUB PUSH1 0x1F AND DUP3 ADD SWAP2 JUMPDEST POP POP POP POP POP DUP3 DUP3 DUP2 MLOAD DUP2 LT PUSH2 0x9FE JUMPI PUSH2 0x9FD PUSH2 0x2A1E JUMP JUMPDEST JUMPDEST PUSH1 0x20 MUL PUSH1 0x20 ADD ADD DUP2 SWAP1 MSTORE POP DUP1 DUP1 PUSH1 0x1 ADD SWAP2 POP POP PUSH2 0x947 JUMP JUMPDEST POP PUSH1 0x9 SLOAD DUP2 SWAP3 POP SWAP3 POP POP SWAP1 SWAP2 JUMP JUMPDEST PUSH1 0x8 PUSH1 0x20 MSTORE DUP1 PUSH0 MSTORE PUSH1 0x40 PUSH0 KECCAK256 PUSH0 SWAP2 POP SWAP1 POP SLOAD DUP2 JUMP JUMPDEST PUSH1 0xA PUSH1 0x20 MSTORE DUP1 PUSH0 MSTORE PUSH1 0x40 PUSH0 KECCAK256 PUSH0 SWAP2 POP SWAP1 POP DUP1 PUSH0 ADD DUP1 SLOAD PUSH2 0xA58 SWAP1 PUSH2 0x29EE JUMP JUMPDEST DUP1 PUSH1 0x1F ADD PUSH1 0x20 DUP1 SWAP2 DIV MUL PUSH1 0x20 ADD PUSH1 0x40 MLOAD SWAP1 DUP2 ADD PUSH1 0x40 MSTORE DUP1 SWAP3 SWAP2 SWAP1 DUP2 DUP2 MSTORE PUSH1 0x20 ADD DUP3 DUP1 SLOAD PUSH2 0xA84 SWAP1 PUSH2 0x29EE JUMP JUMPDEST DUP1 ISZERO PUSH2 0xACF JUMPI DUP1 PUSH1 0x1F LT PUSH2 0xAA6 JUMPI PUSH2 0x100 DUP1 DUP4 SLOAD DIV MUL DUP4 MSTORE SWAP2 PUSH1 0x20 ADD SWAP2 PUSH2 0xACF JUMP JUMPDEST DUP3 ADD SWAP2 SWAP1 PUSH0 MSTORE PUSH1 0x20 PUSH0 KECCAK256 SWAP1 JUMPDEST DUP2 SLOAD DUP2 MSTORE SWAP1 PUSH1 0x1 ADD SWAP1 PUSH1 0x20 ADD DUP1 DUP4 GT PUSH2 0xAB2 JUMPI DUP3 SWAP1 SUB PUSH1 0x1F AND DUP3 ADD SWAP2 JUMPDEST POP POP POP POP POP SWAP1 DUP1 PUSH1 0x1 ADD SLOAD SWAP1 DUP1 PUSH1 0x2 ADD PUSH0 SWAP1 SLOAD SWAP1 PUSH2 0x100 EXP SWAP1 DIV PUSH1 0xFF AND SWAP1 POP DUP4 JUMP JUMPDEST PUSH32 0x30644E72E131A029B85045B68181585D2833E84879B9709143E1F593F0000001 DUP2 JUMP JUMPDEST PUSH1 0x6 PUSH0 SWAP1 SLOAD SWAP1 PUSH2 0x100 EXP SWAP1 DIV PUSH20 0xFFFFFFFFFFFFFFFFFFFFFFFFFFFFFFFFFFFFFFFF AND PUSH20 0xFFFFFFFFFFFFFFFFFFFFFFFFFFFFFFFFFFFFFFFF AND CALLER PUSH20 0xFFFFFFFFFFFFFFFFFFFFFFFFFFFFFFFFFFFFFFFF AND EQ PUSH2 0xBA4 JUMPI PUSH1 0x40 MLOAD PUSH32 0x8C379A000000000000000000000000000000000000000000000000000000000 DUP2 MSTORE PUSH1 0x4 ADD PUSH2 0xB9B SWAP1 PUSH2 0x293B JUMP JUMPDEST PUSH1 0x40 MLOAD DUP1 SWAP2 SUB SWAP1 REVERT JUMPDEST PUSH1 0x14 DUP2 MLOAD GT ISZERO PUSH2 0xBE9 JUMPI PUSH1 0x40 MLOAD PUSH32 0x8C379A000000000000000000000000000000000000000000000000000000000 DUP2 MSTORE PUSH1 0x4 ADD PUSH2 0xBE0 SWAP1 PUSH2 0x2ABB JUMP JUMPDEST PUSH1 0x40 MLOAD DUP1 SWAP2 SUB SWAP1 REVERT JUMPDEST PUSH1 0x40 MLOAD DUP1 PUSH1 0x60 ADD PUSH1 0x40 MSTORE DUP1 DUP3 DUP2 MSTORE PUSH1 0x20 ADD PUSH0 DUP2 MSTORE PUSH1 0x20 ADD PUSH1 0x1 ISZERO ISZERO DUP2 MSTORE POP PUSH1 0xA PUSH0 PUSH1 0x9 SLOAD DUP2 MSTORE PUSH1 0x20 ADD SWAP1 DUP2 MSTORE PUSH1 0x20 ADD PUSH0 KECCAK256 PUSH0 DUP3 ADD MLOAD DUP2 PUSH0 ADD SWAP1 DUP2 PUSH2 0xC2D SWAP2 SWAP1 PUSH2 0x2C70 JUMP JUMPDEST POP PUSH1 0x20 DUP3 ADD MLOAD DUP2 PUSH1 0x1 ADD SSTORE PUSH1 0x40 DUP3 ADD MLOAD DUP2 PUSH1 0x2 ADD PUSH0 PUSH2 0x100 EXP DUP2 SLOAD DUP2 PUSH1 0xFF MUL NOT AND SWAP1 DUP4 ISZERO ISZERO MUL OR SWAP1 SSTORE POP SWAP1 POP POP PUSH1 0x9 SLOAD PUSH32 0xE83B2A43E7E82D975C8A0A6D2F045153C869E111136A34D1889AB7B598E396A3 DUP3 PUSH1 0x40 MLOAD PUSH2 0xC8C SWAP2 SWAP1 PUSH2 0x2D3F JUMP JUMPDEST PUSH1 0x40 MLOAD DUP1 SWAP2 SUB SWAP1 LOG2 PUSH1 0x9 PUSH0 DUP2 SLOAD DUP1 SWAP3 SWAP2 SWAP1 PUSH2 0xCA6 SWAP1 PUSH2 0x2D8C JUMP JUMPDEST SWAP2 SWAP1 POP SSTORE POP POP JUMP JUMPDEST PUSH0 PUSH0 SWAP1 SLOAD SWAP1 PUSH2 0x100 EXP SWAP1 DIV PUSH4 0xFFFFFFFF AND DUP2 JUMP JUMPDEST PUSH1 0x9 SLOAD DUP2 JUMP JUMPDEST PUSH0 PUSH32 0x30644E72E131A029B85045B68181585D2833E84879B9709143E1F593F0000001 DUP4 LT PUSH2 0xD2B JUMPI PUSH1 0x40 MLOAD PUSH32 0x8C379A000000000000000000000000000000000000000000000000000000000 DUP2 MSTORE PUSH1 0x4 ADD PUSH2 0xD22 SWAP1 PUSH2 0x2E1D JUMP JUMPDEST PUSH1 0x40 MLOAD DUP1 SWAP2 SUB SWAP1 REVERT JUMPDEST PUSH32 0x30644E72E131A029B85045B68181585D2833E84879B9709143E1F593F0000001 DUP3 LT PUSH2 0xD8D JUMPI PUSH1 0x40 MLOAD PUSH32 0x8C379A000000000000000000000000000000000000000000000000000000000 DUP2 MSTORE PUSH1 0x4 ADD PUSH2 0xD84 SWAP1 PUSH2 0x2EAB JUMP JUMPDEST PUSH1 0x40 MLOAD DUP1 SWAP2 SUB SWAP1 REVERT JUMPDEST PUSH0 DUP4 SWAP1 POP PUSH0 PUSH0 SWAP1 POP PUSH32 0x0 PUSH20 0xFFFFFFFFFFFFFFFFFFFFFFFFFFFFFFFFFFFFFFFF AND PUSH4 0x3F1A1187 DUP4 DUP4 PUSH0 PUSH1 0x40 MLOAD DUP5 PUSH4 0xFFFFFFFF AND PUSH1 0xE0 SHL DUP2 MSTORE PUSH1 0x4 ADD PUSH2 0xDF2 SWAP4 SWAP3 SWAP2 SWAP1 PUSH2 0x2F02 JUMP JUMPDEST PUSH1 0x40 DUP1 MLOAD DUP1 DUP4 SUB DUP2 DUP7 GAS STATICCALL ISZERO DUP1 ISZERO PUSH2 0xE0C JUMPI RETURNDATASIZE PUSH0 PUSH0 RETURNDATACOPY RETURNDATASIZE PUSH0 REVERT JUMPDEST POP POP POP POP PUSH1 0x40 MLOAD RETURNDATASIZE PUSH1 0x1F NOT PUSH1 0x1F DUP3 ADD AND DUP3 ADD DUP1 PUSH1 0x40 MSTORE POP DUP2 ADD SWAP1 PUSH2 0xE30 SWAP2 SWAP1 PUSH2 0x2F4B JUMP JUMPDEST DUP1 SWAP3 POP DUP2 SWAP4 POP POP POP PUSH32 0x30644E72E131A029B85045B68181585D2833E84879B9709143E1F593F0000001 DUP1 PUSH2 0xE67 JUMPI PUSH2 0xE66 PUSH2 0x2F89 JUMP JUMPDEST JUMPDEST DUP5 DUP4 ADDMOD SWAP2 POP PUSH32 0x0 PUSH20 0xFFFFFFFFFFFFFFFFFFFFFFFFFFFFFFFFFFFFFFFF AND PUSH4 0x3F1A1187 DUP4 DUP4 PUSH0 PUSH1 0x40 MLOAD DUP5 PUSH4 0xFFFFFFFF AND PUSH1 0xE0 SHL DUP2 MSTORE PUSH1 0x4 ADD PUSH2 0xEC9 SWAP4 SWAP3 SWAP2 SWAP1 PUSH2 0x2F02 JUMP JUMPDEST PUSH1 0x40 DUP1 MLOAD DUP1 DUP4 SUB DUP2 DUP7 GAS STATICCALL ISZERO DUP1 ISZERO PUSH2 0xEE3 JUMPI RETURNDATASIZE PUSH0 PUSH0 RETURNDATACOPY RETURNDATASIZE PUSH0 REVERT JUMPDEST POP POP POP POP PUSH1 0x40 MLOAD RETURNDATASIZE PUSH1 0x1F NOT PUSH1 0x1F DUP3 ADD AND DUP3 ADD DUP1 PUSH1 0x40 MSTORE POP DUP2 ADD SWAP1 PUSH2 0xF07 SWAP2 SWAP1 PUSH2 0x2F4B JUMP JUMPDEST DUP1 SWAP3 POP DUP2 SWAP4 POP POP POP DUP2 PUSH0 SHL SWAP3 POP POP POP SWAP3 SWAP2 POP POP JUMP JUMPDEST PUSH0 PUSH1 0x7 PUSH0 DUP4 DUP2 MSTORE PUSH1 0x20 ADD SWAP1 DUP2 MSTORE PUSH1 0x20 ADD PUSH0 KECCAK256 PUSH0 SWAP1 SLOAD SWAP1 PUSH2 0x100 EXP SWAP1 DIV PUSH1 0xFF AND SWAP1 POP SWAP2 SWAP1 POP JUMP JUMPDEST PUSH0 PUSH0 PUSH0 SHL DUP3 SUB PUSH2 0xF54 JUMPI PUSH0 SWAP1 POP PUSH2 0xFD0 JUMP JUMPDEST PUSH0 PUSH1 0x3 PUSH0 SWAP1 SLOAD SWAP1 PUSH2 0x100 EXP SWAP1 DIV PUSH4 0xFFFFFFFF AND SWAP1 POP PUSH0 DUP2 SWAP1 POP JUMPDEST PUSH1 0x2 PUSH0 DUP3 PUSH4 0xFFFFFFFF AND DUP2 MSTORE PUSH1 0x20 ADD SWAP1 DUP2 MSTORE PUSH1 0x20 ADD PUSH0 KECCAK256 SLOAD DUP5 SUB PUSH2 0xF97 JUMPI PUSH1 0x1 SWAP3 POP POP POP PUSH2 0xFD0 JUMP JUMPDEST PUSH0 DUP2 PUSH4 0xFFFFFFFF AND SUB PUSH2 0xFA9 JUMPI PUSH1 0x1E SWAP1 POP JUMPDEST DUP1 DUP1 PUSH2 0xFB4 SWAP1 PUSH2 0x2FB6 JUMP JUMPDEST SWAP2 POP POP DUP2 PUSH4 0xFFFFFFFF AND DUP2 PUSH4 0xFFFFFFFF AND SUB PUSH2 0xF6E JUMPI PUSH0 SWAP3 POP POP POP JUMPDEST SWAP2 SWAP1 POP JUMP JUMPDEST PUSH1 0x6 PUSH0 SWAP1 SLOAD SWAP1 PUSH2 0x100 EXP SWAP1 DIV PUSH20 0xFFFFFFFFFFFFFFFFFFFFFFFFFFFFFFFFFFFFFFFF AND PUSH20 0xFFFFFFFFFFFFFFFFFFFFFFFFFFFFFFFFFFFFFFFF AND CALLER PUSH20 0xFFFFFFFFFFFFFFFFFFFFFFFFFFFFFFFFFFFFFFFF AND EQ PUSH2 0x1064 JUMPI PUSH1 0x40 MLOAD PUSH32 0x8C379A000000000000000000000000000000000000000000000000000000000 DUP2 MSTORE PUSH1 0x4 ADD PUSH2 0x105B SWAP1 PUSH2 0x293B JUMP JUMPDEST PUSH1 0x40 MLOAD DUP1 SWAP2 SUB SWAP1 REVERT JUMPDEST PUSH1 0xB SLOAD TIMESTAMP LT ISZERO DUP1 ISZERO PUSH2 0x1078 JUMPI POP PUSH1 0xC SLOAD TIMESTAMP GT ISZERO JUMPDEST PUSH2 0x10B7 JUMPI PUSH1 0x40 MLOAD PUSH32 0x8C379A000000000000000000000000000000000000000000000000000000000 DUP2 MSTORE PUSH1 0x4 ADD PUSH2 0x10AE SWAP1 PUSH2 0x304D JUMP JUMPDEST PUSH1 0x40 MLOAD DUP1 SWAP2 SUB SWAP1 REVERT JUMPDEST PUSH1 0x7 PUSH0 DUP4 DUP2 MSTORE PUSH1 0x20 ADD SWAP1 DUP2 MSTORE PUSH1 0x20 ADD PUSH0 KECCAK256 PUSH0 SWAP1 SLOAD SWAP1 PUSH2 0x100 EXP SWAP1 DIV PUSH1 0xFF AND ISZERO PUSH2 0x1115 JUMPI PUSH1 0x40 MLOAD PUSH32 0x8C379A000000000000000000000000000000000000000000000000000000000 DUP2 MSTORE PUSH1 0x4 ADD PUSH2 0x110C SWAP1 PUSH2 0x30DB JUMP JUMPDEST PUSH1 0x40 MLOAD DUP1 SWAP2 SUB SWAP1 REVERT JUMPDEST PUSH1 0x1 PUSH1 0x7 PUSH0 DUP5 DUP2 MSTORE PUSH1 0x20 ADD SWAP1 DUP2 MSTORE PUSH1 0x20 ADD PUSH0 KECCAK256 PUSH0 PUSH2 0x100 EXP DUP2 SLOAD DUP2 PUSH1 0xFF MUL NOT AND SWAP1 DUP4 ISZERO ISZERO MUL OR SWAP1 SSTORE POP DUP1 PUSH1 0x8 PUSH0 DUP5 DUP2 MSTORE PUSH1 0x20 ADD SWAP1 DUP2 MSTORE PUSH1 0x20 ADD PUSH0 KECCAK256 DUP2 SWAP1 SSTORE POP DUP3 PUSH20 0xFFFFFFFFFFFFFFFFFFFFFFFFFFFFFFFFFFFFFFFF AND PUSH32 0x49A90692135172B11FF45007EF12B97C37DF00BC650E48846F88DA97B191B2D0 DUP4 DUP4 PUSH1 0x40 MLOAD PUSH2 0x119C SWAP3 SWAP2 SWAP1 PUSH2 0x30F9 JUMP JUMPDEST PUSH1 0x40 MLOAD DUP1 SWAP2 SUB SWAP1 LOG2 POP POP POP JUMP JUMPDEST PUSH1 0x5 PUSH1 0x20 MSTORE DUP1 PUSH0 MSTORE PUSH1 0x40 PUSH0 KECCAK256 PUSH0 SWAP2 POP SLOAD SWAP1 PUSH2 0x100 EXP SWAP1 DIV PUSH1 0xFF AND DUP2 JUMP JUMPDEST PUSH1 0xE SLOAD DUP2 JUMP JUMPDEST PUSH0 PUSH1 0x6 PUSH0 SWAP1 SLOAD SWAP1 PUSH2 0x100 EXP SWAP1 DIV PUSH20 0xFFFFFFFFFFFFFFFFFFFFFFFFFFFFFFFFFFFFFFFF AND SWAP1 POP SWAP1 JUMP JUMPDEST PUSH1 0x6 PUSH0 SWAP1 SLOAD SWAP1 PUSH2 0x100 EXP SWAP1 DIV PUSH20 0xFFFFFFFFFFFFFFFFFFFFFFFFFFFFFFFFFFFFFFFF AND PUSH20 0xFFFFFFFFFFFFFFFFFFFFFFFFFFFFFFFFFFFFFFFF AND CALLER PUSH20 0xFFFFFFFFFFFFFFFFFFFFFFFFFFFFFFFFFFFFFFFF AND EQ PUSH2 0x1283 JUMPI PUSH1 0x40 MLOAD PUSH32 0x8C379A000000000000000000000000000000000000000000000000000000000 DUP2 MSTORE PUSH1 0x4 ADD PUSH2 0x127A SWAP1 PUSH2 0x293B JUMP JUMPDEST PUSH1 0x40 MLOAD DUP1 SWAP2 SUB SWAP1 REVERT JUMPDEST DUP1 DUP3 LT PUSH2 0x12C5 JUMPI PUSH1 0x40 MLOAD PUSH32 0x8C379A000000000000000000000000000000000000000000000000000000000 DUP2 MSTORE PUSH1 0x4 ADD PUSH2 0x12BC SWAP1 PUSH2 0x3190 JUMP JUMPDEST PUSH1 0x40 MLOAD DUP1 SWAP2 SUB SWAP1 REVERT JUMPDEST DUP2 PUSH1 0xB DUP2 SWAP1 SSTORE POP DUP1 PUSH1 0xC DUP2 SWAP1 SSTORE POP POP POP JUMP JUMPDEST PUSH1 0x6 PUSH0 SWAP1 SLOAD SWAP1 PUSH2 0x100 EXP SWAP1 DIV PUSH20 0xFFFFFFFFFFFFFFFFFFFFFFFFFFFFFFFFFFFFFFFF AND DUP2 JUMP JUMPDEST PUSH1 0x3 PUSH0 SWAP1 SLOAD SWAP1 PUSH2 0x100 EXP SWAP1 DIV PUSH4 0xFFFFFFFF AND DUP2 JUMP JUMPDEST PUSH0 PUSH1 0xA PUSH0 DUP4 DUP2 MSTORE PUSH1 0x20 ADD SWAP1 DUP2 MSTORE PUSH1 0x20 ADD PUSH0 KECCAK256 PUSH1 0x1 ADD SLOAD SWAP1 POP SWAP2 SWAP1 POP JUMP JUMPDEST PUSH1 0x6 PUSH0 SWAP1 SLOAD SWAP1 PUSH2 0x100 EXP SWAP1 DIV PUSH20 0xFFFFFFFFFFFFFFFFFFFFFFFFFFFFFFFFFFFFFFFF AND PUSH20 0xFFFFFFFFFFFFFFFFFFFFFFFFFFFFFFFFFFFFFFFF AND CALLER PUSH20 0xFFFFFFFFFFFFFFFFFFFFFFFFFFFFFFFFFFFFFFFF AND EQ PUSH2 0x13BD JUMPI PUSH1 0x40 MLOAD PUSH32 0x8C379A000000000000000000000000000000000000000000000000000000000 DUP2 MSTORE PUSH1 0x4 ADD PUSH2 0x13B4 SWAP1 PUSH2 0x293B JUMP JUMPDEST PUSH1 0x40 MLOAD DUP1 SWAP2 SUB SWAP1 REVERT JUMPDEST DUP1 DUP3 LT PUSH2 0x13FF JUMPI PUSH1 0x40 MLOAD PUSH32 0x8C379A000000000000000000000000000000000000000000000000000000000 DUP2 MSTORE PUSH1 0x4 ADD PUSH2 0x13F6 SWAP1 PUSH2 0x3190 JUMP JUMPDEST PUSH1 0x40 MLOAD DUP1 SWAP2 SUB SWAP1 REVERT JUMPDEST DUP2 PUSH1 0xD DUP2 SWAP1 SSTORE POP DUP1 PUSH1 0xE DUP2 SWAP1 SSTORE POP POP POP JUMP JUMPDEST PUSH1 0xB SLOAD DUP2 JUMP JUMPDEST PUSH1 0x60 PUSH1 0x10 DUP1 SLOAD DUP1 PUSH1 0x20 MUL PUSH1 0x20 ADD PUSH1 0x40 MLOAD SWAP1 DUP2 ADD PUSH1 0x40 MSTORE DUP1 SWAP3 SWAP2 SWAP1 DUP2 DUP2 MSTORE PUSH1 0x20 ADD DUP3 DUP1 SLOAD DUP1 ISZERO PUSH2 0x1498 JUMPI PUSH1 0x20 MUL DUP3 ADD SWAP2 SWAP1 PUSH0 MSTORE PUSH1 0x20 PUSH0 KECCAK256 SWAP1 JUMPDEST DUP2 PUSH0 SWAP1 SLOAD SWAP1 PUSH2 0x100 EXP SWAP1 DIV PUSH20 0xFFFFFFFFFFFFFFFFFFFFFFFFFFFFFFFFFFFFFFFF AND PUSH20 0xFFFFFFFFFFFFFFFFFFFFFFFFFFFFFFFFFFFFFFFF AND DUP2 MSTORE PUSH1 0x20 ADD SWAP1 PUSH1 0x1 ADD SWAP1 DUP1 DUP4 GT PUSH2 0x144F JUMPI JUMPDEST POP POP POP POP POP SWAP1 POP SWAP1 JUMP JUMPDEST PUSH0 PUSH1 0x2 PUSH0 PUSH1 0x3 PUSH0 SWAP1 SLOAD SWAP1 PUSH2 0x100 EXP SWAP1 DIV PUSH4 0xFFFFFFFF AND PUSH4 0xFFFFFFFF AND DUP2 MSTORE PUSH1 0x20 ADD SWAP1 DUP2 MSTORE PUSH1 0x20 ADD PUSH0 KECCAK256 SLOAD SWAP1 POP SWAP1 JUMP JUMPDEST PUSH1 0x7 PUSH1 0x20 MSTORE DUP1 PUSH0 MSTORE PUSH1 0x40 PUSH0 KECCAK256 PUSH0 SWAP2 POP SLOAD SWAP1 PUSH2 0x100 EXP SWAP1 DIV PUSH1 0xFF AND DUP2 JUMP JUMPDEST PUSH1 0x2 PUSH1 0x20 MSTORE DUP1 PUSH0 MSTORE PUSH1 0x40 PUSH0 KECCAK256 PUSH0 SWAP2 POP SWAP1 POP SLOAD DUP2 JUMP JUMPDEST PUSH1 0x1E DUP2 JUMP JUMPDEST PUSH1 0xD SLOAD TIMESTAMP LT ISZERO DUP1 ISZERO PUSH2 0x151C JUMPI POP PUSH1 0xE SLOAD TIMESTAMP GT ISZERO JUMPDEST PUSH2 0x155B JUMPI PUSH1 0x40 MLOAD PUSH32 0x8C379A000000000000000000000000000000000000000000000000000000000 DUP2 MSTORE PUSH1 0x4 ADD PUSH2 0x1552 SWAP1 PUSH2 0x31F8 JUMP JUMPDEST PUSH1 0x40 MLOAD DUP1 SWAP2 SUB SWAP1 REVERT JUMPDEST PUSH1 0x9 SLOAD DUP7 LT PUSH2 0x159F JUMPI PUSH1 0x40 MLOAD PUSH32 0x8C379A000000000000000000000000000000000000000000000000000000000 DUP2 MSTORE PUSH1 0x4 ADD PUSH2 0x1596 SWAP1 PUSH2 0x3260 JUMP JUMPDEST PUSH1 0x40 MLOAD DUP1 SWAP2 SUB SWAP1 REVERT JUMPDEST PUSH1 0xA PUSH0 DUP8 DUP2 MSTORE PUSH1 0x20 ADD SWAP1 DUP2 MSTORE PUSH1 0x20 ADD PUSH0 KECCAK256 PUSH1 0x2 ADD PUSH0 SWAP1 SLOAD SWAP1 PUSH2 0x100 EXP SWAP1 DIV PUSH1 0xFF AND PUSH2 0x15FF JUMPI PUSH1 0x40 MLOAD PUSH32 0x8C379A000000000000000000000000000000000000000000000000000000000 DUP2 MSTORE PUSH1 0x4 ADD PUSH2 0x15F6 SWAP1 PUSH2 0x32C8 JUMP JUMPDEST PUSH1 0x40 MLOAD DUP1 SWAP2 SUB SWAP1 REVERT JUMPDEST PUSH2 0x1610 DUP6 PUSH0 SHL DUP6 PUSH0 SHL DUP6 DUP6 DUP6 PUSH2 0x1D52 JUMP JUMPDEST PUSH1 0xA PUSH0 DUP8 DUP2 MSTORE PUSH1 0x20 ADD SWAP1 DUP2 MSTORE PUSH1 0x20 ADD PUSH0 KECCAK256 PUSH1 0x1 ADD PUSH0 DUP2 SLOAD DUP1 SWAP3 SWAP2 SWAP1 PUSH2 0x1634 SWAP1 PUSH2 0x2D8C JUMP JUMPDEST SWAP2 SWAP1 POP SSTORE POP POP POP POP POP POP POP JUMP JUMPDEST PUSH1 0xF DUP2 DUP2 SLOAD DUP2 LT PUSH2 0x1650 JUMPI PUSH0 DUP1 REVERT JUMPDEST SWAP1 PUSH0 MSTORE PUSH1 0x20 PUSH0 KECCAK256 ADD PUSH0 SWAP2 POP SWAP1 POP SLOAD DUP2 JUMP JUMPDEST PUSH0 PUSH0 DUP3 SUB PUSH2 0x1693 JUMPI PUSH32 0x2FE54C60D3ACABF3343A35B6EBA15DB4821B340F76E741E2249685ED4899AF6C PUSH0 SHL SWAP1 POP PUSH2 0x1CDA JUMP JUMPDEST PUSH1 0x1 DUP3 SUB PUSH2 0x16C5 JUMPI PUSH32 0x256A6135777EEE2FD26F54B8B7037A25439D5235CAEE224154186D2B8A52E31D PUSH0 SHL SWAP1 POP PUSH2 0x1CDA JUMP JUMPDEST PUSH1 0x2 DUP3 SUB PUSH2 0x16F7 JUMPI PUSH32 0x1151949895E82AB19924DE92C40A3D6F7BCB60D92B00504B8199613683F0C200 PUSH0 SHL SWAP1 POP PUSH2 0x1CDA JUMP JUMPDEST PUSH1 0x3 DUP3 SUB PUSH2 0x1729 JUMPI PUSH32 0x20121EE811489FF8D61F09FB89E313F14959A0F28BB428A20DBA6B0B068B3BDB PUSH0 SHL SWAP1 POP PUSH2 0x1CDA JUMP JUMPDEST PUSH1 0x4 DUP3 SUB PUSH2 0x175B JUMPI PUSH32 0xA89CA6FFA14CC462CFEDB842C30ED221A50A3D6BF022A6A57DC82AB24C157C9 PUSH0 SHL SWAP1 POP PUSH2 0x1CDA JUMP JUMPDEST PUSH1 0x5 DUP3 SUB PUSH2 0x178D JUMPI PUSH32 0x24CA05C2B5CD42E890D6BE94C68D0689F4F21C9CEC9C0F13FE41D566DFB54959 PUSH0 SHL SWAP1 POP PUSH2 0x1CDA JUMP JUMPDEST PUSH1 0x6 DUP3 SUB PUSH2 0x17BF JUMPI PUSH32 0x1CCB97C932565A92C60156BDBA2D08F3BF1377464E025CEE765679E604A7315C PUSH0 SHL SWAP1 POP PUSH2 0x1CDA JUMP JUMPDEST PUSH1 0x7 DUP3 SUB PUSH2 0x17F1 JUMPI PUSH32 0x19156FBD7D1A8BF5CBA8909367DE1B624534EBAB4F0F79E003BCCDD1B182BDB4 PUSH0 SHL SWAP1 POP PUSH2 0x1CDA JUMP JUMPDEST PUSH1 0x8 DUP3 SUB PUSH2 0x1823 JUMPI PUSH32 0x261AF8C1F0912E465744641409F622D466C3920AC6E5FF37E36604CB11DFFF80 PUSH0 SHL SWAP1 POP PUSH2 0x1CDA JUMP JUMPDEST PUSH1 0x9 DUP3 SUB PUSH2 0x1854 JUMPI PUSH31 0x58459724FF6CA5A1652FCBC3E82B93895CF08E975B19BEAB3F54C217D1C007 PUSH0 SHL SWAP1 POP PUSH2 0x1CDA JUMP JUMPDEST PUSH1 0xA DUP3 SUB PUSH2 0x1886 JUMPI PUSH32 0x1F04EF20DEE48D39984D8EABE768A70EAFA6310AD20849D4573C3C40C2AD1E30 PUSH0 SHL SWAP1 POP PUSH2 0x1CDA JUMP JUMPDEST PUSH1 0xB DUP3 SUB PUSH2 0x18B8 JUMPI PUSH32 0x1BEA3DEC5DAB51567CE7E200A30F7BA6D4276AEAA53E2686F962A46C66D511E5 PUSH0 SHL SWAP1 POP PUSH2 0x1CDA JUMP JUMPDEST PUSH1 0xC DUP3 SUB PUSH2 0x18EA JUMPI PUSH32 0xEE0F941E2DA4B9E31C3CA97A40D8FA9CE68D97C084177071B3CB46CD3372F0F PUSH0 SHL SWAP1 POP PUSH2 0x1CDA JUMP JUMPDEST PUSH1 0xD DUP3 SUB PUSH2 0x191C JUMPI PUSH32 0x1CA9503E8935884501BBAF20BE14EB4C46B89772C97B96E3B2EBF3A36A948BBD PUSH0 SHL SWAP1 POP PUSH2 0x1CDA JUMP JUMPDEST PUSH1 0xE DUP3 SUB PUSH2 0x194E JUMPI PUSH32 0x133A80E30697CD55D8F7D4B0965B7BE24057BA5DC3DA898EE2187232446CB108 PUSH0 SHL SWAP1 POP PUSH2 0x1CDA JUMP JUMPDEST PUSH1 0xF DUP3 SUB PUSH2 0x1980 JUMPI PUSH32 0x13E6D8FC88839ED76E182C2A779AF5B2C0DA9DD18C90427A644F7E148A6253B6 PUSH0 SHL SWAP1 POP PUSH2 0x1CDA JUMP JUMPDEST PUSH1 0x10 DUP3 SUB PUSH2 0x19B2 JUMPI PUSH32 0x1EB16B057A477F4BC8F572EA6BEE39561098F78F15BFB3699DCBB7BD8DB61854 PUSH0 SHL SWAP1 POP PUSH2 0x1CDA JUMP JUMPDEST PUSH1 0x11 DUP3 SUB PUSH2 0x19E4 JUMPI PUSH32 0xDA2CB16A1CEAABF1C16B838F7A9E3F2A3A3088D9E0A6DEBAA748114620696EA PUSH0 SHL SWAP1 POP PUSH2 0x1CDA JUMP JUMPDEST PUSH1 0x12 DUP3 SUB PUSH2 0x1A16 JUMPI PUSH32 0x24A3B3D822420B14B5D8CB6C28A574F01E98EA9E940551D2EBD75CEE12649F9D PUSH0 SHL SWAP1 POP PUSH2 0x1CDA JUMP JUMPDEST PUSH1 0x13 DUP3 SUB PUSH2 0x1A48 JUMPI PUSH32 0x198622ACBD783D1B0D9064105B1FC8E4D8889DE95C4C519B3F635809FE6AFC05 PUSH0 SHL SWAP1 POP PUSH2 0x1CDA JUMP JUMPDEST PUSH1 0x14 DUP3 SUB PUSH2 0x1A7A JUMPI PUSH32 0x29D7ED391256CCC3EA596C86E933B89FF339D25EA8DDCED975AE2FE30B5296D4 PUSH0 SHL SWAP1 POP PUSH2 0x1CDA JUMP JUMPDEST PUSH1 0x15 DUP3 SUB PUSH2 0x1AAC JUMPI PUSH32 0x19BE59F2F0413CE78C0C3703A3A5451B1D7F39629FA33ABD11548A76065B2967 PUSH0 SHL SWAP1 POP PUSH2 0x1CDA JUMP JUMPDEST PUSH1 0x16 DUP3 SUB PUSH2 0x1ADE JUMPI PUSH32 0x1FF3F61797E538B70E619310D33F2A063E7EB59104E112E95738DA1254DC3453 PUSH0 SHL SWAP1 POP PUSH2 0x1CDA JUMP JUMPDEST PUSH1 0x17 DUP3 SUB PUSH2 0x1B10 JUMPI PUSH32 0x10C16AE9959CF8358980D9DD9616E48228737310A10E2B6B731C1A548F036C48 PUSH0 SHL SWAP1 POP PUSH2 0x1CDA JUMP JUMPDEST PUSH1 0x18 DUP3 SUB PUSH2 0x1B42 JUMPI PUSH32 0xBA433A63174A90AC20992E75E3095496812B652685B5E1A2EAE0B1BF4E8FCD1 PUSH0 SHL SWAP1 POP PUSH2 0x1CDA JUMP JUMPDEST PUSH1 0x19 DUP3 SUB PUSH2 0x1B74 JUMPI PUSH32 0x19DDB9DF2BC98D987D0DFECA9D2B643DEAFAB8F7036562E627C3667266A044C PUSH0 SHL SWAP1 POP PUSH2 0x1CDA JUMP JUMPDEST PUSH1 0x1A DUP3 SUB PUSH2 0x1BA6 JUMPI PUSH32 0x2D3C88B23175C5A5565DB928414C66D1912B11ACF974B2E644CAAAC04739CE99 PUSH0 SHL SWAP1 POP PUSH2 0x1CDA JUMP JUMPDEST PUSH1 0x1B DUP3 SUB PUSH2 0x1BD8 JUMPI PUSH32 0x2EAB55F6AE4E66E32C5189EED5C470840863445760F5ED7E7B69B2A62600F354 PUSH0 SHL SWAP1 POP PUSH2 0x1CDA JUMP JUMPDEST PUSH1 0x1C DUP3 SUB PUSH2 0x1C09 JUMPI PUSH31 0x2DF37A2642621802383CF952BF4DD1F32E05433BEEB1FD41031FB7EACE979D PUSH0 SHL SWAP1 POP PUSH2 0x1CDA JUMP JUMPDEST PUSH1 0x1D DUP3 SUB PUSH2 0x1C3B JUMPI PUSH32 0x104AEB41435DB66C3E62FECCC1D6F5D98D0A0ED75D1374DB457CF462E3A1F427 PUSH0 SHL SWAP1 POP PUSH2 0x1CDA JUMP JUMPDEST PUSH1 0x1E DUP3 SUB PUSH2 0x1C6D JUMPI PUSH32 0x1F3C6FD858E9A7D4B0D1F38E256A09D81D5A5E3C963987E2D4B814CFAB7C6EBB PUSH0 SHL SWAP1 POP PUSH2 0x1CDA JUMP JUMPDEST PUSH1 0x1F DUP3 SUB PUSH2 0x1C9F JUMPI PUSH32 0x2C7A07D20DFF79D01FECEDC1134284A8D08436606C93693B67E333F671BF69CC PUSH0 SHL SWAP1 POP PUSH2 0x1CDA JUMP JUMPDEST PUSH1 0x40 MLOAD PUSH32 0x8C379A000000000000000000000000000000000000000000000000000000000 DUP2 MSTORE PUSH1 0x4 ADD PUSH2 0x1CD1 SWAP1 PUSH2 0x3330 JUMP JUMPDEST PUSH1 0x40 MLOAD DUP1 SWAP2 SUB SWAP1 REVERT JUMPDEST SWAP2 SWAP1 POP JUMP JUMPDEST PUSH32 0x2FE54C60D3ACABF3343A35B6EBA15DB4821B340F76E741E2249685ED4899AF6C DUP2 JUMP JUMPDEST PUSH32 0x0 DUP2 JUMP JUMPDEST PUSH1 0x1 PUSH1 0x20 MSTORE DUP1 PUSH0 MSTORE PUSH1 0x40 PUSH0 KECCAK256 PUSH0 SWAP2 POP SWAP1 POP SLOAD DUP2 JUMP JUMPDEST PUSH1 0x3 PUSH1 0x4 SWAP1 SLOAD SWAP1 PUSH2 0x100 EXP SWAP1 DIV PUSH4 0xFFFFFFFF AND DUP2 JUMP JUMPDEST PUSH1 0x4 PUSH0 DUP7 DUP2 MSTORE PUSH1 0x20 ADD SWAP1 DUP2 MSTORE PUSH1 0x20 ADD PUSH0 KECCAK256 PUSH0 SWAP1 SLOAD SWAP1 PUSH2 0x100 EXP SWAP1 DIV PUSH1 0xFF AND ISZERO PUSH2 0x1DB0 JUMPI PUSH1 0x40 MLOAD PUSH32 0x8C379A000000000000000000000000000000000000000000000000000000000 DUP2 MSTORE PUSH1 0x4 ADD PUSH2 0x1DA7 SWAP1 PUSH2 0x3398 JUMP JUMPDEST PUSH1 0x40 MLOAD DUP1 SWAP2 SUB SWAP1 REVERT JUMPDEST PUSH2 0x1DB9 DUP5 PUSH2 0xF42 JUMP JUMPDEST PUSH2 0x1DF8 JUMPI PUSH1 0x40 MLOAD PUSH32 0x8C379A000000000000000000000000000000000000000000000000000000000 DUP2 MSTORE PUSH1 0x4 ADD PUSH2 0x1DEF SWAP1 PUSH2 0x3400 JUMP JUMPDEST PUSH1 0x40 MLOAD DUP1 SWAP2 SUB SWAP1 REVERT JUMPDEST PUSH32 0x0 PUSH20 0xFFFFFFFFFFFFFFFFFFFFFFFFFFFFFFFFFFFFFFFF AND PUSH4 0xF5C9D69E DUP5 DUP5 DUP5 PUSH1 0x40 MLOAD DUP1 PUSH1 0x40 ADD PUSH1 0x40 MSTORE DUP1 DUP12 PUSH0 SHR DUP2 MSTORE PUSH1 0x20 ADD DUP11 PUSH0 SHR DUP2 MSTORE POP PUSH1 0x40 MLOAD DUP6 PUSH4 0xFFFFFFFF AND PUSH1 0xE0 SHL DUP2 MSTORE PUSH1 0x4 ADD PUSH2 0x1E6F SWAP5 SWAP4 SWAP3 SWAP2 SWAP1 PUSH2 0x35B9 JUMP JUMPDEST PUSH1 0x20 PUSH1 0x40 MLOAD DUP1 DUP4 SUB DUP2 DUP7 GAS STATICCALL ISZERO DUP1 ISZERO PUSH2 0x1E8A JUMPI RETURNDATASIZE PUSH0 PUSH0 RETURNDATACOPY RETURNDATASIZE PUSH0 REVERT JUMPDEST POP POP POP POP PUSH1 0x40 MLOAD RETURNDATASIZE PUSH1 0x1F NOT PUSH1 0x1F DUP3 ADD AND DUP3 ADD DUP1 PUSH1 0x40 MSTORE POP DUP2 ADD SWAP1 PUSH2 0x1EAE SWAP2 SWAP1 PUSH2 0x3628 JUMP JUMPDEST PUSH2 0x1EED JUMPI PUSH1 0x40 MLOAD PUSH32 0x8C379A000000000000000000000000000000000000000000000000000000000 DUP2 MSTORE PUSH1 0x4 ADD PUSH2 0x1EE4 SWAP1 PUSH2 0x369D JUMP JUMPDEST PUSH1 0x40 MLOAD DUP1 SWAP2 SUB SWAP1 REVERT JUMPDEST PUSH1 0x1 PUSH1 0x4 PUSH0 DUP8 DUP2 MSTORE PUSH1 0x20 ADD SWAP1 DUP2 MSTORE PUSH1 0x20 ADD PUSH0 KECCAK256 PUSH0 PUSH2 0x100 EXP DUP2 SLOAD DUP2 PUSH1 0xFF MUL NOT AND SWAP1 DUP4 ISZERO ISZERO MUL OR SWAP1 SSTORE POP POP POP POP POP POP JUMP JUMPDEST POP DUP1 SLOAD PUSH2 0x1F29 SWAP1 PUSH2 0x29EE JUMP JUMPDEST PUSH0 DUP3 SSTORE DUP1 PUSH1 0x1F LT PUSH2 0x1F3A JUMPI POP PUSH2 0x1F57 JUMP JUMPDEST PUSH1 0x1F ADD PUSH1 0x20 SWAP1 DIV SWAP1 PUSH0 MSTORE PUSH1 0x20 PUSH0 KECCAK256 SWAP1 DUP2 ADD SWAP1 PUSH2 0x1F56 SWAP2 SWAP1 PUSH2 0x1F5A JUMP JUMPDEST JUMPDEST POP JUMP JUMPDEST JUMPDEST DUP1 DUP3 GT ISZERO PUSH2 0x1F71 JUMPI PUSH0 DUP2 PUSH0 SWAP1 SSTORE POP PUSH1 0x1 ADD PUSH2 0x1F5B JUMP JUMPDEST POP SWAP1 JUMP JUMPDEST PUSH0 DUP2 SWAP1 POP SWAP2 SWAP1 POP JUMP JUMPDEST PUSH2 0x1F87 DUP2 PUSH2 0x1F75 JUMP JUMPDEST DUP3 MSTORE POP POP JUMP JUMPDEST PUSH0 PUSH1 0x20 DUP3 ADD SWAP1 POP PUSH2 0x1FA0 PUSH0 DUP4 ADD DUP5 PUSH2 0x1F7E JUMP JUMPDEST SWAP3 SWAP2 POP POP JUMP JUMPDEST PUSH0 PUSH1 0x40 MLOAD SWAP1 POP SWAP1 JUMP JUMPDEST PUSH0 PUSH0 REVERT JUMPDEST PUSH0 PUSH0 REVERT JUMPDEST PUSH2 0x1FC0 DUP2 PUSH2 0x1F75 JUMP JUMPDEST DUP2 EQ PUSH2 0x1FCA JUMPI PUSH0 PUSH0 REVERT JUMPDEST POP JUMP JUMPDEST PUSH0 DUP2 CALLDATALOAD SWAP1 POP PUSH2 0x1FDB DUP2 PUSH2 0x1FB7 JUMP JUMPDEST SWAP3 SWAP2 POP POP JUMP JUMPDEST PUSH0 PUSH1 0x20 DUP3 DUP5 SUB SLT ISZERO PUSH2 0x1FF6 JUMPI PUSH2 0x1FF5 PUSH2 0x1FAF JUMP JUMPDEST JUMPDEST PUSH0 PUSH2 0x2003 DUP5 DUP3 DUP6 ADD PUSH2 0x1FCD JUMP JUMPDEST SWAP2 POP POP SWAP3 SWAP2 POP POP JUMP JUMPDEST PUSH0 DUP2 SWAP1 POP SWAP2 SWAP1 POP JUMP JUMPDEST PUSH2 0x201E DUP2 PUSH2 0x200C JUMP JUMPDEST DUP2 EQ PUSH2 0x2028 JUMPI PUSH0 PUSH0 REVERT JUMPDEST POP JUMP JUMPDEST PUSH0 DUP2 CALLDATALOAD SWAP1 POP PUSH2 0x2039 DUP2 PUSH2 0x2015 JUMP JUMPDEST SWAP3 SWAP2 POP POP JUMP JUMPDEST PUSH0 PUSH1 0x20 DUP3 DUP5 SUB SLT ISZERO PUSH2 0x2054 JUMPI PUSH2 0x2053 PUSH2 0x1FAF JUMP JUMPDEST JUMPDEST PUSH0 PUSH2 0x2061 DUP5 DUP3 DUP6 ADD PUSH2 0x202B JUMP JUMPDEST SWAP2 POP POP SWAP3 SWAP2 POP POP JUMP JUMPDEST PUSH0 DUP2 ISZERO ISZERO SWAP1 POP SWAP2 SWAP1 POP JUMP JUMPDEST PUSH2 0x207E DUP2 PUSH2 0x206A JUMP JUMPDEST DUP3 MSTORE POP POP JUMP JUMPDEST PUSH0 PUSH1 0x20 DUP3 ADD SWAP1 POP PUSH2 0x2097 PUSH0 DUP4 ADD DUP5 PUSH2 0x2075 JUMP JUMPDEST SWAP3 SWAP2 POP POP JUMP JUMPDEST PUSH0 PUSH20 0xFFFFFFFFFFFFFFFFFFFFFFFFFFFFFFFFFFFFFFFF DUP3 AND SWAP1 POP SWAP2 SWAP1 POP JUMP JUMPDEST PUSH0 DUP2 SWAP1 POP SWAP2 SWAP1 POP JUMP JUMPDEST PUSH0 PUSH2 0x20DF PUSH2 0x20DA PUSH2 0x20D5 DUP5 PUSH2 0x209D JUMP JUMPDEST PUSH2 0x20BC JUMP JUMPDEST PUSH2 0x209D JUMP JUMPDEST SWAP1 POP SWAP2 SWAP1 POP JUMP JUMPDEST PUSH0 PUSH2 0x20F0 DUP3 PUSH2 0x20C5 JUMP JUMPDEST SWAP1 POP SWAP2 SWAP1 POP JUMP JUMPDEST PUSH0 PUSH2 0x2101 DUP3 PUSH2 0x20E6 JUMP JUMPDEST SWAP1 POP SWAP2 SWAP1 POP JUMP JUMPDEST PUSH2 0x2111 DUP2 PUSH2 0x20F7 JUMP JUMPDEST DUP3 MSTORE POP POP JUMP JUMPDEST PUSH0 PUSH1 0x20 DUP3 ADD SWAP1 POP PUSH2 0x212A PUSH0 DUP4 ADD DUP5 PUSH2 0x2108 JUMP JUMPDEST SWAP3 SWAP2 POP POP JUMP JUMPDEST PUSH0 DUP2 MLOAD SWAP1 POP SWAP2 SWAP1 POP JUMP JUMPDEST PUSH0 DUP3 DUP3 MSTORE PUSH1 0x20 DUP3 ADD SWAP1 POP SWAP3 SWAP2 POP POP JUMP JUMPDEST PUSH0 DUP2 SWAP1 POP PUSH1 0x20 DUP3 ADD SWAP1 POP SWAP2 SWAP1 POP JUMP JUMPDEST PUSH0 DUP2 MLOAD SWAP1 POP SWAP2 SWAP1 POP JUMP JUMPDEST PUSH0 DUP3 DUP3 MSTORE PUSH1 0x20 DUP3 ADD SWAP1 POP SWAP3 SWAP2 POP POP JUMP JUMPDEST DUP3 DUP2 DUP4 MCOPY PUSH0 DUP4 DUP4 ADD MSTORE POP POP POP JUMP JUMPDEST PUSH0 PUSH1 0x1F NOT PUSH1 0x1F DUP4 ADD AND SWAP1 POP SWAP2 SWAP1 POP JUMP JUMPDEST PUSH0 PUSH2 0x219B DUP3 PUSH2 0x2159 JUMP JUMPDEST PUSH2 0x21A5 DUP2 DUP6 PUSH2 0x2163 JUMP JUMPDEST SWAP4 POP PUSH2 0x21B5 DUP2 DUP6 PUSH1 0x20 DUP7 ADD PUSH2 0x2173 JUMP JUMPDEST PUSH2 0x21BE DUP2 PUSH2 0x2181 JUMP JUMPDEST DUP5 ADD SWAP2 POP POP SWAP3 SWAP2 POP POP JUMP JUMPDEST PUSH0 PUSH2 0x21D4 DUP4 DUP4 PUSH2 0x2191 JUMP JUMPDEST SWAP1 POP SWAP3 SWAP2 POP POP JUMP JUMPDEST PUSH0 PUSH1 0x20 DUP3 ADD SWAP1 POP SWAP2 SWAP1 POP JUMP JUMPDEST PUSH0 PUSH2 0x21F2 DUP3 PUSH2 0x2130 JUMP JUMPDEST PUSH2 0x21FC DUP2 DUP6 PUSH2 0x213A JUMP JUMPDEST SWAP4 POP DUP4 PUSH1 0x20 DUP3 MUL DUP6 ADD PUSH2 0x220E DUP6 PUSH2 0x214A JUMP JUMPDEST DUP1 PUSH0 JUMPDEST DUP6 DUP2 LT ISZERO PUSH2 0x2249 JUMPI DUP5 DUP5 SUB DUP10 MSTORE DUP2 MLOAD PUSH2 0x222A DUP6 DUP3 PUSH2 0x21C9 JUMP JUMPDEST SWAP5 POP PUSH2 0x2235 DUP4 PUSH2 0x21DC JUMP JUMPDEST SWAP3 POP PUSH1 0x20 DUP11 ADD SWAP10 POP POP PUSH1 0x1 DUP2 ADD SWAP1 POP PUSH2 0x2211 JUMP JUMPDEST POP DUP3 SWAP8 POP DUP8 SWAP6 POP POP POP POP POP POP SWAP3 SWAP2 POP POP JUMP JUMPDEST PUSH0 PUSH1 0x40 DUP3 ADD SWAP1 POP PUSH2 0x226E PUSH0 DUP4 ADD DUP6 PUSH2 0x1F7E JUMP JUMPDEST DUP2 DUP2 SUB PUSH1 0x20 DUP4 ADD MSTORE PUSH2 0x2280 DUP2 DUP5 PUSH2 0x21E8 JUMP JUMPDEST SWAP1 POP SWAP4 SWAP3 POP POP POP JUMP JUMPDEST PUSH0 DUP3 DUP3 MSTORE PUSH1 0x20 DUP3 ADD SWAP1 POP SWAP3 SWAP2 POP POP JUMP JUMPDEST PUSH0 PUSH2 0x22A3 DUP3 PUSH2 0x2159 JUMP JUMPDEST PUSH2 0x22AD DUP2 DUP6 PUSH2 0x2289 JUMP JUMPDEST SWAP4 POP PUSH2 0x22BD DUP2 DUP6 PUSH1 0x20 DUP7 ADD PUSH2 0x2173 JUMP JUMPDEST PUSH2 0x22C6 DUP2 PUSH2 0x2181 JUMP JUMPDEST DUP5 ADD SWAP2 POP POP SWAP3 SWAP2 POP POP JUMP JUMPDEST PUSH0 PUSH1 0x60 DUP3 ADD SWAP1 POP DUP2 DUP2 SUB PUSH0 DUP4 ADD MSTORE PUSH2 0x22E9 DUP2 DUP7 PUSH2 0x2299 JUMP JUMPDEST SWAP1 POP PUSH2 0x22F8 PUSH1 0x20 DUP4 ADD DUP6 PUSH2 0x1F7E JUMP JUMPDEST PUSH2 0x2305 PUSH1 0x40 DUP4 ADD DUP5 PUSH2 0x2075 JUMP JUMPDEST SWAP5 SWAP4 POP POP POP POP JUMP JUMPDEST PUSH0 PUSH0 REVERT JUMPDEST PUSH0 PUSH0 REVERT JUMPDEST PUSH32 0x4E487B7100000000000000000000000000000000000000000000000000000000 PUSH0 MSTORE PUSH1 0x41 PUSH1 0x4 MSTORE PUSH1 0x24 PUSH0 REVERT JUMPDEST PUSH2 0x234B DUP3 PUSH2 0x2181 JUMP JUMPDEST DUP2 ADD DUP2 DUP2 LT PUSH8 0xFFFFFFFFFFFFFFFF DUP3 GT OR ISZERO PUSH2 0x236A JUMPI PUSH2 0x2369 PUSH2 0x2315 JUMP JUMPDEST JUMPDEST DUP1 PUSH1 0x40 MSTORE POP POP POP JUMP JUMPDEST PUSH0 PUSH2 0x237C PUSH2 0x1FA6 JUMP JUMPDEST SWAP1 POP PUSH2 0x2388 DUP3 DUP3 PUSH2 0x2342 JUMP JUMPDEST SWAP2 SWAP1 POP JUMP JUMPDEST PUSH0 PUSH8 0xFFFFFFFFFFFFFFFF DUP3 GT ISZERO PUSH2 0x23A7 JUMPI PUSH2 0x23A6 PUSH2 0x2315 JUMP JUMPDEST JUMPDEST PUSH2 0x23B0 DUP3 PUSH2 0x2181 JUMP JUMPDEST SWAP1 POP PUSH1 0x20 DUP2 ADD SWAP1 POP SWAP2 SWAP1 POP JUMP JUMPDEST DUP3 DUP2 DUP4 CALLDATACOPY PUSH0 DUP4 DUP4 ADD MSTORE POP POP POP JUMP JUMPDEST PUSH0 PUSH2 0x23DD PUSH2 0x23D8 DUP5 PUSH2 0x238D JUMP JUMPDEST PUSH2 0x2373 JUMP JUMPDEST SWAP1 POP DUP3 DUP2 MSTORE PUSH1 0x20 DUP2 ADD DUP5 DUP5 DUP5 ADD GT ISZERO PUSH2 0x23F9 JUMPI PUSH2 0x23F8 PUSH2 0x2311 JUMP JUMPDEST JUMPDEST PUSH2 0x2404 DUP5 DUP3 DUP6 PUSH2 0x23BD JUMP JUMPDEST POP SWAP4 SWAP3 POP POP POP JUMP JUMPDEST PUSH0 DUP3 PUSH1 0x1F DUP4 ADD SLT PUSH2 0x2420 JUMPI PUSH2 0x241F PUSH2 0x230D JUMP JUMPDEST JUMPDEST DUP2 CALLDATALOAD PUSH2 0x2430 DUP5 DUP3 PUSH1 0x20 DUP7 ADD PUSH2 0x23CB JUMP JUMPDEST SWAP2 POP POP SWAP3 SWAP2 POP POP JUMP JUMPDEST PUSH0 PUSH1 0x20 DUP3 DUP5 SUB SLT ISZERO PUSH2 0x244E JUMPI PUSH2 0x244D PUSH2 0x1FAF JUMP JUMPDEST JUMPDEST PUSH0 DUP3 ADD CALLDATALOAD PUSH8 0xFFFFFFFFFFFFFFFF DUP2 GT ISZERO PUSH2 0x246B JUMPI PUSH2 0x246A PUSH2 0x1FB3 JUMP JUMPDEST JUMPDEST PUSH2 0x2477 DUP5 DUP3 DUP6 ADD PUSH2 0x240C JUMP JUMPDEST SWAP2 POP POP SWAP3 SWAP2 POP POP JUMP JUMPDEST PUSH0 PUSH4 0xFFFFFFFF DUP3 AND SWAP1 POP SWAP2 SWAP1 POP JUMP JUMPDEST PUSH2 0x2498 DUP2 PUSH2 0x2480 JUMP JUMPDEST DUP3 MSTORE POP POP JUMP JUMPDEST PUSH0 PUSH1 0x20 DUP3 ADD SWAP1 POP PUSH2 0x24B1 PUSH0 DUP4 ADD DUP5 PUSH2 0x248F JUMP JUMPDEST SWAP3 SWAP2 POP POP JUMP JUMPDEST PUSH0 PUSH0 PUSH1 0x40 DUP4 DUP6 SUB SLT ISZERO PUSH2 0x24CD JUMPI PUSH2 0x24CC PUSH2 0x1FAF JUMP JUMPDEST JUMPDEST PUSH0 PUSH2 0x24DA DUP6 DUP3 DUP7 ADD PUSH2 0x1FCD JUMP JUMPDEST SWAP3 POP POP PUSH1 0x20 PUSH2 0x24EB DUP6 DUP3 DUP7 ADD PUSH2 0x1FCD JUMP JUMPDEST SWAP2 POP POP SWAP3 POP SWAP3 SWAP1 POP JUMP JUMPDEST PUSH2 0x24FE DUP2 PUSH2 0x200C JUMP JUMPDEST DUP3 MSTORE POP POP JUMP JUMPDEST PUSH0 PUSH1 0x20 DUP3 ADD SWAP1 POP PUSH2 0x2517 PUSH0 DUP4 ADD DUP5 PUSH2 0x24F5 JUMP JUMPDEST SWAP3 SWAP2 POP POP JUMP JUMPDEST PUSH0 PUSH2 0x2527 DUP3 PUSH2 0x209D JUMP JUMPDEST SWAP1 POP SWAP2 SWAP1 POP JUMP JUMPDEST PUSH2 0x2537 DUP2 PUSH2 0x251D JUMP JUMPDEST DUP2 EQ PUSH2 0x2541 JUMPI PUSH0 PUSH0 REVERT JUMPDEST POP JUMP JUMPDEST PUSH0 DUP2 CALLDATALOAD SWAP1 POP PUSH2 0x2552 DUP2 PUSH2 0x252E JUMP JUMPDEST SWAP3 SWAP2 POP POP JUMP JUMPDEST PUSH0 PUSH0 PUSH0 PUSH1 0x60 DUP5 DUP7 SUB SLT ISZERO PUSH2 0x256F JUMPI PUSH2 0x256E PUSH2 0x1FAF JUMP JUMPDEST JUMPDEST PUSH0 PUSH2 0x257C DUP7 DUP3 DUP8 ADD PUSH2 0x2544 JUMP JUMPDEST SWAP4 POP POP PUSH1 0x20 PUSH2 0x258D DUP7 DUP3 DUP8 ADD PUSH2 0x1FCD JUMP JUMPDEST SWAP3 POP POP PUSH1 0x40 PUSH2 0x259E DUP7 DUP3 DUP8 ADD PUSH2 0x1FCD JUMP JUMPDEST SWAP2 POP POP SWAP3 POP SWAP3 POP SWAP3 JUMP JUMPDEST PUSH2 0x25B1 DUP2 PUSH2 0x251D JUMP JUMPDEST DUP3 MSTORE POP POP JUMP JUMPDEST PUSH0 PUSH1 0x20 DUP3 ADD SWAP1 POP PUSH2 0x25CA PUSH0 DUP4 ADD DUP5 PUSH2 0x25A8 JUMP JUMPDEST SWAP3 SWAP2 POP POP JUMP JUMPDEST PUSH0 DUP2 MLOAD SWAP1 POP SWAP2 SWAP1 POP JUMP JUMPDEST PUSH0 DUP3 DUP3 MSTORE PUSH1 0x20 DUP3 ADD SWAP1 POP SWAP3 SWAP2 POP POP JUMP JUMPDEST PUSH0 DUP2 SWAP1 POP PUSH1 0x20 DUP3 ADD SWAP1 POP SWAP2 SWAP1 POP JUMP JUMPDEST PUSH2 0x2602 DUP2 PUSH2 0x251D JUMP JUMPDEST DUP3 MSTORE POP POP JUMP JUMPDEST PUSH0 PUSH2 0x2613 DUP4 DUP4 PUSH2 0x25F9 JUMP JUMPDEST PUSH1 0x20 DUP4 ADD SWAP1 POP SWAP3 SWAP2 POP POP JUMP JUMPDEST PUSH0 PUSH1 0x20 DUP3 ADD SWAP1 POP SWAP2 SWAP1 POP JUMP JUMPDEST PUSH0 PUSH2 0x2635 DUP3 PUSH2 0x25D0 JUMP JUMPDEST PUSH2 0x263F DUP2 DUP6 PUSH2 0x25DA JUMP JUMPDEST SWAP4 POP PUSH2 0x264A DUP4 PUSH2 0x25EA JUMP JUMPDEST DUP1 PUSH0 JUMPDEST DUP4 DUP2 LT ISZERO PUSH2 0x267A JUMPI DUP2 MLOAD PUSH2 0x2661 DUP9 DUP3 PUSH2 0x2608 JUMP JUMPDEST SWAP8 POP PUSH2 0x266C DUP4 PUSH2 0x261F JUMP JUMPDEST SWAP3 POP POP PUSH1 0x1 DUP2 ADD SWAP1 POP PUSH2 0x264D JUMP JUMPDEST POP DUP6 SWAP4 POP POP POP POP SWAP3 SWAP2 POP POP JUMP JUMPDEST PUSH0 PUSH1 0x20 DUP3 ADD SWAP1 POP DUP2 DUP2 SUB PUSH0 DUP4 ADD MSTORE PUSH2 0x269F DUP2 DUP5 PUSH2 0x262B JUMP JUMPDEST SWAP1 POP SWAP3 SWAP2 POP POP JUMP JUMPDEST PUSH0 PUSH8 0xFFFFFFFFFFFFFFFF DUP3 GT ISZERO PUSH2 0x26C1 JUMPI PUSH2 0x26C0 PUSH2 0x2315 JUMP JUMPDEST JUMPDEST PUSH1 0x20 DUP3 MUL SWAP1 POP SWAP2 SWAP1 POP JUMP JUMPDEST PUSH0 PUSH0 REVERT JUMPDEST PUSH0 PUSH2 0x26E2 PUSH2 0x26DD DUP5 PUSH2 0x26A7 JUMP JUMPDEST PUSH2 0x2373 JUMP JUMPDEST SWAP1 POP DUP1 PUSH1 0x20 DUP5 MUL DUP4 ADD DUP6 DUP2 GT ISZERO PUSH2 0x26FC JUMPI PUSH2 0x26FB PUSH2 0x26CC JUMP JUMPDEST JUMPDEST DUP4 JUMPDEST DUP2 DUP2 LT ISZERO PUSH2 0x2725 JUMPI DUP1 PUSH2 0x2711 DUP9 DUP3 PUSH2 0x1FCD JUMP JUMPDEST DUP5 MSTORE PUSH1 0x20 DUP5 ADD SWAP4 POP POP PUSH1 0x20 DUP2 ADD SWAP1 POP PUSH2 0x26FE JUMP JUMPDEST POP POP POP SWAP4 SWAP3 POP POP POP JUMP JUMPDEST PUSH0 DUP3 PUSH1 0x1F DUP4 ADD SLT PUSH2 0x2743 JUMPI PUSH2 0x2742 PUSH2 0x230D JUMP JUMPDEST JUMPDEST PUSH1 0x2 PUSH2 0x2750 DUP5 DUP3 DUP6 PUSH2 0x26D0 JUMP JUMPDEST SWAP2 POP POP SWAP3 SWAP2 POP POP JUMP JUMPDEST PUSH0 PUSH8 0xFFFFFFFFFFFFFFFF DUP3 GT ISZERO PUSH2 0x2773 JUMPI PUSH2 0x2772 PUSH2 0x2315 JUMP JUMPDEST JUMPDEST PUSH1 0x20 DUP3 MUL SWAP1 POP SWAP2 SWAP1 POP JUMP JUMPDEST PUSH0 PUSH2 0x2790 PUSH2 0x278B DUP5 PUSH2 0x2759 JUMP JUMPDEST PUSH2 0x2373 JUMP JUMPDEST SWAP1 POP DUP1 PUSH1 0x40 DUP5 MUL DUP4 ADD DUP6 DUP2 GT ISZERO PUSH2 0x27AA JUMPI PUSH2 0x27A9 PUSH2 0x26CC JUMP JUMPDEST JUMPDEST DUP4 JUMPDEST DUP2 DUP2 LT ISZERO PUSH2 0x27D3 JUMPI DUP1 PUSH2 0x27BF DUP9 DUP3 PUSH2 0x272F JUMP JUMPDEST DUP5 MSTORE PUSH1 0x20 DUP5 ADD SWAP4 POP POP PUSH1 0x40 DUP2 ADD SWAP1 POP PUSH2 0x27AC JUMP JUMPDEST POP POP POP SWAP4 SWAP3 POP POP POP JUMP JUMPDEST PUSH0 DUP3 PUSH1 0x1F DUP4 ADD SLT PUSH2 0x27F1 JUMPI PUSH2 0x27F0 PUSH2 0x230D JUMP JUMPDEST JUMPDEST PUSH1 0x2 PUSH2 0x27FE DUP5 DUP3 DUP6 PUSH2 0x277E JUMP JUMPDEST SWAP2 POP POP SWAP3 SWAP2 POP POP JUMP JUMPDEST PUSH0 PUSH0 PUSH0 PUSH0 PUSH0 PUSH0 PUSH2 0x160 DUP8 DUP10 SUB SLT ISZERO PUSH2 0x2822 JUMPI PUSH2 0x2821 PUSH2 0x1FAF JUMP JUMPDEST JUMPDEST PUSH0 PUSH2 0x282F DUP10 DUP3 DUP11 ADD PUSH2 0x1FCD JUMP JUMPDEST SWAP7 POP POP PUSH1 0x20 PUSH2 0x2840 DUP10 DUP3 DUP11 ADD PUSH2 0x1FCD JUMP JUMPDEST SWAP6 POP POP PUSH1 0x40 PUSH2 0x2851 DUP10 DUP3 DUP11 ADD PUSH2 0x1FCD JUMP JUMPDEST SWAP5 POP POP PUSH1 0x60 PUSH2 0x2862 DUP10 DUP3 DUP11 ADD PUSH2 0x272F JUMP JUMPDEST SWAP4 POP POP PUSH1 0xA0 PUSH2 0x2873 DUP10 DUP3 DUP11 ADD PUSH2 0x27DD JUMP JUMPDEST SWAP3 POP POP PUSH2 0x120 PUSH2 0x2885 DUP10 DUP3 DUP11 ADD PUSH2 0x272F JUMP JUMPDEST SWAP2 POP POP SWAP3 SWAP6 POP SWAP3 SWAP6 POP SWAP3 SWAP6 JUMP JUMPDEST PUSH0 PUSH2 0x289C DUP3 PUSH2 0x20E6 JUMP JUMPDEST SWAP1 POP SWAP2 SWAP1 POP JUMP JUMPDEST PUSH2 0x28AC DUP2 PUSH2 0x2892 JUMP JUMPDEST DUP3 MSTORE POP POP JUMP JUMPDEST PUSH0 PUSH1 0x20 DUP3 ADD SWAP1 POP PUSH2 0x28C5 PUSH0 DUP4 ADD DUP5 PUSH2 0x28A3 JUMP JUMPDEST SWAP3 SWAP2 POP POP JUMP JUMPDEST PUSH32 0x4F6E6C79206F776E65722063616E20706572666F726D20746869732061637469 PUSH0 DUP3 ADD MSTORE PUSH32 0x6F6E210000000000000000000000000000000000000000000000000000000000 PUSH1 0x20 DUP3 ADD MSTORE POP JUMP JUMPDEST PUSH0 PUSH2 0x2925 PUSH1 0x23 DUP4 PUSH2 0x2289 JUMP JUMPDEST SWAP2 POP PUSH2 0x2930 DUP3 PUSH2 0x28CB JUMP JUMPDEST PUSH1 0x40 DUP3 ADD SWAP1 POP SWAP2 SWAP1 POP JUMP JUMPDEST PUSH0 PUSH1 0x20 DUP3 ADD SWAP1 POP DUP2 DUP2 SUB PUSH0 DUP4 ADD MSTORE PUSH2 0x2952 DUP2 PUSH2 0x2919 JUMP JUMPDEST SWAP1 POP SWAP2 SWAP1 POP JUMP JUMPDEST PUSH32 0x496E76616C69642063616E646964617465204944210000000000000000000000 PUSH0 DUP3 ADD MSTORE POP JUMP JUMPDEST PUSH0 PUSH2 0x298D PUSH1 0x15 DUP4 PUSH2 0x2289 JUMP JUMPDEST SWAP2 POP PUSH2 0x2998 DUP3 PUSH2 0x2959 JUMP JUMPDEST PUSH1 0x20 DUP3 ADD SWAP1 POP SWAP2 SWAP1 POP JUMP JUMPDEST PUSH0 PUSH1 0x20 DUP3 ADD SWAP1 POP DUP2 DUP2 SUB PUSH0 DUP4 ADD MSTORE PUSH2 0x29BA DUP2 PUSH2 0x2981 JUMP JUMPDEST SWAP1 POP SWAP2 SWAP1 POP JUMP JUMPDEST PUSH32 0x4E487B7100000000000000000000000000000000000000000000000000000000 PUSH0 MSTORE PUSH1 0x22 PUSH1 0x4 MSTORE PUSH1 0x24 PUSH0 REVERT JUMPDEST PUSH0 PUSH1 0x2 DUP3 DIV SWAP1 POP PUSH1 0x1 DUP3 AND DUP1 PUSH2 0x2A05 JUMPI PUSH1 0x7F DUP3 AND SWAP2 POP JUMPDEST PUSH1 0x20 DUP3 LT DUP2 SUB PUSH2 0x2A18 JUMPI PUSH2 0x2A17 PUSH2 0x29C1 JUMP JUMPDEST JUMPDEST POP SWAP2 SWAP1 POP JUMP JUMPDEST PUSH32 0x4E487B7100000000000000000000000000000000000000000000000000000000 PUSH0 MSTORE PUSH1 0x32 PUSH1 0x4 MSTORE PUSH1 0x24 PUSH0 REVERT JUMPDEST PUSH32 0x4E616D65206D7573742062652032302063686172616374657273206F72206C65 PUSH0 DUP3 ADD MSTORE PUSH32 0x7373000000000000000000000000000000000000000000000000000000000000 PUSH1 0x20 DUP3 ADD MSTORE POP JUMP JUMPDEST PUSH0 PUSH2 0x2AA5 PUSH1 0x22 DUP4 PUSH2 0x2289 JUMP JUMPDEST SWAP2 POP PUSH2 0x2AB0 DUP3 PUSH2 0x2A4B JUMP JUMPDEST PUSH1 0x40 DUP3 ADD SWAP1 POP SWAP2 SWAP1 POP JUMP JUMPDEST PUSH0 PUSH1 0x20 DUP3 ADD SWAP1 POP DUP2 DUP2 SUB PUSH0 DUP4 ADD MSTORE PUSH2 0x2AD2 DUP2 PUSH2 0x2A99 JUMP JUMPDEST SWAP1 POP SWAP2 SWAP1 POP JUMP JUMPDEST PUSH0 DUP2 SWAP1 POP DUP2 PUSH0 MSTORE PUSH1 0x20 PUSH0 KECCAK256 SWAP1 POP SWAP2 SWAP1 POP JUMP JUMPDEST PUSH0 PUSH1 0x20 PUSH1 0x1F DUP4 ADD DIV SWAP1 POP SWAP2 SWAP1 POP JUMP JUMPDEST PUSH0 DUP3 DUP3 SHL SWAP1 POP SWAP3 SWAP2 POP POP JUMP JUMPDEST PUSH0 PUSH1 0x8 DUP4 MUL PUSH2 0x2B35 PUSH32 0xFFFFFFFFFFFFFFFFFFFFFFFFFFFFFFFFFFFFFFFFFFFFFFFFFFFFFFFFFFFFFFFF DUP3 PUSH2 0x2AFA JUMP JUMPDEST PUSH2 0x2B3F DUP7 DUP4 PUSH2 0x2AFA JUMP JUMPDEST SWAP6 POP DUP1 NOT DUP5 AND SWAP4 POP DUP1 DUP7 AND DUP5 OR SWAP3 POP POP POP SWAP4 SWAP3 POP POP POP JUMP JUMPDEST PUSH0 PUSH2 0x2B71 PUSH2 0x2B6C PUSH2 0x2B67 DUP5 PUSH2 0x1F75 JUMP JUMPDEST PUSH2 0x20BC JUMP JUMPDEST PUSH2 0x1F75 JUMP JUMPDEST SWAP1 POP SWAP2 SWAP1 POP JUMP JUMPDEST PUSH0 DUP2 SWAP1 POP SWAP2 SWAP1 POP JUMP JUMPDEST PUSH2 0x2B8A DUP4 PUSH2 0x2B57 JUMP JUMPDEST PUSH2 0x2B9E PUSH2 0x2B96 DUP3 PUSH2 0x2B78 JUMP JUMPDEST DUP5 DUP5 SLOAD PUSH2 0x2B06 JUMP JUMPDEST DUP3 SSTORE POP POP POP POP JUMP JUMPDEST PUSH0 PUSH0 SWAP1 POP SWAP1 JUMP JUMPDEST PUSH2 0x2BB5 PUSH2 0x2BA6 JUMP JUMPDEST PUSH2 0x2BC0 DUP2 DUP5 DUP5 PUSH2 0x2B81 JUMP JUMPDEST POP POP POP JUMP JUMPDEST JUMPDEST DUP2 DUP2 LT ISZERO PUSH2 0x2BE3 JUMPI PUSH2 0x2BD8 PUSH0 DUP3 PUSH2 0x2BAD JUMP JUMPDEST PUSH1 0x1 DUP2 ADD SWAP1 POP PUSH2 0x2BC6 JUMP JUMPDEST POP POP JUMP JUMPDEST PUSH1 0x1F DUP3 GT ISZERO PUSH2 0x2C28 JUMPI PUSH2 0x2BF9 DUP2 PUSH2 0x2AD9 JUMP JUMPDEST PUSH2 0x2C02 DUP5 PUSH2 0x2AEB JUMP JUMPDEST DUP2 ADD PUSH1 0x20 DUP6 LT ISZERO PUSH2 0x2C11 JUMPI DUP2 SWAP1 POP JUMPDEST PUSH2 0x2C25 PUSH2 0x2C1D DUP6 PUSH2 0x2AEB JUMP JUMPDEST DUP4 ADD DUP3 PUSH2 0x2BC5 JUMP JUMPDEST POP POP JUMPDEST POP POP POP JUMP JUMPDEST PUSH0 DUP3 DUP3 SHR SWAP1 POP SWAP3 SWAP2 POP POP JUMP JUMPDEST PUSH0 PUSH2 0x2C48 PUSH0 NOT DUP5 PUSH1 0x8 MUL PUSH2 0x2C2D JUMP JUMPDEST NOT DUP1 DUP4 AND SWAP2 POP POP SWAP3 SWAP2 POP POP JUMP JUMPDEST PUSH0 PUSH2 0x2C60 DUP4 DUP4 PUSH2 0x2C39 JUMP JUMPDEST SWAP2 POP DUP3 PUSH1 0x2 MUL DUP3 OR SWAP1 POP SWAP3 SWAP2 POP POP JUMP JUMPDEST PUSH2 0x2C79 DUP3 PUSH2 0x2159 JUMP JUMPDEST PUSH8 0xFFFFFFFFFFFFFFFF DUP2 GT ISZERO PUSH2 0x2C92 JUMPI PUSH2 0x2C91 PUSH2 0x2315 JUMP JUMPDEST JUMPDEST PUSH2 0x2C9C DUP3 SLOAD PUSH2 0x29EE JUMP JUMPDEST PUSH2 0x2CA7 DUP3 DUP3 DUP6 PUSH2 0x2BE7 JUMP JUMPDEST PUSH0 PUSH1 0x20 SWAP1 POP PUSH1 0x1F DUP4 GT PUSH1 0x1 DUP2 EQ PUSH2 0x2CD8 JUMPI PUSH0 DUP5 ISZERO PUSH2 0x2CC6 JUMPI DUP3 DUP8 ADD MLOAD SWAP1 POP JUMPDEST PUSH2 0x2CD0 DUP6 DUP3 PUSH2 0x2C55 JUMP JUMPDEST DUP7 SSTORE POP PUSH2 0x2D37 JUMP JUMPDEST PUSH1 0x1F NOT DUP5 AND PUSH2 0x2CE6 DUP7 PUSH2 0x2AD9 JUMP JUMPDEST PUSH0 JUMPDEST DUP3 DUP2 LT ISZERO PUSH2 0x2D0D JUMPI DUP5 DUP10 ADD MLOAD DUP3 SSTORE PUSH1 0x1 DUP3 ADD SWAP2 POP PUSH1 0x20 DUP6 ADD SWAP5 POP PUSH1 0x20 DUP2 ADD SWAP1 POP PUSH2 0x2CE8 JUMP JUMPDEST DUP7 DUP4 LT ISZERO PUSH2 0x2D2A JUMPI DUP5 DUP10 ADD MLOAD PUSH2 0x2D26 PUSH1 0x1F DUP10 AND DUP3 PUSH2 0x2C39 JUMP JUMPDEST DUP4 SSTORE POP JUMPDEST PUSH1 0x1 PUSH1 0x2 DUP9 MUL ADD DUP9 SSTORE POP POP POP JUMPDEST POP POP POP POP POP POP JUMP JUMPDEST PUSH0 PUSH1 0x20 DUP3 ADD SWAP1 POP DUP2 DUP2 SUB PUSH0 DUP4 ADD MSTORE PUSH2 0x2D57 DUP2 DUP5 PUSH2 0x2299 JUMP JUMPDEST SWAP1 POP SWAP3 SWAP2 POP POP JUMP JUMPDEST PUSH32 0x4E487B7100000000000000000000000000000000000000000000000000000000 PUSH0 MSTORE PUSH1 0x11 PUSH1 0x4 MSTORE PUSH1 0x24 PUSH0 REVERT JUMPDEST PUSH0 PUSH2 0x2D96 DUP3 PUSH2 0x1F75 JUMP JUMPDEST SWAP2 POP PUSH32 0xFFFFFFFFFFFFFFFFFFFFFFFFFFFFFFFFFFFFFFFFFFFFFFFFFFFFFFFFFFFFFFFF DUP3 SUB PUSH2 0x2DC8 JUMPI PUSH2 0x2DC7 PUSH2 0x2D5F JUMP JUMPDEST JUMPDEST PUSH1 0x1 DUP3 ADD SWAP1 POP SWAP2 SWAP1 POP JUMP JUMPDEST PUSH32 0x5F6C6566742073686F756C6420626520696E7369646520746865206669656C64 PUSH0 DUP3 ADD MSTORE POP JUMP JUMPDEST PUSH0 PUSH2 0x2E07 PUSH1 0x20 DUP4 PUSH2 0x2289 JUMP JUMPDEST SWAP2 POP PUSH2 0x2E12 DUP3 PUSH2 0x2DD3 JUMP JUMPDEST PUSH1 0x20 DUP3 ADD SWAP1 POP SWAP2 SWAP1 POP JUMP JUMPDEST PUSH0 PUSH1 0x20 DUP3 ADD SWAP1 POP DUP2 DUP2 SUB PUSH0 DUP4 ADD MSTORE PUSH2 0x2E34 DUP2 PUSH2 0x2DFB JUMP JUMPDEST SWAP1 POP SWAP2 SWAP1 POP JUMP JUMPDEST PUSH32 0x5F72696768742073686F756C6420626520696E7369646520746865206669656C PUSH0 DUP3 ADD MSTORE PUSH32 0x6400000000000000000000000000000000000000000000000000000000000000 PUSH1 0x20 DUP3 ADD MSTORE POP JUMP JUMPDEST PUSH0 PUSH2 0x2E95 PUSH1 0x21 DUP4 PUSH2 0x2289 JUMP JUMPDEST SWAP2 POP PUSH2 0x2EA0 DUP3 PUSH2 0x2E3B JUMP JUMPDEST PUSH1 0x40 DUP3 ADD SWAP1 POP SWAP2 SWAP1 POP JUMP JUMPDEST PUSH0 PUSH1 0x20 DUP3 ADD SWAP1 POP DUP2 DUP2 SUB PUSH0 DUP4 ADD MSTORE PUSH2 0x2EC2 DUP2 PUSH2 0x2E89 JUMP JUMPDEST SWAP1 POP SWAP2 SWAP1 POP JUMP JUMPDEST PUSH0 DUP2 SWAP1 POP SWAP2 SWAP1 POP JUMP JUMPDEST PUSH0 PUSH2 0x2EEC PUSH2 0x2EE7 PUSH2 0x2EE2 DUP5 PUSH2 0x2EC9 JUMP JUMPDEST PUSH2 0x20BC JUMP JUMPDEST PUSH2 0x1F75 JUMP JUMPDEST SWAP1 POP SWAP2 SWAP1 POP JUMP JUMPDEST PUSH2 0x2EFC DUP2 PUSH2 0x2ED2 JUMP JUMPDEST DUP3 MSTORE POP POP JUMP JUMPDEST PUSH0 PUSH1 0x60 DUP3 ADD SWAP1 POP PUSH2 0x2F15 PUSH0 DUP4 ADD DUP7 PUSH2 0x1F7E JUMP JUMPDEST PUSH2 0x2F22 PUSH1 0x20 DUP4 ADD DUP6 PUSH2 0x1F7E JUMP JUMPDEST PUSH2 0x2F2F PUSH1 0x40 DUP4 ADD DUP5 PUSH2 0x2EF3 JUMP JUMPDEST SWAP5 SWAP4 POP POP POP POP JUMP JUMPDEST PUSH0 DUP2 MLOAD SWAP1 POP PUSH2 0x2F45 DUP2 PUSH2 0x1FB7 JUMP JUMPDEST SWAP3 SWAP2 POP POP JUMP JUMPDEST PUSH0 PUSH0 PUSH1 0x40 DUP4 DUP6 SUB SLT ISZERO PUSH2 0x2F61 JUMPI PUSH2 0x2F60 PUSH2 0x1FAF JUMP JUMPDEST JUMPDEST PUSH0 PUSH2 0x2F6E DUP6 DUP3 DUP7 ADD PUSH2 0x2F37 JUMP JUMPDEST SWAP3 POP POP PUSH1 0x20 PUSH2 0x2F7F DUP6 DUP3 DUP7 ADD PUSH2 0x2F37 JUMP JUMPDEST SWAP2 POP POP SWAP3 POP SWAP3 SWAP1 POP JUMP JUMPDEST PUSH32 0x4E487B7100000000000000000000000000000000000000000000000000000000 PUSH0 MSTORE PUSH1 0x12 PUSH1 0x4 MSTORE PUSH1 0x24 PUSH0 REVERT JUMPDEST PUSH0 PUSH2 0x2FC0 DUP3 PUSH2 0x2480 JUMP JUMPDEST SWAP2 POP PUSH0 DUP3 SUB PUSH2 0x2FD2 JUMPI PUSH2 0x2FD1 PUSH2 0x2D5F JUMP JUMPDEST JUMPDEST PUSH1 0x1 DUP3 SUB SWAP1 POP SWAP2 SWAP1 POP JUMP JUMPDEST PUSH32 0x4E6F742077697468696E2074686520726567697374726174696F6E2070657269 PUSH0 DUP3 ADD MSTORE PUSH32 0x6F64210000000000000000000000000000000000000000000000000000000000 PUSH1 0x20 DUP3 ADD MSTORE POP JUMP JUMPDEST PUSH0 PUSH2 0x3037 PUSH1 0x23 DUP4 PUSH2 0x2289 JUMP JUMPDEST SWAP2 POP PUSH2 0x3042 DUP3 PUSH2 0x2FDD JUMP JUMPDEST PUSH1 0x40 DUP3 ADD SWAP1 POP SWAP2 SWAP1 POP JUMP JUMPDEST PUSH0 PUSH1 0x20 DUP3 ADD SWAP1 POP DUP2 DUP2 SUB PUSH0 DUP4 ADD MSTORE PUSH2 0x3064 DUP2 PUSH2 0x302B JUMP JUMPDEST SWAP1 POP SWAP2 SWAP1 POP JUMP JUMPDEST PUSH32 0x5468697320756E69717565206861736820697320616C72656164792075736564 PUSH0 DUP3 ADD MSTORE PUSH32 0x2100000000000000000000000000000000000000000000000000000000000000 PUSH1 0x20 DUP3 ADD MSTORE POP JUMP JUMPDEST PUSH0 PUSH2 0x30C5 PUSH1 0x21 DUP4 PUSH2 0x2289 JUMP JUMPDEST SWAP2 POP PUSH2 0x30D0 DUP3 PUSH2 0x306B JUMP JUMPDEST PUSH1 0x40 DUP3 ADD SWAP1 POP SWAP2 SWAP1 POP JUMP JUMPDEST PUSH0 PUSH1 0x20 DUP3 ADD SWAP1 POP DUP2 DUP2 SUB PUSH0 DUP4 ADD MSTORE PUSH2 0x30F2 DUP2 PUSH2 0x30B9 JUMP JUMPDEST SWAP1 POP SWAP2 SWAP1 POP JUMP JUMPDEST PUSH0 PUSH1 0x40 DUP3 ADD SWAP1 POP PUSH2 0x310C PUSH0 DUP4 ADD DUP6 PUSH2 0x1F7E JUMP JUMPDEST PUSH2 0x3119 PUSH1 0x20 DUP4 ADD DUP5 PUSH2 0x1F7E JUMP JUMPDEST SWAP4 SWAP3 POP POP POP JUMP JUMPDEST PUSH32 0x53746172742074696D65206D757374206265206265666F726520656E64207469 PUSH0 DUP3 ADD MSTORE PUSH32 0x6D65000000000000000000000000000000000000000000000000000000000000 PUSH1 0x20 DUP3 ADD MSTORE POP JUMP JUMPDEST PUSH0 PUSH2 0x317A PUSH1 0x22 DUP4 PUSH2 0x2289 JUMP JUMPDEST SWAP2 POP PUSH2 0x3185 DUP3 PUSH2 0x3120 JUMP JUMPDEST PUSH1 0x40 DUP3 ADD SWAP1 POP SWAP2 SWAP1 POP JUMP JUMPDEST PUSH0 PUSH1 0x20 DUP3 ADD SWAP1 POP DUP2 DUP2 SUB PUSH0 DUP4 ADD MSTORE PUSH2 0x31A7 DUP2 PUSH2 0x316E JUMP JUMPDEST SWAP1 POP SWAP2 SWAP1 POP JUMP JUMPDEST PUSH32 0x4E6F742077697468696E2074686520766F74696E6720706572696F6421000000 PUSH0 DUP3 ADD MSTORE POP JUMP JUMPDEST PUSH0 PUSH2 0x31E2 PUSH1 0x1D DUP4 PUSH2 0x2289 JUMP JUMPDEST SWAP2 POP PUSH2 0x31ED DUP3 PUSH2 0x31AE JUMP JUMPDEST PUSH1 0x20 DUP3 ADD SWAP1 POP SWAP2 SWAP1 POP JUMP JUMPDEST PUSH0 PUSH1 0x20 DUP3 ADD SWAP1 POP DUP2 DUP2 SUB PUSH0 DUP4 ADD MSTORE PUSH2 0x320F DUP2 PUSH2 0x31D6 JUMP JUMPDEST SWAP1 POP SWAP2 SWAP1 POP JUMP JUMPDEST PUSH32 0x496E76616C69642063616E646964617465210000000000000000000000000000 PUSH0 DUP3 ADD MSTORE POP JUMP JUMPDEST PUSH0 PUSH2 0x324A PUSH1 0x12 DUP4 PUSH2 0x2289 JUMP JUMPDEST SWAP2 POP PUSH2 0x3255 DUP3 PUSH2 0x3216 JUMP JUMPDEST PUSH1 0x20 DUP3 ADD SWAP1 POP SWAP2 SWAP1 POP JUMP JUMPDEST PUSH0 PUSH1 0x20 DUP3 ADD SWAP1 POP DUP2 DUP2 SUB PUSH0 DUP4 ADD MSTORE PUSH2 0x3277 DUP2 PUSH2 0x323E JUMP JUMPDEST SWAP1 POP SWAP2 SWAP1 POP JUMP JUMPDEST PUSH32 0x43616E64696461746520646F6573206E6F742065786973742100000000000000 PUSH0 DUP3 ADD MSTORE POP JUMP JUMPDEST PUSH0 PUSH2 0x32B2 PUSH1 0x19 DUP4 PUSH2 0x2289 JUMP JUMPDEST SWAP2 POP PUSH2 0x32BD DUP3 PUSH2 0x327E JUMP JUMPDEST PUSH1 0x20 DUP3 ADD SWAP1 POP SWAP2 SWAP1 POP JUMP JUMPDEST PUSH0 PUSH1 0x20 DUP3 ADD SWAP1 POP DUP2 DUP2 SUB PUSH0 DUP4 ADD MSTORE PUSH2 0x32DF DUP2 PUSH2 0x32A6 JUMP JUMPDEST SWAP1 POP SWAP2 SWAP1 POP JUMP JUMPDEST PUSH32 0x496E646578206F7574206F6620626F756E647300000000000000000000000000 PUSH0 DUP3 ADD MSTORE POP JUMP JUMPDEST PUSH0 PUSH2 0x331A PUSH1 0x13 DUP4 PUSH2 0x2289 JUMP JUMPDEST SWAP2 POP PUSH2 0x3325 DUP3 PUSH2 0x32E6 JUMP JUMPDEST PUSH1 0x20 DUP3 ADD SWAP1 POP SWAP2 SWAP1 POP JUMP JUMPDEST PUSH0 PUSH1 0x20 DUP3 ADD SWAP1 POP DUP2 DUP2 SUB PUSH0 DUP4 ADD MSTORE PUSH2 0x3347 DUP2 PUSH2 0x330E JUMP JUMPDEST SWAP1 POP SWAP2 SWAP1 POP JUMP JUMPDEST PUSH32 0x546865206E756C6C696669657220686173206265656E207375626D6974746564 PUSH0 DUP3 ADD MSTORE POP JUMP JUMPDEST PUSH0 PUSH2 0x3382 PUSH1 0x20 DUP4 PUSH2 0x2289 JUMP JUMPDEST SWAP2 POP PUSH2 0x338D DUP3 PUSH2 0x334E JUMP JUMPDEST PUSH1 0x20 DUP3 ADD SWAP1 POP SWAP2 SWAP1 POP JUMP JUMPDEST PUSH0 PUSH1 0x20 DUP3 ADD SWAP1 POP DUP2 DUP2 SUB PUSH0 DUP4 ADD MSTORE PUSH2 0x33AF DUP2 PUSH2 0x3376 JUMP JUMPDEST SWAP1 POP SWAP2 SWAP1 POP JUMP JUMPDEST PUSH32 0x43616E6E6F742066696E6420796F7572206D65726B6C6520726F6F7400000000 PUSH0 DUP3 ADD MSTORE POP JUMP JUMPDEST PUSH0 PUSH2 0x33EA PUSH1 0x1C DUP4 PUSH2 0x2289 JUMP JUMPDEST SWAP2 POP PUSH2 0x33F5 DUP3 PUSH2 0x33B6 JUMP JUMPDEST PUSH1 0x20 DUP3 ADD SWAP1 POP SWAP2 SWAP1 POP JUMP JUMPDEST PUSH0 PUSH1 0x20 DUP3 ADD SWAP1 POP DUP2 DUP2 SUB PUSH0 DUP4 ADD MSTORE PUSH2 0x3417 DUP2 PUSH2 0x33DE JUMP JUMPDEST SWAP1 POP SWAP2 SWAP1 POP JUMP JUMPDEST PUSH0 PUSH1 0x2 SWAP1 POP SWAP2 SWAP1 POP JUMP JUMPDEST PUSH0 DUP2 SWAP1 POP SWAP3 SWAP2 POP POP JUMP JUMPDEST PUSH0 DUP2 SWAP1 POP SWAP2 SWAP1 POP JUMP JUMPDEST PUSH2 0x3444 DUP2 PUSH2 0x1F75 JUMP JUMPDEST DUP3 MSTORE POP POP JUMP JUMPDEST PUSH0 PUSH2 0x3455 DUP4 DUP4 PUSH2 0x343B JUMP JUMPDEST PUSH1 0x20 DUP4 ADD SWAP1 POP SWAP3 SWAP2 POP POP JUMP JUMPDEST PUSH0 PUSH1 0x20 DUP3 ADD SWAP1 POP SWAP2 SWAP1 POP JUMP JUMPDEST PUSH2 0x3476 DUP2 PUSH2 0x341E JUMP JUMPDEST PUSH2 0x3480 DUP2 DUP5 PUSH2 0x3428 JUMP JUMPDEST SWAP3 POP PUSH2 0x348B DUP3 PUSH2 0x3432 JUMP JUMPDEST DUP1 PUSH0 JUMPDEST DUP4 DUP2 LT ISZERO PUSH2 0x34BB JUMPI DUP2 MLOAD PUSH2 0x34A2 DUP8 DUP3 PUSH2 0x344A JUMP JUMPDEST SWAP7 POP PUSH2 0x34AD DUP4 PUSH2 0x3461 JUMP JUMPDEST SWAP3 POP POP PUSH1 0x1 DUP2 ADD SWAP1 POP PUSH2 0x348E JUMP JUMPDEST POP POP POP POP POP POP JUMP JUMPDEST PUSH0 PUSH1 0x2 SWAP1 POP SWAP2 SWAP1 POP JUMP JUMPDEST PUSH0 DUP2 SWAP1 POP SWAP3 SWAP2 POP POP JUMP JUMPDEST PUSH0 DUP2 SWAP1 POP SWAP2 SWAP1 POP JUMP JUMPDEST PUSH0 DUP2 SWAP1 POP SWAP3 SWAP2 POP POP JUMP JUMPDEST PUSH2 0x34F3 DUP2 PUSH2 0x341E JUMP JUMPDEST PUSH2 0x34FD DUP2 DUP5 PUSH2 0x34E0 JUMP JUMPDEST SWAP3 POP PUSH2 0x3508 DUP3 PUSH2 0x3432 JUMP JUMPDEST DUP1 PUSH0 JUMPDEST DUP4 DUP2 LT ISZERO PUSH2 0x3538 JUMPI DUP2 MLOAD PUSH2 0x351F DUP8 DUP3 PUSH2 0x344A JUMP JUMPDEST SWAP7 POP PUSH2 0x352A DUP4 PUSH2 0x3461 JUMP JUMPDEST SWAP3 POP POP PUSH1 0x1 DUP2 ADD SWAP1 POP PUSH2 0x350B JUMP JUMPDEST POP POP POP POP POP POP JUMP JUMPDEST PUSH0 PUSH2 0x354B DUP4 DUP4 PUSH2 0x34EA JUMP JUMPDEST PUSH1 0x40 DUP4 ADD SWAP1 POP SWAP3 SWAP2 POP POP JUMP JUMPDEST PUSH0 PUSH1 0x20 DUP3 ADD SWAP1 POP SWAP2 SWAP1 POP JUMP JUMPDEST PUSH2 0x356C DUP2 PUSH2 0x34C3 JUMP JUMPDEST PUSH2 0x3576 DUP2 DUP5 PUSH2 0x34CD JUMP JUMPDEST SWAP3 POP PUSH2 0x3581 DUP3 PUSH2 0x34D7 JUMP JUMPDEST DUP1 PUSH0 JUMPDEST DUP4 DUP2 LT ISZERO PUSH2 0x35B1 JUMPI DUP2 MLOAD PUSH2 0x3598 DUP8 DUP3 PUSH2 0x3540 JUMP JUMPDEST SWAP7 POP PUSH2 0x35A3 DUP4 PUSH2 0x3557 JUMP JUMPDEST SWAP3 POP POP PUSH1 0x1 DUP2 ADD SWAP1 POP PUSH2 0x3584 JUMP JUMPDEST POP POP POP POP POP POP JUMP JUMPDEST PUSH0 PUSH2 0x140 DUP3 ADD SWAP1 POP PUSH2 0x35CD PUSH0 DUP4 ADD DUP8 PUSH2 0x346D JUMP JUMPDEST PUSH2 0x35DA PUSH1 0x40 DUP4 ADD DUP7 PUSH2 0x3563 JUMP JUMPDEST PUSH2 0x35E7 PUSH1 0xC0 DUP4 ADD DUP6 PUSH2 0x346D JUMP JUMPDEST PUSH2 0x35F5 PUSH2 0x100 DUP4 ADD DUP5 PUSH2 0x346D JUMP JUMPDEST SWAP6 SWAP5 POP POP POP POP POP JUMP JUMPDEST PUSH2 0x3607 DUP2 PUSH2 0x206A JUMP JUMPDEST DUP2 EQ PUSH2 0x3611 JUMPI PUSH0 PUSH0 REVERT JUMPDEST POP JUMP JUMPDEST PUSH0 DUP2 MLOAD SWAP1 POP PUSH2 0x3622 DUP2 PUSH2 0x35FE JUMP JUMPDEST SWAP3 SWAP2 POP POP JUMP JUMPDEST PUSH0 PUSH1 0x20 DUP3 DUP5 SUB SLT ISZERO PUSH2 0x363D JUMPI PUSH2 0x363C PUSH2 0x1FAF JUMP JUMPDEST JUMPDEST PUSH0 PUSH2 0x364A DUP5 DUP3 DUP6 ADD PUSH2 0x3614 JUMP JUMPDEST SWAP2 POP POP SWAP3 SWAP2 POP POP JUMP JUMPDEST PUSH32 0x496E76616C69642070726F6F6600000000000000000000000000000000000000 PUSH0 DUP3 ADD MSTORE POP JUMP JUMPDEST PUSH0 PUSH2 0x3687 PUSH1 0xD DUP4 PUSH2 0x2289 JUMP JUMPDEST SWAP2 POP PUSH2 0x3692 DUP3 PUSH2 0x3653 JUMP JUMPDEST PUSH1 0x20 DUP3 ADD SWAP1 POP SWAP2 SWAP1 POP JUMP JUMPDEST PUSH0 PUSH1 0x20 DUP3 ADD SWAP1 POP DUP2 DUP2 SUB PUSH0 DUP4 ADD MSTORE PUSH2 0x36B4 DUP2 PUSH2 0x367B JUMP JUMPDEST SWAP1 POP SWAP2 SWAP1 POP JUMP INVALID LOG2 PUSH5 0x6970667358 0x22 SLT KECCAK256 CALLDATASIZE SWAP10 0xC0 PUSH23 0x5CDF611B7660961E07FADCF8AFFFB17D8947A71D8BB9FC 0xAE 0xD1 SWAP5 DUP15 PUSH14 0x64736F6C634300081B0033000000 "
		},
		"gasEstimates": {
			"creation": {
				"codeDepositCost": "2813000",
				"executionCost": "infinite",
				"totalCost": "infinite"
			},
			"external": {
				"FIELD_SIZE()": "459",
				"ROOT_HISTORY_SIZE()": "420",
				"ZERO_VALUE()": "391",
				"addCandidate(string)": "infinite",
				"candidates(uint256)": "infinite",
				"commitments(bytes32)": "2896",
				"commitmentss(uint256)": "infinite",
				"currentRootIndex()": "2578",
				"deleteCandidate(uint256)": "infinite",
				"filledSubtrees(uint256)": "2864",
				"getAllCandidates()": "infinite",
				"getLastRoot()": "4782",
				"getOptionCounter(uint256)": "infinite",
				"getOwner()": "2561",
				"getValidators()": "infinite",
				"hashLeftRight(uint256,uint256)": "infinite",
				"hasher()": "infinite",
				"isKnownRoot(bytes32)": "infinite",
				"isVoterRegistered(uint256)": "2855",
				"levels()": "2533",
				"nextIndex()": "2649",
				"nullifiers(bytes32)": "2898",
				"numCandidates()": "2515",
				"owner()": "2598",
				"pendingUniqueHashes(uint256)": "infinite",
				"registerVoter(address,uint256,uint256)": "infinite",
				"registrationEnd()": "2494",
				"registrationStart()": "2514",
				"roots(uint256)": "2821",
				"setRegistrationPeriod(uint256,uint256)": "infinite",
				"setVotingPeriod(uint256,uint256)": "infinite",
				"uniqueHashes(uint256)": "2830",
				"verifier()": "infinite",
				"vote(uint256,uint256,uint256,uint256[2],uint256[2][2],uint256[2])": "infinite",
				"votingEnd()": "2558",
				"votingStart()": "2472",
				"zeros(uint256)": "1465"
			}
		},
		"methodIdentifiers": {
			"FIELD_SIZE()": "414a37ba",
			"ROOT_HISTORY_SIZE()": "cd87a3b4",
			"ZERO_VALUE()": "ec732959",
			"addCandidate(string)": "462e91ec",
			"candidates(uint256)": "3477ee2e",
			"commitments(bytes32)": "839df945",
			"commitmentss(uint256)": "32bcce08",
			"currentRootIndex()": "90eeb02b",
			"deleteCandidate(uint256)": "1e620cd4",
			"filledSubtrees(uint256)": "f178e47c",
			"getAllCandidates()": "2e6997fe",
			"getLastRoot()": "ba70f757",
			"getOptionCounter(uint256)": "955e0377",
			"getOwner()": "893d20e8",
			"getValidators()": "b7ab4db5",
			"hashLeftRight(uint256,uint256)": "5bb93995",
			"hasher()": "ed33639f",
			"isKnownRoot(bytes32)": "6d9833e3",
			"isVoterRegistered(uint256)": "6d3cba61",
			"levels()": "4ecf518b",
			"nextIndex()": "fc7e9c6f",
			"nullifiers(bytes32)": "2997e86b",
			"numCandidates()": "5216509a",
			"owner()": "8da5cb5b",
			"pendingUniqueHashes(uint256)": "d290a3cf",
			"registerVoter(address,uint256,uint256)": "78b9ac25",
			"registrationEnd()": "13446a75",
			"registrationStart()": "b4062a31",
			"roots(uint256)": "c2b40ae4",
			"setRegistrationPeriod(uint256,uint256)": "8bb2fb75",
			"setVotingPeriod(uint256,uint256)": "a15a36c7",
			"uniqueHashes(uint256)": "c1b1f732",
			"verifier()": "2b7ac3f3",
			"vote(uint256,uint256,uint256,uint256[2],uint256[2][2],uint256[2])": "ce8f6377",
			"votingEnd()": "85a38635",
			"votingStart()": "101158af",
			"zeros(uint256)": "e8295588"
		}
	},
	"abi": [
		{
			"inputs": [
				{
					"internalType": "uint32",
					"name": "_levels",
					"type": "uint32"
				},
				{
					"internalType": "contract IHasher",
					"name": "_hasher",
					"type": "address"
				},
				{
					"internalType": "contract IVerifier",
					"name": "_verifier",
					"type": "address"
				},
				{
					"internalType": "uint256",
					"name": "_registrationStart",
					"type": "uint256"
				},
				{
					"internalType": "uint256",
					"name": "_registrationEnd",
					"type": "uint256"
				},
				{
					"internalType": "uint256",
					"name": "_votingStart",
					"type": "uint256"
				},
				{
					"internalType": "uint256",
					"name": "_votingEnd",
					"type": "uint256"
				}
			],
			"stateMutability": "nonpayable",
			"type": "constructor"
		},
		{
			"anonymous": false,
			"inputs": [
				{
					"indexed": true,
					"internalType": "uint256",
					"name": "candidateId",
					"type": "uint256"
				},
				{
					"indexed": false,
					"internalType": "string",
					"name": "name",
					"type": "string"
				}
			],
			"name": "CandidateAdded",
			"type": "event"
		},
		{
			"anonymous": false,
			"inputs": [
				{
					"indexed": true,
					"internalType": "uint256",
					"name": "candidateId",
					"type": "uint256"
				}
			],
			"name": "CandidateDeleted",
			"type": "event"
		},
		{
			"anonymous": false,
			"inputs": [
				{
					"indexed": true,
					"internalType": "bytes32",
					"name": "commitment",
					"type": "bytes32"
				},
				{
					"indexed": false,
					"internalType": "uint32",
					"name": "leafIndex",
					"type": "uint32"
				},
				{
					"indexed": false,
					"internalType": "uint256",
					"name": "timestamp",
					"type": "uint256"
				}
			],
			"name": "Commit",
			"type": "event"
		},
		{
			"anonymous": false,
			"inputs": [
				{
					"indexed": true,
					"internalType": "address",
					"name": "voter",
					"type": "address"
				},
				{
					"indexed": false,
					"internalType": "uint256",
					"name": "uniqueHash",
					"type": "uint256"
				},
				{
					"indexed": false,
					"internalType": "uint256",
					"name": "commitment",
					"type": "uint256"
				}
			],
			"name": "VoterRegistered",
			"type": "event"
		},
		{
			"inputs": [],
			"name": "FIELD_SIZE",
			"outputs": [
				{
					"internalType": "uint256",
					"name": "",
					"type": "uint256"
				}
			],
			"stateMutability": "view",
			"type": "function"
		},
		{
			"inputs": [],
			"name": "ROOT_HISTORY_SIZE",
			"outputs": [
				{
					"internalType": "uint32",
					"name": "",
					"type": "uint32"
				}
			],
			"stateMutability": "view",
			"type": "function"
		},
		{
			"inputs": [],
			"name": "ZERO_VALUE",
			"outputs": [
				{
					"internalType": "uint256",
					"name": "",
					"type": "uint256"
				}
			],
			"stateMutability": "view",
			"type": "function"
		},
		{
			"inputs": [
				{
					"internalType": "string",
					"name": "_name",
					"type": "string"
				}
			],
			"name": "addCandidate",
			"outputs": [],
			"stateMutability": "nonpayable",
			"type": "function"
		},
		{
			"inputs": [
				{
					"internalType": "uint256",
					"name": "",
					"type": "uint256"
				}
			],
			"name": "candidates",
			"outputs": [
				{
					"internalType": "string",
					"name": "name",
					"type": "string"
				},
				{
					"internalType": "uint256",
					"name": "voteCount",
					"type": "uint256"
				},
				{
					"internalType": "bool",
					"name": "exists",
					"type": "bool"
				}
			],
			"stateMutability": "view",
			"type": "function"
		},
		{
			"inputs": [
				{
					"internalType": "bytes32",
					"name": "",
					"type": "bytes32"
				}
			],
			"name": "commitments",
			"outputs": [
				{
					"internalType": "bool",
					"name": "",
					"type": "bool"
				}
			],
			"stateMutability": "view",
			"type": "function"
		},
		{
			"inputs": [
				{
					"internalType": "uint256",
					"name": "",
					"type": "uint256"
				}
			],
			"name": "commitmentss",
			"outputs": [
				{
					"internalType": "uint256",
					"name": "",
					"type": "uint256"
				}
			],
			"stateMutability": "view",
			"type": "function"
		},
		{
			"inputs": [],
			"name": "currentRootIndex",
			"outputs": [
				{
					"internalType": "uint32",
					"name": "",
					"type": "uint32"
				}
			],
			"stateMutability": "view",
			"type": "function"
		},
		{
			"inputs": [
				{
					"internalType": "uint256",
					"name": "_candidateId",
					"type": "uint256"
				}
			],
			"name": "deleteCandidate",
			"outputs": [],
			"stateMutability": "nonpayable",
			"type": "function"
		},
		{
			"inputs": [
				{
					"internalType": "uint256",
					"name": "",
					"type": "uint256"
				}
			],
			"name": "filledSubtrees",
			"outputs": [
				{
					"internalType": "bytes32",
					"name": "",
					"type": "bytes32"
				}
			],
			"stateMutability": "view",
			"type": "function"
		},
		{
			"inputs": [],
			"name": "getAllCandidates",
			"outputs": [
				{
					"internalType": "uint256",
					"name": "",
					"type": "uint256"
				},
				{
					"internalType": "string[]",
					"name": "",
					"type": "string[]"
				}
			],
			"stateMutability": "view",
			"type": "function"
		},
		{
			"inputs": [],
			"name": "getLastRoot",
			"outputs": [
				{
					"internalType": "bytes32",
					"name": "",
					"type": "bytes32"
				}
			],
			"stateMutability": "view",
			"type": "function"
		},
		{
			"inputs": [
				{
					"internalType": "uint256",
					"name": "_candidateId",
					"type": "uint256"
				}
			],
			"name": "getOptionCounter",
			"outputs": [
				{
					"internalType": "uint256",
					"name": "",
					"type": "uint256"
				}
			],
			"stateMutability": "view",
			"type": "function"
		},
		{
			"inputs": [],
			"name": "getOwner",
			"outputs": [
				{
					"internalType": "address",
					"name": "",
					"type": "address"
				}
			],
			"stateMutability": "view",
			"type": "function"
		},
		{
			"inputs": [],
			"name": "getValidators",
			"outputs": [
				{
					"internalType": "address[]",
					"name": "",
					"type": "address[]"
				}
			],
			"stateMutability": "view",
			"type": "function"
		},
		{
			"inputs": [
				{
					"internalType": "uint256",
					"name": "_left",
					"type": "uint256"
				},
				{
					"internalType": "uint256",
					"name": "_right",
					"type": "uint256"
				}
			],
			"name": "hashLeftRight",
			"outputs": [
				{
					"internalType": "bytes32",
					"name": "",
					"type": "bytes32"
				}
			],
			"stateMutability": "view",
			"type": "function"
		},
		{
			"inputs": [],
			"name": "hasher",
			"outputs": [
				{
					"internalType": "contract IHasher",
					"name": "",
					"type": "address"
				}
			],
			"stateMutability": "view",
			"type": "function"
		},
		{
			"inputs": [
				{
					"internalType": "bytes32",
					"name": "_root",
					"type": "bytes32"
				}
			],
			"name": "isKnownRoot",
			"outputs": [
				{
					"internalType": "bool",
					"name": "",
					"type": "bool"
				}
			],
			"stateMutability": "view",
			"type": "function"
		},
		{
			"inputs": [
				{
					"internalType": "uint256",
					"name": "_uniqueHash",
					"type": "uint256"
				}
			],
			"name": "isVoterRegistered",
			"outputs": [
				{
					"internalType": "bool",
					"name": "",
					"type": "bool"
				}
			],
			"stateMutability": "view",
			"type": "function"
		},
		{
			"inputs": [],
			"name": "levels",
			"outputs": [
				{
					"internalType": "uint32",
					"name": "",
					"type": "uint32"
				}
			],
			"stateMutability": "view",
			"type": "function"
		},
		{
			"inputs": [],
			"name": "nextIndex",
			"outputs": [
				{
					"internalType": "uint32",
					"name": "",
					"type": "uint32"
				}
			],
			"stateMutability": "view",
			"type": "function"
		},
		{
			"inputs": [
				{
					"internalType": "bytes32",
					"name": "",
					"type": "bytes32"
				}
			],
			"name": "nullifiers",
			"outputs": [
				{
					"internalType": "bool",
					"name": "",
					"type": "bool"
				}
			],
			"stateMutability": "view",
			"type": "function"
		},
		{
			"inputs": [],
			"name": "numCandidates",
			"outputs": [
				{
					"internalType": "uint256",
					"name": "",
					"type": "uint256"
				}
			],
			"stateMutability": "view",
			"type": "function"
		},
		{
			"inputs": [],
			"name": "owner",
			"outputs": [
				{
					"internalType": "address",
					"name": "",
					"type": "address"
				}
			],
			"stateMutability": "view",
			"type": "function"
		},
		{
			"inputs": [
				{
					"internalType": "uint256",
					"name": "",
					"type": "uint256"
				}
			],
			"name": "pendingUniqueHashes",
			"outputs": [
				{
					"internalType": "uint256",
					"name": "",
					"type": "uint256"
				}
			],
			"stateMutability": "view",
			"type": "function"
		},
		{
			"inputs": [
				{
					"internalType": "address",
					"name": "_voter",
					"type": "address"
				},
				{
					"internalType": "uint256",
					"name": "_uniqueHash",
					"type": "uint256"
				},
				{
					"internalType": "uint256",
					"name": "_commitment",
					"type": "uint256"
				}
			],
			"name": "registerVoter",
			"outputs": [],
			"stateMutability": "nonpayable",
			"type": "function"
		},
		{
			"inputs": [],
			"name": "registrationEnd",
			"outputs": [
				{
					"internalType": "uint256",
					"name": "",
					"type": "uint256"
				}
			],
			"stateMutability": "view",
			"type": "function"
		},
		{
			"inputs": [],
			"name": "registrationStart",
			"outputs": [
				{
					"internalType": "uint256",
					"name": "",
					"type": "uint256"
				}
			],
			"stateMutability": "view",
			"type": "function"
		},
		{
			"inputs": [
				{
					"internalType": "uint256",
					"name": "",
					"type": "uint256"
				}
			],
			"name": "roots",
			"outputs": [
				{
					"internalType": "bytes32",
					"name": "",
					"type": "bytes32"
				}
			],
			"stateMutability": "view",
			"type": "function"
		},
		{
			"inputs": [
				{
					"internalType": "uint256",
					"name": "_start",
					"type": "uint256"
				},
				{
					"internalType": "uint256",
					"name": "_end",
					"type": "uint256"
				}
			],
			"name": "setRegistrationPeriod",
			"outputs": [],
			"stateMutability": "nonpayable",
			"type": "function"
		},
		{
			"inputs": [
				{
					"internalType": "uint256",
					"name": "_start",
					"type": "uint256"
				},
				{
					"internalType": "uint256",
					"name": "_end",
					"type": "uint256"
				}
			],
			"name": "setVotingPeriod",
			"outputs": [],
			"stateMutability": "nonpayable",
			"type": "function"
		},
		{
			"inputs": [
				{
					"internalType": "uint256",
					"name": "",
					"type": "uint256"
				}
			],
			"name": "uniqueHashes",
			"outputs": [
				{
					"internalType": "bool",
					"name": "",
					"type": "bool"
				}
			],
			"stateMutability": "view",
			"type": "function"
		},
		{
			"inputs": [],
			"name": "verifier",
			"outputs": [
				{
					"internalType": "contract IVerifier",
					"name": "",
					"type": "address"
				}
			],
			"stateMutability": "view",
			"type": "function"
		},
		{
			"inputs": [
				{
					"internalType": "uint256",
					"name": "_candidateId",
					"type": "uint256"
				},
				{
					"internalType": "uint256",
					"name": "_nullifier",
					"type": "uint256"
				},
				{
					"internalType": "uint256",
					"name": "_root",
					"type": "uint256"
				},
				{
					"internalType": "uint256[2]",
					"name": "_proof_a",
					"type": "uint256[2]"
				},
				{
					"internalType": "uint256[2][2]",
					"name": "_proof_b",
					"type": "uint256[2][2]"
				},
				{
					"internalType": "uint256[2]",
					"name": "_proof_c",
					"type": "uint256[2]"
				}
			],
			"name": "vote",
			"outputs": [],
			"stateMutability": "nonpayable",
			"type": "function"
		},
		{
			"inputs": [],
			"name": "votingEnd",
			"outputs": [
				{
					"internalType": "uint256",
					"name": "",
					"type": "uint256"
				}
			],
			"stateMutability": "view",
			"type": "function"
		},
		{
			"inputs": [],
			"name": "votingStart",
			"outputs": [
				{
					"internalType": "uint256",
					"name": "",
					"type": "uint256"
				}
			],
			"stateMutability": "view",
			"type": "function"
		},
		{
			"inputs": [
				{
					"internalType": "uint256",
					"name": "i",
					"type": "uint256"
				}
			],
			"name": "zeros",
			"outputs": [
				{
					"internalType": "bytes32",
					"name": "",
					"type": "bytes32"
				}
			],
			"stateMutability": "pure",
			"type": "function"
		}
	]
}