{
	"data": {
		"bytecode": {
			"linkReferences": {},
			"object": "60c06040526000600360006101000a81548163ffffffff021916908363ffffffff1602179055506000600360046101000a81548163ffffffff021916908363ffffffff1602179055503480156200005557600080fd5b5060405162004b3638038062004b3683398181016040528101906200007b919062000ddb565b838383828260008263ffffffff1611620000cc576040517f08c379a0000000000000000000000000000000000000000000000000000000008152600401620000c39062000ef3565b60405180910390fd5b60208263ffffffff161062000118576040517f08c379a00000000000000000000000000000000000000000000000000000000081526004016200010f9062000f65565b60405180910390fd5b816000806101000a81548163ffffffff021916908363ffffffff1602179055508073ffffffffffffffffffffffffffffffffffffffff1660808173ffffffffffffffffffffffffffffffffffffffff168152505060005b8263ffffffff168163ffffffff161015620001ce576200019b8163ffffffff166200036c60201b60201c565b600160008363ffffffff168152602001908152602001600020819055508080620001c59062000fb6565b9150506200016f565b50620001f4600183620001e2919062000fe7565b63ffffffff166200036c60201b60201c565b600260008081526020019081526020016000208190555050508073ffffffffffffffffffffffffffffffffffffffff1660a08173ffffffffffffffffffffffffffffffffffffffff168152505050505033600660006101000a81548173ffffffffffffffffffffffffffffffffffffffff021916908373ffffffffffffffffffffffffffffffffffffffff160217905550805160098190555060005b6009548110156200036157818181518110620002b157620002b062001026565b5b6020026020010151600a60008381526020019081526020016000209081620002da9190620012a0565b506000600b600083815260200190815260200160002081905550807fe83b2a43e7e82d975c8a0a6d2f045153c869e111136a34d1889ab7b598e396a38383815181106200032c576200032b62001026565b5b6020026020010151604051620003439190620013c8565b60405180910390a280806200035890620013ec565b91505062000290565b5050505050620014ab565b6000808203620003a2577f2fe54c60d3acabf3343a35b6eba15db4821b340f76e741e2249685ed4899af6c60001b905062000a48565b60018203620003d7577f256a6135777eee2fd26f54b8b7037a25439d5235caee224154186d2b8a52e31d60001b905062000a48565b600282036200040c577f1151949895e82ab19924de92c40a3d6f7bcb60d92b00504b8199613683f0c20060001b905062000a48565b6003820362000441577f20121ee811489ff8d61f09fb89e313f14959a0f28bb428a20dba6b0b068b3bdb60001b905062000a48565b6004820362000476577f0a89ca6ffa14cc462cfedb842c30ed221a50a3d6bf022a6a57dc82ab24c157c960001b905062000a48565b60058203620004ab577f24ca05c2b5cd42e890d6be94c68d0689f4f21c9cec9c0f13fe41d566dfb5495960001b905062000a48565b60068203620004e0577f1ccb97c932565a92c60156bdba2d08f3bf1377464e025cee765679e604a7315c60001b905062000a48565b6007820362000515577f19156fbd7d1a8bf5cba8909367de1b624534ebab4f0f79e003bccdd1b182bdb460001b905062000a48565b600882036200054a577f261af8c1f0912e465744641409f622d466c3920ac6e5ff37e36604cb11dfff8060001b905062000a48565b600982036200057e577e58459724ff6ca5a1652fcbc3e82b93895cf08e975b19beab3f54c217d1c00760001b905062000a48565b600a8203620005b3577f1f04ef20dee48d39984d8eabe768a70eafa6310ad20849d4573c3c40c2ad1e3060001b905062000a48565b600b8203620005e8577f1bea3dec5dab51567ce7e200a30f7ba6d4276aeaa53e2686f962a46c66d511e560001b905062000a48565b600c82036200061d577f0ee0f941e2da4b9e31c3ca97a40d8fa9ce68d97c084177071b3cb46cd3372f0f60001b905062000a48565b600d820362000652577f1ca9503e8935884501bbaf20be14eb4c46b89772c97b96e3b2ebf3a36a948bbd60001b905062000a48565b600e820362000687577f133a80e30697cd55d8f7d4b0965b7be24057ba5dc3da898ee2187232446cb10860001b905062000a48565b600f8203620006bc577f13e6d8fc88839ed76e182c2a779af5b2c0da9dd18c90427a644f7e148a6253b660001b905062000a48565b60108203620006f1577f1eb16b057a477f4bc8f572ea6bee39561098f78f15bfb3699dcbb7bd8db6185460001b905062000a48565b6011820362000726577f0da2cb16a1ceaabf1c16b838f7a9e3f2a3a3088d9e0a6debaa748114620696ea60001b905062000a48565b601282036200075b577f24a3b3d822420b14b5d8cb6c28a574f01e98ea9e940551d2ebd75cee12649f9d60001b905062000a48565b6013820362000790577f198622acbd783d1b0d9064105b1fc8e4d8889de95c4c519b3f635809fe6afc0560001b905062000a48565b60148203620007c5577f29d7ed391256ccc3ea596c86e933b89ff339d25ea8ddced975ae2fe30b5296d460001b905062000a48565b60158203620007fa577f19be59f2f0413ce78c0c3703a3a5451b1d7f39629fa33abd11548a76065b296760001b905062000a48565b601682036200082f577f1ff3f61797e538b70e619310d33f2a063e7eb59104e112e95738da1254dc345360001b905062000a48565b6017820362000864577f10c16ae9959cf8358980d9dd9616e48228737310a10e2b6b731c1a548f036c4860001b905062000a48565b6018820362000899577f0ba433a63174a90ac20992e75e3095496812b652685b5e1a2eae0b1bf4e8fcd160001b905062000a48565b60198203620008ce577f019ddb9df2bc98d987d0dfeca9d2b643deafab8f7036562e627c3667266a044c60001b905062000a48565b601a820362000903577f2d3c88b23175c5a5565db928414c66d1912b11acf974b2e644caaac04739ce9960001b905062000a48565b601b820362000938577f2eab55f6ae4e66e32c5189eed5c470840863445760f5ed7e7b69b2a62600f35460001b905062000a48565b601c82036200096c577e2df37a2642621802383cf952bf4dd1f32e05433beeb1fd41031fb7eace979d60001b905062000a48565b601d8203620009a1577f104aeb41435db66c3e62feccc1d6f5d98d0a0ed75d1374db457cf462e3a1f42760001b905062000a48565b601e8203620009d6577f1f3c6fd858e9a7d4b0d1f38e256a09d81d5a5e3c963987e2d4b814cfab7c6ebb60001b905062000a48565b601f820362000a0b577f2c7a07d20dff79d01fecedc1134284a8d08436606c93693b67e333f671bf69cc60001b905062000a48565b6040517f08c379a000000000000000000000000000000000000000000000000000000000815260040162000a3f9062001489565b60405180910390fd5b919050565b6000604051905090565b600080fd5b600080fd5b600063ffffffff82169050919050565b62000a7c8162000a61565b811462000a8857600080fd5b50565b60008151905062000a9c8162000a71565b92915050565b600073ffffffffffffffffffffffffffffffffffffffff82169050919050565b600062000acf8262000aa2565b9050919050565b600062000ae38262000ac2565b9050919050565b62000af58162000ad6565b811462000b0157600080fd5b50565b60008151905062000b158162000aea565b92915050565b600062000b288262000ac2565b9050919050565b62000b3a8162000b1b565b811462000b4657600080fd5b50565b60008151905062000b5a8162000b2f565b92915050565b600080fd5b6000601f19601f8301169050919050565b7f4e487b7100000000000000000000000000000000000000000000000000000000600052604160045260246000fd5b62000bb08262000b65565b810181811067ffffffffffffffff8211171562000bd25762000bd162000b76565b5b80604052505050565b600062000be762000a4d565b905062000bf5828262000ba5565b919050565b600067ffffffffffffffff82111562000c185762000c1762000b76565b5b602082029050602081019050919050565b600080fd5b600080fd5b600067ffffffffffffffff82111562000c515762000c5062000b76565b5b62000c5c8262000b65565b9050602081019050919050565b60005b8381101562000c8957808201518184015260208101905062000c6c565b60008484015250505050565b600062000cac62000ca68462000c33565b62000bdb565b90508281526020810184848401111562000ccb5762000cca62000c2e565b5b62000cd884828562000c69565b509392505050565b600082601f83011262000cf85762000cf762000b60565b5b815162000d0a84826020860162000c95565b91505092915050565b600062000d2a62000d248462000bfa565b62000bdb565b9050808382526020820190506020840283018581111562000d505762000d4f62000c29565b5b835b8181101562000d9e57805167ffffffffffffffff81111562000d795762000d7862000b60565b5b80860162000d88898262000ce0565b8552602085019450505060208101905062000d52565b5050509392505050565b600082601f83011262000dc05762000dbf62000b60565b5b815162000dd284826020860162000d13565b91505092915050565b6000806000806080858703121562000df85762000df762000a57565b5b600062000e088782880162000a8b565b945050602062000e1b8782880162000b04565b935050604062000e2e8782880162000b49565b925050606085015167ffffffffffffffff81111562000e525762000e5162000a5c565b5b62000e608782880162000da8565b91505092959194509250565b600082825260208201905092915050565b7f5f6c6576656c732073686f756c642062652067726561746572207468616e207a60008201527f65726f0000000000000000000000000000000000000000000000000000000000602082015250565b600062000edb60238362000e6c565b915062000ee88262000e7d565b604082019050919050565b6000602082019050818103600083015262000f0e8162000ecc565b9050919050565b7f5f6c6576656c732073686f756c64206265206c657373207468616e2033320000600082015250565b600062000f4d601e8362000e6c565b915062000f5a8262000f15565b602082019050919050565b6000602082019050818103600083015262000f808162000f3e565b9050919050565b7f4e487b7100000000000000000000000000000000000000000000000000000000600052601160045260246000fd5b600062000fc38262000a61565b915063ffffffff820362000fdc5762000fdb62000f87565b5b600182019050919050565b600062000ff48262000a61565b9150620010018362000a61565b9250828203905063ffffffff81111562001020576200101f62000f87565b5b92915050565b7f4e487b7100000000000000000000000000000000000000000000000000000000600052603260045260246000fd5b600081519050919050565b7f4e487b7100000000000000000000000000000000000000000000000000000000600052602260045260246000fd5b60006002820490506001821680620010a857607f821691505b602082108103620010be57620010bd62001060565b5b50919050565b60008190508160005260206000209050919050565b60006020601f8301049050919050565b600082821b905092915050565b600060088302620011287fffffffffffffffffffffffffffffffffffffffffffffffffffffffffffffffff82620010e9565b620011348683620010e9565b95508019841693508086168417925050509392505050565b6000819050919050565b6000819050919050565b6000620011816200117b62001175846200114c565b62001156565b6200114c565b9050919050565b6000819050919050565b6200119d8362001160565b620011b5620011ac8262001188565b848454620010f6565b825550505050565b600090565b620011cc620011bd565b620011d981848462001192565b505050565b5b818110156200120157620011f5600082620011c2565b600181019050620011df565b5050565b601f82111562001250576200121a81620010c4565b6200122584620010d9565b8101602085101562001235578190505b6200124d6200124485620010d9565b830182620011de565b50505b505050565b600082821c905092915050565b6000620012756000198460080262001255565b1980831691505092915050565b600062001290838362001262565b9150826002028217905092915050565b620012ab8262001055565b67ffffffffffffffff811115620012c757620012c662000b76565b5b620012d382546200108f565b620012e082828562001205565b600060209050601f83116001811462001318576000841562001303578287015190505b6200130f858262001282565b8655506200137f565b601f1984166200132886620010c4565b60005b8281101562001352578489015182556001820191506020850194506020810190506200132b565b868310156200137257848901516200136e601f89168262001262565b8355505b6001600288020188555050505b505050505050565b6000620013948262001055565b620013a0818562000e6c565b9350620013b281856020860162000c69565b620013bd8162000b65565b840191505092915050565b60006020820190508181036000830152620013e4818462001387565b905092915050565b6000620013f9826200114c565b91507fffffffffffffffffffffffffffffffffffffffffffffffffffffffffffffffff82036200142e576200142d62000f87565b5b600182019050919050565b7f496e646578206f7574206f6620626f756e647300000000000000000000000000600082015250565b60006200147160138362000e6c565b91506200147e8262001439565b602082019050919050565b60006020820190508181036000830152620014a48162001462565b9050919050565b60805160a051613650620014e66000396000818161087c0152611a42015260008181610cae01528181610d88015261184f01526136506000f3fe608060405234801561001057600080fd5b50600436106101cf5760003560e01c80638da5cb5b11610104578063cd87a3b4116100a2578063ed33639f11610071578063ed33639f1461055b578063f178e47c14610579578063fa52c7d8146105a9578063fc7e9c6f146105d9576101cf565b8063cd87a3b4146104d3578063ce8f6377146104f1578063e82955881461050d578063ec7329591461053d576101cf565b80639fca5169116100de5780639fca516914610439578063b048e05614610455578063ba70f75714610485578063c2b40ae4146104a3576101cf565b80638da5cb5b146103cd57806390eeb02b146103eb578063955e037714610409576101cf565b8063462e91ec116101715780635bb939951161014b5780635bb939951461031f5780636d9833e31461034f578063839df9451461037f578063893d20e8146103af576101cf565b8063462e91ec146102c75780634ecf518b146102e35780635216509a14610301576101cf565b80632b7ac3f3116101ad5780632b7ac3f31461023c5780632e6997fe1461025a5780633477ee2e14610279578063414a37ba146102a9576101cf565b80631407beb8146101d45780631e620cd4146101f05780632997e86b1461020c575b600080fd5b6101ee60048036038101906101e99190611e18565b6105f7565b005b61020a60048036038101906102059190611e58565b610720565b005b61022660048036038101906102219190611ebb565b61085a565b6040516102339190611f03565b60405180910390f35b61024461087a565b6040516102519190611f9d565b60405180910390f35b61026261089e565b604051610270929190612119565b60405180910390f35b610293600480360381019061028e9190611e58565b6109de565b6040516102a09190612193565b60405180910390f35b6102b1610a7e565b6040516102be91906121b5565b60405180910390f35b6102e160048036038101906102dc9190612305565b610aa2565b005b6102eb610bc5565b6040516102f8919061236d565b60405180910390f35b610309610bd9565b60405161031691906121b5565b60405180910390f35b61033960048036038101906103349190611e18565b610bdf565b6040516103469190612397565b60405180910390f35b61036960048036038101906103649190611ebb565b610e3a565b6040516103769190611f03565b60405180910390f35b61039960048036038101906103949190611ebb565b610ed7565b6040516103a69190611f03565b60405180910390f35b6103b7610ef7565b6040516103c491906123d3565b60405180910390f35b6103d5610f21565b6040516103e291906123d3565b60405180910390f35b6103f3610f47565b604051610400919061236d565b60405180910390f35b610423600480360381019061041e9190611e58565b610f5d565b60405161043091906121b5565b60405180910390f35b610453600480360381019061044e919061241a565b610f7a565b005b61046f600480360381019061046a9190611e58565b611065565b60405161047c91906123d3565b60405180910390f35b61048d6110a4565b60405161049a9190612397565b60405180910390f35b6104bd60048036038101906104b89190611e58565b6110d7565b6040516104ca9190612397565b60405180910390f35b6104db6110ef565b6040516104e8919061236d565b60405180910390f35b61050b600480360381019061050691906125ae565b6110f4565b005b61052760048036038101906105229190611e58565b61118a565b6040516105349190612397565b60405180910390f35b610545611829565b60405161055291906121b5565b60405180910390f35b61056361184d565b604051610570919061265e565b60405180910390f35b610593600480360381019061058e9190611e58565b611871565b6040516105a09190612397565b60405180910390f35b6105c360048036038101906105be919061241a565b611889565b6040516105d09190611f03565b60405180910390f35b6105e16118a9565b6040516105ee919061236d565b60405180910390f35b600760003373ffffffffffffffffffffffffffffffffffffffff1673ffffffffffffffffffffffffffffffffffffffff16815260200190815260200160002060009054906101000a900460ff16610683576040517f08c379a000000000000000000000000000000000000000000000000000000000815260040161067a906126c5565b60405180910390fd5b6008600083815260200190815260200160002060009054906101000a900460ff16156106e4576040517f08c379a00000000000000000000000000000000000000000000000000000000081526004016106db90612757565b60405180910390fd5b6106f08160001b6118bf565b60016008600084815260200190815260200160002060006101000a81548160ff0219169083151502179055505050565b600660009054906101000a900473ffffffffffffffffffffffffffffffffffffffff1673ffffffffffffffffffffffffffffffffffffffff163373ffffffffffffffffffffffffffffffffffffffff16146107b0576040517f08c379a00000000000000000000000000000000000000000000000000000000081526004016107a7906127e9565b60405180910390fd5b60095481106107f4576040517f08c379a00000000000000000000000000000000000000000000000000000000081526004016107eb90612855565b60405180910390fd5b600a600082815260200190815260200160002060006108139190611d71565b600b600082815260200190815260200160002060009055807f5768df5843e58ec5b2fc92eb6ef81241e9ec50a0b93fd074dec58b39efc4172060405160405180910390a250565b60046020528060005260406000206000915054906101000a900460ff1681565b7f000000000000000000000000000000000000000000000000000000000000000081565b60006060600060095467ffffffffffffffff8111156108c0576108bf6121da565b5b6040519080825280602002602001820160405280156108f357816020015b60608152602001906001900390816108de5790505b50905060005b6009548110156109d057600a60008281526020019081526020016000208054610921906128a4565b80601f016020809104026020016040519081016040528092919081815260200182805461094d906128a4565b801561099a5780601f1061096f5761010080835404028352916020019161099a565b820191906000526020600020905b81548152906001019060200180831161097d57829003601f168201915b50505050508282815181106109b2576109b16128d5565b5b602002602001018190525080806109c890612933565b9150506108f9565b506009548192509250509091565b600a60205280600052604060002060009150905080546109fd906128a4565b80601f0160208091040260200160405190810160405280929190818152602001828054610a29906128a4565b8015610a765780601f10610a4b57610100808354040283529160200191610a76565b820191906000526020600020905b815481529060010190602001808311610a5957829003601f168201915b505050505081565b7f30644e72e131a029b85045b68181585d2833e84879b9709143e1f593f000000181565b600660009054906101000a900473ffffffffffffffffffffffffffffffffffffffff1673ffffffffffffffffffffffffffffffffffffffff163373ffffffffffffffffffffffffffffffffffffffff1614610b32576040517f08c379a0000000000000000000000000000000000000000000000000000000008152600401610b29906127e9565b60405180910390fd5b80600a600060095481526020019081526020016000209081610b549190612b1d565b506000600b60006009548152602001908152602001600020819055506009547fe83b2a43e7e82d975c8a0a6d2f045153c869e111136a34d1889ab7b598e396a382604051610ba29190612193565b60405180910390a260096000815480929190610bbd90612933565b919050555050565b60008054906101000a900463ffffffff1681565b60095481565b60007f30644e72e131a029b85045b68181585d2833e84879b9709143e1f593f00000018310610c43576040517f08c379a0000000000000000000000000000000000000000000000000000000008152600401610c3a90612c3b565b60405180910390fd5b7f30644e72e131a029b85045b68181585d2833e84879b9709143e1f593f00000018210610ca5576040517f08c379a0000000000000000000000000000000000000000000000000000000008152600401610c9c90612ccd565b60405180910390fd5b600083905060007f000000000000000000000000000000000000000000000000000000000000000073ffffffffffffffffffffffffffffffffffffffff16633f1a1187838360006040518463ffffffff1660e01b8152600401610d0a93929190612d28565b6040805180830381865afa158015610d26573d6000803e3d6000fd5b505050506040513d601f19601f82011682018060405250810190610d4a9190612d74565b80925081935050507f30644e72e131a029b85045b68181585d2833e84879b9709143e1f593f000000180610d8157610d80612db4565b5b84830891507f000000000000000000000000000000000000000000000000000000000000000073ffffffffffffffffffffffffffffffffffffffff16633f1a1187838360006040518463ffffffff1660e01b8152600401610de493929190612d28565b6040805180830381865afa158015610e00573d6000803e3d6000fd5b505050506040513d601f19601f82011682018060405250810190610e249190612d74565b80925081935050508160001b9250505092915050565b60008060001b8203610e4f5760009050610ed2565b6000600360009054906101000a900463ffffffff16905060008190505b600260008263ffffffff168152602001908152602001600020548403610e9757600192505050610ed2565b60008163ffffffff1603610eaa57601e90505b8080610eb590612de3565b9150508163ffffffff168163ffffffff1603610e6c576000925050505b919050565b60056020528060005260406000206000915054906101000a900460ff1681565b6000600660009054906101000a900473ffffffffffffffffffffffffffffffffffffffff16905090565b600660009054906101000a900473ffffffffffffffffffffffffffffffffffffffff1681565b600360009054906101000a900463ffffffff1681565b6000600b6000838152602001908152602001600020549050919050565b600660009054906101000a900473ffffffffffffffffffffffffffffffffffffffff1673ffffffffffffffffffffffffffffffffffffffff163373ffffffffffffffffffffffffffffffffffffffff161461100a576040517f08c379a0000000000000000000000000000000000000000000000000000000008152600401611001906127e9565b60405180910390fd5b6001600760008373ffffffffffffffffffffffffffffffffffffffff1673ffffffffffffffffffffffffffffffffffffffff16815260200190815260200160002060006101000a81548160ff02191690831515021790555050565b600c818154811061107557600080fd5b906000526020600020016000915054906101000a900473ffffffffffffffffffffffffffffffffffffffff1681565b600060026000600360009054906101000a900463ffffffff1663ffffffff16815260200190815260200160002054905090565b60026020528060005260406000206000915090505481565b601e81565b6009548610611138576040517f08c379a000000000000000000000000000000000000000000000000000000000815260040161112f90612e58565b60405180910390fd5b61114b8560001b8560001b858585611997565b6001600b60008881526020019081526020016000205461116b9190612e78565b600b600088815260200190815260200160002081905550505050505050565b60008082036111be577f2fe54c60d3acabf3343a35b6eba15db4821b340f76e741e2249685ed4899af6c60001b9050611824565b600182036111f1577f256a6135777eee2fd26f54b8b7037a25439d5235caee224154186d2b8a52e31d60001b9050611824565b60028203611224577f1151949895e82ab19924de92c40a3d6f7bcb60d92b00504b8199613683f0c20060001b9050611824565b60038203611257577f20121ee811489ff8d61f09fb89e313f14959a0f28bb428a20dba6b0b068b3bdb60001b9050611824565b6004820361128a577f0a89ca6ffa14cc462cfedb842c30ed221a50a3d6bf022a6a57dc82ab24c157c960001b9050611824565b600582036112bd577f24ca05c2b5cd42e890d6be94c68d0689f4f21c9cec9c0f13fe41d566dfb5495960001b9050611824565b600682036112f0577f1ccb97c932565a92c60156bdba2d08f3bf1377464e025cee765679e604a7315c60001b9050611824565b60078203611323577f19156fbd7d1a8bf5cba8909367de1b624534ebab4f0f79e003bccdd1b182bdb460001b9050611824565b60088203611356577f261af8c1f0912e465744641409f622d466c3920ac6e5ff37e36604cb11dfff8060001b9050611824565b60098203611388577e58459724ff6ca5a1652fcbc3e82b93895cf08e975b19beab3f54c217d1c00760001b9050611824565b600a82036113bb577f1f04ef20dee48d39984d8eabe768a70eafa6310ad20849d4573c3c40c2ad1e3060001b9050611824565b600b82036113ee577f1bea3dec5dab51567ce7e200a30f7ba6d4276aeaa53e2686f962a46c66d511e560001b9050611824565b600c8203611421577f0ee0f941e2da4b9e31c3ca97a40d8fa9ce68d97c084177071b3cb46cd3372f0f60001b9050611824565b600d8203611454577f1ca9503e8935884501bbaf20be14eb4c46b89772c97b96e3b2ebf3a36a948bbd60001b9050611824565b600e8203611487577f133a80e30697cd55d8f7d4b0965b7be24057ba5dc3da898ee2187232446cb10860001b9050611824565b600f82036114ba577f13e6d8fc88839ed76e182c2a779af5b2c0da9dd18c90427a644f7e148a6253b660001b9050611824565b601082036114ed577f1eb16b057a477f4bc8f572ea6bee39561098f78f15bfb3699dcbb7bd8db6185460001b9050611824565b60118203611520577f0da2cb16a1ceaabf1c16b838f7a9e3f2a3a3088d9e0a6debaa748114620696ea60001b9050611824565b60128203611553577f24a3b3d822420b14b5d8cb6c28a574f01e98ea9e940551d2ebd75cee12649f9d60001b9050611824565b60138203611586577f198622acbd783d1b0d9064105b1fc8e4d8889de95c4c519b3f635809fe6afc0560001b9050611824565b601482036115b9577f29d7ed391256ccc3ea596c86e933b89ff339d25ea8ddced975ae2fe30b5296d460001b9050611824565b601582036115ec577f19be59f2f0413ce78c0c3703a3a5451b1d7f39629fa33abd11548a76065b296760001b9050611824565b6016820361161f577f1ff3f61797e538b70e619310d33f2a063e7eb59104e112e95738da1254dc345360001b9050611824565b60178203611652577f10c16ae9959cf8358980d9dd9616e48228737310a10e2b6b731c1a548f036c4860001b9050611824565b60188203611685577f0ba433a63174a90ac20992e75e3095496812b652685b5e1a2eae0b1bf4e8fcd160001b9050611824565b601982036116b8577f019ddb9df2bc98d987d0dfeca9d2b643deafab8f7036562e627c3667266a044c60001b9050611824565b601a82036116eb577f2d3c88b23175c5a5565db928414c66d1912b11acf974b2e644caaac04739ce9960001b9050611824565b601b820361171e577f2eab55f6ae4e66e32c5189eed5c470840863445760f5ed7e7b69b2a62600f35460001b9050611824565b601c8203611750577e2df37a2642621802383cf952bf4dd1f32e05433beeb1fd41031fb7eace979d60001b9050611824565b601d8203611783577f104aeb41435db66c3e62feccc1d6f5d98d0a0ed75d1374db457cf462e3a1f42760001b9050611824565b601e82036117b6577f1f3c6fd858e9a7d4b0d1f38e256a09d81d5a5e3c963987e2d4b814cfab7c6ebb60001b9050611824565b601f82036117e9577f2c7a07d20dff79d01fecedc1134284a8d08436606c93693b67e333f671bf69cc60001b9050611824565b6040517f08c379a000000000000000000000000000000000000000000000000000000000815260040161181b90612ef8565b60405180910390fd5b919050565b7f2fe54c60d3acabf3343a35b6eba15db4821b340f76e741e2249685ed4899af6c81565b7f000000000000000000000000000000000000000000000000000000000000000081565b60016020528060005260406000206000915090505481565b60076020528060005260406000206000915054906101000a900460ff1681565b600360049054906101000a900463ffffffff1681565b6005600082815260200190815260200160002060009054906101000a900460ff1615611920576040517f08c379a000000000000000000000000000000000000000000000000000000000815260040161191790612f8a565b60405180910390fd5b60016005600083815260200190815260200160002060006101000a81548160ff021916908315150217905550600061195782611b6c565b9050817f401999886e5f90a91b92a0bfb7e2d48f714651a4d1c929bb3a753525ba066b91824260405161198b929190612faa565b60405180910390a25050565b6004600086815260200190815260200160002060009054906101000a900460ff16156119f8576040517f08c379a00000000000000000000000000000000000000000000000000000000081526004016119ef9061301f565b60405180910390fd5b611a0184610e3a565b611a40576040517f08c379a0000000000000000000000000000000000000000000000000000000008152600401611a379061308b565b60405180910390fd5b7f000000000000000000000000000000000000000000000000000000000000000073ffffffffffffffffffffffffffffffffffffffff1663f5c9d69e84848460405180604001604052808b60001c81526020018a60001c8152506040518563ffffffff1660e01b8152600401611ab99493929190613254565b602060405180830381865afa158015611ad6573d6000803e3d6000fd5b505050506040513d601f19601f82011682018060405250810190611afa91906132c7565b611b39576040517f08c379a0000000000000000000000000000000000000000000000000000000008152600401611b3090613340565b60405180910390fd5b60016004600087815260200190815260200160002060006101000a81548160ff0219169083151502179055505050505050565b600080600360049054906101000a900463ffffffff16905060008054906101000a900463ffffffff166002611ba19190613493565b63ffffffff168163ffffffff1603611bee576040517f08c379a0000000000000000000000000000000000000000000000000000000008152600401611be590613534565b60405180910390fd5b6000819050600084905060008060005b60008054906101000a900463ffffffff1663ffffffff168163ffffffff161015611cc7576000600286611c319190613554565b63ffffffff1603611c7357839250611c4e8163ffffffff1661118a565b915083600160008363ffffffff16815260200190815260200160002081905550611c93565b600160008263ffffffff1681526020019081526020016000205492508391505b611ca38360001c8360001c610bdf565b9350600285611cb29190613585565b94508080611cbf906135b6565b915050611bfe565b506000601e6001600360009054906101000a900463ffffffff16611ceb91906135e2565b611cf59190613554565b905080600360006101000a81548163ffffffff021916908363ffffffff16021790555083600260008363ffffffff16815260200190815260200160002081905550600186611d4391906135e2565b600360046101000a81548163ffffffff021916908363ffffffff160217905550859650505050505050919050565b508054611d7d906128a4565b6000825580601f10611d8f5750611dae565b601f016020900490600052602060002090810190611dad9190611db1565b5b50565b5b80821115611dca576000816000905550600101611db2565b5090565b6000604051905090565b600080fd5b600080fd5b6000819050919050565b611df581611de2565b8114611e0057600080fd5b50565b600081359050611e1281611dec565b92915050565b60008060408385031215611e2f57611e2e611dd8565b5b6000611e3d85828601611e03565b9250506020611e4e85828601611e03565b9150509250929050565b600060208284031215611e6e57611e6d611dd8565b5b6000611e7c84828501611e03565b91505092915050565b6000819050919050565b611e9881611e85565b8114611ea357600080fd5b50565b600081359050611eb581611e8f565b92915050565b600060208284031215611ed157611ed0611dd8565b5b6000611edf84828501611ea6565b91505092915050565b60008115159050919050565b611efd81611ee8565b82525050565b6000602082019050611f186000830184611ef4565b92915050565b600073ffffffffffffffffffffffffffffffffffffffff82169050919050565b6000819050919050565b6000611f63611f5e611f5984611f1e565b611f3e565b611f1e565b9050919050565b6000611f7582611f48565b9050919050565b6000611f8782611f6a565b9050919050565b611f9781611f7c565b82525050565b6000602082019050611fb26000830184611f8e565b92915050565b611fc181611de2565b82525050565b600081519050919050565b600082825260208201905092915050565b6000819050602082019050919050565b600081519050919050565b600082825260208201905092915050565b60005b8381101561202d578082015181840152602081019050612012565b60008484015250505050565b6000601f19601f8301169050919050565b600061205582611ff3565b61205f8185611ffe565b935061206f81856020860161200f565b61207881612039565b840191505092915050565b600061208f838361204a565b905092915050565b6000602082019050919050565b60006120af82611fc7565b6120b98185611fd2565b9350836020820285016120cb85611fe3565b8060005b8581101561210757848403895281516120e88582612083565b94506120f383612097565b925060208a019950506001810190506120cf565b50829750879550505050505092915050565b600060408201905061212e6000830185611fb8565b818103602083015261214081846120a4565b90509392505050565b600082825260208201905092915050565b600061216582611ff3565b61216f8185612149565b935061217f81856020860161200f565b61218881612039565b840191505092915050565b600060208201905081810360008301526121ad818461215a565b905092915050565b60006020820190506121ca6000830184611fb8565b92915050565b600080fd5b600080fd5b7f4e487b7100000000000000000000000000000000000000000000000000000000600052604160045260246000fd5b61221282612039565b810181811067ffffffffffffffff82111715612231576122306121da565b5b80604052505050565b6000612244611dce565b90506122508282612209565b919050565b600067ffffffffffffffff8211156122705761226f6121da565b5b61227982612039565b9050602081019050919050565b82818337600083830152505050565b60006122a86122a384612255565b61223a565b9050828152602081018484840111156122c4576122c36121d5565b5b6122cf848285612286565b509392505050565b600082601f8301126122ec576122eb6121d0565b5b81356122fc848260208601612295565b91505092915050565b60006020828403121561231b5761231a611dd8565b5b600082013567ffffffffffffffff81111561233957612338611ddd565b5b612345848285016122d7565b91505092915050565b600063ffffffff82169050919050565b6123678161234e565b82525050565b6000602082019050612382600083018461235e565b92915050565b61239181611e85565b82525050565b60006020820190506123ac6000830184612388565b92915050565b60006123bd82611f1e565b9050919050565b6123cd816123b2565b82525050565b60006020820190506123e860008301846123c4565b92915050565b6123f7816123b2565b811461240257600080fd5b50565b600081359050612414816123ee565b92915050565b6000602082840312156124305761242f611dd8565b5b600061243e84828501612405565b91505092915050565b600067ffffffffffffffff821115612462576124616121da565b5b602082029050919050565b600080fd5b600061248561248084612447565b61223a565b9050806020840283018581111561249f5761249e61246d565b5b835b818110156124c857806124b48882611e03565b8452602084019350506020810190506124a1565b5050509392505050565b600082601f8301126124e7576124e66121d0565b5b60026124f4848285612472565b91505092915050565b600067ffffffffffffffff821115612518576125176121da565b5b602082029050919050565b6000612536612531846124fd565b61223a565b905080604084028301858111156125505761254f61246d565b5b835b81811015612579578061256588826124d2565b845260208401935050604081019050612552565b5050509392505050565b600082601f830112612598576125976121d0565b5b60026125a5848285612523565b91505092915050565b60008060008060008061016087890312156125cc576125cb611dd8565b5b60006125da89828a01611e03565b96505060206125eb89828a01611e03565b95505060406125fc89828a01611e03565b945050606061260d89828a016124d2565b93505060a061261e89828a01612583565b92505061012061263089828a016124d2565b9150509295509295509295565b600061264882611f6a565b9050919050565b6126588161263d565b82525050565b6000602082019050612673600083018461264f565b92915050565b7f4f6e6c792076616c696461746f722063616e20636f6d6d697421000000000000600082015250565b60006126af601a83612149565b91506126ba82612679565b602082019050919050565b600060208201905081810360008301526126de816126a2565b9050919050565b7f5468697320756e69717565206861736820697320616c7265616479207573656460008201527f2100000000000000000000000000000000000000000000000000000000000000602082015250565b6000612741602183612149565b915061274c826126e5565b604082019050919050565b6000602082019050818103600083015261277081612734565b9050919050565b7f4f6e6c79206f776e65722063616e20706572666f726d2074686973206163746960008201527f6f6e210000000000000000000000000000000000000000000000000000000000602082015250565b60006127d3602383612149565b91506127de82612777565b604082019050919050565b60006020820190508181036000830152612802816127c6565b9050919050565b7f496e76616c69642063616e646964617465204944210000000000000000000000600082015250565b600061283f601583612149565b915061284a82612809565b602082019050919050565b6000602082019050818103600083015261286e81612832565b9050919050565b7f4e487b7100000000000000000000000000000000000000000000000000000000600052602260045260246000fd5b600060028204905060018216806128bc57607f821691505b6020821081036128cf576128ce612875565b5b50919050565b7f4e487b7100000000000000000000000000000000000000000000000000000000600052603260045260246000fd5b7f4e487b7100000000000000000000000000000000000000000000000000000000600052601160045260246000fd5b600061293e82611de2565b91507fffffffffffffffffffffffffffffffffffffffffffffffffffffffffffffffff82036129705761296f612904565b5b600182019050919050565b60008190508160005260206000209050919050565b60006020601f8301049050919050565b600082821b905092915050565b6000600883026129dd7fffffffffffffffffffffffffffffffffffffffffffffffffffffffffffffffff826129a0565b6129e786836129a0565b95508019841693508086168417925050509392505050565b6000612a1a612a15612a1084611de2565b611f3e565b611de2565b9050919050565b6000819050919050565b612a34836129ff565b612a48612a4082612a21565b8484546129ad565b825550505050565b600090565b612a5d612a50565b612a68818484612a2b565b505050565b5b81811015612a8c57612a81600082612a55565b600181019050612a6e565b5050565b601f821115612ad157612aa28161297b565b612aab84612990565b81016020851015612aba578190505b612ace612ac685612990565b830182612a6d565b50505b505050565b600082821c905092915050565b6000612af460001984600802612ad6565b1980831691505092915050565b6000612b0d8383612ae3565b9150826002028217905092915050565b612b2682611ff3565b67ffffffffffffffff811115612b3f57612b3e6121da565b5b612b4982546128a4565b612b54828285612a90565b600060209050601f831160018114612b875760008415612b75578287015190505b612b7f8582612b01565b865550612be7565b601f198416612b958661297b565b60005b82811015612bbd57848901518255600182019150602085019450602081019050612b98565b86831015612bda5784890151612bd6601f891682612ae3565b8355505b6001600288020188555050505b505050505050565b7f5f6c6566742073686f756c6420626520696e7369646520746865206669656c64600082015250565b6000612c25602083612149565b9150612c3082612bef565b602082019050919050565b60006020820190508181036000830152612c5481612c18565b9050919050565b7f5f72696768742073686f756c6420626520696e7369646520746865206669656c60008201527f6400000000000000000000000000000000000000000000000000000000000000602082015250565b6000612cb7602183612149565b9150612cc282612c5b565b604082019050919050565b60006020820190508181036000830152612ce681612caa565b9050919050565b6000819050919050565b6000612d12612d0d612d0884612ced565b611f3e565b611de2565b9050919050565b612d2281612cf7565b82525050565b6000606082019050612d3d6000830186611fb8565b612d4a6020830185611fb8565b612d576040830184612d19565b949350505050565b600081519050612d6e81611dec565b92915050565b60008060408385031215612d8b57612d8a611dd8565b5b6000612d9985828601612d5f565b9250506020612daa85828601612d5f565b9150509250929050565b7f4e487b7100000000000000000000000000000000000000000000000000000000600052601260045260246000fd5b6000612dee8261234e565b915060008203612e0157612e00612904565b5b600182039050919050565b7f496e76616c69642063616e646964617465210000000000000000000000000000600082015250565b6000612e42601283612149565b9150612e4d82612e0c565b602082019050919050565b60006020820190508181036000830152612e7181612e35565b9050919050565b6000612e8382611de2565b9150612e8e83611de2565b9250828201905080821115612ea657612ea5612904565b5b92915050565b7f496e646578206f7574206f6620626f756e647300000000000000000000000000600082015250565b6000612ee2601383612149565b9150612eed82612eac565b602082019050919050565b60006020820190508181036000830152612f1181612ed5565b9050919050565b7f54686520636f6d6d69746d656e7420686173206265656e207375626d6974746560008201527f6400000000000000000000000000000000000000000000000000000000000000602082015250565b6000612f74602183612149565b9150612f7f82612f18565b604082019050919050565b60006020820190508181036000830152612fa381612f67565b9050919050565b6000604082019050612fbf600083018561235e565b612fcc6020830184611fb8565b9392505050565b7f546865206e756c6c696669657220686173206265656e207375626d6974746564600082015250565b6000613009602083612149565b915061301482612fd3565b602082019050919050565b6000602082019050818103600083015261303881612ffc565b9050919050565b7f43616e6e6f742066696e6420796f7572206d65726b6c6520726f6f7400000000600082015250565b6000613075601c83612149565b91506130808261303f565b602082019050919050565b600060208201905081810360008301526130a481613068565b9050919050565b600060029050919050565b600081905092915050565b6000819050919050565b6130d481611de2565b82525050565b60006130e683836130cb565b60208301905092915050565b6000602082019050919050565b613108816130ab565b61311281846130b6565b925061311d826130c1565b8060005b8381101561314e57815161313587826130da565b9650613140836130f2565b925050600181019050613121565b505050505050565b600060029050919050565b600081905092915050565b6000819050919050565b600081905092915050565b61318a816130ab565b6131948184613176565b925061319f826130c1565b8060005b838110156131d05781516131b787826130da565b96506131c2836130f2565b9250506001810190506131a3565b505050505050565b60006131e48383613181565b60408301905092915050565b6000602082019050919050565b61320681613156565b6132108184613161565b925061321b8261316c565b8060005b8381101561324c57815161323387826131d8565b965061323e836131f0565b92505060018101905061321f565b505050505050565b60006101408201905061326a60008301876130ff565b61327760408301866131fd565b61328460c08301856130ff565b6132926101008301846130ff565b95945050505050565b6132a481611ee8565b81146132af57600080fd5b50565b6000815190506132c18161329b565b92915050565b6000602082840312156132dd576132dc611dd8565b5b60006132eb848285016132b2565b91505092915050565b7f496e76616c69642070726f6f6600000000000000000000000000000000000000600082015250565b600061332a600d83612149565b9150613335826132f4565b602082019050919050565b600060208201905081810360008301526133598161331d565b9050919050565b60008160011c9050919050565b6000808291508390505b60018511156133b75780860481111561339357613392612904565b5b60018516156133a25780820291505b80810290506133b085613360565b9450613377565b94509492505050565b6000826133d0576001905061348c565b816133de576000905061348c565b81600181146133f457600281146133fe5761342d565b600191505061348c565b60ff8411156134105761340f612904565b5b8360020a91508482111561342757613426612904565b5b5061348c565b5060208310610133831016604e8410600b84101617156134625782820a90508381111561345d5761345c612904565b5b61348c565b61346f848484600161336d565b9250905081840481111561348657613485612904565b5b81810290505b9392505050565b600061349e8261234e565b91506134a98361234e565b92506134ba63ffffffff84846133c0565b905092915050565b7f4d65726b6c6520747265652069732066756c6c2e204e6f206d6f7265206c656160008201527f7665732063616e20626520616464656400000000000000000000000000000000602082015250565b600061351e603083612149565b9150613529826134c2565b604082019050919050565b6000602082019050818103600083015261354d81613511565b9050919050565b600061355f8261234e565b915061356a8361234e565b92508261357a57613579612db4565b5b828206905092915050565b60006135908261234e565b915061359b8361234e565b9250826135ab576135aa612db4565b5b828204905092915050565b60006135c18261234e565b915063ffffffff82036135d7576135d6612904565b5b600182019050919050565b60006135ed8261234e565b91506135f88361234e565b9250828201905063ffffffff81111561361457613613612904565b5b9291505056fea26469706673582212207250fff9014f4b8c87f52501a6acbbf5914ae88d17fd951bba4229037e3a108164736f6c63430008130033",
			"opcodes": "PUSH1 0xC0 PUSH1 0x40 MSTORE PUSH1 0x0 PUSH1 0x3 PUSH1 0x0 PUSH2 0x100 EXP DUP2 SLOAD DUP2 PUSH4 0xFFFFFFFF MUL NOT AND SWAP1 DUP4 PUSH4 0xFFFFFFFF AND MUL OR SWAP1 SSTORE POP PUSH1 0x0 PUSH1 0x3 PUSH1 0x4 PUSH2 0x100 EXP DUP2 SLOAD DUP2 PUSH4 0xFFFFFFFF MUL NOT AND SWAP1 DUP4 PUSH4 0xFFFFFFFF AND MUL OR SWAP1 SSTORE POP CALLVALUE DUP1 ISZERO PUSH3 0x55 JUMPI PUSH1 0x0 DUP1 REVERT JUMPDEST POP PUSH1 0x40 MLOAD PUSH3 0x4B36 CODESIZE SUB DUP1 PUSH3 0x4B36 DUP4 CODECOPY DUP2 DUP2 ADD PUSH1 0x40 MSTORE DUP2 ADD SWAP1 PUSH3 0x7B SWAP2 SWAP1 PUSH3 0xDDB JUMP JUMPDEST DUP4 DUP4 DUP4 DUP3 DUP3 PUSH1 0x0 DUP3 PUSH4 0xFFFFFFFF AND GT PUSH3 0xCC JUMPI PUSH1 0x40 MLOAD PUSH32 0x8C379A000000000000000000000000000000000000000000000000000000000 DUP2 MSTORE PUSH1 0x4 ADD PUSH3 0xC3 SWAP1 PUSH3 0xEF3 JUMP JUMPDEST PUSH1 0x40 MLOAD DUP1 SWAP2 SUB SWAP1 REVERT JUMPDEST PUSH1 0x20 DUP3 PUSH4 0xFFFFFFFF AND LT PUSH3 0x118 JUMPI PUSH1 0x40 MLOAD PUSH32 0x8C379A000000000000000000000000000000000000000000000000000000000 DUP2 MSTORE PUSH1 0x4 ADD PUSH3 0x10F SWAP1 PUSH3 0xF65 JUMP JUMPDEST PUSH1 0x40 MLOAD DUP1 SWAP2 SUB SWAP1 REVERT JUMPDEST DUP2 PUSH1 0x0 DUP1 PUSH2 0x100 EXP DUP2 SLOAD DUP2 PUSH4 0xFFFFFFFF MUL NOT AND SWAP1 DUP4 PUSH4 0xFFFFFFFF AND MUL OR SWAP1 SSTORE POP DUP1 PUSH20 0xFFFFFFFFFFFFFFFFFFFFFFFFFFFFFFFFFFFFFFFF AND PUSH1 0x80 DUP2 PUSH20 0xFFFFFFFFFFFFFFFFFFFFFFFFFFFFFFFFFFFFFFFF AND DUP2 MSTORE POP POP PUSH1 0x0 JUMPDEST DUP3 PUSH4 0xFFFFFFFF AND DUP2 PUSH4 0xFFFFFFFF AND LT ISZERO PUSH3 0x1CE JUMPI PUSH3 0x19B DUP2 PUSH4 0xFFFFFFFF AND PUSH3 0x36C PUSH1 0x20 SHL PUSH1 0x20 SHR JUMP JUMPDEST PUSH1 0x1 PUSH1 0x0 DUP4 PUSH4 0xFFFFFFFF AND DUP2 MSTORE PUSH1 0x20 ADD SWAP1 DUP2 MSTORE PUSH1 0x20 ADD PUSH1 0x0 KECCAK256 DUP2 SWAP1 SSTORE POP DUP1 DUP1 PUSH3 0x1C5 SWAP1 PUSH3 0xFB6 JUMP JUMPDEST SWAP2 POP POP PUSH3 0x16F JUMP JUMPDEST POP PUSH3 0x1F4 PUSH1 0x1 DUP4 PUSH3 0x1E2 SWAP2 SWAP1 PUSH3 0xFE7 JUMP JUMPDEST PUSH4 0xFFFFFFFF AND PUSH3 0x36C PUSH1 0x20 SHL PUSH1 0x20 SHR JUMP JUMPDEST PUSH1 0x2 PUSH1 0x0 DUP1 DUP2 MSTORE PUSH1 0x20 ADD SWAP1 DUP2 MSTORE PUSH1 0x20 ADD PUSH1 0x0 KECCAK256 DUP2 SWAP1 SSTORE POP POP POP DUP1 PUSH20 0xFFFFFFFFFFFFFFFFFFFFFFFFFFFFFFFFFFFFFFFF AND PUSH1 0xA0 DUP2 PUSH20 0xFFFFFFFFFFFFFFFFFFFFFFFFFFFFFFFFFFFFFFFF AND DUP2 MSTORE POP POP POP POP POP CALLER PUSH1 0x6 PUSH1 0x0 PUSH2 0x100 EXP DUP2 SLOAD DUP2 PUSH20 0xFFFFFFFFFFFFFFFFFFFFFFFFFFFFFFFFFFFFFFFF MUL NOT AND SWAP1 DUP4 PUSH20 0xFFFFFFFFFFFFFFFFFFFFFFFFFFFFFFFFFFFFFFFF AND MUL OR SWAP1 SSTORE POP DUP1 MLOAD PUSH1 0x9 DUP2 SWAP1 SSTORE POP PUSH1 0x0 JUMPDEST PUSH1 0x9 SLOAD DUP2 LT ISZERO PUSH3 0x361 JUMPI DUP2 DUP2 DUP2 MLOAD DUP2 LT PUSH3 0x2B1 JUMPI PUSH3 0x2B0 PUSH3 0x1026 JUMP JUMPDEST JUMPDEST PUSH1 0x20 MUL PUSH1 0x20 ADD ADD MLOAD PUSH1 0xA PUSH1 0x0 DUP4 DUP2 MSTORE PUSH1 0x20 ADD SWAP1 DUP2 MSTORE PUSH1 0x20 ADD PUSH1 0x0 KECCAK256 SWAP1 DUP2 PUSH3 0x2DA SWAP2 SWAP1 PUSH3 0x12A0 JUMP JUMPDEST POP PUSH1 0x0 PUSH1 0xB PUSH1 0x0 DUP4 DUP2 MSTORE PUSH1 0x20 ADD SWAP1 DUP2 MSTORE PUSH1 0x20 ADD PUSH1 0x0 KECCAK256 DUP2 SWAP1 SSTORE POP DUP1 PUSH32 0xE83B2A43E7E82D975C8A0A6D2F045153C869E111136A34D1889AB7B598E396A3 DUP4 DUP4 DUP2 MLOAD DUP2 LT PUSH3 0x32C JUMPI PUSH3 0x32B PUSH3 0x1026 JUMP JUMPDEST JUMPDEST PUSH1 0x20 MUL PUSH1 0x20 ADD ADD MLOAD PUSH1 0x40 MLOAD PUSH3 0x343 SWAP2 SWAP1 PUSH3 0x13C8 JUMP JUMPDEST PUSH1 0x40 MLOAD DUP1 SWAP2 SUB SWAP1 LOG2 DUP1 DUP1 PUSH3 0x358 SWAP1 PUSH3 0x13EC JUMP JUMPDEST SWAP2 POP POP PUSH3 0x290 JUMP JUMPDEST POP POP POP POP POP PUSH3 0x14AB JUMP JUMPDEST PUSH1 0x0 DUP1 DUP3 SUB PUSH3 0x3A2 JUMPI PUSH32 0x2FE54C60D3ACABF3343A35B6EBA15DB4821B340F76E741E2249685ED4899AF6C PUSH1 0x0 SHL SWAP1 POP PUSH3 0xA48 JUMP JUMPDEST PUSH1 0x1 DUP3 SUB PUSH3 0x3D7 JUMPI PUSH32 0x256A6135777EEE2FD26F54B8B7037A25439D5235CAEE224154186D2B8A52E31D PUSH1 0x0 SHL SWAP1 POP PUSH3 0xA48 JUMP JUMPDEST PUSH1 0x2 DUP3 SUB PUSH3 0x40C JUMPI PUSH32 0x1151949895E82AB19924DE92C40A3D6F7BCB60D92B00504B8199613683F0C200 PUSH1 0x0 SHL SWAP1 POP PUSH3 0xA48 JUMP JUMPDEST PUSH1 0x3 DUP3 SUB PUSH3 0x441 JUMPI PUSH32 0x20121EE811489FF8D61F09FB89E313F14959A0F28BB428A20DBA6B0B068B3BDB PUSH1 0x0 SHL SWAP1 POP PUSH3 0xA48 JUMP JUMPDEST PUSH1 0x4 DUP3 SUB PUSH3 0x476 JUMPI PUSH32 0xA89CA6FFA14CC462CFEDB842C30ED221A50A3D6BF022A6A57DC82AB24C157C9 PUSH1 0x0 SHL SWAP1 POP PUSH3 0xA48 JUMP JUMPDEST PUSH1 0x5 DUP3 SUB PUSH3 0x4AB JUMPI PUSH32 0x24CA05C2B5CD42E890D6BE94C68D0689F4F21C9CEC9C0F13FE41D566DFB54959 PUSH1 0x0 SHL SWAP1 POP PUSH3 0xA48 JUMP JUMPDEST PUSH1 0x6 DUP3 SUB PUSH3 0x4E0 JUMPI PUSH32 0x1CCB97C932565A92C60156BDBA2D08F3BF1377464E025CEE765679E604A7315C PUSH1 0x0 SHL SWAP1 POP PUSH3 0xA48 JUMP JUMPDEST PUSH1 0x7 DUP3 SUB PUSH3 0x515 JUMPI PUSH32 0x19156FBD7D1A8BF5CBA8909367DE1B624534EBAB4F0F79E003BCCDD1B182BDB4 PUSH1 0x0 SHL SWAP1 POP PUSH3 0xA48 JUMP JUMPDEST PUSH1 0x8 DUP3 SUB PUSH3 0x54A JUMPI PUSH32 0x261AF8C1F0912E465744641409F622D466C3920AC6E5FF37E36604CB11DFFF80 PUSH1 0x0 SHL SWAP1 POP PUSH3 0xA48 JUMP JUMPDEST PUSH1 0x9 DUP3 SUB PUSH3 0x57E JUMPI PUSH31 0x58459724FF6CA5A1652FCBC3E82B93895CF08E975B19BEAB3F54C217D1C007 PUSH1 0x0 SHL SWAP1 POP PUSH3 0xA48 JUMP JUMPDEST PUSH1 0xA DUP3 SUB PUSH3 0x5B3 JUMPI PUSH32 0x1F04EF20DEE48D39984D8EABE768A70EAFA6310AD20849D4573C3C40C2AD1E30 PUSH1 0x0 SHL SWAP1 POP PUSH3 0xA48 JUMP JUMPDEST PUSH1 0xB DUP3 SUB PUSH3 0x5E8 JUMPI PUSH32 0x1BEA3DEC5DAB51567CE7E200A30F7BA6D4276AEAA53E2686F962A46C66D511E5 PUSH1 0x0 SHL SWAP1 POP PUSH3 0xA48 JUMP JUMPDEST PUSH1 0xC DUP3 SUB PUSH3 0x61D JUMPI PUSH32 0xEE0F941E2DA4B9E31C3CA97A40D8FA9CE68D97C084177071B3CB46CD3372F0F PUSH1 0x0 SHL SWAP1 POP PUSH3 0xA48 JUMP JUMPDEST PUSH1 0xD DUP3 SUB PUSH3 0x652 JUMPI PUSH32 0x1CA9503E8935884501BBAF20BE14EB4C46B89772C97B96E3B2EBF3A36A948BBD PUSH1 0x0 SHL SWAP1 POP PUSH3 0xA48 JUMP JUMPDEST PUSH1 0xE DUP3 SUB PUSH3 0x687 JUMPI PUSH32 0x133A80E30697CD55D8F7D4B0965B7BE24057BA5DC3DA898EE2187232446CB108 PUSH1 0x0 SHL SWAP1 POP PUSH3 0xA48 JUMP JUMPDEST PUSH1 0xF DUP3 SUB PUSH3 0x6BC JUMPI PUSH32 0x13E6D8FC88839ED76E182C2A779AF5B2C0DA9DD18C90427A644F7E148A6253B6 PUSH1 0x0 SHL SWAP1 POP PUSH3 0xA48 JUMP JUMPDEST PUSH1 0x10 DUP3 SUB PUSH3 0x6F1 JUMPI PUSH32 0x1EB16B057A477F4BC8F572EA6BEE39561098F78F15BFB3699DCBB7BD8DB61854 PUSH1 0x0 SHL SWAP1 POP PUSH3 0xA48 JUMP JUMPDEST PUSH1 0x11 DUP3 SUB PUSH3 0x726 JUMPI PUSH32 0xDA2CB16A1CEAABF1C16B838F7A9E3F2A3A3088D9E0A6DEBAA748114620696EA PUSH1 0x0 SHL SWAP1 POP PUSH3 0xA48 JUMP JUMPDEST PUSH1 0x12 DUP3 SUB PUSH3 0x75B JUMPI PUSH32 0x24A3B3D822420B14B5D8CB6C28A574F01E98EA9E940551D2EBD75CEE12649F9D PUSH1 0x0 SHL SWAP1 POP PUSH3 0xA48 JUMP JUMPDEST PUSH1 0x13 DUP3 SUB PUSH3 0x790 JUMPI PUSH32 0x198622ACBD783D1B0D9064105B1FC8E4D8889DE95C4C519B3F635809FE6AFC05 PUSH1 0x0 SHL SWAP1 POP PUSH3 0xA48 JUMP JUMPDEST PUSH1 0x14 DUP3 SUB PUSH3 0x7C5 JUMPI PUSH32 0x29D7ED391256CCC3EA596C86E933B89FF339D25EA8DDCED975AE2FE30B5296D4 PUSH1 0x0 SHL SWAP1 POP PUSH3 0xA48 JUMP JUMPDEST PUSH1 0x15 DUP3 SUB PUSH3 0x7FA JUMPI PUSH32 0x19BE59F2F0413CE78C0C3703A3A5451B1D7F39629FA33ABD11548A76065B2967 PUSH1 0x0 SHL SWAP1 POP PUSH3 0xA48 JUMP JUMPDEST PUSH1 0x16 DUP3 SUB PUSH3 0x82F JUMPI PUSH32 0x1FF3F61797E538B70E619310D33F2A063E7EB59104E112E95738DA1254DC3453 PUSH1 0x0 SHL SWAP1 POP PUSH3 0xA48 JUMP JUMPDEST PUSH1 0x17 DUP3 SUB PUSH3 0x864 JUMPI PUSH32 0x10C16AE9959CF8358980D9DD9616E48228737310A10E2B6B731C1A548F036C48 PUSH1 0x0 SHL SWAP1 POP PUSH3 0xA48 JUMP JUMPDEST PUSH1 0x18 DUP3 SUB PUSH3 0x899 JUMPI PUSH32 0xBA433A63174A90AC20992E75E3095496812B652685B5E1A2EAE0B1BF4E8FCD1 PUSH1 0x0 SHL SWAP1 POP PUSH3 0xA48 JUMP JUMPDEST PUSH1 0x19 DUP3 SUB PUSH3 0x8CE JUMPI PUSH32 0x19DDB9DF2BC98D987D0DFECA9D2B643DEAFAB8F7036562E627C3667266A044C PUSH1 0x0 SHL SWAP1 POP PUSH3 0xA48 JUMP JUMPDEST PUSH1 0x1A DUP3 SUB PUSH3 0x903 JUMPI PUSH32 0x2D3C88B23175C5A5565DB928414C66D1912B11ACF974B2E644CAAAC04739CE99 PUSH1 0x0 SHL SWAP1 POP PUSH3 0xA48 JUMP JUMPDEST PUSH1 0x1B DUP3 SUB PUSH3 0x938 JUMPI PUSH32 0x2EAB55F6AE4E66E32C5189EED5C470840863445760F5ED7E7B69B2A62600F354 PUSH1 0x0 SHL SWAP1 POP PUSH3 0xA48 JUMP JUMPDEST PUSH1 0x1C DUP3 SUB PUSH3 0x96C JUMPI PUSH31 0x2DF37A2642621802383CF952BF4DD1F32E05433BEEB1FD41031FB7EACE979D PUSH1 0x0 SHL SWAP1 POP PUSH3 0xA48 JUMP JUMPDEST PUSH1 0x1D DUP3 SUB PUSH3 0x9A1 JUMPI PUSH32 0x104AEB41435DB66C3E62FECCC1D6F5D98D0A0ED75D1374DB457CF462E3A1F427 PUSH1 0x0 SHL SWAP1 POP PUSH3 0xA48 JUMP JUMPDEST PUSH1 0x1E DUP3 SUB PUSH3 0x9D6 JUMPI PUSH32 0x1F3C6FD858E9A7D4B0D1F38E256A09D81D5A5E3C963987E2D4B814CFAB7C6EBB PUSH1 0x0 SHL SWAP1 POP PUSH3 0xA48 JUMP JUMPDEST PUSH1 0x1F DUP3 SUB PUSH3 0xA0B JUMPI PUSH32 0x2C7A07D20DFF79D01FECEDC1134284A8D08436606C93693B67E333F671BF69CC PUSH1 0x0 SHL SWAP1 POP PUSH3 0xA48 JUMP JUMPDEST PUSH1 0x40 MLOAD PUSH32 0x8C379A000000000000000000000000000000000000000000000000000000000 DUP2 MSTORE PUSH1 0x4 ADD PUSH3 0xA3F SWAP1 PUSH3 0x1489 JUMP JUMPDEST PUSH1 0x40 MLOAD DUP1 SWAP2 SUB SWAP1 REVERT JUMPDEST SWAP2 SWAP1 POP JUMP JUMPDEST PUSH1 0x0 PUSH1 0x40 MLOAD SWAP1 POP SWAP1 JUMP JUMPDEST PUSH1 0x0 DUP1 REVERT JUMPDEST PUSH1 0x0 DUP1 REVERT JUMPDEST PUSH1 0x0 PUSH4 0xFFFFFFFF DUP3 AND SWAP1 POP SWAP2 SWAP1 POP JUMP JUMPDEST PUSH3 0xA7C DUP2 PUSH3 0xA61 JUMP JUMPDEST DUP2 EQ PUSH3 0xA88 JUMPI PUSH1 0x0 DUP1 REVERT JUMPDEST POP JUMP JUMPDEST PUSH1 0x0 DUP2 MLOAD SWAP1 POP PUSH3 0xA9C DUP2 PUSH3 0xA71 JUMP JUMPDEST SWAP3 SWAP2 POP POP JUMP JUMPDEST PUSH1 0x0 PUSH20 0xFFFFFFFFFFFFFFFFFFFFFFFFFFFFFFFFFFFFFFFF DUP3 AND SWAP1 POP SWAP2 SWAP1 POP JUMP JUMPDEST PUSH1 0x0 PUSH3 0xACF DUP3 PUSH3 0xAA2 JUMP JUMPDEST SWAP1 POP SWAP2 SWAP1 POP JUMP JUMPDEST PUSH1 0x0 PUSH3 0xAE3 DUP3 PUSH3 0xAC2 JUMP JUMPDEST SWAP1 POP SWAP2 SWAP1 POP JUMP JUMPDEST PUSH3 0xAF5 DUP2 PUSH3 0xAD6 JUMP JUMPDEST DUP2 EQ PUSH3 0xB01 JUMPI PUSH1 0x0 DUP1 REVERT JUMPDEST POP JUMP JUMPDEST PUSH1 0x0 DUP2 MLOAD SWAP1 POP PUSH3 0xB15 DUP2 PUSH3 0xAEA JUMP JUMPDEST SWAP3 SWAP2 POP POP JUMP JUMPDEST PUSH1 0x0 PUSH3 0xB28 DUP3 PUSH3 0xAC2 JUMP JUMPDEST SWAP1 POP SWAP2 SWAP1 POP JUMP JUMPDEST PUSH3 0xB3A DUP2 PUSH3 0xB1B JUMP JUMPDEST DUP2 EQ PUSH3 0xB46 JUMPI PUSH1 0x0 DUP1 REVERT JUMPDEST POP JUMP JUMPDEST PUSH1 0x0 DUP2 MLOAD SWAP1 POP PUSH3 0xB5A DUP2 PUSH3 0xB2F JUMP JUMPDEST SWAP3 SWAP2 POP POP JUMP JUMPDEST PUSH1 0x0 DUP1 REVERT JUMPDEST PUSH1 0x0 PUSH1 0x1F NOT PUSH1 0x1F DUP4 ADD AND SWAP1 POP SWAP2 SWAP1 POP JUMP JUMPDEST PUSH32 0x4E487B7100000000000000000000000000000000000000000000000000000000 PUSH1 0x0 MSTORE PUSH1 0x41 PUSH1 0x4 MSTORE PUSH1 0x24 PUSH1 0x0 REVERT JUMPDEST PUSH3 0xBB0 DUP3 PUSH3 0xB65 JUMP JUMPDEST DUP2 ADD DUP2 DUP2 LT PUSH8 0xFFFFFFFFFFFFFFFF DUP3 GT OR ISZERO PUSH3 0xBD2 JUMPI PUSH3 0xBD1 PUSH3 0xB76 JUMP JUMPDEST JUMPDEST DUP1 PUSH1 0x40 MSTORE POP POP POP JUMP JUMPDEST PUSH1 0x0 PUSH3 0xBE7 PUSH3 0xA4D JUMP JUMPDEST SWAP1 POP PUSH3 0xBF5 DUP3 DUP3 PUSH3 0xBA5 JUMP JUMPDEST SWAP2 SWAP1 POP JUMP JUMPDEST PUSH1 0x0 PUSH8 0xFFFFFFFFFFFFFFFF DUP3 GT ISZERO PUSH3 0xC18 JUMPI PUSH3 0xC17 PUSH3 0xB76 JUMP JUMPDEST JUMPDEST PUSH1 0x20 DUP3 MUL SWAP1 POP PUSH1 0x20 DUP2 ADD SWAP1 POP SWAP2 SWAP1 POP JUMP JUMPDEST PUSH1 0x0 DUP1 REVERT JUMPDEST PUSH1 0x0 DUP1 REVERT JUMPDEST PUSH1 0x0 PUSH8 0xFFFFFFFFFFFFFFFF DUP3 GT ISZERO PUSH3 0xC51 JUMPI PUSH3 0xC50 PUSH3 0xB76 JUMP JUMPDEST JUMPDEST PUSH3 0xC5C DUP3 PUSH3 0xB65 JUMP JUMPDEST SWAP1 POP PUSH1 0x20 DUP2 ADD SWAP1 POP SWAP2 SWAP1 POP JUMP JUMPDEST PUSH1 0x0 JUMPDEST DUP4 DUP2 LT ISZERO PUSH3 0xC89 JUMPI DUP1 DUP3 ADD MLOAD DUP2 DUP5 ADD MSTORE PUSH1 0x20 DUP2 ADD SWAP1 POP PUSH3 0xC6C JUMP JUMPDEST PUSH1 0x0 DUP5 DUP5 ADD MSTORE POP POP POP POP JUMP JUMPDEST PUSH1 0x0 PUSH3 0xCAC PUSH3 0xCA6 DUP5 PUSH3 0xC33 JUMP JUMPDEST PUSH3 0xBDB JUMP JUMPDEST SWAP1 POP DUP3 DUP2 MSTORE PUSH1 0x20 DUP2 ADD DUP5 DUP5 DUP5 ADD GT ISZERO PUSH3 0xCCB JUMPI PUSH3 0xCCA PUSH3 0xC2E JUMP JUMPDEST JUMPDEST PUSH3 0xCD8 DUP5 DUP3 DUP6 PUSH3 0xC69 JUMP JUMPDEST POP SWAP4 SWAP3 POP POP POP JUMP JUMPDEST PUSH1 0x0 DUP3 PUSH1 0x1F DUP4 ADD SLT PUSH3 0xCF8 JUMPI PUSH3 0xCF7 PUSH3 0xB60 JUMP JUMPDEST JUMPDEST DUP2 MLOAD PUSH3 0xD0A DUP5 DUP3 PUSH1 0x20 DUP7 ADD PUSH3 0xC95 JUMP JUMPDEST SWAP2 POP POP SWAP3 SWAP2 POP POP JUMP JUMPDEST PUSH1 0x0 PUSH3 0xD2A PUSH3 0xD24 DUP5 PUSH3 0xBFA JUMP JUMPDEST PUSH3 0xBDB JUMP JUMPDEST SWAP1 POP DUP1 DUP4 DUP3 MSTORE PUSH1 0x20 DUP3 ADD SWAP1 POP PUSH1 0x20 DUP5 MUL DUP4 ADD DUP6 DUP2 GT ISZERO PUSH3 0xD50 JUMPI PUSH3 0xD4F PUSH3 0xC29 JUMP JUMPDEST JUMPDEST DUP4 JUMPDEST DUP2 DUP2 LT ISZERO PUSH3 0xD9E JUMPI DUP1 MLOAD PUSH8 0xFFFFFFFFFFFFFFFF DUP2 GT ISZERO PUSH3 0xD79 JUMPI PUSH3 0xD78 PUSH3 0xB60 JUMP JUMPDEST JUMPDEST DUP1 DUP7 ADD PUSH3 0xD88 DUP10 DUP3 PUSH3 0xCE0 JUMP JUMPDEST DUP6 MSTORE PUSH1 0x20 DUP6 ADD SWAP5 POP POP POP PUSH1 0x20 DUP2 ADD SWAP1 POP PUSH3 0xD52 JUMP JUMPDEST POP POP POP SWAP4 SWAP3 POP POP POP JUMP JUMPDEST PUSH1 0x0 DUP3 PUSH1 0x1F DUP4 ADD SLT PUSH3 0xDC0 JUMPI PUSH3 0xDBF PUSH3 0xB60 JUMP JUMPDEST JUMPDEST DUP2 MLOAD PUSH3 0xDD2 DUP5 DUP3 PUSH1 0x20 DUP7 ADD PUSH3 0xD13 JUMP JUMPDEST SWAP2 POP POP SWAP3 SWAP2 POP POP JUMP JUMPDEST PUSH1 0x0 DUP1 PUSH1 0x0 DUP1 PUSH1 0x80 DUP6 DUP8 SUB SLT ISZERO PUSH3 0xDF8 JUMPI PUSH3 0xDF7 PUSH3 0xA57 JUMP JUMPDEST JUMPDEST PUSH1 0x0 PUSH3 0xE08 DUP8 DUP3 DUP9 ADD PUSH3 0xA8B JUMP JUMPDEST SWAP5 POP POP PUSH1 0x20 PUSH3 0xE1B DUP8 DUP3 DUP9 ADD PUSH3 0xB04 JUMP JUMPDEST SWAP4 POP POP PUSH1 0x40 PUSH3 0xE2E DUP8 DUP3 DUP9 ADD PUSH3 0xB49 JUMP JUMPDEST SWAP3 POP POP PUSH1 0x60 DUP6 ADD MLOAD PUSH8 0xFFFFFFFFFFFFFFFF DUP2 GT ISZERO PUSH3 0xE52 JUMPI PUSH3 0xE51 PUSH3 0xA5C JUMP JUMPDEST JUMPDEST PUSH3 0xE60 DUP8 DUP3 DUP9 ADD PUSH3 0xDA8 JUMP JUMPDEST SWAP2 POP POP SWAP3 SWAP6 SWAP2 SWAP5 POP SWAP3 POP JUMP JUMPDEST PUSH1 0x0 DUP3 DUP3 MSTORE PUSH1 0x20 DUP3 ADD SWAP1 POP SWAP3 SWAP2 POP POP JUMP JUMPDEST PUSH32 0x5F6C6576656C732073686F756C642062652067726561746572207468616E207A PUSH1 0x0 DUP3 ADD MSTORE PUSH32 0x65726F0000000000000000000000000000000000000000000000000000000000 PUSH1 0x20 DUP3 ADD MSTORE POP JUMP JUMPDEST PUSH1 0x0 PUSH3 0xEDB PUSH1 0x23 DUP4 PUSH3 0xE6C JUMP JUMPDEST SWAP2 POP PUSH3 0xEE8 DUP3 PUSH3 0xE7D JUMP JUMPDEST PUSH1 0x40 DUP3 ADD SWAP1 POP SWAP2 SWAP1 POP JUMP JUMPDEST PUSH1 0x0 PUSH1 0x20 DUP3 ADD SWAP1 POP DUP2 DUP2 SUB PUSH1 0x0 DUP4 ADD MSTORE PUSH3 0xF0E DUP2 PUSH3 0xECC JUMP JUMPDEST SWAP1 POP SWAP2 SWAP1 POP JUMP JUMPDEST PUSH32 0x5F6C6576656C732073686F756C64206265206C657373207468616E2033320000 PUSH1 0x0 DUP3 ADD MSTORE POP JUMP JUMPDEST PUSH1 0x0 PUSH3 0xF4D PUSH1 0x1E DUP4 PUSH3 0xE6C JUMP JUMPDEST SWAP2 POP PUSH3 0xF5A DUP3 PUSH3 0xF15 JUMP JUMPDEST PUSH1 0x20 DUP3 ADD SWAP1 POP SWAP2 SWAP1 POP JUMP JUMPDEST PUSH1 0x0 PUSH1 0x20 DUP3 ADD SWAP1 POP DUP2 DUP2 SUB PUSH1 0x0 DUP4 ADD MSTORE PUSH3 0xF80 DUP2 PUSH3 0xF3E JUMP JUMPDEST SWAP1 POP SWAP2 SWAP1 POP JUMP JUMPDEST PUSH32 0x4E487B7100000000000000000000000000000000000000000000000000000000 PUSH1 0x0 MSTORE PUSH1 0x11 PUSH1 0x4 MSTORE PUSH1 0x24 PUSH1 0x0 REVERT JUMPDEST PUSH1 0x0 PUSH3 0xFC3 DUP3 PUSH3 0xA61 JUMP JUMPDEST SWAP2 POP PUSH4 0xFFFFFFFF DUP3 SUB PUSH3 0xFDC JUMPI PUSH3 0xFDB PUSH3 0xF87 JUMP JUMPDEST JUMPDEST PUSH1 0x1 DUP3 ADD SWAP1 POP SWAP2 SWAP1 POP JUMP JUMPDEST PUSH1 0x0 PUSH3 0xFF4 DUP3 PUSH3 0xA61 JUMP JUMPDEST SWAP2 POP PUSH3 0x1001 DUP4 PUSH3 0xA61 JUMP JUMPDEST SWAP3 POP DUP3 DUP3 SUB SWAP1 POP PUSH4 0xFFFFFFFF DUP2 GT ISZERO PUSH3 0x1020 JUMPI PUSH3 0x101F PUSH3 0xF87 JUMP JUMPDEST JUMPDEST SWAP3 SWAP2 POP POP JUMP JUMPDEST PUSH32 0x4E487B7100000000000000000000000000000000000000000000000000000000 PUSH1 0x0 MSTORE PUSH1 0x32 PUSH1 0x4 MSTORE PUSH1 0x24 PUSH1 0x0 REVERT JUMPDEST PUSH1 0x0 DUP2 MLOAD SWAP1 POP SWAP2 SWAP1 POP JUMP JUMPDEST PUSH32 0x4E487B7100000000000000000000000000000000000000000000000000000000 PUSH1 0x0 MSTORE PUSH1 0x22 PUSH1 0x4 MSTORE PUSH1 0x24 PUSH1 0x0 REVERT JUMPDEST PUSH1 0x0 PUSH1 0x2 DUP3 DIV SWAP1 POP PUSH1 0x1 DUP3 AND DUP1 PUSH3 0x10A8 JUMPI PUSH1 0x7F DUP3 AND SWAP2 POP JUMPDEST PUSH1 0x20 DUP3 LT DUP2 SUB PUSH3 0x10BE JUMPI PUSH3 0x10BD PUSH3 0x1060 JUMP JUMPDEST JUMPDEST POP SWAP2 SWAP1 POP JUMP JUMPDEST PUSH1 0x0 DUP2 SWAP1 POP DUP2 PUSH1 0x0 MSTORE PUSH1 0x20 PUSH1 0x0 KECCAK256 SWAP1 POP SWAP2 SWAP1 POP JUMP JUMPDEST PUSH1 0x0 PUSH1 0x20 PUSH1 0x1F DUP4 ADD DIV SWAP1 POP SWAP2 SWAP1 POP JUMP JUMPDEST PUSH1 0x0 DUP3 DUP3 SHL SWAP1 POP SWAP3 SWAP2 POP POP JUMP JUMPDEST PUSH1 0x0 PUSH1 0x8 DUP4 MUL PUSH3 0x1128 PUSH32 0xFFFFFFFFFFFFFFFFFFFFFFFFFFFFFFFFFFFFFFFFFFFFFFFFFFFFFFFFFFFFFFFF DUP3 PUSH3 0x10E9 JUMP JUMPDEST PUSH3 0x1134 DUP7 DUP4 PUSH3 0x10E9 JUMP JUMPDEST SWAP6 POP DUP1 NOT DUP5 AND SWAP4 POP DUP1 DUP7 AND DUP5 OR SWAP3 POP POP POP SWAP4 SWAP3 POP POP POP JUMP JUMPDEST PUSH1 0x0 DUP2 SWAP1 POP SWAP2 SWAP1 POP JUMP JUMPDEST PUSH1 0x0 DUP2 SWAP1 POP SWAP2 SWAP1 POP JUMP JUMPDEST PUSH1 0x0 PUSH3 0x1181 PUSH3 0x117B PUSH3 0x1175 DUP5 PUSH3 0x114C JUMP JUMPDEST PUSH3 0x1156 JUMP JUMPDEST PUSH3 0x114C JUMP JUMPDEST SWAP1 POP SWAP2 SWAP1 POP JUMP JUMPDEST PUSH1 0x0 DUP2 SWAP1 POP SWAP2 SWAP1 POP JUMP JUMPDEST PUSH3 0x119D DUP4 PUSH3 0x1160 JUMP JUMPDEST PUSH3 0x11B5 PUSH3 0x11AC DUP3 PUSH3 0x1188 JUMP JUMPDEST DUP5 DUP5 SLOAD PUSH3 0x10F6 JUMP JUMPDEST DUP3 SSTORE POP POP POP POP JUMP JUMPDEST PUSH1 0x0 SWAP1 JUMP JUMPDEST PUSH3 0x11CC PUSH3 0x11BD JUMP JUMPDEST PUSH3 0x11D9 DUP2 DUP5 DUP5 PUSH3 0x1192 JUMP JUMPDEST POP POP POP JUMP JUMPDEST JUMPDEST DUP2 DUP2 LT ISZERO PUSH3 0x1201 JUMPI PUSH3 0x11F5 PUSH1 0x0 DUP3 PUSH3 0x11C2 JUMP JUMPDEST PUSH1 0x1 DUP2 ADD SWAP1 POP PUSH3 0x11DF JUMP JUMPDEST POP POP JUMP JUMPDEST PUSH1 0x1F DUP3 GT ISZERO PUSH3 0x1250 JUMPI PUSH3 0x121A DUP2 PUSH3 0x10C4 JUMP JUMPDEST PUSH3 0x1225 DUP5 PUSH3 0x10D9 JUMP JUMPDEST DUP2 ADD PUSH1 0x20 DUP6 LT ISZERO PUSH3 0x1235 JUMPI DUP2 SWAP1 POP JUMPDEST PUSH3 0x124D PUSH3 0x1244 DUP6 PUSH3 0x10D9 JUMP JUMPDEST DUP4 ADD DUP3 PUSH3 0x11DE JUMP JUMPDEST POP POP JUMPDEST POP POP POP JUMP JUMPDEST PUSH1 0x0 DUP3 DUP3 SHR SWAP1 POP SWAP3 SWAP2 POP POP JUMP JUMPDEST PUSH1 0x0 PUSH3 0x1275 PUSH1 0x0 NOT DUP5 PUSH1 0x8 MUL PUSH3 0x1255 JUMP JUMPDEST NOT DUP1 DUP4 AND SWAP2 POP POP SWAP3 SWAP2 POP POP JUMP JUMPDEST PUSH1 0x0 PUSH3 0x1290 DUP4 DUP4 PUSH3 0x1262 JUMP JUMPDEST SWAP2 POP DUP3 PUSH1 0x2 MUL DUP3 OR SWAP1 POP SWAP3 SWAP2 POP POP JUMP JUMPDEST PUSH3 0x12AB DUP3 PUSH3 0x1055 JUMP JUMPDEST PUSH8 0xFFFFFFFFFFFFFFFF DUP2 GT ISZERO PUSH3 0x12C7 JUMPI PUSH3 0x12C6 PUSH3 0xB76 JUMP JUMPDEST JUMPDEST PUSH3 0x12D3 DUP3 SLOAD PUSH3 0x108F JUMP JUMPDEST PUSH3 0x12E0 DUP3 DUP3 DUP6 PUSH3 0x1205 JUMP JUMPDEST PUSH1 0x0 PUSH1 0x20 SWAP1 POP PUSH1 0x1F DUP4 GT PUSH1 0x1 DUP2 EQ PUSH3 0x1318 JUMPI PUSH1 0x0 DUP5 ISZERO PUSH3 0x1303 JUMPI DUP3 DUP8 ADD MLOAD SWAP1 POP JUMPDEST PUSH3 0x130F DUP6 DUP3 PUSH3 0x1282 JUMP JUMPDEST DUP7 SSTORE POP PUSH3 0x137F JUMP JUMPDEST PUSH1 0x1F NOT DUP5 AND PUSH3 0x1328 DUP7 PUSH3 0x10C4 JUMP JUMPDEST PUSH1 0x0 JUMPDEST DUP3 DUP2 LT ISZERO PUSH3 0x1352 JUMPI DUP5 DUP10 ADD MLOAD DUP3 SSTORE PUSH1 0x1 DUP3 ADD SWAP2 POP PUSH1 0x20 DUP6 ADD SWAP5 POP PUSH1 0x20 DUP2 ADD SWAP1 POP PUSH3 0x132B JUMP JUMPDEST DUP7 DUP4 LT ISZERO PUSH3 0x1372 JUMPI DUP5 DUP10 ADD MLOAD PUSH3 0x136E PUSH1 0x1F DUP10 AND DUP3 PUSH3 0x1262 JUMP JUMPDEST DUP4 SSTORE POP JUMPDEST PUSH1 0x1 PUSH1 0x2 DUP9 MUL ADD DUP9 SSTORE POP POP POP JUMPDEST POP POP POP POP POP POP JUMP JUMPDEST PUSH1 0x0 PUSH3 0x1394 DUP3 PUSH3 0x1055 JUMP JUMPDEST PUSH3 0x13A0 DUP2 DUP6 PUSH3 0xE6C JUMP JUMPDEST SWAP4 POP PUSH3 0x13B2 DUP2 DUP6 PUSH1 0x20 DUP7 ADD PUSH3 0xC69 JUMP JUMPDEST PUSH3 0x13BD DUP2 PUSH3 0xB65 JUMP JUMPDEST DUP5 ADD SWAP2 POP POP SWAP3 SWAP2 POP POP JUMP JUMPDEST PUSH1 0x0 PUSH1 0x20 DUP3 ADD SWAP1 POP DUP2 DUP2 SUB PUSH1 0x0 DUP4 ADD MSTORE PUSH3 0x13E4 DUP2 DUP5 PUSH3 0x1387 JUMP JUMPDEST SWAP1 POP SWAP3 SWAP2 POP POP JUMP JUMPDEST PUSH1 0x0 PUSH3 0x13F9 DUP3 PUSH3 0x114C JUMP JUMPDEST SWAP2 POP PUSH32 0xFFFFFFFFFFFFFFFFFFFFFFFFFFFFFFFFFFFFFFFFFFFFFFFFFFFFFFFFFFFFFFFF DUP3 SUB PUSH3 0x142E JUMPI PUSH3 0x142D PUSH3 0xF87 JUMP JUMPDEST JUMPDEST PUSH1 0x1 DUP3 ADD SWAP1 POP SWAP2 SWAP1 POP JUMP JUMPDEST PUSH32 0x496E646578206F7574206F6620626F756E647300000000000000000000000000 PUSH1 0x0 DUP3 ADD MSTORE POP JUMP JUMPDEST PUSH1 0x0 PUSH3 0x1471 PUSH1 0x13 DUP4 PUSH3 0xE6C JUMP JUMPDEST SWAP2 POP PUSH3 0x147E DUP3 PUSH3 0x1439 JUMP JUMPDEST PUSH1 0x20 DUP3 ADD SWAP1 POP SWAP2 SWAP1 POP JUMP JUMPDEST PUSH1 0x0 PUSH1 0x20 DUP3 ADD SWAP1 POP DUP2 DUP2 SUB PUSH1 0x0 DUP4 ADD MSTORE PUSH3 0x14A4 DUP2 PUSH3 0x1462 JUMP JUMPDEST SWAP1 POP SWAP2 SWAP1 POP JUMP JUMPDEST PUSH1 0x80 MLOAD PUSH1 0xA0 MLOAD PUSH2 0x3650 PUSH3 0x14E6 PUSH1 0x0 CODECOPY PUSH1 0x0 DUP2 DUP2 PUSH2 0x87C ADD MSTORE PUSH2 0x1A42 ADD MSTORE PUSH1 0x0 DUP2 DUP2 PUSH2 0xCAE ADD MSTORE DUP2 DUP2 PUSH2 0xD88 ADD MSTORE PUSH2 0x184F ADD MSTORE PUSH2 0x3650 PUSH1 0x0 RETURN INVALID PUSH1 0x80 PUSH1 0x40 MSTORE CALLVALUE DUP1 ISZERO PUSH2 0x10 JUMPI PUSH1 0x0 DUP1 REVERT JUMPDEST POP PUSH1 0x4 CALLDATASIZE LT PUSH2 0x1CF JUMPI PUSH1 0x0 CALLDATALOAD PUSH1 0xE0 SHR DUP1 PUSH4 0x8DA5CB5B GT PUSH2 0x104 JUMPI DUP1 PUSH4 0xCD87A3B4 GT PUSH2 0xA2 JUMPI DUP1 PUSH4 0xED33639F GT PUSH2 0x71 JUMPI DUP1 PUSH4 0xED33639F EQ PUSH2 0x55B JUMPI DUP1 PUSH4 0xF178E47C EQ PUSH2 0x579 JUMPI DUP1 PUSH4 0xFA52C7D8 EQ PUSH2 0x5A9 JUMPI DUP1 PUSH4 0xFC7E9C6F EQ PUSH2 0x5D9 JUMPI PUSH2 0x1CF JUMP JUMPDEST DUP1 PUSH4 0xCD87A3B4 EQ PUSH2 0x4D3 JUMPI DUP1 PUSH4 0xCE8F6377 EQ PUSH2 0x4F1 JUMPI DUP1 PUSH4 0xE8295588 EQ PUSH2 0x50D JUMPI DUP1 PUSH4 0xEC732959 EQ PUSH2 0x53D JUMPI PUSH2 0x1CF JUMP JUMPDEST DUP1 PUSH4 0x9FCA5169 GT PUSH2 0xDE JUMPI DUP1 PUSH4 0x9FCA5169 EQ PUSH2 0x439 JUMPI DUP1 PUSH4 0xB048E056 EQ PUSH2 0x455 JUMPI DUP1 PUSH4 0xBA70F757 EQ PUSH2 0x485 JUMPI DUP1 PUSH4 0xC2B40AE4 EQ PUSH2 0x4A3 JUMPI PUSH2 0x1CF JUMP JUMPDEST DUP1 PUSH4 0x8DA5CB5B EQ PUSH2 0x3CD JUMPI DUP1 PUSH4 0x90EEB02B EQ PUSH2 0x3EB JUMPI DUP1 PUSH4 0x955E0377 EQ PUSH2 0x409 JUMPI PUSH2 0x1CF JUMP JUMPDEST DUP1 PUSH4 0x462E91EC GT PUSH2 0x171 JUMPI DUP1 PUSH4 0x5BB93995 GT PUSH2 0x14B JUMPI DUP1 PUSH4 0x5BB93995 EQ PUSH2 0x31F JUMPI DUP1 PUSH4 0x6D9833E3 EQ PUSH2 0x34F JUMPI DUP1 PUSH4 0x839DF945 EQ PUSH2 0x37F JUMPI DUP1 PUSH4 0x893D20E8 EQ PUSH2 0x3AF JUMPI PUSH2 0x1CF JUMP JUMPDEST DUP1 PUSH4 0x462E91EC EQ PUSH2 0x2C7 JUMPI DUP1 PUSH4 0x4ECF518B EQ PUSH2 0x2E3 JUMPI DUP1 PUSH4 0x5216509A EQ PUSH2 0x301 JUMPI PUSH2 0x1CF JUMP JUMPDEST DUP1 PUSH4 0x2B7AC3F3 GT PUSH2 0x1AD JUMPI DUP1 PUSH4 0x2B7AC3F3 EQ PUSH2 0x23C JUMPI DUP1 PUSH4 0x2E6997FE EQ PUSH2 0x25A JUMPI DUP1 PUSH4 0x3477EE2E EQ PUSH2 0x279 JUMPI DUP1 PUSH4 0x414A37BA EQ PUSH2 0x2A9 JUMPI PUSH2 0x1CF JUMP JUMPDEST DUP1 PUSH4 0x1407BEB8 EQ PUSH2 0x1D4 JUMPI DUP1 PUSH4 0x1E620CD4 EQ PUSH2 0x1F0 JUMPI DUP1 PUSH4 0x2997E86B EQ PUSH2 0x20C JUMPI JUMPDEST PUSH1 0x0 DUP1 REVERT JUMPDEST PUSH2 0x1EE PUSH1 0x4 DUP1 CALLDATASIZE SUB DUP2 ADD SWAP1 PUSH2 0x1E9 SWAP2 SWAP1 PUSH2 0x1E18 JUMP JUMPDEST PUSH2 0x5F7 JUMP JUMPDEST STOP JUMPDEST PUSH2 0x20A PUSH1 0x4 DUP1 CALLDATASIZE SUB DUP2 ADD SWAP1 PUSH2 0x205 SWAP2 SWAP1 PUSH2 0x1E58 JUMP JUMPDEST PUSH2 0x720 JUMP JUMPDEST STOP JUMPDEST PUSH2 0x226 PUSH1 0x4 DUP1 CALLDATASIZE SUB DUP2 ADD SWAP1 PUSH2 0x221 SWAP2 SWAP1 PUSH2 0x1EBB JUMP JUMPDEST PUSH2 0x85A JUMP JUMPDEST PUSH1 0x40 MLOAD PUSH2 0x233 SWAP2 SWAP1 PUSH2 0x1F03 JUMP JUMPDEST PUSH1 0x40 MLOAD DUP1 SWAP2 SUB SWAP1 RETURN JUMPDEST PUSH2 0x244 PUSH2 0x87A JUMP JUMPDEST PUSH1 0x40 MLOAD PUSH2 0x251 SWAP2 SWAP1 PUSH2 0x1F9D JUMP JUMPDEST PUSH1 0x40 MLOAD DUP1 SWAP2 SUB SWAP1 RETURN JUMPDEST PUSH2 0x262 PUSH2 0x89E JUMP JUMPDEST PUSH1 0x40 MLOAD PUSH2 0x270 SWAP3 SWAP2 SWAP1 PUSH2 0x2119 JUMP JUMPDEST PUSH1 0x40 MLOAD DUP1 SWAP2 SUB SWAP1 RETURN JUMPDEST PUSH2 0x293 PUSH1 0x4 DUP1 CALLDATASIZE SUB DUP2 ADD SWAP1 PUSH2 0x28E SWAP2 SWAP1 PUSH2 0x1E58 JUMP JUMPDEST PUSH2 0x9DE JUMP JUMPDEST PUSH1 0x40 MLOAD PUSH2 0x2A0 SWAP2 SWAP1 PUSH2 0x2193 JUMP JUMPDEST PUSH1 0x40 MLOAD DUP1 SWAP2 SUB SWAP1 RETURN JUMPDEST PUSH2 0x2B1 PUSH2 0xA7E JUMP JUMPDEST PUSH1 0x40 MLOAD PUSH2 0x2BE SWAP2 SWAP1 PUSH2 0x21B5 JUMP JUMPDEST PUSH1 0x40 MLOAD DUP1 SWAP2 SUB SWAP1 RETURN JUMPDEST PUSH2 0x2E1 PUSH1 0x4 DUP1 CALLDATASIZE SUB DUP2 ADD SWAP1 PUSH2 0x2DC SWAP2 SWAP1 PUSH2 0x2305 JUMP JUMPDEST PUSH2 0xAA2 JUMP JUMPDEST STOP JUMPDEST PUSH2 0x2EB PUSH2 0xBC5 JUMP JUMPDEST PUSH1 0x40 MLOAD PUSH2 0x2F8 SWAP2 SWAP1 PUSH2 0x236D JUMP JUMPDEST PUSH1 0x40 MLOAD DUP1 SWAP2 SUB SWAP1 RETURN JUMPDEST PUSH2 0x309 PUSH2 0xBD9 JUMP JUMPDEST PUSH1 0x40 MLOAD PUSH2 0x316 SWAP2 SWAP1 PUSH2 0x21B5 JUMP JUMPDEST PUSH1 0x40 MLOAD DUP1 SWAP2 SUB SWAP1 RETURN JUMPDEST PUSH2 0x339 PUSH1 0x4 DUP1 CALLDATASIZE SUB DUP2 ADD SWAP1 PUSH2 0x334 SWAP2 SWAP1 PUSH2 0x1E18 JUMP JUMPDEST PUSH2 0xBDF JUMP JUMPDEST PUSH1 0x40 MLOAD PUSH2 0x346 SWAP2 SWAP1 PUSH2 0x2397 JUMP JUMPDEST PUSH1 0x40 MLOAD DUP1 SWAP2 SUB SWAP1 RETURN JUMPDEST PUSH2 0x369 PUSH1 0x4 DUP1 CALLDATASIZE SUB DUP2 ADD SWAP1 PUSH2 0x364 SWAP2 SWAP1 PUSH2 0x1EBB JUMP JUMPDEST PUSH2 0xE3A JUMP JUMPDEST PUSH1 0x40 MLOAD PUSH2 0x376 SWAP2 SWAP1 PUSH2 0x1F03 JUMP JUMPDEST PUSH1 0x40 MLOAD DUP1 SWAP2 SUB SWAP1 RETURN JUMPDEST PUSH2 0x399 PUSH1 0x4 DUP1 CALLDATASIZE SUB DUP2 ADD SWAP1 PUSH2 0x394 SWAP2 SWAP1 PUSH2 0x1EBB JUMP JUMPDEST PUSH2 0xED7 JUMP JUMPDEST PUSH1 0x40 MLOAD PUSH2 0x3A6 SWAP2 SWAP1 PUSH2 0x1F03 JUMP JUMPDEST PUSH1 0x40 MLOAD DUP1 SWAP2 SUB SWAP1 RETURN JUMPDEST PUSH2 0x3B7 PUSH2 0xEF7 JUMP JUMPDEST PUSH1 0x40 MLOAD PUSH2 0x3C4 SWAP2 SWAP1 PUSH2 0x23D3 JUMP JUMPDEST PUSH1 0x40 MLOAD DUP1 SWAP2 SUB SWAP1 RETURN JUMPDEST PUSH2 0x3D5 PUSH2 0xF21 JUMP JUMPDEST PUSH1 0x40 MLOAD PUSH2 0x3E2 SWAP2 SWAP1 PUSH2 0x23D3 JUMP JUMPDEST PUSH1 0x40 MLOAD DUP1 SWAP2 SUB SWAP1 RETURN JUMPDEST PUSH2 0x3F3 PUSH2 0xF47 JUMP JUMPDEST PUSH1 0x40 MLOAD PUSH2 0x400 SWAP2 SWAP1 PUSH2 0x236D JUMP JUMPDEST PUSH1 0x40 MLOAD DUP1 SWAP2 SUB SWAP1 RETURN JUMPDEST PUSH2 0x423 PUSH1 0x4 DUP1 CALLDATASIZE SUB DUP2 ADD SWAP1 PUSH2 0x41E SWAP2 SWAP1 PUSH2 0x1E58 JUMP JUMPDEST PUSH2 0xF5D JUMP JUMPDEST PUSH1 0x40 MLOAD PUSH2 0x430 SWAP2 SWAP1 PUSH2 0x21B5 JUMP JUMPDEST PUSH1 0x40 MLOAD DUP1 SWAP2 SUB SWAP1 RETURN JUMPDEST PUSH2 0x453 PUSH1 0x4 DUP1 CALLDATASIZE SUB DUP2 ADD SWAP1 PUSH2 0x44E SWAP2 SWAP1 PUSH2 0x241A JUMP JUMPDEST PUSH2 0xF7A JUMP JUMPDEST STOP JUMPDEST PUSH2 0x46F PUSH1 0x4 DUP1 CALLDATASIZE SUB DUP2 ADD SWAP1 PUSH2 0x46A SWAP2 SWAP1 PUSH2 0x1E58 JUMP JUMPDEST PUSH2 0x1065 JUMP JUMPDEST PUSH1 0x40 MLOAD PUSH2 0x47C SWAP2 SWAP1 PUSH2 0x23D3 JUMP JUMPDEST PUSH1 0x40 MLOAD DUP1 SWAP2 SUB SWAP1 RETURN JUMPDEST PUSH2 0x48D PUSH2 0x10A4 JUMP JUMPDEST PUSH1 0x40 MLOAD PUSH2 0x49A SWAP2 SWAP1 PUSH2 0x2397 JUMP JUMPDEST PUSH1 0x40 MLOAD DUP1 SWAP2 SUB SWAP1 RETURN JUMPDEST PUSH2 0x4BD PUSH1 0x4 DUP1 CALLDATASIZE SUB DUP2 ADD SWAP1 PUSH2 0x4B8 SWAP2 SWAP1 PUSH2 0x1E58 JUMP JUMPDEST PUSH2 0x10D7 JUMP JUMPDEST PUSH1 0x40 MLOAD PUSH2 0x4CA SWAP2 SWAP1 PUSH2 0x2397 JUMP JUMPDEST PUSH1 0x40 MLOAD DUP1 SWAP2 SUB SWAP1 RETURN JUMPDEST PUSH2 0x4DB PUSH2 0x10EF JUMP JUMPDEST PUSH1 0x40 MLOAD PUSH2 0x4E8 SWAP2 SWAP1 PUSH2 0x236D JUMP JUMPDEST PUSH1 0x40 MLOAD DUP1 SWAP2 SUB SWAP1 RETURN JUMPDEST PUSH2 0x50B PUSH1 0x4 DUP1 CALLDATASIZE SUB DUP2 ADD SWAP1 PUSH2 0x506 SWAP2 SWAP1 PUSH2 0x25AE JUMP JUMPDEST PUSH2 0x10F4 JUMP JUMPDEST STOP JUMPDEST PUSH2 0x527 PUSH1 0x4 DUP1 CALLDATASIZE SUB DUP2 ADD SWAP1 PUSH2 0x522 SWAP2 SWAP1 PUSH2 0x1E58 JUMP JUMPDEST PUSH2 0x118A JUMP JUMPDEST PUSH1 0x40 MLOAD PUSH2 0x534 SWAP2 SWAP1 PUSH2 0x2397 JUMP JUMPDEST PUSH1 0x40 MLOAD DUP1 SWAP2 SUB SWAP1 RETURN JUMPDEST PUSH2 0x545 PUSH2 0x1829 JUMP JUMPDEST PUSH1 0x40 MLOAD PUSH2 0x552 SWAP2 SWAP1 PUSH2 0x21B5 JUMP JUMPDEST PUSH1 0x40 MLOAD DUP1 SWAP2 SUB SWAP1 RETURN JUMPDEST PUSH2 0x563 PUSH2 0x184D JUMP JUMPDEST PUSH1 0x40 MLOAD PUSH2 0x570 SWAP2 SWAP1 PUSH2 0x265E JUMP JUMPDEST PUSH1 0x40 MLOAD DUP1 SWAP2 SUB SWAP1 RETURN JUMPDEST PUSH2 0x593 PUSH1 0x4 DUP1 CALLDATASIZE SUB DUP2 ADD SWAP1 PUSH2 0x58E SWAP2 SWAP1 PUSH2 0x1E58 JUMP JUMPDEST PUSH2 0x1871 JUMP JUMPDEST PUSH1 0x40 MLOAD PUSH2 0x5A0 SWAP2 SWAP1 PUSH2 0x2397 JUMP JUMPDEST PUSH1 0x40 MLOAD DUP1 SWAP2 SUB SWAP1 RETURN JUMPDEST PUSH2 0x5C3 PUSH1 0x4 DUP1 CALLDATASIZE SUB DUP2 ADD SWAP1 PUSH2 0x5BE SWAP2 SWAP1 PUSH2 0x241A JUMP JUMPDEST PUSH2 0x1889 JUMP JUMPDEST PUSH1 0x40 MLOAD PUSH2 0x5D0 SWAP2 SWAP1 PUSH2 0x1F03 JUMP JUMPDEST PUSH1 0x40 MLOAD DUP1 SWAP2 SUB SWAP1 RETURN JUMPDEST PUSH2 0x5E1 PUSH2 0x18A9 JUMP JUMPDEST PUSH1 0x40 MLOAD PUSH2 0x5EE SWAP2 SWAP1 PUSH2 0x236D JUMP JUMPDEST PUSH1 0x40 MLOAD DUP1 SWAP2 SUB SWAP1 RETURN JUMPDEST PUSH1 0x7 PUSH1 0x0 CALLER PUSH20 0xFFFFFFFFFFFFFFFFFFFFFFFFFFFFFFFFFFFFFFFF AND PUSH20 0xFFFFFFFFFFFFFFFFFFFFFFFFFFFFFFFFFFFFFFFF AND DUP2 MSTORE PUSH1 0x20 ADD SWAP1 DUP2 MSTORE PUSH1 0x20 ADD PUSH1 0x0 KECCAK256 PUSH1 0x0 SWAP1 SLOAD SWAP1 PUSH2 0x100 EXP SWAP1 DIV PUSH1 0xFF AND PUSH2 0x683 JUMPI PUSH1 0x40 MLOAD PUSH32 0x8C379A000000000000000000000000000000000000000000000000000000000 DUP2 MSTORE PUSH1 0x4 ADD PUSH2 0x67A SWAP1 PUSH2 0x26C5 JUMP JUMPDEST PUSH1 0x40 MLOAD DUP1 SWAP2 SUB SWAP1 REVERT JUMPDEST PUSH1 0x8 PUSH1 0x0 DUP4 DUP2 MSTORE PUSH1 0x20 ADD SWAP1 DUP2 MSTORE PUSH1 0x20 ADD PUSH1 0x0 KECCAK256 PUSH1 0x0 SWAP1 SLOAD SWAP1 PUSH2 0x100 EXP SWAP1 DIV PUSH1 0xFF AND ISZERO PUSH2 0x6E4 JUMPI PUSH1 0x40 MLOAD PUSH32 0x8C379A000000000000000000000000000000000000000000000000000000000 DUP2 MSTORE PUSH1 0x4 ADD PUSH2 0x6DB SWAP1 PUSH2 0x2757 JUMP JUMPDEST PUSH1 0x40 MLOAD DUP1 SWAP2 SUB SWAP1 REVERT JUMPDEST PUSH2 0x6F0 DUP2 PUSH1 0x0 SHL PUSH2 0x18BF JUMP JUMPDEST PUSH1 0x1 PUSH1 0x8 PUSH1 0x0 DUP5 DUP2 MSTORE PUSH1 0x20 ADD SWAP1 DUP2 MSTORE PUSH1 0x20 ADD PUSH1 0x0 KECCAK256 PUSH1 0x0 PUSH2 0x100 EXP DUP2 SLOAD DUP2 PUSH1 0xFF MUL NOT AND SWAP1 DUP4 ISZERO ISZERO MUL OR SWAP1 SSTORE POP POP POP JUMP JUMPDEST PUSH1 0x6 PUSH1 0x0 SWAP1 SLOAD SWAP1 PUSH2 0x100 EXP SWAP1 DIV PUSH20 0xFFFFFFFFFFFFFFFFFFFFFFFFFFFFFFFFFFFFFFFF AND PUSH20 0xFFFFFFFFFFFFFFFFFFFFFFFFFFFFFFFFFFFFFFFF AND CALLER PUSH20 0xFFFFFFFFFFFFFFFFFFFFFFFFFFFFFFFFFFFFFFFF AND EQ PUSH2 0x7B0 JUMPI PUSH1 0x40 MLOAD PUSH32 0x8C379A000000000000000000000000000000000000000000000000000000000 DUP2 MSTORE PUSH1 0x4 ADD PUSH2 0x7A7 SWAP1 PUSH2 0x27E9 JUMP JUMPDEST PUSH1 0x40 MLOAD DUP1 SWAP2 SUB SWAP1 REVERT JUMPDEST PUSH1 0x9 SLOAD DUP2 LT PUSH2 0x7F4 JUMPI PUSH1 0x40 MLOAD PUSH32 0x8C379A000000000000000000000000000000000000000000000000000000000 DUP2 MSTORE PUSH1 0x4 ADD PUSH2 0x7EB SWAP1 PUSH2 0x2855 JUMP JUMPDEST PUSH1 0x40 MLOAD DUP1 SWAP2 SUB SWAP1 REVERT JUMPDEST PUSH1 0xA PUSH1 0x0 DUP3 DUP2 MSTORE PUSH1 0x20 ADD SWAP1 DUP2 MSTORE PUSH1 0x20 ADD PUSH1 0x0 KECCAK256 PUSH1 0x0 PUSH2 0x813 SWAP2 SWAP1 PUSH2 0x1D71 JUMP JUMPDEST PUSH1 0xB PUSH1 0x0 DUP3 DUP2 MSTORE PUSH1 0x20 ADD SWAP1 DUP2 MSTORE PUSH1 0x20 ADD PUSH1 0x0 KECCAK256 PUSH1 0x0 SWAP1 SSTORE DUP1 PUSH32 0x5768DF5843E58EC5B2FC92EB6EF81241E9EC50A0B93FD074DEC58B39EFC41720 PUSH1 0x40 MLOAD PUSH1 0x40 MLOAD DUP1 SWAP2 SUB SWAP1 LOG2 POP JUMP JUMPDEST PUSH1 0x4 PUSH1 0x20 MSTORE DUP1 PUSH1 0x0 MSTORE PUSH1 0x40 PUSH1 0x0 KECCAK256 PUSH1 0x0 SWAP2 POP SLOAD SWAP1 PUSH2 0x100 EXP SWAP1 DIV PUSH1 0xFF AND DUP2 JUMP JUMPDEST PUSH32 0x0 DUP2 JUMP JUMPDEST PUSH1 0x0 PUSH1 0x60 PUSH1 0x0 PUSH1 0x9 SLOAD PUSH8 0xFFFFFFFFFFFFFFFF DUP2 GT ISZERO PUSH2 0x8C0 JUMPI PUSH2 0x8BF PUSH2 0x21DA JUMP JUMPDEST JUMPDEST PUSH1 0x40 MLOAD SWAP1 DUP1 DUP3 MSTORE DUP1 PUSH1 0x20 MUL PUSH1 0x20 ADD DUP3 ADD PUSH1 0x40 MSTORE DUP1 ISZERO PUSH2 0x8F3 JUMPI DUP2 PUSH1 0x20 ADD JUMPDEST PUSH1 0x60 DUP2 MSTORE PUSH1 0x20 ADD SWAP1 PUSH1 0x1 SWAP1 SUB SWAP1 DUP2 PUSH2 0x8DE JUMPI SWAP1 POP JUMPDEST POP SWAP1 POP PUSH1 0x0 JUMPDEST PUSH1 0x9 SLOAD DUP2 LT ISZERO PUSH2 0x9D0 JUMPI PUSH1 0xA PUSH1 0x0 DUP3 DUP2 MSTORE PUSH1 0x20 ADD SWAP1 DUP2 MSTORE PUSH1 0x20 ADD PUSH1 0x0 KECCAK256 DUP1 SLOAD PUSH2 0x921 SWAP1 PUSH2 0x28A4 JUMP JUMPDEST DUP1 PUSH1 0x1F ADD PUSH1 0x20 DUP1 SWAP2 DIV MUL PUSH1 0x20 ADD PUSH1 0x40 MLOAD SWAP1 DUP2 ADD PUSH1 0x40 MSTORE DUP1 SWAP3 SWAP2 SWAP1 DUP2 DUP2 MSTORE PUSH1 0x20 ADD DUP3 DUP1 SLOAD PUSH2 0x94D SWAP1 PUSH2 0x28A4 JUMP JUMPDEST DUP1 ISZERO PUSH2 0x99A JUMPI DUP1 PUSH1 0x1F LT PUSH2 0x96F JUMPI PUSH2 0x100 DUP1 DUP4 SLOAD DIV MUL DUP4 MSTORE SWAP2 PUSH1 0x20 ADD SWAP2 PUSH2 0x99A JUMP JUMPDEST DUP3 ADD SWAP2 SWAP1 PUSH1 0x0 MSTORE PUSH1 0x20 PUSH1 0x0 KECCAK256 SWAP1 JUMPDEST DUP2 SLOAD DUP2 MSTORE SWAP1 PUSH1 0x1 ADD SWAP1 PUSH1 0x20 ADD DUP1 DUP4 GT PUSH2 0x97D JUMPI DUP3 SWAP1 SUB PUSH1 0x1F AND DUP3 ADD SWAP2 JUMPDEST POP POP POP POP POP DUP3 DUP3 DUP2 MLOAD DUP2 LT PUSH2 0x9B2 JUMPI PUSH2 0x9B1 PUSH2 0x28D5 JUMP JUMPDEST JUMPDEST PUSH1 0x20 MUL PUSH1 0x20 ADD ADD DUP2 SWAP1 MSTORE POP DUP1 DUP1 PUSH2 0x9C8 SWAP1 PUSH2 0x2933 JUMP JUMPDEST SWAP2 POP POP PUSH2 0x8F9 JUMP JUMPDEST POP PUSH1 0x9 SLOAD DUP2 SWAP3 POP SWAP3 POP POP SWAP1 SWAP2 JUMP JUMPDEST PUSH1 0xA PUSH1 0x20 MSTORE DUP1 PUSH1 0x0 MSTORE PUSH1 0x40 PUSH1 0x0 KECCAK256 PUSH1 0x0 SWAP2 POP SWAP1 POP DUP1 SLOAD PUSH2 0x9FD SWAP1 PUSH2 0x28A4 JUMP JUMPDEST DUP1 PUSH1 0x1F ADD PUSH1 0x20 DUP1 SWAP2 DIV MUL PUSH1 0x20 ADD PUSH1 0x40 MLOAD SWAP1 DUP2 ADD PUSH1 0x40 MSTORE DUP1 SWAP3 SWAP2 SWAP1 DUP2 DUP2 MSTORE PUSH1 0x20 ADD DUP3 DUP1 SLOAD PUSH2 0xA29 SWAP1 PUSH2 0x28A4 JUMP JUMPDEST DUP1 ISZERO PUSH2 0xA76 JUMPI DUP1 PUSH1 0x1F LT PUSH2 0xA4B JUMPI PUSH2 0x100 DUP1 DUP4 SLOAD DIV MUL DUP4 MSTORE SWAP2 PUSH1 0x20 ADD SWAP2 PUSH2 0xA76 JUMP JUMPDEST DUP3 ADD SWAP2 SWAP1 PUSH1 0x0 MSTORE PUSH1 0x20 PUSH1 0x0 KECCAK256 SWAP1 JUMPDEST DUP2 SLOAD DUP2 MSTORE SWAP1 PUSH1 0x1 ADD SWAP1 PUSH1 0x20 ADD DUP1 DUP4 GT PUSH2 0xA59 JUMPI DUP3 SWAP1 SUB PUSH1 0x1F AND DUP3 ADD SWAP2 JUMPDEST POP POP POP POP POP DUP2 JUMP JUMPDEST PUSH32 0x30644E72E131A029B85045B68181585D2833E84879B9709143E1F593F0000001 DUP2 JUMP JUMPDEST PUSH1 0x6 PUSH1 0x0 SWAP1 SLOAD SWAP1 PUSH2 0x100 EXP SWAP1 DIV PUSH20 0xFFFFFFFFFFFFFFFFFFFFFFFFFFFFFFFFFFFFFFFF AND PUSH20 0xFFFFFFFFFFFFFFFFFFFFFFFFFFFFFFFFFFFFFFFF AND CALLER PUSH20 0xFFFFFFFFFFFFFFFFFFFFFFFFFFFFFFFFFFFFFFFF AND EQ PUSH2 0xB32 JUMPI PUSH1 0x40 MLOAD PUSH32 0x8C379A000000000000000000000000000000000000000000000000000000000 DUP2 MSTORE PUSH1 0x4 ADD PUSH2 0xB29 SWAP1 PUSH2 0x27E9 JUMP JUMPDEST PUSH1 0x40 MLOAD DUP1 SWAP2 SUB SWAP1 REVERT JUMPDEST DUP1 PUSH1 0xA PUSH1 0x0 PUSH1 0x9 SLOAD DUP2 MSTORE PUSH1 0x20 ADD SWAP1 DUP2 MSTORE PUSH1 0x20 ADD PUSH1 0x0 KECCAK256 SWAP1 DUP2 PUSH2 0xB54 SWAP2 SWAP1 PUSH2 0x2B1D JUMP JUMPDEST POP PUSH1 0x0 PUSH1 0xB PUSH1 0x0 PUSH1 0x9 SLOAD DUP2 MSTORE PUSH1 0x20 ADD SWAP1 DUP2 MSTORE PUSH1 0x20 ADD PUSH1 0x0 KECCAK256 DUP2 SWAP1 SSTORE POP PUSH1 0x9 SLOAD PUSH32 0xE83B2A43E7E82D975C8A0A6D2F045153C869E111136A34D1889AB7B598E396A3 DUP3 PUSH1 0x40 MLOAD PUSH2 0xBA2 SWAP2 SWAP1 PUSH2 0x2193 JUMP JUMPDEST PUSH1 0x40 MLOAD DUP1 SWAP2 SUB SWAP1 LOG2 PUSH1 0x9 PUSH1 0x0 DUP2 SLOAD DUP1 SWAP3 SWAP2 SWAP1 PUSH2 0xBBD SWAP1 PUSH2 0x2933 JUMP JUMPDEST SWAP2 SWAP1 POP SSTORE POP POP JUMP JUMPDEST PUSH1 0x0 DUP1 SLOAD SWAP1 PUSH2 0x100 EXP SWAP1 DIV PUSH4 0xFFFFFFFF AND DUP2 JUMP JUMPDEST PUSH1 0x9 SLOAD DUP2 JUMP JUMPDEST PUSH1 0x0 PUSH32 0x30644E72E131A029B85045B68181585D2833E84879B9709143E1F593F0000001 DUP4 LT PUSH2 0xC43 JUMPI PUSH1 0x40 MLOAD PUSH32 0x8C379A000000000000000000000000000000000000000000000000000000000 DUP2 MSTORE PUSH1 0x4 ADD PUSH2 0xC3A SWAP1 PUSH2 0x2C3B JUMP JUMPDEST PUSH1 0x40 MLOAD DUP1 SWAP2 SUB SWAP1 REVERT JUMPDEST PUSH32 0x30644E72E131A029B85045B68181585D2833E84879B9709143E1F593F0000001 DUP3 LT PUSH2 0xCA5 JUMPI PUSH1 0x40 MLOAD PUSH32 0x8C379A000000000000000000000000000000000000000000000000000000000 DUP2 MSTORE PUSH1 0x4 ADD PUSH2 0xC9C SWAP1 PUSH2 0x2CCD JUMP JUMPDEST PUSH1 0x40 MLOAD DUP1 SWAP2 SUB SWAP1 REVERT JUMPDEST PUSH1 0x0 DUP4 SWAP1 POP PUSH1 0x0 PUSH32 0x0 PUSH20 0xFFFFFFFFFFFFFFFFFFFFFFFFFFFFFFFFFFFFFFFF AND PUSH4 0x3F1A1187 DUP4 DUP4 PUSH1 0x0 PUSH1 0x40 MLOAD DUP5 PUSH4 0xFFFFFFFF AND PUSH1 0xE0 SHL DUP2 MSTORE PUSH1 0x4 ADD PUSH2 0xD0A SWAP4 SWAP3 SWAP2 SWAP1 PUSH2 0x2D28 JUMP JUMPDEST PUSH1 0x40 DUP1 MLOAD DUP1 DUP4 SUB DUP2 DUP7 GAS STATICCALL ISZERO DUP1 ISZERO PUSH2 0xD26 JUMPI RETURNDATASIZE PUSH1 0x0 DUP1 RETURNDATACOPY RETURNDATASIZE PUSH1 0x0 REVERT JUMPDEST POP POP POP POP PUSH1 0x40 MLOAD RETURNDATASIZE PUSH1 0x1F NOT PUSH1 0x1F DUP3 ADD AND DUP3 ADD DUP1 PUSH1 0x40 MSTORE POP DUP2 ADD SWAP1 PUSH2 0xD4A SWAP2 SWAP1 PUSH2 0x2D74 JUMP JUMPDEST DUP1 SWAP3 POP DUP2 SWAP4 POP POP POP PUSH32 0x30644E72E131A029B85045B68181585D2833E84879B9709143E1F593F0000001 DUP1 PUSH2 0xD81 JUMPI PUSH2 0xD80 PUSH2 0x2DB4 JUMP JUMPDEST JUMPDEST DUP5 DUP4 ADDMOD SWAP2 POP PUSH32 0x0 PUSH20 0xFFFFFFFFFFFFFFFFFFFFFFFFFFFFFFFFFFFFFFFF AND PUSH4 0x3F1A1187 DUP4 DUP4 PUSH1 0x0 PUSH1 0x40 MLOAD DUP5 PUSH4 0xFFFFFFFF AND PUSH1 0xE0 SHL DUP2 MSTORE PUSH1 0x4 ADD PUSH2 0xDE4 SWAP4 SWAP3 SWAP2 SWAP1 PUSH2 0x2D28 JUMP JUMPDEST PUSH1 0x40 DUP1 MLOAD DUP1 DUP4 SUB DUP2 DUP7 GAS STATICCALL ISZERO DUP1 ISZERO PUSH2 0xE00 JUMPI RETURNDATASIZE PUSH1 0x0 DUP1 RETURNDATACOPY RETURNDATASIZE PUSH1 0x0 REVERT JUMPDEST POP POP POP POP PUSH1 0x40 MLOAD RETURNDATASIZE PUSH1 0x1F NOT PUSH1 0x1F DUP3 ADD AND DUP3 ADD DUP1 PUSH1 0x40 MSTORE POP DUP2 ADD SWAP1 PUSH2 0xE24 SWAP2 SWAP1 PUSH2 0x2D74 JUMP JUMPDEST DUP1 SWAP3 POP DUP2 SWAP4 POP POP POP DUP2 PUSH1 0x0 SHL SWAP3 POP POP POP SWAP3 SWAP2 POP POP JUMP JUMPDEST PUSH1 0x0 DUP1 PUSH1 0x0 SHL DUP3 SUB PUSH2 0xE4F JUMPI PUSH1 0x0 SWAP1 POP PUSH2 0xED2 JUMP JUMPDEST PUSH1 0x0 PUSH1 0x3 PUSH1 0x0 SWAP1 SLOAD SWAP1 PUSH2 0x100 EXP SWAP1 DIV PUSH4 0xFFFFFFFF AND SWAP1 POP PUSH1 0x0 DUP2 SWAP1 POP JUMPDEST PUSH1 0x2 PUSH1 0x0 DUP3 PUSH4 0xFFFFFFFF AND DUP2 MSTORE PUSH1 0x20 ADD SWAP1 DUP2 MSTORE PUSH1 0x20 ADD PUSH1 0x0 KECCAK256 SLOAD DUP5 SUB PUSH2 0xE97 JUMPI PUSH1 0x1 SWAP3 POP POP POP PUSH2 0xED2 JUMP JUMPDEST PUSH1 0x0 DUP2 PUSH4 0xFFFFFFFF AND SUB PUSH2 0xEAA JUMPI PUSH1 0x1E SWAP1 POP JUMPDEST DUP1 DUP1 PUSH2 0xEB5 SWAP1 PUSH2 0x2DE3 JUMP JUMPDEST SWAP2 POP POP DUP2 PUSH4 0xFFFFFFFF AND DUP2 PUSH4 0xFFFFFFFF AND SUB PUSH2 0xE6C JUMPI PUSH1 0x0 SWAP3 POP POP POP JUMPDEST SWAP2 SWAP1 POP JUMP JUMPDEST PUSH1 0x5 PUSH1 0x20 MSTORE DUP1 PUSH1 0x0 MSTORE PUSH1 0x40 PUSH1 0x0 KECCAK256 PUSH1 0x0 SWAP2 POP SLOAD SWAP1 PUSH2 0x100 EXP SWAP1 DIV PUSH1 0xFF AND DUP2 JUMP JUMPDEST PUSH1 0x0 PUSH1 0x6 PUSH1 0x0 SWAP1 SLOAD SWAP1 PUSH2 0x100 EXP SWAP1 DIV PUSH20 0xFFFFFFFFFFFFFFFFFFFFFFFFFFFFFFFFFFFFFFFF AND SWAP1 POP SWAP1 JUMP JUMPDEST PUSH1 0x6 PUSH1 0x0 SWAP1 SLOAD SWAP1 PUSH2 0x100 EXP SWAP1 DIV PUSH20 0xFFFFFFFFFFFFFFFFFFFFFFFFFFFFFFFFFFFFFFFF AND DUP2 JUMP JUMPDEST PUSH1 0x3 PUSH1 0x0 SWAP1 SLOAD SWAP1 PUSH2 0x100 EXP SWAP1 DIV PUSH4 0xFFFFFFFF AND DUP2 JUMP JUMPDEST PUSH1 0x0 PUSH1 0xB PUSH1 0x0 DUP4 DUP2 MSTORE PUSH1 0x20 ADD SWAP1 DUP2 MSTORE PUSH1 0x20 ADD PUSH1 0x0 KECCAK256 SLOAD SWAP1 POP SWAP2 SWAP1 POP JUMP JUMPDEST PUSH1 0x6 PUSH1 0x0 SWAP1 SLOAD SWAP1 PUSH2 0x100 EXP SWAP1 DIV PUSH20 0xFFFFFFFFFFFFFFFFFFFFFFFFFFFFFFFFFFFFFFFF AND PUSH20 0xFFFFFFFFFFFFFFFFFFFFFFFFFFFFFFFFFFFFFFFF AND CALLER PUSH20 0xFFFFFFFFFFFFFFFFFFFFFFFFFFFFFFFFFFFFFFFF AND EQ PUSH2 0x100A JUMPI PUSH1 0x40 MLOAD PUSH32 0x8C379A000000000000000000000000000000000000000000000000000000000 DUP2 MSTORE PUSH1 0x4 ADD PUSH2 0x1001 SWAP1 PUSH2 0x27E9 JUMP JUMPDEST PUSH1 0x40 MLOAD DUP1 SWAP2 SUB SWAP1 REVERT JUMPDEST PUSH1 0x1 PUSH1 0x7 PUSH1 0x0 DUP4 PUSH20 0xFFFFFFFFFFFFFFFFFFFFFFFFFFFFFFFFFFFFFFFF AND PUSH20 0xFFFFFFFFFFFFFFFFFFFFFFFFFFFFFFFFFFFFFFFF AND DUP2 MSTORE PUSH1 0x20 ADD SWAP1 DUP2 MSTORE PUSH1 0x20 ADD PUSH1 0x0 KECCAK256 PUSH1 0x0 PUSH2 0x100 EXP DUP2 SLOAD DUP2 PUSH1 0xFF MUL NOT AND SWAP1 DUP4 ISZERO ISZERO MUL OR SWAP1 SSTORE POP POP JUMP JUMPDEST PUSH1 0xC DUP2 DUP2 SLOAD DUP2 LT PUSH2 0x1075 JUMPI PUSH1 0x0 DUP1 REVERT JUMPDEST SWAP1 PUSH1 0x0 MSTORE PUSH1 0x20 PUSH1 0x0 KECCAK256 ADD PUSH1 0x0 SWAP2 POP SLOAD SWAP1 PUSH2 0x100 EXP SWAP1 DIV PUSH20 0xFFFFFFFFFFFFFFFFFFFFFFFFFFFFFFFFFFFFFFFF AND DUP2 JUMP JUMPDEST PUSH1 0x0 PUSH1 0x2 PUSH1 0x0 PUSH1 0x3 PUSH1 0x0 SWAP1 SLOAD SWAP1 PUSH2 0x100 EXP SWAP1 DIV PUSH4 0xFFFFFFFF AND PUSH4 0xFFFFFFFF AND DUP2 MSTORE PUSH1 0x20 ADD SWAP1 DUP2 MSTORE PUSH1 0x20 ADD PUSH1 0x0 KECCAK256 SLOAD SWAP1 POP SWAP1 JUMP JUMPDEST PUSH1 0x2 PUSH1 0x20 MSTORE DUP1 PUSH1 0x0 MSTORE PUSH1 0x40 PUSH1 0x0 KECCAK256 PUSH1 0x0 SWAP2 POP SWAP1 POP SLOAD DUP2 JUMP JUMPDEST PUSH1 0x1E DUP2 JUMP JUMPDEST PUSH1 0x9 SLOAD DUP7 LT PUSH2 0x1138 JUMPI PUSH1 0x40 MLOAD PUSH32 0x8C379A000000000000000000000000000000000000000000000000000000000 DUP2 MSTORE PUSH1 0x4 ADD PUSH2 0x112F SWAP1 PUSH2 0x2E58 JUMP JUMPDEST PUSH1 0x40 MLOAD DUP1 SWAP2 SUB SWAP1 REVERT JUMPDEST PUSH2 0x114B DUP6 PUSH1 0x0 SHL DUP6 PUSH1 0x0 SHL DUP6 DUP6 DUP6 PUSH2 0x1997 JUMP JUMPDEST PUSH1 0x1 PUSH1 0xB PUSH1 0x0 DUP9 DUP2 MSTORE PUSH1 0x20 ADD SWAP1 DUP2 MSTORE PUSH1 0x20 ADD PUSH1 0x0 KECCAK256 SLOAD PUSH2 0x116B SWAP2 SWAP1 PUSH2 0x2E78 JUMP JUMPDEST PUSH1 0xB PUSH1 0x0 DUP9 DUP2 MSTORE PUSH1 0x20 ADD SWAP1 DUP2 MSTORE PUSH1 0x20 ADD PUSH1 0x0 KECCAK256 DUP2 SWAP1 SSTORE POP POP POP POP POP POP POP JUMP JUMPDEST PUSH1 0x0 DUP1 DUP3 SUB PUSH2 0x11BE JUMPI PUSH32 0x2FE54C60D3ACABF3343A35B6EBA15DB4821B340F76E741E2249685ED4899AF6C PUSH1 0x0 SHL SWAP1 POP PUSH2 0x1824 JUMP JUMPDEST PUSH1 0x1 DUP3 SUB PUSH2 0x11F1 JUMPI PUSH32 0x256A6135777EEE2FD26F54B8B7037A25439D5235CAEE224154186D2B8A52E31D PUSH1 0x0 SHL SWAP1 POP PUSH2 0x1824 JUMP JUMPDEST PUSH1 0x2 DUP3 SUB PUSH2 0x1224 JUMPI PUSH32 0x1151949895E82AB19924DE92C40A3D6F7BCB60D92B00504B8199613683F0C200 PUSH1 0x0 SHL SWAP1 POP PUSH2 0x1824 JUMP JUMPDEST PUSH1 0x3 DUP3 SUB PUSH2 0x1257 JUMPI PUSH32 0x20121EE811489FF8D61F09FB89E313F14959A0F28BB428A20DBA6B0B068B3BDB PUSH1 0x0 SHL SWAP1 POP PUSH2 0x1824 JUMP JUMPDEST PUSH1 0x4 DUP3 SUB PUSH2 0x128A JUMPI PUSH32 0xA89CA6FFA14CC462CFEDB842C30ED221A50A3D6BF022A6A57DC82AB24C157C9 PUSH1 0x0 SHL SWAP1 POP PUSH2 0x1824 JUMP JUMPDEST PUSH1 0x5 DUP3 SUB PUSH2 0x12BD JUMPI PUSH32 0x24CA05C2B5CD42E890D6BE94C68D0689F4F21C9CEC9C0F13FE41D566DFB54959 PUSH1 0x0 SHL SWAP1 POP PUSH2 0x1824 JUMP JUMPDEST PUSH1 0x6 DUP3 SUB PUSH2 0x12F0 JUMPI PUSH32 0x1CCB97C932565A92C60156BDBA2D08F3BF1377464E025CEE765679E604A7315C PUSH1 0x0 SHL SWAP1 POP PUSH2 0x1824 JUMP JUMPDEST PUSH1 0x7 DUP3 SUB PUSH2 0x1323 JUMPI PUSH32 0x19156FBD7D1A8BF5CBA8909367DE1B624534EBAB4F0F79E003BCCDD1B182BDB4 PUSH1 0x0 SHL SWAP1 POP PUSH2 0x1824 JUMP JUMPDEST PUSH1 0x8 DUP3 SUB PUSH2 0x1356 JUMPI PUSH32 0x261AF8C1F0912E465744641409F622D466C3920AC6E5FF37E36604CB11DFFF80 PUSH1 0x0 SHL SWAP1 POP PUSH2 0x1824 JUMP JUMPDEST PUSH1 0x9 DUP3 SUB PUSH2 0x1388 JUMPI PUSH31 0x58459724FF6CA5A1652FCBC3E82B93895CF08E975B19BEAB3F54C217D1C007 PUSH1 0x0 SHL SWAP1 POP PUSH2 0x1824 JUMP JUMPDEST PUSH1 0xA DUP3 SUB PUSH2 0x13BB JUMPI PUSH32 0x1F04EF20DEE48D39984D8EABE768A70EAFA6310AD20849D4573C3C40C2AD1E30 PUSH1 0x0 SHL SWAP1 POP PUSH2 0x1824 JUMP JUMPDEST PUSH1 0xB DUP3 SUB PUSH2 0x13EE JUMPI PUSH32 0x1BEA3DEC5DAB51567CE7E200A30F7BA6D4276AEAA53E2686F962A46C66D511E5 PUSH1 0x0 SHL SWAP1 POP PUSH2 0x1824 JUMP JUMPDEST PUSH1 0xC DUP3 SUB PUSH2 0x1421 JUMPI PUSH32 0xEE0F941E2DA4B9E31C3CA97A40D8FA9CE68D97C084177071B3CB46CD3372F0F PUSH1 0x0 SHL SWAP1 POP PUSH2 0x1824 JUMP JUMPDEST PUSH1 0xD DUP3 SUB PUSH2 0x1454 JUMPI PUSH32 0x1CA9503E8935884501BBAF20BE14EB4C46B89772C97B96E3B2EBF3A36A948BBD PUSH1 0x0 SHL SWAP1 POP PUSH2 0x1824 JUMP JUMPDEST PUSH1 0xE DUP3 SUB PUSH2 0x1487 JUMPI PUSH32 0x133A80E30697CD55D8F7D4B0965B7BE24057BA5DC3DA898EE2187232446CB108 PUSH1 0x0 SHL SWAP1 POP PUSH2 0x1824 JUMP JUMPDEST PUSH1 0xF DUP3 SUB PUSH2 0x14BA JUMPI PUSH32 0x13E6D8FC88839ED76E182C2A779AF5B2C0DA9DD18C90427A644F7E148A6253B6 PUSH1 0x0 SHL SWAP1 POP PUSH2 0x1824 JUMP JUMPDEST PUSH1 0x10 DUP3 SUB PUSH2 0x14ED JUMPI PUSH32 0x1EB16B057A477F4BC8F572EA6BEE39561098F78F15BFB3699DCBB7BD8DB61854 PUSH1 0x0 SHL SWAP1 POP PUSH2 0x1824 JUMP JUMPDEST PUSH1 0x11 DUP3 SUB PUSH2 0x1520 JUMPI PUSH32 0xDA2CB16A1CEAABF1C16B838F7A9E3F2A3A3088D9E0A6DEBAA748114620696EA PUSH1 0x0 SHL SWAP1 POP PUSH2 0x1824 JUMP JUMPDEST PUSH1 0x12 DUP3 SUB PUSH2 0x1553 JUMPI PUSH32 0x24A3B3D822420B14B5D8CB6C28A574F01E98EA9E940551D2EBD75CEE12649F9D PUSH1 0x0 SHL SWAP1 POP PUSH2 0x1824 JUMP JUMPDEST PUSH1 0x13 DUP3 SUB PUSH2 0x1586 JUMPI PUSH32 0x198622ACBD783D1B0D9064105B1FC8E4D8889DE95C4C519B3F635809FE6AFC05 PUSH1 0x0 SHL SWAP1 POP PUSH2 0x1824 JUMP JUMPDEST PUSH1 0x14 DUP3 SUB PUSH2 0x15B9 JUMPI PUSH32 0x29D7ED391256CCC3EA596C86E933B89FF339D25EA8DDCED975AE2FE30B5296D4 PUSH1 0x0 SHL SWAP1 POP PUSH2 0x1824 JUMP JUMPDEST PUSH1 0x15 DUP3 SUB PUSH2 0x15EC JUMPI PUSH32 0x19BE59F2F0413CE78C0C3703A3A5451B1D7F39629FA33ABD11548A76065B2967 PUSH1 0x0 SHL SWAP1 POP PUSH2 0x1824 JUMP JUMPDEST PUSH1 0x16 DUP3 SUB PUSH2 0x161F JUMPI PUSH32 0x1FF3F61797E538B70E619310D33F2A063E7EB59104E112E95738DA1254DC3453 PUSH1 0x0 SHL SWAP1 POP PUSH2 0x1824 JUMP JUMPDEST PUSH1 0x17 DUP3 SUB PUSH2 0x1652 JUMPI PUSH32 0x10C16AE9959CF8358980D9DD9616E48228737310A10E2B6B731C1A548F036C48 PUSH1 0x0 SHL SWAP1 POP PUSH2 0x1824 JUMP JUMPDEST PUSH1 0x18 DUP3 SUB PUSH2 0x1685 JUMPI PUSH32 0xBA433A63174A90AC20992E75E3095496812B652685B5E1A2EAE0B1BF4E8FCD1 PUSH1 0x0 SHL SWAP1 POP PUSH2 0x1824 JUMP JUMPDEST PUSH1 0x19 DUP3 SUB PUSH2 0x16B8 JUMPI PUSH32 0x19DDB9DF2BC98D987D0DFECA9D2B643DEAFAB8F7036562E627C3667266A044C PUSH1 0x0 SHL SWAP1 POP PUSH2 0x1824 JUMP JUMPDEST PUSH1 0x1A DUP3 SUB PUSH2 0x16EB JUMPI PUSH32 0x2D3C88B23175C5A5565DB928414C66D1912B11ACF974B2E644CAAAC04739CE99 PUSH1 0x0 SHL SWAP1 POP PUSH2 0x1824 JUMP JUMPDEST PUSH1 0x1B DUP3 SUB PUSH2 0x171E JUMPI PUSH32 0x2EAB55F6AE4E66E32C5189EED5C470840863445760F5ED7E7B69B2A62600F354 PUSH1 0x0 SHL SWAP1 POP PUSH2 0x1824 JUMP JUMPDEST PUSH1 0x1C DUP3 SUB PUSH2 0x1750 JUMPI PUSH31 0x2DF37A2642621802383CF952BF4DD1F32E05433BEEB1FD41031FB7EACE979D PUSH1 0x0 SHL SWAP1 POP PUSH2 0x1824 JUMP JUMPDEST PUSH1 0x1D DUP3 SUB PUSH2 0x1783 JUMPI PUSH32 0x104AEB41435DB66C3E62FECCC1D6F5D98D0A0ED75D1374DB457CF462E3A1F427 PUSH1 0x0 SHL SWAP1 POP PUSH2 0x1824 JUMP JUMPDEST PUSH1 0x1E DUP3 SUB PUSH2 0x17B6 JUMPI PUSH32 0x1F3C6FD858E9A7D4B0D1F38E256A09D81D5A5E3C963987E2D4B814CFAB7C6EBB PUSH1 0x0 SHL SWAP1 POP PUSH2 0x1824 JUMP JUMPDEST PUSH1 0x1F DUP3 SUB PUSH2 0x17E9 JUMPI PUSH32 0x2C7A07D20DFF79D01FECEDC1134284A8D08436606C93693B67E333F671BF69CC PUSH1 0x0 SHL SWAP1 POP PUSH2 0x1824 JUMP JUMPDEST PUSH1 0x40 MLOAD PUSH32 0x8C379A000000000000000000000000000000000000000000000000000000000 DUP2 MSTORE PUSH1 0x4 ADD PUSH2 0x181B SWAP1 PUSH2 0x2EF8 JUMP JUMPDEST PUSH1 0x40 MLOAD DUP1 SWAP2 SUB SWAP1 REVERT JUMPDEST SWAP2 SWAP1 POP JUMP JUMPDEST PUSH32 0x2FE54C60D3ACABF3343A35B6EBA15DB4821B340F76E741E2249685ED4899AF6C DUP2 JUMP JUMPDEST PUSH32 0x0 DUP2 JUMP JUMPDEST PUSH1 0x1 PUSH1 0x20 MSTORE DUP1 PUSH1 0x0 MSTORE PUSH1 0x40 PUSH1 0x0 KECCAK256 PUSH1 0x0 SWAP2 POP SWAP1 POP SLOAD DUP2 JUMP JUMPDEST PUSH1 0x7 PUSH1 0x20 MSTORE DUP1 PUSH1 0x0 MSTORE PUSH1 0x40 PUSH1 0x0 KECCAK256 PUSH1 0x0 SWAP2 POP SLOAD SWAP1 PUSH2 0x100 EXP SWAP1 DIV PUSH1 0xFF AND DUP2 JUMP JUMPDEST PUSH1 0x3 PUSH1 0x4 SWAP1 SLOAD SWAP1 PUSH2 0x100 EXP SWAP1 DIV PUSH4 0xFFFFFFFF AND DUP2 JUMP JUMPDEST PUSH1 0x5 PUSH1 0x0 DUP3 DUP2 MSTORE PUSH1 0x20 ADD SWAP1 DUP2 MSTORE PUSH1 0x20 ADD PUSH1 0x0 KECCAK256 PUSH1 0x0 SWAP1 SLOAD SWAP1 PUSH2 0x100 EXP SWAP1 DIV PUSH1 0xFF AND ISZERO PUSH2 0x1920 JUMPI PUSH1 0x40 MLOAD PUSH32 0x8C379A000000000000000000000000000000000000000000000000000000000 DUP2 MSTORE PUSH1 0x4 ADD PUSH2 0x1917 SWAP1 PUSH2 0x2F8A JUMP JUMPDEST PUSH1 0x40 MLOAD DUP1 SWAP2 SUB SWAP1 REVERT JUMPDEST PUSH1 0x1 PUSH1 0x5 PUSH1 0x0 DUP4 DUP2 MSTORE PUSH1 0x20 ADD SWAP1 DUP2 MSTORE PUSH1 0x20 ADD PUSH1 0x0 KECCAK256 PUSH1 0x0 PUSH2 0x100 EXP DUP2 SLOAD DUP2 PUSH1 0xFF MUL NOT AND SWAP1 DUP4 ISZERO ISZERO MUL OR SWAP1 SSTORE POP PUSH1 0x0 PUSH2 0x1957 DUP3 PUSH2 0x1B6C JUMP JUMPDEST SWAP1 POP DUP2 PUSH32 0x401999886E5F90A91B92A0BFB7E2D48F714651A4D1C929BB3A753525BA066B91 DUP3 TIMESTAMP PUSH1 0x40 MLOAD PUSH2 0x198B SWAP3 SWAP2 SWAP1 PUSH2 0x2FAA JUMP JUMPDEST PUSH1 0x40 MLOAD DUP1 SWAP2 SUB SWAP1 LOG2 POP POP JUMP JUMPDEST PUSH1 0x4 PUSH1 0x0 DUP7 DUP2 MSTORE PUSH1 0x20 ADD SWAP1 DUP2 MSTORE PUSH1 0x20 ADD PUSH1 0x0 KECCAK256 PUSH1 0x0 SWAP1 SLOAD SWAP1 PUSH2 0x100 EXP SWAP1 DIV PUSH1 0xFF AND ISZERO PUSH2 0x19F8 JUMPI PUSH1 0x40 MLOAD PUSH32 0x8C379A000000000000000000000000000000000000000000000000000000000 DUP2 MSTORE PUSH1 0x4 ADD PUSH2 0x19EF SWAP1 PUSH2 0x301F JUMP JUMPDEST PUSH1 0x40 MLOAD DUP1 SWAP2 SUB SWAP1 REVERT JUMPDEST PUSH2 0x1A01 DUP5 PUSH2 0xE3A JUMP JUMPDEST PUSH2 0x1A40 JUMPI PUSH1 0x40 MLOAD PUSH32 0x8C379A000000000000000000000000000000000000000000000000000000000 DUP2 MSTORE PUSH1 0x4 ADD PUSH2 0x1A37 SWAP1 PUSH2 0x308B JUMP JUMPDEST PUSH1 0x40 MLOAD DUP1 SWAP2 SUB SWAP1 REVERT JUMPDEST PUSH32 0x0 PUSH20 0xFFFFFFFFFFFFFFFFFFFFFFFFFFFFFFFFFFFFFFFF AND PUSH4 0xF5C9D69E DUP5 DUP5 DUP5 PUSH1 0x40 MLOAD DUP1 PUSH1 0x40 ADD PUSH1 0x40 MSTORE DUP1 DUP12 PUSH1 0x0 SHR DUP2 MSTORE PUSH1 0x20 ADD DUP11 PUSH1 0x0 SHR DUP2 MSTORE POP PUSH1 0x40 MLOAD DUP6 PUSH4 0xFFFFFFFF AND PUSH1 0xE0 SHL DUP2 MSTORE PUSH1 0x4 ADD PUSH2 0x1AB9 SWAP5 SWAP4 SWAP3 SWAP2 SWAP1 PUSH2 0x3254 JUMP JUMPDEST PUSH1 0x20 PUSH1 0x40 MLOAD DUP1 DUP4 SUB DUP2 DUP7 GAS STATICCALL ISZERO DUP1 ISZERO PUSH2 0x1AD6 JUMPI RETURNDATASIZE PUSH1 0x0 DUP1 RETURNDATACOPY RETURNDATASIZE PUSH1 0x0 REVERT JUMPDEST POP POP POP POP PUSH1 0x40 MLOAD RETURNDATASIZE PUSH1 0x1F NOT PUSH1 0x1F DUP3 ADD AND DUP3 ADD DUP1 PUSH1 0x40 MSTORE POP DUP2 ADD SWAP1 PUSH2 0x1AFA SWAP2 SWAP1 PUSH2 0x32C7 JUMP JUMPDEST PUSH2 0x1B39 JUMPI PUSH1 0x40 MLOAD PUSH32 0x8C379A000000000000000000000000000000000000000000000000000000000 DUP2 MSTORE PUSH1 0x4 ADD PUSH2 0x1B30 SWAP1 PUSH2 0x3340 JUMP JUMPDEST PUSH1 0x40 MLOAD DUP1 SWAP2 SUB SWAP1 REVERT JUMPDEST PUSH1 0x1 PUSH1 0x4 PUSH1 0x0 DUP8 DUP2 MSTORE PUSH1 0x20 ADD SWAP1 DUP2 MSTORE PUSH1 0x20 ADD PUSH1 0x0 KECCAK256 PUSH1 0x0 PUSH2 0x100 EXP DUP2 SLOAD DUP2 PUSH1 0xFF MUL NOT AND SWAP1 DUP4 ISZERO ISZERO MUL OR SWAP1 SSTORE POP POP POP POP POP POP JUMP JUMPDEST PUSH1 0x0 DUP1 PUSH1 0x3 PUSH1 0x4 SWAP1 SLOAD SWAP1 PUSH2 0x100 EXP SWAP1 DIV PUSH4 0xFFFFFFFF AND SWAP1 POP PUSH1 0x0 DUP1 SLOAD SWAP1 PUSH2 0x100 EXP SWAP1 DIV PUSH4 0xFFFFFFFF AND PUSH1 0x2 PUSH2 0x1BA1 SWAP2 SWAP1 PUSH2 0x3493 JUMP JUMPDEST PUSH4 0xFFFFFFFF AND DUP2 PUSH4 0xFFFFFFFF AND SUB PUSH2 0x1BEE JUMPI PUSH1 0x40 MLOAD PUSH32 0x8C379A000000000000000000000000000000000000000000000000000000000 DUP2 MSTORE PUSH1 0x4 ADD PUSH2 0x1BE5 SWAP1 PUSH2 0x3534 JUMP JUMPDEST PUSH1 0x40 MLOAD DUP1 SWAP2 SUB SWAP1 REVERT JUMPDEST PUSH1 0x0 DUP2 SWAP1 POP PUSH1 0x0 DUP5 SWAP1 POP PUSH1 0x0 DUP1 PUSH1 0x0 JUMPDEST PUSH1 0x0 DUP1 SLOAD SWAP1 PUSH2 0x100 EXP SWAP1 DIV PUSH4 0xFFFFFFFF AND PUSH4 0xFFFFFFFF AND DUP2 PUSH4 0xFFFFFFFF AND LT ISZERO PUSH2 0x1CC7 JUMPI PUSH1 0x0 PUSH1 0x2 DUP7 PUSH2 0x1C31 SWAP2 SWAP1 PUSH2 0x3554 JUMP JUMPDEST PUSH4 0xFFFFFFFF AND SUB PUSH2 0x1C73 JUMPI DUP4 SWAP3 POP PUSH2 0x1C4E DUP2 PUSH4 0xFFFFFFFF AND PUSH2 0x118A JUMP JUMPDEST SWAP2 POP DUP4 PUSH1 0x1 PUSH1 0x0 DUP4 PUSH4 0xFFFFFFFF AND DUP2 MSTORE PUSH1 0x20 ADD SWAP1 DUP2 MSTORE PUSH1 0x20 ADD PUSH1 0x0 KECCAK256 DUP2 SWAP1 SSTORE POP PUSH2 0x1C93 JUMP JUMPDEST PUSH1 0x1 PUSH1 0x0 DUP3 PUSH4 0xFFFFFFFF AND DUP2 MSTORE PUSH1 0x20 ADD SWAP1 DUP2 MSTORE PUSH1 0x20 ADD PUSH1 0x0 KECCAK256 SLOAD SWAP3 POP DUP4 SWAP2 POP JUMPDEST PUSH2 0x1CA3 DUP4 PUSH1 0x0 SHR DUP4 PUSH1 0x0 SHR PUSH2 0xBDF JUMP JUMPDEST SWAP4 POP PUSH1 0x2 DUP6 PUSH2 0x1CB2 SWAP2 SWAP1 PUSH2 0x3585 JUMP JUMPDEST SWAP5 POP DUP1 DUP1 PUSH2 0x1CBF SWAP1 PUSH2 0x35B6 JUMP JUMPDEST SWAP2 POP POP PUSH2 0x1BFE JUMP JUMPDEST POP PUSH1 0x0 PUSH1 0x1E PUSH1 0x1 PUSH1 0x3 PUSH1 0x0 SWAP1 SLOAD SWAP1 PUSH2 0x100 EXP SWAP1 DIV PUSH4 0xFFFFFFFF AND PUSH2 0x1CEB SWAP2 SWAP1 PUSH2 0x35E2 JUMP JUMPDEST PUSH2 0x1CF5 SWAP2 SWAP1 PUSH2 0x3554 JUMP JUMPDEST SWAP1 POP DUP1 PUSH1 0x3 PUSH1 0x0 PUSH2 0x100 EXP DUP2 SLOAD DUP2 PUSH4 0xFFFFFFFF MUL NOT AND SWAP1 DUP4 PUSH4 0xFFFFFFFF AND MUL OR SWAP1 SSTORE POP DUP4 PUSH1 0x2 PUSH1 0x0 DUP4 PUSH4 0xFFFFFFFF AND DUP2 MSTORE PUSH1 0x20 ADD SWAP1 DUP2 MSTORE PUSH1 0x20 ADD PUSH1 0x0 KECCAK256 DUP2 SWAP1 SSTORE POP PUSH1 0x1 DUP7 PUSH2 0x1D43 SWAP2 SWAP1 PUSH2 0x35E2 JUMP JUMPDEST PUSH1 0x3 PUSH1 0x4 PUSH2 0x100 EXP DUP2 SLOAD DUP2 PUSH4 0xFFFFFFFF MUL NOT AND SWAP1 DUP4 PUSH4 0xFFFFFFFF AND MUL OR SWAP1 SSTORE POP DUP6 SWAP7 POP POP POP POP POP POP POP SWAP2 SWAP1 POP JUMP JUMPDEST POP DUP1 SLOAD PUSH2 0x1D7D SWAP1 PUSH2 0x28A4 JUMP JUMPDEST PUSH1 0x0 DUP3 SSTORE DUP1 PUSH1 0x1F LT PUSH2 0x1D8F JUMPI POP PUSH2 0x1DAE JUMP JUMPDEST PUSH1 0x1F ADD PUSH1 0x20 SWAP1 DIV SWAP1 PUSH1 0x0 MSTORE PUSH1 0x20 PUSH1 0x0 KECCAK256 SWAP1 DUP2 ADD SWAP1 PUSH2 0x1DAD SWAP2 SWAP1 PUSH2 0x1DB1 JUMP JUMPDEST JUMPDEST POP JUMP JUMPDEST JUMPDEST DUP1 DUP3 GT ISZERO PUSH2 0x1DCA JUMPI PUSH1 0x0 DUP2 PUSH1 0x0 SWAP1 SSTORE POP PUSH1 0x1 ADD PUSH2 0x1DB2 JUMP JUMPDEST POP SWAP1 JUMP JUMPDEST PUSH1 0x0 PUSH1 0x40 MLOAD SWAP1 POP SWAP1 JUMP JUMPDEST PUSH1 0x0 DUP1 REVERT JUMPDEST PUSH1 0x0 DUP1 REVERT JUMPDEST PUSH1 0x0 DUP2 SWAP1 POP SWAP2 SWAP1 POP JUMP JUMPDEST PUSH2 0x1DF5 DUP2 PUSH2 0x1DE2 JUMP JUMPDEST DUP2 EQ PUSH2 0x1E00 JUMPI PUSH1 0x0 DUP1 REVERT JUMPDEST POP JUMP JUMPDEST PUSH1 0x0 DUP2 CALLDATALOAD SWAP1 POP PUSH2 0x1E12 DUP2 PUSH2 0x1DEC JUMP JUMPDEST SWAP3 SWAP2 POP POP JUMP JUMPDEST PUSH1 0x0 DUP1 PUSH1 0x40 DUP4 DUP6 SUB SLT ISZERO PUSH2 0x1E2F JUMPI PUSH2 0x1E2E PUSH2 0x1DD8 JUMP JUMPDEST JUMPDEST PUSH1 0x0 PUSH2 0x1E3D DUP6 DUP3 DUP7 ADD PUSH2 0x1E03 JUMP JUMPDEST SWAP3 POP POP PUSH1 0x20 PUSH2 0x1E4E DUP6 DUP3 DUP7 ADD PUSH2 0x1E03 JUMP JUMPDEST SWAP2 POP POP SWAP3 POP SWAP3 SWAP1 POP JUMP JUMPDEST PUSH1 0x0 PUSH1 0x20 DUP3 DUP5 SUB SLT ISZERO PUSH2 0x1E6E JUMPI PUSH2 0x1E6D PUSH2 0x1DD8 JUMP JUMPDEST JUMPDEST PUSH1 0x0 PUSH2 0x1E7C DUP5 DUP3 DUP6 ADD PUSH2 0x1E03 JUMP JUMPDEST SWAP2 POP POP SWAP3 SWAP2 POP POP JUMP JUMPDEST PUSH1 0x0 DUP2 SWAP1 POP SWAP2 SWAP1 POP JUMP JUMPDEST PUSH2 0x1E98 DUP2 PUSH2 0x1E85 JUMP JUMPDEST DUP2 EQ PUSH2 0x1EA3 JUMPI PUSH1 0x0 DUP1 REVERT JUMPDEST POP JUMP JUMPDEST PUSH1 0x0 DUP2 CALLDATALOAD SWAP1 POP PUSH2 0x1EB5 DUP2 PUSH2 0x1E8F JUMP JUMPDEST SWAP3 SWAP2 POP POP JUMP JUMPDEST PUSH1 0x0 PUSH1 0x20 DUP3 DUP5 SUB SLT ISZERO PUSH2 0x1ED1 JUMPI PUSH2 0x1ED0 PUSH2 0x1DD8 JUMP JUMPDEST JUMPDEST PUSH1 0x0 PUSH2 0x1EDF DUP5 DUP3 DUP6 ADD PUSH2 0x1EA6 JUMP JUMPDEST SWAP2 POP POP SWAP3 SWAP2 POP POP JUMP JUMPDEST PUSH1 0x0 DUP2 ISZERO ISZERO SWAP1 POP SWAP2 SWAP1 POP JUMP JUMPDEST PUSH2 0x1EFD DUP2 PUSH2 0x1EE8 JUMP JUMPDEST DUP3 MSTORE POP POP JUMP JUMPDEST PUSH1 0x0 PUSH1 0x20 DUP3 ADD SWAP1 POP PUSH2 0x1F18 PUSH1 0x0 DUP4 ADD DUP5 PUSH2 0x1EF4 JUMP JUMPDEST SWAP3 SWAP2 POP POP JUMP JUMPDEST PUSH1 0x0 PUSH20 0xFFFFFFFFFFFFFFFFFFFFFFFFFFFFFFFFFFFFFFFF DUP3 AND SWAP1 POP SWAP2 SWAP1 POP JUMP JUMPDEST PUSH1 0x0 DUP2 SWAP1 POP SWAP2 SWAP1 POP JUMP JUMPDEST PUSH1 0x0 PUSH2 0x1F63 PUSH2 0x1F5E PUSH2 0x1F59 DUP5 PUSH2 0x1F1E JUMP JUMPDEST PUSH2 0x1F3E JUMP JUMPDEST PUSH2 0x1F1E JUMP JUMPDEST SWAP1 POP SWAP2 SWAP1 POP JUMP JUMPDEST PUSH1 0x0 PUSH2 0x1F75 DUP3 PUSH2 0x1F48 JUMP JUMPDEST SWAP1 POP SWAP2 SWAP1 POP JUMP JUMPDEST PUSH1 0x0 PUSH2 0x1F87 DUP3 PUSH2 0x1F6A JUMP JUMPDEST SWAP1 POP SWAP2 SWAP1 POP JUMP JUMPDEST PUSH2 0x1F97 DUP2 PUSH2 0x1F7C JUMP JUMPDEST DUP3 MSTORE POP POP JUMP JUMPDEST PUSH1 0x0 PUSH1 0x20 DUP3 ADD SWAP1 POP PUSH2 0x1FB2 PUSH1 0x0 DUP4 ADD DUP5 PUSH2 0x1F8E JUMP JUMPDEST SWAP3 SWAP2 POP POP JUMP JUMPDEST PUSH2 0x1FC1 DUP2 PUSH2 0x1DE2 JUMP JUMPDEST DUP3 MSTORE POP POP JUMP JUMPDEST PUSH1 0x0 DUP2 MLOAD SWAP1 POP SWAP2 SWAP1 POP JUMP JUMPDEST PUSH1 0x0 DUP3 DUP3 MSTORE PUSH1 0x20 DUP3 ADD SWAP1 POP SWAP3 SWAP2 POP POP JUMP JUMPDEST PUSH1 0x0 DUP2 SWAP1 POP PUSH1 0x20 DUP3 ADD SWAP1 POP SWAP2 SWAP1 POP JUMP JUMPDEST PUSH1 0x0 DUP2 MLOAD SWAP1 POP SWAP2 SWAP1 POP JUMP JUMPDEST PUSH1 0x0 DUP3 DUP3 MSTORE PUSH1 0x20 DUP3 ADD SWAP1 POP SWAP3 SWAP2 POP POP JUMP JUMPDEST PUSH1 0x0 JUMPDEST DUP4 DUP2 LT ISZERO PUSH2 0x202D JUMPI DUP1 DUP3 ADD MLOAD DUP2 DUP5 ADD MSTORE PUSH1 0x20 DUP2 ADD SWAP1 POP PUSH2 0x2012 JUMP JUMPDEST PUSH1 0x0 DUP5 DUP5 ADD MSTORE POP POP POP POP JUMP JUMPDEST PUSH1 0x0 PUSH1 0x1F NOT PUSH1 0x1F DUP4 ADD AND SWAP1 POP SWAP2 SWAP1 POP JUMP JUMPDEST PUSH1 0x0 PUSH2 0x2055 DUP3 PUSH2 0x1FF3 JUMP JUMPDEST PUSH2 0x205F DUP2 DUP6 PUSH2 0x1FFE JUMP JUMPDEST SWAP4 POP PUSH2 0x206F DUP2 DUP6 PUSH1 0x20 DUP7 ADD PUSH2 0x200F JUMP JUMPDEST PUSH2 0x2078 DUP2 PUSH2 0x2039 JUMP JUMPDEST DUP5 ADD SWAP2 POP POP SWAP3 SWAP2 POP POP JUMP JUMPDEST PUSH1 0x0 PUSH2 0x208F DUP4 DUP4 PUSH2 0x204A JUMP JUMPDEST SWAP1 POP SWAP3 SWAP2 POP POP JUMP JUMPDEST PUSH1 0x0 PUSH1 0x20 DUP3 ADD SWAP1 POP SWAP2 SWAP1 POP JUMP JUMPDEST PUSH1 0x0 PUSH2 0x20AF DUP3 PUSH2 0x1FC7 JUMP JUMPDEST PUSH2 0x20B9 DUP2 DUP6 PUSH2 0x1FD2 JUMP JUMPDEST SWAP4 POP DUP4 PUSH1 0x20 DUP3 MUL DUP6 ADD PUSH2 0x20CB DUP6 PUSH2 0x1FE3 JUMP JUMPDEST DUP1 PUSH1 0x0 JUMPDEST DUP6 DUP2 LT ISZERO PUSH2 0x2107 JUMPI DUP5 DUP5 SUB DUP10 MSTORE DUP2 MLOAD PUSH2 0x20E8 DUP6 DUP3 PUSH2 0x2083 JUMP JUMPDEST SWAP5 POP PUSH2 0x20F3 DUP4 PUSH2 0x2097 JUMP JUMPDEST SWAP3 POP PUSH1 0x20 DUP11 ADD SWAP10 POP POP PUSH1 0x1 DUP2 ADD SWAP1 POP PUSH2 0x20CF JUMP JUMPDEST POP DUP3 SWAP8 POP DUP8 SWAP6 POP POP POP POP POP POP SWAP3 SWAP2 POP POP JUMP JUMPDEST PUSH1 0x0 PUSH1 0x40 DUP3 ADD SWAP1 POP PUSH2 0x212E PUSH1 0x0 DUP4 ADD DUP6 PUSH2 0x1FB8 JUMP JUMPDEST DUP2 DUP2 SUB PUSH1 0x20 DUP4 ADD MSTORE PUSH2 0x2140 DUP2 DUP5 PUSH2 0x20A4 JUMP JUMPDEST SWAP1 POP SWAP4 SWAP3 POP POP POP JUMP JUMPDEST PUSH1 0x0 DUP3 DUP3 MSTORE PUSH1 0x20 DUP3 ADD SWAP1 POP SWAP3 SWAP2 POP POP JUMP JUMPDEST PUSH1 0x0 PUSH2 0x2165 DUP3 PUSH2 0x1FF3 JUMP JUMPDEST PUSH2 0x216F DUP2 DUP6 PUSH2 0x2149 JUMP JUMPDEST SWAP4 POP PUSH2 0x217F DUP2 DUP6 PUSH1 0x20 DUP7 ADD PUSH2 0x200F JUMP JUMPDEST PUSH2 0x2188 DUP2 PUSH2 0x2039 JUMP JUMPDEST DUP5 ADD SWAP2 POP POP SWAP3 SWAP2 POP POP JUMP JUMPDEST PUSH1 0x0 PUSH1 0x20 DUP3 ADD SWAP1 POP DUP2 DUP2 SUB PUSH1 0x0 DUP4 ADD MSTORE PUSH2 0x21AD DUP2 DUP5 PUSH2 0x215A JUMP JUMPDEST SWAP1 POP SWAP3 SWAP2 POP POP JUMP JUMPDEST PUSH1 0x0 PUSH1 0x20 DUP3 ADD SWAP1 POP PUSH2 0x21CA PUSH1 0x0 DUP4 ADD DUP5 PUSH2 0x1FB8 JUMP JUMPDEST SWAP3 SWAP2 POP POP JUMP JUMPDEST PUSH1 0x0 DUP1 REVERT JUMPDEST PUSH1 0x0 DUP1 REVERT JUMPDEST PUSH32 0x4E487B7100000000000000000000000000000000000000000000000000000000 PUSH1 0x0 MSTORE PUSH1 0x41 PUSH1 0x4 MSTORE PUSH1 0x24 PUSH1 0x0 REVERT JUMPDEST PUSH2 0x2212 DUP3 PUSH2 0x2039 JUMP JUMPDEST DUP2 ADD DUP2 DUP2 LT PUSH8 0xFFFFFFFFFFFFFFFF DUP3 GT OR ISZERO PUSH2 0x2231 JUMPI PUSH2 0x2230 PUSH2 0x21DA JUMP JUMPDEST JUMPDEST DUP1 PUSH1 0x40 MSTORE POP POP POP JUMP JUMPDEST PUSH1 0x0 PUSH2 0x2244 PUSH2 0x1DCE JUMP JUMPDEST SWAP1 POP PUSH2 0x2250 DUP3 DUP3 PUSH2 0x2209 JUMP JUMPDEST SWAP2 SWAP1 POP JUMP JUMPDEST PUSH1 0x0 PUSH8 0xFFFFFFFFFFFFFFFF DUP3 GT ISZERO PUSH2 0x2270 JUMPI PUSH2 0x226F PUSH2 0x21DA JUMP JUMPDEST JUMPDEST PUSH2 0x2279 DUP3 PUSH2 0x2039 JUMP JUMPDEST SWAP1 POP PUSH1 0x20 DUP2 ADD SWAP1 POP SWAP2 SWAP1 POP JUMP JUMPDEST DUP3 DUP2 DUP4 CALLDATACOPY PUSH1 0x0 DUP4 DUP4 ADD MSTORE POP POP POP JUMP JUMPDEST PUSH1 0x0 PUSH2 0x22A8 PUSH2 0x22A3 DUP5 PUSH2 0x2255 JUMP JUMPDEST PUSH2 0x223A JUMP JUMPDEST SWAP1 POP DUP3 DUP2 MSTORE PUSH1 0x20 DUP2 ADD DUP5 DUP5 DUP5 ADD GT ISZERO PUSH2 0x22C4 JUMPI PUSH2 0x22C3 PUSH2 0x21D5 JUMP JUMPDEST JUMPDEST PUSH2 0x22CF DUP5 DUP3 DUP6 PUSH2 0x2286 JUMP JUMPDEST POP SWAP4 SWAP3 POP POP POP JUMP JUMPDEST PUSH1 0x0 DUP3 PUSH1 0x1F DUP4 ADD SLT PUSH2 0x22EC JUMPI PUSH2 0x22EB PUSH2 0x21D0 JUMP JUMPDEST JUMPDEST DUP2 CALLDATALOAD PUSH2 0x22FC DUP5 DUP3 PUSH1 0x20 DUP7 ADD PUSH2 0x2295 JUMP JUMPDEST SWAP2 POP POP SWAP3 SWAP2 POP POP JUMP JUMPDEST PUSH1 0x0 PUSH1 0x20 DUP3 DUP5 SUB SLT ISZERO PUSH2 0x231B JUMPI PUSH2 0x231A PUSH2 0x1DD8 JUMP JUMPDEST JUMPDEST PUSH1 0x0 DUP3 ADD CALLDATALOAD PUSH8 0xFFFFFFFFFFFFFFFF DUP2 GT ISZERO PUSH2 0x2339 JUMPI PUSH2 0x2338 PUSH2 0x1DDD JUMP JUMPDEST JUMPDEST PUSH2 0x2345 DUP5 DUP3 DUP6 ADD PUSH2 0x22D7 JUMP JUMPDEST SWAP2 POP POP SWAP3 SWAP2 POP POP JUMP JUMPDEST PUSH1 0x0 PUSH4 0xFFFFFFFF DUP3 AND SWAP1 POP SWAP2 SWAP1 POP JUMP JUMPDEST PUSH2 0x2367 DUP2 PUSH2 0x234E JUMP JUMPDEST DUP3 MSTORE POP POP JUMP JUMPDEST PUSH1 0x0 PUSH1 0x20 DUP3 ADD SWAP1 POP PUSH2 0x2382 PUSH1 0x0 DUP4 ADD DUP5 PUSH2 0x235E JUMP JUMPDEST SWAP3 SWAP2 POP POP JUMP JUMPDEST PUSH2 0x2391 DUP2 PUSH2 0x1E85 JUMP JUMPDEST DUP3 MSTORE POP POP JUMP JUMPDEST PUSH1 0x0 PUSH1 0x20 DUP3 ADD SWAP1 POP PUSH2 0x23AC PUSH1 0x0 DUP4 ADD DUP5 PUSH2 0x2388 JUMP JUMPDEST SWAP3 SWAP2 POP POP JUMP JUMPDEST PUSH1 0x0 PUSH2 0x23BD DUP3 PUSH2 0x1F1E JUMP JUMPDEST SWAP1 POP SWAP2 SWAP1 POP JUMP JUMPDEST PUSH2 0x23CD DUP2 PUSH2 0x23B2 JUMP JUMPDEST DUP3 MSTORE POP POP JUMP JUMPDEST PUSH1 0x0 PUSH1 0x20 DUP3 ADD SWAP1 POP PUSH2 0x23E8 PUSH1 0x0 DUP4 ADD DUP5 PUSH2 0x23C4 JUMP JUMPDEST SWAP3 SWAP2 POP POP JUMP JUMPDEST PUSH2 0x23F7 DUP2 PUSH2 0x23B2 JUMP JUMPDEST DUP2 EQ PUSH2 0x2402 JUMPI PUSH1 0x0 DUP1 REVERT JUMPDEST POP JUMP JUMPDEST PUSH1 0x0 DUP2 CALLDATALOAD SWAP1 POP PUSH2 0x2414 DUP2 PUSH2 0x23EE JUMP JUMPDEST SWAP3 SWAP2 POP POP JUMP JUMPDEST PUSH1 0x0 PUSH1 0x20 DUP3 DUP5 SUB SLT ISZERO PUSH2 0x2430 JUMPI PUSH2 0x242F PUSH2 0x1DD8 JUMP JUMPDEST JUMPDEST PUSH1 0x0 PUSH2 0x243E DUP5 DUP3 DUP6 ADD PUSH2 0x2405 JUMP JUMPDEST SWAP2 POP POP SWAP3 SWAP2 POP POP JUMP JUMPDEST PUSH1 0x0 PUSH8 0xFFFFFFFFFFFFFFFF DUP3 GT ISZERO PUSH2 0x2462 JUMPI PUSH2 0x2461 PUSH2 0x21DA JUMP JUMPDEST JUMPDEST PUSH1 0x20 DUP3 MUL SWAP1 POP SWAP2 SWAP1 POP JUMP JUMPDEST PUSH1 0x0 DUP1 REVERT JUMPDEST PUSH1 0x0 PUSH2 0x2485 PUSH2 0x2480 DUP5 PUSH2 0x2447 JUMP JUMPDEST PUSH2 0x223A JUMP JUMPDEST SWAP1 POP DUP1 PUSH1 0x20 DUP5 MUL DUP4 ADD DUP6 DUP2 GT ISZERO PUSH2 0x249F JUMPI PUSH2 0x249E PUSH2 0x246D JUMP JUMPDEST JUMPDEST DUP4 JUMPDEST DUP2 DUP2 LT ISZERO PUSH2 0x24C8 JUMPI DUP1 PUSH2 0x24B4 DUP9 DUP3 PUSH2 0x1E03 JUMP JUMPDEST DUP5 MSTORE PUSH1 0x20 DUP5 ADD SWAP4 POP POP PUSH1 0x20 DUP2 ADD SWAP1 POP PUSH2 0x24A1 JUMP JUMPDEST POP POP POP SWAP4 SWAP3 POP POP POP JUMP JUMPDEST PUSH1 0x0 DUP3 PUSH1 0x1F DUP4 ADD SLT PUSH2 0x24E7 JUMPI PUSH2 0x24E6 PUSH2 0x21D0 JUMP JUMPDEST JUMPDEST PUSH1 0x2 PUSH2 0x24F4 DUP5 DUP3 DUP6 PUSH2 0x2472 JUMP JUMPDEST SWAP2 POP POP SWAP3 SWAP2 POP POP JUMP JUMPDEST PUSH1 0x0 PUSH8 0xFFFFFFFFFFFFFFFF DUP3 GT ISZERO PUSH2 0x2518 JUMPI PUSH2 0x2517 PUSH2 0x21DA JUMP JUMPDEST JUMPDEST PUSH1 0x20 DUP3 MUL SWAP1 POP SWAP2 SWAP1 POP JUMP JUMPDEST PUSH1 0x0 PUSH2 0x2536 PUSH2 0x2531 DUP5 PUSH2 0x24FD JUMP JUMPDEST PUSH2 0x223A JUMP JUMPDEST SWAP1 POP DUP1 PUSH1 0x40 DUP5 MUL DUP4 ADD DUP6 DUP2 GT ISZERO PUSH2 0x2550 JUMPI PUSH2 0x254F PUSH2 0x246D JUMP JUMPDEST JUMPDEST DUP4 JUMPDEST DUP2 DUP2 LT ISZERO PUSH2 0x2579 JUMPI DUP1 PUSH2 0x2565 DUP9 DUP3 PUSH2 0x24D2 JUMP JUMPDEST DUP5 MSTORE PUSH1 0x20 DUP5 ADD SWAP4 POP POP PUSH1 0x40 DUP2 ADD SWAP1 POP PUSH2 0x2552 JUMP JUMPDEST POP POP POP SWAP4 SWAP3 POP POP POP JUMP JUMPDEST PUSH1 0x0 DUP3 PUSH1 0x1F DUP4 ADD SLT PUSH2 0x2598 JUMPI PUSH2 0x2597 PUSH2 0x21D0 JUMP JUMPDEST JUMPDEST PUSH1 0x2 PUSH2 0x25A5 DUP5 DUP3 DUP6 PUSH2 0x2523 JUMP JUMPDEST SWAP2 POP POP SWAP3 SWAP2 POP POP JUMP JUMPDEST PUSH1 0x0 DUP1 PUSH1 0x0 DUP1 PUSH1 0x0 DUP1 PUSH2 0x160 DUP8 DUP10 SUB SLT ISZERO PUSH2 0x25CC JUMPI PUSH2 0x25CB PUSH2 0x1DD8 JUMP JUMPDEST JUMPDEST PUSH1 0x0 PUSH2 0x25DA DUP10 DUP3 DUP11 ADD PUSH2 0x1E03 JUMP JUMPDEST SWAP7 POP POP PUSH1 0x20 PUSH2 0x25EB DUP10 DUP3 DUP11 ADD PUSH2 0x1E03 JUMP JUMPDEST SWAP6 POP POP PUSH1 0x40 PUSH2 0x25FC DUP10 DUP3 DUP11 ADD PUSH2 0x1E03 JUMP JUMPDEST SWAP5 POP POP PUSH1 0x60 PUSH2 0x260D DUP10 DUP3 DUP11 ADD PUSH2 0x24D2 JUMP JUMPDEST SWAP4 POP POP PUSH1 0xA0 PUSH2 0x261E DUP10 DUP3 DUP11 ADD PUSH2 0x2583 JUMP JUMPDEST SWAP3 POP POP PUSH2 0x120 PUSH2 0x2630 DUP10 DUP3 DUP11 ADD PUSH2 0x24D2 JUMP JUMPDEST SWAP2 POP POP SWAP3 SWAP6 POP SWAP3 SWAP6 POP SWAP3 SWAP6 JUMP JUMPDEST PUSH1 0x0 PUSH2 0x2648 DUP3 PUSH2 0x1F6A JUMP JUMPDEST SWAP1 POP SWAP2 SWAP1 POP JUMP JUMPDEST PUSH2 0x2658 DUP2 PUSH2 0x263D JUMP JUMPDEST DUP3 MSTORE POP POP JUMP JUMPDEST PUSH1 0x0 PUSH1 0x20 DUP3 ADD SWAP1 POP PUSH2 0x2673 PUSH1 0x0 DUP4 ADD DUP5 PUSH2 0x264F JUMP JUMPDEST SWAP3 SWAP2 POP POP JUMP JUMPDEST PUSH32 0x4F6E6C792076616C696461746F722063616E20636F6D6D697421000000000000 PUSH1 0x0 DUP3 ADD MSTORE POP JUMP JUMPDEST PUSH1 0x0 PUSH2 0x26AF PUSH1 0x1A DUP4 PUSH2 0x2149 JUMP JUMPDEST SWAP2 POP PUSH2 0x26BA DUP3 PUSH2 0x2679 JUMP JUMPDEST PUSH1 0x20 DUP3 ADD SWAP1 POP SWAP2 SWAP1 POP JUMP JUMPDEST PUSH1 0x0 PUSH1 0x20 DUP3 ADD SWAP1 POP DUP2 DUP2 SUB PUSH1 0x0 DUP4 ADD MSTORE PUSH2 0x26DE DUP2 PUSH2 0x26A2 JUMP JUMPDEST SWAP1 POP SWAP2 SWAP1 POP JUMP JUMPDEST PUSH32 0x5468697320756E69717565206861736820697320616C72656164792075736564 PUSH1 0x0 DUP3 ADD MSTORE PUSH32 0x2100000000000000000000000000000000000000000000000000000000000000 PUSH1 0x20 DUP3 ADD MSTORE POP JUMP JUMPDEST PUSH1 0x0 PUSH2 0x2741 PUSH1 0x21 DUP4 PUSH2 0x2149 JUMP JUMPDEST SWAP2 POP PUSH2 0x274C DUP3 PUSH2 0x26E5 JUMP JUMPDEST PUSH1 0x40 DUP3 ADD SWAP1 POP SWAP2 SWAP1 POP JUMP JUMPDEST PUSH1 0x0 PUSH1 0x20 DUP3 ADD SWAP1 POP DUP2 DUP2 SUB PUSH1 0x0 DUP4 ADD MSTORE PUSH2 0x2770 DUP2 PUSH2 0x2734 JUMP JUMPDEST SWAP1 POP SWAP2 SWAP1 POP JUMP JUMPDEST PUSH32 0x4F6E6C79206F776E65722063616E20706572666F726D20746869732061637469 PUSH1 0x0 DUP3 ADD MSTORE PUSH32 0x6F6E210000000000000000000000000000000000000000000000000000000000 PUSH1 0x20 DUP3 ADD MSTORE POP JUMP JUMPDEST PUSH1 0x0 PUSH2 0x27D3 PUSH1 0x23 DUP4 PUSH2 0x2149 JUMP JUMPDEST SWAP2 POP PUSH2 0x27DE DUP3 PUSH2 0x2777 JUMP JUMPDEST PUSH1 0x40 DUP3 ADD SWAP1 POP SWAP2 SWAP1 POP JUMP JUMPDEST PUSH1 0x0 PUSH1 0x20 DUP3 ADD SWAP1 POP DUP2 DUP2 SUB PUSH1 0x0 DUP4 ADD MSTORE PUSH2 0x2802 DUP2 PUSH2 0x27C6 JUMP JUMPDEST SWAP1 POP SWAP2 SWAP1 POP JUMP JUMPDEST PUSH32 0x496E76616C69642063616E646964617465204944210000000000000000000000 PUSH1 0x0 DUP3 ADD MSTORE POP JUMP JUMPDEST PUSH1 0x0 PUSH2 0x283F PUSH1 0x15 DUP4 PUSH2 0x2149 JUMP JUMPDEST SWAP2 POP PUSH2 0x284A DUP3 PUSH2 0x2809 JUMP JUMPDEST PUSH1 0x20 DUP3 ADD SWAP1 POP SWAP2 SWAP1 POP JUMP JUMPDEST PUSH1 0x0 PUSH1 0x20 DUP3 ADD SWAP1 POP DUP2 DUP2 SUB PUSH1 0x0 DUP4 ADD MSTORE PUSH2 0x286E DUP2 PUSH2 0x2832 JUMP JUMPDEST SWAP1 POP SWAP2 SWAP1 POP JUMP JUMPDEST PUSH32 0x4E487B7100000000000000000000000000000000000000000000000000000000 PUSH1 0x0 MSTORE PUSH1 0x22 PUSH1 0x4 MSTORE PUSH1 0x24 PUSH1 0x0 REVERT JUMPDEST PUSH1 0x0 PUSH1 0x2 DUP3 DIV SWAP1 POP PUSH1 0x1 DUP3 AND DUP1 PUSH2 0x28BC JUMPI PUSH1 0x7F DUP3 AND SWAP2 POP JUMPDEST PUSH1 0x20 DUP3 LT DUP2 SUB PUSH2 0x28CF JUMPI PUSH2 0x28CE PUSH2 0x2875 JUMP JUMPDEST JUMPDEST POP SWAP2 SWAP1 POP JUMP JUMPDEST PUSH32 0x4E487B7100000000000000000000000000000000000000000000000000000000 PUSH1 0x0 MSTORE PUSH1 0x32 PUSH1 0x4 MSTORE PUSH1 0x24 PUSH1 0x0 REVERT JUMPDEST PUSH32 0x4E487B7100000000000000000000000000000000000000000000000000000000 PUSH1 0x0 MSTORE PUSH1 0x11 PUSH1 0x4 MSTORE PUSH1 0x24 PUSH1 0x0 REVERT JUMPDEST PUSH1 0x0 PUSH2 0x293E DUP3 PUSH2 0x1DE2 JUMP JUMPDEST SWAP2 POP PUSH32 0xFFFFFFFFFFFFFFFFFFFFFFFFFFFFFFFFFFFFFFFFFFFFFFFFFFFFFFFFFFFFFFFF DUP3 SUB PUSH2 0x2970 JUMPI PUSH2 0x296F PUSH2 0x2904 JUMP JUMPDEST JUMPDEST PUSH1 0x1 DUP3 ADD SWAP1 POP SWAP2 SWAP1 POP JUMP JUMPDEST PUSH1 0x0 DUP2 SWAP1 POP DUP2 PUSH1 0x0 MSTORE PUSH1 0x20 PUSH1 0x0 KECCAK256 SWAP1 POP SWAP2 SWAP1 POP JUMP JUMPDEST PUSH1 0x0 PUSH1 0x20 PUSH1 0x1F DUP4 ADD DIV SWAP1 POP SWAP2 SWAP1 POP JUMP JUMPDEST PUSH1 0x0 DUP3 DUP3 SHL SWAP1 POP SWAP3 SWAP2 POP POP JUMP JUMPDEST PUSH1 0x0 PUSH1 0x8 DUP4 MUL PUSH2 0x29DD PUSH32 0xFFFFFFFFFFFFFFFFFFFFFFFFFFFFFFFFFFFFFFFFFFFFFFFFFFFFFFFFFFFFFFFF DUP3 PUSH2 0x29A0 JUMP JUMPDEST PUSH2 0x29E7 DUP7 DUP4 PUSH2 0x29A0 JUMP JUMPDEST SWAP6 POP DUP1 NOT DUP5 AND SWAP4 POP DUP1 DUP7 AND DUP5 OR SWAP3 POP POP POP SWAP4 SWAP3 POP POP POP JUMP JUMPDEST PUSH1 0x0 PUSH2 0x2A1A PUSH2 0x2A15 PUSH2 0x2A10 DUP5 PUSH2 0x1DE2 JUMP JUMPDEST PUSH2 0x1F3E JUMP JUMPDEST PUSH2 0x1DE2 JUMP JUMPDEST SWAP1 POP SWAP2 SWAP1 POP JUMP JUMPDEST PUSH1 0x0 DUP2 SWAP1 POP SWAP2 SWAP1 POP JUMP JUMPDEST PUSH2 0x2A34 DUP4 PUSH2 0x29FF JUMP JUMPDEST PUSH2 0x2A48 PUSH2 0x2A40 DUP3 PUSH2 0x2A21 JUMP JUMPDEST DUP5 DUP5 SLOAD PUSH2 0x29AD JUMP JUMPDEST DUP3 SSTORE POP POP POP POP JUMP JUMPDEST PUSH1 0x0 SWAP1 JUMP JUMPDEST PUSH2 0x2A5D PUSH2 0x2A50 JUMP JUMPDEST PUSH2 0x2A68 DUP2 DUP5 DUP5 PUSH2 0x2A2B JUMP JUMPDEST POP POP POP JUMP JUMPDEST JUMPDEST DUP2 DUP2 LT ISZERO PUSH2 0x2A8C JUMPI PUSH2 0x2A81 PUSH1 0x0 DUP3 PUSH2 0x2A55 JUMP JUMPDEST PUSH1 0x1 DUP2 ADD SWAP1 POP PUSH2 0x2A6E JUMP JUMPDEST POP POP JUMP JUMPDEST PUSH1 0x1F DUP3 GT ISZERO PUSH2 0x2AD1 JUMPI PUSH2 0x2AA2 DUP2 PUSH2 0x297B JUMP JUMPDEST PUSH2 0x2AAB DUP5 PUSH2 0x2990 JUMP JUMPDEST DUP2 ADD PUSH1 0x20 DUP6 LT ISZERO PUSH2 0x2ABA JUMPI DUP2 SWAP1 POP JUMPDEST PUSH2 0x2ACE PUSH2 0x2AC6 DUP6 PUSH2 0x2990 JUMP JUMPDEST DUP4 ADD DUP3 PUSH2 0x2A6D JUMP JUMPDEST POP POP JUMPDEST POP POP POP JUMP JUMPDEST PUSH1 0x0 DUP3 DUP3 SHR SWAP1 POP SWAP3 SWAP2 POP POP JUMP JUMPDEST PUSH1 0x0 PUSH2 0x2AF4 PUSH1 0x0 NOT DUP5 PUSH1 0x8 MUL PUSH2 0x2AD6 JUMP JUMPDEST NOT DUP1 DUP4 AND SWAP2 POP POP SWAP3 SWAP2 POP POP JUMP JUMPDEST PUSH1 0x0 PUSH2 0x2B0D DUP4 DUP4 PUSH2 0x2AE3 JUMP JUMPDEST SWAP2 POP DUP3 PUSH1 0x2 MUL DUP3 OR SWAP1 POP SWAP3 SWAP2 POP POP JUMP JUMPDEST PUSH2 0x2B26 DUP3 PUSH2 0x1FF3 JUMP JUMPDEST PUSH8 0xFFFFFFFFFFFFFFFF DUP2 GT ISZERO PUSH2 0x2B3F JUMPI PUSH2 0x2B3E PUSH2 0x21DA JUMP JUMPDEST JUMPDEST PUSH2 0x2B49 DUP3 SLOAD PUSH2 0x28A4 JUMP JUMPDEST PUSH2 0x2B54 DUP3 DUP3 DUP6 PUSH2 0x2A90 JUMP JUMPDEST PUSH1 0x0 PUSH1 0x20 SWAP1 POP PUSH1 0x1F DUP4 GT PUSH1 0x1 DUP2 EQ PUSH2 0x2B87 JUMPI PUSH1 0x0 DUP5 ISZERO PUSH2 0x2B75 JUMPI DUP3 DUP8 ADD MLOAD SWAP1 POP JUMPDEST PUSH2 0x2B7F DUP6 DUP3 PUSH2 0x2B01 JUMP JUMPDEST DUP7 SSTORE POP PUSH2 0x2BE7 JUMP JUMPDEST PUSH1 0x1F NOT DUP5 AND PUSH2 0x2B95 DUP7 PUSH2 0x297B JUMP JUMPDEST PUSH1 0x0 JUMPDEST DUP3 DUP2 LT ISZERO PUSH2 0x2BBD JUMPI DUP5 DUP10 ADD MLOAD DUP3 SSTORE PUSH1 0x1 DUP3 ADD SWAP2 POP PUSH1 0x20 DUP6 ADD SWAP5 POP PUSH1 0x20 DUP2 ADD SWAP1 POP PUSH2 0x2B98 JUMP JUMPDEST DUP7 DUP4 LT ISZERO PUSH2 0x2BDA JUMPI DUP5 DUP10 ADD MLOAD PUSH2 0x2BD6 PUSH1 0x1F DUP10 AND DUP3 PUSH2 0x2AE3 JUMP JUMPDEST DUP4 SSTORE POP JUMPDEST PUSH1 0x1 PUSH1 0x2 DUP9 MUL ADD DUP9 SSTORE POP POP POP JUMPDEST POP POP POP POP POP POP JUMP JUMPDEST PUSH32 0x5F6C6566742073686F756C6420626520696E7369646520746865206669656C64 PUSH1 0x0 DUP3 ADD MSTORE POP JUMP JUMPDEST PUSH1 0x0 PUSH2 0x2C25 PUSH1 0x20 DUP4 PUSH2 0x2149 JUMP JUMPDEST SWAP2 POP PUSH2 0x2C30 DUP3 PUSH2 0x2BEF JUMP JUMPDEST PUSH1 0x20 DUP3 ADD SWAP1 POP SWAP2 SWAP1 POP JUMP JUMPDEST PUSH1 0x0 PUSH1 0x20 DUP3 ADD SWAP1 POP DUP2 DUP2 SUB PUSH1 0x0 DUP4 ADD MSTORE PUSH2 0x2C54 DUP2 PUSH2 0x2C18 JUMP JUMPDEST SWAP1 POP SWAP2 SWAP1 POP JUMP JUMPDEST PUSH32 0x5F72696768742073686F756C6420626520696E7369646520746865206669656C PUSH1 0x0 DUP3 ADD MSTORE PUSH32 0x6400000000000000000000000000000000000000000000000000000000000000 PUSH1 0x20 DUP3 ADD MSTORE POP JUMP JUMPDEST PUSH1 0x0 PUSH2 0x2CB7 PUSH1 0x21 DUP4 PUSH2 0x2149 JUMP JUMPDEST SWAP2 POP PUSH2 0x2CC2 DUP3 PUSH2 0x2C5B JUMP JUMPDEST PUSH1 0x40 DUP3 ADD SWAP1 POP SWAP2 SWAP1 POP JUMP JUMPDEST PUSH1 0x0 PUSH1 0x20 DUP3 ADD SWAP1 POP DUP2 DUP2 SUB PUSH1 0x0 DUP4 ADD MSTORE PUSH2 0x2CE6 DUP2 PUSH2 0x2CAA JUMP JUMPDEST SWAP1 POP SWAP2 SWAP1 POP JUMP JUMPDEST PUSH1 0x0 DUP2 SWAP1 POP SWAP2 SWAP1 POP JUMP JUMPDEST PUSH1 0x0 PUSH2 0x2D12 PUSH2 0x2D0D PUSH2 0x2D08 DUP5 PUSH2 0x2CED JUMP JUMPDEST PUSH2 0x1F3E JUMP JUMPDEST PUSH2 0x1DE2 JUMP JUMPDEST SWAP1 POP SWAP2 SWAP1 POP JUMP JUMPDEST PUSH2 0x2D22 DUP2 PUSH2 0x2CF7 JUMP JUMPDEST DUP3 MSTORE POP POP JUMP JUMPDEST PUSH1 0x0 PUSH1 0x60 DUP3 ADD SWAP1 POP PUSH2 0x2D3D PUSH1 0x0 DUP4 ADD DUP7 PUSH2 0x1FB8 JUMP JUMPDEST PUSH2 0x2D4A PUSH1 0x20 DUP4 ADD DUP6 PUSH2 0x1FB8 JUMP JUMPDEST PUSH2 0x2D57 PUSH1 0x40 DUP4 ADD DUP5 PUSH2 0x2D19 JUMP JUMPDEST SWAP5 SWAP4 POP POP POP POP JUMP JUMPDEST PUSH1 0x0 DUP2 MLOAD SWAP1 POP PUSH2 0x2D6E DUP2 PUSH2 0x1DEC JUMP JUMPDEST SWAP3 SWAP2 POP POP JUMP JUMPDEST PUSH1 0x0 DUP1 PUSH1 0x40 DUP4 DUP6 SUB SLT ISZERO PUSH2 0x2D8B JUMPI PUSH2 0x2D8A PUSH2 0x1DD8 JUMP JUMPDEST JUMPDEST PUSH1 0x0 PUSH2 0x2D99 DUP6 DUP3 DUP7 ADD PUSH2 0x2D5F JUMP JUMPDEST SWAP3 POP POP PUSH1 0x20 PUSH2 0x2DAA DUP6 DUP3 DUP7 ADD PUSH2 0x2D5F JUMP JUMPDEST SWAP2 POP POP SWAP3 POP SWAP3 SWAP1 POP JUMP JUMPDEST PUSH32 0x4E487B7100000000000000000000000000000000000000000000000000000000 PUSH1 0x0 MSTORE PUSH1 0x12 PUSH1 0x4 MSTORE PUSH1 0x24 PUSH1 0x0 REVERT JUMPDEST PUSH1 0x0 PUSH2 0x2DEE DUP3 PUSH2 0x234E JUMP JUMPDEST SWAP2 POP PUSH1 0x0 DUP3 SUB PUSH2 0x2E01 JUMPI PUSH2 0x2E00 PUSH2 0x2904 JUMP JUMPDEST JUMPDEST PUSH1 0x1 DUP3 SUB SWAP1 POP SWAP2 SWAP1 POP JUMP JUMPDEST PUSH32 0x496E76616C69642063616E646964617465210000000000000000000000000000 PUSH1 0x0 DUP3 ADD MSTORE POP JUMP JUMPDEST PUSH1 0x0 PUSH2 0x2E42 PUSH1 0x12 DUP4 PUSH2 0x2149 JUMP JUMPDEST SWAP2 POP PUSH2 0x2E4D DUP3 PUSH2 0x2E0C JUMP JUMPDEST PUSH1 0x20 DUP3 ADD SWAP1 POP SWAP2 SWAP1 POP JUMP JUMPDEST PUSH1 0x0 PUSH1 0x20 DUP3 ADD SWAP1 POP DUP2 DUP2 SUB PUSH1 0x0 DUP4 ADD MSTORE PUSH2 0x2E71 DUP2 PUSH2 0x2E35 JUMP JUMPDEST SWAP1 POP SWAP2 SWAP1 POP JUMP JUMPDEST PUSH1 0x0 PUSH2 0x2E83 DUP3 PUSH2 0x1DE2 JUMP JUMPDEST SWAP2 POP PUSH2 0x2E8E DUP4 PUSH2 0x1DE2 JUMP JUMPDEST SWAP3 POP DUP3 DUP3 ADD SWAP1 POP DUP1 DUP3 GT ISZERO PUSH2 0x2EA6 JUMPI PUSH2 0x2EA5 PUSH2 0x2904 JUMP JUMPDEST JUMPDEST SWAP3 SWAP2 POP POP JUMP JUMPDEST PUSH32 0x496E646578206F7574206F6620626F756E647300000000000000000000000000 PUSH1 0x0 DUP3 ADD MSTORE POP JUMP JUMPDEST PUSH1 0x0 PUSH2 0x2EE2 PUSH1 0x13 DUP4 PUSH2 0x2149 JUMP JUMPDEST SWAP2 POP PUSH2 0x2EED DUP3 PUSH2 0x2EAC JUMP JUMPDEST PUSH1 0x20 DUP3 ADD SWAP1 POP SWAP2 SWAP1 POP JUMP JUMPDEST PUSH1 0x0 PUSH1 0x20 DUP3 ADD SWAP1 POP DUP2 DUP2 SUB PUSH1 0x0 DUP4 ADD MSTORE PUSH2 0x2F11 DUP2 PUSH2 0x2ED5 JUMP JUMPDEST SWAP1 POP SWAP2 SWAP1 POP JUMP JUMPDEST PUSH32 0x54686520636F6D6D69746D656E7420686173206265656E207375626D69747465 PUSH1 0x0 DUP3 ADD MSTORE PUSH32 0x6400000000000000000000000000000000000000000000000000000000000000 PUSH1 0x20 DUP3 ADD MSTORE POP JUMP JUMPDEST PUSH1 0x0 PUSH2 0x2F74 PUSH1 0x21 DUP4 PUSH2 0x2149 JUMP JUMPDEST SWAP2 POP PUSH2 0x2F7F DUP3 PUSH2 0x2F18 JUMP JUMPDEST PUSH1 0x40 DUP3 ADD SWAP1 POP SWAP2 SWAP1 POP JUMP JUMPDEST PUSH1 0x0 PUSH1 0x20 DUP3 ADD SWAP1 POP DUP2 DUP2 SUB PUSH1 0x0 DUP4 ADD MSTORE PUSH2 0x2FA3 DUP2 PUSH2 0x2F67 JUMP JUMPDEST SWAP1 POP SWAP2 SWAP1 POP JUMP JUMPDEST PUSH1 0x0 PUSH1 0x40 DUP3 ADD SWAP1 POP PUSH2 0x2FBF PUSH1 0x0 DUP4 ADD DUP6 PUSH2 0x235E JUMP JUMPDEST PUSH2 0x2FCC PUSH1 0x20 DUP4 ADD DUP5 PUSH2 0x1FB8 JUMP JUMPDEST SWAP4 SWAP3 POP POP POP JUMP JUMPDEST PUSH32 0x546865206E756C6C696669657220686173206265656E207375626D6974746564 PUSH1 0x0 DUP3 ADD MSTORE POP JUMP JUMPDEST PUSH1 0x0 PUSH2 0x3009 PUSH1 0x20 DUP4 PUSH2 0x2149 JUMP JUMPDEST SWAP2 POP PUSH2 0x3014 DUP3 PUSH2 0x2FD3 JUMP JUMPDEST PUSH1 0x20 DUP3 ADD SWAP1 POP SWAP2 SWAP1 POP JUMP JUMPDEST PUSH1 0x0 PUSH1 0x20 DUP3 ADD SWAP1 POP DUP2 DUP2 SUB PUSH1 0x0 DUP4 ADD MSTORE PUSH2 0x3038 DUP2 PUSH2 0x2FFC JUMP JUMPDEST SWAP1 POP SWAP2 SWAP1 POP JUMP JUMPDEST PUSH32 0x43616E6E6F742066696E6420796F7572206D65726B6C6520726F6F7400000000 PUSH1 0x0 DUP3 ADD MSTORE POP JUMP JUMPDEST PUSH1 0x0 PUSH2 0x3075 PUSH1 0x1C DUP4 PUSH2 0x2149 JUMP JUMPDEST SWAP2 POP PUSH2 0x3080 DUP3 PUSH2 0x303F JUMP JUMPDEST PUSH1 0x20 DUP3 ADD SWAP1 POP SWAP2 SWAP1 POP JUMP JUMPDEST PUSH1 0x0 PUSH1 0x20 DUP3 ADD SWAP1 POP DUP2 DUP2 SUB PUSH1 0x0 DUP4 ADD MSTORE PUSH2 0x30A4 DUP2 PUSH2 0x3068 JUMP JUMPDEST SWAP1 POP SWAP2 SWAP1 POP JUMP JUMPDEST PUSH1 0x0 PUSH1 0x2 SWAP1 POP SWAP2 SWAP1 POP JUMP JUMPDEST PUSH1 0x0 DUP2 SWAP1 POP SWAP3 SWAP2 POP POP JUMP JUMPDEST PUSH1 0x0 DUP2 SWAP1 POP SWAP2 SWAP1 POP JUMP JUMPDEST PUSH2 0x30D4 DUP2 PUSH2 0x1DE2 JUMP JUMPDEST DUP3 MSTORE POP POP JUMP JUMPDEST PUSH1 0x0 PUSH2 0x30E6 DUP4 DUP4 PUSH2 0x30CB JUMP JUMPDEST PUSH1 0x20 DUP4 ADD SWAP1 POP SWAP3 SWAP2 POP POP JUMP JUMPDEST PUSH1 0x0 PUSH1 0x20 DUP3 ADD SWAP1 POP SWAP2 SWAP1 POP JUMP JUMPDEST PUSH2 0x3108 DUP2 PUSH2 0x30AB JUMP JUMPDEST PUSH2 0x3112 DUP2 DUP5 PUSH2 0x30B6 JUMP JUMPDEST SWAP3 POP PUSH2 0x311D DUP3 PUSH2 0x30C1 JUMP JUMPDEST DUP1 PUSH1 0x0 JUMPDEST DUP4 DUP2 LT ISZERO PUSH2 0x314E JUMPI DUP2 MLOAD PUSH2 0x3135 DUP8 DUP3 PUSH2 0x30DA JUMP JUMPDEST SWAP7 POP PUSH2 0x3140 DUP4 PUSH2 0x30F2 JUMP JUMPDEST SWAP3 POP POP PUSH1 0x1 DUP2 ADD SWAP1 POP PUSH2 0x3121 JUMP JUMPDEST POP POP POP POP POP POP JUMP JUMPDEST PUSH1 0x0 PUSH1 0x2 SWAP1 POP SWAP2 SWAP1 POP JUMP JUMPDEST PUSH1 0x0 DUP2 SWAP1 POP SWAP3 SWAP2 POP POP JUMP JUMPDEST PUSH1 0x0 DUP2 SWAP1 POP SWAP2 SWAP1 POP JUMP JUMPDEST PUSH1 0x0 DUP2 SWAP1 POP SWAP3 SWAP2 POP POP JUMP JUMPDEST PUSH2 0x318A DUP2 PUSH2 0x30AB JUMP JUMPDEST PUSH2 0x3194 DUP2 DUP5 PUSH2 0x3176 JUMP JUMPDEST SWAP3 POP PUSH2 0x319F DUP3 PUSH2 0x30C1 JUMP JUMPDEST DUP1 PUSH1 0x0 JUMPDEST DUP4 DUP2 LT ISZERO PUSH2 0x31D0 JUMPI DUP2 MLOAD PUSH2 0x31B7 DUP8 DUP3 PUSH2 0x30DA JUMP JUMPDEST SWAP7 POP PUSH2 0x31C2 DUP4 PUSH2 0x30F2 JUMP JUMPDEST SWAP3 POP POP PUSH1 0x1 DUP2 ADD SWAP1 POP PUSH2 0x31A3 JUMP JUMPDEST POP POP POP POP POP POP JUMP JUMPDEST PUSH1 0x0 PUSH2 0x31E4 DUP4 DUP4 PUSH2 0x3181 JUMP JUMPDEST PUSH1 0x40 DUP4 ADD SWAP1 POP SWAP3 SWAP2 POP POP JUMP JUMPDEST PUSH1 0x0 PUSH1 0x20 DUP3 ADD SWAP1 POP SWAP2 SWAP1 POP JUMP JUMPDEST PUSH2 0x3206 DUP2 PUSH2 0x3156 JUMP JUMPDEST PUSH2 0x3210 DUP2 DUP5 PUSH2 0x3161 JUMP JUMPDEST SWAP3 POP PUSH2 0x321B DUP3 PUSH2 0x316C JUMP JUMPDEST DUP1 PUSH1 0x0 JUMPDEST DUP4 DUP2 LT ISZERO PUSH2 0x324C JUMPI DUP2 MLOAD PUSH2 0x3233 DUP8 DUP3 PUSH2 0x31D8 JUMP JUMPDEST SWAP7 POP PUSH2 0x323E DUP4 PUSH2 0x31F0 JUMP JUMPDEST SWAP3 POP POP PUSH1 0x1 DUP2 ADD SWAP1 POP PUSH2 0x321F JUMP JUMPDEST POP POP POP POP POP POP JUMP JUMPDEST PUSH1 0x0 PUSH2 0x140 DUP3 ADD SWAP1 POP PUSH2 0x326A PUSH1 0x0 DUP4 ADD DUP8 PUSH2 0x30FF JUMP JUMPDEST PUSH2 0x3277 PUSH1 0x40 DUP4 ADD DUP7 PUSH2 0x31FD JUMP JUMPDEST PUSH2 0x3284 PUSH1 0xC0 DUP4 ADD DUP6 PUSH2 0x30FF JUMP JUMPDEST PUSH2 0x3292 PUSH2 0x100 DUP4 ADD DUP5 PUSH2 0x30FF JUMP JUMPDEST SWAP6 SWAP5 POP POP POP POP POP JUMP JUMPDEST PUSH2 0x32A4 DUP2 PUSH2 0x1EE8 JUMP JUMPDEST DUP2 EQ PUSH2 0x32AF JUMPI PUSH1 0x0 DUP1 REVERT JUMPDEST POP JUMP JUMPDEST PUSH1 0x0 DUP2 MLOAD SWAP1 POP PUSH2 0x32C1 DUP2 PUSH2 0x329B JUMP JUMPDEST SWAP3 SWAP2 POP POP JUMP JUMPDEST PUSH1 0x0 PUSH1 0x20 DUP3 DUP5 SUB SLT ISZERO PUSH2 0x32DD JUMPI PUSH2 0x32DC PUSH2 0x1DD8 JUMP JUMPDEST JUMPDEST PUSH1 0x0 PUSH2 0x32EB DUP5 DUP3 DUP6 ADD PUSH2 0x32B2 JUMP JUMPDEST SWAP2 POP POP SWAP3 SWAP2 POP POP JUMP JUMPDEST PUSH32 0x496E76616C69642070726F6F6600000000000000000000000000000000000000 PUSH1 0x0 DUP3 ADD MSTORE POP JUMP JUMPDEST PUSH1 0x0 PUSH2 0x332A PUSH1 0xD DUP4 PUSH2 0x2149 JUMP JUMPDEST SWAP2 POP PUSH2 0x3335 DUP3 PUSH2 0x32F4 JUMP JUMPDEST PUSH1 0x20 DUP3 ADD SWAP1 POP SWAP2 SWAP1 POP JUMP JUMPDEST PUSH1 0x0 PUSH1 0x20 DUP3 ADD SWAP1 POP DUP2 DUP2 SUB PUSH1 0x0 DUP4 ADD MSTORE PUSH2 0x3359 DUP2 PUSH2 0x331D JUMP JUMPDEST SWAP1 POP SWAP2 SWAP1 POP JUMP JUMPDEST PUSH1 0x0 DUP2 PUSH1 0x1 SHR SWAP1 POP SWAP2 SWAP1 POP JUMP JUMPDEST PUSH1 0x0 DUP1 DUP3 SWAP2 POP DUP4 SWAP1 POP JUMPDEST PUSH1 0x1 DUP6 GT ISZERO PUSH2 0x33B7 JUMPI DUP1 DUP7 DIV DUP2 GT ISZERO PUSH2 0x3393 JUMPI PUSH2 0x3392 PUSH2 0x2904 JUMP JUMPDEST JUMPDEST PUSH1 0x1 DUP6 AND ISZERO PUSH2 0x33A2 JUMPI DUP1 DUP3 MUL SWAP2 POP JUMPDEST DUP1 DUP2 MUL SWAP1 POP PUSH2 0x33B0 DUP6 PUSH2 0x3360 JUMP JUMPDEST SWAP5 POP PUSH2 0x3377 JUMP JUMPDEST SWAP5 POP SWAP5 SWAP3 POP POP POP JUMP JUMPDEST PUSH1 0x0 DUP3 PUSH2 0x33D0 JUMPI PUSH1 0x1 SWAP1 POP PUSH2 0x348C JUMP JUMPDEST DUP2 PUSH2 0x33DE JUMPI PUSH1 0x0 SWAP1 POP PUSH2 0x348C JUMP JUMPDEST DUP2 PUSH1 0x1 DUP2 EQ PUSH2 0x33F4 JUMPI PUSH1 0x2 DUP2 EQ PUSH2 0x33FE JUMPI PUSH2 0x342D JUMP JUMPDEST PUSH1 0x1 SWAP2 POP POP PUSH2 0x348C JUMP JUMPDEST PUSH1 0xFF DUP5 GT ISZERO PUSH2 0x3410 JUMPI PUSH2 0x340F PUSH2 0x2904 JUMP JUMPDEST JUMPDEST DUP4 PUSH1 0x2 EXP SWAP2 POP DUP5 DUP3 GT ISZERO PUSH2 0x3427 JUMPI PUSH2 0x3426 PUSH2 0x2904 JUMP JUMPDEST JUMPDEST POP PUSH2 0x348C JUMP JUMPDEST POP PUSH1 0x20 DUP4 LT PUSH2 0x133 DUP4 LT AND PUSH1 0x4E DUP5 LT PUSH1 0xB DUP5 LT AND OR ISZERO PUSH2 0x3462 JUMPI DUP3 DUP3 EXP SWAP1 POP DUP4 DUP2 GT ISZERO PUSH2 0x345D JUMPI PUSH2 0x345C PUSH2 0x2904 JUMP JUMPDEST JUMPDEST PUSH2 0x348C JUMP JUMPDEST PUSH2 0x346F DUP5 DUP5 DUP5 PUSH1 0x1 PUSH2 0x336D JUMP JUMPDEST SWAP3 POP SWAP1 POP DUP2 DUP5 DIV DUP2 GT ISZERO PUSH2 0x3486 JUMPI PUSH2 0x3485 PUSH2 0x2904 JUMP JUMPDEST JUMPDEST DUP2 DUP2 MUL SWAP1 POP JUMPDEST SWAP4 SWAP3 POP POP POP JUMP JUMPDEST PUSH1 0x0 PUSH2 0x349E DUP3 PUSH2 0x234E JUMP JUMPDEST SWAP2 POP PUSH2 0x34A9 DUP4 PUSH2 0x234E JUMP JUMPDEST SWAP3 POP PUSH2 0x34BA PUSH4 0xFFFFFFFF DUP5 DUP5 PUSH2 0x33C0 JUMP JUMPDEST SWAP1 POP SWAP3 SWAP2 POP POP JUMP JUMPDEST PUSH32 0x4D65726B6C6520747265652069732066756C6C2E204E6F206D6F7265206C6561 PUSH1 0x0 DUP3 ADD MSTORE PUSH32 0x7665732063616E20626520616464656400000000000000000000000000000000 PUSH1 0x20 DUP3 ADD MSTORE POP JUMP JUMPDEST PUSH1 0x0 PUSH2 0x351E PUSH1 0x30 DUP4 PUSH2 0x2149 JUMP JUMPDEST SWAP2 POP PUSH2 0x3529 DUP3 PUSH2 0x34C2 JUMP JUMPDEST PUSH1 0x40 DUP3 ADD SWAP1 POP SWAP2 SWAP1 POP JUMP JUMPDEST PUSH1 0x0 PUSH1 0x20 DUP3 ADD SWAP1 POP DUP2 DUP2 SUB PUSH1 0x0 DUP4 ADD MSTORE PUSH2 0x354D DUP2 PUSH2 0x3511 JUMP JUMPDEST SWAP1 POP SWAP2 SWAP1 POP JUMP JUMPDEST PUSH1 0x0 PUSH2 0x355F DUP3 PUSH2 0x234E JUMP JUMPDEST SWAP2 POP PUSH2 0x356A DUP4 PUSH2 0x234E JUMP JUMPDEST SWAP3 POP DUP3 PUSH2 0x357A JUMPI PUSH2 0x3579 PUSH2 0x2DB4 JUMP JUMPDEST JUMPDEST DUP3 DUP3 MOD SWAP1 POP SWAP3 SWAP2 POP POP JUMP JUMPDEST PUSH1 0x0 PUSH2 0x3590 DUP3 PUSH2 0x234E JUMP JUMPDEST SWAP2 POP PUSH2 0x359B DUP4 PUSH2 0x234E JUMP JUMPDEST SWAP3 POP DUP3 PUSH2 0x35AB JUMPI PUSH2 0x35AA PUSH2 0x2DB4 JUMP JUMPDEST JUMPDEST DUP3 DUP3 DIV SWAP1 POP SWAP3 SWAP2 POP POP JUMP JUMPDEST PUSH1 0x0 PUSH2 0x35C1 DUP3 PUSH2 0x234E JUMP JUMPDEST SWAP2 POP PUSH4 0xFFFFFFFF DUP3 SUB PUSH2 0x35D7 JUMPI PUSH2 0x35D6 PUSH2 0x2904 JUMP JUMPDEST JUMPDEST PUSH1 0x1 DUP3 ADD SWAP1 POP SWAP2 SWAP1 POP JUMP JUMPDEST PUSH1 0x0 PUSH2 0x35ED DUP3 PUSH2 0x234E JUMP JUMPDEST SWAP2 POP PUSH2 0x35F8 DUP4 PUSH2 0x234E JUMP JUMPDEST SWAP3 POP DUP3 DUP3 ADD SWAP1 POP PUSH4 0xFFFFFFFF DUP2 GT ISZERO PUSH2 0x3614 JUMPI PUSH2 0x3613 PUSH2 0x2904 JUMP JUMPDEST JUMPDEST SWAP3 SWAP2 POP POP JUMP INVALID LOG2 PUSH5 0x6970667358 0x22 SLT KECCAK256 PUSH19 0x50FFF9014F4B8C87F52501A6ACBBF5914AE88D OR REVERT SWAP6 SHL 0xBA TIMESTAMP 0x29 SUB PUSH31 0x3A108164736F6C634300081300330000000000000000000000000000000000 "
		},
		"gasEstimates": {
			"creation": {
				"codeDepositCost": "2780800",
				"executionCost": "infinite",
				"totalCost": "infinite"
			},
			"external": {
				"FIELD_SIZE()": "441",
				"ROOT_HISTORY_SIZE()": "380",
				"ZERO_VALUE()": "440",
				"addCandidate(string)": "infinite",
				"candidates(uint256)": "infinite",
				"commitments(bytes32)": "2885",
				"currentRootIndex()": "2539",
				"deleteCandidate(uint256)": "infinite",
				"filledSubtrees(uint256)": "2831",
				"getAllCandidates()": "infinite",
				"getLastRoot()": "4746",
				"getOptionCounter(uint256)": "infinite",
				"getOwner()": "2633",
				"hashLeftRight(uint256,uint256)": "infinite",
				"hasher()": "infinite",
				"isKnownRoot(bytes32)": "infinite",
				"levels()": "2536",
				"nextIndex()": "2631",
				"nullifiers(bytes32)": "2887",
				"numCandidates()": "2519",
				"owner()": "2560",
				"registerCommitment(uint256,uint256)": "infinite",
				"registerValidator(address)": "27027",
				"roots(uint256)": "2876",
				"validatorList(uint256)": "5023",
				"validators(address)": "2933",
				"verifier()": "infinite",
				"vote(uint256,uint256,uint256,uint256[2],uint256[2][2],uint256[2])": "infinite",
				"zeros(uint256)": "1522"
			}
		},
		"methodIdentifiers": {
			"FIELD_SIZE()": "414a37ba",
			"ROOT_HISTORY_SIZE()": "cd87a3b4",
			"ZERO_VALUE()": "ec732959",
			"addCandidate(string)": "462e91ec",
			"candidates(uint256)": "3477ee2e",
			"commitments(bytes32)": "839df945",
			"currentRootIndex()": "90eeb02b",
			"deleteCandidate(uint256)": "1e620cd4",
			"filledSubtrees(uint256)": "f178e47c",
			"getAllCandidates()": "2e6997fe",
			"getLastRoot()": "ba70f757",
			"getOptionCounter(uint256)": "955e0377",
			"getOwner()": "893d20e8",
			"hashLeftRight(uint256,uint256)": "5bb93995",
			"hasher()": "ed33639f",
			"isKnownRoot(bytes32)": "6d9833e3",
			"levels()": "4ecf518b",
			"nextIndex()": "fc7e9c6f",
			"nullifiers(bytes32)": "2997e86b",
			"numCandidates()": "5216509a",
			"owner()": "8da5cb5b",
			"registerCommitment(uint256,uint256)": "1407beb8",
			"registerValidator(address)": "9fca5169",
			"roots(uint256)": "c2b40ae4",
			"validatorList(uint256)": "b048e056",
			"validators(address)": "fa52c7d8",
			"verifier()": "2b7ac3f3",
			"vote(uint256,uint256,uint256,uint256[2],uint256[2][2],uint256[2])": "ce8f6377",
			"zeros(uint256)": "e8295588"
		}
	},
	"abi": [
		{
			"inputs": [
				{
					"internalType": "uint32",
					"name": "_levels",
					"type": "uint32"
				},
				{
					"internalType": "contract IHasher",
					"name": "_hasher",
					"type": "address"
				},
				{
					"internalType": "contract IVerifier",
					"name": "_verifier",
					"type": "address"
				},
				{
					"internalType": "string[]",
					"name": "_candidateNames",
					"type": "string[]"
				}
			],
			"stateMutability": "nonpayable",
			"type": "constructor"
		},
		{
			"anonymous": false,
			"inputs": [
				{
					"indexed": true,
					"internalType": "uint256",
					"name": "candidateId",
					"type": "uint256"
				},
				{
					"indexed": false,
					"internalType": "string",
					"name": "name",
					"type": "string"
				}
			],
			"name": "CandidateAdded",
			"type": "event"
		},
		{
			"anonymous": false,
			"inputs": [
				{
					"indexed": true,
					"internalType": "uint256",
					"name": "candidateId",
					"type": "uint256"
				}
			],
			"name": "CandidateDeleted",
			"type": "event"
		},
		{
			"anonymous": false,
			"inputs": [
				{
					"indexed": true,
					"internalType": "bytes32",
					"name": "commitment",
					"type": "bytes32"
				},
				{
					"indexed": false,
					"internalType": "uint32",
					"name": "leafIndex",
					"type": "uint32"
				},
				{
					"indexed": false,
					"internalType": "uint256",
					"name": "timestamp",
					"type": "uint256"
				}
			],
			"name": "Commit",
			"type": "event"
		},
		{
			"inputs": [],
			"name": "FIELD_SIZE",
			"outputs": [
				{
					"internalType": "uint256",
					"name": "",
					"type": "uint256"
				}
			],
			"stateMutability": "view",
			"type": "function"
		},
		{
			"inputs": [],
			"name": "ROOT_HISTORY_SIZE",
			"outputs": [
				{
					"internalType": "uint32",
					"name": "",
					"type": "uint32"
				}
			],
			"stateMutability": "view",
			"type": "function"
		},
		{
			"inputs": [],
			"name": "ZERO_VALUE",
			"outputs": [
				{
					"internalType": "uint256",
					"name": "",
					"type": "uint256"
				}
			],
			"stateMutability": "view",
			"type": "function"
		},
		{
			"inputs": [
				{
					"internalType": "string",
					"name": "_name",
					"type": "string"
				}
			],
			"name": "addCandidate",
			"outputs": [],
			"stateMutability": "nonpayable",
			"type": "function"
		},
		{
			"inputs": [
				{
					"internalType": "uint256",
					"name": "",
					"type": "uint256"
				}
			],
			"name": "candidates",
			"outputs": [
				{
					"internalType": "string",
					"name": "",
					"type": "string"
				}
			],
			"stateMutability": "view",
			"type": "function"
		},
		{
			"inputs": [
				{
					"internalType": "bytes32",
					"name": "",
					"type": "bytes32"
				}
			],
			"name": "commitments",
			"outputs": [
				{
					"internalType": "bool",
					"name": "",
					"type": "bool"
				}
			],
			"stateMutability": "view",
			"type": "function"
		},
		{
			"inputs": [],
			"name": "currentRootIndex",
			"outputs": [
				{
					"internalType": "uint32",
					"name": "",
					"type": "uint32"
				}
			],
			"stateMutability": "view",
			"type": "function"
		},
		{
			"inputs": [
				{
					"internalType": "uint256",
					"name": "_candidateId",
					"type": "uint256"
				}
			],
			"name": "deleteCandidate",
			"outputs": [],
			"stateMutability": "nonpayable",
			"type": "function"
		},
		{
			"inputs": [
				{
					"internalType": "uint256",
					"name": "",
					"type": "uint256"
				}
			],
			"name": "filledSubtrees",
			"outputs": [
				{
					"internalType": "bytes32",
					"name": "",
					"type": "bytes32"
				}
			],
			"stateMutability": "view",
			"type": "function"
		},
		{
			"inputs": [],
			"name": "getAllCandidates",
			"outputs": [
				{
					"internalType": "uint256",
					"name": "",
					"type": "uint256"
				},
				{
					"internalType": "string[]",
					"name": "",
					"type": "string[]"
				}
			],
			"stateMutability": "view",
			"type": "function"
		},
		{
			"inputs": [],
			"name": "getLastRoot",
			"outputs": [
				{
					"internalType": "bytes32",
					"name": "",
					"type": "bytes32"
				}
			],
			"stateMutability": "view",
			"type": "function"
		},
		{
			"inputs": [
				{
					"internalType": "uint256",
					"name": "_candidateId",
					"type": "uint256"
				}
			],
			"name": "getOptionCounter",
			"outputs": [
				{
					"internalType": "uint256",
					"name": "",
					"type": "uint256"
				}
			],
			"stateMutability": "view",
			"type": "function"
		},
		{
			"inputs": [],
			"name": "getOwner",
			"outputs": [
				{
					"internalType": "address",
					"name": "",
					"type": "address"
				}
			],
			"stateMutability": "view",
			"type": "function"
		},
		{
			"inputs": [
				{
					"internalType": "uint256",
					"name": "_left",
					"type": "uint256"
				},
				{
					"internalType": "uint256",
					"name": "_right",
					"type": "uint256"
				}
			],
			"name": "hashLeftRight",
			"outputs": [
				{
					"internalType": "bytes32",
					"name": "",
					"type": "bytes32"
				}
			],
			"stateMutability": "view",
			"type": "function"
		},
		{
			"inputs": [],
			"name": "hasher",
			"outputs": [
				{
					"internalType": "contract IHasher",
					"name": "",
					"type": "address"
				}
			],
			"stateMutability": "view",
			"type": "function"
		},
		{
			"inputs": [
				{
					"internalType": "bytes32",
					"name": "_root",
					"type": "bytes32"
				}
			],
			"name": "isKnownRoot",
			"outputs": [
				{
					"internalType": "bool",
					"name": "",
					"type": "bool"
				}
			],
			"stateMutability": "view",
			"type": "function"
		},
		{
			"inputs": [],
			"name": "levels",
			"outputs": [
				{
					"internalType": "uint32",
					"name": "",
					"type": "uint32"
				}
			],
			"stateMutability": "view",
			"type": "function"
		},
		{
			"inputs": [],
			"name": "nextIndex",
			"outputs": [
				{
					"internalType": "uint32",
					"name": "",
					"type": "uint32"
				}
			],
			"stateMutability": "view",
			"type": "function"
		},
		{
			"inputs": [
				{
					"internalType": "bytes32",
					"name": "",
					"type": "bytes32"
				}
			],
			"name": "nullifiers",
			"outputs": [
				{
					"internalType": "bool",
					"name": "",
					"type": "bool"
				}
			],
			"stateMutability": "view",
			"type": "function"
		},
		{
			"inputs": [],
			"name": "numCandidates",
			"outputs": [
				{
					"internalType": "uint256",
					"name": "",
					"type": "uint256"
				}
			],
			"stateMutability": "view",
			"type": "function"
		},
		{
			"inputs": [],
			"name": "owner",
			"outputs": [
				{
					"internalType": "address",
					"name": "",
					"type": "address"
				}
			],
			"stateMutability": "view",
			"type": "function"
		},
		{
			"inputs": [
				{
					"internalType": "uint256",
					"name": "_uniqueHash",
					"type": "uint256"
				},
				{
					"internalType": "uint256",
					"name": "_commitment",
					"type": "uint256"
				}
			],
			"name": "registerCommitment",
			"outputs": [],
			"stateMutability": "nonpayable",
			"type": "function"
		},
		{
			"inputs": [
				{
					"internalType": "address",
					"name": "_validator",
					"type": "address"
				}
			],
			"name": "registerValidator",
			"outputs": [],
			"stateMutability": "nonpayable",
			"type": "function"
		},
		{
			"inputs": [
				{
					"internalType": "uint256",
					"name": "",
					"type": "uint256"
				}
			],
			"name": "roots",
			"outputs": [
				{
					"internalType": "bytes32",
					"name": "",
					"type": "bytes32"
				}
			],
			"stateMutability": "view",
			"type": "function"
		},
		{
			"inputs": [
				{
					"internalType": "uint256",
					"name": "",
					"type": "uint256"
				}
			],
			"name": "validatorList",
			"outputs": [
				{
					"internalType": "address",
					"name": "",
					"type": "address"
				}
			],
			"stateMutability": "view",
			"type": "function"
		},
		{
			"inputs": [
				{
					"internalType": "address",
					"name": "",
					"type": "address"
				}
			],
			"name": "validators",
			"outputs": [
				{
					"internalType": "bool",
					"name": "",
					"type": "bool"
				}
			],
			"stateMutability": "view",
			"type": "function"
		},
		{
			"inputs": [],
			"name": "verifier",
			"outputs": [
				{
					"internalType": "contract IVerifier",
					"name": "",
					"type": "address"
				}
			],
			"stateMutability": "view",
			"type": "function"
		},
		{
			"inputs": [
				{
					"internalType": "uint256",
					"name": "_candidateId",
					"type": "uint256"
				},
				{
					"internalType": "uint256",
					"name": "_nullifier",
					"type": "uint256"
				},
				{
					"internalType": "uint256",
					"name": "_root",
					"type": "uint256"
				},
				{
					"internalType": "uint256[2]",
					"name": "_proof_a",
					"type": "uint256[2]"
				},
				{
					"internalType": "uint256[2][2]",
					"name": "_proof_b",
					"type": "uint256[2][2]"
				},
				{
					"internalType": "uint256[2]",
					"name": "_proof_c",
					"type": "uint256[2]"
				}
			],
			"name": "vote",
			"outputs": [],
			"stateMutability": "nonpayable",
			"type": "function"
		},
		{
			"inputs": [
				{
					"internalType": "uint256",
					"name": "i",
					"type": "uint256"
				}
			],
			"name": "zeros",
			"outputs": [
				{
					"internalType": "bytes32",
					"name": "",
					"type": "bytes32"
				}
			],
			"stateMutability": "pure",
			"type": "function"
		}
	]
}