{
	"data": {
		"bytecode": {
			"linkReferences": {},
			"object": "60c06040525f60035f6101000a81548163ffffffff021916908363ffffffff1602179055505f600360046101000a81548163ffffffff021916908363ffffffff160217905550348015610050575f5ffd5b50604051614e6b380380614e6b83398181016040528101906100729190610aeb565b86868682825f8263ffffffff16116100bf576040517f08c379a00000000000000000000000000000000000000000000000000000000081526004016100b690610c08565b60405180910390fd5b60208263ffffffff1610610108576040517f08c379a00000000000000000000000000000000000000000000000000000000081526004016100ff90610c70565b60405180910390fd5b815f5f6101000a81548163ffffffff021916908363ffffffff1602179055508073ffffffffffffffffffffffffffffffffffffffff1660808173ffffffffffffffffffffffffffffffffffffffff16815250505f5f90505b8263ffffffff168163ffffffff1610156101b1576101898163ffffffff1661035760201b60201c565b60015f8363ffffffff1681526020019081526020015f20819055508080600101915050610160565b506101d36001836101c29190610cbb565b63ffffffff1661035760201b60201c565b60025f5f81526020019081526020015f208190555050508073ffffffffffffffffffffffffffffffffffffffff1660a08173ffffffffffffffffffffffffffffffffffffffff1681525050505050828410610263576040517f08c379a000000000000000000000000000000000000000000000000000000000815260040161025a90610d62565b60405180910390fd5b8082106102a5576040517f08c379a000000000000000000000000000000000000000000000000000000000815260040161029c90610df0565b60405180910390fd5b818311156102e8576040517f08c379a00000000000000000000000000000000000000000000000000000000081526004016102df90610e7e565b60405180910390fd5b3360065f6101000a81548173ffffffffffffffffffffffffffffffffffffffff021916908373ffffffffffffffffffffffffffffffffffffffff1602179055505f60098190555083600b8190555082600c8190555081600d8190555080600e8190555050505050505050610f04565b5f5f8203610389577f2fe54c60d3acabf3343a35b6eba15db4821b340f76e741e2249685ed4899af6c5f1b90506109d0565b600182036103bb577f256a6135777eee2fd26f54b8b7037a25439d5235caee224154186d2b8a52e31d5f1b90506109d0565b600282036103ed577f1151949895e82ab19924de92c40a3d6f7bcb60d92b00504b8199613683f0c2005f1b90506109d0565b6003820361041f577f20121ee811489ff8d61f09fb89e313f14959a0f28bb428a20dba6b0b068b3bdb5f1b90506109d0565b60048203610451577f0a89ca6ffa14cc462cfedb842c30ed221a50a3d6bf022a6a57dc82ab24c157c95f1b90506109d0565b60058203610483577f24ca05c2b5cd42e890d6be94c68d0689f4f21c9cec9c0f13fe41d566dfb549595f1b90506109d0565b600682036104b5577f1ccb97c932565a92c60156bdba2d08f3bf1377464e025cee765679e604a7315c5f1b90506109d0565b600782036104e7577f19156fbd7d1a8bf5cba8909367de1b624534ebab4f0f79e003bccdd1b182bdb45f1b90506109d0565b60088203610519577f261af8c1f0912e465744641409f622d466c3920ac6e5ff37e36604cb11dfff805f1b90506109d0565b6009820361054a577e58459724ff6ca5a1652fcbc3e82b93895cf08e975b19beab3f54c217d1c0075f1b90506109d0565b600a820361057c577f1f04ef20dee48d39984d8eabe768a70eafa6310ad20849d4573c3c40c2ad1e305f1b90506109d0565b600b82036105ae577f1bea3dec5dab51567ce7e200a30f7ba6d4276aeaa53e2686f962a46c66d511e55f1b90506109d0565b600c82036105e0577f0ee0f941e2da4b9e31c3ca97a40d8fa9ce68d97c084177071b3cb46cd3372f0f5f1b90506109d0565b600d8203610612577f1ca9503e8935884501bbaf20be14eb4c46b89772c97b96e3b2ebf3a36a948bbd5f1b90506109d0565b600e8203610644577f133a80e30697cd55d8f7d4b0965b7be24057ba5dc3da898ee2187232446cb1085f1b90506109d0565b600f8203610676577f13e6d8fc88839ed76e182c2a779af5b2c0da9dd18c90427a644f7e148a6253b65f1b90506109d0565b601082036106a8577f1eb16b057a477f4bc8f572ea6bee39561098f78f15bfb3699dcbb7bd8db618545f1b90506109d0565b601182036106da577f0da2cb16a1ceaabf1c16b838f7a9e3f2a3a3088d9e0a6debaa748114620696ea5f1b90506109d0565b6012820361070c577f24a3b3d822420b14b5d8cb6c28a574f01e98ea9e940551d2ebd75cee12649f9d5f1b90506109d0565b6013820361073e577f198622acbd783d1b0d9064105b1fc8e4d8889de95c4c519b3f635809fe6afc055f1b90506109d0565b60148203610770577f29d7ed391256ccc3ea596c86e933b89ff339d25ea8ddced975ae2fe30b5296d45f1b90506109d0565b601582036107a2577f19be59f2f0413ce78c0c3703a3a5451b1d7f39629fa33abd11548a76065b29675f1b90506109d0565b601682036107d4577f1ff3f61797e538b70e619310d33f2a063e7eb59104e112e95738da1254dc34535f1b90506109d0565b60178203610806577f10c16ae9959cf8358980d9dd9616e48228737310a10e2b6b731c1a548f036c485f1b90506109d0565b60188203610838577f0ba433a63174a90ac20992e75e3095496812b652685b5e1a2eae0b1bf4e8fcd15f1b90506109d0565b6019820361086a577f019ddb9df2bc98d987d0dfeca9d2b643deafab8f7036562e627c3667266a044c5f1b90506109d0565b601a820361089c577f2d3c88b23175c5a5565db928414c66d1912b11acf974b2e644caaac04739ce995f1b90506109d0565b601b82036108ce577f2eab55f6ae4e66e32c5189eed5c470840863445760f5ed7e7b69b2a62600f3545f1b90506109d0565b601c82036108ff577e2df37a2642621802383cf952bf4dd1f32e05433beeb1fd41031fb7eace979d5f1b90506109d0565b601d8203610931577f104aeb41435db66c3e62feccc1d6f5d98d0a0ed75d1374db457cf462e3a1f4275f1b90506109d0565b601e8203610963577f1f3c6fd858e9a7d4b0d1f38e256a09d81d5a5e3c963987e2d4b814cfab7c6ebb5f1b90506109d0565b601f8203610995577f2c7a07d20dff79d01fecedc1134284a8d08436606c93693b67e333f671bf69cc5f1b90506109d0565b6040517f08c379a00000000000000000000000000000000000000000000000000000000081526004016109c790610ee6565b60405180910390fd5b919050565b5f5ffd5b5f63ffffffff82169050919050565b6109f1816109d9565b81146109fb575f5ffd5b50565b5f81519050610a0c816109e8565b92915050565b5f73ffffffffffffffffffffffffffffffffffffffff82169050919050565b5f610a3b82610a12565b9050919050565b5f610a4c82610a31565b9050919050565b610a5c81610a42565b8114610a66575f5ffd5b50565b5f81519050610a7781610a53565b92915050565b5f610a8782610a31565b9050919050565b610a9781610a7d565b8114610aa1575f5ffd5b50565b5f81519050610ab281610a8e565b92915050565b5f819050919050565b610aca81610ab8565b8114610ad4575f5ffd5b50565b5f81519050610ae581610ac1565b92915050565b5f5f5f5f5f5f5f60e0888a031215610b0657610b056109d5565b5b5f610b138a828b016109fe565b9750506020610b248a828b01610a69565b9650506040610b358a828b01610aa4565b9550506060610b468a828b01610ad7565b9450506080610b578a828b01610ad7565b93505060a0610b688a828b01610ad7565b92505060c0610b798a828b01610ad7565b91505092959891949750929550565b5f82825260208201905092915050565b7f5f6c6576656c732073686f756c642062652067726561746572207468616e207a5f8201527f65726f0000000000000000000000000000000000000000000000000000000000602082015250565b5f610bf2602383610b88565b9150610bfd82610b98565b604082019050919050565b5f6020820190508181035f830152610c1f81610be6565b9050919050565b7f5f6c6576656c732073686f756c64206265206c657373207468616e20333200005f82015250565b5f610c5a601e83610b88565b9150610c6582610c26565b602082019050919050565b5f6020820190508181035f830152610c8781610c4e565b9050919050565b7f4e487b71000000000000000000000000000000000000000000000000000000005f52601160045260245ffd5b5f610cc5826109d9565b9150610cd0836109d9565b9250828203905063ffffffff811115610cec57610ceb610c8e565b5b92915050565b7f526567697374726174696f6e207374617274206d757374206265206265666f725f8201527f6520656e642074696d6500000000000000000000000000000000000000000000602082015250565b5f610d4c602a83610b88565b9150610d5782610cf2565b604082019050919050565b5f6020820190508181035f830152610d7981610d40565b9050919050565b7f566f74696e67207374617274206d757374206265206265666f726520656e64205f8201527f74696d6500000000000000000000000000000000000000000000000000000000602082015250565b5f610dda602483610b88565b9150610de582610d80565b604082019050919050565b5f6020820190508181035f830152610e0781610dce565b9050919050565b7f526567697374726174696f6e206d75737420656e64206265666f726520766f745f8201527f696e672073746172747300000000000000000000000000000000000000000000602082015250565b5f610e68602a83610b88565b9150610e7382610e0e565b604082019050919050565b5f6020820190508181035f830152610e9581610e5c565b9050919050565b7f496e646578206f7574206f6620626f756e6473000000000000000000000000005f82015250565b5f610ed0601383610b88565b9150610edb82610e9c565b602082019050919050565b5f6020820190508181035f830152610efd81610ec4565b9050919050565b60805160a051613f31610f3a5f395f81816108fa015261207101525f8181610d0001528181610dd70152611eab0152613f315ff3fe608060405234801561000f575f5ffd5b5060043610610225575f3560e01c80638bb2fb751161012e578063c1b1f732116100b6578063e82955881161007a578063e8295588146106a8578063ec732959146106d8578063ed33639f146106f6578063f178e47c14610714578063fc7e9c6f1461074457610225565b8063c1b1f732146105de578063c2b40ae41461060e578063cd87a3b41461063e578063ce8f63771461065c578063d290a3cf1461067857610225565b8063a15a36c7116100fd578063a15a36c71461054c578063b4062a3114610568578063b7ab4db514610586578063ba70f757146105a4578063be00d6a1146105c257610225565b80638bb2fb75146104c45780638da5cb5b146104e057806390eeb02b146104fe578063955e03771461051c57610225565b80634ecf518b116101b15780636d3cba61116101805780636d3cba61146103f85780636d9833e314610428578063839df9451461045857806385a3863514610488578063893d20e8146104a657610225565b80634ecf518b146103705780635216509a1461038e5780635bb93995146103ac5780635e559ea1146103dc57610225565b80632b7ac3f3116101f85780632b7ac3f3146102b15780632e6997fe146102cf57806332bcce08146102ef5780633477ee2e1461031f578063414a37ba1461035257610225565b8063101158af1461022957806313446a75146102475780631e620cd4146102655780632997e86b14610281575b5f5ffd5b610231610762565b60405161023e91906123f5565b60405180910390f35b61024f610768565b60405161025c91906123f5565b60405180910390f35b61027f600480360381019061027a9190612449565b61076e565b005b61029b600480360381019061029691906124a7565b6108db565b6040516102a891906124ec565b60405180910390f35b6102b96108f8565b6040516102c6919061257f565b60405180910390f35b6102d761091c565b6040516102e69392919061277a565b60405180910390f35b61030960048036038101906103049190612449565b610af9565b60405161031691906123f5565b60405180910390f35b61033960048036038101906103349190612449565b610b0e565b6040516103499493929190612827565b60405180910390f35b61035a610bf3565b60405161036791906123f5565b60405180910390f35b610378610c17565b604051610385919061288f565b60405180910390f35b610396610c2b565b6040516103a391906123f5565b60405180910390f35b6103c660048036038101906103c191906128a8565b610c31565b6040516103d391906128f5565b60405180910390f35b6103f660048036038101906103f19190612a64565b610e85565b005b610412600480360381019061040d9190612449565b61108c565b60405161041f91906124ec565b60405180910390f35b610442600480360381019061043d91906124a7565b6110b2565b60405161044f91906124ec565b60405180910390f35b610472600480360381019061046d91906124a7565b611145565b60405161047f91906124ec565b60405180910390f35b610490611162565b60405161049d91906123f5565b60405180910390f35b6104ae611168565b6040516104bb9190612ade565b60405180910390f35b6104de60048036038101906104d991906128a8565b611190565b005b6104e8611273565b6040516104f59190612ade565b60405180910390f35b610506611298565b604051610513919061288f565b60405180910390f35b61053660048036038101906105319190612449565b6112ad565b60405161054391906123f5565b60405180910390f35b610566600480360381019061056191906128a8565b6112e7565b005b6105706113ca565b60405161057d91906123f5565b60405180910390f35b61058e6113d0565b60405161059b9190612bae565b60405180910390f35b6105ac61145b565b6040516105b991906128f5565b60405180910390f35b6105dc60048036038101906105d791906128a8565b61148a565b005b6105f860048036038101906105f39190612449565b611641565b60405161060591906124ec565b60405180910390f35b61062860048036038101906106239190612449565b61165e565b60405161063591906128f5565b60405180910390f35b610646611673565b604051610653919061288f565b60405180910390f35b61067660048036038101906106719190612d2e565b611678565b005b610692600480360381019061068d9190612449565b6117e7565b60405161069f91906123f5565b60405180910390f35b6106c260048036038101906106bd9190612449565b611807565b6040516106cf91906128f5565b60405180910390f35b6106e0611e85565b6040516106ed91906123f5565b60405180910390f35b6106fe611ea9565b60405161070b9190612dd9565b60405180910390f35b61072e60048036038101906107299190612449565b611ecd565b60405161073b91906128f5565b60405180910390f35b61074c611ee2565b604051610759919061288f565b60405180910390f35b600d5481565b600c5481565b60065f9054906101000a900473ffffffffffffffffffffffffffffffffffffffff1673ffffffffffffffffffffffffffffffffffffffff163373ffffffffffffffffffffffffffffffffffffffff16146107fd576040517f08c379a00000000000000000000000000000000000000000000000000000000081526004016107f490612e62565b60405180910390fd5b6009548110610841576040517f08c379a000000000000000000000000000000000000000000000000000000000815260040161083890612eca565b60405180910390fd5b600a5f8281526020019081526020015f205f5f82015f6101000a81549067ffffffffffffffff0219169055600182015f61087b9190612385565b600282015f6101000a81549067ffffffffffffffff02191690556002820160086101000a81549060ff02191690555050807f5768df5843e58ec5b2fc92eb6ef81241e9ec50a0b93fd074dec58b39efc4172060405160405180910390a250565b6004602052805f5260405f205f915054906101000a900460ff1681565b7f000000000000000000000000000000000000000000000000000000000000000081565b5f6060805f60095467ffffffffffffffff81111561093d5761093c612940565b5b60405190808252806020026020018201604052801561096b5781602001602082028036833780820191505090505b5090505f60095467ffffffffffffffff81111561098b5761098a612940565b5b6040519080825280602002602001820160405280156109be57816020015b60608152602001906001900390816109a95790505b5090505f5f90505b600954811015610ae657600a5f8281526020019081526020015f205f015f9054906101000a900467ffffffffffffffff1667ffffffffffffffff16838281518110610a1457610a13612ee8565b5b602002602001018181525050600a5f8281526020019081526020015f206001018054610a3f90612f42565b80601f0160208091040260200160405190810160405280929190818152602001828054610a6b90612f42565b8015610ab65780601f10610a8d57610100808354040283529160200191610ab6565b820191905f5260205f20905b815481529060010190602001808311610a9957829003601f168201915b5050505050828281518110610ace57610acd612ee8565b5b602002602001018190525080806001019150506109c6565b5060095482829450945094505050909192565b6008602052805f5260405f205f915090505481565b600a602052805f5260405f205f91509050805f015f9054906101000a900467ffffffffffffffff1690806001018054610b4690612f42565b80601f0160208091040260200160405190810160405280929190818152602001828054610b7290612f42565b8015610bbd5780601f10610b9457610100808354040283529160200191610bbd565b820191905f5260205f20905b815481529060010190602001808311610ba057829003601f168201915b505050505090806002015f9054906101000a900467ffffffffffffffff16908060020160089054906101000a900460ff16905084565b7f30644e72e131a029b85045b68181585d2833e84879b9709143e1f593f000000181565b5f5f9054906101000a900463ffffffff1681565b60095481565b5f7f30644e72e131a029b85045b68181585d2833e84879b9709143e1f593f00000018310610c94576040517f08c379a0000000000000000000000000000000000000000000000000000000008152600401610c8b90612fbc565b60405180910390fd5b7f30644e72e131a029b85045b68181585d2833e84879b9709143e1f593f00000018210610cf6576040517f08c379a0000000000000000000000000000000000000000000000000000000008152600401610ced9061304a565b60405180910390fd5b5f8390505f5f90507f000000000000000000000000000000000000000000000000000000000000000073ffffffffffffffffffffffffffffffffffffffff16633f1a118783835f6040518463ffffffff1660e01b8152600401610d5b939291906130a1565b6040805180830381865afa158015610d75573d5f5f3e3d5ffd5b505050506040513d601f19601f82011682018060405250810190610d9991906130ea565b80925081935050507f30644e72e131a029b85045b68181585d2833e84879b9709143e1f593f000000180610dd057610dcf613128565b5b84830891507f000000000000000000000000000000000000000000000000000000000000000073ffffffffffffffffffffffffffffffffffffffff16633f1a118783835f6040518463ffffffff1660e01b8152600401610e32939291906130a1565b6040805180830381865afa158015610e4c573d5f5f3e3d5ffd5b505050506040513d601f19601f82011682018060405250810190610e7091906130ea565b8092508193505050815f1b9250505092915050565b60065f9054906101000a900473ffffffffffffffffffffffffffffffffffffffff1673ffffffffffffffffffffffffffffffffffffffff163373ffffffffffffffffffffffffffffffffffffffff1614610f14576040517f08c379a0000000000000000000000000000000000000000000000000000000008152600401610f0b90612e62565b60405180910390fd5b601481511115610f59576040517f08c379a0000000000000000000000000000000000000000000000000000000008152600401610f50906131c5565b60405180910390fd5b60405180608001604052808367ffffffffffffffff1681526020018281526020015f67ffffffffffffffff16815260200160011515815250600a5f60095481526020019081526020015f205f820151815f015f6101000a81548167ffffffffffffffff021916908367ffffffffffffffff1602179055506020820151816001019081610fe5919061337a565b506040820151816002015f6101000a81548167ffffffffffffffff021916908367ffffffffffffffff16021790555060608201518160020160086101000a81548160ff0219169083151502179055509050506009547fe83b2a43e7e82d975c8a0a6d2f045153c869e111136a34d1889ab7b598e396a3826040516110699190613449565b60405180910390a260095f81548092919061108390613496565b91905055505050565b5f60075f8381526020019081526020015f205f9054906101000a900460ff169050919050565b5f5f5f1b82036110c4575f9050611140565b5f60035f9054906101000a900463ffffffff1690505f8190505b60025f8263ffffffff1681526020019081526020015f2054840361110757600192505050611140565b5f8163ffffffff160361111957601e90505b8080611124906134dd565b9150508163ffffffff168163ffffffff16036110de575f925050505b919050565b6005602052805f5260405f205f915054906101000a900460ff1681565b600e5481565b5f60065f9054906101000a900473ffffffffffffffffffffffffffffffffffffffff16905090565b60065f9054906101000a900473ffffffffffffffffffffffffffffffffffffffff1673ffffffffffffffffffffffffffffffffffffffff163373ffffffffffffffffffffffffffffffffffffffff161461121f576040517f08c379a000000000000000000000000000000000000000000000000000000000815260040161121690612e62565b60405180910390fd5b808210611261576040517f08c379a000000000000000000000000000000000000000000000000000000000815260040161125890613574565b60405180910390fd5b81600b8190555080600c819055505050565b60065f9054906101000a900473ffffffffffffffffffffffffffffffffffffffff1681565b60035f9054906101000a900463ffffffff1681565b5f600a5f8381526020019081526020015f206002015f9054906101000a900467ffffffffffffffff1667ffffffffffffffff169050919050565b60065f9054906101000a900473ffffffffffffffffffffffffffffffffffffffff1673ffffffffffffffffffffffffffffffffffffffff163373ffffffffffffffffffffffffffffffffffffffff1614611376576040517f08c379a000000000000000000000000000000000000000000000000000000000815260040161136d90612e62565b60405180910390fd5b8082106113b8576040517f08c379a00000000000000000000000000000000000000000000000000000000081526004016113af90613574565b60405180910390fd5b81600d8190555080600e819055505050565b600b5481565b6060601080548060200260200160405190810160405280929190818152602001828054801561145157602002820191905f5260205f20905b815f9054906101000a900473ffffffffffffffffffffffffffffffffffffffff1673ffffffffffffffffffffffffffffffffffffffff1681526020019060010190808311611408575b5050505050905090565b5f60025f60035f9054906101000a900463ffffffff1663ffffffff1681526020019081526020015f2054905090565b60065f9054906101000a900473ffffffffffffffffffffffffffffffffffffffff1673ffffffffffffffffffffffffffffffffffffffff163373ffffffffffffffffffffffffffffffffffffffff1614611519576040517f08c379a000000000000000000000000000000000000000000000000000000000815260040161151090612e62565b60405180910390fd5b600b54421015801561152d5750600c544211155b61156c576040517f08c379a000000000000000000000000000000000000000000000000000000000815260040161156390613602565b60405180910390fd5b60075f8381526020019081526020015f205f9054906101000a900460ff16156115ca576040517f08c379a00000000000000000000000000000000000000000000000000000000081526004016115c190613690565b60405180910390fd5b600160075f8481526020019081526020015f205f6101000a81548160ff0219169083151502179055508060085f8481526020019081526020015f2081905550611614815f1b611ef8565b600160075f8481526020019081526020015f205f6101000a81548160ff0219169083151502179055505050565b6007602052805f5260405f205f915054906101000a900460ff1681565b6002602052805f5260405f205f915090505481565b601e81565b600d54421015801561168c5750600e544211155b6116cb576040517f08c379a00000000000000000000000000000000000000000000000000000000081526004016116c2906136f8565b60405180910390fd5b600954861061170f576040517f08c379a000000000000000000000000000000000000000000000000000000000815260040161170690613760565b60405180910390fd5b600a5f8781526020019081526020015f2060020160089054906101000a900460ff16611770576040517f08c379a0000000000000000000000000000000000000000000000000000000008152600401611767906137c8565b60405180910390fd5b611781855f1b855f1b858585611fc9565b600a5f8781526020019081526020015f206002015f81819054906101000a900467ffffffffffffffff16809291906117b8906137e6565b91906101000a81548167ffffffffffffffff021916908367ffffffffffffffff16021790555050505050505050565b600f81815481106117f6575f80fd5b905f5260205f20015f915090505481565b5f5f8203611839577f2fe54c60d3acabf3343a35b6eba15db4821b340f76e741e2249685ed4899af6c5f1b9050611e80565b6001820361186b577f256a6135777eee2fd26f54b8b7037a25439d5235caee224154186d2b8a52e31d5f1b9050611e80565b6002820361189d577f1151949895e82ab19924de92c40a3d6f7bcb60d92b00504b8199613683f0c2005f1b9050611e80565b600382036118cf577f20121ee811489ff8d61f09fb89e313f14959a0f28bb428a20dba6b0b068b3bdb5f1b9050611e80565b60048203611901577f0a89ca6ffa14cc462cfedb842c30ed221a50a3d6bf022a6a57dc82ab24c157c95f1b9050611e80565b60058203611933577f24ca05c2b5cd42e890d6be94c68d0689f4f21c9cec9c0f13fe41d566dfb549595f1b9050611e80565b60068203611965577f1ccb97c932565a92c60156bdba2d08f3bf1377464e025cee765679e604a7315c5f1b9050611e80565b60078203611997577f19156fbd7d1a8bf5cba8909367de1b624534ebab4f0f79e003bccdd1b182bdb45f1b9050611e80565b600882036119c9577f261af8c1f0912e465744641409f622d466c3920ac6e5ff37e36604cb11dfff805f1b9050611e80565b600982036119fa577e58459724ff6ca5a1652fcbc3e82b93895cf08e975b19beab3f54c217d1c0075f1b9050611e80565b600a8203611a2c577f1f04ef20dee48d39984d8eabe768a70eafa6310ad20849d4573c3c40c2ad1e305f1b9050611e80565b600b8203611a5e577f1bea3dec5dab51567ce7e200a30f7ba6d4276aeaa53e2686f962a46c66d511e55f1b9050611e80565b600c8203611a90577f0ee0f941e2da4b9e31c3ca97a40d8fa9ce68d97c084177071b3cb46cd3372f0f5f1b9050611e80565b600d8203611ac2577f1ca9503e8935884501bbaf20be14eb4c46b89772c97b96e3b2ebf3a36a948bbd5f1b9050611e80565b600e8203611af4577f133a80e30697cd55d8f7d4b0965b7be24057ba5dc3da898ee2187232446cb1085f1b9050611e80565b600f8203611b26577f13e6d8fc88839ed76e182c2a779af5b2c0da9dd18c90427a644f7e148a6253b65f1b9050611e80565b60108203611b58577f1eb16b057a477f4bc8f572ea6bee39561098f78f15bfb3699dcbb7bd8db618545f1b9050611e80565b60118203611b8a577f0da2cb16a1ceaabf1c16b838f7a9e3f2a3a3088d9e0a6debaa748114620696ea5f1b9050611e80565b60128203611bbc577f24a3b3d822420b14b5d8cb6c28a574f01e98ea9e940551d2ebd75cee12649f9d5f1b9050611e80565b60138203611bee577f198622acbd783d1b0d9064105b1fc8e4d8889de95c4c519b3f635809fe6afc055f1b9050611e80565b60148203611c20577f29d7ed391256ccc3ea596c86e933b89ff339d25ea8ddced975ae2fe30b5296d45f1b9050611e80565b60158203611c52577f19be59f2f0413ce78c0c3703a3a5451b1d7f39629fa33abd11548a76065b29675f1b9050611e80565b60168203611c84577f1ff3f61797e538b70e619310d33f2a063e7eb59104e112e95738da1254dc34535f1b9050611e80565b60178203611cb6577f10c16ae9959cf8358980d9dd9616e48228737310a10e2b6b731c1a548f036c485f1b9050611e80565b60188203611ce8577f0ba433a63174a90ac20992e75e3095496812b652685b5e1a2eae0b1bf4e8fcd15f1b9050611e80565b60198203611d1a577f019ddb9df2bc98d987d0dfeca9d2b643deafab8f7036562e627c3667266a044c5f1b9050611e80565b601a8203611d4c577f2d3c88b23175c5a5565db928414c66d1912b11acf974b2e644caaac04739ce995f1b9050611e80565b601b8203611d7e577f2eab55f6ae4e66e32c5189eed5c470840863445760f5ed7e7b69b2a62600f3545f1b9050611e80565b601c8203611daf577e2df37a2642621802383cf952bf4dd1f32e05433beeb1fd41031fb7eace979d5f1b9050611e80565b601d8203611de1577f104aeb41435db66c3e62feccc1d6f5d98d0a0ed75d1374db457cf462e3a1f4275f1b9050611e80565b601e8203611e13577f1f3c6fd858e9a7d4b0d1f38e256a09d81d5a5e3c963987e2d4b814cfab7c6ebb5f1b9050611e80565b601f8203611e45577f2c7a07d20dff79d01fecedc1134284a8d08436606c93693b67e333f671bf69cc5f1b9050611e80565b6040517f08c379a0000000000000000000000000000000000000000000000000000000008152600401611e779061385f565b60405180910390fd5b919050565b7f2fe54c60d3acabf3343a35b6eba15db4821b340f76e741e2249685ed4899af6c81565b7f000000000000000000000000000000000000000000000000000000000000000081565b6001602052805f5260405f205f915090505481565b600360049054906101000a900463ffffffff1681565b60055f8281526020019081526020015f205f9054906101000a900460ff1615611f56576040517f08c379a0000000000000000000000000000000000000000000000000000000008152600401611f4d906138ed565b60405180910390fd5b600160055f8381526020019081526020015f205f6101000a81548160ff0219169083151502179055505f611f8982612194565b9050817f401999886e5f90a91b92a0bfb7e2d48f714651a4d1c929bb3a753525ba066b918242604051611fbd92919061390b565b60405180910390a25050565b60045f8681526020019081526020015f205f9054906101000a900460ff1615612027576040517f08c379a000000000000000000000000000000000000000000000000000000000815260040161201e9061397c565b60405180910390fd5b612030846110b2565b61206f576040517f08c379a0000000000000000000000000000000000000000000000000000000008152600401612066906139e4565b60405180910390fd5b7f000000000000000000000000000000000000000000000000000000000000000073ffffffffffffffffffffffffffffffffffffffff1663f5c9d69e84848460405180604001604052808b5f1c81526020018a5f1c8152506040518563ffffffff1660e01b81526004016120e69493929190613b77565b602060405180830381865afa158015612101573d5f5f3e3d5ffd5b505050506040513d601f19601f820116820180604052508101906121259190613be6565b612164576040517f08c379a000000000000000000000000000000000000000000000000000000000815260040161215b90613c5b565b60405180910390fd5b600160045f8781526020019081526020015f205f6101000a81548160ff0219169083151502179055505050505050565b5f5f600360049054906101000a900463ffffffff1690505f5f9054906101000a900463ffffffff1660026121c89190613da8565b63ffffffff168163ffffffff1603612215576040517f08c379a000000000000000000000000000000000000000000000000000000000815260040161220c90613e46565b60405180910390fd5b5f8190505f8490505f5f5f5f90505b5f5f9054906101000a900463ffffffff1663ffffffff168163ffffffff1610156122e0575f6002866122569190613e64565b63ffffffff1603612296578392506122738163ffffffff16611807565b91508360015f8363ffffffff1681526020019081526020015f20819055506122b4565b60015f8263ffffffff1681526020019081526020015f205492508391505b6122c2835f1c835f1c610c31565b93506002856122d19190613e94565b94508080600101915050612224565b505f601e600160035f9054906101000a900463ffffffff166123029190613ec4565b61230c9190613e64565b90508060035f6101000a81548163ffffffff021916908363ffffffff1602179055508360025f8363ffffffff1681526020019081526020015f20819055506001866123579190613ec4565b600360046101000a81548163ffffffff021916908363ffffffff160217905550859650505050505050919050565b50805461239190612f42565b5f825580601f106123a257506123bf565b601f0160209004905f5260205f20908101906123be91906123c2565b5b50565b5b808211156123d9575f815f9055506001016123c3565b5090565b5f819050919050565b6123ef816123dd565b82525050565b5f6020820190506124085f8301846123e6565b92915050565b5f604051905090565b5f5ffd5b5f5ffd5b612428816123dd565b8114612432575f5ffd5b50565b5f813590506124438161241f565b92915050565b5f6020828403121561245e5761245d612417565b5b5f61246b84828501612435565b91505092915050565b5f819050919050565b61248681612474565b8114612490575f5ffd5b50565b5f813590506124a18161247d565b92915050565b5f602082840312156124bc576124bb612417565b5b5f6124c984828501612493565b91505092915050565b5f8115159050919050565b6124e6816124d2565b82525050565b5f6020820190506124ff5f8301846124dd565b92915050565b5f73ffffffffffffffffffffffffffffffffffffffff82169050919050565b5f819050919050565b5f61254761254261253d84612505565b612524565b612505565b9050919050565b5f6125588261252d565b9050919050565b5f6125698261254e565b9050919050565b6125798161255f565b82525050565b5f6020820190506125925f830184612570565b92915050565b5f81519050919050565b5f82825260208201905092915050565b5f819050602082019050919050565b6125ca816123dd565b82525050565b5f6125db83836125c1565b60208301905092915050565b5f602082019050919050565b5f6125fd82612598565b61260781856125a2565b9350612612836125b2565b805f5b8381101561264257815161262988826125d0565b9750612634836125e7565b925050600181019050612615565b5085935050505092915050565b5f81519050919050565b5f82825260208201905092915050565b5f819050602082019050919050565b5f81519050919050565b5f82825260208201905092915050565b8281835e5f83830152505050565b5f601f19601f8301169050919050565b5f6126ba82612678565b6126c48185612682565b93506126d4818560208601612692565b6126dd816126a0565b840191505092915050565b5f6126f383836126b0565b905092915050565b5f602082019050919050565b5f6127118261264f565b61271b8185612659565b93508360208202850161272d85612669565b805f5b85811015612768578484038952815161274985826126e8565b9450612754836126fb565b925060208a01995050600181019050612730565b50829750879550505050505092915050565b5f60608201905061278d5f8301866123e6565b818103602083015261279f81856125f3565b905081810360408301526127b38184612707565b9050949350505050565b5f67ffffffffffffffff82169050919050565b6127d9816127bd565b82525050565b5f82825260208201905092915050565b5f6127f982612678565b61280381856127df565b9350612813818560208601612692565b61281c816126a0565b840191505092915050565b5f60808201905061283a5f8301876127d0565b818103602083015261284c81866127ef565b905061285b60408301856127d0565b61286860608301846124dd565b95945050505050565b5f63ffffffff82169050919050565b61288981612871565b82525050565b5f6020820190506128a25f830184612880565b92915050565b5f5f604083850312156128be576128bd612417565b5b5f6128cb85828601612435565b92505060206128dc85828601612435565b9150509250929050565b6128ef81612474565b82525050565b5f6020820190506129085f8301846128e6565b92915050565b612917816127bd565b8114612921575f5ffd5b50565b5f813590506129328161290e565b92915050565b5f5ffd5b5f5ffd5b7f4e487b71000000000000000000000000000000000000000000000000000000005f52604160045260245ffd5b612976826126a0565b810181811067ffffffffffffffff8211171561299557612994612940565b5b80604052505050565b5f6129a761240e565b90506129b3828261296d565b919050565b5f67ffffffffffffffff8211156129d2576129d1612940565b5b6129db826126a0565b9050602081019050919050565b828183375f83830152505050565b5f612a08612a03846129b8565b61299e565b905082815260208101848484011115612a2457612a2361293c565b5b612a2f8482856129e8565b509392505050565b5f82601f830112612a4b57612a4a612938565b5b8135612a5b8482602086016129f6565b91505092915050565b5f5f60408385031215612a7a57612a79612417565b5b5f612a8785828601612924565b925050602083013567ffffffffffffffff811115612aa857612aa761241b565b5b612ab485828601612a37565b9150509250929050565b5f612ac882612505565b9050919050565b612ad881612abe565b82525050565b5f602082019050612af15f830184612acf565b92915050565b5f81519050919050565b5f82825260208201905092915050565b5f819050602082019050919050565b612b2981612abe565b82525050565b5f612b3a8383612b20565b60208301905092915050565b5f602082019050919050565b5f612b5c82612af7565b612b668185612b01565b9350612b7183612b11565b805f5b83811015612ba1578151612b888882612b2f565b9750612b9383612b46565b925050600181019050612b74565b5085935050505092915050565b5f6020820190508181035f830152612bc68184612b52565b905092915050565b5f67ffffffffffffffff821115612be857612be7612940565b5b602082029050919050565b5f5ffd5b5f612c09612c0484612bce565b61299e565b90508060208402830185811115612c2357612c22612bf3565b5b835b81811015612c4c5780612c388882612435565b845260208401935050602081019050612c25565b5050509392505050565b5f82601f830112612c6a57612c69612938565b5b6002612c77848285612bf7565b91505092915050565b5f67ffffffffffffffff821115612c9a57612c99612940565b5b602082029050919050565b5f612cb7612cb284612c80565b61299e565b90508060408402830185811115612cd157612cd0612bf3565b5b835b81811015612cfa5780612ce68882612c56565b845260208401935050604081019050612cd3565b5050509392505050565b5f82601f830112612d1857612d17612938565b5b6002612d25848285612ca5565b91505092915050565b5f5f5f5f5f5f6101608789031215612d4957612d48612417565b5b5f612d5689828a01612435565b9650506020612d6789828a01612435565b9550506040612d7889828a01612435565b9450506060612d8989828a01612c56565b93505060a0612d9a89828a01612d04565b925050610120612dac89828a01612c56565b9150509295509295509295565b5f612dc38261254e565b9050919050565b612dd381612db9565b82525050565b5f602082019050612dec5f830184612dca565b92915050565b7f4f6e6c79206f776e65722063616e20706572666f726d207468697320616374695f8201527f6f6e210000000000000000000000000000000000000000000000000000000000602082015250565b5f612e4c6023836127df565b9150612e5782612df2565b604082019050919050565b5f6020820190508181035f830152612e7981612e40565b9050919050565b7f496e76616c69642063616e6469646174652049442100000000000000000000005f82015250565b5f612eb46015836127df565b9150612ebf82612e80565b602082019050919050565b5f6020820190508181035f830152612ee181612ea8565b9050919050565b7f4e487b71000000000000000000000000000000000000000000000000000000005f52603260045260245ffd5b7f4e487b71000000000000000000000000000000000000000000000000000000005f52602260045260245ffd5b5f6002820490506001821680612f5957607f821691505b602082108103612f6c57612f6b612f15565b5b50919050565b7f5f6c6566742073686f756c6420626520696e7369646520746865206669656c645f82015250565b5f612fa66020836127df565b9150612fb182612f72565b602082019050919050565b5f6020820190508181035f830152612fd381612f9a565b9050919050565b7f5f72696768742073686f756c6420626520696e7369646520746865206669656c5f8201527f6400000000000000000000000000000000000000000000000000000000000000602082015250565b5f6130346021836127df565b915061303f82612fda565b604082019050919050565b5f6020820190508181035f83015261306181613028565b9050919050565b5f819050919050565b5f61308b61308661308184613068565b612524565b6123dd565b9050919050565b61309b81613071565b82525050565b5f6060820190506130b45f8301866123e6565b6130c160208301856123e6565b6130ce6040830184613092565b949350505050565b5f815190506130e48161241f565b92915050565b5f5f60408385031215613100576130ff612417565b5b5f61310d858286016130d6565b925050602061311e858286016130d6565b9150509250929050565b7f4e487b71000000000000000000000000000000000000000000000000000000005f52601260045260245ffd5b7f4e616d65206d7573742062652032302063686172616374657273206f72206c655f8201527f7373000000000000000000000000000000000000000000000000000000000000602082015250565b5f6131af6022836127df565b91506131ba82613155565b604082019050919050565b5f6020820190508181035f8301526131dc816131a3565b9050919050565b5f819050815f5260205f209050919050565b5f6020601f8301049050919050565b5f82821b905092915050565b5f6008830261323f7fffffffffffffffffffffffffffffffffffffffffffffffffffffffffffffffff82613204565b6132498683613204565b95508019841693508086168417925050509392505050565b5f61327b613276613271846123dd565b612524565b6123dd565b9050919050565b5f819050919050565b61329483613261565b6132a86132a082613282565b848454613210565b825550505050565b5f5f905090565b6132bf6132b0565b6132ca81848461328b565b505050565b5b818110156132ed576132e25f826132b7565b6001810190506132d0565b5050565b601f82111561333257613303816131e3565b61330c846131f5565b8101602085101561331b578190505b61332f613327856131f5565b8301826132cf565b50505b505050565b5f82821c905092915050565b5f6133525f1984600802613337565b1980831691505092915050565b5f61336a8383613343565b9150826002028217905092915050565b61338382612678565b67ffffffffffffffff81111561339c5761339b612940565b5b6133a68254612f42565b6133b18282856132f1565b5f60209050601f8311600181146133e2575f84156133d0578287015190505b6133da858261335f565b865550613441565b601f1984166133f0866131e3565b5f5b82811015613417578489015182556001820191506020850194506020810190506133f2565b868310156134345784890151613430601f891682613343565b8355505b6001600288020188555050505b505050505050565b5f6020820190508181035f83015261346181846127ef565b905092915050565b7f4e487b71000000000000000000000000000000000000000000000000000000005f52601160045260245ffd5b5f6134a0826123dd565b91507fffffffffffffffffffffffffffffffffffffffffffffffffffffffffffffffff82036134d2576134d1613469565b5b600182019050919050565b5f6134e782612871565b91505f82036134f9576134f8613469565b5b600182039050919050565b7f53746172742074696d65206d757374206265206265666f726520656e642074695f8201527f6d65000000000000000000000000000000000000000000000000000000000000602082015250565b5f61355e6022836127df565b915061356982613504565b604082019050919050565b5f6020820190508181035f83015261358b81613552565b9050919050565b7f4e6f742077697468696e2074686520726567697374726174696f6e20706572695f8201527f6f64210000000000000000000000000000000000000000000000000000000000602082015250565b5f6135ec6023836127df565b91506135f782613592565b604082019050919050565b5f6020820190508181035f830152613619816135e0565b9050919050565b7f5468697320756e69717565206861736820697320616c726561647920757365645f8201527f2100000000000000000000000000000000000000000000000000000000000000602082015250565b5f61367a6021836127df565b915061368582613620565b604082019050919050565b5f6020820190508181035f8301526136a78161366e565b9050919050565b7f4e6f742077697468696e2074686520766f74696e6720706572696f64210000005f82015250565b5f6136e2601d836127df565b91506136ed826136ae565b602082019050919050565b5f6020820190508181035f83015261370f816136d6565b9050919050565b7f496e76616c69642063616e6469646174652100000000000000000000000000005f82015250565b5f61374a6012836127df565b915061375582613716565b602082019050919050565b5f6020820190508181035f8301526137778161373e565b9050919050565b7f43616e64696461746520646f6573206e6f7420657869737421000000000000005f82015250565b5f6137b26019836127df565b91506137bd8261377e565b602082019050919050565b5f6020820190508181035f8301526137df816137a6565b9050919050565b5f6137f0826127bd565b915067ffffffffffffffff820361380a57613809613469565b5b600182019050919050565b7f496e646578206f7574206f6620626f756e6473000000000000000000000000005f82015250565b5f6138496013836127df565b915061385482613815565b602082019050919050565b5f6020820190508181035f8301526138768161383d565b9050919050565b7f54686520636f6d6d69746d656e7420686173206265656e207375626d697474655f8201527f6400000000000000000000000000000000000000000000000000000000000000602082015250565b5f6138d76021836127df565b91506138e28261387d565b604082019050919050565b5f6020820190508181035f830152613904816138cb565b9050919050565b5f60408201905061391e5f830185612880565b61392b60208301846123e6565b9392505050565b7f546865206e756c6c696669657220686173206265656e207375626d69747465645f82015250565b5f6139666020836127df565b915061397182613932565b602082019050919050565b5f6020820190508181035f8301526139938161395a565b9050919050565b7f43616e6e6f742066696e6420796f7572206d65726b6c6520726f6f74000000005f82015250565b5f6139ce601c836127df565b91506139d98261399a565b602082019050919050565b5f6020820190508181035f8301526139fb816139c2565b9050919050565b5f60029050919050565b5f81905092915050565b5f819050919050565b5f602082019050919050565b613a3481613a02565b613a3e8184613a0c565b9250613a4982613a16565b805f5b83811015613a79578151613a6087826125d0565b9650613a6b83613a1f565b925050600181019050613a4c565b505050505050565b5f60029050919050565b5f81905092915050565b5f819050919050565b5f81905092915050565b613ab181613a02565b613abb8184613a9e565b9250613ac682613a16565b805f5b83811015613af6578151613add87826125d0565b9650613ae883613a1f565b925050600181019050613ac9565b505050505050565b5f613b098383613aa8565b60408301905092915050565b5f602082019050919050565b613b2a81613a81565b613b348184613a8b565b9250613b3f82613a95565b805f5b83811015613b6f578151613b568782613afe565b9650613b6183613b15565b925050600181019050613b42565b505050505050565b5f61014082019050613b8b5f830187613a2b565b613b986040830186613b21565b613ba560c0830185613a2b565b613bb3610100830184613a2b565b95945050505050565b613bc5816124d2565b8114613bcf575f5ffd5b50565b5f81519050613be081613bbc565b92915050565b5f60208284031215613bfb57613bfa612417565b5b5f613c0884828501613bd2565b91505092915050565b7f496e76616c69642070726f6f66000000000000000000000000000000000000005f82015250565b5f613c45600d836127df565b9150613c5082613c11565b602082019050919050565b5f6020820190508181035f830152613c7281613c39565b9050919050565b5f8160011c9050919050565b5f5f8291508390505b6001851115613cce57808604811115613caa57613ca9613469565b5b6001851615613cb95780820291505b8081029050613cc785613c79565b9450613c8e565b94509492505050565b5f82613ce65760019050613da1565b81613cf3575f9050613da1565b8160018114613d095760028114613d1357613d42565b6001915050613da1565b60ff841115613d2557613d24613469565b5b8360020a915084821115613d3c57613d3b613469565b5b50613da1565b5060208310610133831016604e8410600b8410161715613d775782820a905083811115613d7257613d71613469565b5b613da1565b613d848484846001613c85565b92509050818404811115613d9b57613d9a613469565b5b81810290505b9392505050565b5f613db282612871565b9150613dbd83612871565b9250613dce63ffffffff8484613cd7565b905092915050565b7f4d65726b6c6520747265652069732066756c6c2e204e6f206d6f7265206c65615f8201527f7665732063616e20626520616464656400000000000000000000000000000000602082015250565b5f613e306030836127df565b9150613e3b82613dd6565b604082019050919050565b5f6020820190508181035f830152613e5d81613e24565b9050919050565b5f613e6e82612871565b9150613e7983612871565b925082613e8957613e88613128565b5b828206905092915050565b5f613e9e82612871565b9150613ea983612871565b925082613eb957613eb8613128565b5b828204905092915050565b5f613ece82612871565b9150613ed983612871565b9250828201905063ffffffff811115613ef557613ef4613469565b5b9291505056fea2646970667358221220a28f58aec1d8f67987098341d488299530f72b40d35ec71ed43fd8394d7be2a864736f6c634300081b0033",
			"opcodes": "PUSH1 0xC0 PUSH1 0x40 MSTORE PUSH0 PUSH1 0x3 PUSH0 PUSH2 0x100 EXP DUP2 SLOAD DUP2 PUSH4 0xFFFFFFFF MUL NOT AND SWAP1 DUP4 PUSH4 0xFFFFFFFF AND MUL OR SWAP1 SSTORE POP PUSH0 PUSH1 0x3 PUSH1 0x4 PUSH2 0x100 EXP DUP2 SLOAD DUP2 PUSH4 0xFFFFFFFF MUL NOT AND SWAP1 DUP4 PUSH4 0xFFFFFFFF AND MUL OR SWAP1 SSTORE POP CALLVALUE DUP1 ISZERO PUSH2 0x50 JUMPI PUSH0 PUSH0 REVERT JUMPDEST POP PUSH1 0x40 MLOAD PUSH2 0x4E6B CODESIZE SUB DUP1 PUSH2 0x4E6B DUP4 CODECOPY DUP2 DUP2 ADD PUSH1 0x40 MSTORE DUP2 ADD SWAP1 PUSH2 0x72 SWAP2 SWAP1 PUSH2 0xAEB JUMP JUMPDEST DUP7 DUP7 DUP7 DUP3 DUP3 PUSH0 DUP3 PUSH4 0xFFFFFFFF AND GT PUSH2 0xBF JUMPI PUSH1 0x40 MLOAD PUSH32 0x8C379A000000000000000000000000000000000000000000000000000000000 DUP2 MSTORE PUSH1 0x4 ADD PUSH2 0xB6 SWAP1 PUSH2 0xC08 JUMP JUMPDEST PUSH1 0x40 MLOAD DUP1 SWAP2 SUB SWAP1 REVERT JUMPDEST PUSH1 0x20 DUP3 PUSH4 0xFFFFFFFF AND LT PUSH2 0x108 JUMPI PUSH1 0x40 MLOAD PUSH32 0x8C379A000000000000000000000000000000000000000000000000000000000 DUP2 MSTORE PUSH1 0x4 ADD PUSH2 0xFF SWAP1 PUSH2 0xC70 JUMP JUMPDEST PUSH1 0x40 MLOAD DUP1 SWAP2 SUB SWAP1 REVERT JUMPDEST DUP2 PUSH0 PUSH0 PUSH2 0x100 EXP DUP2 SLOAD DUP2 PUSH4 0xFFFFFFFF MUL NOT AND SWAP1 DUP4 PUSH4 0xFFFFFFFF AND MUL OR SWAP1 SSTORE POP DUP1 PUSH20 0xFFFFFFFFFFFFFFFFFFFFFFFFFFFFFFFFFFFFFFFF AND PUSH1 0x80 DUP2 PUSH20 0xFFFFFFFFFFFFFFFFFFFFFFFFFFFFFFFFFFFFFFFF AND DUP2 MSTORE POP POP PUSH0 PUSH0 SWAP1 POP JUMPDEST DUP3 PUSH4 0xFFFFFFFF AND DUP2 PUSH4 0xFFFFFFFF AND LT ISZERO PUSH2 0x1B1 JUMPI PUSH2 0x189 DUP2 PUSH4 0xFFFFFFFF AND PUSH2 0x357 PUSH1 0x20 SHL PUSH1 0x20 SHR JUMP JUMPDEST PUSH1 0x1 PUSH0 DUP4 PUSH4 0xFFFFFFFF AND DUP2 MSTORE PUSH1 0x20 ADD SWAP1 DUP2 MSTORE PUSH1 0x20 ADD PUSH0 KECCAK256 DUP2 SWAP1 SSTORE POP DUP1 DUP1 PUSH1 0x1 ADD SWAP2 POP POP PUSH2 0x160 JUMP JUMPDEST POP PUSH2 0x1D3 PUSH1 0x1 DUP4 PUSH2 0x1C2 SWAP2 SWAP1 PUSH2 0xCBB JUMP JUMPDEST PUSH4 0xFFFFFFFF AND PUSH2 0x357 PUSH1 0x20 SHL PUSH1 0x20 SHR JUMP JUMPDEST PUSH1 0x2 PUSH0 PUSH0 DUP2 MSTORE PUSH1 0x20 ADD SWAP1 DUP2 MSTORE PUSH1 0x20 ADD PUSH0 KECCAK256 DUP2 SWAP1 SSTORE POP POP POP DUP1 PUSH20 0xFFFFFFFFFFFFFFFFFFFFFFFFFFFFFFFFFFFFFFFF AND PUSH1 0xA0 DUP2 PUSH20 0xFFFFFFFFFFFFFFFFFFFFFFFFFFFFFFFFFFFFFFFF AND DUP2 MSTORE POP POP POP POP POP DUP3 DUP5 LT PUSH2 0x263 JUMPI PUSH1 0x40 MLOAD PUSH32 0x8C379A000000000000000000000000000000000000000000000000000000000 DUP2 MSTORE PUSH1 0x4 ADD PUSH2 0x25A SWAP1 PUSH2 0xD62 JUMP JUMPDEST PUSH1 0x40 MLOAD DUP1 SWAP2 SUB SWAP1 REVERT JUMPDEST DUP1 DUP3 LT PUSH2 0x2A5 JUMPI PUSH1 0x40 MLOAD PUSH32 0x8C379A000000000000000000000000000000000000000000000000000000000 DUP2 MSTORE PUSH1 0x4 ADD PUSH2 0x29C SWAP1 PUSH2 0xDF0 JUMP JUMPDEST PUSH1 0x40 MLOAD DUP1 SWAP2 SUB SWAP1 REVERT JUMPDEST DUP2 DUP4 GT ISZERO PUSH2 0x2E8 JUMPI PUSH1 0x40 MLOAD PUSH32 0x8C379A000000000000000000000000000000000000000000000000000000000 DUP2 MSTORE PUSH1 0x4 ADD PUSH2 0x2DF SWAP1 PUSH2 0xE7E JUMP JUMPDEST PUSH1 0x40 MLOAD DUP1 SWAP2 SUB SWAP1 REVERT JUMPDEST CALLER PUSH1 0x6 PUSH0 PUSH2 0x100 EXP DUP2 SLOAD DUP2 PUSH20 0xFFFFFFFFFFFFFFFFFFFFFFFFFFFFFFFFFFFFFFFF MUL NOT AND SWAP1 DUP4 PUSH20 0xFFFFFFFFFFFFFFFFFFFFFFFFFFFFFFFFFFFFFFFF AND MUL OR SWAP1 SSTORE POP PUSH0 PUSH1 0x9 DUP2 SWAP1 SSTORE POP DUP4 PUSH1 0xB DUP2 SWAP1 SSTORE POP DUP3 PUSH1 0xC DUP2 SWAP1 SSTORE POP DUP2 PUSH1 0xD DUP2 SWAP1 SSTORE POP DUP1 PUSH1 0xE DUP2 SWAP1 SSTORE POP POP POP POP POP POP POP POP PUSH2 0xF04 JUMP JUMPDEST PUSH0 PUSH0 DUP3 SUB PUSH2 0x389 JUMPI PUSH32 0x2FE54C60D3ACABF3343A35B6EBA15DB4821B340F76E741E2249685ED4899AF6C PUSH0 SHL SWAP1 POP PUSH2 0x9D0 JUMP JUMPDEST PUSH1 0x1 DUP3 SUB PUSH2 0x3BB JUMPI PUSH32 0x256A6135777EEE2FD26F54B8B7037A25439D5235CAEE224154186D2B8A52E31D PUSH0 SHL SWAP1 POP PUSH2 0x9D0 JUMP JUMPDEST PUSH1 0x2 DUP3 SUB PUSH2 0x3ED JUMPI PUSH32 0x1151949895E82AB19924DE92C40A3D6F7BCB60D92B00504B8199613683F0C200 PUSH0 SHL SWAP1 POP PUSH2 0x9D0 JUMP JUMPDEST PUSH1 0x3 DUP3 SUB PUSH2 0x41F JUMPI PUSH32 0x20121EE811489FF8D61F09FB89E313F14959A0F28BB428A20DBA6B0B068B3BDB PUSH0 SHL SWAP1 POP PUSH2 0x9D0 JUMP JUMPDEST PUSH1 0x4 DUP3 SUB PUSH2 0x451 JUMPI PUSH32 0xA89CA6FFA14CC462CFEDB842C30ED221A50A3D6BF022A6A57DC82AB24C157C9 PUSH0 SHL SWAP1 POP PUSH2 0x9D0 JUMP JUMPDEST PUSH1 0x5 DUP3 SUB PUSH2 0x483 JUMPI PUSH32 0x24CA05C2B5CD42E890D6BE94C68D0689F4F21C9CEC9C0F13FE41D566DFB54959 PUSH0 SHL SWAP1 POP PUSH2 0x9D0 JUMP JUMPDEST PUSH1 0x6 DUP3 SUB PUSH2 0x4B5 JUMPI PUSH32 0x1CCB97C932565A92C60156BDBA2D08F3BF1377464E025CEE765679E604A7315C PUSH0 SHL SWAP1 POP PUSH2 0x9D0 JUMP JUMPDEST PUSH1 0x7 DUP3 SUB PUSH2 0x4E7 JUMPI PUSH32 0x19156FBD7D1A8BF5CBA8909367DE1B624534EBAB4F0F79E003BCCDD1B182BDB4 PUSH0 SHL SWAP1 POP PUSH2 0x9D0 JUMP JUMPDEST PUSH1 0x8 DUP3 SUB PUSH2 0x519 JUMPI PUSH32 0x261AF8C1F0912E465744641409F622D466C3920AC6E5FF37E36604CB11DFFF80 PUSH0 SHL SWAP1 POP PUSH2 0x9D0 JUMP JUMPDEST PUSH1 0x9 DUP3 SUB PUSH2 0x54A JUMPI PUSH31 0x58459724FF6CA5A1652FCBC3E82B93895CF08E975B19BEAB3F54C217D1C007 PUSH0 SHL SWAP1 POP PUSH2 0x9D0 JUMP JUMPDEST PUSH1 0xA DUP3 SUB PUSH2 0x57C JUMPI PUSH32 0x1F04EF20DEE48D39984D8EABE768A70EAFA6310AD20849D4573C3C40C2AD1E30 PUSH0 SHL SWAP1 POP PUSH2 0x9D0 JUMP JUMPDEST PUSH1 0xB DUP3 SUB PUSH2 0x5AE JUMPI PUSH32 0x1BEA3DEC5DAB51567CE7E200A30F7BA6D4276AEAA53E2686F962A46C66D511E5 PUSH0 SHL SWAP1 POP PUSH2 0x9D0 JUMP JUMPDEST PUSH1 0xC DUP3 SUB PUSH2 0x5E0 JUMPI PUSH32 0xEE0F941E2DA4B9E31C3CA97A40D8FA9CE68D97C084177071B3CB46CD3372F0F PUSH0 SHL SWAP1 POP PUSH2 0x9D0 JUMP JUMPDEST PUSH1 0xD DUP3 SUB PUSH2 0x612 JUMPI PUSH32 0x1CA9503E8935884501BBAF20BE14EB4C46B89772C97B96E3B2EBF3A36A948BBD PUSH0 SHL SWAP1 POP PUSH2 0x9D0 JUMP JUMPDEST PUSH1 0xE DUP3 SUB PUSH2 0x644 JUMPI PUSH32 0x133A80E30697CD55D8F7D4B0965B7BE24057BA5DC3DA898EE2187232446CB108 PUSH0 SHL SWAP1 POP PUSH2 0x9D0 JUMP JUMPDEST PUSH1 0xF DUP3 SUB PUSH2 0x676 JUMPI PUSH32 0x13E6D8FC88839ED76E182C2A779AF5B2C0DA9DD18C90427A644F7E148A6253B6 PUSH0 SHL SWAP1 POP PUSH2 0x9D0 JUMP JUMPDEST PUSH1 0x10 DUP3 SUB PUSH2 0x6A8 JUMPI PUSH32 0x1EB16B057A477F4BC8F572EA6BEE39561098F78F15BFB3699DCBB7BD8DB61854 PUSH0 SHL SWAP1 POP PUSH2 0x9D0 JUMP JUMPDEST PUSH1 0x11 DUP3 SUB PUSH2 0x6DA JUMPI PUSH32 0xDA2CB16A1CEAABF1C16B838F7A9E3F2A3A3088D9E0A6DEBAA748114620696EA PUSH0 SHL SWAP1 POP PUSH2 0x9D0 JUMP JUMPDEST PUSH1 0x12 DUP3 SUB PUSH2 0x70C JUMPI PUSH32 0x24A3B3D822420B14B5D8CB6C28A574F01E98EA9E940551D2EBD75CEE12649F9D PUSH0 SHL SWAP1 POP PUSH2 0x9D0 JUMP JUMPDEST PUSH1 0x13 DUP3 SUB PUSH2 0x73E JUMPI PUSH32 0x198622ACBD783D1B0D9064105B1FC8E4D8889DE95C4C519B3F635809FE6AFC05 PUSH0 SHL SWAP1 POP PUSH2 0x9D0 JUMP JUMPDEST PUSH1 0x14 DUP3 SUB PUSH2 0x770 JUMPI PUSH32 0x29D7ED391256CCC3EA596C86E933B89FF339D25EA8DDCED975AE2FE30B5296D4 PUSH0 SHL SWAP1 POP PUSH2 0x9D0 JUMP JUMPDEST PUSH1 0x15 DUP3 SUB PUSH2 0x7A2 JUMPI PUSH32 0x19BE59F2F0413CE78C0C3703A3A5451B1D7F39629FA33ABD11548A76065B2967 PUSH0 SHL SWAP1 POP PUSH2 0x9D0 JUMP JUMPDEST PUSH1 0x16 DUP3 SUB PUSH2 0x7D4 JUMPI PUSH32 0x1FF3F61797E538B70E619310D33F2A063E7EB59104E112E95738DA1254DC3453 PUSH0 SHL SWAP1 POP PUSH2 0x9D0 JUMP JUMPDEST PUSH1 0x17 DUP3 SUB PUSH2 0x806 JUMPI PUSH32 0x10C16AE9959CF8358980D9DD9616E48228737310A10E2B6B731C1A548F036C48 PUSH0 SHL SWAP1 POP PUSH2 0x9D0 JUMP JUMPDEST PUSH1 0x18 DUP3 SUB PUSH2 0x838 JUMPI PUSH32 0xBA433A63174A90AC20992E75E3095496812B652685B5E1A2EAE0B1BF4E8FCD1 PUSH0 SHL SWAP1 POP PUSH2 0x9D0 JUMP JUMPDEST PUSH1 0x19 DUP3 SUB PUSH2 0x86A JUMPI PUSH32 0x19DDB9DF2BC98D987D0DFECA9D2B643DEAFAB8F7036562E627C3667266A044C PUSH0 SHL SWAP1 POP PUSH2 0x9D0 JUMP JUMPDEST PUSH1 0x1A DUP3 SUB PUSH2 0x89C JUMPI PUSH32 0x2D3C88B23175C5A5565DB928414C66D1912B11ACF974B2E644CAAAC04739CE99 PUSH0 SHL SWAP1 POP PUSH2 0x9D0 JUMP JUMPDEST PUSH1 0x1B DUP3 SUB PUSH2 0x8CE JUMPI PUSH32 0x2EAB55F6AE4E66E32C5189EED5C470840863445760F5ED7E7B69B2A62600F354 PUSH0 SHL SWAP1 POP PUSH2 0x9D0 JUMP JUMPDEST PUSH1 0x1C DUP3 SUB PUSH2 0x8FF JUMPI PUSH31 0x2DF37A2642621802383CF952BF4DD1F32E05433BEEB1FD41031FB7EACE979D PUSH0 SHL SWAP1 POP PUSH2 0x9D0 JUMP JUMPDEST PUSH1 0x1D DUP3 SUB PUSH2 0x931 JUMPI PUSH32 0x104AEB41435DB66C3E62FECCC1D6F5D98D0A0ED75D1374DB457CF462E3A1F427 PUSH0 SHL SWAP1 POP PUSH2 0x9D0 JUMP JUMPDEST PUSH1 0x1E DUP3 SUB PUSH2 0x963 JUMPI PUSH32 0x1F3C6FD858E9A7D4B0D1F38E256A09D81D5A5E3C963987E2D4B814CFAB7C6EBB PUSH0 SHL SWAP1 POP PUSH2 0x9D0 JUMP JUMPDEST PUSH1 0x1F DUP3 SUB PUSH2 0x995 JUMPI PUSH32 0x2C7A07D20DFF79D01FECEDC1134284A8D08436606C93693B67E333F671BF69CC PUSH0 SHL SWAP1 POP PUSH2 0x9D0 JUMP JUMPDEST PUSH1 0x40 MLOAD PUSH32 0x8C379A000000000000000000000000000000000000000000000000000000000 DUP2 MSTORE PUSH1 0x4 ADD PUSH2 0x9C7 SWAP1 PUSH2 0xEE6 JUMP JUMPDEST PUSH1 0x40 MLOAD DUP1 SWAP2 SUB SWAP1 REVERT JUMPDEST SWAP2 SWAP1 POP JUMP JUMPDEST PUSH0 PUSH0 REVERT JUMPDEST PUSH0 PUSH4 0xFFFFFFFF DUP3 AND SWAP1 POP SWAP2 SWAP1 POP JUMP JUMPDEST PUSH2 0x9F1 DUP2 PUSH2 0x9D9 JUMP JUMPDEST DUP2 EQ PUSH2 0x9FB JUMPI PUSH0 PUSH0 REVERT JUMPDEST POP JUMP JUMPDEST PUSH0 DUP2 MLOAD SWAP1 POP PUSH2 0xA0C DUP2 PUSH2 0x9E8 JUMP JUMPDEST SWAP3 SWAP2 POP POP JUMP JUMPDEST PUSH0 PUSH20 0xFFFFFFFFFFFFFFFFFFFFFFFFFFFFFFFFFFFFFFFF DUP3 AND SWAP1 POP SWAP2 SWAP1 POP JUMP JUMPDEST PUSH0 PUSH2 0xA3B DUP3 PUSH2 0xA12 JUMP JUMPDEST SWAP1 POP SWAP2 SWAP1 POP JUMP JUMPDEST PUSH0 PUSH2 0xA4C DUP3 PUSH2 0xA31 JUMP JUMPDEST SWAP1 POP SWAP2 SWAP1 POP JUMP JUMPDEST PUSH2 0xA5C DUP2 PUSH2 0xA42 JUMP JUMPDEST DUP2 EQ PUSH2 0xA66 JUMPI PUSH0 PUSH0 REVERT JUMPDEST POP JUMP JUMPDEST PUSH0 DUP2 MLOAD SWAP1 POP PUSH2 0xA77 DUP2 PUSH2 0xA53 JUMP JUMPDEST SWAP3 SWAP2 POP POP JUMP JUMPDEST PUSH0 PUSH2 0xA87 DUP3 PUSH2 0xA31 JUMP JUMPDEST SWAP1 POP SWAP2 SWAP1 POP JUMP JUMPDEST PUSH2 0xA97 DUP2 PUSH2 0xA7D JUMP JUMPDEST DUP2 EQ PUSH2 0xAA1 JUMPI PUSH0 PUSH0 REVERT JUMPDEST POP JUMP JUMPDEST PUSH0 DUP2 MLOAD SWAP1 POP PUSH2 0xAB2 DUP2 PUSH2 0xA8E JUMP JUMPDEST SWAP3 SWAP2 POP POP JUMP JUMPDEST PUSH0 DUP2 SWAP1 POP SWAP2 SWAP1 POP JUMP JUMPDEST PUSH2 0xACA DUP2 PUSH2 0xAB8 JUMP JUMPDEST DUP2 EQ PUSH2 0xAD4 JUMPI PUSH0 PUSH0 REVERT JUMPDEST POP JUMP JUMPDEST PUSH0 DUP2 MLOAD SWAP1 POP PUSH2 0xAE5 DUP2 PUSH2 0xAC1 JUMP JUMPDEST SWAP3 SWAP2 POP POP JUMP JUMPDEST PUSH0 PUSH0 PUSH0 PUSH0 PUSH0 PUSH0 PUSH0 PUSH1 0xE0 DUP9 DUP11 SUB SLT ISZERO PUSH2 0xB06 JUMPI PUSH2 0xB05 PUSH2 0x9D5 JUMP JUMPDEST JUMPDEST PUSH0 PUSH2 0xB13 DUP11 DUP3 DUP12 ADD PUSH2 0x9FE JUMP JUMPDEST SWAP8 POP POP PUSH1 0x20 PUSH2 0xB24 DUP11 DUP3 DUP12 ADD PUSH2 0xA69 JUMP JUMPDEST SWAP7 POP POP PUSH1 0x40 PUSH2 0xB35 DUP11 DUP3 DUP12 ADD PUSH2 0xAA4 JUMP JUMPDEST SWAP6 POP POP PUSH1 0x60 PUSH2 0xB46 DUP11 DUP3 DUP12 ADD PUSH2 0xAD7 JUMP JUMPDEST SWAP5 POP POP PUSH1 0x80 PUSH2 0xB57 DUP11 DUP3 DUP12 ADD PUSH2 0xAD7 JUMP JUMPDEST SWAP4 POP POP PUSH1 0xA0 PUSH2 0xB68 DUP11 DUP3 DUP12 ADD PUSH2 0xAD7 JUMP JUMPDEST SWAP3 POP POP PUSH1 0xC0 PUSH2 0xB79 DUP11 DUP3 DUP12 ADD PUSH2 0xAD7 JUMP JUMPDEST SWAP2 POP POP SWAP3 SWAP6 SWAP9 SWAP2 SWAP5 SWAP8 POP SWAP3 SWAP6 POP JUMP JUMPDEST PUSH0 DUP3 DUP3 MSTORE PUSH1 0x20 DUP3 ADD SWAP1 POP SWAP3 SWAP2 POP POP JUMP JUMPDEST PUSH32 0x5F6C6576656C732073686F756C642062652067726561746572207468616E207A PUSH0 DUP3 ADD MSTORE PUSH32 0x65726F0000000000000000000000000000000000000000000000000000000000 PUSH1 0x20 DUP3 ADD MSTORE POP JUMP JUMPDEST PUSH0 PUSH2 0xBF2 PUSH1 0x23 DUP4 PUSH2 0xB88 JUMP JUMPDEST SWAP2 POP PUSH2 0xBFD DUP3 PUSH2 0xB98 JUMP JUMPDEST PUSH1 0x40 DUP3 ADD SWAP1 POP SWAP2 SWAP1 POP JUMP JUMPDEST PUSH0 PUSH1 0x20 DUP3 ADD SWAP1 POP DUP2 DUP2 SUB PUSH0 DUP4 ADD MSTORE PUSH2 0xC1F DUP2 PUSH2 0xBE6 JUMP JUMPDEST SWAP1 POP SWAP2 SWAP1 POP JUMP JUMPDEST PUSH32 0x5F6C6576656C732073686F756C64206265206C657373207468616E2033320000 PUSH0 DUP3 ADD MSTORE POP JUMP JUMPDEST PUSH0 PUSH2 0xC5A PUSH1 0x1E DUP4 PUSH2 0xB88 JUMP JUMPDEST SWAP2 POP PUSH2 0xC65 DUP3 PUSH2 0xC26 JUMP JUMPDEST PUSH1 0x20 DUP3 ADD SWAP1 POP SWAP2 SWAP1 POP JUMP JUMPDEST PUSH0 PUSH1 0x20 DUP3 ADD SWAP1 POP DUP2 DUP2 SUB PUSH0 DUP4 ADD MSTORE PUSH2 0xC87 DUP2 PUSH2 0xC4E JUMP JUMPDEST SWAP1 POP SWAP2 SWAP1 POP JUMP JUMPDEST PUSH32 0x4E487B7100000000000000000000000000000000000000000000000000000000 PUSH0 MSTORE PUSH1 0x11 PUSH1 0x4 MSTORE PUSH1 0x24 PUSH0 REVERT JUMPDEST PUSH0 PUSH2 0xCC5 DUP3 PUSH2 0x9D9 JUMP JUMPDEST SWAP2 POP PUSH2 0xCD0 DUP4 PUSH2 0x9D9 JUMP JUMPDEST SWAP3 POP DUP3 DUP3 SUB SWAP1 POP PUSH4 0xFFFFFFFF DUP2 GT ISZERO PUSH2 0xCEC JUMPI PUSH2 0xCEB PUSH2 0xC8E JUMP JUMPDEST JUMPDEST SWAP3 SWAP2 POP POP JUMP JUMPDEST PUSH32 0x526567697374726174696F6E207374617274206D757374206265206265666F72 PUSH0 DUP3 ADD MSTORE PUSH32 0x6520656E642074696D6500000000000000000000000000000000000000000000 PUSH1 0x20 DUP3 ADD MSTORE POP JUMP JUMPDEST PUSH0 PUSH2 0xD4C PUSH1 0x2A DUP4 PUSH2 0xB88 JUMP JUMPDEST SWAP2 POP PUSH2 0xD57 DUP3 PUSH2 0xCF2 JUMP JUMPDEST PUSH1 0x40 DUP3 ADD SWAP1 POP SWAP2 SWAP1 POP JUMP JUMPDEST PUSH0 PUSH1 0x20 DUP3 ADD SWAP1 POP DUP2 DUP2 SUB PUSH0 DUP4 ADD MSTORE PUSH2 0xD79 DUP2 PUSH2 0xD40 JUMP JUMPDEST SWAP1 POP SWAP2 SWAP1 POP JUMP JUMPDEST PUSH32 0x566F74696E67207374617274206D757374206265206265666F726520656E6420 PUSH0 DUP3 ADD MSTORE PUSH32 0x74696D6500000000000000000000000000000000000000000000000000000000 PUSH1 0x20 DUP3 ADD MSTORE POP JUMP JUMPDEST PUSH0 PUSH2 0xDDA PUSH1 0x24 DUP4 PUSH2 0xB88 JUMP JUMPDEST SWAP2 POP PUSH2 0xDE5 DUP3 PUSH2 0xD80 JUMP JUMPDEST PUSH1 0x40 DUP3 ADD SWAP1 POP SWAP2 SWAP1 POP JUMP JUMPDEST PUSH0 PUSH1 0x20 DUP3 ADD SWAP1 POP DUP2 DUP2 SUB PUSH0 DUP4 ADD MSTORE PUSH2 0xE07 DUP2 PUSH2 0xDCE JUMP JUMPDEST SWAP1 POP SWAP2 SWAP1 POP JUMP JUMPDEST PUSH32 0x526567697374726174696F6E206D75737420656E64206265666F726520766F74 PUSH0 DUP3 ADD MSTORE PUSH32 0x696E672073746172747300000000000000000000000000000000000000000000 PUSH1 0x20 DUP3 ADD MSTORE POP JUMP JUMPDEST PUSH0 PUSH2 0xE68 PUSH1 0x2A DUP4 PUSH2 0xB88 JUMP JUMPDEST SWAP2 POP PUSH2 0xE73 DUP3 PUSH2 0xE0E JUMP JUMPDEST PUSH1 0x40 DUP3 ADD SWAP1 POP SWAP2 SWAP1 POP JUMP JUMPDEST PUSH0 PUSH1 0x20 DUP3 ADD SWAP1 POP DUP2 DUP2 SUB PUSH0 DUP4 ADD MSTORE PUSH2 0xE95 DUP2 PUSH2 0xE5C JUMP JUMPDEST SWAP1 POP SWAP2 SWAP1 POP JUMP JUMPDEST PUSH32 0x496E646578206F7574206F6620626F756E647300000000000000000000000000 PUSH0 DUP3 ADD MSTORE POP JUMP JUMPDEST PUSH0 PUSH2 0xED0 PUSH1 0x13 DUP4 PUSH2 0xB88 JUMP JUMPDEST SWAP2 POP PUSH2 0xEDB DUP3 PUSH2 0xE9C JUMP JUMPDEST PUSH1 0x20 DUP3 ADD SWAP1 POP SWAP2 SWAP1 POP JUMP JUMPDEST PUSH0 PUSH1 0x20 DUP3 ADD SWAP1 POP DUP2 DUP2 SUB PUSH0 DUP4 ADD MSTORE PUSH2 0xEFD DUP2 PUSH2 0xEC4 JUMP JUMPDEST SWAP1 POP SWAP2 SWAP1 POP JUMP JUMPDEST PUSH1 0x80 MLOAD PUSH1 0xA0 MLOAD PUSH2 0x3F31 PUSH2 0xF3A PUSH0 CODECOPY PUSH0 DUP2 DUP2 PUSH2 0x8FA ADD MSTORE PUSH2 0x2071 ADD MSTORE PUSH0 DUP2 DUP2 PUSH2 0xD00 ADD MSTORE DUP2 DUP2 PUSH2 0xDD7 ADD MSTORE PUSH2 0x1EAB ADD MSTORE PUSH2 0x3F31 PUSH0 RETURN INVALID PUSH1 0x80 PUSH1 0x40 MSTORE CALLVALUE DUP1 ISZERO PUSH2 0xF JUMPI PUSH0 PUSH0 REVERT JUMPDEST POP PUSH1 0x4 CALLDATASIZE LT PUSH2 0x225 JUMPI PUSH0 CALLDATALOAD PUSH1 0xE0 SHR DUP1 PUSH4 0x8BB2FB75 GT PUSH2 0x12E JUMPI DUP1 PUSH4 0xC1B1F732 GT PUSH2 0xB6 JUMPI DUP1 PUSH4 0xE8295588 GT PUSH2 0x7A JUMPI DUP1 PUSH4 0xE8295588 EQ PUSH2 0x6A8 JUMPI DUP1 PUSH4 0xEC732959 EQ PUSH2 0x6D8 JUMPI DUP1 PUSH4 0xED33639F EQ PUSH2 0x6F6 JUMPI DUP1 PUSH4 0xF178E47C EQ PUSH2 0x714 JUMPI DUP1 PUSH4 0xFC7E9C6F EQ PUSH2 0x744 JUMPI PUSH2 0x225 JUMP JUMPDEST DUP1 PUSH4 0xC1B1F732 EQ PUSH2 0x5DE JUMPI DUP1 PUSH4 0xC2B40AE4 EQ PUSH2 0x60E JUMPI DUP1 PUSH4 0xCD87A3B4 EQ PUSH2 0x63E JUMPI DUP1 PUSH4 0xCE8F6377 EQ PUSH2 0x65C JUMPI DUP1 PUSH4 0xD290A3CF EQ PUSH2 0x678 JUMPI PUSH2 0x225 JUMP JUMPDEST DUP1 PUSH4 0xA15A36C7 GT PUSH2 0xFD JUMPI DUP1 PUSH4 0xA15A36C7 EQ PUSH2 0x54C JUMPI DUP1 PUSH4 0xB4062A31 EQ PUSH2 0x568 JUMPI DUP1 PUSH4 0xB7AB4DB5 EQ PUSH2 0x586 JUMPI DUP1 PUSH4 0xBA70F757 EQ PUSH2 0x5A4 JUMPI DUP1 PUSH4 0xBE00D6A1 EQ PUSH2 0x5C2 JUMPI PUSH2 0x225 JUMP JUMPDEST DUP1 PUSH4 0x8BB2FB75 EQ PUSH2 0x4C4 JUMPI DUP1 PUSH4 0x8DA5CB5B EQ PUSH2 0x4E0 JUMPI DUP1 PUSH4 0x90EEB02B EQ PUSH2 0x4FE JUMPI DUP1 PUSH4 0x955E0377 EQ PUSH2 0x51C JUMPI PUSH2 0x225 JUMP JUMPDEST DUP1 PUSH4 0x4ECF518B GT PUSH2 0x1B1 JUMPI DUP1 PUSH4 0x6D3CBA61 GT PUSH2 0x180 JUMPI DUP1 PUSH4 0x6D3CBA61 EQ PUSH2 0x3F8 JUMPI DUP1 PUSH4 0x6D9833E3 EQ PUSH2 0x428 JUMPI DUP1 PUSH4 0x839DF945 EQ PUSH2 0x458 JUMPI DUP1 PUSH4 0x85A38635 EQ PUSH2 0x488 JUMPI DUP1 PUSH4 0x893D20E8 EQ PUSH2 0x4A6 JUMPI PUSH2 0x225 JUMP JUMPDEST DUP1 PUSH4 0x4ECF518B EQ PUSH2 0x370 JUMPI DUP1 PUSH4 0x5216509A EQ PUSH2 0x38E JUMPI DUP1 PUSH4 0x5BB93995 EQ PUSH2 0x3AC JUMPI DUP1 PUSH4 0x5E559EA1 EQ PUSH2 0x3DC JUMPI PUSH2 0x225 JUMP JUMPDEST DUP1 PUSH4 0x2B7AC3F3 GT PUSH2 0x1F8 JUMPI DUP1 PUSH4 0x2B7AC3F3 EQ PUSH2 0x2B1 JUMPI DUP1 PUSH4 0x2E6997FE EQ PUSH2 0x2CF JUMPI DUP1 PUSH4 0x32BCCE08 EQ PUSH2 0x2EF JUMPI DUP1 PUSH4 0x3477EE2E EQ PUSH2 0x31F JUMPI DUP1 PUSH4 0x414A37BA EQ PUSH2 0x352 JUMPI PUSH2 0x225 JUMP JUMPDEST DUP1 PUSH4 0x101158AF EQ PUSH2 0x229 JUMPI DUP1 PUSH4 0x13446A75 EQ PUSH2 0x247 JUMPI DUP1 PUSH4 0x1E620CD4 EQ PUSH2 0x265 JUMPI DUP1 PUSH4 0x2997E86B EQ PUSH2 0x281 JUMPI JUMPDEST PUSH0 PUSH0 REVERT JUMPDEST PUSH2 0x231 PUSH2 0x762 JUMP JUMPDEST PUSH1 0x40 MLOAD PUSH2 0x23E SWAP2 SWAP1 PUSH2 0x23F5 JUMP JUMPDEST PUSH1 0x40 MLOAD DUP1 SWAP2 SUB SWAP1 RETURN JUMPDEST PUSH2 0x24F PUSH2 0x768 JUMP JUMPDEST PUSH1 0x40 MLOAD PUSH2 0x25C SWAP2 SWAP1 PUSH2 0x23F5 JUMP JUMPDEST PUSH1 0x40 MLOAD DUP1 SWAP2 SUB SWAP1 RETURN JUMPDEST PUSH2 0x27F PUSH1 0x4 DUP1 CALLDATASIZE SUB DUP2 ADD SWAP1 PUSH2 0x27A SWAP2 SWAP1 PUSH2 0x2449 JUMP JUMPDEST PUSH2 0x76E JUMP JUMPDEST STOP JUMPDEST PUSH2 0x29B PUSH1 0x4 DUP1 CALLDATASIZE SUB DUP2 ADD SWAP1 PUSH2 0x296 SWAP2 SWAP1 PUSH2 0x24A7 JUMP JUMPDEST PUSH2 0x8DB JUMP JUMPDEST PUSH1 0x40 MLOAD PUSH2 0x2A8 SWAP2 SWAP1 PUSH2 0x24EC JUMP JUMPDEST PUSH1 0x40 MLOAD DUP1 SWAP2 SUB SWAP1 RETURN JUMPDEST PUSH2 0x2B9 PUSH2 0x8F8 JUMP JUMPDEST PUSH1 0x40 MLOAD PUSH2 0x2C6 SWAP2 SWAP1 PUSH2 0x257F JUMP JUMPDEST PUSH1 0x40 MLOAD DUP1 SWAP2 SUB SWAP1 RETURN JUMPDEST PUSH2 0x2D7 PUSH2 0x91C JUMP JUMPDEST PUSH1 0x40 MLOAD PUSH2 0x2E6 SWAP4 SWAP3 SWAP2 SWAP1 PUSH2 0x277A JUMP JUMPDEST PUSH1 0x40 MLOAD DUP1 SWAP2 SUB SWAP1 RETURN JUMPDEST PUSH2 0x309 PUSH1 0x4 DUP1 CALLDATASIZE SUB DUP2 ADD SWAP1 PUSH2 0x304 SWAP2 SWAP1 PUSH2 0x2449 JUMP JUMPDEST PUSH2 0xAF9 JUMP JUMPDEST PUSH1 0x40 MLOAD PUSH2 0x316 SWAP2 SWAP1 PUSH2 0x23F5 JUMP JUMPDEST PUSH1 0x40 MLOAD DUP1 SWAP2 SUB SWAP1 RETURN JUMPDEST PUSH2 0x339 PUSH1 0x4 DUP1 CALLDATASIZE SUB DUP2 ADD SWAP1 PUSH2 0x334 SWAP2 SWAP1 PUSH2 0x2449 JUMP JUMPDEST PUSH2 0xB0E JUMP JUMPDEST PUSH1 0x40 MLOAD PUSH2 0x349 SWAP5 SWAP4 SWAP3 SWAP2 SWAP1 PUSH2 0x2827 JUMP JUMPDEST PUSH1 0x40 MLOAD DUP1 SWAP2 SUB SWAP1 RETURN JUMPDEST PUSH2 0x35A PUSH2 0xBF3 JUMP JUMPDEST PUSH1 0x40 MLOAD PUSH2 0x367 SWAP2 SWAP1 PUSH2 0x23F5 JUMP JUMPDEST PUSH1 0x40 MLOAD DUP1 SWAP2 SUB SWAP1 RETURN JUMPDEST PUSH2 0x378 PUSH2 0xC17 JUMP JUMPDEST PUSH1 0x40 MLOAD PUSH2 0x385 SWAP2 SWAP1 PUSH2 0x288F JUMP JUMPDEST PUSH1 0x40 MLOAD DUP1 SWAP2 SUB SWAP1 RETURN JUMPDEST PUSH2 0x396 PUSH2 0xC2B JUMP JUMPDEST PUSH1 0x40 MLOAD PUSH2 0x3A3 SWAP2 SWAP1 PUSH2 0x23F5 JUMP JUMPDEST PUSH1 0x40 MLOAD DUP1 SWAP2 SUB SWAP1 RETURN JUMPDEST PUSH2 0x3C6 PUSH1 0x4 DUP1 CALLDATASIZE SUB DUP2 ADD SWAP1 PUSH2 0x3C1 SWAP2 SWAP1 PUSH2 0x28A8 JUMP JUMPDEST PUSH2 0xC31 JUMP JUMPDEST PUSH1 0x40 MLOAD PUSH2 0x3D3 SWAP2 SWAP1 PUSH2 0x28F5 JUMP JUMPDEST PUSH1 0x40 MLOAD DUP1 SWAP2 SUB SWAP1 RETURN JUMPDEST PUSH2 0x3F6 PUSH1 0x4 DUP1 CALLDATASIZE SUB DUP2 ADD SWAP1 PUSH2 0x3F1 SWAP2 SWAP1 PUSH2 0x2A64 JUMP JUMPDEST PUSH2 0xE85 JUMP JUMPDEST STOP JUMPDEST PUSH2 0x412 PUSH1 0x4 DUP1 CALLDATASIZE SUB DUP2 ADD SWAP1 PUSH2 0x40D SWAP2 SWAP1 PUSH2 0x2449 JUMP JUMPDEST PUSH2 0x108C JUMP JUMPDEST PUSH1 0x40 MLOAD PUSH2 0x41F SWAP2 SWAP1 PUSH2 0x24EC JUMP JUMPDEST PUSH1 0x40 MLOAD DUP1 SWAP2 SUB SWAP1 RETURN JUMPDEST PUSH2 0x442 PUSH1 0x4 DUP1 CALLDATASIZE SUB DUP2 ADD SWAP1 PUSH2 0x43D SWAP2 SWAP1 PUSH2 0x24A7 JUMP JUMPDEST PUSH2 0x10B2 JUMP JUMPDEST PUSH1 0x40 MLOAD PUSH2 0x44F SWAP2 SWAP1 PUSH2 0x24EC JUMP JUMPDEST PUSH1 0x40 MLOAD DUP1 SWAP2 SUB SWAP1 RETURN JUMPDEST PUSH2 0x472 PUSH1 0x4 DUP1 CALLDATASIZE SUB DUP2 ADD SWAP1 PUSH2 0x46D SWAP2 SWAP1 PUSH2 0x24A7 JUMP JUMPDEST PUSH2 0x1145 JUMP JUMPDEST PUSH1 0x40 MLOAD PUSH2 0x47F SWAP2 SWAP1 PUSH2 0x24EC JUMP JUMPDEST PUSH1 0x40 MLOAD DUP1 SWAP2 SUB SWAP1 RETURN JUMPDEST PUSH2 0x490 PUSH2 0x1162 JUMP JUMPDEST PUSH1 0x40 MLOAD PUSH2 0x49D SWAP2 SWAP1 PUSH2 0x23F5 JUMP JUMPDEST PUSH1 0x40 MLOAD DUP1 SWAP2 SUB SWAP1 RETURN JUMPDEST PUSH2 0x4AE PUSH2 0x1168 JUMP JUMPDEST PUSH1 0x40 MLOAD PUSH2 0x4BB SWAP2 SWAP1 PUSH2 0x2ADE JUMP JUMPDEST PUSH1 0x40 MLOAD DUP1 SWAP2 SUB SWAP1 RETURN JUMPDEST PUSH2 0x4DE PUSH1 0x4 DUP1 CALLDATASIZE SUB DUP2 ADD SWAP1 PUSH2 0x4D9 SWAP2 SWAP1 PUSH2 0x28A8 JUMP JUMPDEST PUSH2 0x1190 JUMP JUMPDEST STOP JUMPDEST PUSH2 0x4E8 PUSH2 0x1273 JUMP JUMPDEST PUSH1 0x40 MLOAD PUSH2 0x4F5 SWAP2 SWAP1 PUSH2 0x2ADE JUMP JUMPDEST PUSH1 0x40 MLOAD DUP1 SWAP2 SUB SWAP1 RETURN JUMPDEST PUSH2 0x506 PUSH2 0x1298 JUMP JUMPDEST PUSH1 0x40 MLOAD PUSH2 0x513 SWAP2 SWAP1 PUSH2 0x288F JUMP JUMPDEST PUSH1 0x40 MLOAD DUP1 SWAP2 SUB SWAP1 RETURN JUMPDEST PUSH2 0x536 PUSH1 0x4 DUP1 CALLDATASIZE SUB DUP2 ADD SWAP1 PUSH2 0x531 SWAP2 SWAP1 PUSH2 0x2449 JUMP JUMPDEST PUSH2 0x12AD JUMP JUMPDEST PUSH1 0x40 MLOAD PUSH2 0x543 SWAP2 SWAP1 PUSH2 0x23F5 JUMP JUMPDEST PUSH1 0x40 MLOAD DUP1 SWAP2 SUB SWAP1 RETURN JUMPDEST PUSH2 0x566 PUSH1 0x4 DUP1 CALLDATASIZE SUB DUP2 ADD SWAP1 PUSH2 0x561 SWAP2 SWAP1 PUSH2 0x28A8 JUMP JUMPDEST PUSH2 0x12E7 JUMP JUMPDEST STOP JUMPDEST PUSH2 0x570 PUSH2 0x13CA JUMP JUMPDEST PUSH1 0x40 MLOAD PUSH2 0x57D SWAP2 SWAP1 PUSH2 0x23F5 JUMP JUMPDEST PUSH1 0x40 MLOAD DUP1 SWAP2 SUB SWAP1 RETURN JUMPDEST PUSH2 0x58E PUSH2 0x13D0 JUMP JUMPDEST PUSH1 0x40 MLOAD PUSH2 0x59B SWAP2 SWAP1 PUSH2 0x2BAE JUMP JUMPDEST PUSH1 0x40 MLOAD DUP1 SWAP2 SUB SWAP1 RETURN JUMPDEST PUSH2 0x5AC PUSH2 0x145B JUMP JUMPDEST PUSH1 0x40 MLOAD PUSH2 0x5B9 SWAP2 SWAP1 PUSH2 0x28F5 JUMP JUMPDEST PUSH1 0x40 MLOAD DUP1 SWAP2 SUB SWAP1 RETURN JUMPDEST PUSH2 0x5DC PUSH1 0x4 DUP1 CALLDATASIZE SUB DUP2 ADD SWAP1 PUSH2 0x5D7 SWAP2 SWAP1 PUSH2 0x28A8 JUMP JUMPDEST PUSH2 0x148A JUMP JUMPDEST STOP JUMPDEST PUSH2 0x5F8 PUSH1 0x4 DUP1 CALLDATASIZE SUB DUP2 ADD SWAP1 PUSH2 0x5F3 SWAP2 SWAP1 PUSH2 0x2449 JUMP JUMPDEST PUSH2 0x1641 JUMP JUMPDEST PUSH1 0x40 MLOAD PUSH2 0x605 SWAP2 SWAP1 PUSH2 0x24EC JUMP JUMPDEST PUSH1 0x40 MLOAD DUP1 SWAP2 SUB SWAP1 RETURN JUMPDEST PUSH2 0x628 PUSH1 0x4 DUP1 CALLDATASIZE SUB DUP2 ADD SWAP1 PUSH2 0x623 SWAP2 SWAP1 PUSH2 0x2449 JUMP JUMPDEST PUSH2 0x165E JUMP JUMPDEST PUSH1 0x40 MLOAD PUSH2 0x635 SWAP2 SWAP1 PUSH2 0x28F5 JUMP JUMPDEST PUSH1 0x40 MLOAD DUP1 SWAP2 SUB SWAP1 RETURN JUMPDEST PUSH2 0x646 PUSH2 0x1673 JUMP JUMPDEST PUSH1 0x40 MLOAD PUSH2 0x653 SWAP2 SWAP1 PUSH2 0x288F JUMP JUMPDEST PUSH1 0x40 MLOAD DUP1 SWAP2 SUB SWAP1 RETURN JUMPDEST PUSH2 0x676 PUSH1 0x4 DUP1 CALLDATASIZE SUB DUP2 ADD SWAP1 PUSH2 0x671 SWAP2 SWAP1 PUSH2 0x2D2E JUMP JUMPDEST PUSH2 0x1678 JUMP JUMPDEST STOP JUMPDEST PUSH2 0x692 PUSH1 0x4 DUP1 CALLDATASIZE SUB DUP2 ADD SWAP1 PUSH2 0x68D SWAP2 SWAP1 PUSH2 0x2449 JUMP JUMPDEST PUSH2 0x17E7 JUMP JUMPDEST PUSH1 0x40 MLOAD PUSH2 0x69F SWAP2 SWAP1 PUSH2 0x23F5 JUMP JUMPDEST PUSH1 0x40 MLOAD DUP1 SWAP2 SUB SWAP1 RETURN JUMPDEST PUSH2 0x6C2 PUSH1 0x4 DUP1 CALLDATASIZE SUB DUP2 ADD SWAP1 PUSH2 0x6BD SWAP2 SWAP1 PUSH2 0x2449 JUMP JUMPDEST PUSH2 0x1807 JUMP JUMPDEST PUSH1 0x40 MLOAD PUSH2 0x6CF SWAP2 SWAP1 PUSH2 0x28F5 JUMP JUMPDEST PUSH1 0x40 MLOAD DUP1 SWAP2 SUB SWAP1 RETURN JUMPDEST PUSH2 0x6E0 PUSH2 0x1E85 JUMP JUMPDEST PUSH1 0x40 MLOAD PUSH2 0x6ED SWAP2 SWAP1 PUSH2 0x23F5 JUMP JUMPDEST PUSH1 0x40 MLOAD DUP1 SWAP2 SUB SWAP1 RETURN JUMPDEST PUSH2 0x6FE PUSH2 0x1EA9 JUMP JUMPDEST PUSH1 0x40 MLOAD PUSH2 0x70B SWAP2 SWAP1 PUSH2 0x2DD9 JUMP JUMPDEST PUSH1 0x40 MLOAD DUP1 SWAP2 SUB SWAP1 RETURN JUMPDEST PUSH2 0x72E PUSH1 0x4 DUP1 CALLDATASIZE SUB DUP2 ADD SWAP1 PUSH2 0x729 SWAP2 SWAP1 PUSH2 0x2449 JUMP JUMPDEST PUSH2 0x1ECD JUMP JUMPDEST PUSH1 0x40 MLOAD PUSH2 0x73B SWAP2 SWAP1 PUSH2 0x28F5 JUMP JUMPDEST PUSH1 0x40 MLOAD DUP1 SWAP2 SUB SWAP1 RETURN JUMPDEST PUSH2 0x74C PUSH2 0x1EE2 JUMP JUMPDEST PUSH1 0x40 MLOAD PUSH2 0x759 SWAP2 SWAP1 PUSH2 0x288F JUMP JUMPDEST PUSH1 0x40 MLOAD DUP1 SWAP2 SUB SWAP1 RETURN JUMPDEST PUSH1 0xD SLOAD DUP2 JUMP JUMPDEST PUSH1 0xC SLOAD DUP2 JUMP JUMPDEST PUSH1 0x6 PUSH0 SWAP1 SLOAD SWAP1 PUSH2 0x100 EXP SWAP1 DIV PUSH20 0xFFFFFFFFFFFFFFFFFFFFFFFFFFFFFFFFFFFFFFFF AND PUSH20 0xFFFFFFFFFFFFFFFFFFFFFFFFFFFFFFFFFFFFFFFF AND CALLER PUSH20 0xFFFFFFFFFFFFFFFFFFFFFFFFFFFFFFFFFFFFFFFF AND EQ PUSH2 0x7FD JUMPI PUSH1 0x40 MLOAD PUSH32 0x8C379A000000000000000000000000000000000000000000000000000000000 DUP2 MSTORE PUSH1 0x4 ADD PUSH2 0x7F4 SWAP1 PUSH2 0x2E62 JUMP JUMPDEST PUSH1 0x40 MLOAD DUP1 SWAP2 SUB SWAP1 REVERT JUMPDEST PUSH1 0x9 SLOAD DUP2 LT PUSH2 0x841 JUMPI PUSH1 0x40 MLOAD PUSH32 0x8C379A000000000000000000000000000000000000000000000000000000000 DUP2 MSTORE PUSH1 0x4 ADD PUSH2 0x838 SWAP1 PUSH2 0x2ECA JUMP JUMPDEST PUSH1 0x40 MLOAD DUP1 SWAP2 SUB SWAP1 REVERT JUMPDEST PUSH1 0xA PUSH0 DUP3 DUP2 MSTORE PUSH1 0x20 ADD SWAP1 DUP2 MSTORE PUSH1 0x20 ADD PUSH0 KECCAK256 PUSH0 PUSH0 DUP3 ADD PUSH0 PUSH2 0x100 EXP DUP2 SLOAD SWAP1 PUSH8 0xFFFFFFFFFFFFFFFF MUL NOT AND SWAP1 SSTORE PUSH1 0x1 DUP3 ADD PUSH0 PUSH2 0x87B SWAP2 SWAP1 PUSH2 0x2385 JUMP JUMPDEST PUSH1 0x2 DUP3 ADD PUSH0 PUSH2 0x100 EXP DUP2 SLOAD SWAP1 PUSH8 0xFFFFFFFFFFFFFFFF MUL NOT AND SWAP1 SSTORE PUSH1 0x2 DUP3 ADD PUSH1 0x8 PUSH2 0x100 EXP DUP2 SLOAD SWAP1 PUSH1 0xFF MUL NOT AND SWAP1 SSTORE POP POP DUP1 PUSH32 0x5768DF5843E58EC5B2FC92EB6EF81241E9EC50A0B93FD074DEC58B39EFC41720 PUSH1 0x40 MLOAD PUSH1 0x40 MLOAD DUP1 SWAP2 SUB SWAP1 LOG2 POP JUMP JUMPDEST PUSH1 0x4 PUSH1 0x20 MSTORE DUP1 PUSH0 MSTORE PUSH1 0x40 PUSH0 KECCAK256 PUSH0 SWAP2 POP SLOAD SWAP1 PUSH2 0x100 EXP SWAP1 DIV PUSH1 0xFF AND DUP2 JUMP JUMPDEST PUSH32 0x0 DUP2 JUMP JUMPDEST PUSH0 PUSH1 0x60 DUP1 PUSH0 PUSH1 0x9 SLOAD PUSH8 0xFFFFFFFFFFFFFFFF DUP2 GT ISZERO PUSH2 0x93D JUMPI PUSH2 0x93C PUSH2 0x2940 JUMP JUMPDEST JUMPDEST PUSH1 0x40 MLOAD SWAP1 DUP1 DUP3 MSTORE DUP1 PUSH1 0x20 MUL PUSH1 0x20 ADD DUP3 ADD PUSH1 0x40 MSTORE DUP1 ISZERO PUSH2 0x96B JUMPI DUP2 PUSH1 0x20 ADD PUSH1 0x20 DUP3 MUL DUP1 CALLDATASIZE DUP4 CALLDATACOPY DUP1 DUP3 ADD SWAP2 POP POP SWAP1 POP JUMPDEST POP SWAP1 POP PUSH0 PUSH1 0x9 SLOAD PUSH8 0xFFFFFFFFFFFFFFFF DUP2 GT ISZERO PUSH2 0x98B JUMPI PUSH2 0x98A PUSH2 0x2940 JUMP JUMPDEST JUMPDEST PUSH1 0x40 MLOAD SWAP1 DUP1 DUP3 MSTORE DUP1 PUSH1 0x20 MUL PUSH1 0x20 ADD DUP3 ADD PUSH1 0x40 MSTORE DUP1 ISZERO PUSH2 0x9BE JUMPI DUP2 PUSH1 0x20 ADD JUMPDEST PUSH1 0x60 DUP2 MSTORE PUSH1 0x20 ADD SWAP1 PUSH1 0x1 SWAP1 SUB SWAP1 DUP2 PUSH2 0x9A9 JUMPI SWAP1 POP JUMPDEST POP SWAP1 POP PUSH0 PUSH0 SWAP1 POP JUMPDEST PUSH1 0x9 SLOAD DUP2 LT ISZERO PUSH2 0xAE6 JUMPI PUSH1 0xA PUSH0 DUP3 DUP2 MSTORE PUSH1 0x20 ADD SWAP1 DUP2 MSTORE PUSH1 0x20 ADD PUSH0 KECCAK256 PUSH0 ADD PUSH0 SWAP1 SLOAD SWAP1 PUSH2 0x100 EXP SWAP1 DIV PUSH8 0xFFFFFFFFFFFFFFFF AND PUSH8 0xFFFFFFFFFFFFFFFF AND DUP4 DUP3 DUP2 MLOAD DUP2 LT PUSH2 0xA14 JUMPI PUSH2 0xA13 PUSH2 0x2EE8 JUMP JUMPDEST JUMPDEST PUSH1 0x20 MUL PUSH1 0x20 ADD ADD DUP2 DUP2 MSTORE POP POP PUSH1 0xA PUSH0 DUP3 DUP2 MSTORE PUSH1 0x20 ADD SWAP1 DUP2 MSTORE PUSH1 0x20 ADD PUSH0 KECCAK256 PUSH1 0x1 ADD DUP1 SLOAD PUSH2 0xA3F SWAP1 PUSH2 0x2F42 JUMP JUMPDEST DUP1 PUSH1 0x1F ADD PUSH1 0x20 DUP1 SWAP2 DIV MUL PUSH1 0x20 ADD PUSH1 0x40 MLOAD SWAP1 DUP2 ADD PUSH1 0x40 MSTORE DUP1 SWAP3 SWAP2 SWAP1 DUP2 DUP2 MSTORE PUSH1 0x20 ADD DUP3 DUP1 SLOAD PUSH2 0xA6B SWAP1 PUSH2 0x2F42 JUMP JUMPDEST DUP1 ISZERO PUSH2 0xAB6 JUMPI DUP1 PUSH1 0x1F LT PUSH2 0xA8D JUMPI PUSH2 0x100 DUP1 DUP4 SLOAD DIV MUL DUP4 MSTORE SWAP2 PUSH1 0x20 ADD SWAP2 PUSH2 0xAB6 JUMP JUMPDEST DUP3 ADD SWAP2 SWAP1 PUSH0 MSTORE PUSH1 0x20 PUSH0 KECCAK256 SWAP1 JUMPDEST DUP2 SLOAD DUP2 MSTORE SWAP1 PUSH1 0x1 ADD SWAP1 PUSH1 0x20 ADD DUP1 DUP4 GT PUSH2 0xA99 JUMPI DUP3 SWAP1 SUB PUSH1 0x1F AND DUP3 ADD SWAP2 JUMPDEST POP POP POP POP POP DUP3 DUP3 DUP2 MLOAD DUP2 LT PUSH2 0xACE JUMPI PUSH2 0xACD PUSH2 0x2EE8 JUMP JUMPDEST JUMPDEST PUSH1 0x20 MUL PUSH1 0x20 ADD ADD DUP2 SWAP1 MSTORE POP DUP1 DUP1 PUSH1 0x1 ADD SWAP2 POP POP PUSH2 0x9C6 JUMP JUMPDEST POP PUSH1 0x9 SLOAD DUP3 DUP3 SWAP5 POP SWAP5 POP SWAP5 POP POP POP SWAP1 SWAP2 SWAP3 JUMP JUMPDEST PUSH1 0x8 PUSH1 0x20 MSTORE DUP1 PUSH0 MSTORE PUSH1 0x40 PUSH0 KECCAK256 PUSH0 SWAP2 POP SWAP1 POP SLOAD DUP2 JUMP JUMPDEST PUSH1 0xA PUSH1 0x20 MSTORE DUP1 PUSH0 MSTORE PUSH1 0x40 PUSH0 KECCAK256 PUSH0 SWAP2 POP SWAP1 POP DUP1 PUSH0 ADD PUSH0 SWAP1 SLOAD SWAP1 PUSH2 0x100 EXP SWAP1 DIV PUSH8 0xFFFFFFFFFFFFFFFF AND SWAP1 DUP1 PUSH1 0x1 ADD DUP1 SLOAD PUSH2 0xB46 SWAP1 PUSH2 0x2F42 JUMP JUMPDEST DUP1 PUSH1 0x1F ADD PUSH1 0x20 DUP1 SWAP2 DIV MUL PUSH1 0x20 ADD PUSH1 0x40 MLOAD SWAP1 DUP2 ADD PUSH1 0x40 MSTORE DUP1 SWAP3 SWAP2 SWAP1 DUP2 DUP2 MSTORE PUSH1 0x20 ADD DUP3 DUP1 SLOAD PUSH2 0xB72 SWAP1 PUSH2 0x2F42 JUMP JUMPDEST DUP1 ISZERO PUSH2 0xBBD JUMPI DUP1 PUSH1 0x1F LT PUSH2 0xB94 JUMPI PUSH2 0x100 DUP1 DUP4 SLOAD DIV MUL DUP4 MSTORE SWAP2 PUSH1 0x20 ADD SWAP2 PUSH2 0xBBD JUMP JUMPDEST DUP3 ADD SWAP2 SWAP1 PUSH0 MSTORE PUSH1 0x20 PUSH0 KECCAK256 SWAP1 JUMPDEST DUP2 SLOAD DUP2 MSTORE SWAP1 PUSH1 0x1 ADD SWAP1 PUSH1 0x20 ADD DUP1 DUP4 GT PUSH2 0xBA0 JUMPI DUP3 SWAP1 SUB PUSH1 0x1F AND DUP3 ADD SWAP2 JUMPDEST POP POP POP POP POP SWAP1 DUP1 PUSH1 0x2 ADD PUSH0 SWAP1 SLOAD SWAP1 PUSH2 0x100 EXP SWAP1 DIV PUSH8 0xFFFFFFFFFFFFFFFF AND SWAP1 DUP1 PUSH1 0x2 ADD PUSH1 0x8 SWAP1 SLOAD SWAP1 PUSH2 0x100 EXP SWAP1 DIV PUSH1 0xFF AND SWAP1 POP DUP5 JUMP JUMPDEST PUSH32 0x30644E72E131A029B85045B68181585D2833E84879B9709143E1F593F0000001 DUP2 JUMP JUMPDEST PUSH0 PUSH0 SWAP1 SLOAD SWAP1 PUSH2 0x100 EXP SWAP1 DIV PUSH4 0xFFFFFFFF AND DUP2 JUMP JUMPDEST PUSH1 0x9 SLOAD DUP2 JUMP JUMPDEST PUSH0 PUSH32 0x30644E72E131A029B85045B68181585D2833E84879B9709143E1F593F0000001 DUP4 LT PUSH2 0xC94 JUMPI PUSH1 0x40 MLOAD PUSH32 0x8C379A000000000000000000000000000000000000000000000000000000000 DUP2 MSTORE PUSH1 0x4 ADD PUSH2 0xC8B SWAP1 PUSH2 0x2FBC JUMP JUMPDEST PUSH1 0x40 MLOAD DUP1 SWAP2 SUB SWAP1 REVERT JUMPDEST PUSH32 0x30644E72E131A029B85045B68181585D2833E84879B9709143E1F593F0000001 DUP3 LT PUSH2 0xCF6 JUMPI PUSH1 0x40 MLOAD PUSH32 0x8C379A000000000000000000000000000000000000000000000000000000000 DUP2 MSTORE PUSH1 0x4 ADD PUSH2 0xCED SWAP1 PUSH2 0x304A JUMP JUMPDEST PUSH1 0x40 MLOAD DUP1 SWAP2 SUB SWAP1 REVERT JUMPDEST PUSH0 DUP4 SWAP1 POP PUSH0 PUSH0 SWAP1 POP PUSH32 0x0 PUSH20 0xFFFFFFFFFFFFFFFFFFFFFFFFFFFFFFFFFFFFFFFF AND PUSH4 0x3F1A1187 DUP4 DUP4 PUSH0 PUSH1 0x40 MLOAD DUP5 PUSH4 0xFFFFFFFF AND PUSH1 0xE0 SHL DUP2 MSTORE PUSH1 0x4 ADD PUSH2 0xD5B SWAP4 SWAP3 SWAP2 SWAP1 PUSH2 0x30A1 JUMP JUMPDEST PUSH1 0x40 DUP1 MLOAD DUP1 DUP4 SUB DUP2 DUP7 GAS STATICCALL ISZERO DUP1 ISZERO PUSH2 0xD75 JUMPI RETURNDATASIZE PUSH0 PUSH0 RETURNDATACOPY RETURNDATASIZE PUSH0 REVERT JUMPDEST POP POP POP POP PUSH1 0x40 MLOAD RETURNDATASIZE PUSH1 0x1F NOT PUSH1 0x1F DUP3 ADD AND DUP3 ADD DUP1 PUSH1 0x40 MSTORE POP DUP2 ADD SWAP1 PUSH2 0xD99 SWAP2 SWAP1 PUSH2 0x30EA JUMP JUMPDEST DUP1 SWAP3 POP DUP2 SWAP4 POP POP POP PUSH32 0x30644E72E131A029B85045B68181585D2833E84879B9709143E1F593F0000001 DUP1 PUSH2 0xDD0 JUMPI PUSH2 0xDCF PUSH2 0x3128 JUMP JUMPDEST JUMPDEST DUP5 DUP4 ADDMOD SWAP2 POP PUSH32 0x0 PUSH20 0xFFFFFFFFFFFFFFFFFFFFFFFFFFFFFFFFFFFFFFFF AND PUSH4 0x3F1A1187 DUP4 DUP4 PUSH0 PUSH1 0x40 MLOAD DUP5 PUSH4 0xFFFFFFFF AND PUSH1 0xE0 SHL DUP2 MSTORE PUSH1 0x4 ADD PUSH2 0xE32 SWAP4 SWAP3 SWAP2 SWAP1 PUSH2 0x30A1 JUMP JUMPDEST PUSH1 0x40 DUP1 MLOAD DUP1 DUP4 SUB DUP2 DUP7 GAS STATICCALL ISZERO DUP1 ISZERO PUSH2 0xE4C JUMPI RETURNDATASIZE PUSH0 PUSH0 RETURNDATACOPY RETURNDATASIZE PUSH0 REVERT JUMPDEST POP POP POP POP PUSH1 0x40 MLOAD RETURNDATASIZE PUSH1 0x1F NOT PUSH1 0x1F DUP3 ADD AND DUP3 ADD DUP1 PUSH1 0x40 MSTORE POP DUP2 ADD SWAP1 PUSH2 0xE70 SWAP2 SWAP1 PUSH2 0x30EA JUMP JUMPDEST DUP1 SWAP3 POP DUP2 SWAP4 POP POP POP DUP2 PUSH0 SHL SWAP3 POP POP POP SWAP3 SWAP2 POP POP JUMP JUMPDEST PUSH1 0x6 PUSH0 SWAP1 SLOAD SWAP1 PUSH2 0x100 EXP SWAP1 DIV PUSH20 0xFFFFFFFFFFFFFFFFFFFFFFFFFFFFFFFFFFFFFFFF AND PUSH20 0xFFFFFFFFFFFFFFFFFFFFFFFFFFFFFFFFFFFFFFFF AND CALLER PUSH20 0xFFFFFFFFFFFFFFFFFFFFFFFFFFFFFFFFFFFFFFFF AND EQ PUSH2 0xF14 JUMPI PUSH1 0x40 MLOAD PUSH32 0x8C379A000000000000000000000000000000000000000000000000000000000 DUP2 MSTORE PUSH1 0x4 ADD PUSH2 0xF0B SWAP1 PUSH2 0x2E62 JUMP JUMPDEST PUSH1 0x40 MLOAD DUP1 SWAP2 SUB SWAP1 REVERT JUMPDEST PUSH1 0x14 DUP2 MLOAD GT ISZERO PUSH2 0xF59 JUMPI PUSH1 0x40 MLOAD PUSH32 0x8C379A000000000000000000000000000000000000000000000000000000000 DUP2 MSTORE PUSH1 0x4 ADD PUSH2 0xF50 SWAP1 PUSH2 0x31C5 JUMP JUMPDEST PUSH1 0x40 MLOAD DUP1 SWAP2 SUB SWAP1 REVERT JUMPDEST PUSH1 0x40 MLOAD DUP1 PUSH1 0x80 ADD PUSH1 0x40 MSTORE DUP1 DUP4 PUSH8 0xFFFFFFFFFFFFFFFF AND DUP2 MSTORE PUSH1 0x20 ADD DUP3 DUP2 MSTORE PUSH1 0x20 ADD PUSH0 PUSH8 0xFFFFFFFFFFFFFFFF AND DUP2 MSTORE PUSH1 0x20 ADD PUSH1 0x1 ISZERO ISZERO DUP2 MSTORE POP PUSH1 0xA PUSH0 PUSH1 0x9 SLOAD DUP2 MSTORE PUSH1 0x20 ADD SWAP1 DUP2 MSTORE PUSH1 0x20 ADD PUSH0 KECCAK256 PUSH0 DUP3 ADD MLOAD DUP2 PUSH0 ADD PUSH0 PUSH2 0x100 EXP DUP2 SLOAD DUP2 PUSH8 0xFFFFFFFFFFFFFFFF MUL NOT AND SWAP1 DUP4 PUSH8 0xFFFFFFFFFFFFFFFF AND MUL OR SWAP1 SSTORE POP PUSH1 0x20 DUP3 ADD MLOAD DUP2 PUSH1 0x1 ADD SWAP1 DUP2 PUSH2 0xFE5 SWAP2 SWAP1 PUSH2 0x337A JUMP JUMPDEST POP PUSH1 0x40 DUP3 ADD MLOAD DUP2 PUSH1 0x2 ADD PUSH0 PUSH2 0x100 EXP DUP2 SLOAD DUP2 PUSH8 0xFFFFFFFFFFFFFFFF MUL NOT AND SWAP1 DUP4 PUSH8 0xFFFFFFFFFFFFFFFF AND MUL OR SWAP1 SSTORE POP PUSH1 0x60 DUP3 ADD MLOAD DUP2 PUSH1 0x2 ADD PUSH1 0x8 PUSH2 0x100 EXP DUP2 SLOAD DUP2 PUSH1 0xFF MUL NOT AND SWAP1 DUP4 ISZERO ISZERO MUL OR SWAP1 SSTORE POP SWAP1 POP POP PUSH1 0x9 SLOAD PUSH32 0xE83B2A43E7E82D975C8A0A6D2F045153C869E111136A34D1889AB7B598E396A3 DUP3 PUSH1 0x40 MLOAD PUSH2 0x1069 SWAP2 SWAP1 PUSH2 0x3449 JUMP JUMPDEST PUSH1 0x40 MLOAD DUP1 SWAP2 SUB SWAP1 LOG2 PUSH1 0x9 PUSH0 DUP2 SLOAD DUP1 SWAP3 SWAP2 SWAP1 PUSH2 0x1083 SWAP1 PUSH2 0x3496 JUMP JUMPDEST SWAP2 SWAP1 POP SSTORE POP POP POP JUMP JUMPDEST PUSH0 PUSH1 0x7 PUSH0 DUP4 DUP2 MSTORE PUSH1 0x20 ADD SWAP1 DUP2 MSTORE PUSH1 0x20 ADD PUSH0 KECCAK256 PUSH0 SWAP1 SLOAD SWAP1 PUSH2 0x100 EXP SWAP1 DIV PUSH1 0xFF AND SWAP1 POP SWAP2 SWAP1 POP JUMP JUMPDEST PUSH0 PUSH0 PUSH0 SHL DUP3 SUB PUSH2 0x10C4 JUMPI PUSH0 SWAP1 POP PUSH2 0x1140 JUMP JUMPDEST PUSH0 PUSH1 0x3 PUSH0 SWAP1 SLOAD SWAP1 PUSH2 0x100 EXP SWAP1 DIV PUSH4 0xFFFFFFFF AND SWAP1 POP PUSH0 DUP2 SWAP1 POP JUMPDEST PUSH1 0x2 PUSH0 DUP3 PUSH4 0xFFFFFFFF AND DUP2 MSTORE PUSH1 0x20 ADD SWAP1 DUP2 MSTORE PUSH1 0x20 ADD PUSH0 KECCAK256 SLOAD DUP5 SUB PUSH2 0x1107 JUMPI PUSH1 0x1 SWAP3 POP POP POP PUSH2 0x1140 JUMP JUMPDEST PUSH0 DUP2 PUSH4 0xFFFFFFFF AND SUB PUSH2 0x1119 JUMPI PUSH1 0x1E SWAP1 POP JUMPDEST DUP1 DUP1 PUSH2 0x1124 SWAP1 PUSH2 0x34DD JUMP JUMPDEST SWAP2 POP POP DUP2 PUSH4 0xFFFFFFFF AND DUP2 PUSH4 0xFFFFFFFF AND SUB PUSH2 0x10DE JUMPI PUSH0 SWAP3 POP POP POP JUMPDEST SWAP2 SWAP1 POP JUMP JUMPDEST PUSH1 0x5 PUSH1 0x20 MSTORE DUP1 PUSH0 MSTORE PUSH1 0x40 PUSH0 KECCAK256 PUSH0 SWAP2 POP SLOAD SWAP1 PUSH2 0x100 EXP SWAP1 DIV PUSH1 0xFF AND DUP2 JUMP JUMPDEST PUSH1 0xE SLOAD DUP2 JUMP JUMPDEST PUSH0 PUSH1 0x6 PUSH0 SWAP1 SLOAD SWAP1 PUSH2 0x100 EXP SWAP1 DIV PUSH20 0xFFFFFFFFFFFFFFFFFFFFFFFFFFFFFFFFFFFFFFFF AND SWAP1 POP SWAP1 JUMP JUMPDEST PUSH1 0x6 PUSH0 SWAP1 SLOAD SWAP1 PUSH2 0x100 EXP SWAP1 DIV PUSH20 0xFFFFFFFFFFFFFFFFFFFFFFFFFFFFFFFFFFFFFFFF AND PUSH20 0xFFFFFFFFFFFFFFFFFFFFFFFFFFFFFFFFFFFFFFFF AND CALLER PUSH20 0xFFFFFFFFFFFFFFFFFFFFFFFFFFFFFFFFFFFFFFFF AND EQ PUSH2 0x121F JUMPI PUSH1 0x40 MLOAD PUSH32 0x8C379A000000000000000000000000000000000000000000000000000000000 DUP2 MSTORE PUSH1 0x4 ADD PUSH2 0x1216 SWAP1 PUSH2 0x2E62 JUMP JUMPDEST PUSH1 0x40 MLOAD DUP1 SWAP2 SUB SWAP1 REVERT JUMPDEST DUP1 DUP3 LT PUSH2 0x1261 JUMPI PUSH1 0x40 MLOAD PUSH32 0x8C379A000000000000000000000000000000000000000000000000000000000 DUP2 MSTORE PUSH1 0x4 ADD PUSH2 0x1258 SWAP1 PUSH2 0x3574 JUMP JUMPDEST PUSH1 0x40 MLOAD DUP1 SWAP2 SUB SWAP1 REVERT JUMPDEST DUP2 PUSH1 0xB DUP2 SWAP1 SSTORE POP DUP1 PUSH1 0xC DUP2 SWAP1 SSTORE POP POP POP JUMP JUMPDEST PUSH1 0x6 PUSH0 SWAP1 SLOAD SWAP1 PUSH2 0x100 EXP SWAP1 DIV PUSH20 0xFFFFFFFFFFFFFFFFFFFFFFFFFFFFFFFFFFFFFFFF AND DUP2 JUMP JUMPDEST PUSH1 0x3 PUSH0 SWAP1 SLOAD SWAP1 PUSH2 0x100 EXP SWAP1 DIV PUSH4 0xFFFFFFFF AND DUP2 JUMP JUMPDEST PUSH0 PUSH1 0xA PUSH0 DUP4 DUP2 MSTORE PUSH1 0x20 ADD SWAP1 DUP2 MSTORE PUSH1 0x20 ADD PUSH0 KECCAK256 PUSH1 0x2 ADD PUSH0 SWAP1 SLOAD SWAP1 PUSH2 0x100 EXP SWAP1 DIV PUSH8 0xFFFFFFFFFFFFFFFF AND PUSH8 0xFFFFFFFFFFFFFFFF AND SWAP1 POP SWAP2 SWAP1 POP JUMP JUMPDEST PUSH1 0x6 PUSH0 SWAP1 SLOAD SWAP1 PUSH2 0x100 EXP SWAP1 DIV PUSH20 0xFFFFFFFFFFFFFFFFFFFFFFFFFFFFFFFFFFFFFFFF AND PUSH20 0xFFFFFFFFFFFFFFFFFFFFFFFFFFFFFFFFFFFFFFFF AND CALLER PUSH20 0xFFFFFFFFFFFFFFFFFFFFFFFFFFFFFFFFFFFFFFFF AND EQ PUSH2 0x1376 JUMPI PUSH1 0x40 MLOAD PUSH32 0x8C379A000000000000000000000000000000000000000000000000000000000 DUP2 MSTORE PUSH1 0x4 ADD PUSH2 0x136D SWAP1 PUSH2 0x2E62 JUMP JUMPDEST PUSH1 0x40 MLOAD DUP1 SWAP2 SUB SWAP1 REVERT JUMPDEST DUP1 DUP3 LT PUSH2 0x13B8 JUMPI PUSH1 0x40 MLOAD PUSH32 0x8C379A000000000000000000000000000000000000000000000000000000000 DUP2 MSTORE PUSH1 0x4 ADD PUSH2 0x13AF SWAP1 PUSH2 0x3574 JUMP JUMPDEST PUSH1 0x40 MLOAD DUP1 SWAP2 SUB SWAP1 REVERT JUMPDEST DUP2 PUSH1 0xD DUP2 SWAP1 SSTORE POP DUP1 PUSH1 0xE DUP2 SWAP1 SSTORE POP POP POP JUMP JUMPDEST PUSH1 0xB SLOAD DUP2 JUMP JUMPDEST PUSH1 0x60 PUSH1 0x10 DUP1 SLOAD DUP1 PUSH1 0x20 MUL PUSH1 0x20 ADD PUSH1 0x40 MLOAD SWAP1 DUP2 ADD PUSH1 0x40 MSTORE DUP1 SWAP3 SWAP2 SWAP1 DUP2 DUP2 MSTORE PUSH1 0x20 ADD DUP3 DUP1 SLOAD DUP1 ISZERO PUSH2 0x1451 JUMPI PUSH1 0x20 MUL DUP3 ADD SWAP2 SWAP1 PUSH0 MSTORE PUSH1 0x20 PUSH0 KECCAK256 SWAP1 JUMPDEST DUP2 PUSH0 SWAP1 SLOAD SWAP1 PUSH2 0x100 EXP SWAP1 DIV PUSH20 0xFFFFFFFFFFFFFFFFFFFFFFFFFFFFFFFFFFFFFFFF AND PUSH20 0xFFFFFFFFFFFFFFFFFFFFFFFFFFFFFFFFFFFFFFFF AND DUP2 MSTORE PUSH1 0x20 ADD SWAP1 PUSH1 0x1 ADD SWAP1 DUP1 DUP4 GT PUSH2 0x1408 JUMPI JUMPDEST POP POP POP POP POP SWAP1 POP SWAP1 JUMP JUMPDEST PUSH0 PUSH1 0x2 PUSH0 PUSH1 0x3 PUSH0 SWAP1 SLOAD SWAP1 PUSH2 0x100 EXP SWAP1 DIV PUSH4 0xFFFFFFFF AND PUSH4 0xFFFFFFFF AND DUP2 MSTORE PUSH1 0x20 ADD SWAP1 DUP2 MSTORE PUSH1 0x20 ADD PUSH0 KECCAK256 SLOAD SWAP1 POP SWAP1 JUMP JUMPDEST PUSH1 0x6 PUSH0 SWAP1 SLOAD SWAP1 PUSH2 0x100 EXP SWAP1 DIV PUSH20 0xFFFFFFFFFFFFFFFFFFFFFFFFFFFFFFFFFFFFFFFF AND PUSH20 0xFFFFFFFFFFFFFFFFFFFFFFFFFFFFFFFFFFFFFFFF AND CALLER PUSH20 0xFFFFFFFFFFFFFFFFFFFFFFFFFFFFFFFFFFFFFFFF AND EQ PUSH2 0x1519 JUMPI PUSH1 0x40 MLOAD PUSH32 0x8C379A000000000000000000000000000000000000000000000000000000000 DUP2 MSTORE PUSH1 0x4 ADD PUSH2 0x1510 SWAP1 PUSH2 0x2E62 JUMP JUMPDEST PUSH1 0x40 MLOAD DUP1 SWAP2 SUB SWAP1 REVERT JUMPDEST PUSH1 0xB SLOAD TIMESTAMP LT ISZERO DUP1 ISZERO PUSH2 0x152D JUMPI POP PUSH1 0xC SLOAD TIMESTAMP GT ISZERO JUMPDEST PUSH2 0x156C JUMPI PUSH1 0x40 MLOAD PUSH32 0x8C379A000000000000000000000000000000000000000000000000000000000 DUP2 MSTORE PUSH1 0x4 ADD PUSH2 0x1563 SWAP1 PUSH2 0x3602 JUMP JUMPDEST PUSH1 0x40 MLOAD DUP1 SWAP2 SUB SWAP1 REVERT JUMPDEST PUSH1 0x7 PUSH0 DUP4 DUP2 MSTORE PUSH1 0x20 ADD SWAP1 DUP2 MSTORE PUSH1 0x20 ADD PUSH0 KECCAK256 PUSH0 SWAP1 SLOAD SWAP1 PUSH2 0x100 EXP SWAP1 DIV PUSH1 0xFF AND ISZERO PUSH2 0x15CA JUMPI PUSH1 0x40 MLOAD PUSH32 0x8C379A000000000000000000000000000000000000000000000000000000000 DUP2 MSTORE PUSH1 0x4 ADD PUSH2 0x15C1 SWAP1 PUSH2 0x3690 JUMP JUMPDEST PUSH1 0x40 MLOAD DUP1 SWAP2 SUB SWAP1 REVERT JUMPDEST PUSH1 0x1 PUSH1 0x7 PUSH0 DUP5 DUP2 MSTORE PUSH1 0x20 ADD SWAP1 DUP2 MSTORE PUSH1 0x20 ADD PUSH0 KECCAK256 PUSH0 PUSH2 0x100 EXP DUP2 SLOAD DUP2 PUSH1 0xFF MUL NOT AND SWAP1 DUP4 ISZERO ISZERO MUL OR SWAP1 SSTORE POP DUP1 PUSH1 0x8 PUSH0 DUP5 DUP2 MSTORE PUSH1 0x20 ADD SWAP1 DUP2 MSTORE PUSH1 0x20 ADD PUSH0 KECCAK256 DUP2 SWAP1 SSTORE POP PUSH2 0x1614 DUP2 PUSH0 SHL PUSH2 0x1EF8 JUMP JUMPDEST PUSH1 0x1 PUSH1 0x7 PUSH0 DUP5 DUP2 MSTORE PUSH1 0x20 ADD SWAP1 DUP2 MSTORE PUSH1 0x20 ADD PUSH0 KECCAK256 PUSH0 PUSH2 0x100 EXP DUP2 SLOAD DUP2 PUSH1 0xFF MUL NOT AND SWAP1 DUP4 ISZERO ISZERO MUL OR SWAP1 SSTORE POP POP POP JUMP JUMPDEST PUSH1 0x7 PUSH1 0x20 MSTORE DUP1 PUSH0 MSTORE PUSH1 0x40 PUSH0 KECCAK256 PUSH0 SWAP2 POP SLOAD SWAP1 PUSH2 0x100 EXP SWAP1 DIV PUSH1 0xFF AND DUP2 JUMP JUMPDEST PUSH1 0x2 PUSH1 0x20 MSTORE DUP1 PUSH0 MSTORE PUSH1 0x40 PUSH0 KECCAK256 PUSH0 SWAP2 POP SWAP1 POP SLOAD DUP2 JUMP JUMPDEST PUSH1 0x1E DUP2 JUMP JUMPDEST PUSH1 0xD SLOAD TIMESTAMP LT ISZERO DUP1 ISZERO PUSH2 0x168C JUMPI POP PUSH1 0xE SLOAD TIMESTAMP GT ISZERO JUMPDEST PUSH2 0x16CB JUMPI PUSH1 0x40 MLOAD PUSH32 0x8C379A000000000000000000000000000000000000000000000000000000000 DUP2 MSTORE PUSH1 0x4 ADD PUSH2 0x16C2 SWAP1 PUSH2 0x36F8 JUMP JUMPDEST PUSH1 0x40 MLOAD DUP1 SWAP2 SUB SWAP1 REVERT JUMPDEST PUSH1 0x9 SLOAD DUP7 LT PUSH2 0x170F JUMPI PUSH1 0x40 MLOAD PUSH32 0x8C379A000000000000000000000000000000000000000000000000000000000 DUP2 MSTORE PUSH1 0x4 ADD PUSH2 0x1706 SWAP1 PUSH2 0x3760 JUMP JUMPDEST PUSH1 0x40 MLOAD DUP1 SWAP2 SUB SWAP1 REVERT JUMPDEST PUSH1 0xA PUSH0 DUP8 DUP2 MSTORE PUSH1 0x20 ADD SWAP1 DUP2 MSTORE PUSH1 0x20 ADD PUSH0 KECCAK256 PUSH1 0x2 ADD PUSH1 0x8 SWAP1 SLOAD SWAP1 PUSH2 0x100 EXP SWAP1 DIV PUSH1 0xFF AND PUSH2 0x1770 JUMPI PUSH1 0x40 MLOAD PUSH32 0x8C379A000000000000000000000000000000000000000000000000000000000 DUP2 MSTORE PUSH1 0x4 ADD PUSH2 0x1767 SWAP1 PUSH2 0x37C8 JUMP JUMPDEST PUSH1 0x40 MLOAD DUP1 SWAP2 SUB SWAP1 REVERT JUMPDEST PUSH2 0x1781 DUP6 PUSH0 SHL DUP6 PUSH0 SHL DUP6 DUP6 DUP6 PUSH2 0x1FC9 JUMP JUMPDEST PUSH1 0xA PUSH0 DUP8 DUP2 MSTORE PUSH1 0x20 ADD SWAP1 DUP2 MSTORE PUSH1 0x20 ADD PUSH0 KECCAK256 PUSH1 0x2 ADD PUSH0 DUP2 DUP2 SWAP1 SLOAD SWAP1 PUSH2 0x100 EXP SWAP1 DIV PUSH8 0xFFFFFFFFFFFFFFFF AND DUP1 SWAP3 SWAP2 SWAP1 PUSH2 0x17B8 SWAP1 PUSH2 0x37E6 JUMP JUMPDEST SWAP2 SWAP1 PUSH2 0x100 EXP DUP2 SLOAD DUP2 PUSH8 0xFFFFFFFFFFFFFFFF MUL NOT AND SWAP1 DUP4 PUSH8 0xFFFFFFFFFFFFFFFF AND MUL OR SWAP1 SSTORE POP POP POP POP POP POP POP POP JUMP JUMPDEST PUSH1 0xF DUP2 DUP2 SLOAD DUP2 LT PUSH2 0x17F6 JUMPI PUSH0 DUP1 REVERT JUMPDEST SWAP1 PUSH0 MSTORE PUSH1 0x20 PUSH0 KECCAK256 ADD PUSH0 SWAP2 POP SWAP1 POP SLOAD DUP2 JUMP JUMPDEST PUSH0 PUSH0 DUP3 SUB PUSH2 0x1839 JUMPI PUSH32 0x2FE54C60D3ACABF3343A35B6EBA15DB4821B340F76E741E2249685ED4899AF6C PUSH0 SHL SWAP1 POP PUSH2 0x1E80 JUMP JUMPDEST PUSH1 0x1 DUP3 SUB PUSH2 0x186B JUMPI PUSH32 0x256A6135777EEE2FD26F54B8B7037A25439D5235CAEE224154186D2B8A52E31D PUSH0 SHL SWAP1 POP PUSH2 0x1E80 JUMP JUMPDEST PUSH1 0x2 DUP3 SUB PUSH2 0x189D JUMPI PUSH32 0x1151949895E82AB19924DE92C40A3D6F7BCB60D92B00504B8199613683F0C200 PUSH0 SHL SWAP1 POP PUSH2 0x1E80 JUMP JUMPDEST PUSH1 0x3 DUP3 SUB PUSH2 0x18CF JUMPI PUSH32 0x20121EE811489FF8D61F09FB89E313F14959A0F28BB428A20DBA6B0B068B3BDB PUSH0 SHL SWAP1 POP PUSH2 0x1E80 JUMP JUMPDEST PUSH1 0x4 DUP3 SUB PUSH2 0x1901 JUMPI PUSH32 0xA89CA6FFA14CC462CFEDB842C30ED221A50A3D6BF022A6A57DC82AB24C157C9 PUSH0 SHL SWAP1 POP PUSH2 0x1E80 JUMP JUMPDEST PUSH1 0x5 DUP3 SUB PUSH2 0x1933 JUMPI PUSH32 0x24CA05C2B5CD42E890D6BE94C68D0689F4F21C9CEC9C0F13FE41D566DFB54959 PUSH0 SHL SWAP1 POP PUSH2 0x1E80 JUMP JUMPDEST PUSH1 0x6 DUP3 SUB PUSH2 0x1965 JUMPI PUSH32 0x1CCB97C932565A92C60156BDBA2D08F3BF1377464E025CEE765679E604A7315C PUSH0 SHL SWAP1 POP PUSH2 0x1E80 JUMP JUMPDEST PUSH1 0x7 DUP3 SUB PUSH2 0x1997 JUMPI PUSH32 0x19156FBD7D1A8BF5CBA8909367DE1B624534EBAB4F0F79E003BCCDD1B182BDB4 PUSH0 SHL SWAP1 POP PUSH2 0x1E80 JUMP JUMPDEST PUSH1 0x8 DUP3 SUB PUSH2 0x19C9 JUMPI PUSH32 0x261AF8C1F0912E465744641409F622D466C3920AC6E5FF37E36604CB11DFFF80 PUSH0 SHL SWAP1 POP PUSH2 0x1E80 JUMP JUMPDEST PUSH1 0x9 DUP3 SUB PUSH2 0x19FA JUMPI PUSH31 0x58459724FF6CA5A1652FCBC3E82B93895CF08E975B19BEAB3F54C217D1C007 PUSH0 SHL SWAP1 POP PUSH2 0x1E80 JUMP JUMPDEST PUSH1 0xA DUP3 SUB PUSH2 0x1A2C JUMPI PUSH32 0x1F04EF20DEE48D39984D8EABE768A70EAFA6310AD20849D4573C3C40C2AD1E30 PUSH0 SHL SWAP1 POP PUSH2 0x1E80 JUMP JUMPDEST PUSH1 0xB DUP3 SUB PUSH2 0x1A5E JUMPI PUSH32 0x1BEA3DEC5DAB51567CE7E200A30F7BA6D4276AEAA53E2686F962A46C66D511E5 PUSH0 SHL SWAP1 POP PUSH2 0x1E80 JUMP JUMPDEST PUSH1 0xC DUP3 SUB PUSH2 0x1A90 JUMPI PUSH32 0xEE0F941E2DA4B9E31C3CA97A40D8FA9CE68D97C084177071B3CB46CD3372F0F PUSH0 SHL SWAP1 POP PUSH2 0x1E80 JUMP JUMPDEST PUSH1 0xD DUP3 SUB PUSH2 0x1AC2 JUMPI PUSH32 0x1CA9503E8935884501BBAF20BE14EB4C46B89772C97B96E3B2EBF3A36A948BBD PUSH0 SHL SWAP1 POP PUSH2 0x1E80 JUMP JUMPDEST PUSH1 0xE DUP3 SUB PUSH2 0x1AF4 JUMPI PUSH32 0x133A80E30697CD55D8F7D4B0965B7BE24057BA5DC3DA898EE2187232446CB108 PUSH0 SHL SWAP1 POP PUSH2 0x1E80 JUMP JUMPDEST PUSH1 0xF DUP3 SUB PUSH2 0x1B26 JUMPI PUSH32 0x13E6D8FC88839ED76E182C2A779AF5B2C0DA9DD18C90427A644F7E148A6253B6 PUSH0 SHL SWAP1 POP PUSH2 0x1E80 JUMP JUMPDEST PUSH1 0x10 DUP3 SUB PUSH2 0x1B58 JUMPI PUSH32 0x1EB16B057A477F4BC8F572EA6BEE39561098F78F15BFB3699DCBB7BD8DB61854 PUSH0 SHL SWAP1 POP PUSH2 0x1E80 JUMP JUMPDEST PUSH1 0x11 DUP3 SUB PUSH2 0x1B8A JUMPI PUSH32 0xDA2CB16A1CEAABF1C16B838F7A9E3F2A3A3088D9E0A6DEBAA748114620696EA PUSH0 SHL SWAP1 POP PUSH2 0x1E80 JUMP JUMPDEST PUSH1 0x12 DUP3 SUB PUSH2 0x1BBC JUMPI PUSH32 0x24A3B3D822420B14B5D8CB6C28A574F01E98EA9E940551D2EBD75CEE12649F9D PUSH0 SHL SWAP1 POP PUSH2 0x1E80 JUMP JUMPDEST PUSH1 0x13 DUP3 SUB PUSH2 0x1BEE JUMPI PUSH32 0x198622ACBD783D1B0D9064105B1FC8E4D8889DE95C4C519B3F635809FE6AFC05 PUSH0 SHL SWAP1 POP PUSH2 0x1E80 JUMP JUMPDEST PUSH1 0x14 DUP3 SUB PUSH2 0x1C20 JUMPI PUSH32 0x29D7ED391256CCC3EA596C86E933B89FF339D25EA8DDCED975AE2FE30B5296D4 PUSH0 SHL SWAP1 POP PUSH2 0x1E80 JUMP JUMPDEST PUSH1 0x15 DUP3 SUB PUSH2 0x1C52 JUMPI PUSH32 0x19BE59F2F0413CE78C0C3703A3A5451B1D7F39629FA33ABD11548A76065B2967 PUSH0 SHL SWAP1 POP PUSH2 0x1E80 JUMP JUMPDEST PUSH1 0x16 DUP3 SUB PUSH2 0x1C84 JUMPI PUSH32 0x1FF3F61797E538B70E619310D33F2A063E7EB59104E112E95738DA1254DC3453 PUSH0 SHL SWAP1 POP PUSH2 0x1E80 JUMP JUMPDEST PUSH1 0x17 DUP3 SUB PUSH2 0x1CB6 JUMPI PUSH32 0x10C16AE9959CF8358980D9DD9616E48228737310A10E2B6B731C1A548F036C48 PUSH0 SHL SWAP1 POP PUSH2 0x1E80 JUMP JUMPDEST PUSH1 0x18 DUP3 SUB PUSH2 0x1CE8 JUMPI PUSH32 0xBA433A63174A90AC20992E75E3095496812B652685B5E1A2EAE0B1BF4E8FCD1 PUSH0 SHL SWAP1 POP PUSH2 0x1E80 JUMP JUMPDEST PUSH1 0x19 DUP3 SUB PUSH2 0x1D1A JUMPI PUSH32 0x19DDB9DF2BC98D987D0DFECA9D2B643DEAFAB8F7036562E627C3667266A044C PUSH0 SHL SWAP1 POP PUSH2 0x1E80 JUMP JUMPDEST PUSH1 0x1A DUP3 SUB PUSH2 0x1D4C JUMPI PUSH32 0x2D3C88B23175C5A5565DB928414C66D1912B11ACF974B2E644CAAAC04739CE99 PUSH0 SHL SWAP1 POP PUSH2 0x1E80 JUMP JUMPDEST PUSH1 0x1B DUP3 SUB PUSH2 0x1D7E JUMPI PUSH32 0x2EAB55F6AE4E66E32C5189EED5C470840863445760F5ED7E7B69B2A62600F354 PUSH0 SHL SWAP1 POP PUSH2 0x1E80 JUMP JUMPDEST PUSH1 0x1C DUP3 SUB PUSH2 0x1DAF JUMPI PUSH31 0x2DF37A2642621802383CF952BF4DD1F32E05433BEEB1FD41031FB7EACE979D PUSH0 SHL SWAP1 POP PUSH2 0x1E80 JUMP JUMPDEST PUSH1 0x1D DUP3 SUB PUSH2 0x1DE1 JUMPI PUSH32 0x104AEB41435DB66C3E62FECCC1D6F5D98D0A0ED75D1374DB457CF462E3A1F427 PUSH0 SHL SWAP1 POP PUSH2 0x1E80 JUMP JUMPDEST PUSH1 0x1E DUP3 SUB PUSH2 0x1E13 JUMPI PUSH32 0x1F3C6FD858E9A7D4B0D1F38E256A09D81D5A5E3C963987E2D4B814CFAB7C6EBB PUSH0 SHL SWAP1 POP PUSH2 0x1E80 JUMP JUMPDEST PUSH1 0x1F DUP3 SUB PUSH2 0x1E45 JUMPI PUSH32 0x2C7A07D20DFF79D01FECEDC1134284A8D08436606C93693B67E333F671BF69CC PUSH0 SHL SWAP1 POP PUSH2 0x1E80 JUMP JUMPDEST PUSH1 0x40 MLOAD PUSH32 0x8C379A000000000000000000000000000000000000000000000000000000000 DUP2 MSTORE PUSH1 0x4 ADD PUSH2 0x1E77 SWAP1 PUSH2 0x385F JUMP JUMPDEST PUSH1 0x40 MLOAD DUP1 SWAP2 SUB SWAP1 REVERT JUMPDEST SWAP2 SWAP1 POP JUMP JUMPDEST PUSH32 0x2FE54C60D3ACABF3343A35B6EBA15DB4821B340F76E741E2249685ED4899AF6C DUP2 JUMP JUMPDEST PUSH32 0x0 DUP2 JUMP JUMPDEST PUSH1 0x1 PUSH1 0x20 MSTORE DUP1 PUSH0 MSTORE PUSH1 0x40 PUSH0 KECCAK256 PUSH0 SWAP2 POP SWAP1 POP SLOAD DUP2 JUMP JUMPDEST PUSH1 0x3 PUSH1 0x4 SWAP1 SLOAD SWAP1 PUSH2 0x100 EXP SWAP1 DIV PUSH4 0xFFFFFFFF AND DUP2 JUMP JUMPDEST PUSH1 0x5 PUSH0 DUP3 DUP2 MSTORE PUSH1 0x20 ADD SWAP1 DUP2 MSTORE PUSH1 0x20 ADD PUSH0 KECCAK256 PUSH0 SWAP1 SLOAD SWAP1 PUSH2 0x100 EXP SWAP1 DIV PUSH1 0xFF AND ISZERO PUSH2 0x1F56 JUMPI PUSH1 0x40 MLOAD PUSH32 0x8C379A000000000000000000000000000000000000000000000000000000000 DUP2 MSTORE PUSH1 0x4 ADD PUSH2 0x1F4D SWAP1 PUSH2 0x38ED JUMP JUMPDEST PUSH1 0x40 MLOAD DUP1 SWAP2 SUB SWAP1 REVERT JUMPDEST PUSH1 0x1 PUSH1 0x5 PUSH0 DUP4 DUP2 MSTORE PUSH1 0x20 ADD SWAP1 DUP2 MSTORE PUSH1 0x20 ADD PUSH0 KECCAK256 PUSH0 PUSH2 0x100 EXP DUP2 SLOAD DUP2 PUSH1 0xFF MUL NOT AND SWAP1 DUP4 ISZERO ISZERO MUL OR SWAP1 SSTORE POP PUSH0 PUSH2 0x1F89 DUP3 PUSH2 0x2194 JUMP JUMPDEST SWAP1 POP DUP2 PUSH32 0x401999886E5F90A91B92A0BFB7E2D48F714651A4D1C929BB3A753525BA066B91 DUP3 TIMESTAMP PUSH1 0x40 MLOAD PUSH2 0x1FBD SWAP3 SWAP2 SWAP1 PUSH2 0x390B JUMP JUMPDEST PUSH1 0x40 MLOAD DUP1 SWAP2 SUB SWAP1 LOG2 POP POP JUMP JUMPDEST PUSH1 0x4 PUSH0 DUP7 DUP2 MSTORE PUSH1 0x20 ADD SWAP1 DUP2 MSTORE PUSH1 0x20 ADD PUSH0 KECCAK256 PUSH0 SWAP1 SLOAD SWAP1 PUSH2 0x100 EXP SWAP1 DIV PUSH1 0xFF AND ISZERO PUSH2 0x2027 JUMPI PUSH1 0x40 MLOAD PUSH32 0x8C379A000000000000000000000000000000000000000000000000000000000 DUP2 MSTORE PUSH1 0x4 ADD PUSH2 0x201E SWAP1 PUSH2 0x397C JUMP JUMPDEST PUSH1 0x40 MLOAD DUP1 SWAP2 SUB SWAP1 REVERT JUMPDEST PUSH2 0x2030 DUP5 PUSH2 0x10B2 JUMP JUMPDEST PUSH2 0x206F JUMPI PUSH1 0x40 MLOAD PUSH32 0x8C379A000000000000000000000000000000000000000000000000000000000 DUP2 MSTORE PUSH1 0x4 ADD PUSH2 0x2066 SWAP1 PUSH2 0x39E4 JUMP JUMPDEST PUSH1 0x40 MLOAD DUP1 SWAP2 SUB SWAP1 REVERT JUMPDEST PUSH32 0x0 PUSH20 0xFFFFFFFFFFFFFFFFFFFFFFFFFFFFFFFFFFFFFFFF AND PUSH4 0xF5C9D69E DUP5 DUP5 DUP5 PUSH1 0x40 MLOAD DUP1 PUSH1 0x40 ADD PUSH1 0x40 MSTORE DUP1 DUP12 PUSH0 SHR DUP2 MSTORE PUSH1 0x20 ADD DUP11 PUSH0 SHR DUP2 MSTORE POP PUSH1 0x40 MLOAD DUP6 PUSH4 0xFFFFFFFF AND PUSH1 0xE0 SHL DUP2 MSTORE PUSH1 0x4 ADD PUSH2 0x20E6 SWAP5 SWAP4 SWAP3 SWAP2 SWAP1 PUSH2 0x3B77 JUMP JUMPDEST PUSH1 0x20 PUSH1 0x40 MLOAD DUP1 DUP4 SUB DUP2 DUP7 GAS STATICCALL ISZERO DUP1 ISZERO PUSH2 0x2101 JUMPI RETURNDATASIZE PUSH0 PUSH0 RETURNDATACOPY RETURNDATASIZE PUSH0 REVERT JUMPDEST POP POP POP POP PUSH1 0x40 MLOAD RETURNDATASIZE PUSH1 0x1F NOT PUSH1 0x1F DUP3 ADD AND DUP3 ADD DUP1 PUSH1 0x40 MSTORE POP DUP2 ADD SWAP1 PUSH2 0x2125 SWAP2 SWAP1 PUSH2 0x3BE6 JUMP JUMPDEST PUSH2 0x2164 JUMPI PUSH1 0x40 MLOAD PUSH32 0x8C379A000000000000000000000000000000000000000000000000000000000 DUP2 MSTORE PUSH1 0x4 ADD PUSH2 0x215B SWAP1 PUSH2 0x3C5B JUMP JUMPDEST PUSH1 0x40 MLOAD DUP1 SWAP2 SUB SWAP1 REVERT JUMPDEST PUSH1 0x1 PUSH1 0x4 PUSH0 DUP8 DUP2 MSTORE PUSH1 0x20 ADD SWAP1 DUP2 MSTORE PUSH1 0x20 ADD PUSH0 KECCAK256 PUSH0 PUSH2 0x100 EXP DUP2 SLOAD DUP2 PUSH1 0xFF MUL NOT AND SWAP1 DUP4 ISZERO ISZERO MUL OR SWAP1 SSTORE POP POP POP POP POP POP JUMP JUMPDEST PUSH0 PUSH0 PUSH1 0x3 PUSH1 0x4 SWAP1 SLOAD SWAP1 PUSH2 0x100 EXP SWAP1 DIV PUSH4 0xFFFFFFFF AND SWAP1 POP PUSH0 PUSH0 SWAP1 SLOAD SWAP1 PUSH2 0x100 EXP SWAP1 DIV PUSH4 0xFFFFFFFF AND PUSH1 0x2 PUSH2 0x21C8 SWAP2 SWAP1 PUSH2 0x3DA8 JUMP JUMPDEST PUSH4 0xFFFFFFFF AND DUP2 PUSH4 0xFFFFFFFF AND SUB PUSH2 0x2215 JUMPI PUSH1 0x40 MLOAD PUSH32 0x8C379A000000000000000000000000000000000000000000000000000000000 DUP2 MSTORE PUSH1 0x4 ADD PUSH2 0x220C SWAP1 PUSH2 0x3E46 JUMP JUMPDEST PUSH1 0x40 MLOAD DUP1 SWAP2 SUB SWAP1 REVERT JUMPDEST PUSH0 DUP2 SWAP1 POP PUSH0 DUP5 SWAP1 POP PUSH0 PUSH0 PUSH0 PUSH0 SWAP1 POP JUMPDEST PUSH0 PUSH0 SWAP1 SLOAD SWAP1 PUSH2 0x100 EXP SWAP1 DIV PUSH4 0xFFFFFFFF AND PUSH4 0xFFFFFFFF AND DUP2 PUSH4 0xFFFFFFFF AND LT ISZERO PUSH2 0x22E0 JUMPI PUSH0 PUSH1 0x2 DUP7 PUSH2 0x2256 SWAP2 SWAP1 PUSH2 0x3E64 JUMP JUMPDEST PUSH4 0xFFFFFFFF AND SUB PUSH2 0x2296 JUMPI DUP4 SWAP3 POP PUSH2 0x2273 DUP2 PUSH4 0xFFFFFFFF AND PUSH2 0x1807 JUMP JUMPDEST SWAP2 POP DUP4 PUSH1 0x1 PUSH0 DUP4 PUSH4 0xFFFFFFFF AND DUP2 MSTORE PUSH1 0x20 ADD SWAP1 DUP2 MSTORE PUSH1 0x20 ADD PUSH0 KECCAK256 DUP2 SWAP1 SSTORE POP PUSH2 0x22B4 JUMP JUMPDEST PUSH1 0x1 PUSH0 DUP3 PUSH4 0xFFFFFFFF AND DUP2 MSTORE PUSH1 0x20 ADD SWAP1 DUP2 MSTORE PUSH1 0x20 ADD PUSH0 KECCAK256 SLOAD SWAP3 POP DUP4 SWAP2 POP JUMPDEST PUSH2 0x22C2 DUP4 PUSH0 SHR DUP4 PUSH0 SHR PUSH2 0xC31 JUMP JUMPDEST SWAP4 POP PUSH1 0x2 DUP6 PUSH2 0x22D1 SWAP2 SWAP1 PUSH2 0x3E94 JUMP JUMPDEST SWAP5 POP DUP1 DUP1 PUSH1 0x1 ADD SWAP2 POP POP PUSH2 0x2224 JUMP JUMPDEST POP PUSH0 PUSH1 0x1E PUSH1 0x1 PUSH1 0x3 PUSH0 SWAP1 SLOAD SWAP1 PUSH2 0x100 EXP SWAP1 DIV PUSH4 0xFFFFFFFF AND PUSH2 0x2302 SWAP2 SWAP1 PUSH2 0x3EC4 JUMP JUMPDEST PUSH2 0x230C SWAP2 SWAP1 PUSH2 0x3E64 JUMP JUMPDEST SWAP1 POP DUP1 PUSH1 0x3 PUSH0 PUSH2 0x100 EXP DUP2 SLOAD DUP2 PUSH4 0xFFFFFFFF MUL NOT AND SWAP1 DUP4 PUSH4 0xFFFFFFFF AND MUL OR SWAP1 SSTORE POP DUP4 PUSH1 0x2 PUSH0 DUP4 PUSH4 0xFFFFFFFF AND DUP2 MSTORE PUSH1 0x20 ADD SWAP1 DUP2 MSTORE PUSH1 0x20 ADD PUSH0 KECCAK256 DUP2 SWAP1 SSTORE POP PUSH1 0x1 DUP7 PUSH2 0x2357 SWAP2 SWAP1 PUSH2 0x3EC4 JUMP JUMPDEST PUSH1 0x3 PUSH1 0x4 PUSH2 0x100 EXP DUP2 SLOAD DUP2 PUSH4 0xFFFFFFFF MUL NOT AND SWAP1 DUP4 PUSH4 0xFFFFFFFF AND MUL OR SWAP1 SSTORE POP DUP6 SWAP7 POP POP POP POP POP POP POP SWAP2 SWAP1 POP JUMP JUMPDEST POP DUP1 SLOAD PUSH2 0x2391 SWAP1 PUSH2 0x2F42 JUMP JUMPDEST PUSH0 DUP3 SSTORE DUP1 PUSH1 0x1F LT PUSH2 0x23A2 JUMPI POP PUSH2 0x23BF JUMP JUMPDEST PUSH1 0x1F ADD PUSH1 0x20 SWAP1 DIV SWAP1 PUSH0 MSTORE PUSH1 0x20 PUSH0 KECCAK256 SWAP1 DUP2 ADD SWAP1 PUSH2 0x23BE SWAP2 SWAP1 PUSH2 0x23C2 JUMP JUMPDEST JUMPDEST POP JUMP JUMPDEST JUMPDEST DUP1 DUP3 GT ISZERO PUSH2 0x23D9 JUMPI PUSH0 DUP2 PUSH0 SWAP1 SSTORE POP PUSH1 0x1 ADD PUSH2 0x23C3 JUMP JUMPDEST POP SWAP1 JUMP JUMPDEST PUSH0 DUP2 SWAP1 POP SWAP2 SWAP1 POP JUMP JUMPDEST PUSH2 0x23EF DUP2 PUSH2 0x23DD JUMP JUMPDEST DUP3 MSTORE POP POP JUMP JUMPDEST PUSH0 PUSH1 0x20 DUP3 ADD SWAP1 POP PUSH2 0x2408 PUSH0 DUP4 ADD DUP5 PUSH2 0x23E6 JUMP JUMPDEST SWAP3 SWAP2 POP POP JUMP JUMPDEST PUSH0 PUSH1 0x40 MLOAD SWAP1 POP SWAP1 JUMP JUMPDEST PUSH0 PUSH0 REVERT JUMPDEST PUSH0 PUSH0 REVERT JUMPDEST PUSH2 0x2428 DUP2 PUSH2 0x23DD JUMP JUMPDEST DUP2 EQ PUSH2 0x2432 JUMPI PUSH0 PUSH0 REVERT JUMPDEST POP JUMP JUMPDEST PUSH0 DUP2 CALLDATALOAD SWAP1 POP PUSH2 0x2443 DUP2 PUSH2 0x241F JUMP JUMPDEST SWAP3 SWAP2 POP POP JUMP JUMPDEST PUSH0 PUSH1 0x20 DUP3 DUP5 SUB SLT ISZERO PUSH2 0x245E JUMPI PUSH2 0x245D PUSH2 0x2417 JUMP JUMPDEST JUMPDEST PUSH0 PUSH2 0x246B DUP5 DUP3 DUP6 ADD PUSH2 0x2435 JUMP JUMPDEST SWAP2 POP POP SWAP3 SWAP2 POP POP JUMP JUMPDEST PUSH0 DUP2 SWAP1 POP SWAP2 SWAP1 POP JUMP JUMPDEST PUSH2 0x2486 DUP2 PUSH2 0x2474 JUMP JUMPDEST DUP2 EQ PUSH2 0x2490 JUMPI PUSH0 PUSH0 REVERT JUMPDEST POP JUMP JUMPDEST PUSH0 DUP2 CALLDATALOAD SWAP1 POP PUSH2 0x24A1 DUP2 PUSH2 0x247D JUMP JUMPDEST SWAP3 SWAP2 POP POP JUMP JUMPDEST PUSH0 PUSH1 0x20 DUP3 DUP5 SUB SLT ISZERO PUSH2 0x24BC JUMPI PUSH2 0x24BB PUSH2 0x2417 JUMP JUMPDEST JUMPDEST PUSH0 PUSH2 0x24C9 DUP5 DUP3 DUP6 ADD PUSH2 0x2493 JUMP JUMPDEST SWAP2 POP POP SWAP3 SWAP2 POP POP JUMP JUMPDEST PUSH0 DUP2 ISZERO ISZERO SWAP1 POP SWAP2 SWAP1 POP JUMP JUMPDEST PUSH2 0x24E6 DUP2 PUSH2 0x24D2 JUMP JUMPDEST DUP3 MSTORE POP POP JUMP JUMPDEST PUSH0 PUSH1 0x20 DUP3 ADD SWAP1 POP PUSH2 0x24FF PUSH0 DUP4 ADD DUP5 PUSH2 0x24DD JUMP JUMPDEST SWAP3 SWAP2 POP POP JUMP JUMPDEST PUSH0 PUSH20 0xFFFFFFFFFFFFFFFFFFFFFFFFFFFFFFFFFFFFFFFF DUP3 AND SWAP1 POP SWAP2 SWAP1 POP JUMP JUMPDEST PUSH0 DUP2 SWAP1 POP SWAP2 SWAP1 POP JUMP JUMPDEST PUSH0 PUSH2 0x2547 PUSH2 0x2542 PUSH2 0x253D DUP5 PUSH2 0x2505 JUMP JUMPDEST PUSH2 0x2524 JUMP JUMPDEST PUSH2 0x2505 JUMP JUMPDEST SWAP1 POP SWAP2 SWAP1 POP JUMP JUMPDEST PUSH0 PUSH2 0x2558 DUP3 PUSH2 0x252D JUMP JUMPDEST SWAP1 POP SWAP2 SWAP1 POP JUMP JUMPDEST PUSH0 PUSH2 0x2569 DUP3 PUSH2 0x254E JUMP JUMPDEST SWAP1 POP SWAP2 SWAP1 POP JUMP JUMPDEST PUSH2 0x2579 DUP2 PUSH2 0x255F JUMP JUMPDEST DUP3 MSTORE POP POP JUMP JUMPDEST PUSH0 PUSH1 0x20 DUP3 ADD SWAP1 POP PUSH2 0x2592 PUSH0 DUP4 ADD DUP5 PUSH2 0x2570 JUMP JUMPDEST SWAP3 SWAP2 POP POP JUMP JUMPDEST PUSH0 DUP2 MLOAD SWAP1 POP SWAP2 SWAP1 POP JUMP JUMPDEST PUSH0 DUP3 DUP3 MSTORE PUSH1 0x20 DUP3 ADD SWAP1 POP SWAP3 SWAP2 POP POP JUMP JUMPDEST PUSH0 DUP2 SWAP1 POP PUSH1 0x20 DUP3 ADD SWAP1 POP SWAP2 SWAP1 POP JUMP JUMPDEST PUSH2 0x25CA DUP2 PUSH2 0x23DD JUMP JUMPDEST DUP3 MSTORE POP POP JUMP JUMPDEST PUSH0 PUSH2 0x25DB DUP4 DUP4 PUSH2 0x25C1 JUMP JUMPDEST PUSH1 0x20 DUP4 ADD SWAP1 POP SWAP3 SWAP2 POP POP JUMP JUMPDEST PUSH0 PUSH1 0x20 DUP3 ADD SWAP1 POP SWAP2 SWAP1 POP JUMP JUMPDEST PUSH0 PUSH2 0x25FD DUP3 PUSH2 0x2598 JUMP JUMPDEST PUSH2 0x2607 DUP2 DUP6 PUSH2 0x25A2 JUMP JUMPDEST SWAP4 POP PUSH2 0x2612 DUP4 PUSH2 0x25B2 JUMP JUMPDEST DUP1 PUSH0 JUMPDEST DUP4 DUP2 LT ISZERO PUSH2 0x2642 JUMPI DUP2 MLOAD PUSH2 0x2629 DUP9 DUP3 PUSH2 0x25D0 JUMP JUMPDEST SWAP8 POP PUSH2 0x2634 DUP4 PUSH2 0x25E7 JUMP JUMPDEST SWAP3 POP POP PUSH1 0x1 DUP2 ADD SWAP1 POP PUSH2 0x2615 JUMP JUMPDEST POP DUP6 SWAP4 POP POP POP POP SWAP3 SWAP2 POP POP JUMP JUMPDEST PUSH0 DUP2 MLOAD SWAP1 POP SWAP2 SWAP1 POP JUMP JUMPDEST PUSH0 DUP3 DUP3 MSTORE PUSH1 0x20 DUP3 ADD SWAP1 POP SWAP3 SWAP2 POP POP JUMP JUMPDEST PUSH0 DUP2 SWAP1 POP PUSH1 0x20 DUP3 ADD SWAP1 POP SWAP2 SWAP1 POP JUMP JUMPDEST PUSH0 DUP2 MLOAD SWAP1 POP SWAP2 SWAP1 POP JUMP JUMPDEST PUSH0 DUP3 DUP3 MSTORE PUSH1 0x20 DUP3 ADD SWAP1 POP SWAP3 SWAP2 POP POP JUMP JUMPDEST DUP3 DUP2 DUP4 MCOPY PUSH0 DUP4 DUP4 ADD MSTORE POP POP POP JUMP JUMPDEST PUSH0 PUSH1 0x1F NOT PUSH1 0x1F DUP4 ADD AND SWAP1 POP SWAP2 SWAP1 POP JUMP JUMPDEST PUSH0 PUSH2 0x26BA DUP3 PUSH2 0x2678 JUMP JUMPDEST PUSH2 0x26C4 DUP2 DUP6 PUSH2 0x2682 JUMP JUMPDEST SWAP4 POP PUSH2 0x26D4 DUP2 DUP6 PUSH1 0x20 DUP7 ADD PUSH2 0x2692 JUMP JUMPDEST PUSH2 0x26DD DUP2 PUSH2 0x26A0 JUMP JUMPDEST DUP5 ADD SWAP2 POP POP SWAP3 SWAP2 POP POP JUMP JUMPDEST PUSH0 PUSH2 0x26F3 DUP4 DUP4 PUSH2 0x26B0 JUMP JUMPDEST SWAP1 POP SWAP3 SWAP2 POP POP JUMP JUMPDEST PUSH0 PUSH1 0x20 DUP3 ADD SWAP1 POP SWAP2 SWAP1 POP JUMP JUMPDEST PUSH0 PUSH2 0x2711 DUP3 PUSH2 0x264F JUMP JUMPDEST PUSH2 0x271B DUP2 DUP6 PUSH2 0x2659 JUMP JUMPDEST SWAP4 POP DUP4 PUSH1 0x20 DUP3 MUL DUP6 ADD PUSH2 0x272D DUP6 PUSH2 0x2669 JUMP JUMPDEST DUP1 PUSH0 JUMPDEST DUP6 DUP2 LT ISZERO PUSH2 0x2768 JUMPI DUP5 DUP5 SUB DUP10 MSTORE DUP2 MLOAD PUSH2 0x2749 DUP6 DUP3 PUSH2 0x26E8 JUMP JUMPDEST SWAP5 POP PUSH2 0x2754 DUP4 PUSH2 0x26FB JUMP JUMPDEST SWAP3 POP PUSH1 0x20 DUP11 ADD SWAP10 POP POP PUSH1 0x1 DUP2 ADD SWAP1 POP PUSH2 0x2730 JUMP JUMPDEST POP DUP3 SWAP8 POP DUP8 SWAP6 POP POP POP POP POP POP SWAP3 SWAP2 POP POP JUMP JUMPDEST PUSH0 PUSH1 0x60 DUP3 ADD SWAP1 POP PUSH2 0x278D PUSH0 DUP4 ADD DUP7 PUSH2 0x23E6 JUMP JUMPDEST DUP2 DUP2 SUB PUSH1 0x20 DUP4 ADD MSTORE PUSH2 0x279F DUP2 DUP6 PUSH2 0x25F3 JUMP JUMPDEST SWAP1 POP DUP2 DUP2 SUB PUSH1 0x40 DUP4 ADD MSTORE PUSH2 0x27B3 DUP2 DUP5 PUSH2 0x2707 JUMP JUMPDEST SWAP1 POP SWAP5 SWAP4 POP POP POP POP JUMP JUMPDEST PUSH0 PUSH8 0xFFFFFFFFFFFFFFFF DUP3 AND SWAP1 POP SWAP2 SWAP1 POP JUMP JUMPDEST PUSH2 0x27D9 DUP2 PUSH2 0x27BD JUMP JUMPDEST DUP3 MSTORE POP POP JUMP JUMPDEST PUSH0 DUP3 DUP3 MSTORE PUSH1 0x20 DUP3 ADD SWAP1 POP SWAP3 SWAP2 POP POP JUMP JUMPDEST PUSH0 PUSH2 0x27F9 DUP3 PUSH2 0x2678 JUMP JUMPDEST PUSH2 0x2803 DUP2 DUP6 PUSH2 0x27DF JUMP JUMPDEST SWAP4 POP PUSH2 0x2813 DUP2 DUP6 PUSH1 0x20 DUP7 ADD PUSH2 0x2692 JUMP JUMPDEST PUSH2 0x281C DUP2 PUSH2 0x26A0 JUMP JUMPDEST DUP5 ADD SWAP2 POP POP SWAP3 SWAP2 POP POP JUMP JUMPDEST PUSH0 PUSH1 0x80 DUP3 ADD SWAP1 POP PUSH2 0x283A PUSH0 DUP4 ADD DUP8 PUSH2 0x27D0 JUMP JUMPDEST DUP2 DUP2 SUB PUSH1 0x20 DUP4 ADD MSTORE PUSH2 0x284C DUP2 DUP7 PUSH2 0x27EF JUMP JUMPDEST SWAP1 POP PUSH2 0x285B PUSH1 0x40 DUP4 ADD DUP6 PUSH2 0x27D0 JUMP JUMPDEST PUSH2 0x2868 PUSH1 0x60 DUP4 ADD DUP5 PUSH2 0x24DD JUMP JUMPDEST SWAP6 SWAP5 POP POP POP POP POP JUMP JUMPDEST PUSH0 PUSH4 0xFFFFFFFF DUP3 AND SWAP1 POP SWAP2 SWAP1 POP JUMP JUMPDEST PUSH2 0x2889 DUP2 PUSH2 0x2871 JUMP JUMPDEST DUP3 MSTORE POP POP JUMP JUMPDEST PUSH0 PUSH1 0x20 DUP3 ADD SWAP1 POP PUSH2 0x28A2 PUSH0 DUP4 ADD DUP5 PUSH2 0x2880 JUMP JUMPDEST SWAP3 SWAP2 POP POP JUMP JUMPDEST PUSH0 PUSH0 PUSH1 0x40 DUP4 DUP6 SUB SLT ISZERO PUSH2 0x28BE JUMPI PUSH2 0x28BD PUSH2 0x2417 JUMP JUMPDEST JUMPDEST PUSH0 PUSH2 0x28CB DUP6 DUP3 DUP7 ADD PUSH2 0x2435 JUMP JUMPDEST SWAP3 POP POP PUSH1 0x20 PUSH2 0x28DC DUP6 DUP3 DUP7 ADD PUSH2 0x2435 JUMP JUMPDEST SWAP2 POP POP SWAP3 POP SWAP3 SWAP1 POP JUMP JUMPDEST PUSH2 0x28EF DUP2 PUSH2 0x2474 JUMP JUMPDEST DUP3 MSTORE POP POP JUMP JUMPDEST PUSH0 PUSH1 0x20 DUP3 ADD SWAP1 POP PUSH2 0x2908 PUSH0 DUP4 ADD DUP5 PUSH2 0x28E6 JUMP JUMPDEST SWAP3 SWAP2 POP POP JUMP JUMPDEST PUSH2 0x2917 DUP2 PUSH2 0x27BD JUMP JUMPDEST DUP2 EQ PUSH2 0x2921 JUMPI PUSH0 PUSH0 REVERT JUMPDEST POP JUMP JUMPDEST PUSH0 DUP2 CALLDATALOAD SWAP1 POP PUSH2 0x2932 DUP2 PUSH2 0x290E JUMP JUMPDEST SWAP3 SWAP2 POP POP JUMP JUMPDEST PUSH0 PUSH0 REVERT JUMPDEST PUSH0 PUSH0 REVERT JUMPDEST PUSH32 0x4E487B7100000000000000000000000000000000000000000000000000000000 PUSH0 MSTORE PUSH1 0x41 PUSH1 0x4 MSTORE PUSH1 0x24 PUSH0 REVERT JUMPDEST PUSH2 0x2976 DUP3 PUSH2 0x26A0 JUMP JUMPDEST DUP2 ADD DUP2 DUP2 LT PUSH8 0xFFFFFFFFFFFFFFFF DUP3 GT OR ISZERO PUSH2 0x2995 JUMPI PUSH2 0x2994 PUSH2 0x2940 JUMP JUMPDEST JUMPDEST DUP1 PUSH1 0x40 MSTORE POP POP POP JUMP JUMPDEST PUSH0 PUSH2 0x29A7 PUSH2 0x240E JUMP JUMPDEST SWAP1 POP PUSH2 0x29B3 DUP3 DUP3 PUSH2 0x296D JUMP JUMPDEST SWAP2 SWAP1 POP JUMP JUMPDEST PUSH0 PUSH8 0xFFFFFFFFFFFFFFFF DUP3 GT ISZERO PUSH2 0x29D2 JUMPI PUSH2 0x29D1 PUSH2 0x2940 JUMP JUMPDEST JUMPDEST PUSH2 0x29DB DUP3 PUSH2 0x26A0 JUMP JUMPDEST SWAP1 POP PUSH1 0x20 DUP2 ADD SWAP1 POP SWAP2 SWAP1 POP JUMP JUMPDEST DUP3 DUP2 DUP4 CALLDATACOPY PUSH0 DUP4 DUP4 ADD MSTORE POP POP POP JUMP JUMPDEST PUSH0 PUSH2 0x2A08 PUSH2 0x2A03 DUP5 PUSH2 0x29B8 JUMP JUMPDEST PUSH2 0x299E JUMP JUMPDEST SWAP1 POP DUP3 DUP2 MSTORE PUSH1 0x20 DUP2 ADD DUP5 DUP5 DUP5 ADD GT ISZERO PUSH2 0x2A24 JUMPI PUSH2 0x2A23 PUSH2 0x293C JUMP JUMPDEST JUMPDEST PUSH2 0x2A2F DUP5 DUP3 DUP6 PUSH2 0x29E8 JUMP JUMPDEST POP SWAP4 SWAP3 POP POP POP JUMP JUMPDEST PUSH0 DUP3 PUSH1 0x1F DUP4 ADD SLT PUSH2 0x2A4B JUMPI PUSH2 0x2A4A PUSH2 0x2938 JUMP JUMPDEST JUMPDEST DUP2 CALLDATALOAD PUSH2 0x2A5B DUP5 DUP3 PUSH1 0x20 DUP7 ADD PUSH2 0x29F6 JUMP JUMPDEST SWAP2 POP POP SWAP3 SWAP2 POP POP JUMP JUMPDEST PUSH0 PUSH0 PUSH1 0x40 DUP4 DUP6 SUB SLT ISZERO PUSH2 0x2A7A JUMPI PUSH2 0x2A79 PUSH2 0x2417 JUMP JUMPDEST JUMPDEST PUSH0 PUSH2 0x2A87 DUP6 DUP3 DUP7 ADD PUSH2 0x2924 JUMP JUMPDEST SWAP3 POP POP PUSH1 0x20 DUP4 ADD CALLDATALOAD PUSH8 0xFFFFFFFFFFFFFFFF DUP2 GT ISZERO PUSH2 0x2AA8 JUMPI PUSH2 0x2AA7 PUSH2 0x241B JUMP JUMPDEST JUMPDEST PUSH2 0x2AB4 DUP6 DUP3 DUP7 ADD PUSH2 0x2A37 JUMP JUMPDEST SWAP2 POP POP SWAP3 POP SWAP3 SWAP1 POP JUMP JUMPDEST PUSH0 PUSH2 0x2AC8 DUP3 PUSH2 0x2505 JUMP JUMPDEST SWAP1 POP SWAP2 SWAP1 POP JUMP JUMPDEST PUSH2 0x2AD8 DUP2 PUSH2 0x2ABE JUMP JUMPDEST DUP3 MSTORE POP POP JUMP JUMPDEST PUSH0 PUSH1 0x20 DUP3 ADD SWAP1 POP PUSH2 0x2AF1 PUSH0 DUP4 ADD DUP5 PUSH2 0x2ACF JUMP JUMPDEST SWAP3 SWAP2 POP POP JUMP JUMPDEST PUSH0 DUP2 MLOAD SWAP1 POP SWAP2 SWAP1 POP JUMP JUMPDEST PUSH0 DUP3 DUP3 MSTORE PUSH1 0x20 DUP3 ADD SWAP1 POP SWAP3 SWAP2 POP POP JUMP JUMPDEST PUSH0 DUP2 SWAP1 POP PUSH1 0x20 DUP3 ADD SWAP1 POP SWAP2 SWAP1 POP JUMP JUMPDEST PUSH2 0x2B29 DUP2 PUSH2 0x2ABE JUMP JUMPDEST DUP3 MSTORE POP POP JUMP JUMPDEST PUSH0 PUSH2 0x2B3A DUP4 DUP4 PUSH2 0x2B20 JUMP JUMPDEST PUSH1 0x20 DUP4 ADD SWAP1 POP SWAP3 SWAP2 POP POP JUMP JUMPDEST PUSH0 PUSH1 0x20 DUP3 ADD SWAP1 POP SWAP2 SWAP1 POP JUMP JUMPDEST PUSH0 PUSH2 0x2B5C DUP3 PUSH2 0x2AF7 JUMP JUMPDEST PUSH2 0x2B66 DUP2 DUP6 PUSH2 0x2B01 JUMP JUMPDEST SWAP4 POP PUSH2 0x2B71 DUP4 PUSH2 0x2B11 JUMP JUMPDEST DUP1 PUSH0 JUMPDEST DUP4 DUP2 LT ISZERO PUSH2 0x2BA1 JUMPI DUP2 MLOAD PUSH2 0x2B88 DUP9 DUP3 PUSH2 0x2B2F JUMP JUMPDEST SWAP8 POP PUSH2 0x2B93 DUP4 PUSH2 0x2B46 JUMP JUMPDEST SWAP3 POP POP PUSH1 0x1 DUP2 ADD SWAP1 POP PUSH2 0x2B74 JUMP JUMPDEST POP DUP6 SWAP4 POP POP POP POP SWAP3 SWAP2 POP POP JUMP JUMPDEST PUSH0 PUSH1 0x20 DUP3 ADD SWAP1 POP DUP2 DUP2 SUB PUSH0 DUP4 ADD MSTORE PUSH2 0x2BC6 DUP2 DUP5 PUSH2 0x2B52 JUMP JUMPDEST SWAP1 POP SWAP3 SWAP2 POP POP JUMP JUMPDEST PUSH0 PUSH8 0xFFFFFFFFFFFFFFFF DUP3 GT ISZERO PUSH2 0x2BE8 JUMPI PUSH2 0x2BE7 PUSH2 0x2940 JUMP JUMPDEST JUMPDEST PUSH1 0x20 DUP3 MUL SWAP1 POP SWAP2 SWAP1 POP JUMP JUMPDEST PUSH0 PUSH0 REVERT JUMPDEST PUSH0 PUSH2 0x2C09 PUSH2 0x2C04 DUP5 PUSH2 0x2BCE JUMP JUMPDEST PUSH2 0x299E JUMP JUMPDEST SWAP1 POP DUP1 PUSH1 0x20 DUP5 MUL DUP4 ADD DUP6 DUP2 GT ISZERO PUSH2 0x2C23 JUMPI PUSH2 0x2C22 PUSH2 0x2BF3 JUMP JUMPDEST JUMPDEST DUP4 JUMPDEST DUP2 DUP2 LT ISZERO PUSH2 0x2C4C JUMPI DUP1 PUSH2 0x2C38 DUP9 DUP3 PUSH2 0x2435 JUMP JUMPDEST DUP5 MSTORE PUSH1 0x20 DUP5 ADD SWAP4 POP POP PUSH1 0x20 DUP2 ADD SWAP1 POP PUSH2 0x2C25 JUMP JUMPDEST POP POP POP SWAP4 SWAP3 POP POP POP JUMP JUMPDEST PUSH0 DUP3 PUSH1 0x1F DUP4 ADD SLT PUSH2 0x2C6A JUMPI PUSH2 0x2C69 PUSH2 0x2938 JUMP JUMPDEST JUMPDEST PUSH1 0x2 PUSH2 0x2C77 DUP5 DUP3 DUP6 PUSH2 0x2BF7 JUMP JUMPDEST SWAP2 POP POP SWAP3 SWAP2 POP POP JUMP JUMPDEST PUSH0 PUSH8 0xFFFFFFFFFFFFFFFF DUP3 GT ISZERO PUSH2 0x2C9A JUMPI PUSH2 0x2C99 PUSH2 0x2940 JUMP JUMPDEST JUMPDEST PUSH1 0x20 DUP3 MUL SWAP1 POP SWAP2 SWAP1 POP JUMP JUMPDEST PUSH0 PUSH2 0x2CB7 PUSH2 0x2CB2 DUP5 PUSH2 0x2C80 JUMP JUMPDEST PUSH2 0x299E JUMP JUMPDEST SWAP1 POP DUP1 PUSH1 0x40 DUP5 MUL DUP4 ADD DUP6 DUP2 GT ISZERO PUSH2 0x2CD1 JUMPI PUSH2 0x2CD0 PUSH2 0x2BF3 JUMP JUMPDEST JUMPDEST DUP4 JUMPDEST DUP2 DUP2 LT ISZERO PUSH2 0x2CFA JUMPI DUP1 PUSH2 0x2CE6 DUP9 DUP3 PUSH2 0x2C56 JUMP JUMPDEST DUP5 MSTORE PUSH1 0x20 DUP5 ADD SWAP4 POP POP PUSH1 0x40 DUP2 ADD SWAP1 POP PUSH2 0x2CD3 JUMP JUMPDEST POP POP POP SWAP4 SWAP3 POP POP POP JUMP JUMPDEST PUSH0 DUP3 PUSH1 0x1F DUP4 ADD SLT PUSH2 0x2D18 JUMPI PUSH2 0x2D17 PUSH2 0x2938 JUMP JUMPDEST JUMPDEST PUSH1 0x2 PUSH2 0x2D25 DUP5 DUP3 DUP6 PUSH2 0x2CA5 JUMP JUMPDEST SWAP2 POP POP SWAP3 SWAP2 POP POP JUMP JUMPDEST PUSH0 PUSH0 PUSH0 PUSH0 PUSH0 PUSH0 PUSH2 0x160 DUP8 DUP10 SUB SLT ISZERO PUSH2 0x2D49 JUMPI PUSH2 0x2D48 PUSH2 0x2417 JUMP JUMPDEST JUMPDEST PUSH0 PUSH2 0x2D56 DUP10 DUP3 DUP11 ADD PUSH2 0x2435 JUMP JUMPDEST SWAP7 POP POP PUSH1 0x20 PUSH2 0x2D67 DUP10 DUP3 DUP11 ADD PUSH2 0x2435 JUMP JUMPDEST SWAP6 POP POP PUSH1 0x40 PUSH2 0x2D78 DUP10 DUP3 DUP11 ADD PUSH2 0x2435 JUMP JUMPDEST SWAP5 POP POP PUSH1 0x60 PUSH2 0x2D89 DUP10 DUP3 DUP11 ADD PUSH2 0x2C56 JUMP JUMPDEST SWAP4 POP POP PUSH1 0xA0 PUSH2 0x2D9A DUP10 DUP3 DUP11 ADD PUSH2 0x2D04 JUMP JUMPDEST SWAP3 POP POP PUSH2 0x120 PUSH2 0x2DAC DUP10 DUP3 DUP11 ADD PUSH2 0x2C56 JUMP JUMPDEST SWAP2 POP POP SWAP3 SWAP6 POP SWAP3 SWAP6 POP SWAP3 SWAP6 JUMP JUMPDEST PUSH0 PUSH2 0x2DC3 DUP3 PUSH2 0x254E JUMP JUMPDEST SWAP1 POP SWAP2 SWAP1 POP JUMP JUMPDEST PUSH2 0x2DD3 DUP2 PUSH2 0x2DB9 JUMP JUMPDEST DUP3 MSTORE POP POP JUMP JUMPDEST PUSH0 PUSH1 0x20 DUP3 ADD SWAP1 POP PUSH2 0x2DEC PUSH0 DUP4 ADD DUP5 PUSH2 0x2DCA JUMP JUMPDEST SWAP3 SWAP2 POP POP JUMP JUMPDEST PUSH32 0x4F6E6C79206F776E65722063616E20706572666F726D20746869732061637469 PUSH0 DUP3 ADD MSTORE PUSH32 0x6F6E210000000000000000000000000000000000000000000000000000000000 PUSH1 0x20 DUP3 ADD MSTORE POP JUMP JUMPDEST PUSH0 PUSH2 0x2E4C PUSH1 0x23 DUP4 PUSH2 0x27DF JUMP JUMPDEST SWAP2 POP PUSH2 0x2E57 DUP3 PUSH2 0x2DF2 JUMP JUMPDEST PUSH1 0x40 DUP3 ADD SWAP1 POP SWAP2 SWAP1 POP JUMP JUMPDEST PUSH0 PUSH1 0x20 DUP3 ADD SWAP1 POP DUP2 DUP2 SUB PUSH0 DUP4 ADD MSTORE PUSH2 0x2E79 DUP2 PUSH2 0x2E40 JUMP JUMPDEST SWAP1 POP SWAP2 SWAP1 POP JUMP JUMPDEST PUSH32 0x496E76616C69642063616E646964617465204944210000000000000000000000 PUSH0 DUP3 ADD MSTORE POP JUMP JUMPDEST PUSH0 PUSH2 0x2EB4 PUSH1 0x15 DUP4 PUSH2 0x27DF JUMP JUMPDEST SWAP2 POP PUSH2 0x2EBF DUP3 PUSH2 0x2E80 JUMP JUMPDEST PUSH1 0x20 DUP3 ADD SWAP1 POP SWAP2 SWAP1 POP JUMP JUMPDEST PUSH0 PUSH1 0x20 DUP3 ADD SWAP1 POP DUP2 DUP2 SUB PUSH0 DUP4 ADD MSTORE PUSH2 0x2EE1 DUP2 PUSH2 0x2EA8 JUMP JUMPDEST SWAP1 POP SWAP2 SWAP1 POP JUMP JUMPDEST PUSH32 0x4E487B7100000000000000000000000000000000000000000000000000000000 PUSH0 MSTORE PUSH1 0x32 PUSH1 0x4 MSTORE PUSH1 0x24 PUSH0 REVERT JUMPDEST PUSH32 0x4E487B7100000000000000000000000000000000000000000000000000000000 PUSH0 MSTORE PUSH1 0x22 PUSH1 0x4 MSTORE PUSH1 0x24 PUSH0 REVERT JUMPDEST PUSH0 PUSH1 0x2 DUP3 DIV SWAP1 POP PUSH1 0x1 DUP3 AND DUP1 PUSH2 0x2F59 JUMPI PUSH1 0x7F DUP3 AND SWAP2 POP JUMPDEST PUSH1 0x20 DUP3 LT DUP2 SUB PUSH2 0x2F6C JUMPI PUSH2 0x2F6B PUSH2 0x2F15 JUMP JUMPDEST JUMPDEST POP SWAP2 SWAP1 POP JUMP JUMPDEST PUSH32 0x5F6C6566742073686F756C6420626520696E7369646520746865206669656C64 PUSH0 DUP3 ADD MSTORE POP JUMP JUMPDEST PUSH0 PUSH2 0x2FA6 PUSH1 0x20 DUP4 PUSH2 0x27DF JUMP JUMPDEST SWAP2 POP PUSH2 0x2FB1 DUP3 PUSH2 0x2F72 JUMP JUMPDEST PUSH1 0x20 DUP3 ADD SWAP1 POP SWAP2 SWAP1 POP JUMP JUMPDEST PUSH0 PUSH1 0x20 DUP3 ADD SWAP1 POP DUP2 DUP2 SUB PUSH0 DUP4 ADD MSTORE PUSH2 0x2FD3 DUP2 PUSH2 0x2F9A JUMP JUMPDEST SWAP1 POP SWAP2 SWAP1 POP JUMP JUMPDEST PUSH32 0x5F72696768742073686F756C6420626520696E7369646520746865206669656C PUSH0 DUP3 ADD MSTORE PUSH32 0x6400000000000000000000000000000000000000000000000000000000000000 PUSH1 0x20 DUP3 ADD MSTORE POP JUMP JUMPDEST PUSH0 PUSH2 0x3034 PUSH1 0x21 DUP4 PUSH2 0x27DF JUMP JUMPDEST SWAP2 POP PUSH2 0x303F DUP3 PUSH2 0x2FDA JUMP JUMPDEST PUSH1 0x40 DUP3 ADD SWAP1 POP SWAP2 SWAP1 POP JUMP JUMPDEST PUSH0 PUSH1 0x20 DUP3 ADD SWAP1 POP DUP2 DUP2 SUB PUSH0 DUP4 ADD MSTORE PUSH2 0x3061 DUP2 PUSH2 0x3028 JUMP JUMPDEST SWAP1 POP SWAP2 SWAP1 POP JUMP JUMPDEST PUSH0 DUP2 SWAP1 POP SWAP2 SWAP1 POP JUMP JUMPDEST PUSH0 PUSH2 0x308B PUSH2 0x3086 PUSH2 0x3081 DUP5 PUSH2 0x3068 JUMP JUMPDEST PUSH2 0x2524 JUMP JUMPDEST PUSH2 0x23DD JUMP JUMPDEST SWAP1 POP SWAP2 SWAP1 POP JUMP JUMPDEST PUSH2 0x309B DUP2 PUSH2 0x3071 JUMP JUMPDEST DUP3 MSTORE POP POP JUMP JUMPDEST PUSH0 PUSH1 0x60 DUP3 ADD SWAP1 POP PUSH2 0x30B4 PUSH0 DUP4 ADD DUP7 PUSH2 0x23E6 JUMP JUMPDEST PUSH2 0x30C1 PUSH1 0x20 DUP4 ADD DUP6 PUSH2 0x23E6 JUMP JUMPDEST PUSH2 0x30CE PUSH1 0x40 DUP4 ADD DUP5 PUSH2 0x3092 JUMP JUMPDEST SWAP5 SWAP4 POP POP POP POP JUMP JUMPDEST PUSH0 DUP2 MLOAD SWAP1 POP PUSH2 0x30E4 DUP2 PUSH2 0x241F JUMP JUMPDEST SWAP3 SWAP2 POP POP JUMP JUMPDEST PUSH0 PUSH0 PUSH1 0x40 DUP4 DUP6 SUB SLT ISZERO PUSH2 0x3100 JUMPI PUSH2 0x30FF PUSH2 0x2417 JUMP JUMPDEST JUMPDEST PUSH0 PUSH2 0x310D DUP6 DUP3 DUP7 ADD PUSH2 0x30D6 JUMP JUMPDEST SWAP3 POP POP PUSH1 0x20 PUSH2 0x311E DUP6 DUP3 DUP7 ADD PUSH2 0x30D6 JUMP JUMPDEST SWAP2 POP POP SWAP3 POP SWAP3 SWAP1 POP JUMP JUMPDEST PUSH32 0x4E487B7100000000000000000000000000000000000000000000000000000000 PUSH0 MSTORE PUSH1 0x12 PUSH1 0x4 MSTORE PUSH1 0x24 PUSH0 REVERT JUMPDEST PUSH32 0x4E616D65206D7573742062652032302063686172616374657273206F72206C65 PUSH0 DUP3 ADD MSTORE PUSH32 0x7373000000000000000000000000000000000000000000000000000000000000 PUSH1 0x20 DUP3 ADD MSTORE POP JUMP JUMPDEST PUSH0 PUSH2 0x31AF PUSH1 0x22 DUP4 PUSH2 0x27DF JUMP JUMPDEST SWAP2 POP PUSH2 0x31BA DUP3 PUSH2 0x3155 JUMP JUMPDEST PUSH1 0x40 DUP3 ADD SWAP1 POP SWAP2 SWAP1 POP JUMP JUMPDEST PUSH0 PUSH1 0x20 DUP3 ADD SWAP1 POP DUP2 DUP2 SUB PUSH0 DUP4 ADD MSTORE PUSH2 0x31DC DUP2 PUSH2 0x31A3 JUMP JUMPDEST SWAP1 POP SWAP2 SWAP1 POP JUMP JUMPDEST PUSH0 DUP2 SWAP1 POP DUP2 PUSH0 MSTORE PUSH1 0x20 PUSH0 KECCAK256 SWAP1 POP SWAP2 SWAP1 POP JUMP JUMPDEST PUSH0 PUSH1 0x20 PUSH1 0x1F DUP4 ADD DIV SWAP1 POP SWAP2 SWAP1 POP JUMP JUMPDEST PUSH0 DUP3 DUP3 SHL SWAP1 POP SWAP3 SWAP2 POP POP JUMP JUMPDEST PUSH0 PUSH1 0x8 DUP4 MUL PUSH2 0x323F PUSH32 0xFFFFFFFFFFFFFFFFFFFFFFFFFFFFFFFFFFFFFFFFFFFFFFFFFFFFFFFFFFFFFFFF DUP3 PUSH2 0x3204 JUMP JUMPDEST PUSH2 0x3249 DUP7 DUP4 PUSH2 0x3204 JUMP JUMPDEST SWAP6 POP DUP1 NOT DUP5 AND SWAP4 POP DUP1 DUP7 AND DUP5 OR SWAP3 POP POP POP SWAP4 SWAP3 POP POP POP JUMP JUMPDEST PUSH0 PUSH2 0x327B PUSH2 0x3276 PUSH2 0x3271 DUP5 PUSH2 0x23DD JUMP JUMPDEST PUSH2 0x2524 JUMP JUMPDEST PUSH2 0x23DD JUMP JUMPDEST SWAP1 POP SWAP2 SWAP1 POP JUMP JUMPDEST PUSH0 DUP2 SWAP1 POP SWAP2 SWAP1 POP JUMP JUMPDEST PUSH2 0x3294 DUP4 PUSH2 0x3261 JUMP JUMPDEST PUSH2 0x32A8 PUSH2 0x32A0 DUP3 PUSH2 0x3282 JUMP JUMPDEST DUP5 DUP5 SLOAD PUSH2 0x3210 JUMP JUMPDEST DUP3 SSTORE POP POP POP POP JUMP JUMPDEST PUSH0 PUSH0 SWAP1 POP SWAP1 JUMP JUMPDEST PUSH2 0x32BF PUSH2 0x32B0 JUMP JUMPDEST PUSH2 0x32CA DUP2 DUP5 DUP5 PUSH2 0x328B JUMP JUMPDEST POP POP POP JUMP JUMPDEST JUMPDEST DUP2 DUP2 LT ISZERO PUSH2 0x32ED JUMPI PUSH2 0x32E2 PUSH0 DUP3 PUSH2 0x32B7 JUMP JUMPDEST PUSH1 0x1 DUP2 ADD SWAP1 POP PUSH2 0x32D0 JUMP JUMPDEST POP POP JUMP JUMPDEST PUSH1 0x1F DUP3 GT ISZERO PUSH2 0x3332 JUMPI PUSH2 0x3303 DUP2 PUSH2 0x31E3 JUMP JUMPDEST PUSH2 0x330C DUP5 PUSH2 0x31F5 JUMP JUMPDEST DUP2 ADD PUSH1 0x20 DUP6 LT ISZERO PUSH2 0x331B JUMPI DUP2 SWAP1 POP JUMPDEST PUSH2 0x332F PUSH2 0x3327 DUP6 PUSH2 0x31F5 JUMP JUMPDEST DUP4 ADD DUP3 PUSH2 0x32CF JUMP JUMPDEST POP POP JUMPDEST POP POP POP JUMP JUMPDEST PUSH0 DUP3 DUP3 SHR SWAP1 POP SWAP3 SWAP2 POP POP JUMP JUMPDEST PUSH0 PUSH2 0x3352 PUSH0 NOT DUP5 PUSH1 0x8 MUL PUSH2 0x3337 JUMP JUMPDEST NOT DUP1 DUP4 AND SWAP2 POP POP SWAP3 SWAP2 POP POP JUMP JUMPDEST PUSH0 PUSH2 0x336A DUP4 DUP4 PUSH2 0x3343 JUMP JUMPDEST SWAP2 POP DUP3 PUSH1 0x2 MUL DUP3 OR SWAP1 POP SWAP3 SWAP2 POP POP JUMP JUMPDEST PUSH2 0x3383 DUP3 PUSH2 0x2678 JUMP JUMPDEST PUSH8 0xFFFFFFFFFFFFFFFF DUP2 GT ISZERO PUSH2 0x339C JUMPI PUSH2 0x339B PUSH2 0x2940 JUMP JUMPDEST JUMPDEST PUSH2 0x33A6 DUP3 SLOAD PUSH2 0x2F42 JUMP JUMPDEST PUSH2 0x33B1 DUP3 DUP3 DUP6 PUSH2 0x32F1 JUMP JUMPDEST PUSH0 PUSH1 0x20 SWAP1 POP PUSH1 0x1F DUP4 GT PUSH1 0x1 DUP2 EQ PUSH2 0x33E2 JUMPI PUSH0 DUP5 ISZERO PUSH2 0x33D0 JUMPI DUP3 DUP8 ADD MLOAD SWAP1 POP JUMPDEST PUSH2 0x33DA DUP6 DUP3 PUSH2 0x335F JUMP JUMPDEST DUP7 SSTORE POP PUSH2 0x3441 JUMP JUMPDEST PUSH1 0x1F NOT DUP5 AND PUSH2 0x33F0 DUP7 PUSH2 0x31E3 JUMP JUMPDEST PUSH0 JUMPDEST DUP3 DUP2 LT ISZERO PUSH2 0x3417 JUMPI DUP5 DUP10 ADD MLOAD DUP3 SSTORE PUSH1 0x1 DUP3 ADD SWAP2 POP PUSH1 0x20 DUP6 ADD SWAP5 POP PUSH1 0x20 DUP2 ADD SWAP1 POP PUSH2 0x33F2 JUMP JUMPDEST DUP7 DUP4 LT ISZERO PUSH2 0x3434 JUMPI DUP5 DUP10 ADD MLOAD PUSH2 0x3430 PUSH1 0x1F DUP10 AND DUP3 PUSH2 0x3343 JUMP JUMPDEST DUP4 SSTORE POP JUMPDEST PUSH1 0x1 PUSH1 0x2 DUP9 MUL ADD DUP9 SSTORE POP POP POP JUMPDEST POP POP POP POP POP POP JUMP JUMPDEST PUSH0 PUSH1 0x20 DUP3 ADD SWAP1 POP DUP2 DUP2 SUB PUSH0 DUP4 ADD MSTORE PUSH2 0x3461 DUP2 DUP5 PUSH2 0x27EF JUMP JUMPDEST SWAP1 POP SWAP3 SWAP2 POP POP JUMP JUMPDEST PUSH32 0x4E487B7100000000000000000000000000000000000000000000000000000000 PUSH0 MSTORE PUSH1 0x11 PUSH1 0x4 MSTORE PUSH1 0x24 PUSH0 REVERT JUMPDEST PUSH0 PUSH2 0x34A0 DUP3 PUSH2 0x23DD JUMP JUMPDEST SWAP2 POP PUSH32 0xFFFFFFFFFFFFFFFFFFFFFFFFFFFFFFFFFFFFFFFFFFFFFFFFFFFFFFFFFFFFFFFF DUP3 SUB PUSH2 0x34D2 JUMPI PUSH2 0x34D1 PUSH2 0x3469 JUMP JUMPDEST JUMPDEST PUSH1 0x1 DUP3 ADD SWAP1 POP SWAP2 SWAP1 POP JUMP JUMPDEST PUSH0 PUSH2 0x34E7 DUP3 PUSH2 0x2871 JUMP JUMPDEST SWAP2 POP PUSH0 DUP3 SUB PUSH2 0x34F9 JUMPI PUSH2 0x34F8 PUSH2 0x3469 JUMP JUMPDEST JUMPDEST PUSH1 0x1 DUP3 SUB SWAP1 POP SWAP2 SWAP1 POP JUMP JUMPDEST PUSH32 0x53746172742074696D65206D757374206265206265666F726520656E64207469 PUSH0 DUP3 ADD MSTORE PUSH32 0x6D65000000000000000000000000000000000000000000000000000000000000 PUSH1 0x20 DUP3 ADD MSTORE POP JUMP JUMPDEST PUSH0 PUSH2 0x355E PUSH1 0x22 DUP4 PUSH2 0x27DF JUMP JUMPDEST SWAP2 POP PUSH2 0x3569 DUP3 PUSH2 0x3504 JUMP JUMPDEST PUSH1 0x40 DUP3 ADD SWAP1 POP SWAP2 SWAP1 POP JUMP JUMPDEST PUSH0 PUSH1 0x20 DUP3 ADD SWAP1 POP DUP2 DUP2 SUB PUSH0 DUP4 ADD MSTORE PUSH2 0x358B DUP2 PUSH2 0x3552 JUMP JUMPDEST SWAP1 POP SWAP2 SWAP1 POP JUMP JUMPDEST PUSH32 0x4E6F742077697468696E2074686520726567697374726174696F6E2070657269 PUSH0 DUP3 ADD MSTORE PUSH32 0x6F64210000000000000000000000000000000000000000000000000000000000 PUSH1 0x20 DUP3 ADD MSTORE POP JUMP JUMPDEST PUSH0 PUSH2 0x35EC PUSH1 0x23 DUP4 PUSH2 0x27DF JUMP JUMPDEST SWAP2 POP PUSH2 0x35F7 DUP3 PUSH2 0x3592 JUMP JUMPDEST PUSH1 0x40 DUP3 ADD SWAP1 POP SWAP2 SWAP1 POP JUMP JUMPDEST PUSH0 PUSH1 0x20 DUP3 ADD SWAP1 POP DUP2 DUP2 SUB PUSH0 DUP4 ADD MSTORE PUSH2 0x3619 DUP2 PUSH2 0x35E0 JUMP JUMPDEST SWAP1 POP SWAP2 SWAP1 POP JUMP JUMPDEST PUSH32 0x5468697320756E69717565206861736820697320616C72656164792075736564 PUSH0 DUP3 ADD MSTORE PUSH32 0x2100000000000000000000000000000000000000000000000000000000000000 PUSH1 0x20 DUP3 ADD MSTORE POP JUMP JUMPDEST PUSH0 PUSH2 0x367A PUSH1 0x21 DUP4 PUSH2 0x27DF JUMP JUMPDEST SWAP2 POP PUSH2 0x3685 DUP3 PUSH2 0x3620 JUMP JUMPDEST PUSH1 0x40 DUP3 ADD SWAP1 POP SWAP2 SWAP1 POP JUMP JUMPDEST PUSH0 PUSH1 0x20 DUP3 ADD SWAP1 POP DUP2 DUP2 SUB PUSH0 DUP4 ADD MSTORE PUSH2 0x36A7 DUP2 PUSH2 0x366E JUMP JUMPDEST SWAP1 POP SWAP2 SWAP1 POP JUMP JUMPDEST PUSH32 0x4E6F742077697468696E2074686520766F74696E6720706572696F6421000000 PUSH0 DUP3 ADD MSTORE POP JUMP JUMPDEST PUSH0 PUSH2 0x36E2 PUSH1 0x1D DUP4 PUSH2 0x27DF JUMP JUMPDEST SWAP2 POP PUSH2 0x36ED DUP3 PUSH2 0x36AE JUMP JUMPDEST PUSH1 0x20 DUP3 ADD SWAP1 POP SWAP2 SWAP1 POP JUMP JUMPDEST PUSH0 PUSH1 0x20 DUP3 ADD SWAP1 POP DUP2 DUP2 SUB PUSH0 DUP4 ADD MSTORE PUSH2 0x370F DUP2 PUSH2 0x36D6 JUMP JUMPDEST SWAP1 POP SWAP2 SWAP1 POP JUMP JUMPDEST PUSH32 0x496E76616C69642063616E646964617465210000000000000000000000000000 PUSH0 DUP3 ADD MSTORE POP JUMP JUMPDEST PUSH0 PUSH2 0x374A PUSH1 0x12 DUP4 PUSH2 0x27DF JUMP JUMPDEST SWAP2 POP PUSH2 0x3755 DUP3 PUSH2 0x3716 JUMP JUMPDEST PUSH1 0x20 DUP3 ADD SWAP1 POP SWAP2 SWAP1 POP JUMP JUMPDEST PUSH0 PUSH1 0x20 DUP3 ADD SWAP1 POP DUP2 DUP2 SUB PUSH0 DUP4 ADD MSTORE PUSH2 0x3777 DUP2 PUSH2 0x373E JUMP JUMPDEST SWAP1 POP SWAP2 SWAP1 POP JUMP JUMPDEST PUSH32 0x43616E64696461746520646F6573206E6F742065786973742100000000000000 PUSH0 DUP3 ADD MSTORE POP JUMP JUMPDEST PUSH0 PUSH2 0x37B2 PUSH1 0x19 DUP4 PUSH2 0x27DF JUMP JUMPDEST SWAP2 POP PUSH2 0x37BD DUP3 PUSH2 0x377E JUMP JUMPDEST PUSH1 0x20 DUP3 ADD SWAP1 POP SWAP2 SWAP1 POP JUMP JUMPDEST PUSH0 PUSH1 0x20 DUP3 ADD SWAP1 POP DUP2 DUP2 SUB PUSH0 DUP4 ADD MSTORE PUSH2 0x37DF DUP2 PUSH2 0x37A6 JUMP JUMPDEST SWAP1 POP SWAP2 SWAP1 POP JUMP JUMPDEST PUSH0 PUSH2 0x37F0 DUP3 PUSH2 0x27BD JUMP JUMPDEST SWAP2 POP PUSH8 0xFFFFFFFFFFFFFFFF DUP3 SUB PUSH2 0x380A JUMPI PUSH2 0x3809 PUSH2 0x3469 JUMP JUMPDEST JUMPDEST PUSH1 0x1 DUP3 ADD SWAP1 POP SWAP2 SWAP1 POP JUMP JUMPDEST PUSH32 0x496E646578206F7574206F6620626F756E647300000000000000000000000000 PUSH0 DUP3 ADD MSTORE POP JUMP JUMPDEST PUSH0 PUSH2 0x3849 PUSH1 0x13 DUP4 PUSH2 0x27DF JUMP JUMPDEST SWAP2 POP PUSH2 0x3854 DUP3 PUSH2 0x3815 JUMP JUMPDEST PUSH1 0x20 DUP3 ADD SWAP1 POP SWAP2 SWAP1 POP JUMP JUMPDEST PUSH0 PUSH1 0x20 DUP3 ADD SWAP1 POP DUP2 DUP2 SUB PUSH0 DUP4 ADD MSTORE PUSH2 0x3876 DUP2 PUSH2 0x383D JUMP JUMPDEST SWAP1 POP SWAP2 SWAP1 POP JUMP JUMPDEST PUSH32 0x54686520636F6D6D69746D656E7420686173206265656E207375626D69747465 PUSH0 DUP3 ADD MSTORE PUSH32 0x6400000000000000000000000000000000000000000000000000000000000000 PUSH1 0x20 DUP3 ADD MSTORE POP JUMP JUMPDEST PUSH0 PUSH2 0x38D7 PUSH1 0x21 DUP4 PUSH2 0x27DF JUMP JUMPDEST SWAP2 POP PUSH2 0x38E2 DUP3 PUSH2 0x387D JUMP JUMPDEST PUSH1 0x40 DUP3 ADD SWAP1 POP SWAP2 SWAP1 POP JUMP JUMPDEST PUSH0 PUSH1 0x20 DUP3 ADD SWAP1 POP DUP2 DUP2 SUB PUSH0 DUP4 ADD MSTORE PUSH2 0x3904 DUP2 PUSH2 0x38CB JUMP JUMPDEST SWAP1 POP SWAP2 SWAP1 POP JUMP JUMPDEST PUSH0 PUSH1 0x40 DUP3 ADD SWAP1 POP PUSH2 0x391E PUSH0 DUP4 ADD DUP6 PUSH2 0x2880 JUMP JUMPDEST PUSH2 0x392B PUSH1 0x20 DUP4 ADD DUP5 PUSH2 0x23E6 JUMP JUMPDEST SWAP4 SWAP3 POP POP POP JUMP JUMPDEST PUSH32 0x546865206E756C6C696669657220686173206265656E207375626D6974746564 PUSH0 DUP3 ADD MSTORE POP JUMP JUMPDEST PUSH0 PUSH2 0x3966 PUSH1 0x20 DUP4 PUSH2 0x27DF JUMP JUMPDEST SWAP2 POP PUSH2 0x3971 DUP3 PUSH2 0x3932 JUMP JUMPDEST PUSH1 0x20 DUP3 ADD SWAP1 POP SWAP2 SWAP1 POP JUMP JUMPDEST PUSH0 PUSH1 0x20 DUP3 ADD SWAP1 POP DUP2 DUP2 SUB PUSH0 DUP4 ADD MSTORE PUSH2 0x3993 DUP2 PUSH2 0x395A JUMP JUMPDEST SWAP1 POP SWAP2 SWAP1 POP JUMP JUMPDEST PUSH32 0x43616E6E6F742066696E6420796F7572206D65726B6C6520726F6F7400000000 PUSH0 DUP3 ADD MSTORE POP JUMP JUMPDEST PUSH0 PUSH2 0x39CE PUSH1 0x1C DUP4 PUSH2 0x27DF JUMP JUMPDEST SWAP2 POP PUSH2 0x39D9 DUP3 PUSH2 0x399A JUMP JUMPDEST PUSH1 0x20 DUP3 ADD SWAP1 POP SWAP2 SWAP1 POP JUMP JUMPDEST PUSH0 PUSH1 0x20 DUP3 ADD SWAP1 POP DUP2 DUP2 SUB PUSH0 DUP4 ADD MSTORE PUSH2 0x39FB DUP2 PUSH2 0x39C2 JUMP JUMPDEST SWAP1 POP SWAP2 SWAP1 POP JUMP JUMPDEST PUSH0 PUSH1 0x2 SWAP1 POP SWAP2 SWAP1 POP JUMP JUMPDEST PUSH0 DUP2 SWAP1 POP SWAP3 SWAP2 POP POP JUMP JUMPDEST PUSH0 DUP2 SWAP1 POP SWAP2 SWAP1 POP JUMP JUMPDEST PUSH0 PUSH1 0x20 DUP3 ADD SWAP1 POP SWAP2 SWAP1 POP JUMP JUMPDEST PUSH2 0x3A34 DUP2 PUSH2 0x3A02 JUMP JUMPDEST PUSH2 0x3A3E DUP2 DUP5 PUSH2 0x3A0C JUMP JUMPDEST SWAP3 POP PUSH2 0x3A49 DUP3 PUSH2 0x3A16 JUMP JUMPDEST DUP1 PUSH0 JUMPDEST DUP4 DUP2 LT ISZERO PUSH2 0x3A79 JUMPI DUP2 MLOAD PUSH2 0x3A60 DUP8 DUP3 PUSH2 0x25D0 JUMP JUMPDEST SWAP7 POP PUSH2 0x3A6B DUP4 PUSH2 0x3A1F JUMP JUMPDEST SWAP3 POP POP PUSH1 0x1 DUP2 ADD SWAP1 POP PUSH2 0x3A4C JUMP JUMPDEST POP POP POP POP POP POP JUMP JUMPDEST PUSH0 PUSH1 0x2 SWAP1 POP SWAP2 SWAP1 POP JUMP JUMPDEST PUSH0 DUP2 SWAP1 POP SWAP3 SWAP2 POP POP JUMP JUMPDEST PUSH0 DUP2 SWAP1 POP SWAP2 SWAP1 POP JUMP JUMPDEST PUSH0 DUP2 SWAP1 POP SWAP3 SWAP2 POP POP JUMP JUMPDEST PUSH2 0x3AB1 DUP2 PUSH2 0x3A02 JUMP JUMPDEST PUSH2 0x3ABB DUP2 DUP5 PUSH2 0x3A9E JUMP JUMPDEST SWAP3 POP PUSH2 0x3AC6 DUP3 PUSH2 0x3A16 JUMP JUMPDEST DUP1 PUSH0 JUMPDEST DUP4 DUP2 LT ISZERO PUSH2 0x3AF6 JUMPI DUP2 MLOAD PUSH2 0x3ADD DUP8 DUP3 PUSH2 0x25D0 JUMP JUMPDEST SWAP7 POP PUSH2 0x3AE8 DUP4 PUSH2 0x3A1F JUMP JUMPDEST SWAP3 POP POP PUSH1 0x1 DUP2 ADD SWAP1 POP PUSH2 0x3AC9 JUMP JUMPDEST POP POP POP POP POP POP JUMP JUMPDEST PUSH0 PUSH2 0x3B09 DUP4 DUP4 PUSH2 0x3AA8 JUMP JUMPDEST PUSH1 0x40 DUP4 ADD SWAP1 POP SWAP3 SWAP2 POP POP JUMP JUMPDEST PUSH0 PUSH1 0x20 DUP3 ADD SWAP1 POP SWAP2 SWAP1 POP JUMP JUMPDEST PUSH2 0x3B2A DUP2 PUSH2 0x3A81 JUMP JUMPDEST PUSH2 0x3B34 DUP2 DUP5 PUSH2 0x3A8B JUMP JUMPDEST SWAP3 POP PUSH2 0x3B3F DUP3 PUSH2 0x3A95 JUMP JUMPDEST DUP1 PUSH0 JUMPDEST DUP4 DUP2 LT ISZERO PUSH2 0x3B6F JUMPI DUP2 MLOAD PUSH2 0x3B56 DUP8 DUP3 PUSH2 0x3AFE JUMP JUMPDEST SWAP7 POP PUSH2 0x3B61 DUP4 PUSH2 0x3B15 JUMP JUMPDEST SWAP3 POP POP PUSH1 0x1 DUP2 ADD SWAP1 POP PUSH2 0x3B42 JUMP JUMPDEST POP POP POP POP POP POP JUMP JUMPDEST PUSH0 PUSH2 0x140 DUP3 ADD SWAP1 POP PUSH2 0x3B8B PUSH0 DUP4 ADD DUP8 PUSH2 0x3A2B JUMP JUMPDEST PUSH2 0x3B98 PUSH1 0x40 DUP4 ADD DUP7 PUSH2 0x3B21 JUMP JUMPDEST PUSH2 0x3BA5 PUSH1 0xC0 DUP4 ADD DUP6 PUSH2 0x3A2B JUMP JUMPDEST PUSH2 0x3BB3 PUSH2 0x100 DUP4 ADD DUP5 PUSH2 0x3A2B JUMP JUMPDEST SWAP6 SWAP5 POP POP POP POP POP JUMP JUMPDEST PUSH2 0x3BC5 DUP2 PUSH2 0x24D2 JUMP JUMPDEST DUP2 EQ PUSH2 0x3BCF JUMPI PUSH0 PUSH0 REVERT JUMPDEST POP JUMP JUMPDEST PUSH0 DUP2 MLOAD SWAP1 POP PUSH2 0x3BE0 DUP2 PUSH2 0x3BBC JUMP JUMPDEST SWAP3 SWAP2 POP POP JUMP JUMPDEST PUSH0 PUSH1 0x20 DUP3 DUP5 SUB SLT ISZERO PUSH2 0x3BFB JUMPI PUSH2 0x3BFA PUSH2 0x2417 JUMP JUMPDEST JUMPDEST PUSH0 PUSH2 0x3C08 DUP5 DUP3 DUP6 ADD PUSH2 0x3BD2 JUMP JUMPDEST SWAP2 POP POP SWAP3 SWAP2 POP POP JUMP JUMPDEST PUSH32 0x496E76616C69642070726F6F6600000000000000000000000000000000000000 PUSH0 DUP3 ADD MSTORE POP JUMP JUMPDEST PUSH0 PUSH2 0x3C45 PUSH1 0xD DUP4 PUSH2 0x27DF JUMP JUMPDEST SWAP2 POP PUSH2 0x3C50 DUP3 PUSH2 0x3C11 JUMP JUMPDEST PUSH1 0x20 DUP3 ADD SWAP1 POP SWAP2 SWAP1 POP JUMP JUMPDEST PUSH0 PUSH1 0x20 DUP3 ADD SWAP1 POP DUP2 DUP2 SUB PUSH0 DUP4 ADD MSTORE PUSH2 0x3C72 DUP2 PUSH2 0x3C39 JUMP JUMPDEST SWAP1 POP SWAP2 SWAP1 POP JUMP JUMPDEST PUSH0 DUP2 PUSH1 0x1 SHR SWAP1 POP SWAP2 SWAP1 POP JUMP JUMPDEST PUSH0 PUSH0 DUP3 SWAP2 POP DUP4 SWAP1 POP JUMPDEST PUSH1 0x1 DUP6 GT ISZERO PUSH2 0x3CCE JUMPI DUP1 DUP7 DIV DUP2 GT ISZERO PUSH2 0x3CAA JUMPI PUSH2 0x3CA9 PUSH2 0x3469 JUMP JUMPDEST JUMPDEST PUSH1 0x1 DUP6 AND ISZERO PUSH2 0x3CB9 JUMPI DUP1 DUP3 MUL SWAP2 POP JUMPDEST DUP1 DUP2 MUL SWAP1 POP PUSH2 0x3CC7 DUP6 PUSH2 0x3C79 JUMP JUMPDEST SWAP5 POP PUSH2 0x3C8E JUMP JUMPDEST SWAP5 POP SWAP5 SWAP3 POP POP POP JUMP JUMPDEST PUSH0 DUP3 PUSH2 0x3CE6 JUMPI PUSH1 0x1 SWAP1 POP PUSH2 0x3DA1 JUMP JUMPDEST DUP2 PUSH2 0x3CF3 JUMPI PUSH0 SWAP1 POP PUSH2 0x3DA1 JUMP JUMPDEST DUP2 PUSH1 0x1 DUP2 EQ PUSH2 0x3D09 JUMPI PUSH1 0x2 DUP2 EQ PUSH2 0x3D13 JUMPI PUSH2 0x3D42 JUMP JUMPDEST PUSH1 0x1 SWAP2 POP POP PUSH2 0x3DA1 JUMP JUMPDEST PUSH1 0xFF DUP5 GT ISZERO PUSH2 0x3D25 JUMPI PUSH2 0x3D24 PUSH2 0x3469 JUMP JUMPDEST JUMPDEST DUP4 PUSH1 0x2 EXP SWAP2 POP DUP5 DUP3 GT ISZERO PUSH2 0x3D3C JUMPI PUSH2 0x3D3B PUSH2 0x3469 JUMP JUMPDEST JUMPDEST POP PUSH2 0x3DA1 JUMP JUMPDEST POP PUSH1 0x20 DUP4 LT PUSH2 0x133 DUP4 LT AND PUSH1 0x4E DUP5 LT PUSH1 0xB DUP5 LT AND OR ISZERO PUSH2 0x3D77 JUMPI DUP3 DUP3 EXP SWAP1 POP DUP4 DUP2 GT ISZERO PUSH2 0x3D72 JUMPI PUSH2 0x3D71 PUSH2 0x3469 JUMP JUMPDEST JUMPDEST PUSH2 0x3DA1 JUMP JUMPDEST PUSH2 0x3D84 DUP5 DUP5 DUP5 PUSH1 0x1 PUSH2 0x3C85 JUMP JUMPDEST SWAP3 POP SWAP1 POP DUP2 DUP5 DIV DUP2 GT ISZERO PUSH2 0x3D9B JUMPI PUSH2 0x3D9A PUSH2 0x3469 JUMP JUMPDEST JUMPDEST DUP2 DUP2 MUL SWAP1 POP JUMPDEST SWAP4 SWAP3 POP POP POP JUMP JUMPDEST PUSH0 PUSH2 0x3DB2 DUP3 PUSH2 0x2871 JUMP JUMPDEST SWAP2 POP PUSH2 0x3DBD DUP4 PUSH2 0x2871 JUMP JUMPDEST SWAP3 POP PUSH2 0x3DCE PUSH4 0xFFFFFFFF DUP5 DUP5 PUSH2 0x3CD7 JUMP JUMPDEST SWAP1 POP SWAP3 SWAP2 POP POP JUMP JUMPDEST PUSH32 0x4D65726B6C6520747265652069732066756C6C2E204E6F206D6F7265206C6561 PUSH0 DUP3 ADD MSTORE PUSH32 0x7665732063616E20626520616464656400000000000000000000000000000000 PUSH1 0x20 DUP3 ADD MSTORE POP JUMP JUMPDEST PUSH0 PUSH2 0x3E30 PUSH1 0x30 DUP4 PUSH2 0x27DF JUMP JUMPDEST SWAP2 POP PUSH2 0x3E3B DUP3 PUSH2 0x3DD6 JUMP JUMPDEST PUSH1 0x40 DUP3 ADD SWAP1 POP SWAP2 SWAP1 POP JUMP JUMPDEST PUSH0 PUSH1 0x20 DUP3 ADD SWAP1 POP DUP2 DUP2 SUB PUSH0 DUP4 ADD MSTORE PUSH2 0x3E5D DUP2 PUSH2 0x3E24 JUMP JUMPDEST SWAP1 POP SWAP2 SWAP1 POP JUMP JUMPDEST PUSH0 PUSH2 0x3E6E DUP3 PUSH2 0x2871 JUMP JUMPDEST SWAP2 POP PUSH2 0x3E79 DUP4 PUSH2 0x2871 JUMP JUMPDEST SWAP3 POP DUP3 PUSH2 0x3E89 JUMPI PUSH2 0x3E88 PUSH2 0x3128 JUMP JUMPDEST JUMPDEST DUP3 DUP3 MOD SWAP1 POP SWAP3 SWAP2 POP POP JUMP JUMPDEST PUSH0 PUSH2 0x3E9E DUP3 PUSH2 0x2871 JUMP JUMPDEST SWAP2 POP PUSH2 0x3EA9 DUP4 PUSH2 0x2871 JUMP JUMPDEST SWAP3 POP DUP3 PUSH2 0x3EB9 JUMPI PUSH2 0x3EB8 PUSH2 0x3128 JUMP JUMPDEST JUMPDEST DUP3 DUP3 DIV SWAP1 POP SWAP3 SWAP2 POP POP JUMP JUMPDEST PUSH0 PUSH2 0x3ECE DUP3 PUSH2 0x2871 JUMP JUMPDEST SWAP2 POP PUSH2 0x3ED9 DUP4 PUSH2 0x2871 JUMP JUMPDEST SWAP3 POP DUP3 DUP3 ADD SWAP1 POP PUSH4 0xFFFFFFFF DUP2 GT ISZERO PUSH2 0x3EF5 JUMPI PUSH2 0x3EF4 PUSH2 0x3469 JUMP JUMPDEST JUMPDEST SWAP3 SWAP2 POP POP JUMP INVALID LOG2 PUSH5 0x6970667358 0x22 SLT KECCAK256 LOG2 DUP16 PC 0xAE 0xC1 0xD8 0xF6 PUSH26 0x87098341D488299530F72B40D35EC71ED43FD8394D7BE2A86473 PUSH16 0x6C634300081B00330000000000000000 "
		},
		"gasEstimates": {
			"creation": {
				"codeDepositCost": "3235400",
				"executionCost": "infinite",
				"totalCost": "infinite"
			},
			"external": {
				"FIELD_SIZE()": "459",
				"ROOT_HISTORY_SIZE()": "420",
				"ZERO_VALUE()": "391",
				"addCandidate(uint64,string)": "infinite",
				"candidates(uint256)": "infinite",
				"commitments(bytes32)": "2874",
				"commitmentss(uint256)": "infinite",
				"currentRootIndex()": "2556",
				"deleteCandidate(uint256)": "infinite",
				"filledSubtrees(uint256)": "2864",
				"getAllCandidates()": "infinite",
				"getLastRoot()": "4760",
				"getOptionCounter(uint256)": "infinite",
				"getOwner()": "2648",
				"getValidators()": "infinite",
				"hashLeftRight(uint256,uint256)": "infinite",
				"hasher()": "infinite",
				"isKnownRoot(bytes32)": "infinite",
				"isVoterRegistered(uint256)": "2855",
				"levels()": "2511",
				"nextIndex()": "2649",
				"nullifiers(bytes32)": "2898",
				"numCandidates()": "2493",
				"owner()": "2576",
				"pendingUniqueHashes(uint256)": "infinite",
				"registerVoter(uint256,uint256)": "infinite",
				"registrationEnd()": "2494",
				"registrationStart()": "2492",
				"roots(uint256)": "2821",
				"setRegistrationPeriod(uint256,uint256)": "infinite",
				"setVotingPeriod(uint256,uint256)": "infinite",
				"uniqueHashes(uint256)": "2830",
				"verifier()": "infinite",
				"vote(uint256,uint256,uint256,uint256[2],uint256[2][2],uint256[2])": "infinite",
				"votingEnd()": "2536",
				"votingStart()": "2472",
				"zeros(uint256)": "1465"
			}
		},
		"methodIdentifiers": {
			"FIELD_SIZE()": "414a37ba",
			"ROOT_HISTORY_SIZE()": "cd87a3b4",
			"ZERO_VALUE()": "ec732959",
			"addCandidate(uint64,string)": "5e559ea1",
			"candidates(uint256)": "3477ee2e",
			"commitments(bytes32)": "839df945",
			"commitmentss(uint256)": "32bcce08",
			"currentRootIndex()": "90eeb02b",
			"deleteCandidate(uint256)": "1e620cd4",
			"filledSubtrees(uint256)": "f178e47c",
			"getAllCandidates()": "2e6997fe",
			"getLastRoot()": "ba70f757",
			"getOptionCounter(uint256)": "955e0377",
			"getOwner()": "893d20e8",
			"getValidators()": "b7ab4db5",
			"hashLeftRight(uint256,uint256)": "5bb93995",
			"hasher()": "ed33639f",
			"isKnownRoot(bytes32)": "6d9833e3",
			"isVoterRegistered(uint256)": "6d3cba61",
			"levels()": "4ecf518b",
			"nextIndex()": "fc7e9c6f",
			"nullifiers(bytes32)": "2997e86b",
			"numCandidates()": "5216509a",
			"owner()": "8da5cb5b",
			"pendingUniqueHashes(uint256)": "d290a3cf",
			"registerVoter(uint256,uint256)": "be00d6a1",
			"registrationEnd()": "13446a75",
			"registrationStart()": "b4062a31",
			"roots(uint256)": "c2b40ae4",
			"setRegistrationPeriod(uint256,uint256)": "8bb2fb75",
			"setVotingPeriod(uint256,uint256)": "a15a36c7",
			"uniqueHashes(uint256)": "c1b1f732",
			"verifier()": "2b7ac3f3",
			"vote(uint256,uint256,uint256,uint256[2],uint256[2][2],uint256[2])": "ce8f6377",
			"votingEnd()": "85a38635",
			"votingStart()": "101158af",
			"zeros(uint256)": "e8295588"
		}
	},
	"abi": [
		{
			"inputs": [
				{
					"internalType": "uint32",
					"name": "_levels",
					"type": "uint32"
				},
				{
					"internalType": "contract IHasher",
					"name": "_hasher",
					"type": "address"
				},
				{
					"internalType": "contract IVerifier",
					"name": "_verifier",
					"type": "address"
				},
				{
					"internalType": "uint256",
					"name": "_registrationStart",
					"type": "uint256"
				},
				{
					"internalType": "uint256",
					"name": "_registrationEnd",
					"type": "uint256"
				},
				{
					"internalType": "uint256",
					"name": "_votingStart",
					"type": "uint256"
				},
				{
					"internalType": "uint256",
					"name": "_votingEnd",
					"type": "uint256"
				}
			],
			"stateMutability": "nonpayable",
			"type": "constructor"
		},
		{
			"anonymous": false,
			"inputs": [
				{
					"indexed": true,
					"internalType": "uint256",
					"name": "candidateId",
					"type": "uint256"
				},
				{
					"indexed": false,
					"internalType": "string",
					"name": "name",
					"type": "string"
				}
			],
			"name": "CandidateAdded",
			"type": "event"
		},
		{
			"anonymous": false,
			"inputs": [
				{
					"indexed": true,
					"internalType": "uint256",
					"name": "candidateId",
					"type": "uint256"
				}
			],
			"name": "CandidateDeleted",
			"type": "event"
		},
		{
			"anonymous": false,
			"inputs": [
				{
					"indexed": true,
					"internalType": "bytes32",
					"name": "commitment",
					"type": "bytes32"
				},
				{
					"indexed": false,
					"internalType": "uint32",
					"name": "leafIndex",
					"type": "uint32"
				},
				{
					"indexed": false,
					"internalType": "uint256",
					"name": "timestamp",
					"type": "uint256"
				}
			],
			"name": "Commit",
			"type": "event"
		},
		{
			"anonymous": false,
			"inputs": [
				{
					"indexed": true,
					"internalType": "address",
					"name": "voter",
					"type": "address"
				},
				{
					"indexed": false,
					"internalType": "uint256",
					"name": "uniqueHash",
					"type": "uint256"
				},
				{
					"indexed": false,
					"internalType": "uint256",
					"name": "commitment",
					"type": "uint256"
				}
			],
			"name": "VoterRegistered",
			"type": "event"
		},
		{
			"inputs": [],
			"name": "FIELD_SIZE",
			"outputs": [
				{
					"internalType": "uint256",
					"name": "",
					"type": "uint256"
				}
			],
			"stateMutability": "view",
			"type": "function"
		},
		{
			"inputs": [],
			"name": "ROOT_HISTORY_SIZE",
			"outputs": [
				{
					"internalType": "uint32",
					"name": "",
					"type": "uint32"
				}
			],
			"stateMutability": "view",
			"type": "function"
		},
		{
			"inputs": [],
			"name": "ZERO_VALUE",
			"outputs": [
				{
					"internalType": "uint256",
					"name": "",
					"type": "uint256"
				}
			],
			"stateMutability": "view",
			"type": "function"
		},
		{
			"inputs": [
				{
					"internalType": "uint64",
					"name": "_id",
					"type": "uint64"
				},
				{
					"internalType": "string",
					"name": "_name",
					"type": "string"
				}
			],
			"name": "addCandidate",
			"outputs": [],
			"stateMutability": "nonpayable",
			"type": "function"
		},
		{
			"inputs": [
				{
					"internalType": "uint256",
					"name": "",
					"type": "uint256"
				}
			],
			"name": "candidates",
			"outputs": [
				{
					"internalType": "uint64",
					"name": "id",
					"type": "uint64"
				},
				{
					"internalType": "string",
					"name": "name",
					"type": "string"
				},
				{
					"internalType": "uint64",
					"name": "voteCount",
					"type": "uint64"
				},
				{
					"internalType": "bool",
					"name": "exists",
					"type": "bool"
				}
			],
			"stateMutability": "view",
			"type": "function"
		},
		{
			"inputs": [
				{
					"internalType": "bytes32",
					"name": "",
					"type": "bytes32"
				}
			],
			"name": "commitments",
			"outputs": [
				{
					"internalType": "bool",
					"name": "",
					"type": "bool"
				}
			],
			"stateMutability": "view",
			"type": "function"
		},
		{
			"inputs": [
				{
					"internalType": "uint256",
					"name": "",
					"type": "uint256"
				}
			],
			"name": "commitmentss",
			"outputs": [
				{
					"internalType": "uint256",
					"name": "",
					"type": "uint256"
				}
			],
			"stateMutability": "view",
			"type": "function"
		},
		{
			"inputs": [],
			"name": "currentRootIndex",
			"outputs": [
				{
					"internalType": "uint32",
					"name": "",
					"type": "uint32"
				}
			],
			"stateMutability": "view",
			"type": "function"
		},
		{
			"inputs": [
				{
					"internalType": "uint256",
					"name": "_candidateId",
					"type": "uint256"
				}
			],
			"name": "deleteCandidate",
			"outputs": [],
			"stateMutability": "nonpayable",
			"type": "function"
		},
		{
			"inputs": [
				{
					"internalType": "uint256",
					"name": "",
					"type": "uint256"
				}
			],
			"name": "filledSubtrees",
			"outputs": [
				{
					"internalType": "bytes32",
					"name": "",
					"type": "bytes32"
				}
			],
			"stateMutability": "view",
			"type": "function"
		},
		{
			"inputs": [],
			"name": "getAllCandidates",
			"outputs": [
				{
					"internalType": "uint256",
					"name": "",
					"type": "uint256"
				},
				{
					"internalType": "uint256[]",
					"name": "",
					"type": "uint256[]"
				},
				{
					"internalType": "string[]",
					"name": "",
					"type": "string[]"
				}
			],
			"stateMutability": "view",
			"type": "function"
		},
		{
			"inputs": [],
			"name": "getLastRoot",
			"outputs": [
				{
					"internalType": "bytes32",
					"name": "",
					"type": "bytes32"
				}
			],
			"stateMutability": "view",
			"type": "function"
		},
		{
			"inputs": [
				{
					"internalType": "uint256",
					"name": "_candidateId",
					"type": "uint256"
				}
			],
			"name": "getOptionCounter",
			"outputs": [
				{
					"internalType": "uint256",
					"name": "",
					"type": "uint256"
				}
			],
			"stateMutability": "view",
			"type": "function"
		},
		{
			"inputs": [],
			"name": "getOwner",
			"outputs": [
				{
					"internalType": "address",
					"name": "",
					"type": "address"
				}
			],
			"stateMutability": "view",
			"type": "function"
		},
		{
			"inputs": [],
			"name": "getValidators",
			"outputs": [
				{
					"internalType": "address[]",
					"name": "",
					"type": "address[]"
				}
			],
			"stateMutability": "view",
			"type": "function"
		},
		{
			"inputs": [
				{
					"internalType": "uint256",
					"name": "_left",
					"type": "uint256"
				},
				{
					"internalType": "uint256",
					"name": "_right",
					"type": "uint256"
				}
			],
			"name": "hashLeftRight",
			"outputs": [
				{
					"internalType": "bytes32",
					"name": "",
					"type": "bytes32"
				}
			],
			"stateMutability": "view",
			"type": "function"
		},
		{
			"inputs": [],
			"name": "hasher",
			"outputs": [
				{
					"internalType": "contract IHasher",
					"name": "",
					"type": "address"
				}
			],
			"stateMutability": "view",
			"type": "function"
		},
		{
			"inputs": [
				{
					"internalType": "bytes32",
					"name": "_root",
					"type": "bytes32"
				}
			],
			"name": "isKnownRoot",
			"outputs": [
				{
					"internalType": "bool",
					"name": "",
					"type": "bool"
				}
			],
			"stateMutability": "view",
			"type": "function"
		},
		{
			"inputs": [
				{
					"internalType": "uint256",
					"name": "_uniqueHash",
					"type": "uint256"
				}
			],
			"name": "isVoterRegistered",
			"outputs": [
				{
					"internalType": "bool",
					"name": "",
					"type": "bool"
				}
			],
			"stateMutability": "view",
			"type": "function"
		},
		{
			"inputs": [],
			"name": "levels",
			"outputs": [
				{
					"internalType": "uint32",
					"name": "",
					"type": "uint32"
				}
			],
			"stateMutability": "view",
			"type": "function"
		},
		{
			"inputs": [],
			"name": "nextIndex",
			"outputs": [
				{
					"internalType": "uint32",
					"name": "",
					"type": "uint32"
				}
			],
			"stateMutability": "view",
			"type": "function"
		},
		{
			"inputs": [
				{
					"internalType": "bytes32",
					"name": "",
					"type": "bytes32"
				}
			],
			"name": "nullifiers",
			"outputs": [
				{
					"internalType": "bool",
					"name": "",
					"type": "bool"
				}
			],
			"stateMutability": "view",
			"type": "function"
		},
		{
			"inputs": [],
			"name": "numCandidates",
			"outputs": [
				{
					"internalType": "uint256",
					"name": "",
					"type": "uint256"
				}
			],
			"stateMutability": "view",
			"type": "function"
		},
		{
			"inputs": [],
			"name": "owner",
			"outputs": [
				{
					"internalType": "address",
					"name": "",
					"type": "address"
				}
			],
			"stateMutability": "view",
			"type": "function"
		},
		{
			"inputs": [
				{
					"internalType": "uint256",
					"name": "",
					"type": "uint256"
				}
			],
			"name": "pendingUniqueHashes",
			"outputs": [
				{
					"internalType": "uint256",
					"name": "",
					"type": "uint256"
				}
			],
			"stateMutability": "view",
			"type": "function"
		},
		{
			"inputs": [
				{
					"internalType": "uint256",
					"name": "_uniqueHash",
					"type": "uint256"
				},
				{
					"internalType": "uint256",
					"name": "_commitment",
					"type": "uint256"
				}
			],
			"name": "registerVoter",
			"outputs": [],
			"stateMutability": "nonpayable",
			"type": "function"
		},
		{
			"inputs": [],
			"name": "registrationEnd",
			"outputs": [
				{
					"internalType": "uint256",
					"name": "",
					"type": "uint256"
				}
			],
			"stateMutability": "view",
			"type": "function"
		},
		{
			"inputs": [],
			"name": "registrationStart",
			"outputs": [
				{
					"internalType": "uint256",
					"name": "",
					"type": "uint256"
				}
			],
			"stateMutability": "view",
			"type": "function"
		},
		{
			"inputs": [
				{
					"internalType": "uint256",
					"name": "",
					"type": "uint256"
				}
			],
			"name": "roots",
			"outputs": [
				{
					"internalType": "bytes32",
					"name": "",
					"type": "bytes32"
				}
			],
			"stateMutability": "view",
			"type": "function"
		},
		{
			"inputs": [
				{
					"internalType": "uint256",
					"name": "_start",
					"type": "uint256"
				},
				{
					"internalType": "uint256",
					"name": "_end",
					"type": "uint256"
				}
			],
			"name": "setRegistrationPeriod",
			"outputs": [],
			"stateMutability": "nonpayable",
			"type": "function"
		},
		{
			"inputs": [
				{
					"internalType": "uint256",
					"name": "_start",
					"type": "uint256"
				},
				{
					"internalType": "uint256",
					"name": "_end",
					"type": "uint256"
				}
			],
			"name": "setVotingPeriod",
			"outputs": [],
			"stateMutability": "nonpayable",
			"type": "function"
		},
		{
			"inputs": [
				{
					"internalType": "uint256",
					"name": "",
					"type": "uint256"
				}
			],
			"name": "uniqueHashes",
			"outputs": [
				{
					"internalType": "bool",
					"name": "",
					"type": "bool"
				}
			],
			"stateMutability": "view",
			"type": "function"
		},
		{
			"inputs": [],
			"name": "verifier",
			"outputs": [
				{
					"internalType": "contract IVerifier",
					"name": "",
					"type": "address"
				}
			],
			"stateMutability": "view",
			"type": "function"
		},
		{
			"inputs": [
				{
					"internalType": "uint256",
					"name": "_candidateId",
					"type": "uint256"
				},
				{
					"internalType": "uint256",
					"name": "_nullifier",
					"type": "uint256"
				},
				{
					"internalType": "uint256",
					"name": "_root",
					"type": "uint256"
				},
				{
					"internalType": "uint256[2]",
					"name": "_proof_a",
					"type": "uint256[2]"
				},
				{
					"internalType": "uint256[2][2]",
					"name": "_proof_b",
					"type": "uint256[2][2]"
				},
				{
					"internalType": "uint256[2]",
					"name": "_proof_c",
					"type": "uint256[2]"
				}
			],
			"name": "vote",
			"outputs": [],
			"stateMutability": "nonpayable",
			"type": "function"
		},
		{
			"inputs": [],
			"name": "votingEnd",
			"outputs": [
				{
					"internalType": "uint256",
					"name": "",
					"type": "uint256"
				}
			],
			"stateMutability": "view",
			"type": "function"
		},
		{
			"inputs": [],
			"name": "votingStart",
			"outputs": [
				{
					"internalType": "uint256",
					"name": "",
					"type": "uint256"
				}
			],
			"stateMutability": "view",
			"type": "function"
		},
		{
			"inputs": [
				{
					"internalType": "uint256",
					"name": "i",
					"type": "uint256"
				}
			],
			"name": "zeros",
			"outputs": [
				{
					"internalType": "bytes32",
					"name": "",
					"type": "bytes32"
				}
			],
			"stateMutability": "pure",
			"type": "function"
		}
	]
}