{
	"data": {
		"bytecode": {
			"linkReferences": {},
			"object": "60c06040525f60035f6101000a81548163ffffffff021916908363ffffffff1602179055505f600360046101000a81548163ffffffff021916908363ffffffff160217905550348015610050575f5ffd5b506040516157be3803806157be83398181016040528101906100729190610c45565b87878782825f8263ffffffff16116100bf576040517f08c379a00000000000000000000000000000000000000000000000000000000081526004016100b690610d92565b60405180910390fd5b60208263ffffffff1610610108576040517f08c379a00000000000000000000000000000000000000000000000000000000081526004016100ff90610dfa565b60405180910390fd5b815f5f6101000a81548163ffffffff021916908363ffffffff1602179055508073ffffffffffffffffffffffffffffffffffffffff1660808173ffffffffffffffffffffffffffffffffffffffff16815250505f5f90505b8263ffffffff168163ffffffff1610156101b1576101898163ffffffff1661036860201b60201c565b60015f8363ffffffff1681526020019081526020015f20819055508080600101915050610160565b506101d36001836101c29190610e45565b63ffffffff1661036860201b60201c565b60025f5f81526020019081526020015f208190555050508073ffffffffffffffffffffffffffffffffffffffff1660a08173ffffffffffffffffffffffffffffffffffffffff1681525050505050838510610263576040517f08c379a000000000000000000000000000000000000000000000000000000000815260040161025a90610eec565b60405180910390fd5b8183106102a5576040517f08c379a000000000000000000000000000000000000000000000000000000000815260040161029c90610f7a565b60405180910390fd5b828411156102e8576040517f08c379a00000000000000000000000000000000000000000000000000000000081526004016102df90611008565b60405180910390fd5b3360065f6101000a81548173ffffffffffffffffffffffffffffffffffffffff021916908373ffffffffffffffffffffffffffffffffffffffff1602179055505f60098190555080600a908161033e919061122d565b5084600c8190555083600d8190555082600e8190555081600f819055505050505050505050611364565b5f5f820361039a577f2fe54c60d3acabf3343a35b6eba15db4821b340f76e741e2249685ed4899af6c5f1b90506109e1565b600182036103cc577f256a6135777eee2fd26f54b8b7037a25439d5235caee224154186d2b8a52e31d5f1b90506109e1565b600282036103fe577f1151949895e82ab19924de92c40a3d6f7bcb60d92b00504b8199613683f0c2005f1b90506109e1565b60038203610430577f20121ee811489ff8d61f09fb89e313f14959a0f28bb428a20dba6b0b068b3bdb5f1b90506109e1565b60048203610462577f0a89ca6ffa14cc462cfedb842c30ed221a50a3d6bf022a6a57dc82ab24c157c95f1b90506109e1565b60058203610494577f24ca05c2b5cd42e890d6be94c68d0689f4f21c9cec9c0f13fe41d566dfb549595f1b90506109e1565b600682036104c6577f1ccb97c932565a92c60156bdba2d08f3bf1377464e025cee765679e604a7315c5f1b90506109e1565b600782036104f8577f19156fbd7d1a8bf5cba8909367de1b624534ebab4f0f79e003bccdd1b182bdb45f1b90506109e1565b6008820361052a577f261af8c1f0912e465744641409f622d466c3920ac6e5ff37e36604cb11dfff805f1b90506109e1565b6009820361055b577e58459724ff6ca5a1652fcbc3e82b93895cf08e975b19beab3f54c217d1c0075f1b90506109e1565b600a820361058d577f1f04ef20dee48d39984d8eabe768a70eafa6310ad20849d4573c3c40c2ad1e305f1b90506109e1565b600b82036105bf577f1bea3dec5dab51567ce7e200a30f7ba6d4276aeaa53e2686f962a46c66d511e55f1b90506109e1565b600c82036105f1577f0ee0f941e2da4b9e31c3ca97a40d8fa9ce68d97c084177071b3cb46cd3372f0f5f1b90506109e1565b600d8203610623577f1ca9503e8935884501bbaf20be14eb4c46b89772c97b96e3b2ebf3a36a948bbd5f1b90506109e1565b600e8203610655577f133a80e30697cd55d8f7d4b0965b7be24057ba5dc3da898ee2187232446cb1085f1b90506109e1565b600f8203610687577f13e6d8fc88839ed76e182c2a779af5b2c0da9dd18c90427a644f7e148a6253b65f1b90506109e1565b601082036106b9577f1eb16b057a477f4bc8f572ea6bee39561098f78f15bfb3699dcbb7bd8db618545f1b90506109e1565b601182036106eb577f0da2cb16a1ceaabf1c16b838f7a9e3f2a3a3088d9e0a6debaa748114620696ea5f1b90506109e1565b6012820361071d577f24a3b3d822420b14b5d8cb6c28a574f01e98ea9e940551d2ebd75cee12649f9d5f1b90506109e1565b6013820361074f577f198622acbd783d1b0d9064105b1fc8e4d8889de95c4c519b3f635809fe6afc055f1b90506109e1565b60148203610781577f29d7ed391256ccc3ea596c86e933b89ff339d25ea8ddced975ae2fe30b5296d45f1b90506109e1565b601582036107b3577f19be59f2f0413ce78c0c3703a3a5451b1d7f39629fa33abd11548a76065b29675f1b90506109e1565b601682036107e5577f1ff3f61797e538b70e619310d33f2a063e7eb59104e112e95738da1254dc34535f1b90506109e1565b60178203610817577f10c16ae9959cf8358980d9dd9616e48228737310a10e2b6b731c1a548f036c485f1b90506109e1565b60188203610849577f0ba433a63174a90ac20992e75e3095496812b652685b5e1a2eae0b1bf4e8fcd15f1b90506109e1565b6019820361087b577f019ddb9df2bc98d987d0dfeca9d2b643deafab8f7036562e627c3667266a044c5f1b90506109e1565b601a82036108ad577f2d3c88b23175c5a5565db928414c66d1912b11acf974b2e644caaac04739ce995f1b90506109e1565b601b82036108df577f2eab55f6ae4e66e32c5189eed5c470840863445760f5ed7e7b69b2a62600f3545f1b90506109e1565b601c8203610910577e2df37a2642621802383cf952bf4dd1f32e05433beeb1fd41031fb7eace979d5f1b90506109e1565b601d8203610942577f104aeb41435db66c3e62feccc1d6f5d98d0a0ed75d1374db457cf462e3a1f4275f1b90506109e1565b601e8203610974577f1f3c6fd858e9a7d4b0d1f38e256a09d81d5a5e3c963987e2d4b814cfab7c6ebb5f1b90506109e1565b601f82036109a6577f2c7a07d20dff79d01fecedc1134284a8d08436606c93693b67e333f671bf69cc5f1b90506109e1565b6040517f08c379a00000000000000000000000000000000000000000000000000000000081526004016109d890611346565b60405180910390fd5b919050565b5f604051905090565b5f5ffd5b5f5ffd5b5f63ffffffff82169050919050565b610a0f816109f7565b8114610a19575f5ffd5b50565b5f81519050610a2a81610a06565b92915050565b5f73ffffffffffffffffffffffffffffffffffffffff82169050919050565b5f610a5982610a30565b9050919050565b5f610a6a82610a4f565b9050919050565b610a7a81610a60565b8114610a84575f5ffd5b50565b5f81519050610a9581610a71565b92915050565b5f610aa582610a4f565b9050919050565b610ab581610a9b565b8114610abf575f5ffd5b50565b5f81519050610ad081610aac565b92915050565b5f819050919050565b610ae881610ad6565b8114610af2575f5ffd5b50565b5f81519050610b0381610adf565b92915050565b5f5ffd5b5f5ffd5b5f601f19601f8301169050919050565b7f4e487b71000000000000000000000000000000000000000000000000000000005f52604160045260245ffd5b610b5782610b11565b810181811067ffffffffffffffff82111715610b7657610b75610b21565b5b80604052505050565b5f610b886109e6565b9050610b948282610b4e565b919050565b5f67ffffffffffffffff821115610bb357610bb2610b21565b5b610bbc82610b11565b9050602081019050919050565b8281835e5f83830152505050565b5f610be9610be484610b99565b610b7f565b905082815260208101848484011115610c0557610c04610b0d565b5b610c10848285610bc9565b509392505050565b5f82601f830112610c2c57610c2b610b09565b5b8151610c3c848260208601610bd7565b91505092915050565b5f5f5f5f5f5f5f5f610100898b031215610c6257610c616109ef565b5b5f610c6f8b828c01610a1c565b9850506020610c808b828c01610a87565b9750506040610c918b828c01610ac2565b9650506060610ca28b828c01610af5565b9550506080610cb38b828c01610af5565b94505060a0610cc48b828c01610af5565b93505060c0610cd58b828c01610af5565b92505060e089015167ffffffffffffffff811115610cf657610cf56109f3565b5b610d028b828c01610c18565b9150509295985092959890939650565b5f82825260208201905092915050565b7f5f6c6576656c732073686f756c642062652067726561746572207468616e207a5f8201527f65726f0000000000000000000000000000000000000000000000000000000000602082015250565b5f610d7c602383610d12565b9150610d8782610d22565b604082019050919050565b5f6020820190508181035f830152610da981610d70565b9050919050565b7f5f6c6576656c732073686f756c64206265206c657373207468616e20333200005f82015250565b5f610de4601e83610d12565b9150610def82610db0565b602082019050919050565b5f6020820190508181035f830152610e1181610dd8565b9050919050565b7f4e487b71000000000000000000000000000000000000000000000000000000005f52601160045260245ffd5b5f610e4f826109f7565b9150610e5a836109f7565b9250828203905063ffffffff811115610e7657610e75610e18565b5b92915050565b7f526567697374726174696f6e207374617274206d757374206265206265666f725f8201527f6520656e642074696d6500000000000000000000000000000000000000000000602082015250565b5f610ed6602a83610d12565b9150610ee182610e7c565b604082019050919050565b5f6020820190508181035f830152610f0381610eca565b9050919050565b7f566f74696e67207374617274206d757374206265206265666f726520656e64205f8201527f74696d6500000000000000000000000000000000000000000000000000000000602082015250565b5f610f64602483610d12565b9150610f6f82610f0a565b604082019050919050565b5f6020820190508181035f830152610f9181610f58565b9050919050565b7f526567697374726174696f6e206d75737420656e64206265666f726520766f745f8201527f696e672073746172747300000000000000000000000000000000000000000000602082015250565b5f610ff2602a83610d12565b9150610ffd82610f98565b604082019050919050565b5f6020820190508181035f83015261101f81610fe6565b9050919050565b5f81519050919050565b7f4e487b71000000000000000000000000000000000000000000000000000000005f52602260045260245ffd5b5f600282049050600182168061107457607f821691505b60208210810361108757611086611030565b5b50919050565b5f819050815f5260205f209050919050565b5f6020601f8301049050919050565b5f82821b905092915050565b5f600883026110e97fffffffffffffffffffffffffffffffffffffffffffffffffffffffffffffffff826110ae565b6110f386836110ae565b95508019841693508086168417925050509392505050565b5f819050919050565b5f61112e61112961112484610ad6565b61110b565b610ad6565b9050919050565b5f819050919050565b61114783611114565b61115b61115382611135565b8484546110ba565b825550505050565b5f5f905090565b611172611163565b61117d81848461113e565b505050565b5b818110156111a0576111955f8261116a565b600181019050611183565b5050565b601f8211156111e5576111b68161108d565b6111bf8461109f565b810160208510156111ce578190505b6111e26111da8561109f565b830182611182565b50505b505050565b5f82821c905092915050565b5f6112055f19846008026111ea565b1980831691505092915050565b5f61121d83836111f6565b9150826002028217905092915050565b61123682611026565b67ffffffffffffffff81111561124f5761124e610b21565b5b611259825461105d565b6112648282856111a4565b5f60209050601f831160018114611295575f8415611283578287015190505b61128d8582611212565b8655506112f4565b601f1984166112a38661108d565b5f5b828110156112ca578489015182556001820191506020850194506020810190506112a5565b868310156112e757848901516112e3601f8916826111f6565b8355505b6001600288020188555050505b505050505050565b7f496e646578206f7574206f6620626f756e6473000000000000000000000000005f82015250565b5f611330601383610d12565b915061133b826112fc565b602082019050919050565b5f6020820190508181035f83015261135d81611324565b9050919050565b60805160a05161442461139a5f395f8181610adb015261245a01525f8181610f7101528181611048015261229401526144245ff3fe608060405234801561000f575f5ffd5b5060043610610246575f3560e01c8063893d20e811610139578063c1b1f732116100b6578063e82955881161007a578063e829558814610721578063ec73295914610751578063ed33639f1461076f578063f178e47c1461078d578063fc7e9c6f146107bd57610246565b8063c1b1f73214610657578063c2b40ae414610687578063cd87a3b4146106b7578063ce8f6377146106d5578063d290a3cf146106f157610246565b8063a15a36c7116100fd578063a15a36c7146105c5578063b4062a31146105e1578063b7ab4db5146105ff578063ba70f7571461061d578063be00d6a11461063b57610246565b8063893d20e81461051f5780638bb2fb751461053d5780638da5cb5b1461055957806390eeb02b14610577578063955e03771461059557610246565b8063414a37ba116101c75780636d3cba611161018b5780636d3cba61146104535780636d9833e314610483578063839df945146104b357806385a38635146104e357806385e8e7a71461050157610246565b8063414a37ba146103ad5780634ecf518b146103cb5780635216509a146103e95780635bb93995146104075780635e559ea11461043757610246565b80632b7ac3f31161020e5780632b7ac3f3146102ee5780632e6997fe1461030c57806330e7a79c1461032c57806332bcce081461034a5780633477ee2e1461037a57610246565b8063031a13741461024a578063101158af1461026657806313446a75146102845780631e620cd4146102a25780632997e86b146102be575b5f5ffd5b610264600480360381019061025f9190612913565b6107db565b005b61026e610943565b60405161027b9190612972565b60405180910390f35b61028c610949565b6040516102999190612972565b60405180910390f35b6102bc60048036038101906102b791906129b5565b61094f565b005b6102d860048036038101906102d39190612a13565b610abc565b6040516102e59190612a58565b60405180910390f35b6102f6610ad9565b6040516103039190612aeb565b60405180910390f35b610314610afd565b60405161032393929190612cd6565b60405180910390f35b610334610cda565b6040516103419190612d61565b60405180910390f35b610364600480360381019061035f91906129b5565b610d6a565b6040516103719190612972565b60405180910390f35b610394600480360381019061038f91906129b5565b610d7f565b6040516103a49493929190612da3565b60405180910390f35b6103b5610e64565b6040516103c29190612972565b60405180910390f35b6103d3610e88565b6040516103e09190612e0b565b60405180910390f35b6103f1610e9c565b6040516103fe9190612972565b60405180910390f35b610421600480360381019061041c9190612e24565b610ea2565b60405161042e9190612e71565b60405180910390f35b610451600480360381019061044c9190612eb4565b6110f6565b005b61046d600480360381019061046891906129b5565b6113e9565b60405161047a9190612a58565b60405180910390f35b61049d60048036038101906104989190612a13565b61140f565b6040516104aa9190612a58565b60405180910390f35b6104cd60048036038101906104c89190612a13565b6114a2565b6040516104da9190612a58565b60405180910390f35b6104eb6114bf565b6040516104f89190612972565b60405180910390f35b6105096114c5565b6040516105169190612d61565b60405180910390f35b610527611551565b6040516105349190612f2e565b60405180910390f35b61055760048036038101906105529190612e24565b611579565b005b61056161165c565b60405161056e9190612f2e565b60405180910390f35b61057f611681565b60405161058c9190612e0b565b60405180910390f35b6105af60048036038101906105aa91906129b5565b611696565b6040516105bc9190612972565b60405180910390f35b6105df60048036038101906105da9190612e24565b6116d0565b005b6105e96117b3565b6040516105f69190612972565b60405180910390f35b6106076117b9565b6040516106149190612ffe565b60405180910390f35b610625611844565b6040516106329190612e71565b60405180910390f35b61065560048036038101906106509190612e24565b611873565b005b610671600480360381019061066c91906129b5565b611a2a565b60405161067e9190612a58565b60405180910390f35b6106a1600480360381019061069c91906129b5565b611a47565b6040516106ae9190612e71565b60405180910390f35b6106bf611a5c565b6040516106cc9190612e0b565b60405180910390f35b6106ef60048036038101906106ea919061317e565b611a61565b005b61070b600480360381019061070691906129b5565b611bd0565b6040516107189190612972565b60405180910390f35b61073b600480360381019061073691906129b5565b611bf0565b6040516107489190612e71565b60405180910390f35b61075961226e565b6040516107669190612972565b60405180910390f35b610777612292565b6040516107849190613229565b60405180910390f35b6107a760048036038101906107a291906129b5565b6122b6565b6040516107b49190612e71565b60405180910390f35b6107c56122cb565b6040516107d29190612e0b565b60405180910390f35b60065f9054906101000a900473ffffffffffffffffffffffffffffffffffffffff1673ffffffffffffffffffffffffffffffffffffffff163373ffffffffffffffffffffffffffffffffffffffff161461086a576040517f08c379a0000000000000000000000000000000000000000000000000000000008152600401610861906132b2565b60405180910390fd5b5f600a8054610878906132fd565b80601f01602080910402602001604051908101604052809291908181526020018280546108a4906132fd565b80156108ef5780601f106108c6576101008083540402835291602001916108ef565b820191905f5260205f20905b8154815290600101906020018083116108d257829003601f168201915b5050505050905081600a908161090591906134c4565b507f3bab3cc35b08707a0cf28b4a1391714e321bf15cea4d23af5438ca2eea00b3198183604051610937929190613593565b60405180910390a15050565b600e5481565b600d5481565b60065f9054906101000a900473ffffffffffffffffffffffffffffffffffffffff1673ffffffffffffffffffffffffffffffffffffffff163373ffffffffffffffffffffffffffffffffffffffff16146109de576040517f08c379a00000000000000000000000000000000000000000000000000000000081526004016109d5906132b2565b60405180910390fd5b6009548110610a22576040517f08c379a0000000000000000000000000000000000000000000000000000000008152600401610a1990613612565b60405180910390fd5b600b5f8281526020019081526020015f205f5f82015f6101000a81549067ffffffffffffffff0219169055600182015f610a5c919061276e565b600282015f6101000a81549067ffffffffffffffff02191690556002820160086101000a81549060ff02191690555050807f5768df5843e58ec5b2fc92eb6ef81241e9ec50a0b93fd074dec58b39efc4172060405160405180910390a250565b6004602052805f5260405f205f915054906101000a900460ff1681565b7f000000000000000000000000000000000000000000000000000000000000000081565b5f6060805f60095467ffffffffffffffff811115610b1e57610b1d6127ef565b5b604051908082528060200260200182016040528015610b4c5781602001602082028036833780820191505090505b5090505f60095467ffffffffffffffff811115610b6c57610b6b6127ef565b5b604051908082528060200260200182016040528015610b9f57816020015b6060815260200190600190039081610b8a5790505b5090505f5f90505b600954811015610cc757600b5f8281526020019081526020015f205f015f9054906101000a900467ffffffffffffffff1667ffffffffffffffff16838281518110610bf557610bf4613630565b5b602002602001018181525050600b5f8281526020019081526020015f206001018054610c20906132fd565b80601f0160208091040260200160405190810160405280929190818152602001828054610c4c906132fd565b8015610c975780601f10610c6e57610100808354040283529160200191610c97565b820191905f5260205f20905b815481529060010190602001808311610c7a57829003601f168201915b5050505050828281518110610caf57610cae613630565b5b60200260200101819052508080600101915050610ba7565b5060095482829450945094505050909192565b6060600a8054610ce9906132fd565b80601f0160208091040260200160405190810160405280929190818152602001828054610d15906132fd565b8015610d605780601f10610d3757610100808354040283529160200191610d60565b820191905f5260205f20905b815481529060010190602001808311610d4357829003601f168201915b5050505050905090565b6008602052805f5260405f205f915090505481565b600b602052805f5260405f205f91509050805f015f9054906101000a900467ffffffffffffffff1690806001018054610db7906132fd565b80601f0160208091040260200160405190810160405280929190818152602001828054610de3906132fd565b8015610e2e5780601f10610e0557610100808354040283529160200191610e2e565b820191905f5260205f20905b815481529060010190602001808311610e1157829003601f168201915b505050505090806002015f9054906101000a900467ffffffffffffffff16908060020160089054906101000a900460ff16905084565b7f30644e72e131a029b85045b68181585d2833e84879b9709143e1f593f000000181565b5f5f9054906101000a900463ffffffff1681565b60095481565b5f7f30644e72e131a029b85045b68181585d2833e84879b9709143e1f593f00000018310610f05576040517f08c379a0000000000000000000000000000000000000000000000000000000008152600401610efc906136a7565b60405180910390fd5b7f30644e72e131a029b85045b68181585d2833e84879b9709143e1f593f00000018210610f67576040517f08c379a0000000000000000000000000000000000000000000000000000000008152600401610f5e90613735565b60405180910390fd5b5f8390505f5f90507f000000000000000000000000000000000000000000000000000000000000000073ffffffffffffffffffffffffffffffffffffffff16633f1a118783835f6040518463ffffffff1660e01b8152600401610fcc9392919061378c565b6040805180830381865afa158015610fe6573d5f5f3e3d5ffd5b505050506040513d601f19601f8201168201806040525081019061100a91906137d5565b80925081935050507f30644e72e131a029b85045b68181585d2833e84879b9709143e1f593f00000018061104157611040613813565b5b84830891507f000000000000000000000000000000000000000000000000000000000000000073ffffffffffffffffffffffffffffffffffffffff16633f1a118783835f6040518463ffffffff1660e01b81526004016110a39392919061378c565b6040805180830381865afa1580156110bd573d5f5f3e3d5ffd5b505050506040513d601f19601f820116820180604052508101906110e191906137d5565b8092508193505050815f1b9250505092915050565b60065f9054906101000a900473ffffffffffffffffffffffffffffffffffffffff1673ffffffffffffffffffffffffffffffffffffffff163373ffffffffffffffffffffffffffffffffffffffff1614611185576040517f08c379a000000000000000000000000000000000000000000000000000000000815260040161117c906132b2565b60405180910390fd5b600c5442101580156111995750600d544211155b6111d8576040517f08c379a00000000000000000000000000000000000000000000000000000000081526004016111cf906138b0565b60405180910390fd5b60148151111561121d576040517f08c379a00000000000000000000000000000000000000000000000000000000081526004016112149061393e565b60405180910390fd5b5f5f90505b6009548110156112b5578267ffffffffffffffff16600b5f8381526020019081526020015f205f015f9054906101000a900467ffffffffffffffff1667ffffffffffffffff16036112a8576040517f08c379a000000000000000000000000000000000000000000000000000000000815260040161129f906139cc565b60405180910390fd5b8080600101915050611222565b5060405180608001604052808367ffffffffffffffff1681526020018281526020015f67ffffffffffffffff16815260200160011515815250600b5f60095481526020019081526020015f205f820151815f015f6101000a81548167ffffffffffffffff021916908367ffffffffffffffff160217905550602082015181600101908161134291906134c4565b506040820151816002015f6101000a81548167ffffffffffffffff021916908367ffffffffffffffff16021790555060608201518160020160086101000a81548160ff0219169083151502179055509050506009547fe83b2a43e7e82d975c8a0a6d2f045153c869e111136a34d1889ab7b598e396a3826040516113c69190612d61565b60405180910390a260095f8154809291906113e090613a17565b91905055505050565b5f60075f8381526020019081526020015f205f9054906101000a900460ff169050919050565b5f5f5f1b8203611421575f905061149d565b5f60035f9054906101000a900463ffffffff1690505f8190505b60025f8263ffffffff1681526020019081526020015f205484036114645760019250505061149d565b5f8163ffffffff160361147657601e90505b808061148190613a5e565b9150508163ffffffff168163ffffffff160361143b575f925050505b919050565b6005602052805f5260405f205f915054906101000a900460ff1681565b600f5481565b600a80546114d2906132fd565b80601f01602080910402602001604051908101604052809291908181526020018280546114fe906132fd565b80156115495780601f1061152057610100808354040283529160200191611549565b820191905f5260205f20905b81548152906001019060200180831161152c57829003601f168201915b505050505081565b5f60065f9054906101000a900473ffffffffffffffffffffffffffffffffffffffff16905090565b60065f9054906101000a900473ffffffffffffffffffffffffffffffffffffffff1673ffffffffffffffffffffffffffffffffffffffff163373ffffffffffffffffffffffffffffffffffffffff1614611608576040517f08c379a00000000000000000000000000000000000000000000000000000000081526004016115ff906132b2565b60405180910390fd5b80821061164a576040517f08c379a000000000000000000000000000000000000000000000000000000000815260040161164190613af5565b60405180910390fd5b81600c8190555080600d819055505050565b60065f9054906101000a900473ffffffffffffffffffffffffffffffffffffffff1681565b60035f9054906101000a900463ffffffff1681565b5f600b5f8381526020019081526020015f206002015f9054906101000a900467ffffffffffffffff1667ffffffffffffffff169050919050565b60065f9054906101000a900473ffffffffffffffffffffffffffffffffffffffff1673ffffffffffffffffffffffffffffffffffffffff163373ffffffffffffffffffffffffffffffffffffffff161461175f576040517f08c379a0000000000000000000000000000000000000000000000000000000008152600401611756906132b2565b60405180910390fd5b8082106117a1576040517f08c379a000000000000000000000000000000000000000000000000000000000815260040161179890613af5565b60405180910390fd5b81600e8190555080600f819055505050565b600c5481565b6060601180548060200260200160405190810160405280929190818152602001828054801561183a57602002820191905f5260205f20905b815f9054906101000a900473ffffffffffffffffffffffffffffffffffffffff1673ffffffffffffffffffffffffffffffffffffffff16815260200190600101908083116117f1575b5050505050905090565b5f60025f60035f9054906101000a900463ffffffff1663ffffffff1681526020019081526020015f2054905090565b60065f9054906101000a900473ffffffffffffffffffffffffffffffffffffffff1673ffffffffffffffffffffffffffffffffffffffff163373ffffffffffffffffffffffffffffffffffffffff1614611902576040517f08c379a00000000000000000000000000000000000000000000000000000000081526004016118f9906132b2565b60405180910390fd5b600c5442101580156119165750600d544211155b611955576040517f08c379a000000000000000000000000000000000000000000000000000000000815260040161194c906138b0565b60405180910390fd5b60075f8381526020019081526020015f205f9054906101000a900460ff16156119b3576040517f08c379a00000000000000000000000000000000000000000000000000000000081526004016119aa90613b83565b60405180910390fd5b600160075f8481526020019081526020015f205f6101000a81548160ff0219169083151502179055508060085f8481526020019081526020015f20819055506119fd815f1b6122e1565b600160075f8481526020019081526020015f205f6101000a81548160ff0219169083151502179055505050565b6007602052805f5260405f205f915054906101000a900460ff1681565b6002602052805f5260405f205f915090505481565b601e81565b600e544210158015611a755750600f544211155b611ab4576040517f08c379a0000000000000000000000000000000000000000000000000000000008152600401611aab90613beb565b60405180910390fd5b6009548610611af8576040517f08c379a0000000000000000000000000000000000000000000000000000000008152600401611aef90613c53565b60405180910390fd5b600b5f8781526020019081526020015f2060020160089054906101000a900460ff16611b59576040517f08c379a0000000000000000000000000000000000000000000000000000000008152600401611b5090613cbb565b60405180910390fd5b611b6a855f1b855f1b8585856123b2565b600b5f8781526020019081526020015f206002015f81819054906101000a900467ffffffffffffffff1680929190611ba190613cd9565b91906101000a81548167ffffffffffffffff021916908367ffffffffffffffff16021790555050505050505050565b60108181548110611bdf575f80fd5b905f5260205f20015f915090505481565b5f5f8203611c22577f2fe54c60d3acabf3343a35b6eba15db4821b340f76e741e2249685ed4899af6c5f1b9050612269565b60018203611c54577f256a6135777eee2fd26f54b8b7037a25439d5235caee224154186d2b8a52e31d5f1b9050612269565b60028203611c86577f1151949895e82ab19924de92c40a3d6f7bcb60d92b00504b8199613683f0c2005f1b9050612269565b60038203611cb8577f20121ee811489ff8d61f09fb89e313f14959a0f28bb428a20dba6b0b068b3bdb5f1b9050612269565b60048203611cea577f0a89ca6ffa14cc462cfedb842c30ed221a50a3d6bf022a6a57dc82ab24c157c95f1b9050612269565b60058203611d1c577f24ca05c2b5cd42e890d6be94c68d0689f4f21c9cec9c0f13fe41d566dfb549595f1b9050612269565b60068203611d4e577f1ccb97c932565a92c60156bdba2d08f3bf1377464e025cee765679e604a7315c5f1b9050612269565b60078203611d80577f19156fbd7d1a8bf5cba8909367de1b624534ebab4f0f79e003bccdd1b182bdb45f1b9050612269565b60088203611db2577f261af8c1f0912e465744641409f622d466c3920ac6e5ff37e36604cb11dfff805f1b9050612269565b60098203611de3577e58459724ff6ca5a1652fcbc3e82b93895cf08e975b19beab3f54c217d1c0075f1b9050612269565b600a8203611e15577f1f04ef20dee48d39984d8eabe768a70eafa6310ad20849d4573c3c40c2ad1e305f1b9050612269565b600b8203611e47577f1bea3dec5dab51567ce7e200a30f7ba6d4276aeaa53e2686f962a46c66d511e55f1b9050612269565b600c8203611e79577f0ee0f941e2da4b9e31c3ca97a40d8fa9ce68d97c084177071b3cb46cd3372f0f5f1b9050612269565b600d8203611eab577f1ca9503e8935884501bbaf20be14eb4c46b89772c97b96e3b2ebf3a36a948bbd5f1b9050612269565b600e8203611edd577f133a80e30697cd55d8f7d4b0965b7be24057ba5dc3da898ee2187232446cb1085f1b9050612269565b600f8203611f0f577f13e6d8fc88839ed76e182c2a779af5b2c0da9dd18c90427a644f7e148a6253b65f1b9050612269565b60108203611f41577f1eb16b057a477f4bc8f572ea6bee39561098f78f15bfb3699dcbb7bd8db618545f1b9050612269565b60118203611f73577f0da2cb16a1ceaabf1c16b838f7a9e3f2a3a3088d9e0a6debaa748114620696ea5f1b9050612269565b60128203611fa5577f24a3b3d822420b14b5d8cb6c28a574f01e98ea9e940551d2ebd75cee12649f9d5f1b9050612269565b60138203611fd7577f198622acbd783d1b0d9064105b1fc8e4d8889de95c4c519b3f635809fe6afc055f1b9050612269565b60148203612009577f29d7ed391256ccc3ea596c86e933b89ff339d25ea8ddced975ae2fe30b5296d45f1b9050612269565b6015820361203b577f19be59f2f0413ce78c0c3703a3a5451b1d7f39629fa33abd11548a76065b29675f1b9050612269565b6016820361206d577f1ff3f61797e538b70e619310d33f2a063e7eb59104e112e95738da1254dc34535f1b9050612269565b6017820361209f577f10c16ae9959cf8358980d9dd9616e48228737310a10e2b6b731c1a548f036c485f1b9050612269565b601882036120d1577f0ba433a63174a90ac20992e75e3095496812b652685b5e1a2eae0b1bf4e8fcd15f1b9050612269565b60198203612103577f019ddb9df2bc98d987d0dfeca9d2b643deafab8f7036562e627c3667266a044c5f1b9050612269565b601a8203612135577f2d3c88b23175c5a5565db928414c66d1912b11acf974b2e644caaac04739ce995f1b9050612269565b601b8203612167577f2eab55f6ae4e66e32c5189eed5c470840863445760f5ed7e7b69b2a62600f3545f1b9050612269565b601c8203612198577e2df37a2642621802383cf952bf4dd1f32e05433beeb1fd41031fb7eace979d5f1b9050612269565b601d82036121ca577f104aeb41435db66c3e62feccc1d6f5d98d0a0ed75d1374db457cf462e3a1f4275f1b9050612269565b601e82036121fc577f1f3c6fd858e9a7d4b0d1f38e256a09d81d5a5e3c963987e2d4b814cfab7c6ebb5f1b9050612269565b601f820361222e577f2c7a07d20dff79d01fecedc1134284a8d08436606c93693b67e333f671bf69cc5f1b9050612269565b6040517f08c379a000000000000000000000000000000000000000000000000000000000815260040161226090613d52565b60405180910390fd5b919050565b7f2fe54c60d3acabf3343a35b6eba15db4821b340f76e741e2249685ed4899af6c81565b7f000000000000000000000000000000000000000000000000000000000000000081565b6001602052805f5260405f205f915090505481565b600360049054906101000a900463ffffffff1681565b60055f8281526020019081526020015f205f9054906101000a900460ff161561233f576040517f08c379a000000000000000000000000000000000000000000000000000000000815260040161233690613de0565b60405180910390fd5b600160055f8381526020019081526020015f205f6101000a81548160ff0219169083151502179055505f6123728261257d565b9050817f401999886e5f90a91b92a0bfb7e2d48f714651a4d1c929bb3a753525ba066b9182426040516123a6929190613dfe565b60405180910390a25050565b60045f8681526020019081526020015f205f9054906101000a900460ff1615612410576040517f08c379a000000000000000000000000000000000000000000000000000000000815260040161240790613e6f565b60405180910390fd5b6124198461140f565b612458576040517f08c379a000000000000000000000000000000000000000000000000000000000815260040161244f90613ed7565b60405180910390fd5b7f000000000000000000000000000000000000000000000000000000000000000073ffffffffffffffffffffffffffffffffffffffff1663f5c9d69e84848460405180604001604052808b5f1c81526020018a5f1c8152506040518563ffffffff1660e01b81526004016124cf949392919061406a565b602060405180830381865afa1580156124ea573d5f5f3e3d5ffd5b505050506040513d601f19601f8201168201806040525081019061250e91906140d9565b61254d576040517f08c379a00000000000000000000000000000000000000000000000000000000081526004016125449061414e565b60405180910390fd5b600160045f8781526020019081526020015f205f6101000a81548160ff0219169083151502179055505050505050565b5f5f600360049054906101000a900463ffffffff1690505f5f9054906101000a900463ffffffff1660026125b1919061429b565b63ffffffff168163ffffffff16036125fe576040517f08c379a00000000000000000000000000000000000000000000000000000000081526004016125f590614339565b60405180910390fd5b5f8190505f8490505f5f5f5f90505b5f5f9054906101000a900463ffffffff1663ffffffff168163ffffffff1610156126c9575f60028661263f9190614357565b63ffffffff160361267f5783925061265c8163ffffffff16611bf0565b91508360015f8363ffffffff1681526020019081526020015f208190555061269d565b60015f8263ffffffff1681526020019081526020015f205492508391505b6126ab835f1c835f1c610ea2565b93506002856126ba9190614387565b9450808060010191505061260d565b505f601e600160035f9054906101000a900463ffffffff166126eb91906143b7565b6126f59190614357565b90508060035f6101000a81548163ffffffff021916908363ffffffff1602179055508360025f8363ffffffff1681526020019081526020015f208190555060018661274091906143b7565b600360046101000a81548163ffffffff021916908363ffffffff160217905550859650505050505050919050565b50805461277a906132fd565b5f825580601f1061278b57506127a8565b601f0160209004905f5260205f20908101906127a791906127ab565b5b50565b5b808211156127c2575f815f9055506001016127ac565b5090565b5f604051905090565b5f5ffd5b5f5ffd5b5f5ffd5b5f5ffd5b5f601f19601f8301169050919050565b7f4e487b71000000000000000000000000000000000000000000000000000000005f52604160045260245ffd5b612825826127df565b810181811067ffffffffffffffff82111715612844576128436127ef565b5b80604052505050565b5f6128566127c6565b9050612862828261281c565b919050565b5f67ffffffffffffffff821115612881576128806127ef565b5b61288a826127df565b9050602081019050919050565b828183375f83830152505050565b5f6128b76128b284612867565b61284d565b9050828152602081018484840111156128d3576128d26127db565b5b6128de848285612897565b509392505050565b5f82601f8301126128fa576128f96127d7565b5b813561290a8482602086016128a5565b91505092915050565b5f60208284031215612928576129276127cf565b5b5f82013567ffffffffffffffff811115612945576129446127d3565b5b612951848285016128e6565b91505092915050565b5f819050919050565b61296c8161295a565b82525050565b5f6020820190506129855f830184612963565b92915050565b6129948161295a565b811461299e575f5ffd5b50565b5f813590506129af8161298b565b92915050565b5f602082840312156129ca576129c96127cf565b5b5f6129d7848285016129a1565b91505092915050565b5f819050919050565b6129f2816129e0565b81146129fc575f5ffd5b50565b5f81359050612a0d816129e9565b92915050565b5f60208284031215612a2857612a276127cf565b5b5f612a35848285016129ff565b91505092915050565b5f8115159050919050565b612a5281612a3e565b82525050565b5f602082019050612a6b5f830184612a49565b92915050565b5f73ffffffffffffffffffffffffffffffffffffffff82169050919050565b5f819050919050565b5f612ab3612aae612aa984612a71565b612a90565b612a71565b9050919050565b5f612ac482612a99565b9050919050565b5f612ad582612aba565b9050919050565b612ae581612acb565b82525050565b5f602082019050612afe5f830184612adc565b92915050565b5f81519050919050565b5f82825260208201905092915050565b5f819050602082019050919050565b612b368161295a565b82525050565b5f612b478383612b2d565b60208301905092915050565b5f602082019050919050565b5f612b6982612b04565b612b738185612b0e565b9350612b7e83612b1e565b805f5b83811015612bae578151612b958882612b3c565b9750612ba083612b53565b925050600181019050612b81565b5085935050505092915050565b5f81519050919050565b5f82825260208201905092915050565b5f819050602082019050919050565b5f81519050919050565b5f82825260208201905092915050565b8281835e5f83830152505050565b5f612c1682612be4565b612c208185612bee565b9350612c30818560208601612bfe565b612c39816127df565b840191505092915050565b5f612c4f8383612c0c565b905092915050565b5f602082019050919050565b5f612c6d82612bbb565b612c778185612bc5565b935083602082028501612c8985612bd5565b805f5b85811015612cc45784840389528151612ca58582612c44565b9450612cb083612c57565b925060208a01995050600181019050612c8c565b50829750879550505050505092915050565b5f606082019050612ce95f830186612963565b8181036020830152612cfb8185612b5f565b90508181036040830152612d0f8184612c63565b9050949350505050565b5f82825260208201905092915050565b5f612d3382612be4565b612d3d8185612d19565b9350612d4d818560208601612bfe565b612d56816127df565b840191505092915050565b5f6020820190508181035f830152612d798184612d29565b905092915050565b5f67ffffffffffffffff82169050919050565b612d9d81612d81565b82525050565b5f608082019050612db65f830187612d94565b8181036020830152612dc88186612d29565b9050612dd76040830185612d94565b612de46060830184612a49565b95945050505050565b5f63ffffffff82169050919050565b612e0581612ded565b82525050565b5f602082019050612e1e5f830184612dfc565b92915050565b5f5f60408385031215612e3a57612e396127cf565b5b5f612e47858286016129a1565b9250506020612e58858286016129a1565b9150509250929050565b612e6b816129e0565b82525050565b5f602082019050612e845f830184612e62565b92915050565b612e9381612d81565b8114612e9d575f5ffd5b50565b5f81359050612eae81612e8a565b92915050565b5f5f60408385031215612eca57612ec96127cf565b5b5f612ed785828601612ea0565b925050602083013567ffffffffffffffff811115612ef857612ef76127d3565b5b612f04858286016128e6565b9150509250929050565b5f612f1882612a71565b9050919050565b612f2881612f0e565b82525050565b5f602082019050612f415f830184612f1f565b92915050565b5f81519050919050565b5f82825260208201905092915050565b5f819050602082019050919050565b612f7981612f0e565b82525050565b5f612f8a8383612f70565b60208301905092915050565b5f602082019050919050565b5f612fac82612f47565b612fb68185612f51565b9350612fc183612f61565b805f5b83811015612ff1578151612fd88882612f7f565b9750612fe383612f96565b925050600181019050612fc4565b5085935050505092915050565b5f6020820190508181035f8301526130168184612fa2565b905092915050565b5f67ffffffffffffffff821115613038576130376127ef565b5b602082029050919050565b5f5ffd5b5f6130596130548461301e565b61284d565b9050806020840283018581111561307357613072613043565b5b835b8181101561309c578061308888826129a1565b845260208401935050602081019050613075565b5050509392505050565b5f82601f8301126130ba576130b96127d7565b5b60026130c7848285613047565b91505092915050565b5f67ffffffffffffffff8211156130ea576130e96127ef565b5b602082029050919050565b5f613107613102846130d0565b61284d565b9050806040840283018581111561312157613120613043565b5b835b8181101561314a578061313688826130a6565b845260208401935050604081019050613123565b5050509392505050565b5f82601f830112613168576131676127d7565b5b60026131758482856130f5565b91505092915050565b5f5f5f5f5f5f6101608789031215613199576131986127cf565b5b5f6131a689828a016129a1565b96505060206131b789828a016129a1565b95505060406131c889828a016129a1565b94505060606131d989828a016130a6565b93505060a06131ea89828a01613154565b9250506101206131fc89828a016130a6565b9150509295509295509295565b5f61321382612aba565b9050919050565b61322381613209565b82525050565b5f60208201905061323c5f83018461321a565b92915050565b7f4f6e6c79206f776e65722063616e20706572666f726d207468697320616374695f8201527f6f6e210000000000000000000000000000000000000000000000000000000000602082015250565b5f61329c602383612d19565b91506132a782613242565b604082019050919050565b5f6020820190508181035f8301526132c981613290565b9050919050565b7f4e487b71000000000000000000000000000000000000000000000000000000005f52602260045260245ffd5b5f600282049050600182168061331457607f821691505b602082108103613327576133266132d0565b5b50919050565b5f819050815f5260205f209050919050565b5f6020601f8301049050919050565b5f82821b905092915050565b5f600883026133897fffffffffffffffffffffffffffffffffffffffffffffffffffffffffffffffff8261334e565b613393868361334e565b95508019841693508086168417925050509392505050565b5f6133c56133c06133bb8461295a565b612a90565b61295a565b9050919050565b5f819050919050565b6133de836133ab565b6133f26133ea826133cc565b84845461335a565b825550505050565b5f5f905090565b6134096133fa565b6134148184846133d5565b505050565b5b818110156134375761342c5f82613401565b60018101905061341a565b5050565b601f82111561347c5761344d8161332d565b6134568461333f565b81016020851015613465578190505b6134796134718561333f565b830182613419565b50505b505050565b5f82821c905092915050565b5f61349c5f1984600802613481565b1980831691505092915050565b5f6134b4838361348d565b9150826002028217905092915050565b6134cd82612be4565b67ffffffffffffffff8111156134e6576134e56127ef565b5b6134f082546132fd565b6134fb82828561343b565b5f60209050601f83116001811461352c575f841561351a578287015190505b61352485826134a9565b86555061358b565b601f19841661353a8661332d565b5f5b828110156135615784890151825560018201915060208501945060208101905061353c565b8683101561357e578489015161357a601f89168261348d565b8355505b6001600288020188555050505b505050505050565b5f6040820190508181035f8301526135ab8185612d29565b905081810360208301526135bf8184612d29565b90509392505050565b7f496e76616c69642063616e6469646174652049442100000000000000000000005f82015250565b5f6135fc601583612d19565b9150613607826135c8565b602082019050919050565b5f6020820190508181035f830152613629816135f0565b9050919050565b7f4e487b71000000000000000000000000000000000000000000000000000000005f52603260045260245ffd5b7f5f6c6566742073686f756c6420626520696e7369646520746865206669656c645f82015250565b5f613691602083612d19565b915061369c8261365d565b602082019050919050565b5f6020820190508181035f8301526136be81613685565b9050919050565b7f5f72696768742073686f756c6420626520696e7369646520746865206669656c5f8201527f6400000000000000000000000000000000000000000000000000000000000000602082015250565b5f61371f602183612d19565b915061372a826136c5565b604082019050919050565b5f6020820190508181035f83015261374c81613713565b9050919050565b5f819050919050565b5f61377661377161376c84613753565b612a90565b61295a565b9050919050565b6137868161375c565b82525050565b5f60608201905061379f5f830186612963565b6137ac6020830185612963565b6137b9604083018461377d565b949350505050565b5f815190506137cf8161298b565b92915050565b5f5f604083850312156137eb576137ea6127cf565b5b5f6137f8858286016137c1565b9250506020613809858286016137c1565b9150509250929050565b7f4e487b71000000000000000000000000000000000000000000000000000000005f52601260045260245ffd5b7f4e6f742077697468696e2074686520726567697374726174696f6e20706572695f8201527f6f64210000000000000000000000000000000000000000000000000000000000602082015250565b5f61389a602383612d19565b91506138a582613840565b604082019050919050565b5f6020820190508181035f8301526138c78161388e565b9050919050565b7f4e616d65206d7573742062652032302063686172616374657273206f72206c655f8201527f7373000000000000000000000000000000000000000000000000000000000000602082015250565b5f613928602283612d19565b9150613933826138ce565b604082019050919050565b5f6020820190508181035f8301526139558161391c565b9050919050565b7f43616e6469646174652077697468207468697320494420616c726561647920655f8201527f7869737473000000000000000000000000000000000000000000000000000000602082015250565b5f6139b6602583612d19565b91506139c18261395c565b604082019050919050565b5f6020820190508181035f8301526139e3816139aa565b9050919050565b7f4e487b71000000000000000000000000000000000000000000000000000000005f52601160045260245ffd5b5f613a218261295a565b91507fffffffffffffffffffffffffffffffffffffffffffffffffffffffffffffffff8203613a5357613a526139ea565b5b600182019050919050565b5f613a6882612ded565b91505f8203613a7a57613a796139ea565b5b600182039050919050565b7f53746172742074696d65206d757374206265206265666f726520656e642074695f8201527f6d65000000000000000000000000000000000000000000000000000000000000602082015250565b5f613adf602283612d19565b9150613aea82613a85565b604082019050919050565b5f6020820190508181035f830152613b0c81613ad3565b9050919050565b7f5468697320756e69717565206861736820697320616c726561647920757365645f8201527f2100000000000000000000000000000000000000000000000000000000000000602082015250565b5f613b6d602183612d19565b9150613b7882613b13565b604082019050919050565b5f6020820190508181035f830152613b9a81613b61565b9050919050565b7f4e6f742077697468696e2074686520766f74696e6720706572696f64210000005f82015250565b5f613bd5601d83612d19565b9150613be082613ba1565b602082019050919050565b5f6020820190508181035f830152613c0281613bc9565b9050919050565b7f496e76616c69642063616e6469646174652100000000000000000000000000005f82015250565b5f613c3d601283612d19565b9150613c4882613c09565b602082019050919050565b5f6020820190508181035f830152613c6a81613c31565b9050919050565b7f43616e64696461746520646f6573206e6f7420657869737421000000000000005f82015250565b5f613ca5601983612d19565b9150613cb082613c71565b602082019050919050565b5f6020820190508181035f830152613cd281613c99565b9050919050565b5f613ce382612d81565b915067ffffffffffffffff8203613cfd57613cfc6139ea565b5b600182019050919050565b7f496e646578206f7574206f6620626f756e6473000000000000000000000000005f82015250565b5f613d3c601383612d19565b9150613d4782613d08565b602082019050919050565b5f6020820190508181035f830152613d6981613d30565b9050919050565b7f54686520636f6d6d69746d656e7420686173206265656e207375626d697474655f8201527f6400000000000000000000000000000000000000000000000000000000000000602082015250565b5f613dca602183612d19565b9150613dd582613d70565b604082019050919050565b5f6020820190508181035f830152613df781613dbe565b9050919050565b5f604082019050613e115f830185612dfc565b613e1e6020830184612963565b9392505050565b7f546865206e756c6c696669657220686173206265656e207375626d69747465645f82015250565b5f613e59602083612d19565b9150613e6482613e25565b602082019050919050565b5f6020820190508181035f830152613e8681613e4d565b9050919050565b7f43616e6e6f742066696e6420796f7572206d65726b6c6520726f6f74000000005f82015250565b5f613ec1601c83612d19565b9150613ecc82613e8d565b602082019050919050565b5f6020820190508181035f830152613eee81613eb5565b9050919050565b5f60029050919050565b5f81905092915050565b5f819050919050565b5f602082019050919050565b613f2781613ef5565b613f318184613eff565b9250613f3c82613f09565b805f5b83811015613f6c578151613f538782612b3c565b9650613f5e83613f12565b925050600181019050613f3f565b505050505050565b5f60029050919050565b5f81905092915050565b5f819050919050565b5f81905092915050565b613fa481613ef5565b613fae8184613f91565b9250613fb982613f09565b805f5b83811015613fe9578151613fd08782612b3c565b9650613fdb83613f12565b925050600181019050613fbc565b505050505050565b5f613ffc8383613f9b565b60408301905092915050565b5f602082019050919050565b61401d81613f74565b6140278184613f7e565b925061403282613f88565b805f5b838110156140625781516140498782613ff1565b965061405483614008565b925050600181019050614035565b505050505050565b5f6101408201905061407e5f830187613f1e565b61408b6040830186614014565b61409860c0830185613f1e565b6140a6610100830184613f1e565b95945050505050565b6140b881612a3e565b81146140c2575f5ffd5b50565b5f815190506140d3816140af565b92915050565b5f602082840312156140ee576140ed6127cf565b5b5f6140fb848285016140c5565b91505092915050565b7f496e76616c69642070726f6f66000000000000000000000000000000000000005f82015250565b5f614138600d83612d19565b915061414382614104565b602082019050919050565b5f6020820190508181035f8301526141658161412c565b9050919050565b5f8160011c9050919050565b5f5f8291508390505b60018511156141c15780860481111561419d5761419c6139ea565b5b60018516156141ac5780820291505b80810290506141ba8561416c565b9450614181565b94509492505050565b5f826141d95760019050614294565b816141e6575f9050614294565b81600181146141fc576002811461420657614235565b6001915050614294565b60ff841115614218576142176139ea565b5b8360020a91508482111561422f5761422e6139ea565b5b50614294565b5060208310610133831016604e8410600b841016171561426a5782820a905083811115614265576142646139ea565b5b614294565b6142778484846001614178565b9250905081840481111561428e5761428d6139ea565b5b81810290505b9392505050565b5f6142a582612ded565b91506142b083612ded565b92506142c163ffffffff84846141ca565b905092915050565b7f4d65726b6c6520747265652069732066756c6c2e204e6f206d6f7265206c65615f8201527f7665732063616e20626520616464656400000000000000000000000000000000602082015250565b5f614323603083612d19565b915061432e826142c9565b604082019050919050565b5f6020820190508181035f83015261435081614317565b9050919050565b5f61436182612ded565b915061436c83612ded565b92508261437c5761437b613813565b5b828206905092915050565b5f61439182612ded565b915061439c83612ded565b9250826143ac576143ab613813565b5b828204905092915050565b5f6143c182612ded565b91506143cc83612ded565b9250828201905063ffffffff8111156143e8576143e76139ea565b5b9291505056fea2646970667358221220549bd2cd25bfd59799b09103d77ed84c4817948a9933f204e230955e02452e2c64736f6c634300081b0033",
			"opcodes": "PUSH1 0xC0 PUSH1 0x40 MSTORE PUSH0 PUSH1 0x3 PUSH0 PUSH2 0x100 EXP DUP2 SLOAD DUP2 PUSH4 0xFFFFFFFF MUL NOT AND SWAP1 DUP4 PUSH4 0xFFFFFFFF AND MUL OR SWAP1 SSTORE POP PUSH0 PUSH1 0x3 PUSH1 0x4 PUSH2 0x100 EXP DUP2 SLOAD DUP2 PUSH4 0xFFFFFFFF MUL NOT AND SWAP1 DUP4 PUSH4 0xFFFFFFFF AND MUL OR SWAP1 SSTORE POP CALLVALUE DUP1 ISZERO PUSH2 0x50 JUMPI PUSH0 PUSH0 REVERT JUMPDEST POP PUSH1 0x40 MLOAD PUSH2 0x57BE CODESIZE SUB DUP1 PUSH2 0x57BE DUP4 CODECOPY DUP2 DUP2 ADD PUSH1 0x40 MSTORE DUP2 ADD SWAP1 PUSH2 0x72 SWAP2 SWAP1 PUSH2 0xC45 JUMP JUMPDEST DUP8 DUP8 DUP8 DUP3 DUP3 PUSH0 DUP3 PUSH4 0xFFFFFFFF AND GT PUSH2 0xBF JUMPI PUSH1 0x40 MLOAD PUSH32 0x8C379A000000000000000000000000000000000000000000000000000000000 DUP2 MSTORE PUSH1 0x4 ADD PUSH2 0xB6 SWAP1 PUSH2 0xD92 JUMP JUMPDEST PUSH1 0x40 MLOAD DUP1 SWAP2 SUB SWAP1 REVERT JUMPDEST PUSH1 0x20 DUP3 PUSH4 0xFFFFFFFF AND LT PUSH2 0x108 JUMPI PUSH1 0x40 MLOAD PUSH32 0x8C379A000000000000000000000000000000000000000000000000000000000 DUP2 MSTORE PUSH1 0x4 ADD PUSH2 0xFF SWAP1 PUSH2 0xDFA JUMP JUMPDEST PUSH1 0x40 MLOAD DUP1 SWAP2 SUB SWAP1 REVERT JUMPDEST DUP2 PUSH0 PUSH0 PUSH2 0x100 EXP DUP2 SLOAD DUP2 PUSH4 0xFFFFFFFF MUL NOT AND SWAP1 DUP4 PUSH4 0xFFFFFFFF AND MUL OR SWAP1 SSTORE POP DUP1 PUSH20 0xFFFFFFFFFFFFFFFFFFFFFFFFFFFFFFFFFFFFFFFF AND PUSH1 0x80 DUP2 PUSH20 0xFFFFFFFFFFFFFFFFFFFFFFFFFFFFFFFFFFFFFFFF AND DUP2 MSTORE POP POP PUSH0 PUSH0 SWAP1 POP JUMPDEST DUP3 PUSH4 0xFFFFFFFF AND DUP2 PUSH4 0xFFFFFFFF AND LT ISZERO PUSH2 0x1B1 JUMPI PUSH2 0x189 DUP2 PUSH4 0xFFFFFFFF AND PUSH2 0x368 PUSH1 0x20 SHL PUSH1 0x20 SHR JUMP JUMPDEST PUSH1 0x1 PUSH0 DUP4 PUSH4 0xFFFFFFFF AND DUP2 MSTORE PUSH1 0x20 ADD SWAP1 DUP2 MSTORE PUSH1 0x20 ADD PUSH0 KECCAK256 DUP2 SWAP1 SSTORE POP DUP1 DUP1 PUSH1 0x1 ADD SWAP2 POP POP PUSH2 0x160 JUMP JUMPDEST POP PUSH2 0x1D3 PUSH1 0x1 DUP4 PUSH2 0x1C2 SWAP2 SWAP1 PUSH2 0xE45 JUMP JUMPDEST PUSH4 0xFFFFFFFF AND PUSH2 0x368 PUSH1 0x20 SHL PUSH1 0x20 SHR JUMP JUMPDEST PUSH1 0x2 PUSH0 PUSH0 DUP2 MSTORE PUSH1 0x20 ADD SWAP1 DUP2 MSTORE PUSH1 0x20 ADD PUSH0 KECCAK256 DUP2 SWAP1 SSTORE POP POP POP DUP1 PUSH20 0xFFFFFFFFFFFFFFFFFFFFFFFFFFFFFFFFFFFFFFFF AND PUSH1 0xA0 DUP2 PUSH20 0xFFFFFFFFFFFFFFFFFFFFFFFFFFFFFFFFFFFFFFFF AND DUP2 MSTORE POP POP POP POP POP DUP4 DUP6 LT PUSH2 0x263 JUMPI PUSH1 0x40 MLOAD PUSH32 0x8C379A000000000000000000000000000000000000000000000000000000000 DUP2 MSTORE PUSH1 0x4 ADD PUSH2 0x25A SWAP1 PUSH2 0xEEC JUMP JUMPDEST PUSH1 0x40 MLOAD DUP1 SWAP2 SUB SWAP1 REVERT JUMPDEST DUP2 DUP4 LT PUSH2 0x2A5 JUMPI PUSH1 0x40 MLOAD PUSH32 0x8C379A000000000000000000000000000000000000000000000000000000000 DUP2 MSTORE PUSH1 0x4 ADD PUSH2 0x29C SWAP1 PUSH2 0xF7A JUMP JUMPDEST PUSH1 0x40 MLOAD DUP1 SWAP2 SUB SWAP1 REVERT JUMPDEST DUP3 DUP5 GT ISZERO PUSH2 0x2E8 JUMPI PUSH1 0x40 MLOAD PUSH32 0x8C379A000000000000000000000000000000000000000000000000000000000 DUP2 MSTORE PUSH1 0x4 ADD PUSH2 0x2DF SWAP1 PUSH2 0x1008 JUMP JUMPDEST PUSH1 0x40 MLOAD DUP1 SWAP2 SUB SWAP1 REVERT JUMPDEST CALLER PUSH1 0x6 PUSH0 PUSH2 0x100 EXP DUP2 SLOAD DUP2 PUSH20 0xFFFFFFFFFFFFFFFFFFFFFFFFFFFFFFFFFFFFFFFF MUL NOT AND SWAP1 DUP4 PUSH20 0xFFFFFFFFFFFFFFFFFFFFFFFFFFFFFFFFFFFFFFFF AND MUL OR SWAP1 SSTORE POP PUSH0 PUSH1 0x9 DUP2 SWAP1 SSTORE POP DUP1 PUSH1 0xA SWAP1 DUP2 PUSH2 0x33E SWAP2 SWAP1 PUSH2 0x122D JUMP JUMPDEST POP DUP5 PUSH1 0xC DUP2 SWAP1 SSTORE POP DUP4 PUSH1 0xD DUP2 SWAP1 SSTORE POP DUP3 PUSH1 0xE DUP2 SWAP1 SSTORE POP DUP2 PUSH1 0xF DUP2 SWAP1 SSTORE POP POP POP POP POP POP POP POP POP PUSH2 0x1364 JUMP JUMPDEST PUSH0 PUSH0 DUP3 SUB PUSH2 0x39A JUMPI PUSH32 0x2FE54C60D3ACABF3343A35B6EBA15DB4821B340F76E741E2249685ED4899AF6C PUSH0 SHL SWAP1 POP PUSH2 0x9E1 JUMP JUMPDEST PUSH1 0x1 DUP3 SUB PUSH2 0x3CC JUMPI PUSH32 0x256A6135777EEE2FD26F54B8B7037A25439D5235CAEE224154186D2B8A52E31D PUSH0 SHL SWAP1 POP PUSH2 0x9E1 JUMP JUMPDEST PUSH1 0x2 DUP3 SUB PUSH2 0x3FE JUMPI PUSH32 0x1151949895E82AB19924DE92C40A3D6F7BCB60D92B00504B8199613683F0C200 PUSH0 SHL SWAP1 POP PUSH2 0x9E1 JUMP JUMPDEST PUSH1 0x3 DUP3 SUB PUSH2 0x430 JUMPI PUSH32 0x20121EE811489FF8D61F09FB89E313F14959A0F28BB428A20DBA6B0B068B3BDB PUSH0 SHL SWAP1 POP PUSH2 0x9E1 JUMP JUMPDEST PUSH1 0x4 DUP3 SUB PUSH2 0x462 JUMPI PUSH32 0xA89CA6FFA14CC462CFEDB842C30ED221A50A3D6BF022A6A57DC82AB24C157C9 PUSH0 SHL SWAP1 POP PUSH2 0x9E1 JUMP JUMPDEST PUSH1 0x5 DUP3 SUB PUSH2 0x494 JUMPI PUSH32 0x24CA05C2B5CD42E890D6BE94C68D0689F4F21C9CEC9C0F13FE41D566DFB54959 PUSH0 SHL SWAP1 POP PUSH2 0x9E1 JUMP JUMPDEST PUSH1 0x6 DUP3 SUB PUSH2 0x4C6 JUMPI PUSH32 0x1CCB97C932565A92C60156BDBA2D08F3BF1377464E025CEE765679E604A7315C PUSH0 SHL SWAP1 POP PUSH2 0x9E1 JUMP JUMPDEST PUSH1 0x7 DUP3 SUB PUSH2 0x4F8 JUMPI PUSH32 0x19156FBD7D1A8BF5CBA8909367DE1B624534EBAB4F0F79E003BCCDD1B182BDB4 PUSH0 SHL SWAP1 POP PUSH2 0x9E1 JUMP JUMPDEST PUSH1 0x8 DUP3 SUB PUSH2 0x52A JUMPI PUSH32 0x261AF8C1F0912E465744641409F622D466C3920AC6E5FF37E36604CB11DFFF80 PUSH0 SHL SWAP1 POP PUSH2 0x9E1 JUMP JUMPDEST PUSH1 0x9 DUP3 SUB PUSH2 0x55B JUMPI PUSH31 0x58459724FF6CA5A1652FCBC3E82B93895CF08E975B19BEAB3F54C217D1C007 PUSH0 SHL SWAP1 POP PUSH2 0x9E1 JUMP JUMPDEST PUSH1 0xA DUP3 SUB PUSH2 0x58D JUMPI PUSH32 0x1F04EF20DEE48D39984D8EABE768A70EAFA6310AD20849D4573C3C40C2AD1E30 PUSH0 SHL SWAP1 POP PUSH2 0x9E1 JUMP JUMPDEST PUSH1 0xB DUP3 SUB PUSH2 0x5BF JUMPI PUSH32 0x1BEA3DEC5DAB51567CE7E200A30F7BA6D4276AEAA53E2686F962A46C66D511E5 PUSH0 SHL SWAP1 POP PUSH2 0x9E1 JUMP JUMPDEST PUSH1 0xC DUP3 SUB PUSH2 0x5F1 JUMPI PUSH32 0xEE0F941E2DA4B9E31C3CA97A40D8FA9CE68D97C084177071B3CB46CD3372F0F PUSH0 SHL SWAP1 POP PUSH2 0x9E1 JUMP JUMPDEST PUSH1 0xD DUP3 SUB PUSH2 0x623 JUMPI PUSH32 0x1CA9503E8935884501BBAF20BE14EB4C46B89772C97B96E3B2EBF3A36A948BBD PUSH0 SHL SWAP1 POP PUSH2 0x9E1 JUMP JUMPDEST PUSH1 0xE DUP3 SUB PUSH2 0x655 JUMPI PUSH32 0x133A80E30697CD55D8F7D4B0965B7BE24057BA5DC3DA898EE2187232446CB108 PUSH0 SHL SWAP1 POP PUSH2 0x9E1 JUMP JUMPDEST PUSH1 0xF DUP3 SUB PUSH2 0x687 JUMPI PUSH32 0x13E6D8FC88839ED76E182C2A779AF5B2C0DA9DD18C90427A644F7E148A6253B6 PUSH0 SHL SWAP1 POP PUSH2 0x9E1 JUMP JUMPDEST PUSH1 0x10 DUP3 SUB PUSH2 0x6B9 JUMPI PUSH32 0x1EB16B057A477F4BC8F572EA6BEE39561098F78F15BFB3699DCBB7BD8DB61854 PUSH0 SHL SWAP1 POP PUSH2 0x9E1 JUMP JUMPDEST PUSH1 0x11 DUP3 SUB PUSH2 0x6EB JUMPI PUSH32 0xDA2CB16A1CEAABF1C16B838F7A9E3F2A3A3088D9E0A6DEBAA748114620696EA PUSH0 SHL SWAP1 POP PUSH2 0x9E1 JUMP JUMPDEST PUSH1 0x12 DUP3 SUB PUSH2 0x71D JUMPI PUSH32 0x24A3B3D822420B14B5D8CB6C28A574F01E98EA9E940551D2EBD75CEE12649F9D PUSH0 SHL SWAP1 POP PUSH2 0x9E1 JUMP JUMPDEST PUSH1 0x13 DUP3 SUB PUSH2 0x74F JUMPI PUSH32 0x198622ACBD783D1B0D9064105B1FC8E4D8889DE95C4C519B3F635809FE6AFC05 PUSH0 SHL SWAP1 POP PUSH2 0x9E1 JUMP JUMPDEST PUSH1 0x14 DUP3 SUB PUSH2 0x781 JUMPI PUSH32 0x29D7ED391256CCC3EA596C86E933B89FF339D25EA8DDCED975AE2FE30B5296D4 PUSH0 SHL SWAP1 POP PUSH2 0x9E1 JUMP JUMPDEST PUSH1 0x15 DUP3 SUB PUSH2 0x7B3 JUMPI PUSH32 0x19BE59F2F0413CE78C0C3703A3A5451B1D7F39629FA33ABD11548A76065B2967 PUSH0 SHL SWAP1 POP PUSH2 0x9E1 JUMP JUMPDEST PUSH1 0x16 DUP3 SUB PUSH2 0x7E5 JUMPI PUSH32 0x1FF3F61797E538B70E619310D33F2A063E7EB59104E112E95738DA1254DC3453 PUSH0 SHL SWAP1 POP PUSH2 0x9E1 JUMP JUMPDEST PUSH1 0x17 DUP3 SUB PUSH2 0x817 JUMPI PUSH32 0x10C16AE9959CF8358980D9DD9616E48228737310A10E2B6B731C1A548F036C48 PUSH0 SHL SWAP1 POP PUSH2 0x9E1 JUMP JUMPDEST PUSH1 0x18 DUP3 SUB PUSH2 0x849 JUMPI PUSH32 0xBA433A63174A90AC20992E75E3095496812B652685B5E1A2EAE0B1BF4E8FCD1 PUSH0 SHL SWAP1 POP PUSH2 0x9E1 JUMP JUMPDEST PUSH1 0x19 DUP3 SUB PUSH2 0x87B JUMPI PUSH32 0x19DDB9DF2BC98D987D0DFECA9D2B643DEAFAB8F7036562E627C3667266A044C PUSH0 SHL SWAP1 POP PUSH2 0x9E1 JUMP JUMPDEST PUSH1 0x1A DUP3 SUB PUSH2 0x8AD JUMPI PUSH32 0x2D3C88B23175C5A5565DB928414C66D1912B11ACF974B2E644CAAAC04739CE99 PUSH0 SHL SWAP1 POP PUSH2 0x9E1 JUMP JUMPDEST PUSH1 0x1B DUP3 SUB PUSH2 0x8DF JUMPI PUSH32 0x2EAB55F6AE4E66E32C5189EED5C470840863445760F5ED7E7B69B2A62600F354 PUSH0 SHL SWAP1 POP PUSH2 0x9E1 JUMP JUMPDEST PUSH1 0x1C DUP3 SUB PUSH2 0x910 JUMPI PUSH31 0x2DF37A2642621802383CF952BF4DD1F32E05433BEEB1FD41031FB7EACE979D PUSH0 SHL SWAP1 POP PUSH2 0x9E1 JUMP JUMPDEST PUSH1 0x1D DUP3 SUB PUSH2 0x942 JUMPI PUSH32 0x104AEB41435DB66C3E62FECCC1D6F5D98D0A0ED75D1374DB457CF462E3A1F427 PUSH0 SHL SWAP1 POP PUSH2 0x9E1 JUMP JUMPDEST PUSH1 0x1E DUP3 SUB PUSH2 0x974 JUMPI PUSH32 0x1F3C6FD858E9A7D4B0D1F38E256A09D81D5A5E3C963987E2D4B814CFAB7C6EBB PUSH0 SHL SWAP1 POP PUSH2 0x9E1 JUMP JUMPDEST PUSH1 0x1F DUP3 SUB PUSH2 0x9A6 JUMPI PUSH32 0x2C7A07D20DFF79D01FECEDC1134284A8D08436606C93693B67E333F671BF69CC PUSH0 SHL SWAP1 POP PUSH2 0x9E1 JUMP JUMPDEST PUSH1 0x40 MLOAD PUSH32 0x8C379A000000000000000000000000000000000000000000000000000000000 DUP2 MSTORE PUSH1 0x4 ADD PUSH2 0x9D8 SWAP1 PUSH2 0x1346 JUMP JUMPDEST PUSH1 0x40 MLOAD DUP1 SWAP2 SUB SWAP1 REVERT JUMPDEST SWAP2 SWAP1 POP JUMP JUMPDEST PUSH0 PUSH1 0x40 MLOAD SWAP1 POP SWAP1 JUMP JUMPDEST PUSH0 PUSH0 REVERT JUMPDEST PUSH0 PUSH0 REVERT JUMPDEST PUSH0 PUSH4 0xFFFFFFFF DUP3 AND SWAP1 POP SWAP2 SWAP1 POP JUMP JUMPDEST PUSH2 0xA0F DUP2 PUSH2 0x9F7 JUMP JUMPDEST DUP2 EQ PUSH2 0xA19 JUMPI PUSH0 PUSH0 REVERT JUMPDEST POP JUMP JUMPDEST PUSH0 DUP2 MLOAD SWAP1 POP PUSH2 0xA2A DUP2 PUSH2 0xA06 JUMP JUMPDEST SWAP3 SWAP2 POP POP JUMP JUMPDEST PUSH0 PUSH20 0xFFFFFFFFFFFFFFFFFFFFFFFFFFFFFFFFFFFFFFFF DUP3 AND SWAP1 POP SWAP2 SWAP1 POP JUMP JUMPDEST PUSH0 PUSH2 0xA59 DUP3 PUSH2 0xA30 JUMP JUMPDEST SWAP1 POP SWAP2 SWAP1 POP JUMP JUMPDEST PUSH0 PUSH2 0xA6A DUP3 PUSH2 0xA4F JUMP JUMPDEST SWAP1 POP SWAP2 SWAP1 POP JUMP JUMPDEST PUSH2 0xA7A DUP2 PUSH2 0xA60 JUMP JUMPDEST DUP2 EQ PUSH2 0xA84 JUMPI PUSH0 PUSH0 REVERT JUMPDEST POP JUMP JUMPDEST PUSH0 DUP2 MLOAD SWAP1 POP PUSH2 0xA95 DUP2 PUSH2 0xA71 JUMP JUMPDEST SWAP3 SWAP2 POP POP JUMP JUMPDEST PUSH0 PUSH2 0xAA5 DUP3 PUSH2 0xA4F JUMP JUMPDEST SWAP1 POP SWAP2 SWAP1 POP JUMP JUMPDEST PUSH2 0xAB5 DUP2 PUSH2 0xA9B JUMP JUMPDEST DUP2 EQ PUSH2 0xABF JUMPI PUSH0 PUSH0 REVERT JUMPDEST POP JUMP JUMPDEST PUSH0 DUP2 MLOAD SWAP1 POP PUSH2 0xAD0 DUP2 PUSH2 0xAAC JUMP JUMPDEST SWAP3 SWAP2 POP POP JUMP JUMPDEST PUSH0 DUP2 SWAP1 POP SWAP2 SWAP1 POP JUMP JUMPDEST PUSH2 0xAE8 DUP2 PUSH2 0xAD6 JUMP JUMPDEST DUP2 EQ PUSH2 0xAF2 JUMPI PUSH0 PUSH0 REVERT JUMPDEST POP JUMP JUMPDEST PUSH0 DUP2 MLOAD SWAP1 POP PUSH2 0xB03 DUP2 PUSH2 0xADF JUMP JUMPDEST SWAP3 SWAP2 POP POP JUMP JUMPDEST PUSH0 PUSH0 REVERT JUMPDEST PUSH0 PUSH0 REVERT JUMPDEST PUSH0 PUSH1 0x1F NOT PUSH1 0x1F DUP4 ADD AND SWAP1 POP SWAP2 SWAP1 POP JUMP JUMPDEST PUSH32 0x4E487B7100000000000000000000000000000000000000000000000000000000 PUSH0 MSTORE PUSH1 0x41 PUSH1 0x4 MSTORE PUSH1 0x24 PUSH0 REVERT JUMPDEST PUSH2 0xB57 DUP3 PUSH2 0xB11 JUMP JUMPDEST DUP2 ADD DUP2 DUP2 LT PUSH8 0xFFFFFFFFFFFFFFFF DUP3 GT OR ISZERO PUSH2 0xB76 JUMPI PUSH2 0xB75 PUSH2 0xB21 JUMP JUMPDEST JUMPDEST DUP1 PUSH1 0x40 MSTORE POP POP POP JUMP JUMPDEST PUSH0 PUSH2 0xB88 PUSH2 0x9E6 JUMP JUMPDEST SWAP1 POP PUSH2 0xB94 DUP3 DUP3 PUSH2 0xB4E JUMP JUMPDEST SWAP2 SWAP1 POP JUMP JUMPDEST PUSH0 PUSH8 0xFFFFFFFFFFFFFFFF DUP3 GT ISZERO PUSH2 0xBB3 JUMPI PUSH2 0xBB2 PUSH2 0xB21 JUMP JUMPDEST JUMPDEST PUSH2 0xBBC DUP3 PUSH2 0xB11 JUMP JUMPDEST SWAP1 POP PUSH1 0x20 DUP2 ADD SWAP1 POP SWAP2 SWAP1 POP JUMP JUMPDEST DUP3 DUP2 DUP4 MCOPY PUSH0 DUP4 DUP4 ADD MSTORE POP POP POP JUMP JUMPDEST PUSH0 PUSH2 0xBE9 PUSH2 0xBE4 DUP5 PUSH2 0xB99 JUMP JUMPDEST PUSH2 0xB7F JUMP JUMPDEST SWAP1 POP DUP3 DUP2 MSTORE PUSH1 0x20 DUP2 ADD DUP5 DUP5 DUP5 ADD GT ISZERO PUSH2 0xC05 JUMPI PUSH2 0xC04 PUSH2 0xB0D JUMP JUMPDEST JUMPDEST PUSH2 0xC10 DUP5 DUP3 DUP6 PUSH2 0xBC9 JUMP JUMPDEST POP SWAP4 SWAP3 POP POP POP JUMP JUMPDEST PUSH0 DUP3 PUSH1 0x1F DUP4 ADD SLT PUSH2 0xC2C JUMPI PUSH2 0xC2B PUSH2 0xB09 JUMP JUMPDEST JUMPDEST DUP2 MLOAD PUSH2 0xC3C DUP5 DUP3 PUSH1 0x20 DUP7 ADD PUSH2 0xBD7 JUMP JUMPDEST SWAP2 POP POP SWAP3 SWAP2 POP POP JUMP JUMPDEST PUSH0 PUSH0 PUSH0 PUSH0 PUSH0 PUSH0 PUSH0 PUSH0 PUSH2 0x100 DUP10 DUP12 SUB SLT ISZERO PUSH2 0xC62 JUMPI PUSH2 0xC61 PUSH2 0x9EF JUMP JUMPDEST JUMPDEST PUSH0 PUSH2 0xC6F DUP12 DUP3 DUP13 ADD PUSH2 0xA1C JUMP JUMPDEST SWAP9 POP POP PUSH1 0x20 PUSH2 0xC80 DUP12 DUP3 DUP13 ADD PUSH2 0xA87 JUMP JUMPDEST SWAP8 POP POP PUSH1 0x40 PUSH2 0xC91 DUP12 DUP3 DUP13 ADD PUSH2 0xAC2 JUMP JUMPDEST SWAP7 POP POP PUSH1 0x60 PUSH2 0xCA2 DUP12 DUP3 DUP13 ADD PUSH2 0xAF5 JUMP JUMPDEST SWAP6 POP POP PUSH1 0x80 PUSH2 0xCB3 DUP12 DUP3 DUP13 ADD PUSH2 0xAF5 JUMP JUMPDEST SWAP5 POP POP PUSH1 0xA0 PUSH2 0xCC4 DUP12 DUP3 DUP13 ADD PUSH2 0xAF5 JUMP JUMPDEST SWAP4 POP POP PUSH1 0xC0 PUSH2 0xCD5 DUP12 DUP3 DUP13 ADD PUSH2 0xAF5 JUMP JUMPDEST SWAP3 POP POP PUSH1 0xE0 DUP10 ADD MLOAD PUSH8 0xFFFFFFFFFFFFFFFF DUP2 GT ISZERO PUSH2 0xCF6 JUMPI PUSH2 0xCF5 PUSH2 0x9F3 JUMP JUMPDEST JUMPDEST PUSH2 0xD02 DUP12 DUP3 DUP13 ADD PUSH2 0xC18 JUMP JUMPDEST SWAP2 POP POP SWAP3 SWAP6 SWAP9 POP SWAP3 SWAP6 SWAP9 SWAP1 SWAP4 SWAP7 POP JUMP JUMPDEST PUSH0 DUP3 DUP3 MSTORE PUSH1 0x20 DUP3 ADD SWAP1 POP SWAP3 SWAP2 POP POP JUMP JUMPDEST PUSH32 0x5F6C6576656C732073686F756C642062652067726561746572207468616E207A PUSH0 DUP3 ADD MSTORE PUSH32 0x65726F0000000000000000000000000000000000000000000000000000000000 PUSH1 0x20 DUP3 ADD MSTORE POP JUMP JUMPDEST PUSH0 PUSH2 0xD7C PUSH1 0x23 DUP4 PUSH2 0xD12 JUMP JUMPDEST SWAP2 POP PUSH2 0xD87 DUP3 PUSH2 0xD22 JUMP JUMPDEST PUSH1 0x40 DUP3 ADD SWAP1 POP SWAP2 SWAP1 POP JUMP JUMPDEST PUSH0 PUSH1 0x20 DUP3 ADD SWAP1 POP DUP2 DUP2 SUB PUSH0 DUP4 ADD MSTORE PUSH2 0xDA9 DUP2 PUSH2 0xD70 JUMP JUMPDEST SWAP1 POP SWAP2 SWAP1 POP JUMP JUMPDEST PUSH32 0x5F6C6576656C732073686F756C64206265206C657373207468616E2033320000 PUSH0 DUP3 ADD MSTORE POP JUMP JUMPDEST PUSH0 PUSH2 0xDE4 PUSH1 0x1E DUP4 PUSH2 0xD12 JUMP JUMPDEST SWAP2 POP PUSH2 0xDEF DUP3 PUSH2 0xDB0 JUMP JUMPDEST PUSH1 0x20 DUP3 ADD SWAP1 POP SWAP2 SWAP1 POP JUMP JUMPDEST PUSH0 PUSH1 0x20 DUP3 ADD SWAP1 POP DUP2 DUP2 SUB PUSH0 DUP4 ADD MSTORE PUSH2 0xE11 DUP2 PUSH2 0xDD8 JUMP JUMPDEST SWAP1 POP SWAP2 SWAP1 POP JUMP JUMPDEST PUSH32 0x4E487B7100000000000000000000000000000000000000000000000000000000 PUSH0 MSTORE PUSH1 0x11 PUSH1 0x4 MSTORE PUSH1 0x24 PUSH0 REVERT JUMPDEST PUSH0 PUSH2 0xE4F DUP3 PUSH2 0x9F7 JUMP JUMPDEST SWAP2 POP PUSH2 0xE5A DUP4 PUSH2 0x9F7 JUMP JUMPDEST SWAP3 POP DUP3 DUP3 SUB SWAP1 POP PUSH4 0xFFFFFFFF DUP2 GT ISZERO PUSH2 0xE76 JUMPI PUSH2 0xE75 PUSH2 0xE18 JUMP JUMPDEST JUMPDEST SWAP3 SWAP2 POP POP JUMP JUMPDEST PUSH32 0x526567697374726174696F6E207374617274206D757374206265206265666F72 PUSH0 DUP3 ADD MSTORE PUSH32 0x6520656E642074696D6500000000000000000000000000000000000000000000 PUSH1 0x20 DUP3 ADD MSTORE POP JUMP JUMPDEST PUSH0 PUSH2 0xED6 PUSH1 0x2A DUP4 PUSH2 0xD12 JUMP JUMPDEST SWAP2 POP PUSH2 0xEE1 DUP3 PUSH2 0xE7C JUMP JUMPDEST PUSH1 0x40 DUP3 ADD SWAP1 POP SWAP2 SWAP1 POP JUMP JUMPDEST PUSH0 PUSH1 0x20 DUP3 ADD SWAP1 POP DUP2 DUP2 SUB PUSH0 DUP4 ADD MSTORE PUSH2 0xF03 DUP2 PUSH2 0xECA JUMP JUMPDEST SWAP1 POP SWAP2 SWAP1 POP JUMP JUMPDEST PUSH32 0x566F74696E67207374617274206D757374206265206265666F726520656E6420 PUSH0 DUP3 ADD MSTORE PUSH32 0x74696D6500000000000000000000000000000000000000000000000000000000 PUSH1 0x20 DUP3 ADD MSTORE POP JUMP JUMPDEST PUSH0 PUSH2 0xF64 PUSH1 0x24 DUP4 PUSH2 0xD12 JUMP JUMPDEST SWAP2 POP PUSH2 0xF6F DUP3 PUSH2 0xF0A JUMP JUMPDEST PUSH1 0x40 DUP3 ADD SWAP1 POP SWAP2 SWAP1 POP JUMP JUMPDEST PUSH0 PUSH1 0x20 DUP3 ADD SWAP1 POP DUP2 DUP2 SUB PUSH0 DUP4 ADD MSTORE PUSH2 0xF91 DUP2 PUSH2 0xF58 JUMP JUMPDEST SWAP1 POP SWAP2 SWAP1 POP JUMP JUMPDEST PUSH32 0x526567697374726174696F6E206D75737420656E64206265666F726520766F74 PUSH0 DUP3 ADD MSTORE PUSH32 0x696E672073746172747300000000000000000000000000000000000000000000 PUSH1 0x20 DUP3 ADD MSTORE POP JUMP JUMPDEST PUSH0 PUSH2 0xFF2 PUSH1 0x2A DUP4 PUSH2 0xD12 JUMP JUMPDEST SWAP2 POP PUSH2 0xFFD DUP3 PUSH2 0xF98 JUMP JUMPDEST PUSH1 0x40 DUP3 ADD SWAP1 POP SWAP2 SWAP1 POP JUMP JUMPDEST PUSH0 PUSH1 0x20 DUP3 ADD SWAP1 POP DUP2 DUP2 SUB PUSH0 DUP4 ADD MSTORE PUSH2 0x101F DUP2 PUSH2 0xFE6 JUMP JUMPDEST SWAP1 POP SWAP2 SWAP1 POP JUMP JUMPDEST PUSH0 DUP2 MLOAD SWAP1 POP SWAP2 SWAP1 POP JUMP JUMPDEST PUSH32 0x4E487B7100000000000000000000000000000000000000000000000000000000 PUSH0 MSTORE PUSH1 0x22 PUSH1 0x4 MSTORE PUSH1 0x24 PUSH0 REVERT JUMPDEST PUSH0 PUSH1 0x2 DUP3 DIV SWAP1 POP PUSH1 0x1 DUP3 AND DUP1 PUSH2 0x1074 JUMPI PUSH1 0x7F DUP3 AND SWAP2 POP JUMPDEST PUSH1 0x20 DUP3 LT DUP2 SUB PUSH2 0x1087 JUMPI PUSH2 0x1086 PUSH2 0x1030 JUMP JUMPDEST JUMPDEST POP SWAP2 SWAP1 POP JUMP JUMPDEST PUSH0 DUP2 SWAP1 POP DUP2 PUSH0 MSTORE PUSH1 0x20 PUSH0 KECCAK256 SWAP1 POP SWAP2 SWAP1 POP JUMP JUMPDEST PUSH0 PUSH1 0x20 PUSH1 0x1F DUP4 ADD DIV SWAP1 POP SWAP2 SWAP1 POP JUMP JUMPDEST PUSH0 DUP3 DUP3 SHL SWAP1 POP SWAP3 SWAP2 POP POP JUMP JUMPDEST PUSH0 PUSH1 0x8 DUP4 MUL PUSH2 0x10E9 PUSH32 0xFFFFFFFFFFFFFFFFFFFFFFFFFFFFFFFFFFFFFFFFFFFFFFFFFFFFFFFFFFFFFFFF DUP3 PUSH2 0x10AE JUMP JUMPDEST PUSH2 0x10F3 DUP7 DUP4 PUSH2 0x10AE JUMP JUMPDEST SWAP6 POP DUP1 NOT DUP5 AND SWAP4 POP DUP1 DUP7 AND DUP5 OR SWAP3 POP POP POP SWAP4 SWAP3 POP POP POP JUMP JUMPDEST PUSH0 DUP2 SWAP1 POP SWAP2 SWAP1 POP JUMP JUMPDEST PUSH0 PUSH2 0x112E PUSH2 0x1129 PUSH2 0x1124 DUP5 PUSH2 0xAD6 JUMP JUMPDEST PUSH2 0x110B JUMP JUMPDEST PUSH2 0xAD6 JUMP JUMPDEST SWAP1 POP SWAP2 SWAP1 POP JUMP JUMPDEST PUSH0 DUP2 SWAP1 POP SWAP2 SWAP1 POP JUMP JUMPDEST PUSH2 0x1147 DUP4 PUSH2 0x1114 JUMP JUMPDEST PUSH2 0x115B PUSH2 0x1153 DUP3 PUSH2 0x1135 JUMP JUMPDEST DUP5 DUP5 SLOAD PUSH2 0x10BA JUMP JUMPDEST DUP3 SSTORE POP POP POP POP JUMP JUMPDEST PUSH0 PUSH0 SWAP1 POP SWAP1 JUMP JUMPDEST PUSH2 0x1172 PUSH2 0x1163 JUMP JUMPDEST PUSH2 0x117D DUP2 DUP5 DUP5 PUSH2 0x113E JUMP JUMPDEST POP POP POP JUMP JUMPDEST JUMPDEST DUP2 DUP2 LT ISZERO PUSH2 0x11A0 JUMPI PUSH2 0x1195 PUSH0 DUP3 PUSH2 0x116A JUMP JUMPDEST PUSH1 0x1 DUP2 ADD SWAP1 POP PUSH2 0x1183 JUMP JUMPDEST POP POP JUMP JUMPDEST PUSH1 0x1F DUP3 GT ISZERO PUSH2 0x11E5 JUMPI PUSH2 0x11B6 DUP2 PUSH2 0x108D JUMP JUMPDEST PUSH2 0x11BF DUP5 PUSH2 0x109F JUMP JUMPDEST DUP2 ADD PUSH1 0x20 DUP6 LT ISZERO PUSH2 0x11CE JUMPI DUP2 SWAP1 POP JUMPDEST PUSH2 0x11E2 PUSH2 0x11DA DUP6 PUSH2 0x109F JUMP JUMPDEST DUP4 ADD DUP3 PUSH2 0x1182 JUMP JUMPDEST POP POP JUMPDEST POP POP POP JUMP JUMPDEST PUSH0 DUP3 DUP3 SHR SWAP1 POP SWAP3 SWAP2 POP POP JUMP JUMPDEST PUSH0 PUSH2 0x1205 PUSH0 NOT DUP5 PUSH1 0x8 MUL PUSH2 0x11EA JUMP JUMPDEST NOT DUP1 DUP4 AND SWAP2 POP POP SWAP3 SWAP2 POP POP JUMP JUMPDEST PUSH0 PUSH2 0x121D DUP4 DUP4 PUSH2 0x11F6 JUMP JUMPDEST SWAP2 POP DUP3 PUSH1 0x2 MUL DUP3 OR SWAP1 POP SWAP3 SWAP2 POP POP JUMP JUMPDEST PUSH2 0x1236 DUP3 PUSH2 0x1026 JUMP JUMPDEST PUSH8 0xFFFFFFFFFFFFFFFF DUP2 GT ISZERO PUSH2 0x124F JUMPI PUSH2 0x124E PUSH2 0xB21 JUMP JUMPDEST JUMPDEST PUSH2 0x1259 DUP3 SLOAD PUSH2 0x105D JUMP JUMPDEST PUSH2 0x1264 DUP3 DUP3 DUP6 PUSH2 0x11A4 JUMP JUMPDEST PUSH0 PUSH1 0x20 SWAP1 POP PUSH1 0x1F DUP4 GT PUSH1 0x1 DUP2 EQ PUSH2 0x1295 JUMPI PUSH0 DUP5 ISZERO PUSH2 0x1283 JUMPI DUP3 DUP8 ADD MLOAD SWAP1 POP JUMPDEST PUSH2 0x128D DUP6 DUP3 PUSH2 0x1212 JUMP JUMPDEST DUP7 SSTORE POP PUSH2 0x12F4 JUMP JUMPDEST PUSH1 0x1F NOT DUP5 AND PUSH2 0x12A3 DUP7 PUSH2 0x108D JUMP JUMPDEST PUSH0 JUMPDEST DUP3 DUP2 LT ISZERO PUSH2 0x12CA JUMPI DUP5 DUP10 ADD MLOAD DUP3 SSTORE PUSH1 0x1 DUP3 ADD SWAP2 POP PUSH1 0x20 DUP6 ADD SWAP5 POP PUSH1 0x20 DUP2 ADD SWAP1 POP PUSH2 0x12A5 JUMP JUMPDEST DUP7 DUP4 LT ISZERO PUSH2 0x12E7 JUMPI DUP5 DUP10 ADD MLOAD PUSH2 0x12E3 PUSH1 0x1F DUP10 AND DUP3 PUSH2 0x11F6 JUMP JUMPDEST DUP4 SSTORE POP JUMPDEST PUSH1 0x1 PUSH1 0x2 DUP9 MUL ADD DUP9 SSTORE POP POP POP JUMPDEST POP POP POP POP POP POP JUMP JUMPDEST PUSH32 0x496E646578206F7574206F6620626F756E647300000000000000000000000000 PUSH0 DUP3 ADD MSTORE POP JUMP JUMPDEST PUSH0 PUSH2 0x1330 PUSH1 0x13 DUP4 PUSH2 0xD12 JUMP JUMPDEST SWAP2 POP PUSH2 0x133B DUP3 PUSH2 0x12FC JUMP JUMPDEST PUSH1 0x20 DUP3 ADD SWAP1 POP SWAP2 SWAP1 POP JUMP JUMPDEST PUSH0 PUSH1 0x20 DUP3 ADD SWAP1 POP DUP2 DUP2 SUB PUSH0 DUP4 ADD MSTORE PUSH2 0x135D DUP2 PUSH2 0x1324 JUMP JUMPDEST SWAP1 POP SWAP2 SWAP1 POP JUMP JUMPDEST PUSH1 0x80 MLOAD PUSH1 0xA0 MLOAD PUSH2 0x4424 PUSH2 0x139A PUSH0 CODECOPY PUSH0 DUP2 DUP2 PUSH2 0xADB ADD MSTORE PUSH2 0x245A ADD MSTORE PUSH0 DUP2 DUP2 PUSH2 0xF71 ADD MSTORE DUP2 DUP2 PUSH2 0x1048 ADD MSTORE PUSH2 0x2294 ADD MSTORE PUSH2 0x4424 PUSH0 RETURN INVALID PUSH1 0x80 PUSH1 0x40 MSTORE CALLVALUE DUP1 ISZERO PUSH2 0xF JUMPI PUSH0 PUSH0 REVERT JUMPDEST POP PUSH1 0x4 CALLDATASIZE LT PUSH2 0x246 JUMPI PUSH0 CALLDATALOAD PUSH1 0xE0 SHR DUP1 PUSH4 0x893D20E8 GT PUSH2 0x139 JUMPI DUP1 PUSH4 0xC1B1F732 GT PUSH2 0xB6 JUMPI DUP1 PUSH4 0xE8295588 GT PUSH2 0x7A JUMPI DUP1 PUSH4 0xE8295588 EQ PUSH2 0x721 JUMPI DUP1 PUSH4 0xEC732959 EQ PUSH2 0x751 JUMPI DUP1 PUSH4 0xED33639F EQ PUSH2 0x76F JUMPI DUP1 PUSH4 0xF178E47C EQ PUSH2 0x78D JUMPI DUP1 PUSH4 0xFC7E9C6F EQ PUSH2 0x7BD JUMPI PUSH2 0x246 JUMP JUMPDEST DUP1 PUSH4 0xC1B1F732 EQ PUSH2 0x657 JUMPI DUP1 PUSH4 0xC2B40AE4 EQ PUSH2 0x687 JUMPI DUP1 PUSH4 0xCD87A3B4 EQ PUSH2 0x6B7 JUMPI DUP1 PUSH4 0xCE8F6377 EQ PUSH2 0x6D5 JUMPI DUP1 PUSH4 0xD290A3CF EQ PUSH2 0x6F1 JUMPI PUSH2 0x246 JUMP JUMPDEST DUP1 PUSH4 0xA15A36C7 GT PUSH2 0xFD JUMPI DUP1 PUSH4 0xA15A36C7 EQ PUSH2 0x5C5 JUMPI DUP1 PUSH4 0xB4062A31 EQ PUSH2 0x5E1 JUMPI DUP1 PUSH4 0xB7AB4DB5 EQ PUSH2 0x5FF JUMPI DUP1 PUSH4 0xBA70F757 EQ PUSH2 0x61D JUMPI DUP1 PUSH4 0xBE00D6A1 EQ PUSH2 0x63B JUMPI PUSH2 0x246 JUMP JUMPDEST DUP1 PUSH4 0x893D20E8 EQ PUSH2 0x51F JUMPI DUP1 PUSH4 0x8BB2FB75 EQ PUSH2 0x53D JUMPI DUP1 PUSH4 0x8DA5CB5B EQ PUSH2 0x559 JUMPI DUP1 PUSH4 0x90EEB02B EQ PUSH2 0x577 JUMPI DUP1 PUSH4 0x955E0377 EQ PUSH2 0x595 JUMPI PUSH2 0x246 JUMP JUMPDEST DUP1 PUSH4 0x414A37BA GT PUSH2 0x1C7 JUMPI DUP1 PUSH4 0x6D3CBA61 GT PUSH2 0x18B JUMPI DUP1 PUSH4 0x6D3CBA61 EQ PUSH2 0x453 JUMPI DUP1 PUSH4 0x6D9833E3 EQ PUSH2 0x483 JUMPI DUP1 PUSH4 0x839DF945 EQ PUSH2 0x4B3 JUMPI DUP1 PUSH4 0x85A38635 EQ PUSH2 0x4E3 JUMPI DUP1 PUSH4 0x85E8E7A7 EQ PUSH2 0x501 JUMPI PUSH2 0x246 JUMP JUMPDEST DUP1 PUSH4 0x414A37BA EQ PUSH2 0x3AD JUMPI DUP1 PUSH4 0x4ECF518B EQ PUSH2 0x3CB JUMPI DUP1 PUSH4 0x5216509A EQ PUSH2 0x3E9 JUMPI DUP1 PUSH4 0x5BB93995 EQ PUSH2 0x407 JUMPI DUP1 PUSH4 0x5E559EA1 EQ PUSH2 0x437 JUMPI PUSH2 0x246 JUMP JUMPDEST DUP1 PUSH4 0x2B7AC3F3 GT PUSH2 0x20E JUMPI DUP1 PUSH4 0x2B7AC3F3 EQ PUSH2 0x2EE JUMPI DUP1 PUSH4 0x2E6997FE EQ PUSH2 0x30C JUMPI DUP1 PUSH4 0x30E7A79C EQ PUSH2 0x32C JUMPI DUP1 PUSH4 0x32BCCE08 EQ PUSH2 0x34A JUMPI DUP1 PUSH4 0x3477EE2E EQ PUSH2 0x37A JUMPI PUSH2 0x246 JUMP JUMPDEST DUP1 PUSH4 0x31A1374 EQ PUSH2 0x24A JUMPI DUP1 PUSH4 0x101158AF EQ PUSH2 0x266 JUMPI DUP1 PUSH4 0x13446A75 EQ PUSH2 0x284 JUMPI DUP1 PUSH4 0x1E620CD4 EQ PUSH2 0x2A2 JUMPI DUP1 PUSH4 0x2997E86B EQ PUSH2 0x2BE JUMPI JUMPDEST PUSH0 PUSH0 REVERT JUMPDEST PUSH2 0x264 PUSH1 0x4 DUP1 CALLDATASIZE SUB DUP2 ADD SWAP1 PUSH2 0x25F SWAP2 SWAP1 PUSH2 0x2913 JUMP JUMPDEST PUSH2 0x7DB JUMP JUMPDEST STOP JUMPDEST PUSH2 0x26E PUSH2 0x943 JUMP JUMPDEST PUSH1 0x40 MLOAD PUSH2 0x27B SWAP2 SWAP1 PUSH2 0x2972 JUMP JUMPDEST PUSH1 0x40 MLOAD DUP1 SWAP2 SUB SWAP1 RETURN JUMPDEST PUSH2 0x28C PUSH2 0x949 JUMP JUMPDEST PUSH1 0x40 MLOAD PUSH2 0x299 SWAP2 SWAP1 PUSH2 0x2972 JUMP JUMPDEST PUSH1 0x40 MLOAD DUP1 SWAP2 SUB SWAP1 RETURN JUMPDEST PUSH2 0x2BC PUSH1 0x4 DUP1 CALLDATASIZE SUB DUP2 ADD SWAP1 PUSH2 0x2B7 SWAP2 SWAP1 PUSH2 0x29B5 JUMP JUMPDEST PUSH2 0x94F JUMP JUMPDEST STOP JUMPDEST PUSH2 0x2D8 PUSH1 0x4 DUP1 CALLDATASIZE SUB DUP2 ADD SWAP1 PUSH2 0x2D3 SWAP2 SWAP1 PUSH2 0x2A13 JUMP JUMPDEST PUSH2 0xABC JUMP JUMPDEST PUSH1 0x40 MLOAD PUSH2 0x2E5 SWAP2 SWAP1 PUSH2 0x2A58 JUMP JUMPDEST PUSH1 0x40 MLOAD DUP1 SWAP2 SUB SWAP1 RETURN JUMPDEST PUSH2 0x2F6 PUSH2 0xAD9 JUMP JUMPDEST PUSH1 0x40 MLOAD PUSH2 0x303 SWAP2 SWAP1 PUSH2 0x2AEB JUMP JUMPDEST PUSH1 0x40 MLOAD DUP1 SWAP2 SUB SWAP1 RETURN JUMPDEST PUSH2 0x314 PUSH2 0xAFD JUMP JUMPDEST PUSH1 0x40 MLOAD PUSH2 0x323 SWAP4 SWAP3 SWAP2 SWAP1 PUSH2 0x2CD6 JUMP JUMPDEST PUSH1 0x40 MLOAD DUP1 SWAP2 SUB SWAP1 RETURN JUMPDEST PUSH2 0x334 PUSH2 0xCDA JUMP JUMPDEST PUSH1 0x40 MLOAD PUSH2 0x341 SWAP2 SWAP1 PUSH2 0x2D61 JUMP JUMPDEST PUSH1 0x40 MLOAD DUP1 SWAP2 SUB SWAP1 RETURN JUMPDEST PUSH2 0x364 PUSH1 0x4 DUP1 CALLDATASIZE SUB DUP2 ADD SWAP1 PUSH2 0x35F SWAP2 SWAP1 PUSH2 0x29B5 JUMP JUMPDEST PUSH2 0xD6A JUMP JUMPDEST PUSH1 0x40 MLOAD PUSH2 0x371 SWAP2 SWAP1 PUSH2 0x2972 JUMP JUMPDEST PUSH1 0x40 MLOAD DUP1 SWAP2 SUB SWAP1 RETURN JUMPDEST PUSH2 0x394 PUSH1 0x4 DUP1 CALLDATASIZE SUB DUP2 ADD SWAP1 PUSH2 0x38F SWAP2 SWAP1 PUSH2 0x29B5 JUMP JUMPDEST PUSH2 0xD7F JUMP JUMPDEST PUSH1 0x40 MLOAD PUSH2 0x3A4 SWAP5 SWAP4 SWAP3 SWAP2 SWAP1 PUSH2 0x2DA3 JUMP JUMPDEST PUSH1 0x40 MLOAD DUP1 SWAP2 SUB SWAP1 RETURN JUMPDEST PUSH2 0x3B5 PUSH2 0xE64 JUMP JUMPDEST PUSH1 0x40 MLOAD PUSH2 0x3C2 SWAP2 SWAP1 PUSH2 0x2972 JUMP JUMPDEST PUSH1 0x40 MLOAD DUP1 SWAP2 SUB SWAP1 RETURN JUMPDEST PUSH2 0x3D3 PUSH2 0xE88 JUMP JUMPDEST PUSH1 0x40 MLOAD PUSH2 0x3E0 SWAP2 SWAP1 PUSH2 0x2E0B JUMP JUMPDEST PUSH1 0x40 MLOAD DUP1 SWAP2 SUB SWAP1 RETURN JUMPDEST PUSH2 0x3F1 PUSH2 0xE9C JUMP JUMPDEST PUSH1 0x40 MLOAD PUSH2 0x3FE SWAP2 SWAP1 PUSH2 0x2972 JUMP JUMPDEST PUSH1 0x40 MLOAD DUP1 SWAP2 SUB SWAP1 RETURN JUMPDEST PUSH2 0x421 PUSH1 0x4 DUP1 CALLDATASIZE SUB DUP2 ADD SWAP1 PUSH2 0x41C SWAP2 SWAP1 PUSH2 0x2E24 JUMP JUMPDEST PUSH2 0xEA2 JUMP JUMPDEST PUSH1 0x40 MLOAD PUSH2 0x42E SWAP2 SWAP1 PUSH2 0x2E71 JUMP JUMPDEST PUSH1 0x40 MLOAD DUP1 SWAP2 SUB SWAP1 RETURN JUMPDEST PUSH2 0x451 PUSH1 0x4 DUP1 CALLDATASIZE SUB DUP2 ADD SWAP1 PUSH2 0x44C SWAP2 SWAP1 PUSH2 0x2EB4 JUMP JUMPDEST PUSH2 0x10F6 JUMP JUMPDEST STOP JUMPDEST PUSH2 0x46D PUSH1 0x4 DUP1 CALLDATASIZE SUB DUP2 ADD SWAP1 PUSH2 0x468 SWAP2 SWAP1 PUSH2 0x29B5 JUMP JUMPDEST PUSH2 0x13E9 JUMP JUMPDEST PUSH1 0x40 MLOAD PUSH2 0x47A SWAP2 SWAP1 PUSH2 0x2A58 JUMP JUMPDEST PUSH1 0x40 MLOAD DUP1 SWAP2 SUB SWAP1 RETURN JUMPDEST PUSH2 0x49D PUSH1 0x4 DUP1 CALLDATASIZE SUB DUP2 ADD SWAP1 PUSH2 0x498 SWAP2 SWAP1 PUSH2 0x2A13 JUMP JUMPDEST PUSH2 0x140F JUMP JUMPDEST PUSH1 0x40 MLOAD PUSH2 0x4AA SWAP2 SWAP1 PUSH2 0x2A58 JUMP JUMPDEST PUSH1 0x40 MLOAD DUP1 SWAP2 SUB SWAP1 RETURN JUMPDEST PUSH2 0x4CD PUSH1 0x4 DUP1 CALLDATASIZE SUB DUP2 ADD SWAP1 PUSH2 0x4C8 SWAP2 SWAP1 PUSH2 0x2A13 JUMP JUMPDEST PUSH2 0x14A2 JUMP JUMPDEST PUSH1 0x40 MLOAD PUSH2 0x4DA SWAP2 SWAP1 PUSH2 0x2A58 JUMP JUMPDEST PUSH1 0x40 MLOAD DUP1 SWAP2 SUB SWAP1 RETURN JUMPDEST PUSH2 0x4EB PUSH2 0x14BF JUMP JUMPDEST PUSH1 0x40 MLOAD PUSH2 0x4F8 SWAP2 SWAP1 PUSH2 0x2972 JUMP JUMPDEST PUSH1 0x40 MLOAD DUP1 SWAP2 SUB SWAP1 RETURN JUMPDEST PUSH2 0x509 PUSH2 0x14C5 JUMP JUMPDEST PUSH1 0x40 MLOAD PUSH2 0x516 SWAP2 SWAP1 PUSH2 0x2D61 JUMP JUMPDEST PUSH1 0x40 MLOAD DUP1 SWAP2 SUB SWAP1 RETURN JUMPDEST PUSH2 0x527 PUSH2 0x1551 JUMP JUMPDEST PUSH1 0x40 MLOAD PUSH2 0x534 SWAP2 SWAP1 PUSH2 0x2F2E JUMP JUMPDEST PUSH1 0x40 MLOAD DUP1 SWAP2 SUB SWAP1 RETURN JUMPDEST PUSH2 0x557 PUSH1 0x4 DUP1 CALLDATASIZE SUB DUP2 ADD SWAP1 PUSH2 0x552 SWAP2 SWAP1 PUSH2 0x2E24 JUMP JUMPDEST PUSH2 0x1579 JUMP JUMPDEST STOP JUMPDEST PUSH2 0x561 PUSH2 0x165C JUMP JUMPDEST PUSH1 0x40 MLOAD PUSH2 0x56E SWAP2 SWAP1 PUSH2 0x2F2E JUMP JUMPDEST PUSH1 0x40 MLOAD DUP1 SWAP2 SUB SWAP1 RETURN JUMPDEST PUSH2 0x57F PUSH2 0x1681 JUMP JUMPDEST PUSH1 0x40 MLOAD PUSH2 0x58C SWAP2 SWAP1 PUSH2 0x2E0B JUMP JUMPDEST PUSH1 0x40 MLOAD DUP1 SWAP2 SUB SWAP1 RETURN JUMPDEST PUSH2 0x5AF PUSH1 0x4 DUP1 CALLDATASIZE SUB DUP2 ADD SWAP1 PUSH2 0x5AA SWAP2 SWAP1 PUSH2 0x29B5 JUMP JUMPDEST PUSH2 0x1696 JUMP JUMPDEST PUSH1 0x40 MLOAD PUSH2 0x5BC SWAP2 SWAP1 PUSH2 0x2972 JUMP JUMPDEST PUSH1 0x40 MLOAD DUP1 SWAP2 SUB SWAP1 RETURN JUMPDEST PUSH2 0x5DF PUSH1 0x4 DUP1 CALLDATASIZE SUB DUP2 ADD SWAP1 PUSH2 0x5DA SWAP2 SWAP1 PUSH2 0x2E24 JUMP JUMPDEST PUSH2 0x16D0 JUMP JUMPDEST STOP JUMPDEST PUSH2 0x5E9 PUSH2 0x17B3 JUMP JUMPDEST PUSH1 0x40 MLOAD PUSH2 0x5F6 SWAP2 SWAP1 PUSH2 0x2972 JUMP JUMPDEST PUSH1 0x40 MLOAD DUP1 SWAP2 SUB SWAP1 RETURN JUMPDEST PUSH2 0x607 PUSH2 0x17B9 JUMP JUMPDEST PUSH1 0x40 MLOAD PUSH2 0x614 SWAP2 SWAP1 PUSH2 0x2FFE JUMP JUMPDEST PUSH1 0x40 MLOAD DUP1 SWAP2 SUB SWAP1 RETURN JUMPDEST PUSH2 0x625 PUSH2 0x1844 JUMP JUMPDEST PUSH1 0x40 MLOAD PUSH2 0x632 SWAP2 SWAP1 PUSH2 0x2E71 JUMP JUMPDEST PUSH1 0x40 MLOAD DUP1 SWAP2 SUB SWAP1 RETURN JUMPDEST PUSH2 0x655 PUSH1 0x4 DUP1 CALLDATASIZE SUB DUP2 ADD SWAP1 PUSH2 0x650 SWAP2 SWAP1 PUSH2 0x2E24 JUMP JUMPDEST PUSH2 0x1873 JUMP JUMPDEST STOP JUMPDEST PUSH2 0x671 PUSH1 0x4 DUP1 CALLDATASIZE SUB DUP2 ADD SWAP1 PUSH2 0x66C SWAP2 SWAP1 PUSH2 0x29B5 JUMP JUMPDEST PUSH2 0x1A2A JUMP JUMPDEST PUSH1 0x40 MLOAD PUSH2 0x67E SWAP2 SWAP1 PUSH2 0x2A58 JUMP JUMPDEST PUSH1 0x40 MLOAD DUP1 SWAP2 SUB SWAP1 RETURN JUMPDEST PUSH2 0x6A1 PUSH1 0x4 DUP1 CALLDATASIZE SUB DUP2 ADD SWAP1 PUSH2 0x69C SWAP2 SWAP1 PUSH2 0x29B5 JUMP JUMPDEST PUSH2 0x1A47 JUMP JUMPDEST PUSH1 0x40 MLOAD PUSH2 0x6AE SWAP2 SWAP1 PUSH2 0x2E71 JUMP JUMPDEST PUSH1 0x40 MLOAD DUP1 SWAP2 SUB SWAP1 RETURN JUMPDEST PUSH2 0x6BF PUSH2 0x1A5C JUMP JUMPDEST PUSH1 0x40 MLOAD PUSH2 0x6CC SWAP2 SWAP1 PUSH2 0x2E0B JUMP JUMPDEST PUSH1 0x40 MLOAD DUP1 SWAP2 SUB SWAP1 RETURN JUMPDEST PUSH2 0x6EF PUSH1 0x4 DUP1 CALLDATASIZE SUB DUP2 ADD SWAP1 PUSH2 0x6EA SWAP2 SWAP1 PUSH2 0x317E JUMP JUMPDEST PUSH2 0x1A61 JUMP JUMPDEST STOP JUMPDEST PUSH2 0x70B PUSH1 0x4 DUP1 CALLDATASIZE SUB DUP2 ADD SWAP1 PUSH2 0x706 SWAP2 SWAP1 PUSH2 0x29B5 JUMP JUMPDEST PUSH2 0x1BD0 JUMP JUMPDEST PUSH1 0x40 MLOAD PUSH2 0x718 SWAP2 SWAP1 PUSH2 0x2972 JUMP JUMPDEST PUSH1 0x40 MLOAD DUP1 SWAP2 SUB SWAP1 RETURN JUMPDEST PUSH2 0x73B PUSH1 0x4 DUP1 CALLDATASIZE SUB DUP2 ADD SWAP1 PUSH2 0x736 SWAP2 SWAP1 PUSH2 0x29B5 JUMP JUMPDEST PUSH2 0x1BF0 JUMP JUMPDEST PUSH1 0x40 MLOAD PUSH2 0x748 SWAP2 SWAP1 PUSH2 0x2E71 JUMP JUMPDEST PUSH1 0x40 MLOAD DUP1 SWAP2 SUB SWAP1 RETURN JUMPDEST PUSH2 0x759 PUSH2 0x226E JUMP JUMPDEST PUSH1 0x40 MLOAD PUSH2 0x766 SWAP2 SWAP1 PUSH2 0x2972 JUMP JUMPDEST PUSH1 0x40 MLOAD DUP1 SWAP2 SUB SWAP1 RETURN JUMPDEST PUSH2 0x777 PUSH2 0x2292 JUMP JUMPDEST PUSH1 0x40 MLOAD PUSH2 0x784 SWAP2 SWAP1 PUSH2 0x3229 JUMP JUMPDEST PUSH1 0x40 MLOAD DUP1 SWAP2 SUB SWAP1 RETURN JUMPDEST PUSH2 0x7A7 PUSH1 0x4 DUP1 CALLDATASIZE SUB DUP2 ADD SWAP1 PUSH2 0x7A2 SWAP2 SWAP1 PUSH2 0x29B5 JUMP JUMPDEST PUSH2 0x22B6 JUMP JUMPDEST PUSH1 0x40 MLOAD PUSH2 0x7B4 SWAP2 SWAP1 PUSH2 0x2E71 JUMP JUMPDEST PUSH1 0x40 MLOAD DUP1 SWAP2 SUB SWAP1 RETURN JUMPDEST PUSH2 0x7C5 PUSH2 0x22CB JUMP JUMPDEST PUSH1 0x40 MLOAD PUSH2 0x7D2 SWAP2 SWAP1 PUSH2 0x2E0B JUMP JUMPDEST PUSH1 0x40 MLOAD DUP1 SWAP2 SUB SWAP1 RETURN JUMPDEST PUSH1 0x6 PUSH0 SWAP1 SLOAD SWAP1 PUSH2 0x100 EXP SWAP1 DIV PUSH20 0xFFFFFFFFFFFFFFFFFFFFFFFFFFFFFFFFFFFFFFFF AND PUSH20 0xFFFFFFFFFFFFFFFFFFFFFFFFFFFFFFFFFFFFFFFF AND CALLER PUSH20 0xFFFFFFFFFFFFFFFFFFFFFFFFFFFFFFFFFFFFFFFF AND EQ PUSH2 0x86A JUMPI PUSH1 0x40 MLOAD PUSH32 0x8C379A000000000000000000000000000000000000000000000000000000000 DUP2 MSTORE PUSH1 0x4 ADD PUSH2 0x861 SWAP1 PUSH2 0x32B2 JUMP JUMPDEST PUSH1 0x40 MLOAD DUP1 SWAP2 SUB SWAP1 REVERT JUMPDEST PUSH0 PUSH1 0xA DUP1 SLOAD PUSH2 0x878 SWAP1 PUSH2 0x32FD JUMP JUMPDEST DUP1 PUSH1 0x1F ADD PUSH1 0x20 DUP1 SWAP2 DIV MUL PUSH1 0x20 ADD PUSH1 0x40 MLOAD SWAP1 DUP2 ADD PUSH1 0x40 MSTORE DUP1 SWAP3 SWAP2 SWAP1 DUP2 DUP2 MSTORE PUSH1 0x20 ADD DUP3 DUP1 SLOAD PUSH2 0x8A4 SWAP1 PUSH2 0x32FD JUMP JUMPDEST DUP1 ISZERO PUSH2 0x8EF JUMPI DUP1 PUSH1 0x1F LT PUSH2 0x8C6 JUMPI PUSH2 0x100 DUP1 DUP4 SLOAD DIV MUL DUP4 MSTORE SWAP2 PUSH1 0x20 ADD SWAP2 PUSH2 0x8EF JUMP JUMPDEST DUP3 ADD SWAP2 SWAP1 PUSH0 MSTORE PUSH1 0x20 PUSH0 KECCAK256 SWAP1 JUMPDEST DUP2 SLOAD DUP2 MSTORE SWAP1 PUSH1 0x1 ADD SWAP1 PUSH1 0x20 ADD DUP1 DUP4 GT PUSH2 0x8D2 JUMPI DUP3 SWAP1 SUB PUSH1 0x1F AND DUP3 ADD SWAP2 JUMPDEST POP POP POP POP POP SWAP1 POP DUP2 PUSH1 0xA SWAP1 DUP2 PUSH2 0x905 SWAP2 SWAP1 PUSH2 0x34C4 JUMP JUMPDEST POP PUSH32 0x3BAB3CC35B08707A0CF28B4A1391714E321BF15CEA4D23AF5438CA2EEA00B319 DUP2 DUP4 PUSH1 0x40 MLOAD PUSH2 0x937 SWAP3 SWAP2 SWAP1 PUSH2 0x3593 JUMP JUMPDEST PUSH1 0x40 MLOAD DUP1 SWAP2 SUB SWAP1 LOG1 POP POP JUMP JUMPDEST PUSH1 0xE SLOAD DUP2 JUMP JUMPDEST PUSH1 0xD SLOAD DUP2 JUMP JUMPDEST PUSH1 0x6 PUSH0 SWAP1 SLOAD SWAP1 PUSH2 0x100 EXP SWAP1 DIV PUSH20 0xFFFFFFFFFFFFFFFFFFFFFFFFFFFFFFFFFFFFFFFF AND PUSH20 0xFFFFFFFFFFFFFFFFFFFFFFFFFFFFFFFFFFFFFFFF AND CALLER PUSH20 0xFFFFFFFFFFFFFFFFFFFFFFFFFFFFFFFFFFFFFFFF AND EQ PUSH2 0x9DE JUMPI PUSH1 0x40 MLOAD PUSH32 0x8C379A000000000000000000000000000000000000000000000000000000000 DUP2 MSTORE PUSH1 0x4 ADD PUSH2 0x9D5 SWAP1 PUSH2 0x32B2 JUMP JUMPDEST PUSH1 0x40 MLOAD DUP1 SWAP2 SUB SWAP1 REVERT JUMPDEST PUSH1 0x9 SLOAD DUP2 LT PUSH2 0xA22 JUMPI PUSH1 0x40 MLOAD PUSH32 0x8C379A000000000000000000000000000000000000000000000000000000000 DUP2 MSTORE PUSH1 0x4 ADD PUSH2 0xA19 SWAP1 PUSH2 0x3612 JUMP JUMPDEST PUSH1 0x40 MLOAD DUP1 SWAP2 SUB SWAP1 REVERT JUMPDEST PUSH1 0xB PUSH0 DUP3 DUP2 MSTORE PUSH1 0x20 ADD SWAP1 DUP2 MSTORE PUSH1 0x20 ADD PUSH0 KECCAK256 PUSH0 PUSH0 DUP3 ADD PUSH0 PUSH2 0x100 EXP DUP2 SLOAD SWAP1 PUSH8 0xFFFFFFFFFFFFFFFF MUL NOT AND SWAP1 SSTORE PUSH1 0x1 DUP3 ADD PUSH0 PUSH2 0xA5C SWAP2 SWAP1 PUSH2 0x276E JUMP JUMPDEST PUSH1 0x2 DUP3 ADD PUSH0 PUSH2 0x100 EXP DUP2 SLOAD SWAP1 PUSH8 0xFFFFFFFFFFFFFFFF MUL NOT AND SWAP1 SSTORE PUSH1 0x2 DUP3 ADD PUSH1 0x8 PUSH2 0x100 EXP DUP2 SLOAD SWAP1 PUSH1 0xFF MUL NOT AND SWAP1 SSTORE POP POP DUP1 PUSH32 0x5768DF5843E58EC5B2FC92EB6EF81241E9EC50A0B93FD074DEC58B39EFC41720 PUSH1 0x40 MLOAD PUSH1 0x40 MLOAD DUP1 SWAP2 SUB SWAP1 LOG2 POP JUMP JUMPDEST PUSH1 0x4 PUSH1 0x20 MSTORE DUP1 PUSH0 MSTORE PUSH1 0x40 PUSH0 KECCAK256 PUSH0 SWAP2 POP SLOAD SWAP1 PUSH2 0x100 EXP SWAP1 DIV PUSH1 0xFF AND DUP2 JUMP JUMPDEST PUSH32 0x0 DUP2 JUMP JUMPDEST PUSH0 PUSH1 0x60 DUP1 PUSH0 PUSH1 0x9 SLOAD PUSH8 0xFFFFFFFFFFFFFFFF DUP2 GT ISZERO PUSH2 0xB1E JUMPI PUSH2 0xB1D PUSH2 0x27EF JUMP JUMPDEST JUMPDEST PUSH1 0x40 MLOAD SWAP1 DUP1 DUP3 MSTORE DUP1 PUSH1 0x20 MUL PUSH1 0x20 ADD DUP3 ADD PUSH1 0x40 MSTORE DUP1 ISZERO PUSH2 0xB4C JUMPI DUP2 PUSH1 0x20 ADD PUSH1 0x20 DUP3 MUL DUP1 CALLDATASIZE DUP4 CALLDATACOPY DUP1 DUP3 ADD SWAP2 POP POP SWAP1 POP JUMPDEST POP SWAP1 POP PUSH0 PUSH1 0x9 SLOAD PUSH8 0xFFFFFFFFFFFFFFFF DUP2 GT ISZERO PUSH2 0xB6C JUMPI PUSH2 0xB6B PUSH2 0x27EF JUMP JUMPDEST JUMPDEST PUSH1 0x40 MLOAD SWAP1 DUP1 DUP3 MSTORE DUP1 PUSH1 0x20 MUL PUSH1 0x20 ADD DUP3 ADD PUSH1 0x40 MSTORE DUP1 ISZERO PUSH2 0xB9F JUMPI DUP2 PUSH1 0x20 ADD JUMPDEST PUSH1 0x60 DUP2 MSTORE PUSH1 0x20 ADD SWAP1 PUSH1 0x1 SWAP1 SUB SWAP1 DUP2 PUSH2 0xB8A JUMPI SWAP1 POP JUMPDEST POP SWAP1 POP PUSH0 PUSH0 SWAP1 POP JUMPDEST PUSH1 0x9 SLOAD DUP2 LT ISZERO PUSH2 0xCC7 JUMPI PUSH1 0xB PUSH0 DUP3 DUP2 MSTORE PUSH1 0x20 ADD SWAP1 DUP2 MSTORE PUSH1 0x20 ADD PUSH0 KECCAK256 PUSH0 ADD PUSH0 SWAP1 SLOAD SWAP1 PUSH2 0x100 EXP SWAP1 DIV PUSH8 0xFFFFFFFFFFFFFFFF AND PUSH8 0xFFFFFFFFFFFFFFFF AND DUP4 DUP3 DUP2 MLOAD DUP2 LT PUSH2 0xBF5 JUMPI PUSH2 0xBF4 PUSH2 0x3630 JUMP JUMPDEST JUMPDEST PUSH1 0x20 MUL PUSH1 0x20 ADD ADD DUP2 DUP2 MSTORE POP POP PUSH1 0xB PUSH0 DUP3 DUP2 MSTORE PUSH1 0x20 ADD SWAP1 DUP2 MSTORE PUSH1 0x20 ADD PUSH0 KECCAK256 PUSH1 0x1 ADD DUP1 SLOAD PUSH2 0xC20 SWAP1 PUSH2 0x32FD JUMP JUMPDEST DUP1 PUSH1 0x1F ADD PUSH1 0x20 DUP1 SWAP2 DIV MUL PUSH1 0x20 ADD PUSH1 0x40 MLOAD SWAP1 DUP2 ADD PUSH1 0x40 MSTORE DUP1 SWAP3 SWAP2 SWAP1 DUP2 DUP2 MSTORE PUSH1 0x20 ADD DUP3 DUP1 SLOAD PUSH2 0xC4C SWAP1 PUSH2 0x32FD JUMP JUMPDEST DUP1 ISZERO PUSH2 0xC97 JUMPI DUP1 PUSH1 0x1F LT PUSH2 0xC6E JUMPI PUSH2 0x100 DUP1 DUP4 SLOAD DIV MUL DUP4 MSTORE SWAP2 PUSH1 0x20 ADD SWAP2 PUSH2 0xC97 JUMP JUMPDEST DUP3 ADD SWAP2 SWAP1 PUSH0 MSTORE PUSH1 0x20 PUSH0 KECCAK256 SWAP1 JUMPDEST DUP2 SLOAD DUP2 MSTORE SWAP1 PUSH1 0x1 ADD SWAP1 PUSH1 0x20 ADD DUP1 DUP4 GT PUSH2 0xC7A JUMPI DUP3 SWAP1 SUB PUSH1 0x1F AND DUP3 ADD SWAP2 JUMPDEST POP POP POP POP POP DUP3 DUP3 DUP2 MLOAD DUP2 LT PUSH2 0xCAF JUMPI PUSH2 0xCAE PUSH2 0x3630 JUMP JUMPDEST JUMPDEST PUSH1 0x20 MUL PUSH1 0x20 ADD ADD DUP2 SWAP1 MSTORE POP DUP1 DUP1 PUSH1 0x1 ADD SWAP2 POP POP PUSH2 0xBA7 JUMP JUMPDEST POP PUSH1 0x9 SLOAD DUP3 DUP3 SWAP5 POP SWAP5 POP SWAP5 POP POP POP SWAP1 SWAP2 SWAP3 JUMP JUMPDEST PUSH1 0x60 PUSH1 0xA DUP1 SLOAD PUSH2 0xCE9 SWAP1 PUSH2 0x32FD JUMP JUMPDEST DUP1 PUSH1 0x1F ADD PUSH1 0x20 DUP1 SWAP2 DIV MUL PUSH1 0x20 ADD PUSH1 0x40 MLOAD SWAP1 DUP2 ADD PUSH1 0x40 MSTORE DUP1 SWAP3 SWAP2 SWAP1 DUP2 DUP2 MSTORE PUSH1 0x20 ADD DUP3 DUP1 SLOAD PUSH2 0xD15 SWAP1 PUSH2 0x32FD JUMP JUMPDEST DUP1 ISZERO PUSH2 0xD60 JUMPI DUP1 PUSH1 0x1F LT PUSH2 0xD37 JUMPI PUSH2 0x100 DUP1 DUP4 SLOAD DIV MUL DUP4 MSTORE SWAP2 PUSH1 0x20 ADD SWAP2 PUSH2 0xD60 JUMP JUMPDEST DUP3 ADD SWAP2 SWAP1 PUSH0 MSTORE PUSH1 0x20 PUSH0 KECCAK256 SWAP1 JUMPDEST DUP2 SLOAD DUP2 MSTORE SWAP1 PUSH1 0x1 ADD SWAP1 PUSH1 0x20 ADD DUP1 DUP4 GT PUSH2 0xD43 JUMPI DUP3 SWAP1 SUB PUSH1 0x1F AND DUP3 ADD SWAP2 JUMPDEST POP POP POP POP POP SWAP1 POP SWAP1 JUMP JUMPDEST PUSH1 0x8 PUSH1 0x20 MSTORE DUP1 PUSH0 MSTORE PUSH1 0x40 PUSH0 KECCAK256 PUSH0 SWAP2 POP SWAP1 POP SLOAD DUP2 JUMP JUMPDEST PUSH1 0xB PUSH1 0x20 MSTORE DUP1 PUSH0 MSTORE PUSH1 0x40 PUSH0 KECCAK256 PUSH0 SWAP2 POP SWAP1 POP DUP1 PUSH0 ADD PUSH0 SWAP1 SLOAD SWAP1 PUSH2 0x100 EXP SWAP1 DIV PUSH8 0xFFFFFFFFFFFFFFFF AND SWAP1 DUP1 PUSH1 0x1 ADD DUP1 SLOAD PUSH2 0xDB7 SWAP1 PUSH2 0x32FD JUMP JUMPDEST DUP1 PUSH1 0x1F ADD PUSH1 0x20 DUP1 SWAP2 DIV MUL PUSH1 0x20 ADD PUSH1 0x40 MLOAD SWAP1 DUP2 ADD PUSH1 0x40 MSTORE DUP1 SWAP3 SWAP2 SWAP1 DUP2 DUP2 MSTORE PUSH1 0x20 ADD DUP3 DUP1 SLOAD PUSH2 0xDE3 SWAP1 PUSH2 0x32FD JUMP JUMPDEST DUP1 ISZERO PUSH2 0xE2E JUMPI DUP1 PUSH1 0x1F LT PUSH2 0xE05 JUMPI PUSH2 0x100 DUP1 DUP4 SLOAD DIV MUL DUP4 MSTORE SWAP2 PUSH1 0x20 ADD SWAP2 PUSH2 0xE2E JUMP JUMPDEST DUP3 ADD SWAP2 SWAP1 PUSH0 MSTORE PUSH1 0x20 PUSH0 KECCAK256 SWAP1 JUMPDEST DUP2 SLOAD DUP2 MSTORE SWAP1 PUSH1 0x1 ADD SWAP1 PUSH1 0x20 ADD DUP1 DUP4 GT PUSH2 0xE11 JUMPI DUP3 SWAP1 SUB PUSH1 0x1F AND DUP3 ADD SWAP2 JUMPDEST POP POP POP POP POP SWAP1 DUP1 PUSH1 0x2 ADD PUSH0 SWAP1 SLOAD SWAP1 PUSH2 0x100 EXP SWAP1 DIV PUSH8 0xFFFFFFFFFFFFFFFF AND SWAP1 DUP1 PUSH1 0x2 ADD PUSH1 0x8 SWAP1 SLOAD SWAP1 PUSH2 0x100 EXP SWAP1 DIV PUSH1 0xFF AND SWAP1 POP DUP5 JUMP JUMPDEST PUSH32 0x30644E72E131A029B85045B68181585D2833E84879B9709143E1F593F0000001 DUP2 JUMP JUMPDEST PUSH0 PUSH0 SWAP1 SLOAD SWAP1 PUSH2 0x100 EXP SWAP1 DIV PUSH4 0xFFFFFFFF AND DUP2 JUMP JUMPDEST PUSH1 0x9 SLOAD DUP2 JUMP JUMPDEST PUSH0 PUSH32 0x30644E72E131A029B85045B68181585D2833E84879B9709143E1F593F0000001 DUP4 LT PUSH2 0xF05 JUMPI PUSH1 0x40 MLOAD PUSH32 0x8C379A000000000000000000000000000000000000000000000000000000000 DUP2 MSTORE PUSH1 0x4 ADD PUSH2 0xEFC SWAP1 PUSH2 0x36A7 JUMP JUMPDEST PUSH1 0x40 MLOAD DUP1 SWAP2 SUB SWAP1 REVERT JUMPDEST PUSH32 0x30644E72E131A029B85045B68181585D2833E84879B9709143E1F593F0000001 DUP3 LT PUSH2 0xF67 JUMPI PUSH1 0x40 MLOAD PUSH32 0x8C379A000000000000000000000000000000000000000000000000000000000 DUP2 MSTORE PUSH1 0x4 ADD PUSH2 0xF5E SWAP1 PUSH2 0x3735 JUMP JUMPDEST PUSH1 0x40 MLOAD DUP1 SWAP2 SUB SWAP1 REVERT JUMPDEST PUSH0 DUP4 SWAP1 POP PUSH0 PUSH0 SWAP1 POP PUSH32 0x0 PUSH20 0xFFFFFFFFFFFFFFFFFFFFFFFFFFFFFFFFFFFFFFFF AND PUSH4 0x3F1A1187 DUP4 DUP4 PUSH0 PUSH1 0x40 MLOAD DUP5 PUSH4 0xFFFFFFFF AND PUSH1 0xE0 SHL DUP2 MSTORE PUSH1 0x4 ADD PUSH2 0xFCC SWAP4 SWAP3 SWAP2 SWAP1 PUSH2 0x378C JUMP JUMPDEST PUSH1 0x40 DUP1 MLOAD DUP1 DUP4 SUB DUP2 DUP7 GAS STATICCALL ISZERO DUP1 ISZERO PUSH2 0xFE6 JUMPI RETURNDATASIZE PUSH0 PUSH0 RETURNDATACOPY RETURNDATASIZE PUSH0 REVERT JUMPDEST POP POP POP POP PUSH1 0x40 MLOAD RETURNDATASIZE PUSH1 0x1F NOT PUSH1 0x1F DUP3 ADD AND DUP3 ADD DUP1 PUSH1 0x40 MSTORE POP DUP2 ADD SWAP1 PUSH2 0x100A SWAP2 SWAP1 PUSH2 0x37D5 JUMP JUMPDEST DUP1 SWAP3 POP DUP2 SWAP4 POP POP POP PUSH32 0x30644E72E131A029B85045B68181585D2833E84879B9709143E1F593F0000001 DUP1 PUSH2 0x1041 JUMPI PUSH2 0x1040 PUSH2 0x3813 JUMP JUMPDEST JUMPDEST DUP5 DUP4 ADDMOD SWAP2 POP PUSH32 0x0 PUSH20 0xFFFFFFFFFFFFFFFFFFFFFFFFFFFFFFFFFFFFFFFF AND PUSH4 0x3F1A1187 DUP4 DUP4 PUSH0 PUSH1 0x40 MLOAD DUP5 PUSH4 0xFFFFFFFF AND PUSH1 0xE0 SHL DUP2 MSTORE PUSH1 0x4 ADD PUSH2 0x10A3 SWAP4 SWAP3 SWAP2 SWAP1 PUSH2 0x378C JUMP JUMPDEST PUSH1 0x40 DUP1 MLOAD DUP1 DUP4 SUB DUP2 DUP7 GAS STATICCALL ISZERO DUP1 ISZERO PUSH2 0x10BD JUMPI RETURNDATASIZE PUSH0 PUSH0 RETURNDATACOPY RETURNDATASIZE PUSH0 REVERT JUMPDEST POP POP POP POP PUSH1 0x40 MLOAD RETURNDATASIZE PUSH1 0x1F NOT PUSH1 0x1F DUP3 ADD AND DUP3 ADD DUP1 PUSH1 0x40 MSTORE POP DUP2 ADD SWAP1 PUSH2 0x10E1 SWAP2 SWAP1 PUSH2 0x37D5 JUMP JUMPDEST DUP1 SWAP3 POP DUP2 SWAP4 POP POP POP DUP2 PUSH0 SHL SWAP3 POP POP POP SWAP3 SWAP2 POP POP JUMP JUMPDEST PUSH1 0x6 PUSH0 SWAP1 SLOAD SWAP1 PUSH2 0x100 EXP SWAP1 DIV PUSH20 0xFFFFFFFFFFFFFFFFFFFFFFFFFFFFFFFFFFFFFFFF AND PUSH20 0xFFFFFFFFFFFFFFFFFFFFFFFFFFFFFFFFFFFFFFFF AND CALLER PUSH20 0xFFFFFFFFFFFFFFFFFFFFFFFFFFFFFFFFFFFFFFFF AND EQ PUSH2 0x1185 JUMPI PUSH1 0x40 MLOAD PUSH32 0x8C379A000000000000000000000000000000000000000000000000000000000 DUP2 MSTORE PUSH1 0x4 ADD PUSH2 0x117C SWAP1 PUSH2 0x32B2 JUMP JUMPDEST PUSH1 0x40 MLOAD DUP1 SWAP2 SUB SWAP1 REVERT JUMPDEST PUSH1 0xC SLOAD TIMESTAMP LT ISZERO DUP1 ISZERO PUSH2 0x1199 JUMPI POP PUSH1 0xD SLOAD TIMESTAMP GT ISZERO JUMPDEST PUSH2 0x11D8 JUMPI PUSH1 0x40 MLOAD PUSH32 0x8C379A000000000000000000000000000000000000000000000000000000000 DUP2 MSTORE PUSH1 0x4 ADD PUSH2 0x11CF SWAP1 PUSH2 0x38B0 JUMP JUMPDEST PUSH1 0x40 MLOAD DUP1 SWAP2 SUB SWAP1 REVERT JUMPDEST PUSH1 0x14 DUP2 MLOAD GT ISZERO PUSH2 0x121D JUMPI PUSH1 0x40 MLOAD PUSH32 0x8C379A000000000000000000000000000000000000000000000000000000000 DUP2 MSTORE PUSH1 0x4 ADD PUSH2 0x1214 SWAP1 PUSH2 0x393E JUMP JUMPDEST PUSH1 0x40 MLOAD DUP1 SWAP2 SUB SWAP1 REVERT JUMPDEST PUSH0 PUSH0 SWAP1 POP JUMPDEST PUSH1 0x9 SLOAD DUP2 LT ISZERO PUSH2 0x12B5 JUMPI DUP3 PUSH8 0xFFFFFFFFFFFFFFFF AND PUSH1 0xB PUSH0 DUP4 DUP2 MSTORE PUSH1 0x20 ADD SWAP1 DUP2 MSTORE PUSH1 0x20 ADD PUSH0 KECCAK256 PUSH0 ADD PUSH0 SWAP1 SLOAD SWAP1 PUSH2 0x100 EXP SWAP1 DIV PUSH8 0xFFFFFFFFFFFFFFFF AND PUSH8 0xFFFFFFFFFFFFFFFF AND SUB PUSH2 0x12A8 JUMPI PUSH1 0x40 MLOAD PUSH32 0x8C379A000000000000000000000000000000000000000000000000000000000 DUP2 MSTORE PUSH1 0x4 ADD PUSH2 0x129F SWAP1 PUSH2 0x39CC JUMP JUMPDEST PUSH1 0x40 MLOAD DUP1 SWAP2 SUB SWAP1 REVERT JUMPDEST DUP1 DUP1 PUSH1 0x1 ADD SWAP2 POP POP PUSH2 0x1222 JUMP JUMPDEST POP PUSH1 0x40 MLOAD DUP1 PUSH1 0x80 ADD PUSH1 0x40 MSTORE DUP1 DUP4 PUSH8 0xFFFFFFFFFFFFFFFF AND DUP2 MSTORE PUSH1 0x20 ADD DUP3 DUP2 MSTORE PUSH1 0x20 ADD PUSH0 PUSH8 0xFFFFFFFFFFFFFFFF AND DUP2 MSTORE PUSH1 0x20 ADD PUSH1 0x1 ISZERO ISZERO DUP2 MSTORE POP PUSH1 0xB PUSH0 PUSH1 0x9 SLOAD DUP2 MSTORE PUSH1 0x20 ADD SWAP1 DUP2 MSTORE PUSH1 0x20 ADD PUSH0 KECCAK256 PUSH0 DUP3 ADD MLOAD DUP2 PUSH0 ADD PUSH0 PUSH2 0x100 EXP DUP2 SLOAD DUP2 PUSH8 0xFFFFFFFFFFFFFFFF MUL NOT AND SWAP1 DUP4 PUSH8 0xFFFFFFFFFFFFFFFF AND MUL OR SWAP1 SSTORE POP PUSH1 0x20 DUP3 ADD MLOAD DUP2 PUSH1 0x1 ADD SWAP1 DUP2 PUSH2 0x1342 SWAP2 SWAP1 PUSH2 0x34C4 JUMP JUMPDEST POP PUSH1 0x40 DUP3 ADD MLOAD DUP2 PUSH1 0x2 ADD PUSH0 PUSH2 0x100 EXP DUP2 SLOAD DUP2 PUSH8 0xFFFFFFFFFFFFFFFF MUL NOT AND SWAP1 DUP4 PUSH8 0xFFFFFFFFFFFFFFFF AND MUL OR SWAP1 SSTORE POP PUSH1 0x60 DUP3 ADD MLOAD DUP2 PUSH1 0x2 ADD PUSH1 0x8 PUSH2 0x100 EXP DUP2 SLOAD DUP2 PUSH1 0xFF MUL NOT AND SWAP1 DUP4 ISZERO ISZERO MUL OR SWAP1 SSTORE POP SWAP1 POP POP PUSH1 0x9 SLOAD PUSH32 0xE83B2A43E7E82D975C8A0A6D2F045153C869E111136A34D1889AB7B598E396A3 DUP3 PUSH1 0x40 MLOAD PUSH2 0x13C6 SWAP2 SWAP1 PUSH2 0x2D61 JUMP JUMPDEST PUSH1 0x40 MLOAD DUP1 SWAP2 SUB SWAP1 LOG2 PUSH1 0x9 PUSH0 DUP2 SLOAD DUP1 SWAP3 SWAP2 SWAP1 PUSH2 0x13E0 SWAP1 PUSH2 0x3A17 JUMP JUMPDEST SWAP2 SWAP1 POP SSTORE POP POP POP JUMP JUMPDEST PUSH0 PUSH1 0x7 PUSH0 DUP4 DUP2 MSTORE PUSH1 0x20 ADD SWAP1 DUP2 MSTORE PUSH1 0x20 ADD PUSH0 KECCAK256 PUSH0 SWAP1 SLOAD SWAP1 PUSH2 0x100 EXP SWAP1 DIV PUSH1 0xFF AND SWAP1 POP SWAP2 SWAP1 POP JUMP JUMPDEST PUSH0 PUSH0 PUSH0 SHL DUP3 SUB PUSH2 0x1421 JUMPI PUSH0 SWAP1 POP PUSH2 0x149D JUMP JUMPDEST PUSH0 PUSH1 0x3 PUSH0 SWAP1 SLOAD SWAP1 PUSH2 0x100 EXP SWAP1 DIV PUSH4 0xFFFFFFFF AND SWAP1 POP PUSH0 DUP2 SWAP1 POP JUMPDEST PUSH1 0x2 PUSH0 DUP3 PUSH4 0xFFFFFFFF AND DUP2 MSTORE PUSH1 0x20 ADD SWAP1 DUP2 MSTORE PUSH1 0x20 ADD PUSH0 KECCAK256 SLOAD DUP5 SUB PUSH2 0x1464 JUMPI PUSH1 0x1 SWAP3 POP POP POP PUSH2 0x149D JUMP JUMPDEST PUSH0 DUP2 PUSH4 0xFFFFFFFF AND SUB PUSH2 0x1476 JUMPI PUSH1 0x1E SWAP1 POP JUMPDEST DUP1 DUP1 PUSH2 0x1481 SWAP1 PUSH2 0x3A5E JUMP JUMPDEST SWAP2 POP POP DUP2 PUSH4 0xFFFFFFFF AND DUP2 PUSH4 0xFFFFFFFF AND SUB PUSH2 0x143B JUMPI PUSH0 SWAP3 POP POP POP JUMPDEST SWAP2 SWAP1 POP JUMP JUMPDEST PUSH1 0x5 PUSH1 0x20 MSTORE DUP1 PUSH0 MSTORE PUSH1 0x40 PUSH0 KECCAK256 PUSH0 SWAP2 POP SLOAD SWAP1 PUSH2 0x100 EXP SWAP1 DIV PUSH1 0xFF AND DUP2 JUMP JUMPDEST PUSH1 0xF SLOAD DUP2 JUMP JUMPDEST PUSH1 0xA DUP1 SLOAD PUSH2 0x14D2 SWAP1 PUSH2 0x32FD JUMP JUMPDEST DUP1 PUSH1 0x1F ADD PUSH1 0x20 DUP1 SWAP2 DIV MUL PUSH1 0x20 ADD PUSH1 0x40 MLOAD SWAP1 DUP2 ADD PUSH1 0x40 MSTORE DUP1 SWAP3 SWAP2 SWAP1 DUP2 DUP2 MSTORE PUSH1 0x20 ADD DUP3 DUP1 SLOAD PUSH2 0x14FE SWAP1 PUSH2 0x32FD JUMP JUMPDEST DUP1 ISZERO PUSH2 0x1549 JUMPI DUP1 PUSH1 0x1F LT PUSH2 0x1520 JUMPI PUSH2 0x100 DUP1 DUP4 SLOAD DIV MUL DUP4 MSTORE SWAP2 PUSH1 0x20 ADD SWAP2 PUSH2 0x1549 JUMP JUMPDEST DUP3 ADD SWAP2 SWAP1 PUSH0 MSTORE PUSH1 0x20 PUSH0 KECCAK256 SWAP1 JUMPDEST DUP2 SLOAD DUP2 MSTORE SWAP1 PUSH1 0x1 ADD SWAP1 PUSH1 0x20 ADD DUP1 DUP4 GT PUSH2 0x152C JUMPI DUP3 SWAP1 SUB PUSH1 0x1F AND DUP3 ADD SWAP2 JUMPDEST POP POP POP POP POP DUP2 JUMP JUMPDEST PUSH0 PUSH1 0x6 PUSH0 SWAP1 SLOAD SWAP1 PUSH2 0x100 EXP SWAP1 DIV PUSH20 0xFFFFFFFFFFFFFFFFFFFFFFFFFFFFFFFFFFFFFFFF AND SWAP1 POP SWAP1 JUMP JUMPDEST PUSH1 0x6 PUSH0 SWAP1 SLOAD SWAP1 PUSH2 0x100 EXP SWAP1 DIV PUSH20 0xFFFFFFFFFFFFFFFFFFFFFFFFFFFFFFFFFFFFFFFF AND PUSH20 0xFFFFFFFFFFFFFFFFFFFFFFFFFFFFFFFFFFFFFFFF AND CALLER PUSH20 0xFFFFFFFFFFFFFFFFFFFFFFFFFFFFFFFFFFFFFFFF AND EQ PUSH2 0x1608 JUMPI PUSH1 0x40 MLOAD PUSH32 0x8C379A000000000000000000000000000000000000000000000000000000000 DUP2 MSTORE PUSH1 0x4 ADD PUSH2 0x15FF SWAP1 PUSH2 0x32B2 JUMP JUMPDEST PUSH1 0x40 MLOAD DUP1 SWAP2 SUB SWAP1 REVERT JUMPDEST DUP1 DUP3 LT PUSH2 0x164A JUMPI PUSH1 0x40 MLOAD PUSH32 0x8C379A000000000000000000000000000000000000000000000000000000000 DUP2 MSTORE PUSH1 0x4 ADD PUSH2 0x1641 SWAP1 PUSH2 0x3AF5 JUMP JUMPDEST PUSH1 0x40 MLOAD DUP1 SWAP2 SUB SWAP1 REVERT JUMPDEST DUP2 PUSH1 0xC DUP2 SWAP1 SSTORE POP DUP1 PUSH1 0xD DUP2 SWAP1 SSTORE POP POP POP JUMP JUMPDEST PUSH1 0x6 PUSH0 SWAP1 SLOAD SWAP1 PUSH2 0x100 EXP SWAP1 DIV PUSH20 0xFFFFFFFFFFFFFFFFFFFFFFFFFFFFFFFFFFFFFFFF AND DUP2 JUMP JUMPDEST PUSH1 0x3 PUSH0 SWAP1 SLOAD SWAP1 PUSH2 0x100 EXP SWAP1 DIV PUSH4 0xFFFFFFFF AND DUP2 JUMP JUMPDEST PUSH0 PUSH1 0xB PUSH0 DUP4 DUP2 MSTORE PUSH1 0x20 ADD SWAP1 DUP2 MSTORE PUSH1 0x20 ADD PUSH0 KECCAK256 PUSH1 0x2 ADD PUSH0 SWAP1 SLOAD SWAP1 PUSH2 0x100 EXP SWAP1 DIV PUSH8 0xFFFFFFFFFFFFFFFF AND PUSH8 0xFFFFFFFFFFFFFFFF AND SWAP1 POP SWAP2 SWAP1 POP JUMP JUMPDEST PUSH1 0x6 PUSH0 SWAP1 SLOAD SWAP1 PUSH2 0x100 EXP SWAP1 DIV PUSH20 0xFFFFFFFFFFFFFFFFFFFFFFFFFFFFFFFFFFFFFFFF AND PUSH20 0xFFFFFFFFFFFFFFFFFFFFFFFFFFFFFFFFFFFFFFFF AND CALLER PUSH20 0xFFFFFFFFFFFFFFFFFFFFFFFFFFFFFFFFFFFFFFFF AND EQ PUSH2 0x175F JUMPI PUSH1 0x40 MLOAD PUSH32 0x8C379A000000000000000000000000000000000000000000000000000000000 DUP2 MSTORE PUSH1 0x4 ADD PUSH2 0x1756 SWAP1 PUSH2 0x32B2 JUMP JUMPDEST PUSH1 0x40 MLOAD DUP1 SWAP2 SUB SWAP1 REVERT JUMPDEST DUP1 DUP3 LT PUSH2 0x17A1 JUMPI PUSH1 0x40 MLOAD PUSH32 0x8C379A000000000000000000000000000000000000000000000000000000000 DUP2 MSTORE PUSH1 0x4 ADD PUSH2 0x1798 SWAP1 PUSH2 0x3AF5 JUMP JUMPDEST PUSH1 0x40 MLOAD DUP1 SWAP2 SUB SWAP1 REVERT JUMPDEST DUP2 PUSH1 0xE DUP2 SWAP1 SSTORE POP DUP1 PUSH1 0xF DUP2 SWAP1 SSTORE POP POP POP JUMP JUMPDEST PUSH1 0xC SLOAD DUP2 JUMP JUMPDEST PUSH1 0x60 PUSH1 0x11 DUP1 SLOAD DUP1 PUSH1 0x20 MUL PUSH1 0x20 ADD PUSH1 0x40 MLOAD SWAP1 DUP2 ADD PUSH1 0x40 MSTORE DUP1 SWAP3 SWAP2 SWAP1 DUP2 DUP2 MSTORE PUSH1 0x20 ADD DUP3 DUP1 SLOAD DUP1 ISZERO PUSH2 0x183A JUMPI PUSH1 0x20 MUL DUP3 ADD SWAP2 SWAP1 PUSH0 MSTORE PUSH1 0x20 PUSH0 KECCAK256 SWAP1 JUMPDEST DUP2 PUSH0 SWAP1 SLOAD SWAP1 PUSH2 0x100 EXP SWAP1 DIV PUSH20 0xFFFFFFFFFFFFFFFFFFFFFFFFFFFFFFFFFFFFFFFF AND PUSH20 0xFFFFFFFFFFFFFFFFFFFFFFFFFFFFFFFFFFFFFFFF AND DUP2 MSTORE PUSH1 0x20 ADD SWAP1 PUSH1 0x1 ADD SWAP1 DUP1 DUP4 GT PUSH2 0x17F1 JUMPI JUMPDEST POP POP POP POP POP SWAP1 POP SWAP1 JUMP JUMPDEST PUSH0 PUSH1 0x2 PUSH0 PUSH1 0x3 PUSH0 SWAP1 SLOAD SWAP1 PUSH2 0x100 EXP SWAP1 DIV PUSH4 0xFFFFFFFF AND PUSH4 0xFFFFFFFF AND DUP2 MSTORE PUSH1 0x20 ADD SWAP1 DUP2 MSTORE PUSH1 0x20 ADD PUSH0 KECCAK256 SLOAD SWAP1 POP SWAP1 JUMP JUMPDEST PUSH1 0x6 PUSH0 SWAP1 SLOAD SWAP1 PUSH2 0x100 EXP SWAP1 DIV PUSH20 0xFFFFFFFFFFFFFFFFFFFFFFFFFFFFFFFFFFFFFFFF AND PUSH20 0xFFFFFFFFFFFFFFFFFFFFFFFFFFFFFFFFFFFFFFFF AND CALLER PUSH20 0xFFFFFFFFFFFFFFFFFFFFFFFFFFFFFFFFFFFFFFFF AND EQ PUSH2 0x1902 JUMPI PUSH1 0x40 MLOAD PUSH32 0x8C379A000000000000000000000000000000000000000000000000000000000 DUP2 MSTORE PUSH1 0x4 ADD PUSH2 0x18F9 SWAP1 PUSH2 0x32B2 JUMP JUMPDEST PUSH1 0x40 MLOAD DUP1 SWAP2 SUB SWAP1 REVERT JUMPDEST PUSH1 0xC SLOAD TIMESTAMP LT ISZERO DUP1 ISZERO PUSH2 0x1916 JUMPI POP PUSH1 0xD SLOAD TIMESTAMP GT ISZERO JUMPDEST PUSH2 0x1955 JUMPI PUSH1 0x40 MLOAD PUSH32 0x8C379A000000000000000000000000000000000000000000000000000000000 DUP2 MSTORE PUSH1 0x4 ADD PUSH2 0x194C SWAP1 PUSH2 0x38B0 JUMP JUMPDEST PUSH1 0x40 MLOAD DUP1 SWAP2 SUB SWAP1 REVERT JUMPDEST PUSH1 0x7 PUSH0 DUP4 DUP2 MSTORE PUSH1 0x20 ADD SWAP1 DUP2 MSTORE PUSH1 0x20 ADD PUSH0 KECCAK256 PUSH0 SWAP1 SLOAD SWAP1 PUSH2 0x100 EXP SWAP1 DIV PUSH1 0xFF AND ISZERO PUSH2 0x19B3 JUMPI PUSH1 0x40 MLOAD PUSH32 0x8C379A000000000000000000000000000000000000000000000000000000000 DUP2 MSTORE PUSH1 0x4 ADD PUSH2 0x19AA SWAP1 PUSH2 0x3B83 JUMP JUMPDEST PUSH1 0x40 MLOAD DUP1 SWAP2 SUB SWAP1 REVERT JUMPDEST PUSH1 0x1 PUSH1 0x7 PUSH0 DUP5 DUP2 MSTORE PUSH1 0x20 ADD SWAP1 DUP2 MSTORE PUSH1 0x20 ADD PUSH0 KECCAK256 PUSH0 PUSH2 0x100 EXP DUP2 SLOAD DUP2 PUSH1 0xFF MUL NOT AND SWAP1 DUP4 ISZERO ISZERO MUL OR SWAP1 SSTORE POP DUP1 PUSH1 0x8 PUSH0 DUP5 DUP2 MSTORE PUSH1 0x20 ADD SWAP1 DUP2 MSTORE PUSH1 0x20 ADD PUSH0 KECCAK256 DUP2 SWAP1 SSTORE POP PUSH2 0x19FD DUP2 PUSH0 SHL PUSH2 0x22E1 JUMP JUMPDEST PUSH1 0x1 PUSH1 0x7 PUSH0 DUP5 DUP2 MSTORE PUSH1 0x20 ADD SWAP1 DUP2 MSTORE PUSH1 0x20 ADD PUSH0 KECCAK256 PUSH0 PUSH2 0x100 EXP DUP2 SLOAD DUP2 PUSH1 0xFF MUL NOT AND SWAP1 DUP4 ISZERO ISZERO MUL OR SWAP1 SSTORE POP POP POP JUMP JUMPDEST PUSH1 0x7 PUSH1 0x20 MSTORE DUP1 PUSH0 MSTORE PUSH1 0x40 PUSH0 KECCAK256 PUSH0 SWAP2 POP SLOAD SWAP1 PUSH2 0x100 EXP SWAP1 DIV PUSH1 0xFF AND DUP2 JUMP JUMPDEST PUSH1 0x2 PUSH1 0x20 MSTORE DUP1 PUSH0 MSTORE PUSH1 0x40 PUSH0 KECCAK256 PUSH0 SWAP2 POP SWAP1 POP SLOAD DUP2 JUMP JUMPDEST PUSH1 0x1E DUP2 JUMP JUMPDEST PUSH1 0xE SLOAD TIMESTAMP LT ISZERO DUP1 ISZERO PUSH2 0x1A75 JUMPI POP PUSH1 0xF SLOAD TIMESTAMP GT ISZERO JUMPDEST PUSH2 0x1AB4 JUMPI PUSH1 0x40 MLOAD PUSH32 0x8C379A000000000000000000000000000000000000000000000000000000000 DUP2 MSTORE PUSH1 0x4 ADD PUSH2 0x1AAB SWAP1 PUSH2 0x3BEB JUMP JUMPDEST PUSH1 0x40 MLOAD DUP1 SWAP2 SUB SWAP1 REVERT JUMPDEST PUSH1 0x9 SLOAD DUP7 LT PUSH2 0x1AF8 JUMPI PUSH1 0x40 MLOAD PUSH32 0x8C379A000000000000000000000000000000000000000000000000000000000 DUP2 MSTORE PUSH1 0x4 ADD PUSH2 0x1AEF SWAP1 PUSH2 0x3C53 JUMP JUMPDEST PUSH1 0x40 MLOAD DUP1 SWAP2 SUB SWAP1 REVERT JUMPDEST PUSH1 0xB PUSH0 DUP8 DUP2 MSTORE PUSH1 0x20 ADD SWAP1 DUP2 MSTORE PUSH1 0x20 ADD PUSH0 KECCAK256 PUSH1 0x2 ADD PUSH1 0x8 SWAP1 SLOAD SWAP1 PUSH2 0x100 EXP SWAP1 DIV PUSH1 0xFF AND PUSH2 0x1B59 JUMPI PUSH1 0x40 MLOAD PUSH32 0x8C379A000000000000000000000000000000000000000000000000000000000 DUP2 MSTORE PUSH1 0x4 ADD PUSH2 0x1B50 SWAP1 PUSH2 0x3CBB JUMP JUMPDEST PUSH1 0x40 MLOAD DUP1 SWAP2 SUB SWAP1 REVERT JUMPDEST PUSH2 0x1B6A DUP6 PUSH0 SHL DUP6 PUSH0 SHL DUP6 DUP6 DUP6 PUSH2 0x23B2 JUMP JUMPDEST PUSH1 0xB PUSH0 DUP8 DUP2 MSTORE PUSH1 0x20 ADD SWAP1 DUP2 MSTORE PUSH1 0x20 ADD PUSH0 KECCAK256 PUSH1 0x2 ADD PUSH0 DUP2 DUP2 SWAP1 SLOAD SWAP1 PUSH2 0x100 EXP SWAP1 DIV PUSH8 0xFFFFFFFFFFFFFFFF AND DUP1 SWAP3 SWAP2 SWAP1 PUSH2 0x1BA1 SWAP1 PUSH2 0x3CD9 JUMP JUMPDEST SWAP2 SWAP1 PUSH2 0x100 EXP DUP2 SLOAD DUP2 PUSH8 0xFFFFFFFFFFFFFFFF MUL NOT AND SWAP1 DUP4 PUSH8 0xFFFFFFFFFFFFFFFF AND MUL OR SWAP1 SSTORE POP POP POP POP POP POP POP POP JUMP JUMPDEST PUSH1 0x10 DUP2 DUP2 SLOAD DUP2 LT PUSH2 0x1BDF JUMPI PUSH0 DUP1 REVERT JUMPDEST SWAP1 PUSH0 MSTORE PUSH1 0x20 PUSH0 KECCAK256 ADD PUSH0 SWAP2 POP SWAP1 POP SLOAD DUP2 JUMP JUMPDEST PUSH0 PUSH0 DUP3 SUB PUSH2 0x1C22 JUMPI PUSH32 0x2FE54C60D3ACABF3343A35B6EBA15DB4821B340F76E741E2249685ED4899AF6C PUSH0 SHL SWAP1 POP PUSH2 0x2269 JUMP JUMPDEST PUSH1 0x1 DUP3 SUB PUSH2 0x1C54 JUMPI PUSH32 0x256A6135777EEE2FD26F54B8B7037A25439D5235CAEE224154186D2B8A52E31D PUSH0 SHL SWAP1 POP PUSH2 0x2269 JUMP JUMPDEST PUSH1 0x2 DUP3 SUB PUSH2 0x1C86 JUMPI PUSH32 0x1151949895E82AB19924DE92C40A3D6F7BCB60D92B00504B8199613683F0C200 PUSH0 SHL SWAP1 POP PUSH2 0x2269 JUMP JUMPDEST PUSH1 0x3 DUP3 SUB PUSH2 0x1CB8 JUMPI PUSH32 0x20121EE811489FF8D61F09FB89E313F14959A0F28BB428A20DBA6B0B068B3BDB PUSH0 SHL SWAP1 POP PUSH2 0x2269 JUMP JUMPDEST PUSH1 0x4 DUP3 SUB PUSH2 0x1CEA JUMPI PUSH32 0xA89CA6FFA14CC462CFEDB842C30ED221A50A3D6BF022A6A57DC82AB24C157C9 PUSH0 SHL SWAP1 POP PUSH2 0x2269 JUMP JUMPDEST PUSH1 0x5 DUP3 SUB PUSH2 0x1D1C JUMPI PUSH32 0x24CA05C2B5CD42E890D6BE94C68D0689F4F21C9CEC9C0F13FE41D566DFB54959 PUSH0 SHL SWAP1 POP PUSH2 0x2269 JUMP JUMPDEST PUSH1 0x6 DUP3 SUB PUSH2 0x1D4E JUMPI PUSH32 0x1CCB97C932565A92C60156BDBA2D08F3BF1377464E025CEE765679E604A7315C PUSH0 SHL SWAP1 POP PUSH2 0x2269 JUMP JUMPDEST PUSH1 0x7 DUP3 SUB PUSH2 0x1D80 JUMPI PUSH32 0x19156FBD7D1A8BF5CBA8909367DE1B624534EBAB4F0F79E003BCCDD1B182BDB4 PUSH0 SHL SWAP1 POP PUSH2 0x2269 JUMP JUMPDEST PUSH1 0x8 DUP3 SUB PUSH2 0x1DB2 JUMPI PUSH32 0x261AF8C1F0912E465744641409F622D466C3920AC6E5FF37E36604CB11DFFF80 PUSH0 SHL SWAP1 POP PUSH2 0x2269 JUMP JUMPDEST PUSH1 0x9 DUP3 SUB PUSH2 0x1DE3 JUMPI PUSH31 0x58459724FF6CA5A1652FCBC3E82B93895CF08E975B19BEAB3F54C217D1C007 PUSH0 SHL SWAP1 POP PUSH2 0x2269 JUMP JUMPDEST PUSH1 0xA DUP3 SUB PUSH2 0x1E15 JUMPI PUSH32 0x1F04EF20DEE48D39984D8EABE768A70EAFA6310AD20849D4573C3C40C2AD1E30 PUSH0 SHL SWAP1 POP PUSH2 0x2269 JUMP JUMPDEST PUSH1 0xB DUP3 SUB PUSH2 0x1E47 JUMPI PUSH32 0x1BEA3DEC5DAB51567CE7E200A30F7BA6D4276AEAA53E2686F962A46C66D511E5 PUSH0 SHL SWAP1 POP PUSH2 0x2269 JUMP JUMPDEST PUSH1 0xC DUP3 SUB PUSH2 0x1E79 JUMPI PUSH32 0xEE0F941E2DA4B9E31C3CA97A40D8FA9CE68D97C084177071B3CB46CD3372F0F PUSH0 SHL SWAP1 POP PUSH2 0x2269 JUMP JUMPDEST PUSH1 0xD DUP3 SUB PUSH2 0x1EAB JUMPI PUSH32 0x1CA9503E8935884501BBAF20BE14EB4C46B89772C97B96E3B2EBF3A36A948BBD PUSH0 SHL SWAP1 POP PUSH2 0x2269 JUMP JUMPDEST PUSH1 0xE DUP3 SUB PUSH2 0x1EDD JUMPI PUSH32 0x133A80E30697CD55D8F7D4B0965B7BE24057BA5DC3DA898EE2187232446CB108 PUSH0 SHL SWAP1 POP PUSH2 0x2269 JUMP JUMPDEST PUSH1 0xF DUP3 SUB PUSH2 0x1F0F JUMPI PUSH32 0x13E6D8FC88839ED76E182C2A779AF5B2C0DA9DD18C90427A644F7E148A6253B6 PUSH0 SHL SWAP1 POP PUSH2 0x2269 JUMP JUMPDEST PUSH1 0x10 DUP3 SUB PUSH2 0x1F41 JUMPI PUSH32 0x1EB16B057A477F4BC8F572EA6BEE39561098F78F15BFB3699DCBB7BD8DB61854 PUSH0 SHL SWAP1 POP PUSH2 0x2269 JUMP JUMPDEST PUSH1 0x11 DUP3 SUB PUSH2 0x1F73 JUMPI PUSH32 0xDA2CB16A1CEAABF1C16B838F7A9E3F2A3A3088D9E0A6DEBAA748114620696EA PUSH0 SHL SWAP1 POP PUSH2 0x2269 JUMP JUMPDEST PUSH1 0x12 DUP3 SUB PUSH2 0x1FA5 JUMPI PUSH32 0x24A3B3D822420B14B5D8CB6C28A574F01E98EA9E940551D2EBD75CEE12649F9D PUSH0 SHL SWAP1 POP PUSH2 0x2269 JUMP JUMPDEST PUSH1 0x13 DUP3 SUB PUSH2 0x1FD7 JUMPI PUSH32 0x198622ACBD783D1B0D9064105B1FC8E4D8889DE95C4C519B3F635809FE6AFC05 PUSH0 SHL SWAP1 POP PUSH2 0x2269 JUMP JUMPDEST PUSH1 0x14 DUP3 SUB PUSH2 0x2009 JUMPI PUSH32 0x29D7ED391256CCC3EA596C86E933B89FF339D25EA8DDCED975AE2FE30B5296D4 PUSH0 SHL SWAP1 POP PUSH2 0x2269 JUMP JUMPDEST PUSH1 0x15 DUP3 SUB PUSH2 0x203B JUMPI PUSH32 0x19BE59F2F0413CE78C0C3703A3A5451B1D7F39629FA33ABD11548A76065B2967 PUSH0 SHL SWAP1 POP PUSH2 0x2269 JUMP JUMPDEST PUSH1 0x16 DUP3 SUB PUSH2 0x206D JUMPI PUSH32 0x1FF3F61797E538B70E619310D33F2A063E7EB59104E112E95738DA1254DC3453 PUSH0 SHL SWAP1 POP PUSH2 0x2269 JUMP JUMPDEST PUSH1 0x17 DUP3 SUB PUSH2 0x209F JUMPI PUSH32 0x10C16AE9959CF8358980D9DD9616E48228737310A10E2B6B731C1A548F036C48 PUSH0 SHL SWAP1 POP PUSH2 0x2269 JUMP JUMPDEST PUSH1 0x18 DUP3 SUB PUSH2 0x20D1 JUMPI PUSH32 0xBA433A63174A90AC20992E75E3095496812B652685B5E1A2EAE0B1BF4E8FCD1 PUSH0 SHL SWAP1 POP PUSH2 0x2269 JUMP JUMPDEST PUSH1 0x19 DUP3 SUB PUSH2 0x2103 JUMPI PUSH32 0x19DDB9DF2BC98D987D0DFECA9D2B643DEAFAB8F7036562E627C3667266A044C PUSH0 SHL SWAP1 POP PUSH2 0x2269 JUMP JUMPDEST PUSH1 0x1A DUP3 SUB PUSH2 0x2135 JUMPI PUSH32 0x2D3C88B23175C5A5565DB928414C66D1912B11ACF974B2E644CAAAC04739CE99 PUSH0 SHL SWAP1 POP PUSH2 0x2269 JUMP JUMPDEST PUSH1 0x1B DUP3 SUB PUSH2 0x2167 JUMPI PUSH32 0x2EAB55F6AE4E66E32C5189EED5C470840863445760F5ED7E7B69B2A62600F354 PUSH0 SHL SWAP1 POP PUSH2 0x2269 JUMP JUMPDEST PUSH1 0x1C DUP3 SUB PUSH2 0x2198 JUMPI PUSH31 0x2DF37A2642621802383CF952BF4DD1F32E05433BEEB1FD41031FB7EACE979D PUSH0 SHL SWAP1 POP PUSH2 0x2269 JUMP JUMPDEST PUSH1 0x1D DUP3 SUB PUSH2 0x21CA JUMPI PUSH32 0x104AEB41435DB66C3E62FECCC1D6F5D98D0A0ED75D1374DB457CF462E3A1F427 PUSH0 SHL SWAP1 POP PUSH2 0x2269 JUMP JUMPDEST PUSH1 0x1E DUP3 SUB PUSH2 0x21FC JUMPI PUSH32 0x1F3C6FD858E9A7D4B0D1F38E256A09D81D5A5E3C963987E2D4B814CFAB7C6EBB PUSH0 SHL SWAP1 POP PUSH2 0x2269 JUMP JUMPDEST PUSH1 0x1F DUP3 SUB PUSH2 0x222E JUMPI PUSH32 0x2C7A07D20DFF79D01FECEDC1134284A8D08436606C93693B67E333F671BF69CC PUSH0 SHL SWAP1 POP PUSH2 0x2269 JUMP JUMPDEST PUSH1 0x40 MLOAD PUSH32 0x8C379A000000000000000000000000000000000000000000000000000000000 DUP2 MSTORE PUSH1 0x4 ADD PUSH2 0x2260 SWAP1 PUSH2 0x3D52 JUMP JUMPDEST PUSH1 0x40 MLOAD DUP1 SWAP2 SUB SWAP1 REVERT JUMPDEST SWAP2 SWAP1 POP JUMP JUMPDEST PUSH32 0x2FE54C60D3ACABF3343A35B6EBA15DB4821B340F76E741E2249685ED4899AF6C DUP2 JUMP JUMPDEST PUSH32 0x0 DUP2 JUMP JUMPDEST PUSH1 0x1 PUSH1 0x20 MSTORE DUP1 PUSH0 MSTORE PUSH1 0x40 PUSH0 KECCAK256 PUSH0 SWAP2 POP SWAP1 POP SLOAD DUP2 JUMP JUMPDEST PUSH1 0x3 PUSH1 0x4 SWAP1 SLOAD SWAP1 PUSH2 0x100 EXP SWAP1 DIV PUSH4 0xFFFFFFFF AND DUP2 JUMP JUMPDEST PUSH1 0x5 PUSH0 DUP3 DUP2 MSTORE PUSH1 0x20 ADD SWAP1 DUP2 MSTORE PUSH1 0x20 ADD PUSH0 KECCAK256 PUSH0 SWAP1 SLOAD SWAP1 PUSH2 0x100 EXP SWAP1 DIV PUSH1 0xFF AND ISZERO PUSH2 0x233F JUMPI PUSH1 0x40 MLOAD PUSH32 0x8C379A000000000000000000000000000000000000000000000000000000000 DUP2 MSTORE PUSH1 0x4 ADD PUSH2 0x2336 SWAP1 PUSH2 0x3DE0 JUMP JUMPDEST PUSH1 0x40 MLOAD DUP1 SWAP2 SUB SWAP1 REVERT JUMPDEST PUSH1 0x1 PUSH1 0x5 PUSH0 DUP4 DUP2 MSTORE PUSH1 0x20 ADD SWAP1 DUP2 MSTORE PUSH1 0x20 ADD PUSH0 KECCAK256 PUSH0 PUSH2 0x100 EXP DUP2 SLOAD DUP2 PUSH1 0xFF MUL NOT AND SWAP1 DUP4 ISZERO ISZERO MUL OR SWAP1 SSTORE POP PUSH0 PUSH2 0x2372 DUP3 PUSH2 0x257D JUMP JUMPDEST SWAP1 POP DUP2 PUSH32 0x401999886E5F90A91B92A0BFB7E2D48F714651A4D1C929BB3A753525BA066B91 DUP3 TIMESTAMP PUSH1 0x40 MLOAD PUSH2 0x23A6 SWAP3 SWAP2 SWAP1 PUSH2 0x3DFE JUMP JUMPDEST PUSH1 0x40 MLOAD DUP1 SWAP2 SUB SWAP1 LOG2 POP POP JUMP JUMPDEST PUSH1 0x4 PUSH0 DUP7 DUP2 MSTORE PUSH1 0x20 ADD SWAP1 DUP2 MSTORE PUSH1 0x20 ADD PUSH0 KECCAK256 PUSH0 SWAP1 SLOAD SWAP1 PUSH2 0x100 EXP SWAP1 DIV PUSH1 0xFF AND ISZERO PUSH2 0x2410 JUMPI PUSH1 0x40 MLOAD PUSH32 0x8C379A000000000000000000000000000000000000000000000000000000000 DUP2 MSTORE PUSH1 0x4 ADD PUSH2 0x2407 SWAP1 PUSH2 0x3E6F JUMP JUMPDEST PUSH1 0x40 MLOAD DUP1 SWAP2 SUB SWAP1 REVERT JUMPDEST PUSH2 0x2419 DUP5 PUSH2 0x140F JUMP JUMPDEST PUSH2 0x2458 JUMPI PUSH1 0x40 MLOAD PUSH32 0x8C379A000000000000000000000000000000000000000000000000000000000 DUP2 MSTORE PUSH1 0x4 ADD PUSH2 0x244F SWAP1 PUSH2 0x3ED7 JUMP JUMPDEST PUSH1 0x40 MLOAD DUP1 SWAP2 SUB SWAP1 REVERT JUMPDEST PUSH32 0x0 PUSH20 0xFFFFFFFFFFFFFFFFFFFFFFFFFFFFFFFFFFFFFFFF AND PUSH4 0xF5C9D69E DUP5 DUP5 DUP5 PUSH1 0x40 MLOAD DUP1 PUSH1 0x40 ADD PUSH1 0x40 MSTORE DUP1 DUP12 PUSH0 SHR DUP2 MSTORE PUSH1 0x20 ADD DUP11 PUSH0 SHR DUP2 MSTORE POP PUSH1 0x40 MLOAD DUP6 PUSH4 0xFFFFFFFF AND PUSH1 0xE0 SHL DUP2 MSTORE PUSH1 0x4 ADD PUSH2 0x24CF SWAP5 SWAP4 SWAP3 SWAP2 SWAP1 PUSH2 0x406A JUMP JUMPDEST PUSH1 0x20 PUSH1 0x40 MLOAD DUP1 DUP4 SUB DUP2 DUP7 GAS STATICCALL ISZERO DUP1 ISZERO PUSH2 0x24EA JUMPI RETURNDATASIZE PUSH0 PUSH0 RETURNDATACOPY RETURNDATASIZE PUSH0 REVERT JUMPDEST POP POP POP POP PUSH1 0x40 MLOAD RETURNDATASIZE PUSH1 0x1F NOT PUSH1 0x1F DUP3 ADD AND DUP3 ADD DUP1 PUSH1 0x40 MSTORE POP DUP2 ADD SWAP1 PUSH2 0x250E SWAP2 SWAP1 PUSH2 0x40D9 JUMP JUMPDEST PUSH2 0x254D JUMPI PUSH1 0x40 MLOAD PUSH32 0x8C379A000000000000000000000000000000000000000000000000000000000 DUP2 MSTORE PUSH1 0x4 ADD PUSH2 0x2544 SWAP1 PUSH2 0x414E JUMP JUMPDEST PUSH1 0x40 MLOAD DUP1 SWAP2 SUB SWAP1 REVERT JUMPDEST PUSH1 0x1 PUSH1 0x4 PUSH0 DUP8 DUP2 MSTORE PUSH1 0x20 ADD SWAP1 DUP2 MSTORE PUSH1 0x20 ADD PUSH0 KECCAK256 PUSH0 PUSH2 0x100 EXP DUP2 SLOAD DUP2 PUSH1 0xFF MUL NOT AND SWAP1 DUP4 ISZERO ISZERO MUL OR SWAP1 SSTORE POP POP POP POP POP POP JUMP JUMPDEST PUSH0 PUSH0 PUSH1 0x3 PUSH1 0x4 SWAP1 SLOAD SWAP1 PUSH2 0x100 EXP SWAP1 DIV PUSH4 0xFFFFFFFF AND SWAP1 POP PUSH0 PUSH0 SWAP1 SLOAD SWAP1 PUSH2 0x100 EXP SWAP1 DIV PUSH4 0xFFFFFFFF AND PUSH1 0x2 PUSH2 0x25B1 SWAP2 SWAP1 PUSH2 0x429B JUMP JUMPDEST PUSH4 0xFFFFFFFF AND DUP2 PUSH4 0xFFFFFFFF AND SUB PUSH2 0x25FE JUMPI PUSH1 0x40 MLOAD PUSH32 0x8C379A000000000000000000000000000000000000000000000000000000000 DUP2 MSTORE PUSH1 0x4 ADD PUSH2 0x25F5 SWAP1 PUSH2 0x4339 JUMP JUMPDEST PUSH1 0x40 MLOAD DUP1 SWAP2 SUB SWAP1 REVERT JUMPDEST PUSH0 DUP2 SWAP1 POP PUSH0 DUP5 SWAP1 POP PUSH0 PUSH0 PUSH0 PUSH0 SWAP1 POP JUMPDEST PUSH0 PUSH0 SWAP1 SLOAD SWAP1 PUSH2 0x100 EXP SWAP1 DIV PUSH4 0xFFFFFFFF AND PUSH4 0xFFFFFFFF AND DUP2 PUSH4 0xFFFFFFFF AND LT ISZERO PUSH2 0x26C9 JUMPI PUSH0 PUSH1 0x2 DUP7 PUSH2 0x263F SWAP2 SWAP1 PUSH2 0x4357 JUMP JUMPDEST PUSH4 0xFFFFFFFF AND SUB PUSH2 0x267F JUMPI DUP4 SWAP3 POP PUSH2 0x265C DUP2 PUSH4 0xFFFFFFFF AND PUSH2 0x1BF0 JUMP JUMPDEST SWAP2 POP DUP4 PUSH1 0x1 PUSH0 DUP4 PUSH4 0xFFFFFFFF AND DUP2 MSTORE PUSH1 0x20 ADD SWAP1 DUP2 MSTORE PUSH1 0x20 ADD PUSH0 KECCAK256 DUP2 SWAP1 SSTORE POP PUSH2 0x269D JUMP JUMPDEST PUSH1 0x1 PUSH0 DUP3 PUSH4 0xFFFFFFFF AND DUP2 MSTORE PUSH1 0x20 ADD SWAP1 DUP2 MSTORE PUSH1 0x20 ADD PUSH0 KECCAK256 SLOAD SWAP3 POP DUP4 SWAP2 POP JUMPDEST PUSH2 0x26AB DUP4 PUSH0 SHR DUP4 PUSH0 SHR PUSH2 0xEA2 JUMP JUMPDEST SWAP4 POP PUSH1 0x2 DUP6 PUSH2 0x26BA SWAP2 SWAP1 PUSH2 0x4387 JUMP JUMPDEST SWAP5 POP DUP1 DUP1 PUSH1 0x1 ADD SWAP2 POP POP PUSH2 0x260D JUMP JUMPDEST POP PUSH0 PUSH1 0x1E PUSH1 0x1 PUSH1 0x3 PUSH0 SWAP1 SLOAD SWAP1 PUSH2 0x100 EXP SWAP1 DIV PUSH4 0xFFFFFFFF AND PUSH2 0x26EB SWAP2 SWAP1 PUSH2 0x43B7 JUMP JUMPDEST PUSH2 0x26F5 SWAP2 SWAP1 PUSH2 0x4357 JUMP JUMPDEST SWAP1 POP DUP1 PUSH1 0x3 PUSH0 PUSH2 0x100 EXP DUP2 SLOAD DUP2 PUSH4 0xFFFFFFFF MUL NOT AND SWAP1 DUP4 PUSH4 0xFFFFFFFF AND MUL OR SWAP1 SSTORE POP DUP4 PUSH1 0x2 PUSH0 DUP4 PUSH4 0xFFFFFFFF AND DUP2 MSTORE PUSH1 0x20 ADD SWAP1 DUP2 MSTORE PUSH1 0x20 ADD PUSH0 KECCAK256 DUP2 SWAP1 SSTORE POP PUSH1 0x1 DUP7 PUSH2 0x2740 SWAP2 SWAP1 PUSH2 0x43B7 JUMP JUMPDEST PUSH1 0x3 PUSH1 0x4 PUSH2 0x100 EXP DUP2 SLOAD DUP2 PUSH4 0xFFFFFFFF MUL NOT AND SWAP1 DUP4 PUSH4 0xFFFFFFFF AND MUL OR SWAP1 SSTORE POP DUP6 SWAP7 POP POP POP POP POP POP POP SWAP2 SWAP1 POP JUMP JUMPDEST POP DUP1 SLOAD PUSH2 0x277A SWAP1 PUSH2 0x32FD JUMP JUMPDEST PUSH0 DUP3 SSTORE DUP1 PUSH1 0x1F LT PUSH2 0x278B JUMPI POP PUSH2 0x27A8 JUMP JUMPDEST PUSH1 0x1F ADD PUSH1 0x20 SWAP1 DIV SWAP1 PUSH0 MSTORE PUSH1 0x20 PUSH0 KECCAK256 SWAP1 DUP2 ADD SWAP1 PUSH2 0x27A7 SWAP2 SWAP1 PUSH2 0x27AB JUMP JUMPDEST JUMPDEST POP JUMP JUMPDEST JUMPDEST DUP1 DUP3 GT ISZERO PUSH2 0x27C2 JUMPI PUSH0 DUP2 PUSH0 SWAP1 SSTORE POP PUSH1 0x1 ADD PUSH2 0x27AC JUMP JUMPDEST POP SWAP1 JUMP JUMPDEST PUSH0 PUSH1 0x40 MLOAD SWAP1 POP SWAP1 JUMP JUMPDEST PUSH0 PUSH0 REVERT JUMPDEST PUSH0 PUSH0 REVERT JUMPDEST PUSH0 PUSH0 REVERT JUMPDEST PUSH0 PUSH0 REVERT JUMPDEST PUSH0 PUSH1 0x1F NOT PUSH1 0x1F DUP4 ADD AND SWAP1 POP SWAP2 SWAP1 POP JUMP JUMPDEST PUSH32 0x4E487B7100000000000000000000000000000000000000000000000000000000 PUSH0 MSTORE PUSH1 0x41 PUSH1 0x4 MSTORE PUSH1 0x24 PUSH0 REVERT JUMPDEST PUSH2 0x2825 DUP3 PUSH2 0x27DF JUMP JUMPDEST DUP2 ADD DUP2 DUP2 LT PUSH8 0xFFFFFFFFFFFFFFFF DUP3 GT OR ISZERO PUSH2 0x2844 JUMPI PUSH2 0x2843 PUSH2 0x27EF JUMP JUMPDEST JUMPDEST DUP1 PUSH1 0x40 MSTORE POP POP POP JUMP JUMPDEST PUSH0 PUSH2 0x2856 PUSH2 0x27C6 JUMP JUMPDEST SWAP1 POP PUSH2 0x2862 DUP3 DUP3 PUSH2 0x281C JUMP JUMPDEST SWAP2 SWAP1 POP JUMP JUMPDEST PUSH0 PUSH8 0xFFFFFFFFFFFFFFFF DUP3 GT ISZERO PUSH2 0x2881 JUMPI PUSH2 0x2880 PUSH2 0x27EF JUMP JUMPDEST JUMPDEST PUSH2 0x288A DUP3 PUSH2 0x27DF JUMP JUMPDEST SWAP1 POP PUSH1 0x20 DUP2 ADD SWAP1 POP SWAP2 SWAP1 POP JUMP JUMPDEST DUP3 DUP2 DUP4 CALLDATACOPY PUSH0 DUP4 DUP4 ADD MSTORE POP POP POP JUMP JUMPDEST PUSH0 PUSH2 0x28B7 PUSH2 0x28B2 DUP5 PUSH2 0x2867 JUMP JUMPDEST PUSH2 0x284D JUMP JUMPDEST SWAP1 POP DUP3 DUP2 MSTORE PUSH1 0x20 DUP2 ADD DUP5 DUP5 DUP5 ADD GT ISZERO PUSH2 0x28D3 JUMPI PUSH2 0x28D2 PUSH2 0x27DB JUMP JUMPDEST JUMPDEST PUSH2 0x28DE DUP5 DUP3 DUP6 PUSH2 0x2897 JUMP JUMPDEST POP SWAP4 SWAP3 POP POP POP JUMP JUMPDEST PUSH0 DUP3 PUSH1 0x1F DUP4 ADD SLT PUSH2 0x28FA JUMPI PUSH2 0x28F9 PUSH2 0x27D7 JUMP JUMPDEST JUMPDEST DUP2 CALLDATALOAD PUSH2 0x290A DUP5 DUP3 PUSH1 0x20 DUP7 ADD PUSH2 0x28A5 JUMP JUMPDEST SWAP2 POP POP SWAP3 SWAP2 POP POP JUMP JUMPDEST PUSH0 PUSH1 0x20 DUP3 DUP5 SUB SLT ISZERO PUSH2 0x2928 JUMPI PUSH2 0x2927 PUSH2 0x27CF JUMP JUMPDEST JUMPDEST PUSH0 DUP3 ADD CALLDATALOAD PUSH8 0xFFFFFFFFFFFFFFFF DUP2 GT ISZERO PUSH2 0x2945 JUMPI PUSH2 0x2944 PUSH2 0x27D3 JUMP JUMPDEST JUMPDEST PUSH2 0x2951 DUP5 DUP3 DUP6 ADD PUSH2 0x28E6 JUMP JUMPDEST SWAP2 POP POP SWAP3 SWAP2 POP POP JUMP JUMPDEST PUSH0 DUP2 SWAP1 POP SWAP2 SWAP1 POP JUMP JUMPDEST PUSH2 0x296C DUP2 PUSH2 0x295A JUMP JUMPDEST DUP3 MSTORE POP POP JUMP JUMPDEST PUSH0 PUSH1 0x20 DUP3 ADD SWAP1 POP PUSH2 0x2985 PUSH0 DUP4 ADD DUP5 PUSH2 0x2963 JUMP JUMPDEST SWAP3 SWAP2 POP POP JUMP JUMPDEST PUSH2 0x2994 DUP2 PUSH2 0x295A JUMP JUMPDEST DUP2 EQ PUSH2 0x299E JUMPI PUSH0 PUSH0 REVERT JUMPDEST POP JUMP JUMPDEST PUSH0 DUP2 CALLDATALOAD SWAP1 POP PUSH2 0x29AF DUP2 PUSH2 0x298B JUMP JUMPDEST SWAP3 SWAP2 POP POP JUMP JUMPDEST PUSH0 PUSH1 0x20 DUP3 DUP5 SUB SLT ISZERO PUSH2 0x29CA JUMPI PUSH2 0x29C9 PUSH2 0x27CF JUMP JUMPDEST JUMPDEST PUSH0 PUSH2 0x29D7 DUP5 DUP3 DUP6 ADD PUSH2 0x29A1 JUMP JUMPDEST SWAP2 POP POP SWAP3 SWAP2 POP POP JUMP JUMPDEST PUSH0 DUP2 SWAP1 POP SWAP2 SWAP1 POP JUMP JUMPDEST PUSH2 0x29F2 DUP2 PUSH2 0x29E0 JUMP JUMPDEST DUP2 EQ PUSH2 0x29FC JUMPI PUSH0 PUSH0 REVERT JUMPDEST POP JUMP JUMPDEST PUSH0 DUP2 CALLDATALOAD SWAP1 POP PUSH2 0x2A0D DUP2 PUSH2 0x29E9 JUMP JUMPDEST SWAP3 SWAP2 POP POP JUMP JUMPDEST PUSH0 PUSH1 0x20 DUP3 DUP5 SUB SLT ISZERO PUSH2 0x2A28 JUMPI PUSH2 0x2A27 PUSH2 0x27CF JUMP JUMPDEST JUMPDEST PUSH0 PUSH2 0x2A35 DUP5 DUP3 DUP6 ADD PUSH2 0x29FF JUMP JUMPDEST SWAP2 POP POP SWAP3 SWAP2 POP POP JUMP JUMPDEST PUSH0 DUP2 ISZERO ISZERO SWAP1 POP SWAP2 SWAP1 POP JUMP JUMPDEST PUSH2 0x2A52 DUP2 PUSH2 0x2A3E JUMP JUMPDEST DUP3 MSTORE POP POP JUMP JUMPDEST PUSH0 PUSH1 0x20 DUP3 ADD SWAP1 POP PUSH2 0x2A6B PUSH0 DUP4 ADD DUP5 PUSH2 0x2A49 JUMP JUMPDEST SWAP3 SWAP2 POP POP JUMP JUMPDEST PUSH0 PUSH20 0xFFFFFFFFFFFFFFFFFFFFFFFFFFFFFFFFFFFFFFFF DUP3 AND SWAP1 POP SWAP2 SWAP1 POP JUMP JUMPDEST PUSH0 DUP2 SWAP1 POP SWAP2 SWAP1 POP JUMP JUMPDEST PUSH0 PUSH2 0x2AB3 PUSH2 0x2AAE PUSH2 0x2AA9 DUP5 PUSH2 0x2A71 JUMP JUMPDEST PUSH2 0x2A90 JUMP JUMPDEST PUSH2 0x2A71 JUMP JUMPDEST SWAP1 POP SWAP2 SWAP1 POP JUMP JUMPDEST PUSH0 PUSH2 0x2AC4 DUP3 PUSH2 0x2A99 JUMP JUMPDEST SWAP1 POP SWAP2 SWAP1 POP JUMP JUMPDEST PUSH0 PUSH2 0x2AD5 DUP3 PUSH2 0x2ABA JUMP JUMPDEST SWAP1 POP SWAP2 SWAP1 POP JUMP JUMPDEST PUSH2 0x2AE5 DUP2 PUSH2 0x2ACB JUMP JUMPDEST DUP3 MSTORE POP POP JUMP JUMPDEST PUSH0 PUSH1 0x20 DUP3 ADD SWAP1 POP PUSH2 0x2AFE PUSH0 DUP4 ADD DUP5 PUSH2 0x2ADC JUMP JUMPDEST SWAP3 SWAP2 POP POP JUMP JUMPDEST PUSH0 DUP2 MLOAD SWAP1 POP SWAP2 SWAP1 POP JUMP JUMPDEST PUSH0 DUP3 DUP3 MSTORE PUSH1 0x20 DUP3 ADD SWAP1 POP SWAP3 SWAP2 POP POP JUMP JUMPDEST PUSH0 DUP2 SWAP1 POP PUSH1 0x20 DUP3 ADD SWAP1 POP SWAP2 SWAP1 POP JUMP JUMPDEST PUSH2 0x2B36 DUP2 PUSH2 0x295A JUMP JUMPDEST DUP3 MSTORE POP POP JUMP JUMPDEST PUSH0 PUSH2 0x2B47 DUP4 DUP4 PUSH2 0x2B2D JUMP JUMPDEST PUSH1 0x20 DUP4 ADD SWAP1 POP SWAP3 SWAP2 POP POP JUMP JUMPDEST PUSH0 PUSH1 0x20 DUP3 ADD SWAP1 POP SWAP2 SWAP1 POP JUMP JUMPDEST PUSH0 PUSH2 0x2B69 DUP3 PUSH2 0x2B04 JUMP JUMPDEST PUSH2 0x2B73 DUP2 DUP6 PUSH2 0x2B0E JUMP JUMPDEST SWAP4 POP PUSH2 0x2B7E DUP4 PUSH2 0x2B1E JUMP JUMPDEST DUP1 PUSH0 JUMPDEST DUP4 DUP2 LT ISZERO PUSH2 0x2BAE JUMPI DUP2 MLOAD PUSH2 0x2B95 DUP9 DUP3 PUSH2 0x2B3C JUMP JUMPDEST SWAP8 POP PUSH2 0x2BA0 DUP4 PUSH2 0x2B53 JUMP JUMPDEST SWAP3 POP POP PUSH1 0x1 DUP2 ADD SWAP1 POP PUSH2 0x2B81 JUMP JUMPDEST POP DUP6 SWAP4 POP POP POP POP SWAP3 SWAP2 POP POP JUMP JUMPDEST PUSH0 DUP2 MLOAD SWAP1 POP SWAP2 SWAP1 POP JUMP JUMPDEST PUSH0 DUP3 DUP3 MSTORE PUSH1 0x20 DUP3 ADD SWAP1 POP SWAP3 SWAP2 POP POP JUMP JUMPDEST PUSH0 DUP2 SWAP1 POP PUSH1 0x20 DUP3 ADD SWAP1 POP SWAP2 SWAP1 POP JUMP JUMPDEST PUSH0 DUP2 MLOAD SWAP1 POP SWAP2 SWAP1 POP JUMP JUMPDEST PUSH0 DUP3 DUP3 MSTORE PUSH1 0x20 DUP3 ADD SWAP1 POP SWAP3 SWAP2 POP POP JUMP JUMPDEST DUP3 DUP2 DUP4 MCOPY PUSH0 DUP4 DUP4 ADD MSTORE POP POP POP JUMP JUMPDEST PUSH0 PUSH2 0x2C16 DUP3 PUSH2 0x2BE4 JUMP JUMPDEST PUSH2 0x2C20 DUP2 DUP6 PUSH2 0x2BEE JUMP JUMPDEST SWAP4 POP PUSH2 0x2C30 DUP2 DUP6 PUSH1 0x20 DUP7 ADD PUSH2 0x2BFE JUMP JUMPDEST PUSH2 0x2C39 DUP2 PUSH2 0x27DF JUMP JUMPDEST DUP5 ADD SWAP2 POP POP SWAP3 SWAP2 POP POP JUMP JUMPDEST PUSH0 PUSH2 0x2C4F DUP4 DUP4 PUSH2 0x2C0C JUMP JUMPDEST SWAP1 POP SWAP3 SWAP2 POP POP JUMP JUMPDEST PUSH0 PUSH1 0x20 DUP3 ADD SWAP1 POP SWAP2 SWAP1 POP JUMP JUMPDEST PUSH0 PUSH2 0x2C6D DUP3 PUSH2 0x2BBB JUMP JUMPDEST PUSH2 0x2C77 DUP2 DUP6 PUSH2 0x2BC5 JUMP JUMPDEST SWAP4 POP DUP4 PUSH1 0x20 DUP3 MUL DUP6 ADD PUSH2 0x2C89 DUP6 PUSH2 0x2BD5 JUMP JUMPDEST DUP1 PUSH0 JUMPDEST DUP6 DUP2 LT ISZERO PUSH2 0x2CC4 JUMPI DUP5 DUP5 SUB DUP10 MSTORE DUP2 MLOAD PUSH2 0x2CA5 DUP6 DUP3 PUSH2 0x2C44 JUMP JUMPDEST SWAP5 POP PUSH2 0x2CB0 DUP4 PUSH2 0x2C57 JUMP JUMPDEST SWAP3 POP PUSH1 0x20 DUP11 ADD SWAP10 POP POP PUSH1 0x1 DUP2 ADD SWAP1 POP PUSH2 0x2C8C JUMP JUMPDEST POP DUP3 SWAP8 POP DUP8 SWAP6 POP POP POP POP POP POP SWAP3 SWAP2 POP POP JUMP JUMPDEST PUSH0 PUSH1 0x60 DUP3 ADD SWAP1 POP PUSH2 0x2CE9 PUSH0 DUP4 ADD DUP7 PUSH2 0x2963 JUMP JUMPDEST DUP2 DUP2 SUB PUSH1 0x20 DUP4 ADD MSTORE PUSH2 0x2CFB DUP2 DUP6 PUSH2 0x2B5F JUMP JUMPDEST SWAP1 POP DUP2 DUP2 SUB PUSH1 0x40 DUP4 ADD MSTORE PUSH2 0x2D0F DUP2 DUP5 PUSH2 0x2C63 JUMP JUMPDEST SWAP1 POP SWAP5 SWAP4 POP POP POP POP JUMP JUMPDEST PUSH0 DUP3 DUP3 MSTORE PUSH1 0x20 DUP3 ADD SWAP1 POP SWAP3 SWAP2 POP POP JUMP JUMPDEST PUSH0 PUSH2 0x2D33 DUP3 PUSH2 0x2BE4 JUMP JUMPDEST PUSH2 0x2D3D DUP2 DUP6 PUSH2 0x2D19 JUMP JUMPDEST SWAP4 POP PUSH2 0x2D4D DUP2 DUP6 PUSH1 0x20 DUP7 ADD PUSH2 0x2BFE JUMP JUMPDEST PUSH2 0x2D56 DUP2 PUSH2 0x27DF JUMP JUMPDEST DUP5 ADD SWAP2 POP POP SWAP3 SWAP2 POP POP JUMP JUMPDEST PUSH0 PUSH1 0x20 DUP3 ADD SWAP1 POP DUP2 DUP2 SUB PUSH0 DUP4 ADD MSTORE PUSH2 0x2D79 DUP2 DUP5 PUSH2 0x2D29 JUMP JUMPDEST SWAP1 POP SWAP3 SWAP2 POP POP JUMP JUMPDEST PUSH0 PUSH8 0xFFFFFFFFFFFFFFFF DUP3 AND SWAP1 POP SWAP2 SWAP1 POP JUMP JUMPDEST PUSH2 0x2D9D DUP2 PUSH2 0x2D81 JUMP JUMPDEST DUP3 MSTORE POP POP JUMP JUMPDEST PUSH0 PUSH1 0x80 DUP3 ADD SWAP1 POP PUSH2 0x2DB6 PUSH0 DUP4 ADD DUP8 PUSH2 0x2D94 JUMP JUMPDEST DUP2 DUP2 SUB PUSH1 0x20 DUP4 ADD MSTORE PUSH2 0x2DC8 DUP2 DUP7 PUSH2 0x2D29 JUMP JUMPDEST SWAP1 POP PUSH2 0x2DD7 PUSH1 0x40 DUP4 ADD DUP6 PUSH2 0x2D94 JUMP JUMPDEST PUSH2 0x2DE4 PUSH1 0x60 DUP4 ADD DUP5 PUSH2 0x2A49 JUMP JUMPDEST SWAP6 SWAP5 POP POP POP POP POP JUMP JUMPDEST PUSH0 PUSH4 0xFFFFFFFF DUP3 AND SWAP1 POP SWAP2 SWAP1 POP JUMP JUMPDEST PUSH2 0x2E05 DUP2 PUSH2 0x2DED JUMP JUMPDEST DUP3 MSTORE POP POP JUMP JUMPDEST PUSH0 PUSH1 0x20 DUP3 ADD SWAP1 POP PUSH2 0x2E1E PUSH0 DUP4 ADD DUP5 PUSH2 0x2DFC JUMP JUMPDEST SWAP3 SWAP2 POP POP JUMP JUMPDEST PUSH0 PUSH0 PUSH1 0x40 DUP4 DUP6 SUB SLT ISZERO PUSH2 0x2E3A JUMPI PUSH2 0x2E39 PUSH2 0x27CF JUMP JUMPDEST JUMPDEST PUSH0 PUSH2 0x2E47 DUP6 DUP3 DUP7 ADD PUSH2 0x29A1 JUMP JUMPDEST SWAP3 POP POP PUSH1 0x20 PUSH2 0x2E58 DUP6 DUP3 DUP7 ADD PUSH2 0x29A1 JUMP JUMPDEST SWAP2 POP POP SWAP3 POP SWAP3 SWAP1 POP JUMP JUMPDEST PUSH2 0x2E6B DUP2 PUSH2 0x29E0 JUMP JUMPDEST DUP3 MSTORE POP POP JUMP JUMPDEST PUSH0 PUSH1 0x20 DUP3 ADD SWAP1 POP PUSH2 0x2E84 PUSH0 DUP4 ADD DUP5 PUSH2 0x2E62 JUMP JUMPDEST SWAP3 SWAP2 POP POP JUMP JUMPDEST PUSH2 0x2E93 DUP2 PUSH2 0x2D81 JUMP JUMPDEST DUP2 EQ PUSH2 0x2E9D JUMPI PUSH0 PUSH0 REVERT JUMPDEST POP JUMP JUMPDEST PUSH0 DUP2 CALLDATALOAD SWAP1 POP PUSH2 0x2EAE DUP2 PUSH2 0x2E8A JUMP JUMPDEST SWAP3 SWAP2 POP POP JUMP JUMPDEST PUSH0 PUSH0 PUSH1 0x40 DUP4 DUP6 SUB SLT ISZERO PUSH2 0x2ECA JUMPI PUSH2 0x2EC9 PUSH2 0x27CF JUMP JUMPDEST JUMPDEST PUSH0 PUSH2 0x2ED7 DUP6 DUP3 DUP7 ADD PUSH2 0x2EA0 JUMP JUMPDEST SWAP3 POP POP PUSH1 0x20 DUP4 ADD CALLDATALOAD PUSH8 0xFFFFFFFFFFFFFFFF DUP2 GT ISZERO PUSH2 0x2EF8 JUMPI PUSH2 0x2EF7 PUSH2 0x27D3 JUMP JUMPDEST JUMPDEST PUSH2 0x2F04 DUP6 DUP3 DUP7 ADD PUSH2 0x28E6 JUMP JUMPDEST SWAP2 POP POP SWAP3 POP SWAP3 SWAP1 POP JUMP JUMPDEST PUSH0 PUSH2 0x2F18 DUP3 PUSH2 0x2A71 JUMP JUMPDEST SWAP1 POP SWAP2 SWAP1 POP JUMP JUMPDEST PUSH2 0x2F28 DUP2 PUSH2 0x2F0E JUMP JUMPDEST DUP3 MSTORE POP POP JUMP JUMPDEST PUSH0 PUSH1 0x20 DUP3 ADD SWAP1 POP PUSH2 0x2F41 PUSH0 DUP4 ADD DUP5 PUSH2 0x2F1F JUMP JUMPDEST SWAP3 SWAP2 POP POP JUMP JUMPDEST PUSH0 DUP2 MLOAD SWAP1 POP SWAP2 SWAP1 POP JUMP JUMPDEST PUSH0 DUP3 DUP3 MSTORE PUSH1 0x20 DUP3 ADD SWAP1 POP SWAP3 SWAP2 POP POP JUMP JUMPDEST PUSH0 DUP2 SWAP1 POP PUSH1 0x20 DUP3 ADD SWAP1 POP SWAP2 SWAP1 POP JUMP JUMPDEST PUSH2 0x2F79 DUP2 PUSH2 0x2F0E JUMP JUMPDEST DUP3 MSTORE POP POP JUMP JUMPDEST PUSH0 PUSH2 0x2F8A DUP4 DUP4 PUSH2 0x2F70 JUMP JUMPDEST PUSH1 0x20 DUP4 ADD SWAP1 POP SWAP3 SWAP2 POP POP JUMP JUMPDEST PUSH0 PUSH1 0x20 DUP3 ADD SWAP1 POP SWAP2 SWAP1 POP JUMP JUMPDEST PUSH0 PUSH2 0x2FAC DUP3 PUSH2 0x2F47 JUMP JUMPDEST PUSH2 0x2FB6 DUP2 DUP6 PUSH2 0x2F51 JUMP JUMPDEST SWAP4 POP PUSH2 0x2FC1 DUP4 PUSH2 0x2F61 JUMP JUMPDEST DUP1 PUSH0 JUMPDEST DUP4 DUP2 LT ISZERO PUSH2 0x2FF1 JUMPI DUP2 MLOAD PUSH2 0x2FD8 DUP9 DUP3 PUSH2 0x2F7F JUMP JUMPDEST SWAP8 POP PUSH2 0x2FE3 DUP4 PUSH2 0x2F96 JUMP JUMPDEST SWAP3 POP POP PUSH1 0x1 DUP2 ADD SWAP1 POP PUSH2 0x2FC4 JUMP JUMPDEST POP DUP6 SWAP4 POP POP POP POP SWAP3 SWAP2 POP POP JUMP JUMPDEST PUSH0 PUSH1 0x20 DUP3 ADD SWAP1 POP DUP2 DUP2 SUB PUSH0 DUP4 ADD MSTORE PUSH2 0x3016 DUP2 DUP5 PUSH2 0x2FA2 JUMP JUMPDEST SWAP1 POP SWAP3 SWAP2 POP POP JUMP JUMPDEST PUSH0 PUSH8 0xFFFFFFFFFFFFFFFF DUP3 GT ISZERO PUSH2 0x3038 JUMPI PUSH2 0x3037 PUSH2 0x27EF JUMP JUMPDEST JUMPDEST PUSH1 0x20 DUP3 MUL SWAP1 POP SWAP2 SWAP1 POP JUMP JUMPDEST PUSH0 PUSH0 REVERT JUMPDEST PUSH0 PUSH2 0x3059 PUSH2 0x3054 DUP5 PUSH2 0x301E JUMP JUMPDEST PUSH2 0x284D JUMP JUMPDEST SWAP1 POP DUP1 PUSH1 0x20 DUP5 MUL DUP4 ADD DUP6 DUP2 GT ISZERO PUSH2 0x3073 JUMPI PUSH2 0x3072 PUSH2 0x3043 JUMP JUMPDEST JUMPDEST DUP4 JUMPDEST DUP2 DUP2 LT ISZERO PUSH2 0x309C JUMPI DUP1 PUSH2 0x3088 DUP9 DUP3 PUSH2 0x29A1 JUMP JUMPDEST DUP5 MSTORE PUSH1 0x20 DUP5 ADD SWAP4 POP POP PUSH1 0x20 DUP2 ADD SWAP1 POP PUSH2 0x3075 JUMP JUMPDEST POP POP POP SWAP4 SWAP3 POP POP POP JUMP JUMPDEST PUSH0 DUP3 PUSH1 0x1F DUP4 ADD SLT PUSH2 0x30BA JUMPI PUSH2 0x30B9 PUSH2 0x27D7 JUMP JUMPDEST JUMPDEST PUSH1 0x2 PUSH2 0x30C7 DUP5 DUP3 DUP6 PUSH2 0x3047 JUMP JUMPDEST SWAP2 POP POP SWAP3 SWAP2 POP POP JUMP JUMPDEST PUSH0 PUSH8 0xFFFFFFFFFFFFFFFF DUP3 GT ISZERO PUSH2 0x30EA JUMPI PUSH2 0x30E9 PUSH2 0x27EF JUMP JUMPDEST JUMPDEST PUSH1 0x20 DUP3 MUL SWAP1 POP SWAP2 SWAP1 POP JUMP JUMPDEST PUSH0 PUSH2 0x3107 PUSH2 0x3102 DUP5 PUSH2 0x30D0 JUMP JUMPDEST PUSH2 0x284D JUMP JUMPDEST SWAP1 POP DUP1 PUSH1 0x40 DUP5 MUL DUP4 ADD DUP6 DUP2 GT ISZERO PUSH2 0x3121 JUMPI PUSH2 0x3120 PUSH2 0x3043 JUMP JUMPDEST JUMPDEST DUP4 JUMPDEST DUP2 DUP2 LT ISZERO PUSH2 0x314A JUMPI DUP1 PUSH2 0x3136 DUP9 DUP3 PUSH2 0x30A6 JUMP JUMPDEST DUP5 MSTORE PUSH1 0x20 DUP5 ADD SWAP4 POP POP PUSH1 0x40 DUP2 ADD SWAP1 POP PUSH2 0x3123 JUMP JUMPDEST POP POP POP SWAP4 SWAP3 POP POP POP JUMP JUMPDEST PUSH0 DUP3 PUSH1 0x1F DUP4 ADD SLT PUSH2 0x3168 JUMPI PUSH2 0x3167 PUSH2 0x27D7 JUMP JUMPDEST JUMPDEST PUSH1 0x2 PUSH2 0x3175 DUP5 DUP3 DUP6 PUSH2 0x30F5 JUMP JUMPDEST SWAP2 POP POP SWAP3 SWAP2 POP POP JUMP JUMPDEST PUSH0 PUSH0 PUSH0 PUSH0 PUSH0 PUSH0 PUSH2 0x160 DUP8 DUP10 SUB SLT ISZERO PUSH2 0x3199 JUMPI PUSH2 0x3198 PUSH2 0x27CF JUMP JUMPDEST JUMPDEST PUSH0 PUSH2 0x31A6 DUP10 DUP3 DUP11 ADD PUSH2 0x29A1 JUMP JUMPDEST SWAP7 POP POP PUSH1 0x20 PUSH2 0x31B7 DUP10 DUP3 DUP11 ADD PUSH2 0x29A1 JUMP JUMPDEST SWAP6 POP POP PUSH1 0x40 PUSH2 0x31C8 DUP10 DUP3 DUP11 ADD PUSH2 0x29A1 JUMP JUMPDEST SWAP5 POP POP PUSH1 0x60 PUSH2 0x31D9 DUP10 DUP3 DUP11 ADD PUSH2 0x30A6 JUMP JUMPDEST SWAP4 POP POP PUSH1 0xA0 PUSH2 0x31EA DUP10 DUP3 DUP11 ADD PUSH2 0x3154 JUMP JUMPDEST SWAP3 POP POP PUSH2 0x120 PUSH2 0x31FC DUP10 DUP3 DUP11 ADD PUSH2 0x30A6 JUMP JUMPDEST SWAP2 POP POP SWAP3 SWAP6 POP SWAP3 SWAP6 POP SWAP3 SWAP6 JUMP JUMPDEST PUSH0 PUSH2 0x3213 DUP3 PUSH2 0x2ABA JUMP JUMPDEST SWAP1 POP SWAP2 SWAP1 POP JUMP JUMPDEST PUSH2 0x3223 DUP2 PUSH2 0x3209 JUMP JUMPDEST DUP3 MSTORE POP POP JUMP JUMPDEST PUSH0 PUSH1 0x20 DUP3 ADD SWAP1 POP PUSH2 0x323C PUSH0 DUP4 ADD DUP5 PUSH2 0x321A JUMP JUMPDEST SWAP3 SWAP2 POP POP JUMP JUMPDEST PUSH32 0x4F6E6C79206F776E65722063616E20706572666F726D20746869732061637469 PUSH0 DUP3 ADD MSTORE PUSH32 0x6F6E210000000000000000000000000000000000000000000000000000000000 PUSH1 0x20 DUP3 ADD MSTORE POP JUMP JUMPDEST PUSH0 PUSH2 0x329C PUSH1 0x23 DUP4 PUSH2 0x2D19 JUMP JUMPDEST SWAP2 POP PUSH2 0x32A7 DUP3 PUSH2 0x3242 JUMP JUMPDEST PUSH1 0x40 DUP3 ADD SWAP1 POP SWAP2 SWAP1 POP JUMP JUMPDEST PUSH0 PUSH1 0x20 DUP3 ADD SWAP1 POP DUP2 DUP2 SUB PUSH0 DUP4 ADD MSTORE PUSH2 0x32C9 DUP2 PUSH2 0x3290 JUMP JUMPDEST SWAP1 POP SWAP2 SWAP1 POP JUMP JUMPDEST PUSH32 0x4E487B7100000000000000000000000000000000000000000000000000000000 PUSH0 MSTORE PUSH1 0x22 PUSH1 0x4 MSTORE PUSH1 0x24 PUSH0 REVERT JUMPDEST PUSH0 PUSH1 0x2 DUP3 DIV SWAP1 POP PUSH1 0x1 DUP3 AND DUP1 PUSH2 0x3314 JUMPI PUSH1 0x7F DUP3 AND SWAP2 POP JUMPDEST PUSH1 0x20 DUP3 LT DUP2 SUB PUSH2 0x3327 JUMPI PUSH2 0x3326 PUSH2 0x32D0 JUMP JUMPDEST JUMPDEST POP SWAP2 SWAP1 POP JUMP JUMPDEST PUSH0 DUP2 SWAP1 POP DUP2 PUSH0 MSTORE PUSH1 0x20 PUSH0 KECCAK256 SWAP1 POP SWAP2 SWAP1 POP JUMP JUMPDEST PUSH0 PUSH1 0x20 PUSH1 0x1F DUP4 ADD DIV SWAP1 POP SWAP2 SWAP1 POP JUMP JUMPDEST PUSH0 DUP3 DUP3 SHL SWAP1 POP SWAP3 SWAP2 POP POP JUMP JUMPDEST PUSH0 PUSH1 0x8 DUP4 MUL PUSH2 0x3389 PUSH32 0xFFFFFFFFFFFFFFFFFFFFFFFFFFFFFFFFFFFFFFFFFFFFFFFFFFFFFFFFFFFFFFFF DUP3 PUSH2 0x334E JUMP JUMPDEST PUSH2 0x3393 DUP7 DUP4 PUSH2 0x334E JUMP JUMPDEST SWAP6 POP DUP1 NOT DUP5 AND SWAP4 POP DUP1 DUP7 AND DUP5 OR SWAP3 POP POP POP SWAP4 SWAP3 POP POP POP JUMP JUMPDEST PUSH0 PUSH2 0x33C5 PUSH2 0x33C0 PUSH2 0x33BB DUP5 PUSH2 0x295A JUMP JUMPDEST PUSH2 0x2A90 JUMP JUMPDEST PUSH2 0x295A JUMP JUMPDEST SWAP1 POP SWAP2 SWAP1 POP JUMP JUMPDEST PUSH0 DUP2 SWAP1 POP SWAP2 SWAP1 POP JUMP JUMPDEST PUSH2 0x33DE DUP4 PUSH2 0x33AB JUMP JUMPDEST PUSH2 0x33F2 PUSH2 0x33EA DUP3 PUSH2 0x33CC JUMP JUMPDEST DUP5 DUP5 SLOAD PUSH2 0x335A JUMP JUMPDEST DUP3 SSTORE POP POP POP POP JUMP JUMPDEST PUSH0 PUSH0 SWAP1 POP SWAP1 JUMP JUMPDEST PUSH2 0x3409 PUSH2 0x33FA JUMP JUMPDEST PUSH2 0x3414 DUP2 DUP5 DUP5 PUSH2 0x33D5 JUMP JUMPDEST POP POP POP JUMP JUMPDEST JUMPDEST DUP2 DUP2 LT ISZERO PUSH2 0x3437 JUMPI PUSH2 0x342C PUSH0 DUP3 PUSH2 0x3401 JUMP JUMPDEST PUSH1 0x1 DUP2 ADD SWAP1 POP PUSH2 0x341A JUMP JUMPDEST POP POP JUMP JUMPDEST PUSH1 0x1F DUP3 GT ISZERO PUSH2 0x347C JUMPI PUSH2 0x344D DUP2 PUSH2 0x332D JUMP JUMPDEST PUSH2 0x3456 DUP5 PUSH2 0x333F JUMP JUMPDEST DUP2 ADD PUSH1 0x20 DUP6 LT ISZERO PUSH2 0x3465 JUMPI DUP2 SWAP1 POP JUMPDEST PUSH2 0x3479 PUSH2 0x3471 DUP6 PUSH2 0x333F JUMP JUMPDEST DUP4 ADD DUP3 PUSH2 0x3419 JUMP JUMPDEST POP POP JUMPDEST POP POP POP JUMP JUMPDEST PUSH0 DUP3 DUP3 SHR SWAP1 POP SWAP3 SWAP2 POP POP JUMP JUMPDEST PUSH0 PUSH2 0x349C PUSH0 NOT DUP5 PUSH1 0x8 MUL PUSH2 0x3481 JUMP JUMPDEST NOT DUP1 DUP4 AND SWAP2 POP POP SWAP3 SWAP2 POP POP JUMP JUMPDEST PUSH0 PUSH2 0x34B4 DUP4 DUP4 PUSH2 0x348D JUMP JUMPDEST SWAP2 POP DUP3 PUSH1 0x2 MUL DUP3 OR SWAP1 POP SWAP3 SWAP2 POP POP JUMP JUMPDEST PUSH2 0x34CD DUP3 PUSH2 0x2BE4 JUMP JUMPDEST PUSH8 0xFFFFFFFFFFFFFFFF DUP2 GT ISZERO PUSH2 0x34E6 JUMPI PUSH2 0x34E5 PUSH2 0x27EF JUMP JUMPDEST JUMPDEST PUSH2 0x34F0 DUP3 SLOAD PUSH2 0x32FD JUMP JUMPDEST PUSH2 0x34FB DUP3 DUP3 DUP6 PUSH2 0x343B JUMP JUMPDEST PUSH0 PUSH1 0x20 SWAP1 POP PUSH1 0x1F DUP4 GT PUSH1 0x1 DUP2 EQ PUSH2 0x352C JUMPI PUSH0 DUP5 ISZERO PUSH2 0x351A JUMPI DUP3 DUP8 ADD MLOAD SWAP1 POP JUMPDEST PUSH2 0x3524 DUP6 DUP3 PUSH2 0x34A9 JUMP JUMPDEST DUP7 SSTORE POP PUSH2 0x358B JUMP JUMPDEST PUSH1 0x1F NOT DUP5 AND PUSH2 0x353A DUP7 PUSH2 0x332D JUMP JUMPDEST PUSH0 JUMPDEST DUP3 DUP2 LT ISZERO PUSH2 0x3561 JUMPI DUP5 DUP10 ADD MLOAD DUP3 SSTORE PUSH1 0x1 DUP3 ADD SWAP2 POP PUSH1 0x20 DUP6 ADD SWAP5 POP PUSH1 0x20 DUP2 ADD SWAP1 POP PUSH2 0x353C JUMP JUMPDEST DUP7 DUP4 LT ISZERO PUSH2 0x357E JUMPI DUP5 DUP10 ADD MLOAD PUSH2 0x357A PUSH1 0x1F DUP10 AND DUP3 PUSH2 0x348D JUMP JUMPDEST DUP4 SSTORE POP JUMPDEST PUSH1 0x1 PUSH1 0x2 DUP9 MUL ADD DUP9 SSTORE POP POP POP JUMPDEST POP POP POP POP POP POP JUMP JUMPDEST PUSH0 PUSH1 0x40 DUP3 ADD SWAP1 POP DUP2 DUP2 SUB PUSH0 DUP4 ADD MSTORE PUSH2 0x35AB DUP2 DUP6 PUSH2 0x2D29 JUMP JUMPDEST SWAP1 POP DUP2 DUP2 SUB PUSH1 0x20 DUP4 ADD MSTORE PUSH2 0x35BF DUP2 DUP5 PUSH2 0x2D29 JUMP JUMPDEST SWAP1 POP SWAP4 SWAP3 POP POP POP JUMP JUMPDEST PUSH32 0x496E76616C69642063616E646964617465204944210000000000000000000000 PUSH0 DUP3 ADD MSTORE POP JUMP JUMPDEST PUSH0 PUSH2 0x35FC PUSH1 0x15 DUP4 PUSH2 0x2D19 JUMP JUMPDEST SWAP2 POP PUSH2 0x3607 DUP3 PUSH2 0x35C8 JUMP JUMPDEST PUSH1 0x20 DUP3 ADD SWAP1 POP SWAP2 SWAP1 POP JUMP JUMPDEST PUSH0 PUSH1 0x20 DUP3 ADD SWAP1 POP DUP2 DUP2 SUB PUSH0 DUP4 ADD MSTORE PUSH2 0x3629 DUP2 PUSH2 0x35F0 JUMP JUMPDEST SWAP1 POP SWAP2 SWAP1 POP JUMP JUMPDEST PUSH32 0x4E487B7100000000000000000000000000000000000000000000000000000000 PUSH0 MSTORE PUSH1 0x32 PUSH1 0x4 MSTORE PUSH1 0x24 PUSH0 REVERT JUMPDEST PUSH32 0x5F6C6566742073686F756C6420626520696E7369646520746865206669656C64 PUSH0 DUP3 ADD MSTORE POP JUMP JUMPDEST PUSH0 PUSH2 0x3691 PUSH1 0x20 DUP4 PUSH2 0x2D19 JUMP JUMPDEST SWAP2 POP PUSH2 0x369C DUP3 PUSH2 0x365D JUMP JUMPDEST PUSH1 0x20 DUP3 ADD SWAP1 POP SWAP2 SWAP1 POP JUMP JUMPDEST PUSH0 PUSH1 0x20 DUP3 ADD SWAP1 POP DUP2 DUP2 SUB PUSH0 DUP4 ADD MSTORE PUSH2 0x36BE DUP2 PUSH2 0x3685 JUMP JUMPDEST SWAP1 POP SWAP2 SWAP1 POP JUMP JUMPDEST PUSH32 0x5F72696768742073686F756C6420626520696E7369646520746865206669656C PUSH0 DUP3 ADD MSTORE PUSH32 0x6400000000000000000000000000000000000000000000000000000000000000 PUSH1 0x20 DUP3 ADD MSTORE POP JUMP JUMPDEST PUSH0 PUSH2 0x371F PUSH1 0x21 DUP4 PUSH2 0x2D19 JUMP JUMPDEST SWAP2 POP PUSH2 0x372A DUP3 PUSH2 0x36C5 JUMP JUMPDEST PUSH1 0x40 DUP3 ADD SWAP1 POP SWAP2 SWAP1 POP JUMP JUMPDEST PUSH0 PUSH1 0x20 DUP3 ADD SWAP1 POP DUP2 DUP2 SUB PUSH0 DUP4 ADD MSTORE PUSH2 0x374C DUP2 PUSH2 0x3713 JUMP JUMPDEST SWAP1 POP SWAP2 SWAP1 POP JUMP JUMPDEST PUSH0 DUP2 SWAP1 POP SWAP2 SWAP1 POP JUMP JUMPDEST PUSH0 PUSH2 0x3776 PUSH2 0x3771 PUSH2 0x376C DUP5 PUSH2 0x3753 JUMP JUMPDEST PUSH2 0x2A90 JUMP JUMPDEST PUSH2 0x295A JUMP JUMPDEST SWAP1 POP SWAP2 SWAP1 POP JUMP JUMPDEST PUSH2 0x3786 DUP2 PUSH2 0x375C JUMP JUMPDEST DUP3 MSTORE POP POP JUMP JUMPDEST PUSH0 PUSH1 0x60 DUP3 ADD SWAP1 POP PUSH2 0x379F PUSH0 DUP4 ADD DUP7 PUSH2 0x2963 JUMP JUMPDEST PUSH2 0x37AC PUSH1 0x20 DUP4 ADD DUP6 PUSH2 0x2963 JUMP JUMPDEST PUSH2 0x37B9 PUSH1 0x40 DUP4 ADD DUP5 PUSH2 0x377D JUMP JUMPDEST SWAP5 SWAP4 POP POP POP POP JUMP JUMPDEST PUSH0 DUP2 MLOAD SWAP1 POP PUSH2 0x37CF DUP2 PUSH2 0x298B JUMP JUMPDEST SWAP3 SWAP2 POP POP JUMP JUMPDEST PUSH0 PUSH0 PUSH1 0x40 DUP4 DUP6 SUB SLT ISZERO PUSH2 0x37EB JUMPI PUSH2 0x37EA PUSH2 0x27CF JUMP JUMPDEST JUMPDEST PUSH0 PUSH2 0x37F8 DUP6 DUP3 DUP7 ADD PUSH2 0x37C1 JUMP JUMPDEST SWAP3 POP POP PUSH1 0x20 PUSH2 0x3809 DUP6 DUP3 DUP7 ADD PUSH2 0x37C1 JUMP JUMPDEST SWAP2 POP POP SWAP3 POP SWAP3 SWAP1 POP JUMP JUMPDEST PUSH32 0x4E487B7100000000000000000000000000000000000000000000000000000000 PUSH0 MSTORE PUSH1 0x12 PUSH1 0x4 MSTORE PUSH1 0x24 PUSH0 REVERT JUMPDEST PUSH32 0x4E6F742077697468696E2074686520726567697374726174696F6E2070657269 PUSH0 DUP3 ADD MSTORE PUSH32 0x6F64210000000000000000000000000000000000000000000000000000000000 PUSH1 0x20 DUP3 ADD MSTORE POP JUMP JUMPDEST PUSH0 PUSH2 0x389A PUSH1 0x23 DUP4 PUSH2 0x2D19 JUMP JUMPDEST SWAP2 POP PUSH2 0x38A5 DUP3 PUSH2 0x3840 JUMP JUMPDEST PUSH1 0x40 DUP3 ADD SWAP1 POP SWAP2 SWAP1 POP JUMP JUMPDEST PUSH0 PUSH1 0x20 DUP3 ADD SWAP1 POP DUP2 DUP2 SUB PUSH0 DUP4 ADD MSTORE PUSH2 0x38C7 DUP2 PUSH2 0x388E JUMP JUMPDEST SWAP1 POP SWAP2 SWAP1 POP JUMP JUMPDEST PUSH32 0x4E616D65206D7573742062652032302063686172616374657273206F72206C65 PUSH0 DUP3 ADD MSTORE PUSH32 0x7373000000000000000000000000000000000000000000000000000000000000 PUSH1 0x20 DUP3 ADD MSTORE POP JUMP JUMPDEST PUSH0 PUSH2 0x3928 PUSH1 0x22 DUP4 PUSH2 0x2D19 JUMP JUMPDEST SWAP2 POP PUSH2 0x3933 DUP3 PUSH2 0x38CE JUMP JUMPDEST PUSH1 0x40 DUP3 ADD SWAP1 POP SWAP2 SWAP1 POP JUMP JUMPDEST PUSH0 PUSH1 0x20 DUP3 ADD SWAP1 POP DUP2 DUP2 SUB PUSH0 DUP4 ADD MSTORE PUSH2 0x3955 DUP2 PUSH2 0x391C JUMP JUMPDEST SWAP1 POP SWAP2 SWAP1 POP JUMP JUMPDEST PUSH32 0x43616E6469646174652077697468207468697320494420616C72656164792065 PUSH0 DUP3 ADD MSTORE PUSH32 0x7869737473000000000000000000000000000000000000000000000000000000 PUSH1 0x20 DUP3 ADD MSTORE POP JUMP JUMPDEST PUSH0 PUSH2 0x39B6 PUSH1 0x25 DUP4 PUSH2 0x2D19 JUMP JUMPDEST SWAP2 POP PUSH2 0x39C1 DUP3 PUSH2 0x395C JUMP JUMPDEST PUSH1 0x40 DUP3 ADD SWAP1 POP SWAP2 SWAP1 POP JUMP JUMPDEST PUSH0 PUSH1 0x20 DUP3 ADD SWAP1 POP DUP2 DUP2 SUB PUSH0 DUP4 ADD MSTORE PUSH2 0x39E3 DUP2 PUSH2 0x39AA JUMP JUMPDEST SWAP1 POP SWAP2 SWAP1 POP JUMP JUMPDEST PUSH32 0x4E487B7100000000000000000000000000000000000000000000000000000000 PUSH0 MSTORE PUSH1 0x11 PUSH1 0x4 MSTORE PUSH1 0x24 PUSH0 REVERT JUMPDEST PUSH0 PUSH2 0x3A21 DUP3 PUSH2 0x295A JUMP JUMPDEST SWAP2 POP PUSH32 0xFFFFFFFFFFFFFFFFFFFFFFFFFFFFFFFFFFFFFFFFFFFFFFFFFFFFFFFFFFFFFFFF DUP3 SUB PUSH2 0x3A53 JUMPI PUSH2 0x3A52 PUSH2 0x39EA JUMP JUMPDEST JUMPDEST PUSH1 0x1 DUP3 ADD SWAP1 POP SWAP2 SWAP1 POP JUMP JUMPDEST PUSH0 PUSH2 0x3A68 DUP3 PUSH2 0x2DED JUMP JUMPDEST SWAP2 POP PUSH0 DUP3 SUB PUSH2 0x3A7A JUMPI PUSH2 0x3A79 PUSH2 0x39EA JUMP JUMPDEST JUMPDEST PUSH1 0x1 DUP3 SUB SWAP1 POP SWAP2 SWAP1 POP JUMP JUMPDEST PUSH32 0x53746172742074696D65206D757374206265206265666F726520656E64207469 PUSH0 DUP3 ADD MSTORE PUSH32 0x6D65000000000000000000000000000000000000000000000000000000000000 PUSH1 0x20 DUP3 ADD MSTORE POP JUMP JUMPDEST PUSH0 PUSH2 0x3ADF PUSH1 0x22 DUP4 PUSH2 0x2D19 JUMP JUMPDEST SWAP2 POP PUSH2 0x3AEA DUP3 PUSH2 0x3A85 JUMP JUMPDEST PUSH1 0x40 DUP3 ADD SWAP1 POP SWAP2 SWAP1 POP JUMP JUMPDEST PUSH0 PUSH1 0x20 DUP3 ADD SWAP1 POP DUP2 DUP2 SUB PUSH0 DUP4 ADD MSTORE PUSH2 0x3B0C DUP2 PUSH2 0x3AD3 JUMP JUMPDEST SWAP1 POP SWAP2 SWAP1 POP JUMP JUMPDEST PUSH32 0x5468697320756E69717565206861736820697320616C72656164792075736564 PUSH0 DUP3 ADD MSTORE PUSH32 0x2100000000000000000000000000000000000000000000000000000000000000 PUSH1 0x20 DUP3 ADD MSTORE POP JUMP JUMPDEST PUSH0 PUSH2 0x3B6D PUSH1 0x21 DUP4 PUSH2 0x2D19 JUMP JUMPDEST SWAP2 POP PUSH2 0x3B78 DUP3 PUSH2 0x3B13 JUMP JUMPDEST PUSH1 0x40 DUP3 ADD SWAP1 POP SWAP2 SWAP1 POP JUMP JUMPDEST PUSH0 PUSH1 0x20 DUP3 ADD SWAP1 POP DUP2 DUP2 SUB PUSH0 DUP4 ADD MSTORE PUSH2 0x3B9A DUP2 PUSH2 0x3B61 JUMP JUMPDEST SWAP1 POP SWAP2 SWAP1 POP JUMP JUMPDEST PUSH32 0x4E6F742077697468696E2074686520766F74696E6720706572696F6421000000 PUSH0 DUP3 ADD MSTORE POP JUMP JUMPDEST PUSH0 PUSH2 0x3BD5 PUSH1 0x1D DUP4 PUSH2 0x2D19 JUMP JUMPDEST SWAP2 POP PUSH2 0x3BE0 DUP3 PUSH2 0x3BA1 JUMP JUMPDEST PUSH1 0x20 DUP3 ADD SWAP1 POP SWAP2 SWAP1 POP JUMP JUMPDEST PUSH0 PUSH1 0x20 DUP3 ADD SWAP1 POP DUP2 DUP2 SUB PUSH0 DUP4 ADD MSTORE PUSH2 0x3C02 DUP2 PUSH2 0x3BC9 JUMP JUMPDEST SWAP1 POP SWAP2 SWAP1 POP JUMP JUMPDEST PUSH32 0x496E76616C69642063616E646964617465210000000000000000000000000000 PUSH0 DUP3 ADD MSTORE POP JUMP JUMPDEST PUSH0 PUSH2 0x3C3D PUSH1 0x12 DUP4 PUSH2 0x2D19 JUMP JUMPDEST SWAP2 POP PUSH2 0x3C48 DUP3 PUSH2 0x3C09 JUMP JUMPDEST PUSH1 0x20 DUP3 ADD SWAP1 POP SWAP2 SWAP1 POP JUMP JUMPDEST PUSH0 PUSH1 0x20 DUP3 ADD SWAP1 POP DUP2 DUP2 SUB PUSH0 DUP4 ADD MSTORE PUSH2 0x3C6A DUP2 PUSH2 0x3C31 JUMP JUMPDEST SWAP1 POP SWAP2 SWAP1 POP JUMP JUMPDEST PUSH32 0x43616E64696461746520646F6573206E6F742065786973742100000000000000 PUSH0 DUP3 ADD MSTORE POP JUMP JUMPDEST PUSH0 PUSH2 0x3CA5 PUSH1 0x19 DUP4 PUSH2 0x2D19 JUMP JUMPDEST SWAP2 POP PUSH2 0x3CB0 DUP3 PUSH2 0x3C71 JUMP JUMPDEST PUSH1 0x20 DUP3 ADD SWAP1 POP SWAP2 SWAP1 POP JUMP JUMPDEST PUSH0 PUSH1 0x20 DUP3 ADD SWAP1 POP DUP2 DUP2 SUB PUSH0 DUP4 ADD MSTORE PUSH2 0x3CD2 DUP2 PUSH2 0x3C99 JUMP JUMPDEST SWAP1 POP SWAP2 SWAP1 POP JUMP JUMPDEST PUSH0 PUSH2 0x3CE3 DUP3 PUSH2 0x2D81 JUMP JUMPDEST SWAP2 POP PUSH8 0xFFFFFFFFFFFFFFFF DUP3 SUB PUSH2 0x3CFD JUMPI PUSH2 0x3CFC PUSH2 0x39EA JUMP JUMPDEST JUMPDEST PUSH1 0x1 DUP3 ADD SWAP1 POP SWAP2 SWAP1 POP JUMP JUMPDEST PUSH32 0x496E646578206F7574206F6620626F756E647300000000000000000000000000 PUSH0 DUP3 ADD MSTORE POP JUMP JUMPDEST PUSH0 PUSH2 0x3D3C PUSH1 0x13 DUP4 PUSH2 0x2D19 JUMP JUMPDEST SWAP2 POP PUSH2 0x3D47 DUP3 PUSH2 0x3D08 JUMP JUMPDEST PUSH1 0x20 DUP3 ADD SWAP1 POP SWAP2 SWAP1 POP JUMP JUMPDEST PUSH0 PUSH1 0x20 DUP3 ADD SWAP1 POP DUP2 DUP2 SUB PUSH0 DUP4 ADD MSTORE PUSH2 0x3D69 DUP2 PUSH2 0x3D30 JUMP JUMPDEST SWAP1 POP SWAP2 SWAP1 POP JUMP JUMPDEST PUSH32 0x54686520636F6D6D69746D656E7420686173206265656E207375626D69747465 PUSH0 DUP3 ADD MSTORE PUSH32 0x6400000000000000000000000000000000000000000000000000000000000000 PUSH1 0x20 DUP3 ADD MSTORE POP JUMP JUMPDEST PUSH0 PUSH2 0x3DCA PUSH1 0x21 DUP4 PUSH2 0x2D19 JUMP JUMPDEST SWAP2 POP PUSH2 0x3DD5 DUP3 PUSH2 0x3D70 JUMP JUMPDEST PUSH1 0x40 DUP3 ADD SWAP1 POP SWAP2 SWAP1 POP JUMP JUMPDEST PUSH0 PUSH1 0x20 DUP3 ADD SWAP1 POP DUP2 DUP2 SUB PUSH0 DUP4 ADD MSTORE PUSH2 0x3DF7 DUP2 PUSH2 0x3DBE JUMP JUMPDEST SWAP1 POP SWAP2 SWAP1 POP JUMP JUMPDEST PUSH0 PUSH1 0x40 DUP3 ADD SWAP1 POP PUSH2 0x3E11 PUSH0 DUP4 ADD DUP6 PUSH2 0x2DFC JUMP JUMPDEST PUSH2 0x3E1E PUSH1 0x20 DUP4 ADD DUP5 PUSH2 0x2963 JUMP JUMPDEST SWAP4 SWAP3 POP POP POP JUMP JUMPDEST PUSH32 0x546865206E756C6C696669657220686173206265656E207375626D6974746564 PUSH0 DUP3 ADD MSTORE POP JUMP JUMPDEST PUSH0 PUSH2 0x3E59 PUSH1 0x20 DUP4 PUSH2 0x2D19 JUMP JUMPDEST SWAP2 POP PUSH2 0x3E64 DUP3 PUSH2 0x3E25 JUMP JUMPDEST PUSH1 0x20 DUP3 ADD SWAP1 POP SWAP2 SWAP1 POP JUMP JUMPDEST PUSH0 PUSH1 0x20 DUP3 ADD SWAP1 POP DUP2 DUP2 SUB PUSH0 DUP4 ADD MSTORE PUSH2 0x3E86 DUP2 PUSH2 0x3E4D JUMP JUMPDEST SWAP1 POP SWAP2 SWAP1 POP JUMP JUMPDEST PUSH32 0x43616E6E6F742066696E6420796F7572206D65726B6C6520726F6F7400000000 PUSH0 DUP3 ADD MSTORE POP JUMP JUMPDEST PUSH0 PUSH2 0x3EC1 PUSH1 0x1C DUP4 PUSH2 0x2D19 JUMP JUMPDEST SWAP2 POP PUSH2 0x3ECC DUP3 PUSH2 0x3E8D JUMP JUMPDEST PUSH1 0x20 DUP3 ADD SWAP1 POP SWAP2 SWAP1 POP JUMP JUMPDEST PUSH0 PUSH1 0x20 DUP3 ADD SWAP1 POP DUP2 DUP2 SUB PUSH0 DUP4 ADD MSTORE PUSH2 0x3EEE DUP2 PUSH2 0x3EB5 JUMP JUMPDEST SWAP1 POP SWAP2 SWAP1 POP JUMP JUMPDEST PUSH0 PUSH1 0x2 SWAP1 POP SWAP2 SWAP1 POP JUMP JUMPDEST PUSH0 DUP2 SWAP1 POP SWAP3 SWAP2 POP POP JUMP JUMPDEST PUSH0 DUP2 SWAP1 POP SWAP2 SWAP1 POP JUMP JUMPDEST PUSH0 PUSH1 0x20 DUP3 ADD SWAP1 POP SWAP2 SWAP1 POP JUMP JUMPDEST PUSH2 0x3F27 DUP2 PUSH2 0x3EF5 JUMP JUMPDEST PUSH2 0x3F31 DUP2 DUP5 PUSH2 0x3EFF JUMP JUMPDEST SWAP3 POP PUSH2 0x3F3C DUP3 PUSH2 0x3F09 JUMP JUMPDEST DUP1 PUSH0 JUMPDEST DUP4 DUP2 LT ISZERO PUSH2 0x3F6C JUMPI DUP2 MLOAD PUSH2 0x3F53 DUP8 DUP3 PUSH2 0x2B3C JUMP JUMPDEST SWAP7 POP PUSH2 0x3F5E DUP4 PUSH2 0x3F12 JUMP JUMPDEST SWAP3 POP POP PUSH1 0x1 DUP2 ADD SWAP1 POP PUSH2 0x3F3F JUMP JUMPDEST POP POP POP POP POP POP JUMP JUMPDEST PUSH0 PUSH1 0x2 SWAP1 POP SWAP2 SWAP1 POP JUMP JUMPDEST PUSH0 DUP2 SWAP1 POP SWAP3 SWAP2 POP POP JUMP JUMPDEST PUSH0 DUP2 SWAP1 POP SWAP2 SWAP1 POP JUMP JUMPDEST PUSH0 DUP2 SWAP1 POP SWAP3 SWAP2 POP POP JUMP JUMPDEST PUSH2 0x3FA4 DUP2 PUSH2 0x3EF5 JUMP JUMPDEST PUSH2 0x3FAE DUP2 DUP5 PUSH2 0x3F91 JUMP JUMPDEST SWAP3 POP PUSH2 0x3FB9 DUP3 PUSH2 0x3F09 JUMP JUMPDEST DUP1 PUSH0 JUMPDEST DUP4 DUP2 LT ISZERO PUSH2 0x3FE9 JUMPI DUP2 MLOAD PUSH2 0x3FD0 DUP8 DUP3 PUSH2 0x2B3C JUMP JUMPDEST SWAP7 POP PUSH2 0x3FDB DUP4 PUSH2 0x3F12 JUMP JUMPDEST SWAP3 POP POP PUSH1 0x1 DUP2 ADD SWAP1 POP PUSH2 0x3FBC JUMP JUMPDEST POP POP POP POP POP POP JUMP JUMPDEST PUSH0 PUSH2 0x3FFC DUP4 DUP4 PUSH2 0x3F9B JUMP JUMPDEST PUSH1 0x40 DUP4 ADD SWAP1 POP SWAP3 SWAP2 POP POP JUMP JUMPDEST PUSH0 PUSH1 0x20 DUP3 ADD SWAP1 POP SWAP2 SWAP1 POP JUMP JUMPDEST PUSH2 0x401D DUP2 PUSH2 0x3F74 JUMP JUMPDEST PUSH2 0x4027 DUP2 DUP5 PUSH2 0x3F7E JUMP JUMPDEST SWAP3 POP PUSH2 0x4032 DUP3 PUSH2 0x3F88 JUMP JUMPDEST DUP1 PUSH0 JUMPDEST DUP4 DUP2 LT ISZERO PUSH2 0x4062 JUMPI DUP2 MLOAD PUSH2 0x4049 DUP8 DUP3 PUSH2 0x3FF1 JUMP JUMPDEST SWAP7 POP PUSH2 0x4054 DUP4 PUSH2 0x4008 JUMP JUMPDEST SWAP3 POP POP PUSH1 0x1 DUP2 ADD SWAP1 POP PUSH2 0x4035 JUMP JUMPDEST POP POP POP POP POP POP JUMP JUMPDEST PUSH0 PUSH2 0x140 DUP3 ADD SWAP1 POP PUSH2 0x407E PUSH0 DUP4 ADD DUP8 PUSH2 0x3F1E JUMP JUMPDEST PUSH2 0x408B PUSH1 0x40 DUP4 ADD DUP7 PUSH2 0x4014 JUMP JUMPDEST PUSH2 0x4098 PUSH1 0xC0 DUP4 ADD DUP6 PUSH2 0x3F1E JUMP JUMPDEST PUSH2 0x40A6 PUSH2 0x100 DUP4 ADD DUP5 PUSH2 0x3F1E JUMP JUMPDEST SWAP6 SWAP5 POP POP POP POP POP JUMP JUMPDEST PUSH2 0x40B8 DUP2 PUSH2 0x2A3E JUMP JUMPDEST DUP2 EQ PUSH2 0x40C2 JUMPI PUSH0 PUSH0 REVERT JUMPDEST POP JUMP JUMPDEST PUSH0 DUP2 MLOAD SWAP1 POP PUSH2 0x40D3 DUP2 PUSH2 0x40AF JUMP JUMPDEST SWAP3 SWAP2 POP POP JUMP JUMPDEST PUSH0 PUSH1 0x20 DUP3 DUP5 SUB SLT ISZERO PUSH2 0x40EE JUMPI PUSH2 0x40ED PUSH2 0x27CF JUMP JUMPDEST JUMPDEST PUSH0 PUSH2 0x40FB DUP5 DUP3 DUP6 ADD PUSH2 0x40C5 JUMP JUMPDEST SWAP2 POP POP SWAP3 SWAP2 POP POP JUMP JUMPDEST PUSH32 0x496E76616C69642070726F6F6600000000000000000000000000000000000000 PUSH0 DUP3 ADD MSTORE POP JUMP JUMPDEST PUSH0 PUSH2 0x4138 PUSH1 0xD DUP4 PUSH2 0x2D19 JUMP JUMPDEST SWAP2 POP PUSH2 0x4143 DUP3 PUSH2 0x4104 JUMP JUMPDEST PUSH1 0x20 DUP3 ADD SWAP1 POP SWAP2 SWAP1 POP JUMP JUMPDEST PUSH0 PUSH1 0x20 DUP3 ADD SWAP1 POP DUP2 DUP2 SUB PUSH0 DUP4 ADD MSTORE PUSH2 0x4165 DUP2 PUSH2 0x412C JUMP JUMPDEST SWAP1 POP SWAP2 SWAP1 POP JUMP JUMPDEST PUSH0 DUP2 PUSH1 0x1 SHR SWAP1 POP SWAP2 SWAP1 POP JUMP JUMPDEST PUSH0 PUSH0 DUP3 SWAP2 POP DUP4 SWAP1 POP JUMPDEST PUSH1 0x1 DUP6 GT ISZERO PUSH2 0x41C1 JUMPI DUP1 DUP7 DIV DUP2 GT ISZERO PUSH2 0x419D JUMPI PUSH2 0x419C PUSH2 0x39EA JUMP JUMPDEST JUMPDEST PUSH1 0x1 DUP6 AND ISZERO PUSH2 0x41AC JUMPI DUP1 DUP3 MUL SWAP2 POP JUMPDEST DUP1 DUP2 MUL SWAP1 POP PUSH2 0x41BA DUP6 PUSH2 0x416C JUMP JUMPDEST SWAP5 POP PUSH2 0x4181 JUMP JUMPDEST SWAP5 POP SWAP5 SWAP3 POP POP POP JUMP JUMPDEST PUSH0 DUP3 PUSH2 0x41D9 JUMPI PUSH1 0x1 SWAP1 POP PUSH2 0x4294 JUMP JUMPDEST DUP2 PUSH2 0x41E6 JUMPI PUSH0 SWAP1 POP PUSH2 0x4294 JUMP JUMPDEST DUP2 PUSH1 0x1 DUP2 EQ PUSH2 0x41FC JUMPI PUSH1 0x2 DUP2 EQ PUSH2 0x4206 JUMPI PUSH2 0x4235 JUMP JUMPDEST PUSH1 0x1 SWAP2 POP POP PUSH2 0x4294 JUMP JUMPDEST PUSH1 0xFF DUP5 GT ISZERO PUSH2 0x4218 JUMPI PUSH2 0x4217 PUSH2 0x39EA JUMP JUMPDEST JUMPDEST DUP4 PUSH1 0x2 EXP SWAP2 POP DUP5 DUP3 GT ISZERO PUSH2 0x422F JUMPI PUSH2 0x422E PUSH2 0x39EA JUMP JUMPDEST JUMPDEST POP PUSH2 0x4294 JUMP JUMPDEST POP PUSH1 0x20 DUP4 LT PUSH2 0x133 DUP4 LT AND PUSH1 0x4E DUP5 LT PUSH1 0xB DUP5 LT AND OR ISZERO PUSH2 0x426A JUMPI DUP3 DUP3 EXP SWAP1 POP DUP4 DUP2 GT ISZERO PUSH2 0x4265 JUMPI PUSH2 0x4264 PUSH2 0x39EA JUMP JUMPDEST JUMPDEST PUSH2 0x4294 JUMP JUMPDEST PUSH2 0x4277 DUP5 DUP5 DUP5 PUSH1 0x1 PUSH2 0x4178 JUMP JUMPDEST SWAP3 POP SWAP1 POP DUP2 DUP5 DIV DUP2 GT ISZERO PUSH2 0x428E JUMPI PUSH2 0x428D PUSH2 0x39EA JUMP JUMPDEST JUMPDEST DUP2 DUP2 MUL SWAP1 POP JUMPDEST SWAP4 SWAP3 POP POP POP JUMP JUMPDEST PUSH0 PUSH2 0x42A5 DUP3 PUSH2 0x2DED JUMP JUMPDEST SWAP2 POP PUSH2 0x42B0 DUP4 PUSH2 0x2DED JUMP JUMPDEST SWAP3 POP PUSH2 0x42C1 PUSH4 0xFFFFFFFF DUP5 DUP5 PUSH2 0x41CA JUMP JUMPDEST SWAP1 POP SWAP3 SWAP2 POP POP JUMP JUMPDEST PUSH32 0x4D65726B6C6520747265652069732066756C6C2E204E6F206D6F7265206C6561 PUSH0 DUP3 ADD MSTORE PUSH32 0x7665732063616E20626520616464656400000000000000000000000000000000 PUSH1 0x20 DUP3 ADD MSTORE POP JUMP JUMPDEST PUSH0 PUSH2 0x4323 PUSH1 0x30 DUP4 PUSH2 0x2D19 JUMP JUMPDEST SWAP2 POP PUSH2 0x432E DUP3 PUSH2 0x42C9 JUMP JUMPDEST PUSH1 0x40 DUP3 ADD SWAP1 POP SWAP2 SWAP1 POP JUMP JUMPDEST PUSH0 PUSH1 0x20 DUP3 ADD SWAP1 POP DUP2 DUP2 SUB PUSH0 DUP4 ADD MSTORE PUSH2 0x4350 DUP2 PUSH2 0x4317 JUMP JUMPDEST SWAP1 POP SWAP2 SWAP1 POP JUMP JUMPDEST PUSH0 PUSH2 0x4361 DUP3 PUSH2 0x2DED JUMP JUMPDEST SWAP2 POP PUSH2 0x436C DUP4 PUSH2 0x2DED JUMP JUMPDEST SWAP3 POP DUP3 PUSH2 0x437C JUMPI PUSH2 0x437B PUSH2 0x3813 JUMP JUMPDEST JUMPDEST DUP3 DUP3 MOD SWAP1 POP SWAP3 SWAP2 POP POP JUMP JUMPDEST PUSH0 PUSH2 0x4391 DUP3 PUSH2 0x2DED JUMP JUMPDEST SWAP2 POP PUSH2 0x439C DUP4 PUSH2 0x2DED JUMP JUMPDEST SWAP3 POP DUP3 PUSH2 0x43AC JUMPI PUSH2 0x43AB PUSH2 0x3813 JUMP JUMPDEST JUMPDEST DUP3 DUP3 DIV SWAP1 POP SWAP3 SWAP2 POP POP JUMP JUMPDEST PUSH0 PUSH2 0x43C1 DUP3 PUSH2 0x2DED JUMP JUMPDEST SWAP2 POP PUSH2 0x43CC DUP4 PUSH2 0x2DED JUMP JUMPDEST SWAP3 POP DUP3 DUP3 ADD SWAP1 POP PUSH4 0xFFFFFFFF DUP2 GT ISZERO PUSH2 0x43E8 JUMPI PUSH2 0x43E7 PUSH2 0x39EA JUMP JUMPDEST JUMPDEST SWAP3 SWAP2 POP POP JUMP INVALID LOG2 PUSH5 0x6970667358 0x22 SLT KECCAK256 SLOAD SWAP12 0xD2 0xCD 0x25 0xBF 0xD5 SWAP8 SWAP10 0xB0 SWAP2 SUB 0xD7 PUSH31 0xD84C4817948A9933F204E230955E02452E2C64736F6C634300081B00330000 "
		},
		"gasEstimates": {
			"creation": {
				"codeDepositCost": "3488800",
				"executionCost": "infinite",
				"totalCost": "infinite"
			},
			"external": {
				"FIELD_SIZE()": "371",
				"ROOT_HISTORY_SIZE()": "420",
				"ZERO_VALUE()": "391",
				"addCandidate(uint64,string)": "infinite",
				"candidates(uint256)": "infinite",
				"commitments(bytes32)": "2874",
				"commitmentss(uint256)": "infinite",
				"currentRootIndex()": "2578",
				"deleteCandidate(uint256)": "infinite",
				"electionName()": "infinite",
				"filledSubtrees(uint256)": "2864",
				"getAllCandidates()": "infinite",
				"getElectionName()": "infinite",
				"getLastRoot()": "4760",
				"getOptionCounter(uint256)": "infinite",
				"getOwner()": "2561",
				"getValidators()": "infinite",
				"hashLeftRight(uint256,uint256)": "infinite",
				"hasher()": "infinite",
				"isKnownRoot(bytes32)": "infinite",
				"isVoterRegistered(uint256)": "2855",
				"levels()": "2533",
				"nextIndex()": "2649",
				"nullifiers(bytes32)": "2920",
				"numCandidates()": "2515",
				"owner()": "2598",
				"pendingUniqueHashes(uint256)": "infinite",
				"registerVoter(uint256,uint256)": "infinite",
				"registrationEnd()": "2516",
				"registrationStart()": "2492",
				"roots(uint256)": "2821",
				"setElectionName(string)": "infinite",
				"setRegistrationPeriod(uint256,uint256)": "infinite",
				"setVotingPeriod(uint256,uint256)": "infinite",
				"uniqueHashes(uint256)": "2830",
				"verifier()": "infinite",
				"vote(uint256,uint256,uint256,uint256[2],uint256[2][2],uint256[2])": "infinite",
				"votingEnd()": "2536",
				"votingStart()": "2494",
				"zeros(uint256)": "1465"
			}
		},
		"methodIdentifiers": {
			"FIELD_SIZE()": "414a37ba",
			"ROOT_HISTORY_SIZE()": "cd87a3b4",
			"ZERO_VALUE()": "ec732959",
			"addCandidate(uint64,string)": "5e559ea1",
			"candidates(uint256)": "3477ee2e",
			"commitments(bytes32)": "839df945",
			"commitmentss(uint256)": "32bcce08",
			"currentRootIndex()": "90eeb02b",
			"deleteCandidate(uint256)": "1e620cd4",
			"electionName()": "85e8e7a7",
			"filledSubtrees(uint256)": "f178e47c",
			"getAllCandidates()": "2e6997fe",
			"getElectionName()": "30e7a79c",
			"getLastRoot()": "ba70f757",
			"getOptionCounter(uint256)": "955e0377",
			"getOwner()": "893d20e8",
			"getValidators()": "b7ab4db5",
			"hashLeftRight(uint256,uint256)": "5bb93995",
			"hasher()": "ed33639f",
			"isKnownRoot(bytes32)": "6d9833e3",
			"isVoterRegistered(uint256)": "6d3cba61",
			"levels()": "4ecf518b",
			"nextIndex()": "fc7e9c6f",
			"nullifiers(bytes32)": "2997e86b",
			"numCandidates()": "5216509a",
			"owner()": "8da5cb5b",
			"pendingUniqueHashes(uint256)": "d290a3cf",
			"registerVoter(uint256,uint256)": "be00d6a1",
			"registrationEnd()": "13446a75",
			"registrationStart()": "b4062a31",
			"roots(uint256)": "c2b40ae4",
			"setElectionName(string)": "031a1374",
			"setRegistrationPeriod(uint256,uint256)": "8bb2fb75",
			"setVotingPeriod(uint256,uint256)": "a15a36c7",
			"uniqueHashes(uint256)": "c1b1f732",
			"verifier()": "2b7ac3f3",
			"vote(uint256,uint256,uint256,uint256[2],uint256[2][2],uint256[2])": "ce8f6377",
			"votingEnd()": "85a38635",
			"votingStart()": "101158af",
			"zeros(uint256)": "e8295588"
		}
	},
	"abi": [
		{
			"inputs": [
				{
					"internalType": "uint32",
					"name": "_levels",
					"type": "uint32"
				},
				{
					"internalType": "contract IHasher",
					"name": "_hasher",
					"type": "address"
				},
				{
					"internalType": "contract IVerifier",
					"name": "_verifier",
					"type": "address"
				},
				{
					"internalType": "uint256",
					"name": "_registrationStart",
					"type": "uint256"
				},
				{
					"internalType": "uint256",
					"name": "_registrationEnd",
					"type": "uint256"
				},
				{
					"internalType": "uint256",
					"name": "_votingStart",
					"type": "uint256"
				},
				{
					"internalType": "uint256",
					"name": "_votingEnd",
					"type": "uint256"
				},
				{
					"internalType": "string",
					"name": "_electionName",
					"type": "string"
				}
			],
			"stateMutability": "nonpayable",
			"type": "constructor"
		},
		{
			"anonymous": false,
			"inputs": [
				{
					"indexed": true,
					"internalType": "uint256",
					"name": "candidateId",
					"type": "uint256"
				},
				{
					"indexed": false,
					"internalType": "string",
					"name": "name",
					"type": "string"
				}
			],
			"name": "CandidateAdded",
			"type": "event"
		},
		{
			"anonymous": false,
			"inputs": [
				{
					"indexed": true,
					"internalType": "uint256",
					"name": "candidateId",
					"type": "uint256"
				}
			],
			"name": "CandidateDeleted",
			"type": "event"
		},
		{
			"anonymous": false,
			"inputs": [
				{
					"indexed": true,
					"internalType": "bytes32",
					"name": "commitment",
					"type": "bytes32"
				},
				{
					"indexed": false,
					"internalType": "uint32",
					"name": "leafIndex",
					"type": "uint32"
				},
				{
					"indexed": false,
					"internalType": "uint256",
					"name": "timestamp",
					"type": "uint256"
				}
			],
			"name": "Commit",
			"type": "event"
		},
		{
			"anonymous": false,
			"inputs": [
				{
					"indexed": false,
					"internalType": "string",
					"name": "oldName",
					"type": "string"
				},
				{
					"indexed": false,
					"internalType": "string",
					"name": "newName",
					"type": "string"
				}
			],
			"name": "ElectionNameUpdated",
			"type": "event"
		},
		{
			"anonymous": false,
			"inputs": [
				{
					"indexed": true,
					"internalType": "address",
					"name": "voter",
					"type": "address"
				},
				{
					"indexed": false,
					"internalType": "uint256",
					"name": "uniqueHash",
					"type": "uint256"
				},
				{
					"indexed": false,
					"internalType": "uint256",
					"name": "commitment",
					"type": "uint256"
				}
			],
			"name": "VoterRegistered",
			"type": "event"
		},
		{
			"inputs": [],
			"name": "FIELD_SIZE",
			"outputs": [
				{
					"internalType": "uint256",
					"name": "",
					"type": "uint256"
				}
			],
			"stateMutability": "view",
			"type": "function"
		},
		{
			"inputs": [],
			"name": "ROOT_HISTORY_SIZE",
			"outputs": [
				{
					"internalType": "uint32",
					"name": "",
					"type": "uint32"
				}
			],
			"stateMutability": "view",
			"type": "function"
		},
		{
			"inputs": [],
			"name": "ZERO_VALUE",
			"outputs": [
				{
					"internalType": "uint256",
					"name": "",
					"type": "uint256"
				}
			],
			"stateMutability": "view",
			"type": "function"
		},
		{
			"inputs": [
				{
					"internalType": "uint64",
					"name": "_id",
					"type": "uint64"
				},
				{
					"internalType": "string",
					"name": "_name",
					"type": "string"
				}
			],
			"name": "addCandidate",
			"outputs": [],
			"stateMutability": "nonpayable",
			"type": "function"
		},
		{
			"inputs": [
				{
					"internalType": "uint256",
					"name": "",
					"type": "uint256"
				}
			],
			"name": "candidates",
			"outputs": [
				{
					"internalType": "uint64",
					"name": "id",
					"type": "uint64"
				},
				{
					"internalType": "string",
					"name": "name",
					"type": "string"
				},
				{
					"internalType": "uint64",
					"name": "voteCount",
					"type": "uint64"
				},
				{
					"internalType": "bool",
					"name": "exists",
					"type": "bool"
				}
			],
			"stateMutability": "view",
			"type": "function"
		},
		{
			"inputs": [
				{
					"internalType": "bytes32",
					"name": "",
					"type": "bytes32"
				}
			],
			"name": "commitments",
			"outputs": [
				{
					"internalType": "bool",
					"name": "",
					"type": "bool"
				}
			],
			"stateMutability": "view",
			"type": "function"
		},
		{
			"inputs": [
				{
					"internalType": "uint256",
					"name": "",
					"type": "uint256"
				}
			],
			"name": "commitmentss",
			"outputs": [
				{
					"internalType": "uint256",
					"name": "",
					"type": "uint256"
				}
			],
			"stateMutability": "view",
			"type": "function"
		},
		{
			"inputs": [],
			"name": "currentRootIndex",
			"outputs": [
				{
					"internalType": "uint32",
					"name": "",
					"type": "uint32"
				}
			],
			"stateMutability": "view",
			"type": "function"
		},
		{
			"inputs": [
				{
					"internalType": "uint256",
					"name": "_candidateId",
					"type": "uint256"
				}
			],
			"name": "deleteCandidate",
			"outputs": [],
			"stateMutability": "nonpayable",
			"type": "function"
		},
		{
			"inputs": [],
			"name": "electionName",
			"outputs": [
				{
					"internalType": "string",
					"name": "",
					"type": "string"
				}
			],
			"stateMutability": "view",
			"type": "function"
		},
		{
			"inputs": [
				{
					"internalType": "uint256",
					"name": "",
					"type": "uint256"
				}
			],
			"name": "filledSubtrees",
			"outputs": [
				{
					"internalType": "bytes32",
					"name": "",
					"type": "bytes32"
				}
			],
			"stateMutability": "view",
			"type": "function"
		},
		{
			"inputs": [],
			"name": "getAllCandidates",
			"outputs": [
				{
					"internalType": "uint256",
					"name": "",
					"type": "uint256"
				},
				{
					"internalType": "uint256[]",
					"name": "",
					"type": "uint256[]"
				},
				{
					"internalType": "string[]",
					"name": "",
					"type": "string[]"
				}
			],
			"stateMutability": "view",
			"type": "function"
		},
		{
			"inputs": [],
			"name": "getElectionName",
			"outputs": [
				{
					"internalType": "string",
					"name": "",
					"type": "string"
				}
			],
			"stateMutability": "view",
			"type": "function"
		},
		{
			"inputs": [],
			"name": "getLastRoot",
			"outputs": [
				{
					"internalType": "bytes32",
					"name": "",
					"type": "bytes32"
				}
			],
			"stateMutability": "view",
			"type": "function"
		},
		{
			"inputs": [
				{
					"internalType": "uint256",
					"name": "_candidateId",
					"type": "uint256"
				}
			],
			"name": "getOptionCounter",
			"outputs": [
				{
					"internalType": "uint256",
					"name": "",
					"type": "uint256"
				}
			],
			"stateMutability": "view",
			"type": "function"
		},
		{
			"inputs": [],
			"name": "getOwner",
			"outputs": [
				{
					"internalType": "address",
					"name": "",
					"type": "address"
				}
			],
			"stateMutability": "view",
			"type": "function"
		},
		{
			"inputs": [],
			"name": "getValidators",
			"outputs": [
				{
					"internalType": "address[]",
					"name": "",
					"type": "address[]"
				}
			],
			"stateMutability": "view",
			"type": "function"
		},
		{
			"inputs": [
				{
					"internalType": "uint256",
					"name": "_left",
					"type": "uint256"
				},
				{
					"internalType": "uint256",
					"name": "_right",
					"type": "uint256"
				}
			],
			"name": "hashLeftRight",
			"outputs": [
				{
					"internalType": "bytes32",
					"name": "",
					"type": "bytes32"
				}
			],
			"stateMutability": "view",
			"type": "function"
		},
		{
			"inputs": [],
			"name": "hasher",
			"outputs": [
				{
					"internalType": "contract IHasher",
					"name": "",
					"type": "address"
				}
			],
			"stateMutability": "view",
			"type": "function"
		},
		{
			"inputs": [
				{
					"internalType": "bytes32",
					"name": "_root",
					"type": "bytes32"
				}
			],
			"name": "isKnownRoot",
			"outputs": [
				{
					"internalType": "bool",
					"name": "",
					"type": "bool"
				}
			],
			"stateMutability": "view",
			"type": "function"
		},
		{
			"inputs": [
				{
					"internalType": "uint256",
					"name": "_uniqueHash",
					"type": "uint256"
				}
			],
			"name": "isVoterRegistered",
			"outputs": [
				{
					"internalType": "bool",
					"name": "",
					"type": "bool"
				}
			],
			"stateMutability": "view",
			"type": "function"
		},
		{
			"inputs": [],
			"name": "levels",
			"outputs": [
				{
					"internalType": "uint32",
					"name": "",
					"type": "uint32"
				}
			],
			"stateMutability": "view",
			"type": "function"
		},
		{
			"inputs": [],
			"name": "nextIndex",
			"outputs": [
				{
					"internalType": "uint32",
					"name": "",
					"type": "uint32"
				}
			],
			"stateMutability": "view",
			"type": "function"
		},
		{
			"inputs": [
				{
					"internalType": "bytes32",
					"name": "",
					"type": "bytes32"
				}
			],
			"name": "nullifiers",
			"outputs": [
				{
					"internalType": "bool",
					"name": "",
					"type": "bool"
				}
			],
			"stateMutability": "view",
			"type": "function"
		},
		{
			"inputs": [],
			"name": "numCandidates",
			"outputs": [
				{
					"internalType": "uint256",
					"name": "",
					"type": "uint256"
				}
			],
			"stateMutability": "view",
			"type": "function"
		},
		{
			"inputs": [],
			"name": "owner",
			"outputs": [
				{
					"internalType": "address",
					"name": "",
					"type": "address"
				}
			],
			"stateMutability": "view",
			"type": "function"
		},
		{
			"inputs": [
				{
					"internalType": "uint256",
					"name": "",
					"type": "uint256"
				}
			],
			"name": "pendingUniqueHashes",
			"outputs": [
				{
					"internalType": "uint256",
					"name": "",
					"type": "uint256"
				}
			],
			"stateMutability": "view",
			"type": "function"
		},
		{
			"inputs": [
				{
					"internalType": "uint256",
					"name": "_uniqueHash",
					"type": "uint256"
				},
				{
					"internalType": "uint256",
					"name": "_commitment",
					"type": "uint256"
				}
			],
			"name": "registerVoter",
			"outputs": [],
			"stateMutability": "nonpayable",
			"type": "function"
		},
		{
			"inputs": [],
			"name": "registrationEnd",
			"outputs": [
				{
					"internalType": "uint256",
					"name": "",
					"type": "uint256"
				}
			],
			"stateMutability": "view",
			"type": "function"
		},
		{
			"inputs": [],
			"name": "registrationStart",
			"outputs": [
				{
					"internalType": "uint256",
					"name": "",
					"type": "uint256"
				}
			],
			"stateMutability": "view",
			"type": "function"
		},
		{
			"inputs": [
				{
					"internalType": "uint256",
					"name": "",
					"type": "uint256"
				}
			],
			"name": "roots",
			"outputs": [
				{
					"internalType": "bytes32",
					"name": "",
					"type": "bytes32"
				}
			],
			"stateMutability": "view",
			"type": "function"
		},
		{
			"inputs": [
				{
					"internalType": "string",
					"name": "_newName",
					"type": "string"
				}
			],
			"name": "setElectionName",
			"outputs": [],
			"stateMutability": "nonpayable",
			"type": "function"
		},
		{
			"inputs": [
				{
					"internalType": "uint256",
					"name": "_start",
					"type": "uint256"
				},
				{
					"internalType": "uint256",
					"name": "_end",
					"type": "uint256"
				}
			],
			"name": "setRegistrationPeriod",
			"outputs": [],
			"stateMutability": "nonpayable",
			"type": "function"
		},
		{
			"inputs": [
				{
					"internalType": "uint256",
					"name": "_start",
					"type": "uint256"
				},
				{
					"internalType": "uint256",
					"name": "_end",
					"type": "uint256"
				}
			],
			"name": "setVotingPeriod",
			"outputs": [],
			"stateMutability": "nonpayable",
			"type": "function"
		},
		{
			"inputs": [
				{
					"internalType": "uint256",
					"name": "",
					"type": "uint256"
				}
			],
			"name": "uniqueHashes",
			"outputs": [
				{
					"internalType": "bool",
					"name": "",
					"type": "bool"
				}
			],
			"stateMutability": "view",
			"type": "function"
		},
		{
			"inputs": [],
			"name": "verifier",
			"outputs": [
				{
					"internalType": "contract IVerifier",
					"name": "",
					"type": "address"
				}
			],
			"stateMutability": "view",
			"type": "function"
		},
		{
			"inputs": [
				{
					"internalType": "uint256",
					"name": "_candidateId",
					"type": "uint256"
				},
				{
					"internalType": "uint256",
					"name": "_nullifier",
					"type": "uint256"
				},
				{
					"internalType": "uint256",
					"name": "_root",
					"type": "uint256"
				},
				{
					"internalType": "uint256[2]",
					"name": "_proof_a",
					"type": "uint256[2]"
				},
				{
					"internalType": "uint256[2][2]",
					"name": "_proof_b",
					"type": "uint256[2][2]"
				},
				{
					"internalType": "uint256[2]",
					"name": "_proof_c",
					"type": "uint256[2]"
				}
			],
			"name": "vote",
			"outputs": [],
			"stateMutability": "nonpayable",
			"type": "function"
		},
		{
			"inputs": [],
			"name": "votingEnd",
			"outputs": [
				{
					"internalType": "uint256",
					"name": "",
					"type": "uint256"
				}
			],
			"stateMutability": "view",
			"type": "function"
		},
		{
			"inputs": [],
			"name": "votingStart",
			"outputs": [
				{
					"internalType": "uint256",
					"name": "",
					"type": "uint256"
				}
			],
			"stateMutability": "view",
			"type": "function"
		},
		{
			"inputs": [
				{
					"internalType": "uint256",
					"name": "i",
					"type": "uint256"
				}
			],
			"name": "zeros",
			"outputs": [
				{
					"internalType": "bytes32",
					"name": "",
					"type": "bytes32"
				}
			],
			"stateMutability": "pure",
			"type": "function"
		}
	]
}