{
	"data": {
		"bytecode": {
			"linkReferences": {},
			"object": "60c06040525f60035f6101000a81548163ffffffff021916908363ffffffff1602179055505f600360046101000a81548163ffffffff021916908363ffffffff160217905550348015610050575f5ffd5b50604051614dbf380380614dbf83398181016040528101906100729190610aeb565b86868682825f8263ffffffff16116100bf576040517f08c379a00000000000000000000000000000000000000000000000000000000081526004016100b690610c08565b60405180910390fd5b60208263ffffffff1610610108576040517f08c379a00000000000000000000000000000000000000000000000000000000081526004016100ff90610c70565b60405180910390fd5b815f5f6101000a81548163ffffffff021916908363ffffffff1602179055508073ffffffffffffffffffffffffffffffffffffffff1660808173ffffffffffffffffffffffffffffffffffffffff16815250505f5f90505b8263ffffffff168163ffffffff1610156101b1576101898163ffffffff1661035760201b60201c565b60015f8363ffffffff1681526020019081526020015f20819055508080600101915050610160565b506101d36001836101c29190610cbb565b63ffffffff1661035760201b60201c565b60025f5f81526020019081526020015f208190555050508073ffffffffffffffffffffffffffffffffffffffff1660a08173ffffffffffffffffffffffffffffffffffffffff1681525050505050828410610263576040517f08c379a000000000000000000000000000000000000000000000000000000000815260040161025a90610d62565b60405180910390fd5b8082106102a5576040517f08c379a000000000000000000000000000000000000000000000000000000000815260040161029c90610df0565b60405180910390fd5b818311156102e8576040517f08c379a00000000000000000000000000000000000000000000000000000000081526004016102df90610e7e565b60405180910390fd5b3360065f6101000a81548173ffffffffffffffffffffffffffffffffffffffff021916908373ffffffffffffffffffffffffffffffffffffffff1602179055505f60098190555083600b8190555082600c8190555081600d8190555080600e8190555050505050505050610f04565b5f5f8203610389577f2fe54c60d3acabf3343a35b6eba15db4821b340f76e741e2249685ed4899af6c5f1b90506109d0565b600182036103bb577f256a6135777eee2fd26f54b8b7037a25439d5235caee224154186d2b8a52e31d5f1b90506109d0565b600282036103ed577f1151949895e82ab19924de92c40a3d6f7bcb60d92b00504b8199613683f0c2005f1b90506109d0565b6003820361041f577f20121ee811489ff8d61f09fb89e313f14959a0f28bb428a20dba6b0b068b3bdb5f1b90506109d0565b60048203610451577f0a89ca6ffa14cc462cfedb842c30ed221a50a3d6bf022a6a57dc82ab24c157c95f1b90506109d0565b60058203610483577f24ca05c2b5cd42e890d6be94c68d0689f4f21c9cec9c0f13fe41d566dfb549595f1b90506109d0565b600682036104b5577f1ccb97c932565a92c60156bdba2d08f3bf1377464e025cee765679e604a7315c5f1b90506109d0565b600782036104e7577f19156fbd7d1a8bf5cba8909367de1b624534ebab4f0f79e003bccdd1b182bdb45f1b90506109d0565b60088203610519577f261af8c1f0912e465744641409f622d466c3920ac6e5ff37e36604cb11dfff805f1b90506109d0565b6009820361054a577e58459724ff6ca5a1652fcbc3e82b93895cf08e975b19beab3f54c217d1c0075f1b90506109d0565b600a820361057c577f1f04ef20dee48d39984d8eabe768a70eafa6310ad20849d4573c3c40c2ad1e305f1b90506109d0565b600b82036105ae577f1bea3dec5dab51567ce7e200a30f7ba6d4276aeaa53e2686f962a46c66d511e55f1b90506109d0565b600c82036105e0577f0ee0f941e2da4b9e31c3ca97a40d8fa9ce68d97c084177071b3cb46cd3372f0f5f1b90506109d0565b600d8203610612577f1ca9503e8935884501bbaf20be14eb4c46b89772c97b96e3b2ebf3a36a948bbd5f1b90506109d0565b600e8203610644577f133a80e30697cd55d8f7d4b0965b7be24057ba5dc3da898ee2187232446cb1085f1b90506109d0565b600f8203610676577f13e6d8fc88839ed76e182c2a779af5b2c0da9dd18c90427a644f7e148a6253b65f1b90506109d0565b601082036106a8577f1eb16b057a477f4bc8f572ea6bee39561098f78f15bfb3699dcbb7bd8db618545f1b90506109d0565b601182036106da577f0da2cb16a1ceaabf1c16b838f7a9e3f2a3a3088d9e0a6debaa748114620696ea5f1b90506109d0565b6012820361070c577f24a3b3d822420b14b5d8cb6c28a574f01e98ea9e940551d2ebd75cee12649f9d5f1b90506109d0565b6013820361073e577f198622acbd783d1b0d9064105b1fc8e4d8889de95c4c519b3f635809fe6afc055f1b90506109d0565b60148203610770577f29d7ed391256ccc3ea596c86e933b89ff339d25ea8ddced975ae2fe30b5296d45f1b90506109d0565b601582036107a2577f19be59f2f0413ce78c0c3703a3a5451b1d7f39629fa33abd11548a76065b29675f1b90506109d0565b601682036107d4577f1ff3f61797e538b70e619310d33f2a063e7eb59104e112e95738da1254dc34535f1b90506109d0565b60178203610806577f10c16ae9959cf8358980d9dd9616e48228737310a10e2b6b731c1a548f036c485f1b90506109d0565b60188203610838577f0ba433a63174a90ac20992e75e3095496812b652685b5e1a2eae0b1bf4e8fcd15f1b90506109d0565b6019820361086a577f019ddb9df2bc98d987d0dfeca9d2b643deafab8f7036562e627c3667266a044c5f1b90506109d0565b601a820361089c577f2d3c88b23175c5a5565db928414c66d1912b11acf974b2e644caaac04739ce995f1b90506109d0565b601b82036108ce577f2eab55f6ae4e66e32c5189eed5c470840863445760f5ed7e7b69b2a62600f3545f1b90506109d0565b601c82036108ff577e2df37a2642621802383cf952bf4dd1f32e05433beeb1fd41031fb7eace979d5f1b90506109d0565b601d8203610931577f104aeb41435db66c3e62feccc1d6f5d98d0a0ed75d1374db457cf462e3a1f4275f1b90506109d0565b601e8203610963577f1f3c6fd858e9a7d4b0d1f38e256a09d81d5a5e3c963987e2d4b814cfab7c6ebb5f1b90506109d0565b601f8203610995577f2c7a07d20dff79d01fecedc1134284a8d08436606c93693b67e333f671bf69cc5f1b90506109d0565b6040517f08c379a00000000000000000000000000000000000000000000000000000000081526004016109c790610ee6565b60405180910390fd5b919050565b5f5ffd5b5f63ffffffff82169050919050565b6109f1816109d9565b81146109fb575f5ffd5b50565b5f81519050610a0c816109e8565b92915050565b5f73ffffffffffffffffffffffffffffffffffffffff82169050919050565b5f610a3b82610a12565b9050919050565b5f610a4c82610a31565b9050919050565b610a5c81610a42565b8114610a66575f5ffd5b50565b5f81519050610a7781610a53565b92915050565b5f610a8782610a31565b9050919050565b610a9781610a7d565b8114610aa1575f5ffd5b50565b5f81519050610ab281610a8e565b92915050565b5f819050919050565b610aca81610ab8565b8114610ad4575f5ffd5b50565b5f81519050610ae581610ac1565b92915050565b5f5f5f5f5f5f5f60e0888a031215610b0657610b056109d5565b5b5f610b138a828b016109fe565b9750506020610b248a828b01610a69565b9650506040610b358a828b01610aa4565b9550506060610b468a828b01610ad7565b9450506080610b578a828b01610ad7565b93505060a0610b688a828b01610ad7565b92505060c0610b798a828b01610ad7565b91505092959891949750929550565b5f82825260208201905092915050565b7f5f6c6576656c732073686f756c642062652067726561746572207468616e207a5f8201527f65726f0000000000000000000000000000000000000000000000000000000000602082015250565b5f610bf2602383610b88565b9150610bfd82610b98565b604082019050919050565b5f6020820190508181035f830152610c1f81610be6565b9050919050565b7f5f6c6576656c732073686f756c64206265206c657373207468616e20333200005f82015250565b5f610c5a601e83610b88565b9150610c6582610c26565b602082019050919050565b5f6020820190508181035f830152610c8781610c4e565b9050919050565b7f4e487b71000000000000000000000000000000000000000000000000000000005f52601160045260245ffd5b5f610cc5826109d9565b9150610cd0836109d9565b9250828203905063ffffffff811115610cec57610ceb610c8e565b5b92915050565b7f526567697374726174696f6e207374617274206d757374206265206265666f725f8201527f6520656e642074696d6500000000000000000000000000000000000000000000602082015250565b5f610d4c602a83610b88565b9150610d5782610cf2565b604082019050919050565b5f6020820190508181035f830152610d7981610d40565b9050919050565b7f566f74696e67207374617274206d757374206265206265666f726520656e64205f8201527f74696d6500000000000000000000000000000000000000000000000000000000602082015250565b5f610dda602483610b88565b9150610de582610d80565b604082019050919050565b5f6020820190508181035f830152610e0781610dce565b9050919050565b7f526567697374726174696f6e206d75737420656e64206265666f726520766f745f8201527f696e672073746172747300000000000000000000000000000000000000000000602082015250565b5f610e68602a83610b88565b9150610e7382610e0e565b604082019050919050565b5f6020820190508181035f830152610e9581610e5c565b9050919050565b7f496e646578206f7574206f6620626f756e6473000000000000000000000000005f82015250565b5f610ed0601383610b88565b9150610edb82610e9c565b602082019050919050565b5f6020820190508181035f830152610efd81610ec4565b9050919050565b60805160a051613e85610f3a5f395f81816108f9015261206b01525f8181610cfa01528181610dd10152611ea50152613e855ff3fe608060405234801561000f575f5ffd5b5060043610610225575f3560e01c80638bb2fb751161012e578063c1b1f732116100b6578063e82955881161007a578063e8295588146106a7578063ec732959146106d7578063ed33639f146106f5578063f178e47c14610713578063fc7e9c6f1461074357610225565b8063c1b1f732146105dd578063c2b40ae41461060d578063cd87a3b41461063d578063ce8f63771461065b578063d290a3cf1461067757610225565b8063a15a36c7116100fd578063a15a36c71461054b578063b4062a3114610567578063b7ab4db514610585578063ba70f757146105a3578063be00d6a1146105c157610225565b80638bb2fb75146104c35780638da5cb5b146104df57806390eeb02b146104fd578063955e03771461051b57610225565b80634ecf518b116101b15780636d3cba61116101805780636d3cba61146103f75780636d9833e314610427578063839df9451461045757806385a3863514610487578063893d20e8146104a557610225565b80634ecf518b1461036f5780635216509a1461038d5780635bb93995146103ab5780635e559ea1146103db57610225565b80632b7ac3f3116101f85780632b7ac3f3146102b15780632e6997fe146102cf57806332bcce08146102ee5780633477ee2e1461031e578063414a37ba1461035157610225565b8063101158af1461022957806313446a75146102475780631e620cd4146102655780632997e86b14610281575b5f5ffd5b610231610761565b60405161023e91906123ef565b60405180910390f35b61024f610767565b60405161025c91906123ef565b60405180910390f35b61027f600480360381019061027a9190612443565b61076d565b005b61029b600480360381019061029691906124a1565b6108da565b6040516102a891906124e6565b60405180910390f35b6102b96108f7565b6040516102c69190612579565b60405180910390f35b6102d761091b565b6040516102e59291906126bd565b60405180910390f35b61030860048036038101906103039190612443565b610af3565b60405161031591906123ef565b60405180910390f35b61033860048036038101906103339190612443565b610b08565b6040516103489493929190612755565b60405180910390f35b610359610bed565b60405161036691906123ef565b60405180910390f35b610377610c11565b60405161038491906127bd565b60405180910390f35b610395610c25565b6040516103a291906123ef565b60405180910390f35b6103c560048036038101906103c091906127d6565b610c2b565b6040516103d29190612823565b60405180910390f35b6103f560048036038101906103f09190612992565b610e7f565b005b610411600480360381019061040c9190612443565b611086565b60405161041e91906124e6565b60405180910390f35b610441600480360381019061043c91906124a1565b6110ac565b60405161044e91906124e6565b60405180910390f35b610471600480360381019061046c91906124a1565b61113f565b60405161047e91906124e6565b60405180910390f35b61048f61115c565b60405161049c91906123ef565b60405180910390f35b6104ad611162565b6040516104ba9190612a0c565b60405180910390f35b6104dd60048036038101906104d891906127d6565b61118a565b005b6104e761126d565b6040516104f49190612a0c565b60405180910390f35b610505611292565b60405161051291906127bd565b60405180910390f35b61053560048036038101906105309190612443565b6112a7565b60405161054291906123ef565b60405180910390f35b610565600480360381019061056091906127d6565b6112e1565b005b61056f6113c4565b60405161057c91906123ef565b60405180910390f35b61058d6113ca565b60405161059a9190612adc565b60405180910390f35b6105ab611455565b6040516105b89190612823565b60405180910390f35b6105db60048036038101906105d691906127d6565b611484565b005b6105f760048036038101906105f29190612443565b61163b565b60405161060491906124e6565b60405180910390f35b61062760048036038101906106229190612443565b611658565b6040516106349190612823565b60405180910390f35b61064561166d565b60405161065291906127bd565b60405180910390f35b61067560048036038101906106709190612c5c565b611672565b005b610691600480360381019061068c9190612443565b6117e1565b60405161069e91906123ef565b60405180910390f35b6106c160048036038101906106bc9190612443565b611801565b6040516106ce9190612823565b60405180910390f35b6106df611e7f565b6040516106ec91906123ef565b60405180910390f35b6106fd611ea3565b60405161070a9190612d07565b60405180910390f35b61072d60048036038101906107289190612443565b611ec7565b60405161073a9190612823565b60405180910390f35b61074b611edc565b60405161075891906127bd565b60405180910390f35b600d5481565b600c5481565b60065f9054906101000a900473ffffffffffffffffffffffffffffffffffffffff1673ffffffffffffffffffffffffffffffffffffffff163373ffffffffffffffffffffffffffffffffffffffff16146107fc576040517f08c379a00000000000000000000000000000000000000000000000000000000081526004016107f390612d90565b60405180910390fd5b6009548110610840576040517f08c379a000000000000000000000000000000000000000000000000000000000815260040161083790612df8565b60405180910390fd5b600a5f8281526020019081526020015f205f5f82015f6101000a81549067ffffffffffffffff0219169055600182015f61087a919061237f565b600282015f6101000a81549067ffffffffffffffff02191690556002820160086101000a81549060ff02191690555050807f5768df5843e58ec5b2fc92eb6ef81241e9ec50a0b93fd074dec58b39efc4172060405160405180910390a250565b6004602052805f5260405f205f915054906101000a900460ff1681565b7f000000000000000000000000000000000000000000000000000000000000000081565b5f60605f60095467ffffffffffffffff81111561093b5761093a61286e565b5b6040519080825280602002602001820160405280156109695781602001602082028036833780820191505090505b5090505f60095467ffffffffffffffff8111156109895761098861286e565b5b6040519080825280602002602001820160405280156109bc57816020015b60608152602001906001900390816109a75790505b5090505f5f90505b600954811015610ae457600a5f8281526020019081526020015f205f015f9054906101000a900467ffffffffffffffff1667ffffffffffffffff16838281518110610a1257610a11612e16565b5b602002602001018181525050600a5f8281526020019081526020015f206001018054610a3d90612e70565b80601f0160208091040260200160405190810160405280929190818152602001828054610a6990612e70565b8015610ab45780601f10610a8b57610100808354040283529160200191610ab4565b820191905f5260205f20905b815481529060010190602001808311610a9757829003601f168201915b5050505050828281518110610acc57610acb612e16565b5b602002602001018190525080806001019150506109c4565b50600954819350935050509091565b6008602052805f5260405f205f915090505481565b600a602052805f5260405f205f91509050805f015f9054906101000a900467ffffffffffffffff1690806001018054610b4090612e70565b80601f0160208091040260200160405190810160405280929190818152602001828054610b6c90612e70565b8015610bb75780601f10610b8e57610100808354040283529160200191610bb7565b820191905f5260205f20905b815481529060010190602001808311610b9a57829003601f168201915b505050505090806002015f9054906101000a900467ffffffffffffffff16908060020160089054906101000a900460ff16905084565b7f30644e72e131a029b85045b68181585d2833e84879b9709143e1f593f000000181565b5f5f9054906101000a900463ffffffff1681565b60095481565b5f7f30644e72e131a029b85045b68181585d2833e84879b9709143e1f593f00000018310610c8e576040517f08c379a0000000000000000000000000000000000000000000000000000000008152600401610c8590612eea565b60405180910390fd5b7f30644e72e131a029b85045b68181585d2833e84879b9709143e1f593f00000018210610cf0576040517f08c379a0000000000000000000000000000000000000000000000000000000008152600401610ce790612f78565b60405180910390fd5b5f8390505f5f90507f000000000000000000000000000000000000000000000000000000000000000073ffffffffffffffffffffffffffffffffffffffff16633f1a118783835f6040518463ffffffff1660e01b8152600401610d5593929190612fcf565b6040805180830381865afa158015610d6f573d5f5f3e3d5ffd5b505050506040513d601f19601f82011682018060405250810190610d939190613018565b80925081935050507f30644e72e131a029b85045b68181585d2833e84879b9709143e1f593f000000180610dca57610dc9613056565b5b84830891507f000000000000000000000000000000000000000000000000000000000000000073ffffffffffffffffffffffffffffffffffffffff16633f1a118783835f6040518463ffffffff1660e01b8152600401610e2c93929190612fcf565b6040805180830381865afa158015610e46573d5f5f3e3d5ffd5b505050506040513d601f19601f82011682018060405250810190610e6a9190613018565b8092508193505050815f1b9250505092915050565b60065f9054906101000a900473ffffffffffffffffffffffffffffffffffffffff1673ffffffffffffffffffffffffffffffffffffffff163373ffffffffffffffffffffffffffffffffffffffff1614610f0e576040517f08c379a0000000000000000000000000000000000000000000000000000000008152600401610f0590612d90565b60405180910390fd5b601481511115610f53576040517f08c379a0000000000000000000000000000000000000000000000000000000008152600401610f4a906130f3565b60405180910390fd5b60405180608001604052808367ffffffffffffffff1681526020018281526020015f67ffffffffffffffff16815260200160011515815250600a5f60095481526020019081526020015f205f820151815f015f6101000a81548167ffffffffffffffff021916908367ffffffffffffffff1602179055506020820151816001019081610fdf91906132a8565b506040820151816002015f6101000a81548167ffffffffffffffff021916908367ffffffffffffffff16021790555060608201518160020160086101000a81548160ff0219169083151502179055509050506009547fe83b2a43e7e82d975c8a0a6d2f045153c869e111136a34d1889ab7b598e396a3826040516110639190613377565b60405180910390a260095f81548092919061107d906133c4565b91905055505050565b5f60075f8381526020019081526020015f205f9054906101000a900460ff169050919050565b5f5f5f1b82036110be575f905061113a565b5f60035f9054906101000a900463ffffffff1690505f8190505b60025f8263ffffffff1681526020019081526020015f205484036111015760019250505061113a565b5f8163ffffffff160361111357601e90505b808061111e9061340b565b9150508163ffffffff168163ffffffff16036110d8575f925050505b919050565b6005602052805f5260405f205f915054906101000a900460ff1681565b600e5481565b5f60065f9054906101000a900473ffffffffffffffffffffffffffffffffffffffff16905090565b60065f9054906101000a900473ffffffffffffffffffffffffffffffffffffffff1673ffffffffffffffffffffffffffffffffffffffff163373ffffffffffffffffffffffffffffffffffffffff1614611219576040517f08c379a000000000000000000000000000000000000000000000000000000000815260040161121090612d90565b60405180910390fd5b80821061125b576040517f08c379a0000000000000000000000000000000000000000000000000000000008152600401611252906134a2565b60405180910390fd5b81600b8190555080600c819055505050565b60065f9054906101000a900473ffffffffffffffffffffffffffffffffffffffff1681565b60035f9054906101000a900463ffffffff1681565b5f600a5f8381526020019081526020015f206002015f9054906101000a900467ffffffffffffffff1667ffffffffffffffff169050919050565b60065f9054906101000a900473ffffffffffffffffffffffffffffffffffffffff1673ffffffffffffffffffffffffffffffffffffffff163373ffffffffffffffffffffffffffffffffffffffff1614611370576040517f08c379a000000000000000000000000000000000000000000000000000000000815260040161136790612d90565b60405180910390fd5b8082106113b2576040517f08c379a00000000000000000000000000000000000000000000000000000000081526004016113a9906134a2565b60405180910390fd5b81600d8190555080600e819055505050565b600b5481565b6060601080548060200260200160405190810160405280929190818152602001828054801561144b57602002820191905f5260205f20905b815f9054906101000a900473ffffffffffffffffffffffffffffffffffffffff1673ffffffffffffffffffffffffffffffffffffffff1681526020019060010190808311611402575b5050505050905090565b5f60025f60035f9054906101000a900463ffffffff1663ffffffff1681526020019081526020015f2054905090565b60065f9054906101000a900473ffffffffffffffffffffffffffffffffffffffff1673ffffffffffffffffffffffffffffffffffffffff163373ffffffffffffffffffffffffffffffffffffffff1614611513576040517f08c379a000000000000000000000000000000000000000000000000000000000815260040161150a90612d90565b60405180910390fd5b600b5442101580156115275750600c544211155b611566576040517f08c379a000000000000000000000000000000000000000000000000000000000815260040161155d90613530565b60405180910390fd5b60075f8381526020019081526020015f205f9054906101000a900460ff16156115c4576040517f08c379a00000000000000000000000000000000000000000000000000000000081526004016115bb906135be565b60405180910390fd5b600160075f8481526020019081526020015f205f6101000a81548160ff0219169083151502179055508060085f8481526020019081526020015f208190555061160e815f1b611ef2565b600160075f8481526020019081526020015f205f6101000a81548160ff0219169083151502179055505050565b6007602052805f5260405f205f915054906101000a900460ff1681565b6002602052805f5260405f205f915090505481565b601e81565b600d5442101580156116865750600e544211155b6116c5576040517f08c379a00000000000000000000000000000000000000000000000000000000081526004016116bc90613626565b60405180910390fd5b6009548610611709576040517f08c379a00000000000000000000000000000000000000000000000000000000081526004016117009061368e565b60405180910390fd5b600a5f8781526020019081526020015f2060020160089054906101000a900460ff1661176a576040517f08c379a0000000000000000000000000000000000000000000000000000000008152600401611761906136f6565b60405180910390fd5b61177b855f1b855f1b858585611fc3565b600a5f8781526020019081526020015f206002015f81819054906101000a900467ffffffffffffffff16809291906117b290613714565b91906101000a81548167ffffffffffffffff021916908367ffffffffffffffff16021790555050505050505050565b600f81815481106117f0575f80fd5b905f5260205f20015f915090505481565b5f5f8203611833577f2fe54c60d3acabf3343a35b6eba15db4821b340f76e741e2249685ed4899af6c5f1b9050611e7a565b60018203611865577f256a6135777eee2fd26f54b8b7037a25439d5235caee224154186d2b8a52e31d5f1b9050611e7a565b60028203611897577f1151949895e82ab19924de92c40a3d6f7bcb60d92b00504b8199613683f0c2005f1b9050611e7a565b600382036118c9577f20121ee811489ff8d61f09fb89e313f14959a0f28bb428a20dba6b0b068b3bdb5f1b9050611e7a565b600482036118fb577f0a89ca6ffa14cc462cfedb842c30ed221a50a3d6bf022a6a57dc82ab24c157c95f1b9050611e7a565b6005820361192d577f24ca05c2b5cd42e890d6be94c68d0689f4f21c9cec9c0f13fe41d566dfb549595f1b9050611e7a565b6006820361195f577f1ccb97c932565a92c60156bdba2d08f3bf1377464e025cee765679e604a7315c5f1b9050611e7a565b60078203611991577f19156fbd7d1a8bf5cba8909367de1b624534ebab4f0f79e003bccdd1b182bdb45f1b9050611e7a565b600882036119c3577f261af8c1f0912e465744641409f622d466c3920ac6e5ff37e36604cb11dfff805f1b9050611e7a565b600982036119f4577e58459724ff6ca5a1652fcbc3e82b93895cf08e975b19beab3f54c217d1c0075f1b9050611e7a565b600a8203611a26577f1f04ef20dee48d39984d8eabe768a70eafa6310ad20849d4573c3c40c2ad1e305f1b9050611e7a565b600b8203611a58577f1bea3dec5dab51567ce7e200a30f7ba6d4276aeaa53e2686f962a46c66d511e55f1b9050611e7a565b600c8203611a8a577f0ee0f941e2da4b9e31c3ca97a40d8fa9ce68d97c084177071b3cb46cd3372f0f5f1b9050611e7a565b600d8203611abc577f1ca9503e8935884501bbaf20be14eb4c46b89772c97b96e3b2ebf3a36a948bbd5f1b9050611e7a565b600e8203611aee577f133a80e30697cd55d8f7d4b0965b7be24057ba5dc3da898ee2187232446cb1085f1b9050611e7a565b600f8203611b20577f13e6d8fc88839ed76e182c2a779af5b2c0da9dd18c90427a644f7e148a6253b65f1b9050611e7a565b60108203611b52577f1eb16b057a477f4bc8f572ea6bee39561098f78f15bfb3699dcbb7bd8db618545f1b9050611e7a565b60118203611b84577f0da2cb16a1ceaabf1c16b838f7a9e3f2a3a3088d9e0a6debaa748114620696ea5f1b9050611e7a565b60128203611bb6577f24a3b3d822420b14b5d8cb6c28a574f01e98ea9e940551d2ebd75cee12649f9d5f1b9050611e7a565b60138203611be8577f198622acbd783d1b0d9064105b1fc8e4d8889de95c4c519b3f635809fe6afc055f1b9050611e7a565b60148203611c1a577f29d7ed391256ccc3ea596c86e933b89ff339d25ea8ddced975ae2fe30b5296d45f1b9050611e7a565b60158203611c4c577f19be59f2f0413ce78c0c3703a3a5451b1d7f39629fa33abd11548a76065b29675f1b9050611e7a565b60168203611c7e577f1ff3f61797e538b70e619310d33f2a063e7eb59104e112e95738da1254dc34535f1b9050611e7a565b60178203611cb0577f10c16ae9959cf8358980d9dd9616e48228737310a10e2b6b731c1a548f036c485f1b9050611e7a565b60188203611ce2577f0ba433a63174a90ac20992e75e3095496812b652685b5e1a2eae0b1bf4e8fcd15f1b9050611e7a565b60198203611d14577f019ddb9df2bc98d987d0dfeca9d2b643deafab8f7036562e627c3667266a044c5f1b9050611e7a565b601a8203611d46577f2d3c88b23175c5a5565db928414c66d1912b11acf974b2e644caaac04739ce995f1b9050611e7a565b601b8203611d78577f2eab55f6ae4e66e32c5189eed5c470840863445760f5ed7e7b69b2a62600f3545f1b9050611e7a565b601c8203611da9577e2df37a2642621802383cf952bf4dd1f32e05433beeb1fd41031fb7eace979d5f1b9050611e7a565b601d8203611ddb577f104aeb41435db66c3e62feccc1d6f5d98d0a0ed75d1374db457cf462e3a1f4275f1b9050611e7a565b601e8203611e0d577f1f3c6fd858e9a7d4b0d1f38e256a09d81d5a5e3c963987e2d4b814cfab7c6ebb5f1b9050611e7a565b601f8203611e3f577f2c7a07d20dff79d01fecedc1134284a8d08436606c93693b67e333f671bf69cc5f1b9050611e7a565b6040517f08c379a0000000000000000000000000000000000000000000000000000000008152600401611e719061378d565b60405180910390fd5b919050565b7f2fe54c60d3acabf3343a35b6eba15db4821b340f76e741e2249685ed4899af6c81565b7f000000000000000000000000000000000000000000000000000000000000000081565b6001602052805f5260405f205f915090505481565b600360049054906101000a900463ffffffff1681565b60055f8281526020019081526020015f205f9054906101000a900460ff1615611f50576040517f08c379a0000000000000000000000000000000000000000000000000000000008152600401611f479061381b565b60405180910390fd5b600160055f8381526020019081526020015f205f6101000a81548160ff0219169083151502179055505f611f838261218e565b9050817f401999886e5f90a91b92a0bfb7e2d48f714651a4d1c929bb3a753525ba066b918242604051611fb7929190613839565b60405180910390a25050565b60045f8681526020019081526020015f205f9054906101000a900460ff1615612021576040517f08c379a0000000000000000000000000000000000000000000000000000000008152600401612018906138aa565b60405180910390fd5b61202a846110ac565b612069576040517f08c379a000000000000000000000000000000000000000000000000000000000815260040161206090613912565b60405180910390fd5b7f000000000000000000000000000000000000000000000000000000000000000073ffffffffffffffffffffffffffffffffffffffff1663f5c9d69e84848460405180604001604052808b5f1c81526020018a5f1c8152506040518563ffffffff1660e01b81526004016120e09493929190613acb565b602060405180830381865afa1580156120fb573d5f5f3e3d5ffd5b505050506040513d601f19601f8201168201806040525081019061211f9190613b3a565b61215e576040517f08c379a000000000000000000000000000000000000000000000000000000000815260040161215590613baf565b60405180910390fd5b600160045f8781526020019081526020015f205f6101000a81548160ff0219169083151502179055505050505050565b5f5f600360049054906101000a900463ffffffff1690505f5f9054906101000a900463ffffffff1660026121c29190613cfc565b63ffffffff168163ffffffff160361220f576040517f08c379a000000000000000000000000000000000000000000000000000000000815260040161220690613d9a565b60405180910390fd5b5f8190505f8490505f5f5f5f90505b5f5f9054906101000a900463ffffffff1663ffffffff168163ffffffff1610156122da575f6002866122509190613db8565b63ffffffff16036122905783925061226d8163ffffffff16611801565b91508360015f8363ffffffff1681526020019081526020015f20819055506122ae565b60015f8263ffffffff1681526020019081526020015f205492508391505b6122bc835f1c835f1c610c2b565b93506002856122cb9190613de8565b9450808060010191505061221e565b505f601e600160035f9054906101000a900463ffffffff166122fc9190613e18565b6123069190613db8565b90508060035f6101000a81548163ffffffff021916908363ffffffff1602179055508360025f8363ffffffff1681526020019081526020015f20819055506001866123519190613e18565b600360046101000a81548163ffffffff021916908363ffffffff160217905550859650505050505050919050565b50805461238b90612e70565b5f825580601f1061239c57506123b9565b601f0160209004905f5260205f20908101906123b891906123bc565b5b50565b5b808211156123d3575f815f9055506001016123bd565b5090565b5f819050919050565b6123e9816123d7565b82525050565b5f6020820190506124025f8301846123e0565b92915050565b5f604051905090565b5f5ffd5b5f5ffd5b612422816123d7565b811461242c575f5ffd5b50565b5f8135905061243d81612419565b92915050565b5f6020828403121561245857612457612411565b5b5f6124658482850161242f565b91505092915050565b5f819050919050565b6124808161246e565b811461248a575f5ffd5b50565b5f8135905061249b81612477565b92915050565b5f602082840312156124b6576124b5612411565b5b5f6124c38482850161248d565b91505092915050565b5f8115159050919050565b6124e0816124cc565b82525050565b5f6020820190506124f95f8301846124d7565b92915050565b5f73ffffffffffffffffffffffffffffffffffffffff82169050919050565b5f819050919050565b5f61254161253c612537846124ff565b61251e565b6124ff565b9050919050565b5f61255282612527565b9050919050565b5f61256382612548565b9050919050565b61257381612559565b82525050565b5f60208201905061258c5f83018461256a565b92915050565b5f81519050919050565b5f82825260208201905092915050565b5f819050602082019050919050565b5f81519050919050565b5f82825260208201905092915050565b8281835e5f83830152505050565b5f601f19601f8301169050919050565b5f6125fd826125bb565b61260781856125c5565b93506126178185602086016125d5565b612620816125e3565b840191505092915050565b5f61263683836125f3565b905092915050565b5f602082019050919050565b5f61265482612592565b61265e818561259c565b935083602082028501612670856125ac565b805f5b858110156126ab578484038952815161268c858261262b565b94506126978361263e565b925060208a01995050600181019050612673565b50829750879550505050505092915050565b5f6040820190506126d05f8301856123e0565b81810360208301526126e2818461264a565b90509392505050565b5f67ffffffffffffffff82169050919050565b612707816126eb565b82525050565b5f82825260208201905092915050565b5f612727826125bb565b612731818561270d565b93506127418185602086016125d5565b61274a816125e3565b840191505092915050565b5f6080820190506127685f8301876126fe565b818103602083015261277a818661271d565b905061278960408301856126fe565b61279660608301846124d7565b95945050505050565b5f63ffffffff82169050919050565b6127b78161279f565b82525050565b5f6020820190506127d05f8301846127ae565b92915050565b5f5f604083850312156127ec576127eb612411565b5b5f6127f98582860161242f565b925050602061280a8582860161242f565b9150509250929050565b61281d8161246e565b82525050565b5f6020820190506128365f830184612814565b92915050565b612845816126eb565b811461284f575f5ffd5b50565b5f813590506128608161283c565b92915050565b5f5ffd5b5f5ffd5b7f4e487b71000000000000000000000000000000000000000000000000000000005f52604160045260245ffd5b6128a4826125e3565b810181811067ffffffffffffffff821117156128c3576128c261286e565b5b80604052505050565b5f6128d5612408565b90506128e1828261289b565b919050565b5f67ffffffffffffffff821115612900576128ff61286e565b5b612909826125e3565b9050602081019050919050565b828183375f83830152505050565b5f612936612931846128e6565b6128cc565b9050828152602081018484840111156129525761295161286a565b5b61295d848285612916565b509392505050565b5f82601f83011261297957612978612866565b5b8135612989848260208601612924565b91505092915050565b5f5f604083850312156129a8576129a7612411565b5b5f6129b585828601612852565b925050602083013567ffffffffffffffff8111156129d6576129d5612415565b5b6129e285828601612965565b9150509250929050565b5f6129f6826124ff565b9050919050565b612a06816129ec565b82525050565b5f602082019050612a1f5f8301846129fd565b92915050565b5f81519050919050565b5f82825260208201905092915050565b5f819050602082019050919050565b612a57816129ec565b82525050565b5f612a688383612a4e565b60208301905092915050565b5f602082019050919050565b5f612a8a82612a25565b612a948185612a2f565b9350612a9f83612a3f565b805f5b83811015612acf578151612ab68882612a5d565b9750612ac183612a74565b925050600181019050612aa2565b5085935050505092915050565b5f6020820190508181035f830152612af48184612a80565b905092915050565b5f67ffffffffffffffff821115612b1657612b1561286e565b5b602082029050919050565b5f5ffd5b5f612b37612b3284612afc565b6128cc565b90508060208402830185811115612b5157612b50612b21565b5b835b81811015612b7a5780612b66888261242f565b845260208401935050602081019050612b53565b5050509392505050565b5f82601f830112612b9857612b97612866565b5b6002612ba5848285612b25565b91505092915050565b5f67ffffffffffffffff821115612bc857612bc761286e565b5b602082029050919050565b5f612be5612be084612bae565b6128cc565b90508060408402830185811115612bff57612bfe612b21565b5b835b81811015612c285780612c148882612b84565b845260208401935050604081019050612c01565b5050509392505050565b5f82601f830112612c4657612c45612866565b5b6002612c53848285612bd3565b91505092915050565b5f5f5f5f5f5f6101608789031215612c7757612c76612411565b5b5f612c8489828a0161242f565b9650506020612c9589828a0161242f565b9550506040612ca689828a0161242f565b9450506060612cb789828a01612b84565b93505060a0612cc889828a01612c32565b925050610120612cda89828a01612b84565b9150509295509295509295565b5f612cf182612548565b9050919050565b612d0181612ce7565b82525050565b5f602082019050612d1a5f830184612cf8565b92915050565b7f4f6e6c79206f776e65722063616e20706572666f726d207468697320616374695f8201527f6f6e210000000000000000000000000000000000000000000000000000000000602082015250565b5f612d7a60238361270d565b9150612d8582612d20565b604082019050919050565b5f6020820190508181035f830152612da781612d6e565b9050919050565b7f496e76616c69642063616e6469646174652049442100000000000000000000005f82015250565b5f612de260158361270d565b9150612ded82612dae565b602082019050919050565b5f6020820190508181035f830152612e0f81612dd6565b9050919050565b7f4e487b71000000000000000000000000000000000000000000000000000000005f52603260045260245ffd5b7f4e487b71000000000000000000000000000000000000000000000000000000005f52602260045260245ffd5b5f6002820490506001821680612e8757607f821691505b602082108103612e9a57612e99612e43565b5b50919050565b7f5f6c6566742073686f756c6420626520696e7369646520746865206669656c645f82015250565b5f612ed460208361270d565b9150612edf82612ea0565b602082019050919050565b5f6020820190508181035f830152612f0181612ec8565b9050919050565b7f5f72696768742073686f756c6420626520696e7369646520746865206669656c5f8201527f6400000000000000000000000000000000000000000000000000000000000000602082015250565b5f612f6260218361270d565b9150612f6d82612f08565b604082019050919050565b5f6020820190508181035f830152612f8f81612f56565b9050919050565b5f819050919050565b5f612fb9612fb4612faf84612f96565b61251e565b6123d7565b9050919050565b612fc981612f9f565b82525050565b5f606082019050612fe25f8301866123e0565b612fef60208301856123e0565b612ffc6040830184612fc0565b949350505050565b5f8151905061301281612419565b92915050565b5f5f6040838503121561302e5761302d612411565b5b5f61303b85828601613004565b925050602061304c85828601613004565b9150509250929050565b7f4e487b71000000000000000000000000000000000000000000000000000000005f52601260045260245ffd5b7f4e616d65206d7573742062652032302063686172616374657273206f72206c655f8201527f7373000000000000000000000000000000000000000000000000000000000000602082015250565b5f6130dd60228361270d565b91506130e882613083565b604082019050919050565b5f6020820190508181035f83015261310a816130d1565b9050919050565b5f819050815f5260205f209050919050565b5f6020601f8301049050919050565b5f82821b905092915050565b5f6008830261316d7fffffffffffffffffffffffffffffffffffffffffffffffffffffffffffffffff82613132565b6131778683613132565b95508019841693508086168417925050509392505050565b5f6131a96131a461319f846123d7565b61251e565b6123d7565b9050919050565b5f819050919050565b6131c28361318f565b6131d66131ce826131b0565b84845461313e565b825550505050565b5f5f905090565b6131ed6131de565b6131f88184846131b9565b505050565b5b8181101561321b576132105f826131e5565b6001810190506131fe565b5050565b601f8211156132605761323181613111565b61323a84613123565b81016020851015613249578190505b61325d61325585613123565b8301826131fd565b50505b505050565b5f82821c905092915050565b5f6132805f1984600802613265565b1980831691505092915050565b5f6132988383613271565b9150826002028217905092915050565b6132b1826125bb565b67ffffffffffffffff8111156132ca576132c961286e565b5b6132d48254612e70565b6132df82828561321f565b5f60209050601f831160018114613310575f84156132fe578287015190505b613308858261328d565b86555061336f565b601f19841661331e86613111565b5f5b8281101561334557848901518255600182019150602085019450602081019050613320565b86831015613362578489015161335e601f891682613271565b8355505b6001600288020188555050505b505050505050565b5f6020820190508181035f83015261338f818461271d565b905092915050565b7f4e487b71000000000000000000000000000000000000000000000000000000005f52601160045260245ffd5b5f6133ce826123d7565b91507fffffffffffffffffffffffffffffffffffffffffffffffffffffffffffffffff8203613400576133ff613397565b5b600182019050919050565b5f6134158261279f565b91505f820361342757613426613397565b5b600182039050919050565b7f53746172742074696d65206d757374206265206265666f726520656e642074695f8201527f6d65000000000000000000000000000000000000000000000000000000000000602082015250565b5f61348c60228361270d565b915061349782613432565b604082019050919050565b5f6020820190508181035f8301526134b981613480565b9050919050565b7f4e6f742077697468696e2074686520726567697374726174696f6e20706572695f8201527f6f64210000000000000000000000000000000000000000000000000000000000602082015250565b5f61351a60238361270d565b9150613525826134c0565b604082019050919050565b5f6020820190508181035f8301526135478161350e565b9050919050565b7f5468697320756e69717565206861736820697320616c726561647920757365645f8201527f2100000000000000000000000000000000000000000000000000000000000000602082015250565b5f6135a860218361270d565b91506135b38261354e565b604082019050919050565b5f6020820190508181035f8301526135d58161359c565b9050919050565b7f4e6f742077697468696e2074686520766f74696e6720706572696f64210000005f82015250565b5f613610601d8361270d565b915061361b826135dc565b602082019050919050565b5f6020820190508181035f83015261363d81613604565b9050919050565b7f496e76616c69642063616e6469646174652100000000000000000000000000005f82015250565b5f61367860128361270d565b915061368382613644565b602082019050919050565b5f6020820190508181035f8301526136a58161366c565b9050919050565b7f43616e64696461746520646f6573206e6f7420657869737421000000000000005f82015250565b5f6136e060198361270d565b91506136eb826136ac565b602082019050919050565b5f6020820190508181035f83015261370d816136d4565b9050919050565b5f61371e826126eb565b915067ffffffffffffffff820361373857613737613397565b5b600182019050919050565b7f496e646578206f7574206f6620626f756e6473000000000000000000000000005f82015250565b5f61377760138361270d565b915061378282613743565b602082019050919050565b5f6020820190508181035f8301526137a48161376b565b9050919050565b7f54686520636f6d6d69746d656e7420686173206265656e207375626d697474655f8201527f6400000000000000000000000000000000000000000000000000000000000000602082015250565b5f61380560218361270d565b9150613810826137ab565b604082019050919050565b5f6020820190508181035f830152613832816137f9565b9050919050565b5f60408201905061384c5f8301856127ae565b61385960208301846123e0565b9392505050565b7f546865206e756c6c696669657220686173206265656e207375626d69747465645f82015250565b5f61389460208361270d565b915061389f82613860565b602082019050919050565b5f6020820190508181035f8301526138c181613888565b9050919050565b7f43616e6e6f742066696e6420796f7572206d65726b6c6520726f6f74000000005f82015250565b5f6138fc601c8361270d565b9150613907826138c8565b602082019050919050565b5f6020820190508181035f830152613929816138f0565b9050919050565b5f60029050919050565b5f81905092915050565b5f819050919050565b613956816123d7565b82525050565b5f613967838361394d565b60208301905092915050565b5f602082019050919050565b61398881613930565b613992818461393a565b925061399d82613944565b805f5b838110156139cd5781516139b4878261395c565b96506139bf83613973565b9250506001810190506139a0565b505050505050565b5f60029050919050565b5f81905092915050565b5f819050919050565b5f81905092915050565b613a0581613930565b613a0f81846139f2565b9250613a1a82613944565b805f5b83811015613a4a578151613a31878261395c565b9650613a3c83613973565b925050600181019050613a1d565b505050505050565b5f613a5d83836139fc565b60408301905092915050565b5f602082019050919050565b613a7e816139d5565b613a8881846139df565b9250613a93826139e9565b805f5b83811015613ac3578151613aaa8782613a52565b9650613ab583613a69565b925050600181019050613a96565b505050505050565b5f61014082019050613adf5f83018761397f565b613aec6040830186613a75565b613af960c083018561397f565b613b0761010083018461397f565b95945050505050565b613b19816124cc565b8114613b23575f5ffd5b50565b5f81519050613b3481613b10565b92915050565b5f60208284031215613b4f57613b4e612411565b5b5f613b5c84828501613b26565b91505092915050565b7f496e76616c69642070726f6f66000000000000000000000000000000000000005f82015250565b5f613b99600d8361270d565b9150613ba482613b65565b602082019050919050565b5f6020820190508181035f830152613bc681613b8d565b9050919050565b5f8160011c9050919050565b5f5f8291508390505b6001851115613c2257808604811115613bfe57613bfd613397565b5b6001851615613c0d5780820291505b8081029050613c1b85613bcd565b9450613be2565b94509492505050565b5f82613c3a5760019050613cf5565b81613c47575f9050613cf5565b8160018114613c5d5760028114613c6757613c96565b6001915050613cf5565b60ff841115613c7957613c78613397565b5b8360020a915084821115613c9057613c8f613397565b5b50613cf5565b5060208310610133831016604e8410600b8410161715613ccb5782820a905083811115613cc657613cc5613397565b5b613cf5565b613cd88484846001613bd9565b92509050818404811115613cef57613cee613397565b5b81810290505b9392505050565b5f613d068261279f565b9150613d118361279f565b9250613d2263ffffffff8484613c2b565b905092915050565b7f4d65726b6c6520747265652069732066756c6c2e204e6f206d6f7265206c65615f8201527f7665732063616e20626520616464656400000000000000000000000000000000602082015250565b5f613d8460308361270d565b9150613d8f82613d2a565b604082019050919050565b5f6020820190508181035f830152613db181613d78565b9050919050565b5f613dc28261279f565b9150613dcd8361279f565b925082613ddd57613ddc613056565b5b828206905092915050565b5f613df28261279f565b9150613dfd8361279f565b925082613e0d57613e0c613056565b5b828204905092915050565b5f613e228261279f565b9150613e2d8361279f565b9250828201905063ffffffff811115613e4957613e48613397565b5b9291505056fea2646970667358221220bb556a0dd76b07b02755b64651a2dc8a65014882a8a62747c5f5e3f4f378156d64736f6c634300081b0033",
			"opcodes": "PUSH1 0xC0 PUSH1 0x40 MSTORE PUSH0 PUSH1 0x3 PUSH0 PUSH2 0x100 EXP DUP2 SLOAD DUP2 PUSH4 0xFFFFFFFF MUL NOT AND SWAP1 DUP4 PUSH4 0xFFFFFFFF AND MUL OR SWAP1 SSTORE POP PUSH0 PUSH1 0x3 PUSH1 0x4 PUSH2 0x100 EXP DUP2 SLOAD DUP2 PUSH4 0xFFFFFFFF MUL NOT AND SWAP1 DUP4 PUSH4 0xFFFFFFFF AND MUL OR SWAP1 SSTORE POP CALLVALUE DUP1 ISZERO PUSH2 0x50 JUMPI PUSH0 PUSH0 REVERT JUMPDEST POP PUSH1 0x40 MLOAD PUSH2 0x4DBF CODESIZE SUB DUP1 PUSH2 0x4DBF DUP4 CODECOPY DUP2 DUP2 ADD PUSH1 0x40 MSTORE DUP2 ADD SWAP1 PUSH2 0x72 SWAP2 SWAP1 PUSH2 0xAEB JUMP JUMPDEST DUP7 DUP7 DUP7 DUP3 DUP3 PUSH0 DUP3 PUSH4 0xFFFFFFFF AND GT PUSH2 0xBF JUMPI PUSH1 0x40 MLOAD PUSH32 0x8C379A000000000000000000000000000000000000000000000000000000000 DUP2 MSTORE PUSH1 0x4 ADD PUSH2 0xB6 SWAP1 PUSH2 0xC08 JUMP JUMPDEST PUSH1 0x40 MLOAD DUP1 SWAP2 SUB SWAP1 REVERT JUMPDEST PUSH1 0x20 DUP3 PUSH4 0xFFFFFFFF AND LT PUSH2 0x108 JUMPI PUSH1 0x40 MLOAD PUSH32 0x8C379A000000000000000000000000000000000000000000000000000000000 DUP2 MSTORE PUSH1 0x4 ADD PUSH2 0xFF SWAP1 PUSH2 0xC70 JUMP JUMPDEST PUSH1 0x40 MLOAD DUP1 SWAP2 SUB SWAP1 REVERT JUMPDEST DUP2 PUSH0 PUSH0 PUSH2 0x100 EXP DUP2 SLOAD DUP2 PUSH4 0xFFFFFFFF MUL NOT AND SWAP1 DUP4 PUSH4 0xFFFFFFFF AND MUL OR SWAP1 SSTORE POP DUP1 PUSH20 0xFFFFFFFFFFFFFFFFFFFFFFFFFFFFFFFFFFFFFFFF AND PUSH1 0x80 DUP2 PUSH20 0xFFFFFFFFFFFFFFFFFFFFFFFFFFFFFFFFFFFFFFFF AND DUP2 MSTORE POP POP PUSH0 PUSH0 SWAP1 POP JUMPDEST DUP3 PUSH4 0xFFFFFFFF AND DUP2 PUSH4 0xFFFFFFFF AND LT ISZERO PUSH2 0x1B1 JUMPI PUSH2 0x189 DUP2 PUSH4 0xFFFFFFFF AND PUSH2 0x357 PUSH1 0x20 SHL PUSH1 0x20 SHR JUMP JUMPDEST PUSH1 0x1 PUSH0 DUP4 PUSH4 0xFFFFFFFF AND DUP2 MSTORE PUSH1 0x20 ADD SWAP1 DUP2 MSTORE PUSH1 0x20 ADD PUSH0 KECCAK256 DUP2 SWAP1 SSTORE POP DUP1 DUP1 PUSH1 0x1 ADD SWAP2 POP POP PUSH2 0x160 JUMP JUMPDEST POP PUSH2 0x1D3 PUSH1 0x1 DUP4 PUSH2 0x1C2 SWAP2 SWAP1 PUSH2 0xCBB JUMP JUMPDEST PUSH4 0xFFFFFFFF AND PUSH2 0x357 PUSH1 0x20 SHL PUSH1 0x20 SHR JUMP JUMPDEST PUSH1 0x2 PUSH0 PUSH0 DUP2 MSTORE PUSH1 0x20 ADD SWAP1 DUP2 MSTORE PUSH1 0x20 ADD PUSH0 KECCAK256 DUP2 SWAP1 SSTORE POP POP POP DUP1 PUSH20 0xFFFFFFFFFFFFFFFFFFFFFFFFFFFFFFFFFFFFFFFF AND PUSH1 0xA0 DUP2 PUSH20 0xFFFFFFFFFFFFFFFFFFFFFFFFFFFFFFFFFFFFFFFF AND DUP2 MSTORE POP POP POP POP POP DUP3 DUP5 LT PUSH2 0x263 JUMPI PUSH1 0x40 MLOAD PUSH32 0x8C379A000000000000000000000000000000000000000000000000000000000 DUP2 MSTORE PUSH1 0x4 ADD PUSH2 0x25A SWAP1 PUSH2 0xD62 JUMP JUMPDEST PUSH1 0x40 MLOAD DUP1 SWAP2 SUB SWAP1 REVERT JUMPDEST DUP1 DUP3 LT PUSH2 0x2A5 JUMPI PUSH1 0x40 MLOAD PUSH32 0x8C379A000000000000000000000000000000000000000000000000000000000 DUP2 MSTORE PUSH1 0x4 ADD PUSH2 0x29C SWAP1 PUSH2 0xDF0 JUMP JUMPDEST PUSH1 0x40 MLOAD DUP1 SWAP2 SUB SWAP1 REVERT JUMPDEST DUP2 DUP4 GT ISZERO PUSH2 0x2E8 JUMPI PUSH1 0x40 MLOAD PUSH32 0x8C379A000000000000000000000000000000000000000000000000000000000 DUP2 MSTORE PUSH1 0x4 ADD PUSH2 0x2DF SWAP1 PUSH2 0xE7E JUMP JUMPDEST PUSH1 0x40 MLOAD DUP1 SWAP2 SUB SWAP1 REVERT JUMPDEST CALLER PUSH1 0x6 PUSH0 PUSH2 0x100 EXP DUP2 SLOAD DUP2 PUSH20 0xFFFFFFFFFFFFFFFFFFFFFFFFFFFFFFFFFFFFFFFF MUL NOT AND SWAP1 DUP4 PUSH20 0xFFFFFFFFFFFFFFFFFFFFFFFFFFFFFFFFFFFFFFFF AND MUL OR SWAP1 SSTORE POP PUSH0 PUSH1 0x9 DUP2 SWAP1 SSTORE POP DUP4 PUSH1 0xB DUP2 SWAP1 SSTORE POP DUP3 PUSH1 0xC DUP2 SWAP1 SSTORE POP DUP2 PUSH1 0xD DUP2 SWAP1 SSTORE POP DUP1 PUSH1 0xE DUP2 SWAP1 SSTORE POP POP POP POP POP POP POP POP PUSH2 0xF04 JUMP JUMPDEST PUSH0 PUSH0 DUP3 SUB PUSH2 0x389 JUMPI PUSH32 0x2FE54C60D3ACABF3343A35B6EBA15DB4821B340F76E741E2249685ED4899AF6C PUSH0 SHL SWAP1 POP PUSH2 0x9D0 JUMP JUMPDEST PUSH1 0x1 DUP3 SUB PUSH2 0x3BB JUMPI PUSH32 0x256A6135777EEE2FD26F54B8B7037A25439D5235CAEE224154186D2B8A52E31D PUSH0 SHL SWAP1 POP PUSH2 0x9D0 JUMP JUMPDEST PUSH1 0x2 DUP3 SUB PUSH2 0x3ED JUMPI PUSH32 0x1151949895E82AB19924DE92C40A3D6F7BCB60D92B00504B8199613683F0C200 PUSH0 SHL SWAP1 POP PUSH2 0x9D0 JUMP JUMPDEST PUSH1 0x3 DUP3 SUB PUSH2 0x41F JUMPI PUSH32 0x20121EE811489FF8D61F09FB89E313F14959A0F28BB428A20DBA6B0B068B3BDB PUSH0 SHL SWAP1 POP PUSH2 0x9D0 JUMP JUMPDEST PUSH1 0x4 DUP3 SUB PUSH2 0x451 JUMPI PUSH32 0xA89CA6FFA14CC462CFEDB842C30ED221A50A3D6BF022A6A57DC82AB24C157C9 PUSH0 SHL SWAP1 POP PUSH2 0x9D0 JUMP JUMPDEST PUSH1 0x5 DUP3 SUB PUSH2 0x483 JUMPI PUSH32 0x24CA05C2B5CD42E890D6BE94C68D0689F4F21C9CEC9C0F13FE41D566DFB54959 PUSH0 SHL SWAP1 POP PUSH2 0x9D0 JUMP JUMPDEST PUSH1 0x6 DUP3 SUB PUSH2 0x4B5 JUMPI PUSH32 0x1CCB97C932565A92C60156BDBA2D08F3BF1377464E025CEE765679E604A7315C PUSH0 SHL SWAP1 POP PUSH2 0x9D0 JUMP JUMPDEST PUSH1 0x7 DUP3 SUB PUSH2 0x4E7 JUMPI PUSH32 0x19156FBD7D1A8BF5CBA8909367DE1B624534EBAB4F0F79E003BCCDD1B182BDB4 PUSH0 SHL SWAP1 POP PUSH2 0x9D0 JUMP JUMPDEST PUSH1 0x8 DUP3 SUB PUSH2 0x519 JUMPI PUSH32 0x261AF8C1F0912E465744641409F622D466C3920AC6E5FF37E36604CB11DFFF80 PUSH0 SHL SWAP1 POP PUSH2 0x9D0 JUMP JUMPDEST PUSH1 0x9 DUP3 SUB PUSH2 0x54A JUMPI PUSH31 0x58459724FF6CA5A1652FCBC3E82B93895CF08E975B19BEAB3F54C217D1C007 PUSH0 SHL SWAP1 POP PUSH2 0x9D0 JUMP JUMPDEST PUSH1 0xA DUP3 SUB PUSH2 0x57C JUMPI PUSH32 0x1F04EF20DEE48D39984D8EABE768A70EAFA6310AD20849D4573C3C40C2AD1E30 PUSH0 SHL SWAP1 POP PUSH2 0x9D0 JUMP JUMPDEST PUSH1 0xB DUP3 SUB PUSH2 0x5AE JUMPI PUSH32 0x1BEA3DEC5DAB51567CE7E200A30F7BA6D4276AEAA53E2686F962A46C66D511E5 PUSH0 SHL SWAP1 POP PUSH2 0x9D0 JUMP JUMPDEST PUSH1 0xC DUP3 SUB PUSH2 0x5E0 JUMPI PUSH32 0xEE0F941E2DA4B9E31C3CA97A40D8FA9CE68D97C084177071B3CB46CD3372F0F PUSH0 SHL SWAP1 POP PUSH2 0x9D0 JUMP JUMPDEST PUSH1 0xD DUP3 SUB PUSH2 0x612 JUMPI PUSH32 0x1CA9503E8935884501BBAF20BE14EB4C46B89772C97B96E3B2EBF3A36A948BBD PUSH0 SHL SWAP1 POP PUSH2 0x9D0 JUMP JUMPDEST PUSH1 0xE DUP3 SUB PUSH2 0x644 JUMPI PUSH32 0x133A80E30697CD55D8F7D4B0965B7BE24057BA5DC3DA898EE2187232446CB108 PUSH0 SHL SWAP1 POP PUSH2 0x9D0 JUMP JUMPDEST PUSH1 0xF DUP3 SUB PUSH2 0x676 JUMPI PUSH32 0x13E6D8FC88839ED76E182C2A779AF5B2C0DA9DD18C90427A644F7E148A6253B6 PUSH0 SHL SWAP1 POP PUSH2 0x9D0 JUMP JUMPDEST PUSH1 0x10 DUP3 SUB PUSH2 0x6A8 JUMPI PUSH32 0x1EB16B057A477F4BC8F572EA6BEE39561098F78F15BFB3699DCBB7BD8DB61854 PUSH0 SHL SWAP1 POP PUSH2 0x9D0 JUMP JUMPDEST PUSH1 0x11 DUP3 SUB PUSH2 0x6DA JUMPI PUSH32 0xDA2CB16A1CEAABF1C16B838F7A9E3F2A3A3088D9E0A6DEBAA748114620696EA PUSH0 SHL SWAP1 POP PUSH2 0x9D0 JUMP JUMPDEST PUSH1 0x12 DUP3 SUB PUSH2 0x70C JUMPI PUSH32 0x24A3B3D822420B14B5D8CB6C28A574F01E98EA9E940551D2EBD75CEE12649F9D PUSH0 SHL SWAP1 POP PUSH2 0x9D0 JUMP JUMPDEST PUSH1 0x13 DUP3 SUB PUSH2 0x73E JUMPI PUSH32 0x198622ACBD783D1B0D9064105B1FC8E4D8889DE95C4C519B3F635809FE6AFC05 PUSH0 SHL SWAP1 POP PUSH2 0x9D0 JUMP JUMPDEST PUSH1 0x14 DUP3 SUB PUSH2 0x770 JUMPI PUSH32 0x29D7ED391256CCC3EA596C86E933B89FF339D25EA8DDCED975AE2FE30B5296D4 PUSH0 SHL SWAP1 POP PUSH2 0x9D0 JUMP JUMPDEST PUSH1 0x15 DUP3 SUB PUSH2 0x7A2 JUMPI PUSH32 0x19BE59F2F0413CE78C0C3703A3A5451B1D7F39629FA33ABD11548A76065B2967 PUSH0 SHL SWAP1 POP PUSH2 0x9D0 JUMP JUMPDEST PUSH1 0x16 DUP3 SUB PUSH2 0x7D4 JUMPI PUSH32 0x1FF3F61797E538B70E619310D33F2A063E7EB59104E112E95738DA1254DC3453 PUSH0 SHL SWAP1 POP PUSH2 0x9D0 JUMP JUMPDEST PUSH1 0x17 DUP3 SUB PUSH2 0x806 JUMPI PUSH32 0x10C16AE9959CF8358980D9DD9616E48228737310A10E2B6B731C1A548F036C48 PUSH0 SHL SWAP1 POP PUSH2 0x9D0 JUMP JUMPDEST PUSH1 0x18 DUP3 SUB PUSH2 0x838 JUMPI PUSH32 0xBA433A63174A90AC20992E75E3095496812B652685B5E1A2EAE0B1BF4E8FCD1 PUSH0 SHL SWAP1 POP PUSH2 0x9D0 JUMP JUMPDEST PUSH1 0x19 DUP3 SUB PUSH2 0x86A JUMPI PUSH32 0x19DDB9DF2BC98D987D0DFECA9D2B643DEAFAB8F7036562E627C3667266A044C PUSH0 SHL SWAP1 POP PUSH2 0x9D0 JUMP JUMPDEST PUSH1 0x1A DUP3 SUB PUSH2 0x89C JUMPI PUSH32 0x2D3C88B23175C5A5565DB928414C66D1912B11ACF974B2E644CAAAC04739CE99 PUSH0 SHL SWAP1 POP PUSH2 0x9D0 JUMP JUMPDEST PUSH1 0x1B DUP3 SUB PUSH2 0x8CE JUMPI PUSH32 0x2EAB55F6AE4E66E32C5189EED5C470840863445760F5ED7E7B69B2A62600F354 PUSH0 SHL SWAP1 POP PUSH2 0x9D0 JUMP JUMPDEST PUSH1 0x1C DUP3 SUB PUSH2 0x8FF JUMPI PUSH31 0x2DF37A2642621802383CF952BF4DD1F32E05433BEEB1FD41031FB7EACE979D PUSH0 SHL SWAP1 POP PUSH2 0x9D0 JUMP JUMPDEST PUSH1 0x1D DUP3 SUB PUSH2 0x931 JUMPI PUSH32 0x104AEB41435DB66C3E62FECCC1D6F5D98D0A0ED75D1374DB457CF462E3A1F427 PUSH0 SHL SWAP1 POP PUSH2 0x9D0 JUMP JUMPDEST PUSH1 0x1E DUP3 SUB PUSH2 0x963 JUMPI PUSH32 0x1F3C6FD858E9A7D4B0D1F38E256A09D81D5A5E3C963987E2D4B814CFAB7C6EBB PUSH0 SHL SWAP1 POP PUSH2 0x9D0 JUMP JUMPDEST PUSH1 0x1F DUP3 SUB PUSH2 0x995 JUMPI PUSH32 0x2C7A07D20DFF79D01FECEDC1134284A8D08436606C93693B67E333F671BF69CC PUSH0 SHL SWAP1 POP PUSH2 0x9D0 JUMP JUMPDEST PUSH1 0x40 MLOAD PUSH32 0x8C379A000000000000000000000000000000000000000000000000000000000 DUP2 MSTORE PUSH1 0x4 ADD PUSH2 0x9C7 SWAP1 PUSH2 0xEE6 JUMP JUMPDEST PUSH1 0x40 MLOAD DUP1 SWAP2 SUB SWAP1 REVERT JUMPDEST SWAP2 SWAP1 POP JUMP JUMPDEST PUSH0 PUSH0 REVERT JUMPDEST PUSH0 PUSH4 0xFFFFFFFF DUP3 AND SWAP1 POP SWAP2 SWAP1 POP JUMP JUMPDEST PUSH2 0x9F1 DUP2 PUSH2 0x9D9 JUMP JUMPDEST DUP2 EQ PUSH2 0x9FB JUMPI PUSH0 PUSH0 REVERT JUMPDEST POP JUMP JUMPDEST PUSH0 DUP2 MLOAD SWAP1 POP PUSH2 0xA0C DUP2 PUSH2 0x9E8 JUMP JUMPDEST SWAP3 SWAP2 POP POP JUMP JUMPDEST PUSH0 PUSH20 0xFFFFFFFFFFFFFFFFFFFFFFFFFFFFFFFFFFFFFFFF DUP3 AND SWAP1 POP SWAP2 SWAP1 POP JUMP JUMPDEST PUSH0 PUSH2 0xA3B DUP3 PUSH2 0xA12 JUMP JUMPDEST SWAP1 POP SWAP2 SWAP1 POP JUMP JUMPDEST PUSH0 PUSH2 0xA4C DUP3 PUSH2 0xA31 JUMP JUMPDEST SWAP1 POP SWAP2 SWAP1 POP JUMP JUMPDEST PUSH2 0xA5C DUP2 PUSH2 0xA42 JUMP JUMPDEST DUP2 EQ PUSH2 0xA66 JUMPI PUSH0 PUSH0 REVERT JUMPDEST POP JUMP JUMPDEST PUSH0 DUP2 MLOAD SWAP1 POP PUSH2 0xA77 DUP2 PUSH2 0xA53 JUMP JUMPDEST SWAP3 SWAP2 POP POP JUMP JUMPDEST PUSH0 PUSH2 0xA87 DUP3 PUSH2 0xA31 JUMP JUMPDEST SWAP1 POP SWAP2 SWAP1 POP JUMP JUMPDEST PUSH2 0xA97 DUP2 PUSH2 0xA7D JUMP JUMPDEST DUP2 EQ PUSH2 0xAA1 JUMPI PUSH0 PUSH0 REVERT JUMPDEST POP JUMP JUMPDEST PUSH0 DUP2 MLOAD SWAP1 POP PUSH2 0xAB2 DUP2 PUSH2 0xA8E JUMP JUMPDEST SWAP3 SWAP2 POP POP JUMP JUMPDEST PUSH0 DUP2 SWAP1 POP SWAP2 SWAP1 POP JUMP JUMPDEST PUSH2 0xACA DUP2 PUSH2 0xAB8 JUMP JUMPDEST DUP2 EQ PUSH2 0xAD4 JUMPI PUSH0 PUSH0 REVERT JUMPDEST POP JUMP JUMPDEST PUSH0 DUP2 MLOAD SWAP1 POP PUSH2 0xAE5 DUP2 PUSH2 0xAC1 JUMP JUMPDEST SWAP3 SWAP2 POP POP JUMP JUMPDEST PUSH0 PUSH0 PUSH0 PUSH0 PUSH0 PUSH0 PUSH0 PUSH1 0xE0 DUP9 DUP11 SUB SLT ISZERO PUSH2 0xB06 JUMPI PUSH2 0xB05 PUSH2 0x9D5 JUMP JUMPDEST JUMPDEST PUSH0 PUSH2 0xB13 DUP11 DUP3 DUP12 ADD PUSH2 0x9FE JUMP JUMPDEST SWAP8 POP POP PUSH1 0x20 PUSH2 0xB24 DUP11 DUP3 DUP12 ADD PUSH2 0xA69 JUMP JUMPDEST SWAP7 POP POP PUSH1 0x40 PUSH2 0xB35 DUP11 DUP3 DUP12 ADD PUSH2 0xAA4 JUMP JUMPDEST SWAP6 POP POP PUSH1 0x60 PUSH2 0xB46 DUP11 DUP3 DUP12 ADD PUSH2 0xAD7 JUMP JUMPDEST SWAP5 POP POP PUSH1 0x80 PUSH2 0xB57 DUP11 DUP3 DUP12 ADD PUSH2 0xAD7 JUMP JUMPDEST SWAP4 POP POP PUSH1 0xA0 PUSH2 0xB68 DUP11 DUP3 DUP12 ADD PUSH2 0xAD7 JUMP JUMPDEST SWAP3 POP POP PUSH1 0xC0 PUSH2 0xB79 DUP11 DUP3 DUP12 ADD PUSH2 0xAD7 JUMP JUMPDEST SWAP2 POP POP SWAP3 SWAP6 SWAP9 SWAP2 SWAP5 SWAP8 POP SWAP3 SWAP6 POP JUMP JUMPDEST PUSH0 DUP3 DUP3 MSTORE PUSH1 0x20 DUP3 ADD SWAP1 POP SWAP3 SWAP2 POP POP JUMP JUMPDEST PUSH32 0x5F6C6576656C732073686F756C642062652067726561746572207468616E207A PUSH0 DUP3 ADD MSTORE PUSH32 0x65726F0000000000000000000000000000000000000000000000000000000000 PUSH1 0x20 DUP3 ADD MSTORE POP JUMP JUMPDEST PUSH0 PUSH2 0xBF2 PUSH1 0x23 DUP4 PUSH2 0xB88 JUMP JUMPDEST SWAP2 POP PUSH2 0xBFD DUP3 PUSH2 0xB98 JUMP JUMPDEST PUSH1 0x40 DUP3 ADD SWAP1 POP SWAP2 SWAP1 POP JUMP JUMPDEST PUSH0 PUSH1 0x20 DUP3 ADD SWAP1 POP DUP2 DUP2 SUB PUSH0 DUP4 ADD MSTORE PUSH2 0xC1F DUP2 PUSH2 0xBE6 JUMP JUMPDEST SWAP1 POP SWAP2 SWAP1 POP JUMP JUMPDEST PUSH32 0x5F6C6576656C732073686F756C64206265206C657373207468616E2033320000 PUSH0 DUP3 ADD MSTORE POP JUMP JUMPDEST PUSH0 PUSH2 0xC5A PUSH1 0x1E DUP4 PUSH2 0xB88 JUMP JUMPDEST SWAP2 POP PUSH2 0xC65 DUP3 PUSH2 0xC26 JUMP JUMPDEST PUSH1 0x20 DUP3 ADD SWAP1 POP SWAP2 SWAP1 POP JUMP JUMPDEST PUSH0 PUSH1 0x20 DUP3 ADD SWAP1 POP DUP2 DUP2 SUB PUSH0 DUP4 ADD MSTORE PUSH2 0xC87 DUP2 PUSH2 0xC4E JUMP JUMPDEST SWAP1 POP SWAP2 SWAP1 POP JUMP JUMPDEST PUSH32 0x4E487B7100000000000000000000000000000000000000000000000000000000 PUSH0 MSTORE PUSH1 0x11 PUSH1 0x4 MSTORE PUSH1 0x24 PUSH0 REVERT JUMPDEST PUSH0 PUSH2 0xCC5 DUP3 PUSH2 0x9D9 JUMP JUMPDEST SWAP2 POP PUSH2 0xCD0 DUP4 PUSH2 0x9D9 JUMP JUMPDEST SWAP3 POP DUP3 DUP3 SUB SWAP1 POP PUSH4 0xFFFFFFFF DUP2 GT ISZERO PUSH2 0xCEC JUMPI PUSH2 0xCEB PUSH2 0xC8E JUMP JUMPDEST JUMPDEST SWAP3 SWAP2 POP POP JUMP JUMPDEST PUSH32 0x526567697374726174696F6E207374617274206D757374206265206265666F72 PUSH0 DUP3 ADD MSTORE PUSH32 0x6520656E642074696D6500000000000000000000000000000000000000000000 PUSH1 0x20 DUP3 ADD MSTORE POP JUMP JUMPDEST PUSH0 PUSH2 0xD4C PUSH1 0x2A DUP4 PUSH2 0xB88 JUMP JUMPDEST SWAP2 POP PUSH2 0xD57 DUP3 PUSH2 0xCF2 JUMP JUMPDEST PUSH1 0x40 DUP3 ADD SWAP1 POP SWAP2 SWAP1 POP JUMP JUMPDEST PUSH0 PUSH1 0x20 DUP3 ADD SWAP1 POP DUP2 DUP2 SUB PUSH0 DUP4 ADD MSTORE PUSH2 0xD79 DUP2 PUSH2 0xD40 JUMP JUMPDEST SWAP1 POP SWAP2 SWAP1 POP JUMP JUMPDEST PUSH32 0x566F74696E67207374617274206D757374206265206265666F726520656E6420 PUSH0 DUP3 ADD MSTORE PUSH32 0x74696D6500000000000000000000000000000000000000000000000000000000 PUSH1 0x20 DUP3 ADD MSTORE POP JUMP JUMPDEST PUSH0 PUSH2 0xDDA PUSH1 0x24 DUP4 PUSH2 0xB88 JUMP JUMPDEST SWAP2 POP PUSH2 0xDE5 DUP3 PUSH2 0xD80 JUMP JUMPDEST PUSH1 0x40 DUP3 ADD SWAP1 POP SWAP2 SWAP1 POP JUMP JUMPDEST PUSH0 PUSH1 0x20 DUP3 ADD SWAP1 POP DUP2 DUP2 SUB PUSH0 DUP4 ADD MSTORE PUSH2 0xE07 DUP2 PUSH2 0xDCE JUMP JUMPDEST SWAP1 POP SWAP2 SWAP1 POP JUMP JUMPDEST PUSH32 0x526567697374726174696F6E206D75737420656E64206265666F726520766F74 PUSH0 DUP3 ADD MSTORE PUSH32 0x696E672073746172747300000000000000000000000000000000000000000000 PUSH1 0x20 DUP3 ADD MSTORE POP JUMP JUMPDEST PUSH0 PUSH2 0xE68 PUSH1 0x2A DUP4 PUSH2 0xB88 JUMP JUMPDEST SWAP2 POP PUSH2 0xE73 DUP3 PUSH2 0xE0E JUMP JUMPDEST PUSH1 0x40 DUP3 ADD SWAP1 POP SWAP2 SWAP1 POP JUMP JUMPDEST PUSH0 PUSH1 0x20 DUP3 ADD SWAP1 POP DUP2 DUP2 SUB PUSH0 DUP4 ADD MSTORE PUSH2 0xE95 DUP2 PUSH2 0xE5C JUMP JUMPDEST SWAP1 POP SWAP2 SWAP1 POP JUMP JUMPDEST PUSH32 0x496E646578206F7574206F6620626F756E647300000000000000000000000000 PUSH0 DUP3 ADD MSTORE POP JUMP JUMPDEST PUSH0 PUSH2 0xED0 PUSH1 0x13 DUP4 PUSH2 0xB88 JUMP JUMPDEST SWAP2 POP PUSH2 0xEDB DUP3 PUSH2 0xE9C JUMP JUMPDEST PUSH1 0x20 DUP3 ADD SWAP1 POP SWAP2 SWAP1 POP JUMP JUMPDEST PUSH0 PUSH1 0x20 DUP3 ADD SWAP1 POP DUP2 DUP2 SUB PUSH0 DUP4 ADD MSTORE PUSH2 0xEFD DUP2 PUSH2 0xEC4 JUMP JUMPDEST SWAP1 POP SWAP2 SWAP1 POP JUMP JUMPDEST PUSH1 0x80 MLOAD PUSH1 0xA0 MLOAD PUSH2 0x3E85 PUSH2 0xF3A PUSH0 CODECOPY PUSH0 DUP2 DUP2 PUSH2 0x8F9 ADD MSTORE PUSH2 0x206B ADD MSTORE PUSH0 DUP2 DUP2 PUSH2 0xCFA ADD MSTORE DUP2 DUP2 PUSH2 0xDD1 ADD MSTORE PUSH2 0x1EA5 ADD MSTORE PUSH2 0x3E85 PUSH0 RETURN INVALID PUSH1 0x80 PUSH1 0x40 MSTORE CALLVALUE DUP1 ISZERO PUSH2 0xF JUMPI PUSH0 PUSH0 REVERT JUMPDEST POP PUSH1 0x4 CALLDATASIZE LT PUSH2 0x225 JUMPI PUSH0 CALLDATALOAD PUSH1 0xE0 SHR DUP1 PUSH4 0x8BB2FB75 GT PUSH2 0x12E JUMPI DUP1 PUSH4 0xC1B1F732 GT PUSH2 0xB6 JUMPI DUP1 PUSH4 0xE8295588 GT PUSH2 0x7A JUMPI DUP1 PUSH4 0xE8295588 EQ PUSH2 0x6A7 JUMPI DUP1 PUSH4 0xEC732959 EQ PUSH2 0x6D7 JUMPI DUP1 PUSH4 0xED33639F EQ PUSH2 0x6F5 JUMPI DUP1 PUSH4 0xF178E47C EQ PUSH2 0x713 JUMPI DUP1 PUSH4 0xFC7E9C6F EQ PUSH2 0x743 JUMPI PUSH2 0x225 JUMP JUMPDEST DUP1 PUSH4 0xC1B1F732 EQ PUSH2 0x5DD JUMPI DUP1 PUSH4 0xC2B40AE4 EQ PUSH2 0x60D JUMPI DUP1 PUSH4 0xCD87A3B4 EQ PUSH2 0x63D JUMPI DUP1 PUSH4 0xCE8F6377 EQ PUSH2 0x65B JUMPI DUP1 PUSH4 0xD290A3CF EQ PUSH2 0x677 JUMPI PUSH2 0x225 JUMP JUMPDEST DUP1 PUSH4 0xA15A36C7 GT PUSH2 0xFD JUMPI DUP1 PUSH4 0xA15A36C7 EQ PUSH2 0x54B JUMPI DUP1 PUSH4 0xB4062A31 EQ PUSH2 0x567 JUMPI DUP1 PUSH4 0xB7AB4DB5 EQ PUSH2 0x585 JUMPI DUP1 PUSH4 0xBA70F757 EQ PUSH2 0x5A3 JUMPI DUP1 PUSH4 0xBE00D6A1 EQ PUSH2 0x5C1 JUMPI PUSH2 0x225 JUMP JUMPDEST DUP1 PUSH4 0x8BB2FB75 EQ PUSH2 0x4C3 JUMPI DUP1 PUSH4 0x8DA5CB5B EQ PUSH2 0x4DF JUMPI DUP1 PUSH4 0x90EEB02B EQ PUSH2 0x4FD JUMPI DUP1 PUSH4 0x955E0377 EQ PUSH2 0x51B JUMPI PUSH2 0x225 JUMP JUMPDEST DUP1 PUSH4 0x4ECF518B GT PUSH2 0x1B1 JUMPI DUP1 PUSH4 0x6D3CBA61 GT PUSH2 0x180 JUMPI DUP1 PUSH4 0x6D3CBA61 EQ PUSH2 0x3F7 JUMPI DUP1 PUSH4 0x6D9833E3 EQ PUSH2 0x427 JUMPI DUP1 PUSH4 0x839DF945 EQ PUSH2 0x457 JUMPI DUP1 PUSH4 0x85A38635 EQ PUSH2 0x487 JUMPI DUP1 PUSH4 0x893D20E8 EQ PUSH2 0x4A5 JUMPI PUSH2 0x225 JUMP JUMPDEST DUP1 PUSH4 0x4ECF518B EQ PUSH2 0x36F JUMPI DUP1 PUSH4 0x5216509A EQ PUSH2 0x38D JUMPI DUP1 PUSH4 0x5BB93995 EQ PUSH2 0x3AB JUMPI DUP1 PUSH4 0x5E559EA1 EQ PUSH2 0x3DB JUMPI PUSH2 0x225 JUMP JUMPDEST DUP1 PUSH4 0x2B7AC3F3 GT PUSH2 0x1F8 JUMPI DUP1 PUSH4 0x2B7AC3F3 EQ PUSH2 0x2B1 JUMPI DUP1 PUSH4 0x2E6997FE EQ PUSH2 0x2CF JUMPI DUP1 PUSH4 0x32BCCE08 EQ PUSH2 0x2EE JUMPI DUP1 PUSH4 0x3477EE2E EQ PUSH2 0x31E JUMPI DUP1 PUSH4 0x414A37BA EQ PUSH2 0x351 JUMPI PUSH2 0x225 JUMP JUMPDEST DUP1 PUSH4 0x101158AF EQ PUSH2 0x229 JUMPI DUP1 PUSH4 0x13446A75 EQ PUSH2 0x247 JUMPI DUP1 PUSH4 0x1E620CD4 EQ PUSH2 0x265 JUMPI DUP1 PUSH4 0x2997E86B EQ PUSH2 0x281 JUMPI JUMPDEST PUSH0 PUSH0 REVERT JUMPDEST PUSH2 0x231 PUSH2 0x761 JUMP JUMPDEST PUSH1 0x40 MLOAD PUSH2 0x23E SWAP2 SWAP1 PUSH2 0x23EF JUMP JUMPDEST PUSH1 0x40 MLOAD DUP1 SWAP2 SUB SWAP1 RETURN JUMPDEST PUSH2 0x24F PUSH2 0x767 JUMP JUMPDEST PUSH1 0x40 MLOAD PUSH2 0x25C SWAP2 SWAP1 PUSH2 0x23EF JUMP JUMPDEST PUSH1 0x40 MLOAD DUP1 SWAP2 SUB SWAP1 RETURN JUMPDEST PUSH2 0x27F PUSH1 0x4 DUP1 CALLDATASIZE SUB DUP2 ADD SWAP1 PUSH2 0x27A SWAP2 SWAP1 PUSH2 0x2443 JUMP JUMPDEST PUSH2 0x76D JUMP JUMPDEST STOP JUMPDEST PUSH2 0x29B PUSH1 0x4 DUP1 CALLDATASIZE SUB DUP2 ADD SWAP1 PUSH2 0x296 SWAP2 SWAP1 PUSH2 0x24A1 JUMP JUMPDEST PUSH2 0x8DA JUMP JUMPDEST PUSH1 0x40 MLOAD PUSH2 0x2A8 SWAP2 SWAP1 PUSH2 0x24E6 JUMP JUMPDEST PUSH1 0x40 MLOAD DUP1 SWAP2 SUB SWAP1 RETURN JUMPDEST PUSH2 0x2B9 PUSH2 0x8F7 JUMP JUMPDEST PUSH1 0x40 MLOAD PUSH2 0x2C6 SWAP2 SWAP1 PUSH2 0x2579 JUMP JUMPDEST PUSH1 0x40 MLOAD DUP1 SWAP2 SUB SWAP1 RETURN JUMPDEST PUSH2 0x2D7 PUSH2 0x91B JUMP JUMPDEST PUSH1 0x40 MLOAD PUSH2 0x2E5 SWAP3 SWAP2 SWAP1 PUSH2 0x26BD JUMP JUMPDEST PUSH1 0x40 MLOAD DUP1 SWAP2 SUB SWAP1 RETURN JUMPDEST PUSH2 0x308 PUSH1 0x4 DUP1 CALLDATASIZE SUB DUP2 ADD SWAP1 PUSH2 0x303 SWAP2 SWAP1 PUSH2 0x2443 JUMP JUMPDEST PUSH2 0xAF3 JUMP JUMPDEST PUSH1 0x40 MLOAD PUSH2 0x315 SWAP2 SWAP1 PUSH2 0x23EF JUMP JUMPDEST PUSH1 0x40 MLOAD DUP1 SWAP2 SUB SWAP1 RETURN JUMPDEST PUSH2 0x338 PUSH1 0x4 DUP1 CALLDATASIZE SUB DUP2 ADD SWAP1 PUSH2 0x333 SWAP2 SWAP1 PUSH2 0x2443 JUMP JUMPDEST PUSH2 0xB08 JUMP JUMPDEST PUSH1 0x40 MLOAD PUSH2 0x348 SWAP5 SWAP4 SWAP3 SWAP2 SWAP1 PUSH2 0x2755 JUMP JUMPDEST PUSH1 0x40 MLOAD DUP1 SWAP2 SUB SWAP1 RETURN JUMPDEST PUSH2 0x359 PUSH2 0xBED JUMP JUMPDEST PUSH1 0x40 MLOAD PUSH2 0x366 SWAP2 SWAP1 PUSH2 0x23EF JUMP JUMPDEST PUSH1 0x40 MLOAD DUP1 SWAP2 SUB SWAP1 RETURN JUMPDEST PUSH2 0x377 PUSH2 0xC11 JUMP JUMPDEST PUSH1 0x40 MLOAD PUSH2 0x384 SWAP2 SWAP1 PUSH2 0x27BD JUMP JUMPDEST PUSH1 0x40 MLOAD DUP1 SWAP2 SUB SWAP1 RETURN JUMPDEST PUSH2 0x395 PUSH2 0xC25 JUMP JUMPDEST PUSH1 0x40 MLOAD PUSH2 0x3A2 SWAP2 SWAP1 PUSH2 0x23EF JUMP JUMPDEST PUSH1 0x40 MLOAD DUP1 SWAP2 SUB SWAP1 RETURN JUMPDEST PUSH2 0x3C5 PUSH1 0x4 DUP1 CALLDATASIZE SUB DUP2 ADD SWAP1 PUSH2 0x3C0 SWAP2 SWAP1 PUSH2 0x27D6 JUMP JUMPDEST PUSH2 0xC2B JUMP JUMPDEST PUSH1 0x40 MLOAD PUSH2 0x3D2 SWAP2 SWAP1 PUSH2 0x2823 JUMP JUMPDEST PUSH1 0x40 MLOAD DUP1 SWAP2 SUB SWAP1 RETURN JUMPDEST PUSH2 0x3F5 PUSH1 0x4 DUP1 CALLDATASIZE SUB DUP2 ADD SWAP1 PUSH2 0x3F0 SWAP2 SWAP1 PUSH2 0x2992 JUMP JUMPDEST PUSH2 0xE7F JUMP JUMPDEST STOP JUMPDEST PUSH2 0x411 PUSH1 0x4 DUP1 CALLDATASIZE SUB DUP2 ADD SWAP1 PUSH2 0x40C SWAP2 SWAP1 PUSH2 0x2443 JUMP JUMPDEST PUSH2 0x1086 JUMP JUMPDEST PUSH1 0x40 MLOAD PUSH2 0x41E SWAP2 SWAP1 PUSH2 0x24E6 JUMP JUMPDEST PUSH1 0x40 MLOAD DUP1 SWAP2 SUB SWAP1 RETURN JUMPDEST PUSH2 0x441 PUSH1 0x4 DUP1 CALLDATASIZE SUB DUP2 ADD SWAP1 PUSH2 0x43C SWAP2 SWAP1 PUSH2 0x24A1 JUMP JUMPDEST PUSH2 0x10AC JUMP JUMPDEST PUSH1 0x40 MLOAD PUSH2 0x44E SWAP2 SWAP1 PUSH2 0x24E6 JUMP JUMPDEST PUSH1 0x40 MLOAD DUP1 SWAP2 SUB SWAP1 RETURN JUMPDEST PUSH2 0x471 PUSH1 0x4 DUP1 CALLDATASIZE SUB DUP2 ADD SWAP1 PUSH2 0x46C SWAP2 SWAP1 PUSH2 0x24A1 JUMP JUMPDEST PUSH2 0x113F JUMP JUMPDEST PUSH1 0x40 MLOAD PUSH2 0x47E SWAP2 SWAP1 PUSH2 0x24E6 JUMP JUMPDEST PUSH1 0x40 MLOAD DUP1 SWAP2 SUB SWAP1 RETURN JUMPDEST PUSH2 0x48F PUSH2 0x115C JUMP JUMPDEST PUSH1 0x40 MLOAD PUSH2 0x49C SWAP2 SWAP1 PUSH2 0x23EF JUMP JUMPDEST PUSH1 0x40 MLOAD DUP1 SWAP2 SUB SWAP1 RETURN JUMPDEST PUSH2 0x4AD PUSH2 0x1162 JUMP JUMPDEST PUSH1 0x40 MLOAD PUSH2 0x4BA SWAP2 SWAP1 PUSH2 0x2A0C JUMP JUMPDEST PUSH1 0x40 MLOAD DUP1 SWAP2 SUB SWAP1 RETURN JUMPDEST PUSH2 0x4DD PUSH1 0x4 DUP1 CALLDATASIZE SUB DUP2 ADD SWAP1 PUSH2 0x4D8 SWAP2 SWAP1 PUSH2 0x27D6 JUMP JUMPDEST PUSH2 0x118A JUMP JUMPDEST STOP JUMPDEST PUSH2 0x4E7 PUSH2 0x126D JUMP JUMPDEST PUSH1 0x40 MLOAD PUSH2 0x4F4 SWAP2 SWAP1 PUSH2 0x2A0C JUMP JUMPDEST PUSH1 0x40 MLOAD DUP1 SWAP2 SUB SWAP1 RETURN JUMPDEST PUSH2 0x505 PUSH2 0x1292 JUMP JUMPDEST PUSH1 0x40 MLOAD PUSH2 0x512 SWAP2 SWAP1 PUSH2 0x27BD JUMP JUMPDEST PUSH1 0x40 MLOAD DUP1 SWAP2 SUB SWAP1 RETURN JUMPDEST PUSH2 0x535 PUSH1 0x4 DUP1 CALLDATASIZE SUB DUP2 ADD SWAP1 PUSH2 0x530 SWAP2 SWAP1 PUSH2 0x2443 JUMP JUMPDEST PUSH2 0x12A7 JUMP JUMPDEST PUSH1 0x40 MLOAD PUSH2 0x542 SWAP2 SWAP1 PUSH2 0x23EF JUMP JUMPDEST PUSH1 0x40 MLOAD DUP1 SWAP2 SUB SWAP1 RETURN JUMPDEST PUSH2 0x565 PUSH1 0x4 DUP1 CALLDATASIZE SUB DUP2 ADD SWAP1 PUSH2 0x560 SWAP2 SWAP1 PUSH2 0x27D6 JUMP JUMPDEST PUSH2 0x12E1 JUMP JUMPDEST STOP JUMPDEST PUSH2 0x56F PUSH2 0x13C4 JUMP JUMPDEST PUSH1 0x40 MLOAD PUSH2 0x57C SWAP2 SWAP1 PUSH2 0x23EF JUMP JUMPDEST PUSH1 0x40 MLOAD DUP1 SWAP2 SUB SWAP1 RETURN JUMPDEST PUSH2 0x58D PUSH2 0x13CA JUMP JUMPDEST PUSH1 0x40 MLOAD PUSH2 0x59A SWAP2 SWAP1 PUSH2 0x2ADC JUMP JUMPDEST PUSH1 0x40 MLOAD DUP1 SWAP2 SUB SWAP1 RETURN JUMPDEST PUSH2 0x5AB PUSH2 0x1455 JUMP JUMPDEST PUSH1 0x40 MLOAD PUSH2 0x5B8 SWAP2 SWAP1 PUSH2 0x2823 JUMP JUMPDEST PUSH1 0x40 MLOAD DUP1 SWAP2 SUB SWAP1 RETURN JUMPDEST PUSH2 0x5DB PUSH1 0x4 DUP1 CALLDATASIZE SUB DUP2 ADD SWAP1 PUSH2 0x5D6 SWAP2 SWAP1 PUSH2 0x27D6 JUMP JUMPDEST PUSH2 0x1484 JUMP JUMPDEST STOP JUMPDEST PUSH2 0x5F7 PUSH1 0x4 DUP1 CALLDATASIZE SUB DUP2 ADD SWAP1 PUSH2 0x5F2 SWAP2 SWAP1 PUSH2 0x2443 JUMP JUMPDEST PUSH2 0x163B JUMP JUMPDEST PUSH1 0x40 MLOAD PUSH2 0x604 SWAP2 SWAP1 PUSH2 0x24E6 JUMP JUMPDEST PUSH1 0x40 MLOAD DUP1 SWAP2 SUB SWAP1 RETURN JUMPDEST PUSH2 0x627 PUSH1 0x4 DUP1 CALLDATASIZE SUB DUP2 ADD SWAP1 PUSH2 0x622 SWAP2 SWAP1 PUSH2 0x2443 JUMP JUMPDEST PUSH2 0x1658 JUMP JUMPDEST PUSH1 0x40 MLOAD PUSH2 0x634 SWAP2 SWAP1 PUSH2 0x2823 JUMP JUMPDEST PUSH1 0x40 MLOAD DUP1 SWAP2 SUB SWAP1 RETURN JUMPDEST PUSH2 0x645 PUSH2 0x166D JUMP JUMPDEST PUSH1 0x40 MLOAD PUSH2 0x652 SWAP2 SWAP1 PUSH2 0x27BD JUMP JUMPDEST PUSH1 0x40 MLOAD DUP1 SWAP2 SUB SWAP1 RETURN JUMPDEST PUSH2 0x675 PUSH1 0x4 DUP1 CALLDATASIZE SUB DUP2 ADD SWAP1 PUSH2 0x670 SWAP2 SWAP1 PUSH2 0x2C5C JUMP JUMPDEST PUSH2 0x1672 JUMP JUMPDEST STOP JUMPDEST PUSH2 0x691 PUSH1 0x4 DUP1 CALLDATASIZE SUB DUP2 ADD SWAP1 PUSH2 0x68C SWAP2 SWAP1 PUSH2 0x2443 JUMP JUMPDEST PUSH2 0x17E1 JUMP JUMPDEST PUSH1 0x40 MLOAD PUSH2 0x69E SWAP2 SWAP1 PUSH2 0x23EF JUMP JUMPDEST PUSH1 0x40 MLOAD DUP1 SWAP2 SUB SWAP1 RETURN JUMPDEST PUSH2 0x6C1 PUSH1 0x4 DUP1 CALLDATASIZE SUB DUP2 ADD SWAP1 PUSH2 0x6BC SWAP2 SWAP1 PUSH2 0x2443 JUMP JUMPDEST PUSH2 0x1801 JUMP JUMPDEST PUSH1 0x40 MLOAD PUSH2 0x6CE SWAP2 SWAP1 PUSH2 0x2823 JUMP JUMPDEST PUSH1 0x40 MLOAD DUP1 SWAP2 SUB SWAP1 RETURN JUMPDEST PUSH2 0x6DF PUSH2 0x1E7F JUMP JUMPDEST PUSH1 0x40 MLOAD PUSH2 0x6EC SWAP2 SWAP1 PUSH2 0x23EF JUMP JUMPDEST PUSH1 0x40 MLOAD DUP1 SWAP2 SUB SWAP1 RETURN JUMPDEST PUSH2 0x6FD PUSH2 0x1EA3 JUMP JUMPDEST PUSH1 0x40 MLOAD PUSH2 0x70A SWAP2 SWAP1 PUSH2 0x2D07 JUMP JUMPDEST PUSH1 0x40 MLOAD DUP1 SWAP2 SUB SWAP1 RETURN JUMPDEST PUSH2 0x72D PUSH1 0x4 DUP1 CALLDATASIZE SUB DUP2 ADD SWAP1 PUSH2 0x728 SWAP2 SWAP1 PUSH2 0x2443 JUMP JUMPDEST PUSH2 0x1EC7 JUMP JUMPDEST PUSH1 0x40 MLOAD PUSH2 0x73A SWAP2 SWAP1 PUSH2 0x2823 JUMP JUMPDEST PUSH1 0x40 MLOAD DUP1 SWAP2 SUB SWAP1 RETURN JUMPDEST PUSH2 0x74B PUSH2 0x1EDC JUMP JUMPDEST PUSH1 0x40 MLOAD PUSH2 0x758 SWAP2 SWAP1 PUSH2 0x27BD JUMP JUMPDEST PUSH1 0x40 MLOAD DUP1 SWAP2 SUB SWAP1 RETURN JUMPDEST PUSH1 0xD SLOAD DUP2 JUMP JUMPDEST PUSH1 0xC SLOAD DUP2 JUMP JUMPDEST PUSH1 0x6 PUSH0 SWAP1 SLOAD SWAP1 PUSH2 0x100 EXP SWAP1 DIV PUSH20 0xFFFFFFFFFFFFFFFFFFFFFFFFFFFFFFFFFFFFFFFF AND PUSH20 0xFFFFFFFFFFFFFFFFFFFFFFFFFFFFFFFFFFFFFFFF AND CALLER PUSH20 0xFFFFFFFFFFFFFFFFFFFFFFFFFFFFFFFFFFFFFFFF AND EQ PUSH2 0x7FC JUMPI PUSH1 0x40 MLOAD PUSH32 0x8C379A000000000000000000000000000000000000000000000000000000000 DUP2 MSTORE PUSH1 0x4 ADD PUSH2 0x7F3 SWAP1 PUSH2 0x2D90 JUMP JUMPDEST PUSH1 0x40 MLOAD DUP1 SWAP2 SUB SWAP1 REVERT JUMPDEST PUSH1 0x9 SLOAD DUP2 LT PUSH2 0x840 JUMPI PUSH1 0x40 MLOAD PUSH32 0x8C379A000000000000000000000000000000000000000000000000000000000 DUP2 MSTORE PUSH1 0x4 ADD PUSH2 0x837 SWAP1 PUSH2 0x2DF8 JUMP JUMPDEST PUSH1 0x40 MLOAD DUP1 SWAP2 SUB SWAP1 REVERT JUMPDEST PUSH1 0xA PUSH0 DUP3 DUP2 MSTORE PUSH1 0x20 ADD SWAP1 DUP2 MSTORE PUSH1 0x20 ADD PUSH0 KECCAK256 PUSH0 PUSH0 DUP3 ADD PUSH0 PUSH2 0x100 EXP DUP2 SLOAD SWAP1 PUSH8 0xFFFFFFFFFFFFFFFF MUL NOT AND SWAP1 SSTORE PUSH1 0x1 DUP3 ADD PUSH0 PUSH2 0x87A SWAP2 SWAP1 PUSH2 0x237F JUMP JUMPDEST PUSH1 0x2 DUP3 ADD PUSH0 PUSH2 0x100 EXP DUP2 SLOAD SWAP1 PUSH8 0xFFFFFFFFFFFFFFFF MUL NOT AND SWAP1 SSTORE PUSH1 0x2 DUP3 ADD PUSH1 0x8 PUSH2 0x100 EXP DUP2 SLOAD SWAP1 PUSH1 0xFF MUL NOT AND SWAP1 SSTORE POP POP DUP1 PUSH32 0x5768DF5843E58EC5B2FC92EB6EF81241E9EC50A0B93FD074DEC58B39EFC41720 PUSH1 0x40 MLOAD PUSH1 0x40 MLOAD DUP1 SWAP2 SUB SWAP1 LOG2 POP JUMP JUMPDEST PUSH1 0x4 PUSH1 0x20 MSTORE DUP1 PUSH0 MSTORE PUSH1 0x40 PUSH0 KECCAK256 PUSH0 SWAP2 POP SLOAD SWAP1 PUSH2 0x100 EXP SWAP1 DIV PUSH1 0xFF AND DUP2 JUMP JUMPDEST PUSH32 0x0 DUP2 JUMP JUMPDEST PUSH0 PUSH1 0x60 PUSH0 PUSH1 0x9 SLOAD PUSH8 0xFFFFFFFFFFFFFFFF DUP2 GT ISZERO PUSH2 0x93B JUMPI PUSH2 0x93A PUSH2 0x286E JUMP JUMPDEST JUMPDEST PUSH1 0x40 MLOAD SWAP1 DUP1 DUP3 MSTORE DUP1 PUSH1 0x20 MUL PUSH1 0x20 ADD DUP3 ADD PUSH1 0x40 MSTORE DUP1 ISZERO PUSH2 0x969 JUMPI DUP2 PUSH1 0x20 ADD PUSH1 0x20 DUP3 MUL DUP1 CALLDATASIZE DUP4 CALLDATACOPY DUP1 DUP3 ADD SWAP2 POP POP SWAP1 POP JUMPDEST POP SWAP1 POP PUSH0 PUSH1 0x9 SLOAD PUSH8 0xFFFFFFFFFFFFFFFF DUP2 GT ISZERO PUSH2 0x989 JUMPI PUSH2 0x988 PUSH2 0x286E JUMP JUMPDEST JUMPDEST PUSH1 0x40 MLOAD SWAP1 DUP1 DUP3 MSTORE DUP1 PUSH1 0x20 MUL PUSH1 0x20 ADD DUP3 ADD PUSH1 0x40 MSTORE DUP1 ISZERO PUSH2 0x9BC JUMPI DUP2 PUSH1 0x20 ADD JUMPDEST PUSH1 0x60 DUP2 MSTORE PUSH1 0x20 ADD SWAP1 PUSH1 0x1 SWAP1 SUB SWAP1 DUP2 PUSH2 0x9A7 JUMPI SWAP1 POP JUMPDEST POP SWAP1 POP PUSH0 PUSH0 SWAP1 POP JUMPDEST PUSH1 0x9 SLOAD DUP2 LT ISZERO PUSH2 0xAE4 JUMPI PUSH1 0xA PUSH0 DUP3 DUP2 MSTORE PUSH1 0x20 ADD SWAP1 DUP2 MSTORE PUSH1 0x20 ADD PUSH0 KECCAK256 PUSH0 ADD PUSH0 SWAP1 SLOAD SWAP1 PUSH2 0x100 EXP SWAP1 DIV PUSH8 0xFFFFFFFFFFFFFFFF AND PUSH8 0xFFFFFFFFFFFFFFFF AND DUP4 DUP3 DUP2 MLOAD DUP2 LT PUSH2 0xA12 JUMPI PUSH2 0xA11 PUSH2 0x2E16 JUMP JUMPDEST JUMPDEST PUSH1 0x20 MUL PUSH1 0x20 ADD ADD DUP2 DUP2 MSTORE POP POP PUSH1 0xA PUSH0 DUP3 DUP2 MSTORE PUSH1 0x20 ADD SWAP1 DUP2 MSTORE PUSH1 0x20 ADD PUSH0 KECCAK256 PUSH1 0x1 ADD DUP1 SLOAD PUSH2 0xA3D SWAP1 PUSH2 0x2E70 JUMP JUMPDEST DUP1 PUSH1 0x1F ADD PUSH1 0x20 DUP1 SWAP2 DIV MUL PUSH1 0x20 ADD PUSH1 0x40 MLOAD SWAP1 DUP2 ADD PUSH1 0x40 MSTORE DUP1 SWAP3 SWAP2 SWAP1 DUP2 DUP2 MSTORE PUSH1 0x20 ADD DUP3 DUP1 SLOAD PUSH2 0xA69 SWAP1 PUSH2 0x2E70 JUMP JUMPDEST DUP1 ISZERO PUSH2 0xAB4 JUMPI DUP1 PUSH1 0x1F LT PUSH2 0xA8B JUMPI PUSH2 0x100 DUP1 DUP4 SLOAD DIV MUL DUP4 MSTORE SWAP2 PUSH1 0x20 ADD SWAP2 PUSH2 0xAB4 JUMP JUMPDEST DUP3 ADD SWAP2 SWAP1 PUSH0 MSTORE PUSH1 0x20 PUSH0 KECCAK256 SWAP1 JUMPDEST DUP2 SLOAD DUP2 MSTORE SWAP1 PUSH1 0x1 ADD SWAP1 PUSH1 0x20 ADD DUP1 DUP4 GT PUSH2 0xA97 JUMPI DUP3 SWAP1 SUB PUSH1 0x1F AND DUP3 ADD SWAP2 JUMPDEST POP POP POP POP POP DUP3 DUP3 DUP2 MLOAD DUP2 LT PUSH2 0xACC JUMPI PUSH2 0xACB PUSH2 0x2E16 JUMP JUMPDEST JUMPDEST PUSH1 0x20 MUL PUSH1 0x20 ADD ADD DUP2 SWAP1 MSTORE POP DUP1 DUP1 PUSH1 0x1 ADD SWAP2 POP POP PUSH2 0x9C4 JUMP JUMPDEST POP PUSH1 0x9 SLOAD DUP2 SWAP4 POP SWAP4 POP POP POP SWAP1 SWAP2 JUMP JUMPDEST PUSH1 0x8 PUSH1 0x20 MSTORE DUP1 PUSH0 MSTORE PUSH1 0x40 PUSH0 KECCAK256 PUSH0 SWAP2 POP SWAP1 POP SLOAD DUP2 JUMP JUMPDEST PUSH1 0xA PUSH1 0x20 MSTORE DUP1 PUSH0 MSTORE PUSH1 0x40 PUSH0 KECCAK256 PUSH0 SWAP2 POP SWAP1 POP DUP1 PUSH0 ADD PUSH0 SWAP1 SLOAD SWAP1 PUSH2 0x100 EXP SWAP1 DIV PUSH8 0xFFFFFFFFFFFFFFFF AND SWAP1 DUP1 PUSH1 0x1 ADD DUP1 SLOAD PUSH2 0xB40 SWAP1 PUSH2 0x2E70 JUMP JUMPDEST DUP1 PUSH1 0x1F ADD PUSH1 0x20 DUP1 SWAP2 DIV MUL PUSH1 0x20 ADD PUSH1 0x40 MLOAD SWAP1 DUP2 ADD PUSH1 0x40 MSTORE DUP1 SWAP3 SWAP2 SWAP1 DUP2 DUP2 MSTORE PUSH1 0x20 ADD DUP3 DUP1 SLOAD PUSH2 0xB6C SWAP1 PUSH2 0x2E70 JUMP JUMPDEST DUP1 ISZERO PUSH2 0xBB7 JUMPI DUP1 PUSH1 0x1F LT PUSH2 0xB8E JUMPI PUSH2 0x100 DUP1 DUP4 SLOAD DIV MUL DUP4 MSTORE SWAP2 PUSH1 0x20 ADD SWAP2 PUSH2 0xBB7 JUMP JUMPDEST DUP3 ADD SWAP2 SWAP1 PUSH0 MSTORE PUSH1 0x20 PUSH0 KECCAK256 SWAP1 JUMPDEST DUP2 SLOAD DUP2 MSTORE SWAP1 PUSH1 0x1 ADD SWAP1 PUSH1 0x20 ADD DUP1 DUP4 GT PUSH2 0xB9A JUMPI DUP3 SWAP1 SUB PUSH1 0x1F AND DUP3 ADD SWAP2 JUMPDEST POP POP POP POP POP SWAP1 DUP1 PUSH1 0x2 ADD PUSH0 SWAP1 SLOAD SWAP1 PUSH2 0x100 EXP SWAP1 DIV PUSH8 0xFFFFFFFFFFFFFFFF AND SWAP1 DUP1 PUSH1 0x2 ADD PUSH1 0x8 SWAP1 SLOAD SWAP1 PUSH2 0x100 EXP SWAP1 DIV PUSH1 0xFF AND SWAP1 POP DUP5 JUMP JUMPDEST PUSH32 0x30644E72E131A029B85045B68181585D2833E84879B9709143E1F593F0000001 DUP2 JUMP JUMPDEST PUSH0 PUSH0 SWAP1 SLOAD SWAP1 PUSH2 0x100 EXP SWAP1 DIV PUSH4 0xFFFFFFFF AND DUP2 JUMP JUMPDEST PUSH1 0x9 SLOAD DUP2 JUMP JUMPDEST PUSH0 PUSH32 0x30644E72E131A029B85045B68181585D2833E84879B9709143E1F593F0000001 DUP4 LT PUSH2 0xC8E JUMPI PUSH1 0x40 MLOAD PUSH32 0x8C379A000000000000000000000000000000000000000000000000000000000 DUP2 MSTORE PUSH1 0x4 ADD PUSH2 0xC85 SWAP1 PUSH2 0x2EEA JUMP JUMPDEST PUSH1 0x40 MLOAD DUP1 SWAP2 SUB SWAP1 REVERT JUMPDEST PUSH32 0x30644E72E131A029B85045B68181585D2833E84879B9709143E1F593F0000001 DUP3 LT PUSH2 0xCF0 JUMPI PUSH1 0x40 MLOAD PUSH32 0x8C379A000000000000000000000000000000000000000000000000000000000 DUP2 MSTORE PUSH1 0x4 ADD PUSH2 0xCE7 SWAP1 PUSH2 0x2F78 JUMP JUMPDEST PUSH1 0x40 MLOAD DUP1 SWAP2 SUB SWAP1 REVERT JUMPDEST PUSH0 DUP4 SWAP1 POP PUSH0 PUSH0 SWAP1 POP PUSH32 0x0 PUSH20 0xFFFFFFFFFFFFFFFFFFFFFFFFFFFFFFFFFFFFFFFF AND PUSH4 0x3F1A1187 DUP4 DUP4 PUSH0 PUSH1 0x40 MLOAD DUP5 PUSH4 0xFFFFFFFF AND PUSH1 0xE0 SHL DUP2 MSTORE PUSH1 0x4 ADD PUSH2 0xD55 SWAP4 SWAP3 SWAP2 SWAP1 PUSH2 0x2FCF JUMP JUMPDEST PUSH1 0x40 DUP1 MLOAD DUP1 DUP4 SUB DUP2 DUP7 GAS STATICCALL ISZERO DUP1 ISZERO PUSH2 0xD6F JUMPI RETURNDATASIZE PUSH0 PUSH0 RETURNDATACOPY RETURNDATASIZE PUSH0 REVERT JUMPDEST POP POP POP POP PUSH1 0x40 MLOAD RETURNDATASIZE PUSH1 0x1F NOT PUSH1 0x1F DUP3 ADD AND DUP3 ADD DUP1 PUSH1 0x40 MSTORE POP DUP2 ADD SWAP1 PUSH2 0xD93 SWAP2 SWAP1 PUSH2 0x3018 JUMP JUMPDEST DUP1 SWAP3 POP DUP2 SWAP4 POP POP POP PUSH32 0x30644E72E131A029B85045B68181585D2833E84879B9709143E1F593F0000001 DUP1 PUSH2 0xDCA JUMPI PUSH2 0xDC9 PUSH2 0x3056 JUMP JUMPDEST JUMPDEST DUP5 DUP4 ADDMOD SWAP2 POP PUSH32 0x0 PUSH20 0xFFFFFFFFFFFFFFFFFFFFFFFFFFFFFFFFFFFFFFFF AND PUSH4 0x3F1A1187 DUP4 DUP4 PUSH0 PUSH1 0x40 MLOAD DUP5 PUSH4 0xFFFFFFFF AND PUSH1 0xE0 SHL DUP2 MSTORE PUSH1 0x4 ADD PUSH2 0xE2C SWAP4 SWAP3 SWAP2 SWAP1 PUSH2 0x2FCF JUMP JUMPDEST PUSH1 0x40 DUP1 MLOAD DUP1 DUP4 SUB DUP2 DUP7 GAS STATICCALL ISZERO DUP1 ISZERO PUSH2 0xE46 JUMPI RETURNDATASIZE PUSH0 PUSH0 RETURNDATACOPY RETURNDATASIZE PUSH0 REVERT JUMPDEST POP POP POP POP PUSH1 0x40 MLOAD RETURNDATASIZE PUSH1 0x1F NOT PUSH1 0x1F DUP3 ADD AND DUP3 ADD DUP1 PUSH1 0x40 MSTORE POP DUP2 ADD SWAP1 PUSH2 0xE6A SWAP2 SWAP1 PUSH2 0x3018 JUMP JUMPDEST DUP1 SWAP3 POP DUP2 SWAP4 POP POP POP DUP2 PUSH0 SHL SWAP3 POP POP POP SWAP3 SWAP2 POP POP JUMP JUMPDEST PUSH1 0x6 PUSH0 SWAP1 SLOAD SWAP1 PUSH2 0x100 EXP SWAP1 DIV PUSH20 0xFFFFFFFFFFFFFFFFFFFFFFFFFFFFFFFFFFFFFFFF AND PUSH20 0xFFFFFFFFFFFFFFFFFFFFFFFFFFFFFFFFFFFFFFFF AND CALLER PUSH20 0xFFFFFFFFFFFFFFFFFFFFFFFFFFFFFFFFFFFFFFFF AND EQ PUSH2 0xF0E JUMPI PUSH1 0x40 MLOAD PUSH32 0x8C379A000000000000000000000000000000000000000000000000000000000 DUP2 MSTORE PUSH1 0x4 ADD PUSH2 0xF05 SWAP1 PUSH2 0x2D90 JUMP JUMPDEST PUSH1 0x40 MLOAD DUP1 SWAP2 SUB SWAP1 REVERT JUMPDEST PUSH1 0x14 DUP2 MLOAD GT ISZERO PUSH2 0xF53 JUMPI PUSH1 0x40 MLOAD PUSH32 0x8C379A000000000000000000000000000000000000000000000000000000000 DUP2 MSTORE PUSH1 0x4 ADD PUSH2 0xF4A SWAP1 PUSH2 0x30F3 JUMP JUMPDEST PUSH1 0x40 MLOAD DUP1 SWAP2 SUB SWAP1 REVERT JUMPDEST PUSH1 0x40 MLOAD DUP1 PUSH1 0x80 ADD PUSH1 0x40 MSTORE DUP1 DUP4 PUSH8 0xFFFFFFFFFFFFFFFF AND DUP2 MSTORE PUSH1 0x20 ADD DUP3 DUP2 MSTORE PUSH1 0x20 ADD PUSH0 PUSH8 0xFFFFFFFFFFFFFFFF AND DUP2 MSTORE PUSH1 0x20 ADD PUSH1 0x1 ISZERO ISZERO DUP2 MSTORE POP PUSH1 0xA PUSH0 PUSH1 0x9 SLOAD DUP2 MSTORE PUSH1 0x20 ADD SWAP1 DUP2 MSTORE PUSH1 0x20 ADD PUSH0 KECCAK256 PUSH0 DUP3 ADD MLOAD DUP2 PUSH0 ADD PUSH0 PUSH2 0x100 EXP DUP2 SLOAD DUP2 PUSH8 0xFFFFFFFFFFFFFFFF MUL NOT AND SWAP1 DUP4 PUSH8 0xFFFFFFFFFFFFFFFF AND MUL OR SWAP1 SSTORE POP PUSH1 0x20 DUP3 ADD MLOAD DUP2 PUSH1 0x1 ADD SWAP1 DUP2 PUSH2 0xFDF SWAP2 SWAP1 PUSH2 0x32A8 JUMP JUMPDEST POP PUSH1 0x40 DUP3 ADD MLOAD DUP2 PUSH1 0x2 ADD PUSH0 PUSH2 0x100 EXP DUP2 SLOAD DUP2 PUSH8 0xFFFFFFFFFFFFFFFF MUL NOT AND SWAP1 DUP4 PUSH8 0xFFFFFFFFFFFFFFFF AND MUL OR SWAP1 SSTORE POP PUSH1 0x60 DUP3 ADD MLOAD DUP2 PUSH1 0x2 ADD PUSH1 0x8 PUSH2 0x100 EXP DUP2 SLOAD DUP2 PUSH1 0xFF MUL NOT AND SWAP1 DUP4 ISZERO ISZERO MUL OR SWAP1 SSTORE POP SWAP1 POP POP PUSH1 0x9 SLOAD PUSH32 0xE83B2A43E7E82D975C8A0A6D2F045153C869E111136A34D1889AB7B598E396A3 DUP3 PUSH1 0x40 MLOAD PUSH2 0x1063 SWAP2 SWAP1 PUSH2 0x3377 JUMP JUMPDEST PUSH1 0x40 MLOAD DUP1 SWAP2 SUB SWAP1 LOG2 PUSH1 0x9 PUSH0 DUP2 SLOAD DUP1 SWAP3 SWAP2 SWAP1 PUSH2 0x107D SWAP1 PUSH2 0x33C4 JUMP JUMPDEST SWAP2 SWAP1 POP SSTORE POP POP POP JUMP JUMPDEST PUSH0 PUSH1 0x7 PUSH0 DUP4 DUP2 MSTORE PUSH1 0x20 ADD SWAP1 DUP2 MSTORE PUSH1 0x20 ADD PUSH0 KECCAK256 PUSH0 SWAP1 SLOAD SWAP1 PUSH2 0x100 EXP SWAP1 DIV PUSH1 0xFF AND SWAP1 POP SWAP2 SWAP1 POP JUMP JUMPDEST PUSH0 PUSH0 PUSH0 SHL DUP3 SUB PUSH2 0x10BE JUMPI PUSH0 SWAP1 POP PUSH2 0x113A JUMP JUMPDEST PUSH0 PUSH1 0x3 PUSH0 SWAP1 SLOAD SWAP1 PUSH2 0x100 EXP SWAP1 DIV PUSH4 0xFFFFFFFF AND SWAP1 POP PUSH0 DUP2 SWAP1 POP JUMPDEST PUSH1 0x2 PUSH0 DUP3 PUSH4 0xFFFFFFFF AND DUP2 MSTORE PUSH1 0x20 ADD SWAP1 DUP2 MSTORE PUSH1 0x20 ADD PUSH0 KECCAK256 SLOAD DUP5 SUB PUSH2 0x1101 JUMPI PUSH1 0x1 SWAP3 POP POP POP PUSH2 0x113A JUMP JUMPDEST PUSH0 DUP2 PUSH4 0xFFFFFFFF AND SUB PUSH2 0x1113 JUMPI PUSH1 0x1E SWAP1 POP JUMPDEST DUP1 DUP1 PUSH2 0x111E SWAP1 PUSH2 0x340B JUMP JUMPDEST SWAP2 POP POP DUP2 PUSH4 0xFFFFFFFF AND DUP2 PUSH4 0xFFFFFFFF AND SUB PUSH2 0x10D8 JUMPI PUSH0 SWAP3 POP POP POP JUMPDEST SWAP2 SWAP1 POP JUMP JUMPDEST PUSH1 0x5 PUSH1 0x20 MSTORE DUP1 PUSH0 MSTORE PUSH1 0x40 PUSH0 KECCAK256 PUSH0 SWAP2 POP SLOAD SWAP1 PUSH2 0x100 EXP SWAP1 DIV PUSH1 0xFF AND DUP2 JUMP JUMPDEST PUSH1 0xE SLOAD DUP2 JUMP JUMPDEST PUSH0 PUSH1 0x6 PUSH0 SWAP1 SLOAD SWAP1 PUSH2 0x100 EXP SWAP1 DIV PUSH20 0xFFFFFFFFFFFFFFFFFFFFFFFFFFFFFFFFFFFFFFFF AND SWAP1 POP SWAP1 JUMP JUMPDEST PUSH1 0x6 PUSH0 SWAP1 SLOAD SWAP1 PUSH2 0x100 EXP SWAP1 DIV PUSH20 0xFFFFFFFFFFFFFFFFFFFFFFFFFFFFFFFFFFFFFFFF AND PUSH20 0xFFFFFFFFFFFFFFFFFFFFFFFFFFFFFFFFFFFFFFFF AND CALLER PUSH20 0xFFFFFFFFFFFFFFFFFFFFFFFFFFFFFFFFFFFFFFFF AND EQ PUSH2 0x1219 JUMPI PUSH1 0x40 MLOAD PUSH32 0x8C379A000000000000000000000000000000000000000000000000000000000 DUP2 MSTORE PUSH1 0x4 ADD PUSH2 0x1210 SWAP1 PUSH2 0x2D90 JUMP JUMPDEST PUSH1 0x40 MLOAD DUP1 SWAP2 SUB SWAP1 REVERT JUMPDEST DUP1 DUP3 LT PUSH2 0x125B JUMPI PUSH1 0x40 MLOAD PUSH32 0x8C379A000000000000000000000000000000000000000000000000000000000 DUP2 MSTORE PUSH1 0x4 ADD PUSH2 0x1252 SWAP1 PUSH2 0x34A2 JUMP JUMPDEST PUSH1 0x40 MLOAD DUP1 SWAP2 SUB SWAP1 REVERT JUMPDEST DUP2 PUSH1 0xB DUP2 SWAP1 SSTORE POP DUP1 PUSH1 0xC DUP2 SWAP1 SSTORE POP POP POP JUMP JUMPDEST PUSH1 0x6 PUSH0 SWAP1 SLOAD SWAP1 PUSH2 0x100 EXP SWAP1 DIV PUSH20 0xFFFFFFFFFFFFFFFFFFFFFFFFFFFFFFFFFFFFFFFF AND DUP2 JUMP JUMPDEST PUSH1 0x3 PUSH0 SWAP1 SLOAD SWAP1 PUSH2 0x100 EXP SWAP1 DIV PUSH4 0xFFFFFFFF AND DUP2 JUMP JUMPDEST PUSH0 PUSH1 0xA PUSH0 DUP4 DUP2 MSTORE PUSH1 0x20 ADD SWAP1 DUP2 MSTORE PUSH1 0x20 ADD PUSH0 KECCAK256 PUSH1 0x2 ADD PUSH0 SWAP1 SLOAD SWAP1 PUSH2 0x100 EXP SWAP1 DIV PUSH8 0xFFFFFFFFFFFFFFFF AND PUSH8 0xFFFFFFFFFFFFFFFF AND SWAP1 POP SWAP2 SWAP1 POP JUMP JUMPDEST PUSH1 0x6 PUSH0 SWAP1 SLOAD SWAP1 PUSH2 0x100 EXP SWAP1 DIV PUSH20 0xFFFFFFFFFFFFFFFFFFFFFFFFFFFFFFFFFFFFFFFF AND PUSH20 0xFFFFFFFFFFFFFFFFFFFFFFFFFFFFFFFFFFFFFFFF AND CALLER PUSH20 0xFFFFFFFFFFFFFFFFFFFFFFFFFFFFFFFFFFFFFFFF AND EQ PUSH2 0x1370 JUMPI PUSH1 0x40 MLOAD PUSH32 0x8C379A000000000000000000000000000000000000000000000000000000000 DUP2 MSTORE PUSH1 0x4 ADD PUSH2 0x1367 SWAP1 PUSH2 0x2D90 JUMP JUMPDEST PUSH1 0x40 MLOAD DUP1 SWAP2 SUB SWAP1 REVERT JUMPDEST DUP1 DUP3 LT PUSH2 0x13B2 JUMPI PUSH1 0x40 MLOAD PUSH32 0x8C379A000000000000000000000000000000000000000000000000000000000 DUP2 MSTORE PUSH1 0x4 ADD PUSH2 0x13A9 SWAP1 PUSH2 0x34A2 JUMP JUMPDEST PUSH1 0x40 MLOAD DUP1 SWAP2 SUB SWAP1 REVERT JUMPDEST DUP2 PUSH1 0xD DUP2 SWAP1 SSTORE POP DUP1 PUSH1 0xE DUP2 SWAP1 SSTORE POP POP POP JUMP JUMPDEST PUSH1 0xB SLOAD DUP2 JUMP JUMPDEST PUSH1 0x60 PUSH1 0x10 DUP1 SLOAD DUP1 PUSH1 0x20 MUL PUSH1 0x20 ADD PUSH1 0x40 MLOAD SWAP1 DUP2 ADD PUSH1 0x40 MSTORE DUP1 SWAP3 SWAP2 SWAP1 DUP2 DUP2 MSTORE PUSH1 0x20 ADD DUP3 DUP1 SLOAD DUP1 ISZERO PUSH2 0x144B JUMPI PUSH1 0x20 MUL DUP3 ADD SWAP2 SWAP1 PUSH0 MSTORE PUSH1 0x20 PUSH0 KECCAK256 SWAP1 JUMPDEST DUP2 PUSH0 SWAP1 SLOAD SWAP1 PUSH2 0x100 EXP SWAP1 DIV PUSH20 0xFFFFFFFFFFFFFFFFFFFFFFFFFFFFFFFFFFFFFFFF AND PUSH20 0xFFFFFFFFFFFFFFFFFFFFFFFFFFFFFFFFFFFFFFFF AND DUP2 MSTORE PUSH1 0x20 ADD SWAP1 PUSH1 0x1 ADD SWAP1 DUP1 DUP4 GT PUSH2 0x1402 JUMPI JUMPDEST POP POP POP POP POP SWAP1 POP SWAP1 JUMP JUMPDEST PUSH0 PUSH1 0x2 PUSH0 PUSH1 0x3 PUSH0 SWAP1 SLOAD SWAP1 PUSH2 0x100 EXP SWAP1 DIV PUSH4 0xFFFFFFFF AND PUSH4 0xFFFFFFFF AND DUP2 MSTORE PUSH1 0x20 ADD SWAP1 DUP2 MSTORE PUSH1 0x20 ADD PUSH0 KECCAK256 SLOAD SWAP1 POP SWAP1 JUMP JUMPDEST PUSH1 0x6 PUSH0 SWAP1 SLOAD SWAP1 PUSH2 0x100 EXP SWAP1 DIV PUSH20 0xFFFFFFFFFFFFFFFFFFFFFFFFFFFFFFFFFFFFFFFF AND PUSH20 0xFFFFFFFFFFFFFFFFFFFFFFFFFFFFFFFFFFFFFFFF AND CALLER PUSH20 0xFFFFFFFFFFFFFFFFFFFFFFFFFFFFFFFFFFFFFFFF AND EQ PUSH2 0x1513 JUMPI PUSH1 0x40 MLOAD PUSH32 0x8C379A000000000000000000000000000000000000000000000000000000000 DUP2 MSTORE PUSH1 0x4 ADD PUSH2 0x150A SWAP1 PUSH2 0x2D90 JUMP JUMPDEST PUSH1 0x40 MLOAD DUP1 SWAP2 SUB SWAP1 REVERT JUMPDEST PUSH1 0xB SLOAD TIMESTAMP LT ISZERO DUP1 ISZERO PUSH2 0x1527 JUMPI POP PUSH1 0xC SLOAD TIMESTAMP GT ISZERO JUMPDEST PUSH2 0x1566 JUMPI PUSH1 0x40 MLOAD PUSH32 0x8C379A000000000000000000000000000000000000000000000000000000000 DUP2 MSTORE PUSH1 0x4 ADD PUSH2 0x155D SWAP1 PUSH2 0x3530 JUMP JUMPDEST PUSH1 0x40 MLOAD DUP1 SWAP2 SUB SWAP1 REVERT JUMPDEST PUSH1 0x7 PUSH0 DUP4 DUP2 MSTORE PUSH1 0x20 ADD SWAP1 DUP2 MSTORE PUSH1 0x20 ADD PUSH0 KECCAK256 PUSH0 SWAP1 SLOAD SWAP1 PUSH2 0x100 EXP SWAP1 DIV PUSH1 0xFF AND ISZERO PUSH2 0x15C4 JUMPI PUSH1 0x40 MLOAD PUSH32 0x8C379A000000000000000000000000000000000000000000000000000000000 DUP2 MSTORE PUSH1 0x4 ADD PUSH2 0x15BB SWAP1 PUSH2 0x35BE JUMP JUMPDEST PUSH1 0x40 MLOAD DUP1 SWAP2 SUB SWAP1 REVERT JUMPDEST PUSH1 0x1 PUSH1 0x7 PUSH0 DUP5 DUP2 MSTORE PUSH1 0x20 ADD SWAP1 DUP2 MSTORE PUSH1 0x20 ADD PUSH0 KECCAK256 PUSH0 PUSH2 0x100 EXP DUP2 SLOAD DUP2 PUSH1 0xFF MUL NOT AND SWAP1 DUP4 ISZERO ISZERO MUL OR SWAP1 SSTORE POP DUP1 PUSH1 0x8 PUSH0 DUP5 DUP2 MSTORE PUSH1 0x20 ADD SWAP1 DUP2 MSTORE PUSH1 0x20 ADD PUSH0 KECCAK256 DUP2 SWAP1 SSTORE POP PUSH2 0x160E DUP2 PUSH0 SHL PUSH2 0x1EF2 JUMP JUMPDEST PUSH1 0x1 PUSH1 0x7 PUSH0 DUP5 DUP2 MSTORE PUSH1 0x20 ADD SWAP1 DUP2 MSTORE PUSH1 0x20 ADD PUSH0 KECCAK256 PUSH0 PUSH2 0x100 EXP DUP2 SLOAD DUP2 PUSH1 0xFF MUL NOT AND SWAP1 DUP4 ISZERO ISZERO MUL OR SWAP1 SSTORE POP POP POP JUMP JUMPDEST PUSH1 0x7 PUSH1 0x20 MSTORE DUP1 PUSH0 MSTORE PUSH1 0x40 PUSH0 KECCAK256 PUSH0 SWAP2 POP SLOAD SWAP1 PUSH2 0x100 EXP SWAP1 DIV PUSH1 0xFF AND DUP2 JUMP JUMPDEST PUSH1 0x2 PUSH1 0x20 MSTORE DUP1 PUSH0 MSTORE PUSH1 0x40 PUSH0 KECCAK256 PUSH0 SWAP2 POP SWAP1 POP SLOAD DUP2 JUMP JUMPDEST PUSH1 0x1E DUP2 JUMP JUMPDEST PUSH1 0xD SLOAD TIMESTAMP LT ISZERO DUP1 ISZERO PUSH2 0x1686 JUMPI POP PUSH1 0xE SLOAD TIMESTAMP GT ISZERO JUMPDEST PUSH2 0x16C5 JUMPI PUSH1 0x40 MLOAD PUSH32 0x8C379A000000000000000000000000000000000000000000000000000000000 DUP2 MSTORE PUSH1 0x4 ADD PUSH2 0x16BC SWAP1 PUSH2 0x3626 JUMP JUMPDEST PUSH1 0x40 MLOAD DUP1 SWAP2 SUB SWAP1 REVERT JUMPDEST PUSH1 0x9 SLOAD DUP7 LT PUSH2 0x1709 JUMPI PUSH1 0x40 MLOAD PUSH32 0x8C379A000000000000000000000000000000000000000000000000000000000 DUP2 MSTORE PUSH1 0x4 ADD PUSH2 0x1700 SWAP1 PUSH2 0x368E JUMP JUMPDEST PUSH1 0x40 MLOAD DUP1 SWAP2 SUB SWAP1 REVERT JUMPDEST PUSH1 0xA PUSH0 DUP8 DUP2 MSTORE PUSH1 0x20 ADD SWAP1 DUP2 MSTORE PUSH1 0x20 ADD PUSH0 KECCAK256 PUSH1 0x2 ADD PUSH1 0x8 SWAP1 SLOAD SWAP1 PUSH2 0x100 EXP SWAP1 DIV PUSH1 0xFF AND PUSH2 0x176A JUMPI PUSH1 0x40 MLOAD PUSH32 0x8C379A000000000000000000000000000000000000000000000000000000000 DUP2 MSTORE PUSH1 0x4 ADD PUSH2 0x1761 SWAP1 PUSH2 0x36F6 JUMP JUMPDEST PUSH1 0x40 MLOAD DUP1 SWAP2 SUB SWAP1 REVERT JUMPDEST PUSH2 0x177B DUP6 PUSH0 SHL DUP6 PUSH0 SHL DUP6 DUP6 DUP6 PUSH2 0x1FC3 JUMP JUMPDEST PUSH1 0xA PUSH0 DUP8 DUP2 MSTORE PUSH1 0x20 ADD SWAP1 DUP2 MSTORE PUSH1 0x20 ADD PUSH0 KECCAK256 PUSH1 0x2 ADD PUSH0 DUP2 DUP2 SWAP1 SLOAD SWAP1 PUSH2 0x100 EXP SWAP1 DIV PUSH8 0xFFFFFFFFFFFFFFFF AND DUP1 SWAP3 SWAP2 SWAP1 PUSH2 0x17B2 SWAP1 PUSH2 0x3714 JUMP JUMPDEST SWAP2 SWAP1 PUSH2 0x100 EXP DUP2 SLOAD DUP2 PUSH8 0xFFFFFFFFFFFFFFFF MUL NOT AND SWAP1 DUP4 PUSH8 0xFFFFFFFFFFFFFFFF AND MUL OR SWAP1 SSTORE POP POP POP POP POP POP POP POP JUMP JUMPDEST PUSH1 0xF DUP2 DUP2 SLOAD DUP2 LT PUSH2 0x17F0 JUMPI PUSH0 DUP1 REVERT JUMPDEST SWAP1 PUSH0 MSTORE PUSH1 0x20 PUSH0 KECCAK256 ADD PUSH0 SWAP2 POP SWAP1 POP SLOAD DUP2 JUMP JUMPDEST PUSH0 PUSH0 DUP3 SUB PUSH2 0x1833 JUMPI PUSH32 0x2FE54C60D3ACABF3343A35B6EBA15DB4821B340F76E741E2249685ED4899AF6C PUSH0 SHL SWAP1 POP PUSH2 0x1E7A JUMP JUMPDEST PUSH1 0x1 DUP3 SUB PUSH2 0x1865 JUMPI PUSH32 0x256A6135777EEE2FD26F54B8B7037A25439D5235CAEE224154186D2B8A52E31D PUSH0 SHL SWAP1 POP PUSH2 0x1E7A JUMP JUMPDEST PUSH1 0x2 DUP3 SUB PUSH2 0x1897 JUMPI PUSH32 0x1151949895E82AB19924DE92C40A3D6F7BCB60D92B00504B8199613683F0C200 PUSH0 SHL SWAP1 POP PUSH2 0x1E7A JUMP JUMPDEST PUSH1 0x3 DUP3 SUB PUSH2 0x18C9 JUMPI PUSH32 0x20121EE811489FF8D61F09FB89E313F14959A0F28BB428A20DBA6B0B068B3BDB PUSH0 SHL SWAP1 POP PUSH2 0x1E7A JUMP JUMPDEST PUSH1 0x4 DUP3 SUB PUSH2 0x18FB JUMPI PUSH32 0xA89CA6FFA14CC462CFEDB842C30ED221A50A3D6BF022A6A57DC82AB24C157C9 PUSH0 SHL SWAP1 POP PUSH2 0x1E7A JUMP JUMPDEST PUSH1 0x5 DUP3 SUB PUSH2 0x192D JUMPI PUSH32 0x24CA05C2B5CD42E890D6BE94C68D0689F4F21C9CEC9C0F13FE41D566DFB54959 PUSH0 SHL SWAP1 POP PUSH2 0x1E7A JUMP JUMPDEST PUSH1 0x6 DUP3 SUB PUSH2 0x195F JUMPI PUSH32 0x1CCB97C932565A92C60156BDBA2D08F3BF1377464E025CEE765679E604A7315C PUSH0 SHL SWAP1 POP PUSH2 0x1E7A JUMP JUMPDEST PUSH1 0x7 DUP3 SUB PUSH2 0x1991 JUMPI PUSH32 0x19156FBD7D1A8BF5CBA8909367DE1B624534EBAB4F0F79E003BCCDD1B182BDB4 PUSH0 SHL SWAP1 POP PUSH2 0x1E7A JUMP JUMPDEST PUSH1 0x8 DUP3 SUB PUSH2 0x19C3 JUMPI PUSH32 0x261AF8C1F0912E465744641409F622D466C3920AC6E5FF37E36604CB11DFFF80 PUSH0 SHL SWAP1 POP PUSH2 0x1E7A JUMP JUMPDEST PUSH1 0x9 DUP3 SUB PUSH2 0x19F4 JUMPI PUSH31 0x58459724FF6CA5A1652FCBC3E82B93895CF08E975B19BEAB3F54C217D1C007 PUSH0 SHL SWAP1 POP PUSH2 0x1E7A JUMP JUMPDEST PUSH1 0xA DUP3 SUB PUSH2 0x1A26 JUMPI PUSH32 0x1F04EF20DEE48D39984D8EABE768A70EAFA6310AD20849D4573C3C40C2AD1E30 PUSH0 SHL SWAP1 POP PUSH2 0x1E7A JUMP JUMPDEST PUSH1 0xB DUP3 SUB PUSH2 0x1A58 JUMPI PUSH32 0x1BEA3DEC5DAB51567CE7E200A30F7BA6D4276AEAA53E2686F962A46C66D511E5 PUSH0 SHL SWAP1 POP PUSH2 0x1E7A JUMP JUMPDEST PUSH1 0xC DUP3 SUB PUSH2 0x1A8A JUMPI PUSH32 0xEE0F941E2DA4B9E31C3CA97A40D8FA9CE68D97C084177071B3CB46CD3372F0F PUSH0 SHL SWAP1 POP PUSH2 0x1E7A JUMP JUMPDEST PUSH1 0xD DUP3 SUB PUSH2 0x1ABC JUMPI PUSH32 0x1CA9503E8935884501BBAF20BE14EB4C46B89772C97B96E3B2EBF3A36A948BBD PUSH0 SHL SWAP1 POP PUSH2 0x1E7A JUMP JUMPDEST PUSH1 0xE DUP3 SUB PUSH2 0x1AEE JUMPI PUSH32 0x133A80E30697CD55D8F7D4B0965B7BE24057BA5DC3DA898EE2187232446CB108 PUSH0 SHL SWAP1 POP PUSH2 0x1E7A JUMP JUMPDEST PUSH1 0xF DUP3 SUB PUSH2 0x1B20 JUMPI PUSH32 0x13E6D8FC88839ED76E182C2A779AF5B2C0DA9DD18C90427A644F7E148A6253B6 PUSH0 SHL SWAP1 POP PUSH2 0x1E7A JUMP JUMPDEST PUSH1 0x10 DUP3 SUB PUSH2 0x1B52 JUMPI PUSH32 0x1EB16B057A477F4BC8F572EA6BEE39561098F78F15BFB3699DCBB7BD8DB61854 PUSH0 SHL SWAP1 POP PUSH2 0x1E7A JUMP JUMPDEST PUSH1 0x11 DUP3 SUB PUSH2 0x1B84 JUMPI PUSH32 0xDA2CB16A1CEAABF1C16B838F7A9E3F2A3A3088D9E0A6DEBAA748114620696EA PUSH0 SHL SWAP1 POP PUSH2 0x1E7A JUMP JUMPDEST PUSH1 0x12 DUP3 SUB PUSH2 0x1BB6 JUMPI PUSH32 0x24A3B3D822420B14B5D8CB6C28A574F01E98EA9E940551D2EBD75CEE12649F9D PUSH0 SHL SWAP1 POP PUSH2 0x1E7A JUMP JUMPDEST PUSH1 0x13 DUP3 SUB PUSH2 0x1BE8 JUMPI PUSH32 0x198622ACBD783D1B0D9064105B1FC8E4D8889DE95C4C519B3F635809FE6AFC05 PUSH0 SHL SWAP1 POP PUSH2 0x1E7A JUMP JUMPDEST PUSH1 0x14 DUP3 SUB PUSH2 0x1C1A JUMPI PUSH32 0x29D7ED391256CCC3EA596C86E933B89FF339D25EA8DDCED975AE2FE30B5296D4 PUSH0 SHL SWAP1 POP PUSH2 0x1E7A JUMP JUMPDEST PUSH1 0x15 DUP3 SUB PUSH2 0x1C4C JUMPI PUSH32 0x19BE59F2F0413CE78C0C3703A3A5451B1D7F39629FA33ABD11548A76065B2967 PUSH0 SHL SWAP1 POP PUSH2 0x1E7A JUMP JUMPDEST PUSH1 0x16 DUP3 SUB PUSH2 0x1C7E JUMPI PUSH32 0x1FF3F61797E538B70E619310D33F2A063E7EB59104E112E95738DA1254DC3453 PUSH0 SHL SWAP1 POP PUSH2 0x1E7A JUMP JUMPDEST PUSH1 0x17 DUP3 SUB PUSH2 0x1CB0 JUMPI PUSH32 0x10C16AE9959CF8358980D9DD9616E48228737310A10E2B6B731C1A548F036C48 PUSH0 SHL SWAP1 POP PUSH2 0x1E7A JUMP JUMPDEST PUSH1 0x18 DUP3 SUB PUSH2 0x1CE2 JUMPI PUSH32 0xBA433A63174A90AC20992E75E3095496812B652685B5E1A2EAE0B1BF4E8FCD1 PUSH0 SHL SWAP1 POP PUSH2 0x1E7A JUMP JUMPDEST PUSH1 0x19 DUP3 SUB PUSH2 0x1D14 JUMPI PUSH32 0x19DDB9DF2BC98D987D0DFECA9D2B643DEAFAB8F7036562E627C3667266A044C PUSH0 SHL SWAP1 POP PUSH2 0x1E7A JUMP JUMPDEST PUSH1 0x1A DUP3 SUB PUSH2 0x1D46 JUMPI PUSH32 0x2D3C88B23175C5A5565DB928414C66D1912B11ACF974B2E644CAAAC04739CE99 PUSH0 SHL SWAP1 POP PUSH2 0x1E7A JUMP JUMPDEST PUSH1 0x1B DUP3 SUB PUSH2 0x1D78 JUMPI PUSH32 0x2EAB55F6AE4E66E32C5189EED5C470840863445760F5ED7E7B69B2A62600F354 PUSH0 SHL SWAP1 POP PUSH2 0x1E7A JUMP JUMPDEST PUSH1 0x1C DUP3 SUB PUSH2 0x1DA9 JUMPI PUSH31 0x2DF37A2642621802383CF952BF4DD1F32E05433BEEB1FD41031FB7EACE979D PUSH0 SHL SWAP1 POP PUSH2 0x1E7A JUMP JUMPDEST PUSH1 0x1D DUP3 SUB PUSH2 0x1DDB JUMPI PUSH32 0x104AEB41435DB66C3E62FECCC1D6F5D98D0A0ED75D1374DB457CF462E3A1F427 PUSH0 SHL SWAP1 POP PUSH2 0x1E7A JUMP JUMPDEST PUSH1 0x1E DUP3 SUB PUSH2 0x1E0D JUMPI PUSH32 0x1F3C6FD858E9A7D4B0D1F38E256A09D81D5A5E3C963987E2D4B814CFAB7C6EBB PUSH0 SHL SWAP1 POP PUSH2 0x1E7A JUMP JUMPDEST PUSH1 0x1F DUP3 SUB PUSH2 0x1E3F JUMPI PUSH32 0x2C7A07D20DFF79D01FECEDC1134284A8D08436606C93693B67E333F671BF69CC PUSH0 SHL SWAP1 POP PUSH2 0x1E7A JUMP JUMPDEST PUSH1 0x40 MLOAD PUSH32 0x8C379A000000000000000000000000000000000000000000000000000000000 DUP2 MSTORE PUSH1 0x4 ADD PUSH2 0x1E71 SWAP1 PUSH2 0x378D JUMP JUMPDEST PUSH1 0x40 MLOAD DUP1 SWAP2 SUB SWAP1 REVERT JUMPDEST SWAP2 SWAP1 POP JUMP JUMPDEST PUSH32 0x2FE54C60D3ACABF3343A35B6EBA15DB4821B340F76E741E2249685ED4899AF6C DUP2 JUMP JUMPDEST PUSH32 0x0 DUP2 JUMP JUMPDEST PUSH1 0x1 PUSH1 0x20 MSTORE DUP1 PUSH0 MSTORE PUSH1 0x40 PUSH0 KECCAK256 PUSH0 SWAP2 POP SWAP1 POP SLOAD DUP2 JUMP JUMPDEST PUSH1 0x3 PUSH1 0x4 SWAP1 SLOAD SWAP1 PUSH2 0x100 EXP SWAP1 DIV PUSH4 0xFFFFFFFF AND DUP2 JUMP JUMPDEST PUSH1 0x5 PUSH0 DUP3 DUP2 MSTORE PUSH1 0x20 ADD SWAP1 DUP2 MSTORE PUSH1 0x20 ADD PUSH0 KECCAK256 PUSH0 SWAP1 SLOAD SWAP1 PUSH2 0x100 EXP SWAP1 DIV PUSH1 0xFF AND ISZERO PUSH2 0x1F50 JUMPI PUSH1 0x40 MLOAD PUSH32 0x8C379A000000000000000000000000000000000000000000000000000000000 DUP2 MSTORE PUSH1 0x4 ADD PUSH2 0x1F47 SWAP1 PUSH2 0x381B JUMP JUMPDEST PUSH1 0x40 MLOAD DUP1 SWAP2 SUB SWAP1 REVERT JUMPDEST PUSH1 0x1 PUSH1 0x5 PUSH0 DUP4 DUP2 MSTORE PUSH1 0x20 ADD SWAP1 DUP2 MSTORE PUSH1 0x20 ADD PUSH0 KECCAK256 PUSH0 PUSH2 0x100 EXP DUP2 SLOAD DUP2 PUSH1 0xFF MUL NOT AND SWAP1 DUP4 ISZERO ISZERO MUL OR SWAP1 SSTORE POP PUSH0 PUSH2 0x1F83 DUP3 PUSH2 0x218E JUMP JUMPDEST SWAP1 POP DUP2 PUSH32 0x401999886E5F90A91B92A0BFB7E2D48F714651A4D1C929BB3A753525BA066B91 DUP3 TIMESTAMP PUSH1 0x40 MLOAD PUSH2 0x1FB7 SWAP3 SWAP2 SWAP1 PUSH2 0x3839 JUMP JUMPDEST PUSH1 0x40 MLOAD DUP1 SWAP2 SUB SWAP1 LOG2 POP POP JUMP JUMPDEST PUSH1 0x4 PUSH0 DUP7 DUP2 MSTORE PUSH1 0x20 ADD SWAP1 DUP2 MSTORE PUSH1 0x20 ADD PUSH0 KECCAK256 PUSH0 SWAP1 SLOAD SWAP1 PUSH2 0x100 EXP SWAP1 DIV PUSH1 0xFF AND ISZERO PUSH2 0x2021 JUMPI PUSH1 0x40 MLOAD PUSH32 0x8C379A000000000000000000000000000000000000000000000000000000000 DUP2 MSTORE PUSH1 0x4 ADD PUSH2 0x2018 SWAP1 PUSH2 0x38AA JUMP JUMPDEST PUSH1 0x40 MLOAD DUP1 SWAP2 SUB SWAP1 REVERT JUMPDEST PUSH2 0x202A DUP5 PUSH2 0x10AC JUMP JUMPDEST PUSH2 0x2069 JUMPI PUSH1 0x40 MLOAD PUSH32 0x8C379A000000000000000000000000000000000000000000000000000000000 DUP2 MSTORE PUSH1 0x4 ADD PUSH2 0x2060 SWAP1 PUSH2 0x3912 JUMP JUMPDEST PUSH1 0x40 MLOAD DUP1 SWAP2 SUB SWAP1 REVERT JUMPDEST PUSH32 0x0 PUSH20 0xFFFFFFFFFFFFFFFFFFFFFFFFFFFFFFFFFFFFFFFF AND PUSH4 0xF5C9D69E DUP5 DUP5 DUP5 PUSH1 0x40 MLOAD DUP1 PUSH1 0x40 ADD PUSH1 0x40 MSTORE DUP1 DUP12 PUSH0 SHR DUP2 MSTORE PUSH1 0x20 ADD DUP11 PUSH0 SHR DUP2 MSTORE POP PUSH1 0x40 MLOAD DUP6 PUSH4 0xFFFFFFFF AND PUSH1 0xE0 SHL DUP2 MSTORE PUSH1 0x4 ADD PUSH2 0x20E0 SWAP5 SWAP4 SWAP3 SWAP2 SWAP1 PUSH2 0x3ACB JUMP JUMPDEST PUSH1 0x20 PUSH1 0x40 MLOAD DUP1 DUP4 SUB DUP2 DUP7 GAS STATICCALL ISZERO DUP1 ISZERO PUSH2 0x20FB JUMPI RETURNDATASIZE PUSH0 PUSH0 RETURNDATACOPY RETURNDATASIZE PUSH0 REVERT JUMPDEST POP POP POP POP PUSH1 0x40 MLOAD RETURNDATASIZE PUSH1 0x1F NOT PUSH1 0x1F DUP3 ADD AND DUP3 ADD DUP1 PUSH1 0x40 MSTORE POP DUP2 ADD SWAP1 PUSH2 0x211F SWAP2 SWAP1 PUSH2 0x3B3A JUMP JUMPDEST PUSH2 0x215E JUMPI PUSH1 0x40 MLOAD PUSH32 0x8C379A000000000000000000000000000000000000000000000000000000000 DUP2 MSTORE PUSH1 0x4 ADD PUSH2 0x2155 SWAP1 PUSH2 0x3BAF JUMP JUMPDEST PUSH1 0x40 MLOAD DUP1 SWAP2 SUB SWAP1 REVERT JUMPDEST PUSH1 0x1 PUSH1 0x4 PUSH0 DUP8 DUP2 MSTORE PUSH1 0x20 ADD SWAP1 DUP2 MSTORE PUSH1 0x20 ADD PUSH0 KECCAK256 PUSH0 PUSH2 0x100 EXP DUP2 SLOAD DUP2 PUSH1 0xFF MUL NOT AND SWAP1 DUP4 ISZERO ISZERO MUL OR SWAP1 SSTORE POP POP POP POP POP POP JUMP JUMPDEST PUSH0 PUSH0 PUSH1 0x3 PUSH1 0x4 SWAP1 SLOAD SWAP1 PUSH2 0x100 EXP SWAP1 DIV PUSH4 0xFFFFFFFF AND SWAP1 POP PUSH0 PUSH0 SWAP1 SLOAD SWAP1 PUSH2 0x100 EXP SWAP1 DIV PUSH4 0xFFFFFFFF AND PUSH1 0x2 PUSH2 0x21C2 SWAP2 SWAP1 PUSH2 0x3CFC JUMP JUMPDEST PUSH4 0xFFFFFFFF AND DUP2 PUSH4 0xFFFFFFFF AND SUB PUSH2 0x220F JUMPI PUSH1 0x40 MLOAD PUSH32 0x8C379A000000000000000000000000000000000000000000000000000000000 DUP2 MSTORE PUSH1 0x4 ADD PUSH2 0x2206 SWAP1 PUSH2 0x3D9A JUMP JUMPDEST PUSH1 0x40 MLOAD DUP1 SWAP2 SUB SWAP1 REVERT JUMPDEST PUSH0 DUP2 SWAP1 POP PUSH0 DUP5 SWAP1 POP PUSH0 PUSH0 PUSH0 PUSH0 SWAP1 POP JUMPDEST PUSH0 PUSH0 SWAP1 SLOAD SWAP1 PUSH2 0x100 EXP SWAP1 DIV PUSH4 0xFFFFFFFF AND PUSH4 0xFFFFFFFF AND DUP2 PUSH4 0xFFFFFFFF AND LT ISZERO PUSH2 0x22DA JUMPI PUSH0 PUSH1 0x2 DUP7 PUSH2 0x2250 SWAP2 SWAP1 PUSH2 0x3DB8 JUMP JUMPDEST PUSH4 0xFFFFFFFF AND SUB PUSH2 0x2290 JUMPI DUP4 SWAP3 POP PUSH2 0x226D DUP2 PUSH4 0xFFFFFFFF AND PUSH2 0x1801 JUMP JUMPDEST SWAP2 POP DUP4 PUSH1 0x1 PUSH0 DUP4 PUSH4 0xFFFFFFFF AND DUP2 MSTORE PUSH1 0x20 ADD SWAP1 DUP2 MSTORE PUSH1 0x20 ADD PUSH0 KECCAK256 DUP2 SWAP1 SSTORE POP PUSH2 0x22AE JUMP JUMPDEST PUSH1 0x1 PUSH0 DUP3 PUSH4 0xFFFFFFFF AND DUP2 MSTORE PUSH1 0x20 ADD SWAP1 DUP2 MSTORE PUSH1 0x20 ADD PUSH0 KECCAK256 SLOAD SWAP3 POP DUP4 SWAP2 POP JUMPDEST PUSH2 0x22BC DUP4 PUSH0 SHR DUP4 PUSH0 SHR PUSH2 0xC2B JUMP JUMPDEST SWAP4 POP PUSH1 0x2 DUP6 PUSH2 0x22CB SWAP2 SWAP1 PUSH2 0x3DE8 JUMP JUMPDEST SWAP5 POP DUP1 DUP1 PUSH1 0x1 ADD SWAP2 POP POP PUSH2 0x221E JUMP JUMPDEST POP PUSH0 PUSH1 0x1E PUSH1 0x1 PUSH1 0x3 PUSH0 SWAP1 SLOAD SWAP1 PUSH2 0x100 EXP SWAP1 DIV PUSH4 0xFFFFFFFF AND PUSH2 0x22FC SWAP2 SWAP1 PUSH2 0x3E18 JUMP JUMPDEST PUSH2 0x2306 SWAP2 SWAP1 PUSH2 0x3DB8 JUMP JUMPDEST SWAP1 POP DUP1 PUSH1 0x3 PUSH0 PUSH2 0x100 EXP DUP2 SLOAD DUP2 PUSH4 0xFFFFFFFF MUL NOT AND SWAP1 DUP4 PUSH4 0xFFFFFFFF AND MUL OR SWAP1 SSTORE POP DUP4 PUSH1 0x2 PUSH0 DUP4 PUSH4 0xFFFFFFFF AND DUP2 MSTORE PUSH1 0x20 ADD SWAP1 DUP2 MSTORE PUSH1 0x20 ADD PUSH0 KECCAK256 DUP2 SWAP1 SSTORE POP PUSH1 0x1 DUP7 PUSH2 0x2351 SWAP2 SWAP1 PUSH2 0x3E18 JUMP JUMPDEST PUSH1 0x3 PUSH1 0x4 PUSH2 0x100 EXP DUP2 SLOAD DUP2 PUSH4 0xFFFFFFFF MUL NOT AND SWAP1 DUP4 PUSH4 0xFFFFFFFF AND MUL OR SWAP1 SSTORE POP DUP6 SWAP7 POP POP POP POP POP POP POP SWAP2 SWAP1 POP JUMP JUMPDEST POP DUP1 SLOAD PUSH2 0x238B SWAP1 PUSH2 0x2E70 JUMP JUMPDEST PUSH0 DUP3 SSTORE DUP1 PUSH1 0x1F LT PUSH2 0x239C JUMPI POP PUSH2 0x23B9 JUMP JUMPDEST PUSH1 0x1F ADD PUSH1 0x20 SWAP1 DIV SWAP1 PUSH0 MSTORE PUSH1 0x20 PUSH0 KECCAK256 SWAP1 DUP2 ADD SWAP1 PUSH2 0x23B8 SWAP2 SWAP1 PUSH2 0x23BC JUMP JUMPDEST JUMPDEST POP JUMP JUMPDEST JUMPDEST DUP1 DUP3 GT ISZERO PUSH2 0x23D3 JUMPI PUSH0 DUP2 PUSH0 SWAP1 SSTORE POP PUSH1 0x1 ADD PUSH2 0x23BD JUMP JUMPDEST POP SWAP1 JUMP JUMPDEST PUSH0 DUP2 SWAP1 POP SWAP2 SWAP1 POP JUMP JUMPDEST PUSH2 0x23E9 DUP2 PUSH2 0x23D7 JUMP JUMPDEST DUP3 MSTORE POP POP JUMP JUMPDEST PUSH0 PUSH1 0x20 DUP3 ADD SWAP1 POP PUSH2 0x2402 PUSH0 DUP4 ADD DUP5 PUSH2 0x23E0 JUMP JUMPDEST SWAP3 SWAP2 POP POP JUMP JUMPDEST PUSH0 PUSH1 0x40 MLOAD SWAP1 POP SWAP1 JUMP JUMPDEST PUSH0 PUSH0 REVERT JUMPDEST PUSH0 PUSH0 REVERT JUMPDEST PUSH2 0x2422 DUP2 PUSH2 0x23D7 JUMP JUMPDEST DUP2 EQ PUSH2 0x242C JUMPI PUSH0 PUSH0 REVERT JUMPDEST POP JUMP JUMPDEST PUSH0 DUP2 CALLDATALOAD SWAP1 POP PUSH2 0x243D DUP2 PUSH2 0x2419 JUMP JUMPDEST SWAP3 SWAP2 POP POP JUMP JUMPDEST PUSH0 PUSH1 0x20 DUP3 DUP5 SUB SLT ISZERO PUSH2 0x2458 JUMPI PUSH2 0x2457 PUSH2 0x2411 JUMP JUMPDEST JUMPDEST PUSH0 PUSH2 0x2465 DUP5 DUP3 DUP6 ADD PUSH2 0x242F JUMP JUMPDEST SWAP2 POP POP SWAP3 SWAP2 POP POP JUMP JUMPDEST PUSH0 DUP2 SWAP1 POP SWAP2 SWAP1 POP JUMP JUMPDEST PUSH2 0x2480 DUP2 PUSH2 0x246E JUMP JUMPDEST DUP2 EQ PUSH2 0x248A JUMPI PUSH0 PUSH0 REVERT JUMPDEST POP JUMP JUMPDEST PUSH0 DUP2 CALLDATALOAD SWAP1 POP PUSH2 0x249B DUP2 PUSH2 0x2477 JUMP JUMPDEST SWAP3 SWAP2 POP POP JUMP JUMPDEST PUSH0 PUSH1 0x20 DUP3 DUP5 SUB SLT ISZERO PUSH2 0x24B6 JUMPI PUSH2 0x24B5 PUSH2 0x2411 JUMP JUMPDEST JUMPDEST PUSH0 PUSH2 0x24C3 DUP5 DUP3 DUP6 ADD PUSH2 0x248D JUMP JUMPDEST SWAP2 POP POP SWAP3 SWAP2 POP POP JUMP JUMPDEST PUSH0 DUP2 ISZERO ISZERO SWAP1 POP SWAP2 SWAP1 POP JUMP JUMPDEST PUSH2 0x24E0 DUP2 PUSH2 0x24CC JUMP JUMPDEST DUP3 MSTORE POP POP JUMP JUMPDEST PUSH0 PUSH1 0x20 DUP3 ADD SWAP1 POP PUSH2 0x24F9 PUSH0 DUP4 ADD DUP5 PUSH2 0x24D7 JUMP JUMPDEST SWAP3 SWAP2 POP POP JUMP JUMPDEST PUSH0 PUSH20 0xFFFFFFFFFFFFFFFFFFFFFFFFFFFFFFFFFFFFFFFF DUP3 AND SWAP1 POP SWAP2 SWAP1 POP JUMP JUMPDEST PUSH0 DUP2 SWAP1 POP SWAP2 SWAP1 POP JUMP JUMPDEST PUSH0 PUSH2 0x2541 PUSH2 0x253C PUSH2 0x2537 DUP5 PUSH2 0x24FF JUMP JUMPDEST PUSH2 0x251E JUMP JUMPDEST PUSH2 0x24FF JUMP JUMPDEST SWAP1 POP SWAP2 SWAP1 POP JUMP JUMPDEST PUSH0 PUSH2 0x2552 DUP3 PUSH2 0x2527 JUMP JUMPDEST SWAP1 POP SWAP2 SWAP1 POP JUMP JUMPDEST PUSH0 PUSH2 0x2563 DUP3 PUSH2 0x2548 JUMP JUMPDEST SWAP1 POP SWAP2 SWAP1 POP JUMP JUMPDEST PUSH2 0x2573 DUP2 PUSH2 0x2559 JUMP JUMPDEST DUP3 MSTORE POP POP JUMP JUMPDEST PUSH0 PUSH1 0x20 DUP3 ADD SWAP1 POP PUSH2 0x258C PUSH0 DUP4 ADD DUP5 PUSH2 0x256A JUMP JUMPDEST SWAP3 SWAP2 POP POP JUMP JUMPDEST PUSH0 DUP2 MLOAD SWAP1 POP SWAP2 SWAP1 POP JUMP JUMPDEST PUSH0 DUP3 DUP3 MSTORE PUSH1 0x20 DUP3 ADD SWAP1 POP SWAP3 SWAP2 POP POP JUMP JUMPDEST PUSH0 DUP2 SWAP1 POP PUSH1 0x20 DUP3 ADD SWAP1 POP SWAP2 SWAP1 POP JUMP JUMPDEST PUSH0 DUP2 MLOAD SWAP1 POP SWAP2 SWAP1 POP JUMP JUMPDEST PUSH0 DUP3 DUP3 MSTORE PUSH1 0x20 DUP3 ADD SWAP1 POP SWAP3 SWAP2 POP POP JUMP JUMPDEST DUP3 DUP2 DUP4 MCOPY PUSH0 DUP4 DUP4 ADD MSTORE POP POP POP JUMP JUMPDEST PUSH0 PUSH1 0x1F NOT PUSH1 0x1F DUP4 ADD AND SWAP1 POP SWAP2 SWAP1 POP JUMP JUMPDEST PUSH0 PUSH2 0x25FD DUP3 PUSH2 0x25BB JUMP JUMPDEST PUSH2 0x2607 DUP2 DUP6 PUSH2 0x25C5 JUMP JUMPDEST SWAP4 POP PUSH2 0x2617 DUP2 DUP6 PUSH1 0x20 DUP7 ADD PUSH2 0x25D5 JUMP JUMPDEST PUSH2 0x2620 DUP2 PUSH2 0x25E3 JUMP JUMPDEST DUP5 ADD SWAP2 POP POP SWAP3 SWAP2 POP POP JUMP JUMPDEST PUSH0 PUSH2 0x2636 DUP4 DUP4 PUSH2 0x25F3 JUMP JUMPDEST SWAP1 POP SWAP3 SWAP2 POP POP JUMP JUMPDEST PUSH0 PUSH1 0x20 DUP3 ADD SWAP1 POP SWAP2 SWAP1 POP JUMP JUMPDEST PUSH0 PUSH2 0x2654 DUP3 PUSH2 0x2592 JUMP JUMPDEST PUSH2 0x265E DUP2 DUP6 PUSH2 0x259C JUMP JUMPDEST SWAP4 POP DUP4 PUSH1 0x20 DUP3 MUL DUP6 ADD PUSH2 0x2670 DUP6 PUSH2 0x25AC JUMP JUMPDEST DUP1 PUSH0 JUMPDEST DUP6 DUP2 LT ISZERO PUSH2 0x26AB JUMPI DUP5 DUP5 SUB DUP10 MSTORE DUP2 MLOAD PUSH2 0x268C DUP6 DUP3 PUSH2 0x262B JUMP JUMPDEST SWAP5 POP PUSH2 0x2697 DUP4 PUSH2 0x263E JUMP JUMPDEST SWAP3 POP PUSH1 0x20 DUP11 ADD SWAP10 POP POP PUSH1 0x1 DUP2 ADD SWAP1 POP PUSH2 0x2673 JUMP JUMPDEST POP DUP3 SWAP8 POP DUP8 SWAP6 POP POP POP POP POP POP SWAP3 SWAP2 POP POP JUMP JUMPDEST PUSH0 PUSH1 0x40 DUP3 ADD SWAP1 POP PUSH2 0x26D0 PUSH0 DUP4 ADD DUP6 PUSH2 0x23E0 JUMP JUMPDEST DUP2 DUP2 SUB PUSH1 0x20 DUP4 ADD MSTORE PUSH2 0x26E2 DUP2 DUP5 PUSH2 0x264A JUMP JUMPDEST SWAP1 POP SWAP4 SWAP3 POP POP POP JUMP JUMPDEST PUSH0 PUSH8 0xFFFFFFFFFFFFFFFF DUP3 AND SWAP1 POP SWAP2 SWAP1 POP JUMP JUMPDEST PUSH2 0x2707 DUP2 PUSH2 0x26EB JUMP JUMPDEST DUP3 MSTORE POP POP JUMP JUMPDEST PUSH0 DUP3 DUP3 MSTORE PUSH1 0x20 DUP3 ADD SWAP1 POP SWAP3 SWAP2 POP POP JUMP JUMPDEST PUSH0 PUSH2 0x2727 DUP3 PUSH2 0x25BB JUMP JUMPDEST PUSH2 0x2731 DUP2 DUP6 PUSH2 0x270D JUMP JUMPDEST SWAP4 POP PUSH2 0x2741 DUP2 DUP6 PUSH1 0x20 DUP7 ADD PUSH2 0x25D5 JUMP JUMPDEST PUSH2 0x274A DUP2 PUSH2 0x25E3 JUMP JUMPDEST DUP5 ADD SWAP2 POP POP SWAP3 SWAP2 POP POP JUMP JUMPDEST PUSH0 PUSH1 0x80 DUP3 ADD SWAP1 POP PUSH2 0x2768 PUSH0 DUP4 ADD DUP8 PUSH2 0x26FE JUMP JUMPDEST DUP2 DUP2 SUB PUSH1 0x20 DUP4 ADD MSTORE PUSH2 0x277A DUP2 DUP7 PUSH2 0x271D JUMP JUMPDEST SWAP1 POP PUSH2 0x2789 PUSH1 0x40 DUP4 ADD DUP6 PUSH2 0x26FE JUMP JUMPDEST PUSH2 0x2796 PUSH1 0x60 DUP4 ADD DUP5 PUSH2 0x24D7 JUMP JUMPDEST SWAP6 SWAP5 POP POP POP POP POP JUMP JUMPDEST PUSH0 PUSH4 0xFFFFFFFF DUP3 AND SWAP1 POP SWAP2 SWAP1 POP JUMP JUMPDEST PUSH2 0x27B7 DUP2 PUSH2 0x279F JUMP JUMPDEST DUP3 MSTORE POP POP JUMP JUMPDEST PUSH0 PUSH1 0x20 DUP3 ADD SWAP1 POP PUSH2 0x27D0 PUSH0 DUP4 ADD DUP5 PUSH2 0x27AE JUMP JUMPDEST SWAP3 SWAP2 POP POP JUMP JUMPDEST PUSH0 PUSH0 PUSH1 0x40 DUP4 DUP6 SUB SLT ISZERO PUSH2 0x27EC JUMPI PUSH2 0x27EB PUSH2 0x2411 JUMP JUMPDEST JUMPDEST PUSH0 PUSH2 0x27F9 DUP6 DUP3 DUP7 ADD PUSH2 0x242F JUMP JUMPDEST SWAP3 POP POP PUSH1 0x20 PUSH2 0x280A DUP6 DUP3 DUP7 ADD PUSH2 0x242F JUMP JUMPDEST SWAP2 POP POP SWAP3 POP SWAP3 SWAP1 POP JUMP JUMPDEST PUSH2 0x281D DUP2 PUSH2 0x246E JUMP JUMPDEST DUP3 MSTORE POP POP JUMP JUMPDEST PUSH0 PUSH1 0x20 DUP3 ADD SWAP1 POP PUSH2 0x2836 PUSH0 DUP4 ADD DUP5 PUSH2 0x2814 JUMP JUMPDEST SWAP3 SWAP2 POP POP JUMP JUMPDEST PUSH2 0x2845 DUP2 PUSH2 0x26EB JUMP JUMPDEST DUP2 EQ PUSH2 0x284F JUMPI PUSH0 PUSH0 REVERT JUMPDEST POP JUMP JUMPDEST PUSH0 DUP2 CALLDATALOAD SWAP1 POP PUSH2 0x2860 DUP2 PUSH2 0x283C JUMP JUMPDEST SWAP3 SWAP2 POP POP JUMP JUMPDEST PUSH0 PUSH0 REVERT JUMPDEST PUSH0 PUSH0 REVERT JUMPDEST PUSH32 0x4E487B7100000000000000000000000000000000000000000000000000000000 PUSH0 MSTORE PUSH1 0x41 PUSH1 0x4 MSTORE PUSH1 0x24 PUSH0 REVERT JUMPDEST PUSH2 0x28A4 DUP3 PUSH2 0x25E3 JUMP JUMPDEST DUP2 ADD DUP2 DUP2 LT PUSH8 0xFFFFFFFFFFFFFFFF DUP3 GT OR ISZERO PUSH2 0x28C3 JUMPI PUSH2 0x28C2 PUSH2 0x286E JUMP JUMPDEST JUMPDEST DUP1 PUSH1 0x40 MSTORE POP POP POP JUMP JUMPDEST PUSH0 PUSH2 0x28D5 PUSH2 0x2408 JUMP JUMPDEST SWAP1 POP PUSH2 0x28E1 DUP3 DUP3 PUSH2 0x289B JUMP JUMPDEST SWAP2 SWAP1 POP JUMP JUMPDEST PUSH0 PUSH8 0xFFFFFFFFFFFFFFFF DUP3 GT ISZERO PUSH2 0x2900 JUMPI PUSH2 0x28FF PUSH2 0x286E JUMP JUMPDEST JUMPDEST PUSH2 0x2909 DUP3 PUSH2 0x25E3 JUMP JUMPDEST SWAP1 POP PUSH1 0x20 DUP2 ADD SWAP1 POP SWAP2 SWAP1 POP JUMP JUMPDEST DUP3 DUP2 DUP4 CALLDATACOPY PUSH0 DUP4 DUP4 ADD MSTORE POP POP POP JUMP JUMPDEST PUSH0 PUSH2 0x2936 PUSH2 0x2931 DUP5 PUSH2 0x28E6 JUMP JUMPDEST PUSH2 0x28CC JUMP JUMPDEST SWAP1 POP DUP3 DUP2 MSTORE PUSH1 0x20 DUP2 ADD DUP5 DUP5 DUP5 ADD GT ISZERO PUSH2 0x2952 JUMPI PUSH2 0x2951 PUSH2 0x286A JUMP JUMPDEST JUMPDEST PUSH2 0x295D DUP5 DUP3 DUP6 PUSH2 0x2916 JUMP JUMPDEST POP SWAP4 SWAP3 POP POP POP JUMP JUMPDEST PUSH0 DUP3 PUSH1 0x1F DUP4 ADD SLT PUSH2 0x2979 JUMPI PUSH2 0x2978 PUSH2 0x2866 JUMP JUMPDEST JUMPDEST DUP2 CALLDATALOAD PUSH2 0x2989 DUP5 DUP3 PUSH1 0x20 DUP7 ADD PUSH2 0x2924 JUMP JUMPDEST SWAP2 POP POP SWAP3 SWAP2 POP POP JUMP JUMPDEST PUSH0 PUSH0 PUSH1 0x40 DUP4 DUP6 SUB SLT ISZERO PUSH2 0x29A8 JUMPI PUSH2 0x29A7 PUSH2 0x2411 JUMP JUMPDEST JUMPDEST PUSH0 PUSH2 0x29B5 DUP6 DUP3 DUP7 ADD PUSH2 0x2852 JUMP JUMPDEST SWAP3 POP POP PUSH1 0x20 DUP4 ADD CALLDATALOAD PUSH8 0xFFFFFFFFFFFFFFFF DUP2 GT ISZERO PUSH2 0x29D6 JUMPI PUSH2 0x29D5 PUSH2 0x2415 JUMP JUMPDEST JUMPDEST PUSH2 0x29E2 DUP6 DUP3 DUP7 ADD PUSH2 0x2965 JUMP JUMPDEST SWAP2 POP POP SWAP3 POP SWAP3 SWAP1 POP JUMP JUMPDEST PUSH0 PUSH2 0x29F6 DUP3 PUSH2 0x24FF JUMP JUMPDEST SWAP1 POP SWAP2 SWAP1 POP JUMP JUMPDEST PUSH2 0x2A06 DUP2 PUSH2 0x29EC JUMP JUMPDEST DUP3 MSTORE POP POP JUMP JUMPDEST PUSH0 PUSH1 0x20 DUP3 ADD SWAP1 POP PUSH2 0x2A1F PUSH0 DUP4 ADD DUP5 PUSH2 0x29FD JUMP JUMPDEST SWAP3 SWAP2 POP POP JUMP JUMPDEST PUSH0 DUP2 MLOAD SWAP1 POP SWAP2 SWAP1 POP JUMP JUMPDEST PUSH0 DUP3 DUP3 MSTORE PUSH1 0x20 DUP3 ADD SWAP1 POP SWAP3 SWAP2 POP POP JUMP JUMPDEST PUSH0 DUP2 SWAP1 POP PUSH1 0x20 DUP3 ADD SWAP1 POP SWAP2 SWAP1 POP JUMP JUMPDEST PUSH2 0x2A57 DUP2 PUSH2 0x29EC JUMP JUMPDEST DUP3 MSTORE POP POP JUMP JUMPDEST PUSH0 PUSH2 0x2A68 DUP4 DUP4 PUSH2 0x2A4E JUMP JUMPDEST PUSH1 0x20 DUP4 ADD SWAP1 POP SWAP3 SWAP2 POP POP JUMP JUMPDEST PUSH0 PUSH1 0x20 DUP3 ADD SWAP1 POP SWAP2 SWAP1 POP JUMP JUMPDEST PUSH0 PUSH2 0x2A8A DUP3 PUSH2 0x2A25 JUMP JUMPDEST PUSH2 0x2A94 DUP2 DUP6 PUSH2 0x2A2F JUMP JUMPDEST SWAP4 POP PUSH2 0x2A9F DUP4 PUSH2 0x2A3F JUMP JUMPDEST DUP1 PUSH0 JUMPDEST DUP4 DUP2 LT ISZERO PUSH2 0x2ACF JUMPI DUP2 MLOAD PUSH2 0x2AB6 DUP9 DUP3 PUSH2 0x2A5D JUMP JUMPDEST SWAP8 POP PUSH2 0x2AC1 DUP4 PUSH2 0x2A74 JUMP JUMPDEST SWAP3 POP POP PUSH1 0x1 DUP2 ADD SWAP1 POP PUSH2 0x2AA2 JUMP JUMPDEST POP DUP6 SWAP4 POP POP POP POP SWAP3 SWAP2 POP POP JUMP JUMPDEST PUSH0 PUSH1 0x20 DUP3 ADD SWAP1 POP DUP2 DUP2 SUB PUSH0 DUP4 ADD MSTORE PUSH2 0x2AF4 DUP2 DUP5 PUSH2 0x2A80 JUMP JUMPDEST SWAP1 POP SWAP3 SWAP2 POP POP JUMP JUMPDEST PUSH0 PUSH8 0xFFFFFFFFFFFFFFFF DUP3 GT ISZERO PUSH2 0x2B16 JUMPI PUSH2 0x2B15 PUSH2 0x286E JUMP JUMPDEST JUMPDEST PUSH1 0x20 DUP3 MUL SWAP1 POP SWAP2 SWAP1 POP JUMP JUMPDEST PUSH0 PUSH0 REVERT JUMPDEST PUSH0 PUSH2 0x2B37 PUSH2 0x2B32 DUP5 PUSH2 0x2AFC JUMP JUMPDEST PUSH2 0x28CC JUMP JUMPDEST SWAP1 POP DUP1 PUSH1 0x20 DUP5 MUL DUP4 ADD DUP6 DUP2 GT ISZERO PUSH2 0x2B51 JUMPI PUSH2 0x2B50 PUSH2 0x2B21 JUMP JUMPDEST JUMPDEST DUP4 JUMPDEST DUP2 DUP2 LT ISZERO PUSH2 0x2B7A JUMPI DUP1 PUSH2 0x2B66 DUP9 DUP3 PUSH2 0x242F JUMP JUMPDEST DUP5 MSTORE PUSH1 0x20 DUP5 ADD SWAP4 POP POP PUSH1 0x20 DUP2 ADD SWAP1 POP PUSH2 0x2B53 JUMP JUMPDEST POP POP POP SWAP4 SWAP3 POP POP POP JUMP JUMPDEST PUSH0 DUP3 PUSH1 0x1F DUP4 ADD SLT PUSH2 0x2B98 JUMPI PUSH2 0x2B97 PUSH2 0x2866 JUMP JUMPDEST JUMPDEST PUSH1 0x2 PUSH2 0x2BA5 DUP5 DUP3 DUP6 PUSH2 0x2B25 JUMP JUMPDEST SWAP2 POP POP SWAP3 SWAP2 POP POP JUMP JUMPDEST PUSH0 PUSH8 0xFFFFFFFFFFFFFFFF DUP3 GT ISZERO PUSH2 0x2BC8 JUMPI PUSH2 0x2BC7 PUSH2 0x286E JUMP JUMPDEST JUMPDEST PUSH1 0x20 DUP3 MUL SWAP1 POP SWAP2 SWAP1 POP JUMP JUMPDEST PUSH0 PUSH2 0x2BE5 PUSH2 0x2BE0 DUP5 PUSH2 0x2BAE JUMP JUMPDEST PUSH2 0x28CC JUMP JUMPDEST SWAP1 POP DUP1 PUSH1 0x40 DUP5 MUL DUP4 ADD DUP6 DUP2 GT ISZERO PUSH2 0x2BFF JUMPI PUSH2 0x2BFE PUSH2 0x2B21 JUMP JUMPDEST JUMPDEST DUP4 JUMPDEST DUP2 DUP2 LT ISZERO PUSH2 0x2C28 JUMPI DUP1 PUSH2 0x2C14 DUP9 DUP3 PUSH2 0x2B84 JUMP JUMPDEST DUP5 MSTORE PUSH1 0x20 DUP5 ADD SWAP4 POP POP PUSH1 0x40 DUP2 ADD SWAP1 POP PUSH2 0x2C01 JUMP JUMPDEST POP POP POP SWAP4 SWAP3 POP POP POP JUMP JUMPDEST PUSH0 DUP3 PUSH1 0x1F DUP4 ADD SLT PUSH2 0x2C46 JUMPI PUSH2 0x2C45 PUSH2 0x2866 JUMP JUMPDEST JUMPDEST PUSH1 0x2 PUSH2 0x2C53 DUP5 DUP3 DUP6 PUSH2 0x2BD3 JUMP JUMPDEST SWAP2 POP POP SWAP3 SWAP2 POP POP JUMP JUMPDEST PUSH0 PUSH0 PUSH0 PUSH0 PUSH0 PUSH0 PUSH2 0x160 DUP8 DUP10 SUB SLT ISZERO PUSH2 0x2C77 JUMPI PUSH2 0x2C76 PUSH2 0x2411 JUMP JUMPDEST JUMPDEST PUSH0 PUSH2 0x2C84 DUP10 DUP3 DUP11 ADD PUSH2 0x242F JUMP JUMPDEST SWAP7 POP POP PUSH1 0x20 PUSH2 0x2C95 DUP10 DUP3 DUP11 ADD PUSH2 0x242F JUMP JUMPDEST SWAP6 POP POP PUSH1 0x40 PUSH2 0x2CA6 DUP10 DUP3 DUP11 ADD PUSH2 0x242F JUMP JUMPDEST SWAP5 POP POP PUSH1 0x60 PUSH2 0x2CB7 DUP10 DUP3 DUP11 ADD PUSH2 0x2B84 JUMP JUMPDEST SWAP4 POP POP PUSH1 0xA0 PUSH2 0x2CC8 DUP10 DUP3 DUP11 ADD PUSH2 0x2C32 JUMP JUMPDEST SWAP3 POP POP PUSH2 0x120 PUSH2 0x2CDA DUP10 DUP3 DUP11 ADD PUSH2 0x2B84 JUMP JUMPDEST SWAP2 POP POP SWAP3 SWAP6 POP SWAP3 SWAP6 POP SWAP3 SWAP6 JUMP JUMPDEST PUSH0 PUSH2 0x2CF1 DUP3 PUSH2 0x2548 JUMP JUMPDEST SWAP1 POP SWAP2 SWAP1 POP JUMP JUMPDEST PUSH2 0x2D01 DUP2 PUSH2 0x2CE7 JUMP JUMPDEST DUP3 MSTORE POP POP JUMP JUMPDEST PUSH0 PUSH1 0x20 DUP3 ADD SWAP1 POP PUSH2 0x2D1A PUSH0 DUP4 ADD DUP5 PUSH2 0x2CF8 JUMP JUMPDEST SWAP3 SWAP2 POP POP JUMP JUMPDEST PUSH32 0x4F6E6C79206F776E65722063616E20706572666F726D20746869732061637469 PUSH0 DUP3 ADD MSTORE PUSH32 0x6F6E210000000000000000000000000000000000000000000000000000000000 PUSH1 0x20 DUP3 ADD MSTORE POP JUMP JUMPDEST PUSH0 PUSH2 0x2D7A PUSH1 0x23 DUP4 PUSH2 0x270D JUMP JUMPDEST SWAP2 POP PUSH2 0x2D85 DUP3 PUSH2 0x2D20 JUMP JUMPDEST PUSH1 0x40 DUP3 ADD SWAP1 POP SWAP2 SWAP1 POP JUMP JUMPDEST PUSH0 PUSH1 0x20 DUP3 ADD SWAP1 POP DUP2 DUP2 SUB PUSH0 DUP4 ADD MSTORE PUSH2 0x2DA7 DUP2 PUSH2 0x2D6E JUMP JUMPDEST SWAP1 POP SWAP2 SWAP1 POP JUMP JUMPDEST PUSH32 0x496E76616C69642063616E646964617465204944210000000000000000000000 PUSH0 DUP3 ADD MSTORE POP JUMP JUMPDEST PUSH0 PUSH2 0x2DE2 PUSH1 0x15 DUP4 PUSH2 0x270D JUMP JUMPDEST SWAP2 POP PUSH2 0x2DED DUP3 PUSH2 0x2DAE JUMP JUMPDEST PUSH1 0x20 DUP3 ADD SWAP1 POP SWAP2 SWAP1 POP JUMP JUMPDEST PUSH0 PUSH1 0x20 DUP3 ADD SWAP1 POP DUP2 DUP2 SUB PUSH0 DUP4 ADD MSTORE PUSH2 0x2E0F DUP2 PUSH2 0x2DD6 JUMP JUMPDEST SWAP1 POP SWAP2 SWAP1 POP JUMP JUMPDEST PUSH32 0x4E487B7100000000000000000000000000000000000000000000000000000000 PUSH0 MSTORE PUSH1 0x32 PUSH1 0x4 MSTORE PUSH1 0x24 PUSH0 REVERT JUMPDEST PUSH32 0x4E487B7100000000000000000000000000000000000000000000000000000000 PUSH0 MSTORE PUSH1 0x22 PUSH1 0x4 MSTORE PUSH1 0x24 PUSH0 REVERT JUMPDEST PUSH0 PUSH1 0x2 DUP3 DIV SWAP1 POP PUSH1 0x1 DUP3 AND DUP1 PUSH2 0x2E87 JUMPI PUSH1 0x7F DUP3 AND SWAP2 POP JUMPDEST PUSH1 0x20 DUP3 LT DUP2 SUB PUSH2 0x2E9A JUMPI PUSH2 0x2E99 PUSH2 0x2E43 JUMP JUMPDEST JUMPDEST POP SWAP2 SWAP1 POP JUMP JUMPDEST PUSH32 0x5F6C6566742073686F756C6420626520696E7369646520746865206669656C64 PUSH0 DUP3 ADD MSTORE POP JUMP JUMPDEST PUSH0 PUSH2 0x2ED4 PUSH1 0x20 DUP4 PUSH2 0x270D JUMP JUMPDEST SWAP2 POP PUSH2 0x2EDF DUP3 PUSH2 0x2EA0 JUMP JUMPDEST PUSH1 0x20 DUP3 ADD SWAP1 POP SWAP2 SWAP1 POP JUMP JUMPDEST PUSH0 PUSH1 0x20 DUP3 ADD SWAP1 POP DUP2 DUP2 SUB PUSH0 DUP4 ADD MSTORE PUSH2 0x2F01 DUP2 PUSH2 0x2EC8 JUMP JUMPDEST SWAP1 POP SWAP2 SWAP1 POP JUMP JUMPDEST PUSH32 0x5F72696768742073686F756C6420626520696E7369646520746865206669656C PUSH0 DUP3 ADD MSTORE PUSH32 0x6400000000000000000000000000000000000000000000000000000000000000 PUSH1 0x20 DUP3 ADD MSTORE POP JUMP JUMPDEST PUSH0 PUSH2 0x2F62 PUSH1 0x21 DUP4 PUSH2 0x270D JUMP JUMPDEST SWAP2 POP PUSH2 0x2F6D DUP3 PUSH2 0x2F08 JUMP JUMPDEST PUSH1 0x40 DUP3 ADD SWAP1 POP SWAP2 SWAP1 POP JUMP JUMPDEST PUSH0 PUSH1 0x20 DUP3 ADD SWAP1 POP DUP2 DUP2 SUB PUSH0 DUP4 ADD MSTORE PUSH2 0x2F8F DUP2 PUSH2 0x2F56 JUMP JUMPDEST SWAP1 POP SWAP2 SWAP1 POP JUMP JUMPDEST PUSH0 DUP2 SWAP1 POP SWAP2 SWAP1 POP JUMP JUMPDEST PUSH0 PUSH2 0x2FB9 PUSH2 0x2FB4 PUSH2 0x2FAF DUP5 PUSH2 0x2F96 JUMP JUMPDEST PUSH2 0x251E JUMP JUMPDEST PUSH2 0x23D7 JUMP JUMPDEST SWAP1 POP SWAP2 SWAP1 POP JUMP JUMPDEST PUSH2 0x2FC9 DUP2 PUSH2 0x2F9F JUMP JUMPDEST DUP3 MSTORE POP POP JUMP JUMPDEST PUSH0 PUSH1 0x60 DUP3 ADD SWAP1 POP PUSH2 0x2FE2 PUSH0 DUP4 ADD DUP7 PUSH2 0x23E0 JUMP JUMPDEST PUSH2 0x2FEF PUSH1 0x20 DUP4 ADD DUP6 PUSH2 0x23E0 JUMP JUMPDEST PUSH2 0x2FFC PUSH1 0x40 DUP4 ADD DUP5 PUSH2 0x2FC0 JUMP JUMPDEST SWAP5 SWAP4 POP POP POP POP JUMP JUMPDEST PUSH0 DUP2 MLOAD SWAP1 POP PUSH2 0x3012 DUP2 PUSH2 0x2419 JUMP JUMPDEST SWAP3 SWAP2 POP POP JUMP JUMPDEST PUSH0 PUSH0 PUSH1 0x40 DUP4 DUP6 SUB SLT ISZERO PUSH2 0x302E JUMPI PUSH2 0x302D PUSH2 0x2411 JUMP JUMPDEST JUMPDEST PUSH0 PUSH2 0x303B DUP6 DUP3 DUP7 ADD PUSH2 0x3004 JUMP JUMPDEST SWAP3 POP POP PUSH1 0x20 PUSH2 0x304C DUP6 DUP3 DUP7 ADD PUSH2 0x3004 JUMP JUMPDEST SWAP2 POP POP SWAP3 POP SWAP3 SWAP1 POP JUMP JUMPDEST PUSH32 0x4E487B7100000000000000000000000000000000000000000000000000000000 PUSH0 MSTORE PUSH1 0x12 PUSH1 0x4 MSTORE PUSH1 0x24 PUSH0 REVERT JUMPDEST PUSH32 0x4E616D65206D7573742062652032302063686172616374657273206F72206C65 PUSH0 DUP3 ADD MSTORE PUSH32 0x7373000000000000000000000000000000000000000000000000000000000000 PUSH1 0x20 DUP3 ADD MSTORE POP JUMP JUMPDEST PUSH0 PUSH2 0x30DD PUSH1 0x22 DUP4 PUSH2 0x270D JUMP JUMPDEST SWAP2 POP PUSH2 0x30E8 DUP3 PUSH2 0x3083 JUMP JUMPDEST PUSH1 0x40 DUP3 ADD SWAP1 POP SWAP2 SWAP1 POP JUMP JUMPDEST PUSH0 PUSH1 0x20 DUP3 ADD SWAP1 POP DUP2 DUP2 SUB PUSH0 DUP4 ADD MSTORE PUSH2 0x310A DUP2 PUSH2 0x30D1 JUMP JUMPDEST SWAP1 POP SWAP2 SWAP1 POP JUMP JUMPDEST PUSH0 DUP2 SWAP1 POP DUP2 PUSH0 MSTORE PUSH1 0x20 PUSH0 KECCAK256 SWAP1 POP SWAP2 SWAP1 POP JUMP JUMPDEST PUSH0 PUSH1 0x20 PUSH1 0x1F DUP4 ADD DIV SWAP1 POP SWAP2 SWAP1 POP JUMP JUMPDEST PUSH0 DUP3 DUP3 SHL SWAP1 POP SWAP3 SWAP2 POP POP JUMP JUMPDEST PUSH0 PUSH1 0x8 DUP4 MUL PUSH2 0x316D PUSH32 0xFFFFFFFFFFFFFFFFFFFFFFFFFFFFFFFFFFFFFFFFFFFFFFFFFFFFFFFFFFFFFFFF DUP3 PUSH2 0x3132 JUMP JUMPDEST PUSH2 0x3177 DUP7 DUP4 PUSH2 0x3132 JUMP JUMPDEST SWAP6 POP DUP1 NOT DUP5 AND SWAP4 POP DUP1 DUP7 AND DUP5 OR SWAP3 POP POP POP SWAP4 SWAP3 POP POP POP JUMP JUMPDEST PUSH0 PUSH2 0x31A9 PUSH2 0x31A4 PUSH2 0x319F DUP5 PUSH2 0x23D7 JUMP JUMPDEST PUSH2 0x251E JUMP JUMPDEST PUSH2 0x23D7 JUMP JUMPDEST SWAP1 POP SWAP2 SWAP1 POP JUMP JUMPDEST PUSH0 DUP2 SWAP1 POP SWAP2 SWAP1 POP JUMP JUMPDEST PUSH2 0x31C2 DUP4 PUSH2 0x318F JUMP JUMPDEST PUSH2 0x31D6 PUSH2 0x31CE DUP3 PUSH2 0x31B0 JUMP JUMPDEST DUP5 DUP5 SLOAD PUSH2 0x313E JUMP JUMPDEST DUP3 SSTORE POP POP POP POP JUMP JUMPDEST PUSH0 PUSH0 SWAP1 POP SWAP1 JUMP JUMPDEST PUSH2 0x31ED PUSH2 0x31DE JUMP JUMPDEST PUSH2 0x31F8 DUP2 DUP5 DUP5 PUSH2 0x31B9 JUMP JUMPDEST POP POP POP JUMP JUMPDEST JUMPDEST DUP2 DUP2 LT ISZERO PUSH2 0x321B JUMPI PUSH2 0x3210 PUSH0 DUP3 PUSH2 0x31E5 JUMP JUMPDEST PUSH1 0x1 DUP2 ADD SWAP1 POP PUSH2 0x31FE JUMP JUMPDEST POP POP JUMP JUMPDEST PUSH1 0x1F DUP3 GT ISZERO PUSH2 0x3260 JUMPI PUSH2 0x3231 DUP2 PUSH2 0x3111 JUMP JUMPDEST PUSH2 0x323A DUP5 PUSH2 0x3123 JUMP JUMPDEST DUP2 ADD PUSH1 0x20 DUP6 LT ISZERO PUSH2 0x3249 JUMPI DUP2 SWAP1 POP JUMPDEST PUSH2 0x325D PUSH2 0x3255 DUP6 PUSH2 0x3123 JUMP JUMPDEST DUP4 ADD DUP3 PUSH2 0x31FD JUMP JUMPDEST POP POP JUMPDEST POP POP POP JUMP JUMPDEST PUSH0 DUP3 DUP3 SHR SWAP1 POP SWAP3 SWAP2 POP POP JUMP JUMPDEST PUSH0 PUSH2 0x3280 PUSH0 NOT DUP5 PUSH1 0x8 MUL PUSH2 0x3265 JUMP JUMPDEST NOT DUP1 DUP4 AND SWAP2 POP POP SWAP3 SWAP2 POP POP JUMP JUMPDEST PUSH0 PUSH2 0x3298 DUP4 DUP4 PUSH2 0x3271 JUMP JUMPDEST SWAP2 POP DUP3 PUSH1 0x2 MUL DUP3 OR SWAP1 POP SWAP3 SWAP2 POP POP JUMP JUMPDEST PUSH2 0x32B1 DUP3 PUSH2 0x25BB JUMP JUMPDEST PUSH8 0xFFFFFFFFFFFFFFFF DUP2 GT ISZERO PUSH2 0x32CA JUMPI PUSH2 0x32C9 PUSH2 0x286E JUMP JUMPDEST JUMPDEST PUSH2 0x32D4 DUP3 SLOAD PUSH2 0x2E70 JUMP JUMPDEST PUSH2 0x32DF DUP3 DUP3 DUP6 PUSH2 0x321F JUMP JUMPDEST PUSH0 PUSH1 0x20 SWAP1 POP PUSH1 0x1F DUP4 GT PUSH1 0x1 DUP2 EQ PUSH2 0x3310 JUMPI PUSH0 DUP5 ISZERO PUSH2 0x32FE JUMPI DUP3 DUP8 ADD MLOAD SWAP1 POP JUMPDEST PUSH2 0x3308 DUP6 DUP3 PUSH2 0x328D JUMP JUMPDEST DUP7 SSTORE POP PUSH2 0x336F JUMP JUMPDEST PUSH1 0x1F NOT DUP5 AND PUSH2 0x331E DUP7 PUSH2 0x3111 JUMP JUMPDEST PUSH0 JUMPDEST DUP3 DUP2 LT ISZERO PUSH2 0x3345 JUMPI DUP5 DUP10 ADD MLOAD DUP3 SSTORE PUSH1 0x1 DUP3 ADD SWAP2 POP PUSH1 0x20 DUP6 ADD SWAP5 POP PUSH1 0x20 DUP2 ADD SWAP1 POP PUSH2 0x3320 JUMP JUMPDEST DUP7 DUP4 LT ISZERO PUSH2 0x3362 JUMPI DUP5 DUP10 ADD MLOAD PUSH2 0x335E PUSH1 0x1F DUP10 AND DUP3 PUSH2 0x3271 JUMP JUMPDEST DUP4 SSTORE POP JUMPDEST PUSH1 0x1 PUSH1 0x2 DUP9 MUL ADD DUP9 SSTORE POP POP POP JUMPDEST POP POP POP POP POP POP JUMP JUMPDEST PUSH0 PUSH1 0x20 DUP3 ADD SWAP1 POP DUP2 DUP2 SUB PUSH0 DUP4 ADD MSTORE PUSH2 0x338F DUP2 DUP5 PUSH2 0x271D JUMP JUMPDEST SWAP1 POP SWAP3 SWAP2 POP POP JUMP JUMPDEST PUSH32 0x4E487B7100000000000000000000000000000000000000000000000000000000 PUSH0 MSTORE PUSH1 0x11 PUSH1 0x4 MSTORE PUSH1 0x24 PUSH0 REVERT JUMPDEST PUSH0 PUSH2 0x33CE DUP3 PUSH2 0x23D7 JUMP JUMPDEST SWAP2 POP PUSH32 0xFFFFFFFFFFFFFFFFFFFFFFFFFFFFFFFFFFFFFFFFFFFFFFFFFFFFFFFFFFFFFFFF DUP3 SUB PUSH2 0x3400 JUMPI PUSH2 0x33FF PUSH2 0x3397 JUMP JUMPDEST JUMPDEST PUSH1 0x1 DUP3 ADD SWAP1 POP SWAP2 SWAP1 POP JUMP JUMPDEST PUSH0 PUSH2 0x3415 DUP3 PUSH2 0x279F JUMP JUMPDEST SWAP2 POP PUSH0 DUP3 SUB PUSH2 0x3427 JUMPI PUSH2 0x3426 PUSH2 0x3397 JUMP JUMPDEST JUMPDEST PUSH1 0x1 DUP3 SUB SWAP1 POP SWAP2 SWAP1 POP JUMP JUMPDEST PUSH32 0x53746172742074696D65206D757374206265206265666F726520656E64207469 PUSH0 DUP3 ADD MSTORE PUSH32 0x6D65000000000000000000000000000000000000000000000000000000000000 PUSH1 0x20 DUP3 ADD MSTORE POP JUMP JUMPDEST PUSH0 PUSH2 0x348C PUSH1 0x22 DUP4 PUSH2 0x270D JUMP JUMPDEST SWAP2 POP PUSH2 0x3497 DUP3 PUSH2 0x3432 JUMP JUMPDEST PUSH1 0x40 DUP3 ADD SWAP1 POP SWAP2 SWAP1 POP JUMP JUMPDEST PUSH0 PUSH1 0x20 DUP3 ADD SWAP1 POP DUP2 DUP2 SUB PUSH0 DUP4 ADD MSTORE PUSH2 0x34B9 DUP2 PUSH2 0x3480 JUMP JUMPDEST SWAP1 POP SWAP2 SWAP1 POP JUMP JUMPDEST PUSH32 0x4E6F742077697468696E2074686520726567697374726174696F6E2070657269 PUSH0 DUP3 ADD MSTORE PUSH32 0x6F64210000000000000000000000000000000000000000000000000000000000 PUSH1 0x20 DUP3 ADD MSTORE POP JUMP JUMPDEST PUSH0 PUSH2 0x351A PUSH1 0x23 DUP4 PUSH2 0x270D JUMP JUMPDEST SWAP2 POP PUSH2 0x3525 DUP3 PUSH2 0x34C0 JUMP JUMPDEST PUSH1 0x40 DUP3 ADD SWAP1 POP SWAP2 SWAP1 POP JUMP JUMPDEST PUSH0 PUSH1 0x20 DUP3 ADD SWAP1 POP DUP2 DUP2 SUB PUSH0 DUP4 ADD MSTORE PUSH2 0x3547 DUP2 PUSH2 0x350E JUMP JUMPDEST SWAP1 POP SWAP2 SWAP1 POP JUMP JUMPDEST PUSH32 0x5468697320756E69717565206861736820697320616C72656164792075736564 PUSH0 DUP3 ADD MSTORE PUSH32 0x2100000000000000000000000000000000000000000000000000000000000000 PUSH1 0x20 DUP3 ADD MSTORE POP JUMP JUMPDEST PUSH0 PUSH2 0x35A8 PUSH1 0x21 DUP4 PUSH2 0x270D JUMP JUMPDEST SWAP2 POP PUSH2 0x35B3 DUP3 PUSH2 0x354E JUMP JUMPDEST PUSH1 0x40 DUP3 ADD SWAP1 POP SWAP2 SWAP1 POP JUMP JUMPDEST PUSH0 PUSH1 0x20 DUP3 ADD SWAP1 POP DUP2 DUP2 SUB PUSH0 DUP4 ADD MSTORE PUSH2 0x35D5 DUP2 PUSH2 0x359C JUMP JUMPDEST SWAP1 POP SWAP2 SWAP1 POP JUMP JUMPDEST PUSH32 0x4E6F742077697468696E2074686520766F74696E6720706572696F6421000000 PUSH0 DUP3 ADD MSTORE POP JUMP JUMPDEST PUSH0 PUSH2 0x3610 PUSH1 0x1D DUP4 PUSH2 0x270D JUMP JUMPDEST SWAP2 POP PUSH2 0x361B DUP3 PUSH2 0x35DC JUMP JUMPDEST PUSH1 0x20 DUP3 ADD SWAP1 POP SWAP2 SWAP1 POP JUMP JUMPDEST PUSH0 PUSH1 0x20 DUP3 ADD SWAP1 POP DUP2 DUP2 SUB PUSH0 DUP4 ADD MSTORE PUSH2 0x363D DUP2 PUSH2 0x3604 JUMP JUMPDEST SWAP1 POP SWAP2 SWAP1 POP JUMP JUMPDEST PUSH32 0x496E76616C69642063616E646964617465210000000000000000000000000000 PUSH0 DUP3 ADD MSTORE POP JUMP JUMPDEST PUSH0 PUSH2 0x3678 PUSH1 0x12 DUP4 PUSH2 0x270D JUMP JUMPDEST SWAP2 POP PUSH2 0x3683 DUP3 PUSH2 0x3644 JUMP JUMPDEST PUSH1 0x20 DUP3 ADD SWAP1 POP SWAP2 SWAP1 POP JUMP JUMPDEST PUSH0 PUSH1 0x20 DUP3 ADD SWAP1 POP DUP2 DUP2 SUB PUSH0 DUP4 ADD MSTORE PUSH2 0x36A5 DUP2 PUSH2 0x366C JUMP JUMPDEST SWAP1 POP SWAP2 SWAP1 POP JUMP JUMPDEST PUSH32 0x43616E64696461746520646F6573206E6F742065786973742100000000000000 PUSH0 DUP3 ADD MSTORE POP JUMP JUMPDEST PUSH0 PUSH2 0x36E0 PUSH1 0x19 DUP4 PUSH2 0x270D JUMP JUMPDEST SWAP2 POP PUSH2 0x36EB DUP3 PUSH2 0x36AC JUMP JUMPDEST PUSH1 0x20 DUP3 ADD SWAP1 POP SWAP2 SWAP1 POP JUMP JUMPDEST PUSH0 PUSH1 0x20 DUP3 ADD SWAP1 POP DUP2 DUP2 SUB PUSH0 DUP4 ADD MSTORE PUSH2 0x370D DUP2 PUSH2 0x36D4 JUMP JUMPDEST SWAP1 POP SWAP2 SWAP1 POP JUMP JUMPDEST PUSH0 PUSH2 0x371E DUP3 PUSH2 0x26EB JUMP JUMPDEST SWAP2 POP PUSH8 0xFFFFFFFFFFFFFFFF DUP3 SUB PUSH2 0x3738 JUMPI PUSH2 0x3737 PUSH2 0x3397 JUMP JUMPDEST JUMPDEST PUSH1 0x1 DUP3 ADD SWAP1 POP SWAP2 SWAP1 POP JUMP JUMPDEST PUSH32 0x496E646578206F7574206F6620626F756E647300000000000000000000000000 PUSH0 DUP3 ADD MSTORE POP JUMP JUMPDEST PUSH0 PUSH2 0x3777 PUSH1 0x13 DUP4 PUSH2 0x270D JUMP JUMPDEST SWAP2 POP PUSH2 0x3782 DUP3 PUSH2 0x3743 JUMP JUMPDEST PUSH1 0x20 DUP3 ADD SWAP1 POP SWAP2 SWAP1 POP JUMP JUMPDEST PUSH0 PUSH1 0x20 DUP3 ADD SWAP1 POP DUP2 DUP2 SUB PUSH0 DUP4 ADD MSTORE PUSH2 0x37A4 DUP2 PUSH2 0x376B JUMP JUMPDEST SWAP1 POP SWAP2 SWAP1 POP JUMP JUMPDEST PUSH32 0x54686520636F6D6D69746D656E7420686173206265656E207375626D69747465 PUSH0 DUP3 ADD MSTORE PUSH32 0x6400000000000000000000000000000000000000000000000000000000000000 PUSH1 0x20 DUP3 ADD MSTORE POP JUMP JUMPDEST PUSH0 PUSH2 0x3805 PUSH1 0x21 DUP4 PUSH2 0x270D JUMP JUMPDEST SWAP2 POP PUSH2 0x3810 DUP3 PUSH2 0x37AB JUMP JUMPDEST PUSH1 0x40 DUP3 ADD SWAP1 POP SWAP2 SWAP1 POP JUMP JUMPDEST PUSH0 PUSH1 0x20 DUP3 ADD SWAP1 POP DUP2 DUP2 SUB PUSH0 DUP4 ADD MSTORE PUSH2 0x3832 DUP2 PUSH2 0x37F9 JUMP JUMPDEST SWAP1 POP SWAP2 SWAP1 POP JUMP JUMPDEST PUSH0 PUSH1 0x40 DUP3 ADD SWAP1 POP PUSH2 0x384C PUSH0 DUP4 ADD DUP6 PUSH2 0x27AE JUMP JUMPDEST PUSH2 0x3859 PUSH1 0x20 DUP4 ADD DUP5 PUSH2 0x23E0 JUMP JUMPDEST SWAP4 SWAP3 POP POP POP JUMP JUMPDEST PUSH32 0x546865206E756C6C696669657220686173206265656E207375626D6974746564 PUSH0 DUP3 ADD MSTORE POP JUMP JUMPDEST PUSH0 PUSH2 0x3894 PUSH1 0x20 DUP4 PUSH2 0x270D JUMP JUMPDEST SWAP2 POP PUSH2 0x389F DUP3 PUSH2 0x3860 JUMP JUMPDEST PUSH1 0x20 DUP3 ADD SWAP1 POP SWAP2 SWAP1 POP JUMP JUMPDEST PUSH0 PUSH1 0x20 DUP3 ADD SWAP1 POP DUP2 DUP2 SUB PUSH0 DUP4 ADD MSTORE PUSH2 0x38C1 DUP2 PUSH2 0x3888 JUMP JUMPDEST SWAP1 POP SWAP2 SWAP1 POP JUMP JUMPDEST PUSH32 0x43616E6E6F742066696E6420796F7572206D65726B6C6520726F6F7400000000 PUSH0 DUP3 ADD MSTORE POP JUMP JUMPDEST PUSH0 PUSH2 0x38FC PUSH1 0x1C DUP4 PUSH2 0x270D JUMP JUMPDEST SWAP2 POP PUSH2 0x3907 DUP3 PUSH2 0x38C8 JUMP JUMPDEST PUSH1 0x20 DUP3 ADD SWAP1 POP SWAP2 SWAP1 POP JUMP JUMPDEST PUSH0 PUSH1 0x20 DUP3 ADD SWAP1 POP DUP2 DUP2 SUB PUSH0 DUP4 ADD MSTORE PUSH2 0x3929 DUP2 PUSH2 0x38F0 JUMP JUMPDEST SWAP1 POP SWAP2 SWAP1 POP JUMP JUMPDEST PUSH0 PUSH1 0x2 SWAP1 POP SWAP2 SWAP1 POP JUMP JUMPDEST PUSH0 DUP2 SWAP1 POP SWAP3 SWAP2 POP POP JUMP JUMPDEST PUSH0 DUP2 SWAP1 POP SWAP2 SWAP1 POP JUMP JUMPDEST PUSH2 0x3956 DUP2 PUSH2 0x23D7 JUMP JUMPDEST DUP3 MSTORE POP POP JUMP JUMPDEST PUSH0 PUSH2 0x3967 DUP4 DUP4 PUSH2 0x394D JUMP JUMPDEST PUSH1 0x20 DUP4 ADD SWAP1 POP SWAP3 SWAP2 POP POP JUMP JUMPDEST PUSH0 PUSH1 0x20 DUP3 ADD SWAP1 POP SWAP2 SWAP1 POP JUMP JUMPDEST PUSH2 0x3988 DUP2 PUSH2 0x3930 JUMP JUMPDEST PUSH2 0x3992 DUP2 DUP5 PUSH2 0x393A JUMP JUMPDEST SWAP3 POP PUSH2 0x399D DUP3 PUSH2 0x3944 JUMP JUMPDEST DUP1 PUSH0 JUMPDEST DUP4 DUP2 LT ISZERO PUSH2 0x39CD JUMPI DUP2 MLOAD PUSH2 0x39B4 DUP8 DUP3 PUSH2 0x395C JUMP JUMPDEST SWAP7 POP PUSH2 0x39BF DUP4 PUSH2 0x3973 JUMP JUMPDEST SWAP3 POP POP PUSH1 0x1 DUP2 ADD SWAP1 POP PUSH2 0x39A0 JUMP JUMPDEST POP POP POP POP POP POP JUMP JUMPDEST PUSH0 PUSH1 0x2 SWAP1 POP SWAP2 SWAP1 POP JUMP JUMPDEST PUSH0 DUP2 SWAP1 POP SWAP3 SWAP2 POP POP JUMP JUMPDEST PUSH0 DUP2 SWAP1 POP SWAP2 SWAP1 POP JUMP JUMPDEST PUSH0 DUP2 SWAP1 POP SWAP3 SWAP2 POP POP JUMP JUMPDEST PUSH2 0x3A05 DUP2 PUSH2 0x3930 JUMP JUMPDEST PUSH2 0x3A0F DUP2 DUP5 PUSH2 0x39F2 JUMP JUMPDEST SWAP3 POP PUSH2 0x3A1A DUP3 PUSH2 0x3944 JUMP JUMPDEST DUP1 PUSH0 JUMPDEST DUP4 DUP2 LT ISZERO PUSH2 0x3A4A JUMPI DUP2 MLOAD PUSH2 0x3A31 DUP8 DUP3 PUSH2 0x395C JUMP JUMPDEST SWAP7 POP PUSH2 0x3A3C DUP4 PUSH2 0x3973 JUMP JUMPDEST SWAP3 POP POP PUSH1 0x1 DUP2 ADD SWAP1 POP PUSH2 0x3A1D JUMP JUMPDEST POP POP POP POP POP POP JUMP JUMPDEST PUSH0 PUSH2 0x3A5D DUP4 DUP4 PUSH2 0x39FC JUMP JUMPDEST PUSH1 0x40 DUP4 ADD SWAP1 POP SWAP3 SWAP2 POP POP JUMP JUMPDEST PUSH0 PUSH1 0x20 DUP3 ADD SWAP1 POP SWAP2 SWAP1 POP JUMP JUMPDEST PUSH2 0x3A7E DUP2 PUSH2 0x39D5 JUMP JUMPDEST PUSH2 0x3A88 DUP2 DUP5 PUSH2 0x39DF JUMP JUMPDEST SWAP3 POP PUSH2 0x3A93 DUP3 PUSH2 0x39E9 JUMP JUMPDEST DUP1 PUSH0 JUMPDEST DUP4 DUP2 LT ISZERO PUSH2 0x3AC3 JUMPI DUP2 MLOAD PUSH2 0x3AAA DUP8 DUP3 PUSH2 0x3A52 JUMP JUMPDEST SWAP7 POP PUSH2 0x3AB5 DUP4 PUSH2 0x3A69 JUMP JUMPDEST SWAP3 POP POP PUSH1 0x1 DUP2 ADD SWAP1 POP PUSH2 0x3A96 JUMP JUMPDEST POP POP POP POP POP POP JUMP JUMPDEST PUSH0 PUSH2 0x140 DUP3 ADD SWAP1 POP PUSH2 0x3ADF PUSH0 DUP4 ADD DUP8 PUSH2 0x397F JUMP JUMPDEST PUSH2 0x3AEC PUSH1 0x40 DUP4 ADD DUP7 PUSH2 0x3A75 JUMP JUMPDEST PUSH2 0x3AF9 PUSH1 0xC0 DUP4 ADD DUP6 PUSH2 0x397F JUMP JUMPDEST PUSH2 0x3B07 PUSH2 0x100 DUP4 ADD DUP5 PUSH2 0x397F JUMP JUMPDEST SWAP6 SWAP5 POP POP POP POP POP JUMP JUMPDEST PUSH2 0x3B19 DUP2 PUSH2 0x24CC JUMP JUMPDEST DUP2 EQ PUSH2 0x3B23 JUMPI PUSH0 PUSH0 REVERT JUMPDEST POP JUMP JUMPDEST PUSH0 DUP2 MLOAD SWAP1 POP PUSH2 0x3B34 DUP2 PUSH2 0x3B10 JUMP JUMPDEST SWAP3 SWAP2 POP POP JUMP JUMPDEST PUSH0 PUSH1 0x20 DUP3 DUP5 SUB SLT ISZERO PUSH2 0x3B4F JUMPI PUSH2 0x3B4E PUSH2 0x2411 JUMP JUMPDEST JUMPDEST PUSH0 PUSH2 0x3B5C DUP5 DUP3 DUP6 ADD PUSH2 0x3B26 JUMP JUMPDEST SWAP2 POP POP SWAP3 SWAP2 POP POP JUMP JUMPDEST PUSH32 0x496E76616C69642070726F6F6600000000000000000000000000000000000000 PUSH0 DUP3 ADD MSTORE POP JUMP JUMPDEST PUSH0 PUSH2 0x3B99 PUSH1 0xD DUP4 PUSH2 0x270D JUMP JUMPDEST SWAP2 POP PUSH2 0x3BA4 DUP3 PUSH2 0x3B65 JUMP JUMPDEST PUSH1 0x20 DUP3 ADD SWAP1 POP SWAP2 SWAP1 POP JUMP JUMPDEST PUSH0 PUSH1 0x20 DUP3 ADD SWAP1 POP DUP2 DUP2 SUB PUSH0 DUP4 ADD MSTORE PUSH2 0x3BC6 DUP2 PUSH2 0x3B8D JUMP JUMPDEST SWAP1 POP SWAP2 SWAP1 POP JUMP JUMPDEST PUSH0 DUP2 PUSH1 0x1 SHR SWAP1 POP SWAP2 SWAP1 POP JUMP JUMPDEST PUSH0 PUSH0 DUP3 SWAP2 POP DUP4 SWAP1 POP JUMPDEST PUSH1 0x1 DUP6 GT ISZERO PUSH2 0x3C22 JUMPI DUP1 DUP7 DIV DUP2 GT ISZERO PUSH2 0x3BFE JUMPI PUSH2 0x3BFD PUSH2 0x3397 JUMP JUMPDEST JUMPDEST PUSH1 0x1 DUP6 AND ISZERO PUSH2 0x3C0D JUMPI DUP1 DUP3 MUL SWAP2 POP JUMPDEST DUP1 DUP2 MUL SWAP1 POP PUSH2 0x3C1B DUP6 PUSH2 0x3BCD JUMP JUMPDEST SWAP5 POP PUSH2 0x3BE2 JUMP JUMPDEST SWAP5 POP SWAP5 SWAP3 POP POP POP JUMP JUMPDEST PUSH0 DUP3 PUSH2 0x3C3A JUMPI PUSH1 0x1 SWAP1 POP PUSH2 0x3CF5 JUMP JUMPDEST DUP2 PUSH2 0x3C47 JUMPI PUSH0 SWAP1 POP PUSH2 0x3CF5 JUMP JUMPDEST DUP2 PUSH1 0x1 DUP2 EQ PUSH2 0x3C5D JUMPI PUSH1 0x2 DUP2 EQ PUSH2 0x3C67 JUMPI PUSH2 0x3C96 JUMP JUMPDEST PUSH1 0x1 SWAP2 POP POP PUSH2 0x3CF5 JUMP JUMPDEST PUSH1 0xFF DUP5 GT ISZERO PUSH2 0x3C79 JUMPI PUSH2 0x3C78 PUSH2 0x3397 JUMP JUMPDEST JUMPDEST DUP4 PUSH1 0x2 EXP SWAP2 POP DUP5 DUP3 GT ISZERO PUSH2 0x3C90 JUMPI PUSH2 0x3C8F PUSH2 0x3397 JUMP JUMPDEST JUMPDEST POP PUSH2 0x3CF5 JUMP JUMPDEST POP PUSH1 0x20 DUP4 LT PUSH2 0x133 DUP4 LT AND PUSH1 0x4E DUP5 LT PUSH1 0xB DUP5 LT AND OR ISZERO PUSH2 0x3CCB JUMPI DUP3 DUP3 EXP SWAP1 POP DUP4 DUP2 GT ISZERO PUSH2 0x3CC6 JUMPI PUSH2 0x3CC5 PUSH2 0x3397 JUMP JUMPDEST JUMPDEST PUSH2 0x3CF5 JUMP JUMPDEST PUSH2 0x3CD8 DUP5 DUP5 DUP5 PUSH1 0x1 PUSH2 0x3BD9 JUMP JUMPDEST SWAP3 POP SWAP1 POP DUP2 DUP5 DIV DUP2 GT ISZERO PUSH2 0x3CEF JUMPI PUSH2 0x3CEE PUSH2 0x3397 JUMP JUMPDEST JUMPDEST DUP2 DUP2 MUL SWAP1 POP JUMPDEST SWAP4 SWAP3 POP POP POP JUMP JUMPDEST PUSH0 PUSH2 0x3D06 DUP3 PUSH2 0x279F JUMP JUMPDEST SWAP2 POP PUSH2 0x3D11 DUP4 PUSH2 0x279F JUMP JUMPDEST SWAP3 POP PUSH2 0x3D22 PUSH4 0xFFFFFFFF DUP5 DUP5 PUSH2 0x3C2B JUMP JUMPDEST SWAP1 POP SWAP3 SWAP2 POP POP JUMP JUMPDEST PUSH32 0x4D65726B6C6520747265652069732066756C6C2E204E6F206D6F7265206C6561 PUSH0 DUP3 ADD MSTORE PUSH32 0x7665732063616E20626520616464656400000000000000000000000000000000 PUSH1 0x20 DUP3 ADD MSTORE POP JUMP JUMPDEST PUSH0 PUSH2 0x3D84 PUSH1 0x30 DUP4 PUSH2 0x270D JUMP JUMPDEST SWAP2 POP PUSH2 0x3D8F DUP3 PUSH2 0x3D2A JUMP JUMPDEST PUSH1 0x40 DUP3 ADD SWAP1 POP SWAP2 SWAP1 POP JUMP JUMPDEST PUSH0 PUSH1 0x20 DUP3 ADD SWAP1 POP DUP2 DUP2 SUB PUSH0 DUP4 ADD MSTORE PUSH2 0x3DB1 DUP2 PUSH2 0x3D78 JUMP JUMPDEST SWAP1 POP SWAP2 SWAP1 POP JUMP JUMPDEST PUSH0 PUSH2 0x3DC2 DUP3 PUSH2 0x279F JUMP JUMPDEST SWAP2 POP PUSH2 0x3DCD DUP4 PUSH2 0x279F JUMP JUMPDEST SWAP3 POP DUP3 PUSH2 0x3DDD JUMPI PUSH2 0x3DDC PUSH2 0x3056 JUMP JUMPDEST JUMPDEST DUP3 DUP3 MOD SWAP1 POP SWAP3 SWAP2 POP POP JUMP JUMPDEST PUSH0 PUSH2 0x3DF2 DUP3 PUSH2 0x279F JUMP JUMPDEST SWAP2 POP PUSH2 0x3DFD DUP4 PUSH2 0x279F JUMP JUMPDEST SWAP3 POP DUP3 PUSH2 0x3E0D JUMPI PUSH2 0x3E0C PUSH2 0x3056 JUMP JUMPDEST JUMPDEST DUP3 DUP3 DIV SWAP1 POP SWAP3 SWAP2 POP POP JUMP JUMPDEST PUSH0 PUSH2 0x3E22 DUP3 PUSH2 0x279F JUMP JUMPDEST SWAP2 POP PUSH2 0x3E2D DUP4 PUSH2 0x279F JUMP JUMPDEST SWAP3 POP DUP3 DUP3 ADD SWAP1 POP PUSH4 0xFFFFFFFF DUP2 GT ISZERO PUSH2 0x3E49 JUMPI PUSH2 0x3E48 PUSH2 0x3397 JUMP JUMPDEST JUMPDEST SWAP3 SWAP2 POP POP JUMP INVALID LOG2 PUSH5 0x6970667358 0x22 SLT KECCAK256 0xBB SSTORE PUSH11 0xDD76B07B02755B64651A2 0xDC DUP11 PUSH6 0x14882A8A627 SELFBALANCE 0xC5 CREATE2 0xE3 DELEGATECALL RETURN PUSH25 0x156D64736F6C634300081B0033000000000000000000000000 "
		},
		"gasEstimates": {
			"creation": {
				"codeDepositCost": "3201000",
				"executionCost": "infinite",
				"totalCost": "infinite"
			},
			"external": {
				"FIELD_SIZE()": "459",
				"ROOT_HISTORY_SIZE()": "420",
				"ZERO_VALUE()": "391",
				"addCandidate(uint64,string)": "infinite",
				"candidates(uint256)": "infinite",
				"commitments(bytes32)": "2874",
				"commitmentss(uint256)": "infinite",
				"currentRootIndex()": "2556",
				"deleteCandidate(uint256)": "infinite",
				"filledSubtrees(uint256)": "2864",
				"getAllCandidates()": "infinite",
				"getLastRoot()": "4760",
				"getOptionCounter(uint256)": "infinite",
				"getOwner()": "2648",
				"getValidators()": "infinite",
				"hashLeftRight(uint256,uint256)": "infinite",
				"hasher()": "infinite",
				"isKnownRoot(bytes32)": "infinite",
				"isVoterRegistered(uint256)": "2855",
				"levels()": "2511",
				"nextIndex()": "2649",
				"nullifiers(bytes32)": "2898",
				"numCandidates()": "2493",
				"owner()": "2576",
				"pendingUniqueHashes(uint256)": "infinite",
				"registerVoter(uint256,uint256)": "infinite",
				"registrationEnd()": "2494",
				"registrationStart()": "2492",
				"roots(uint256)": "2821",
				"setRegistrationPeriod(uint256,uint256)": "infinite",
				"setVotingPeriod(uint256,uint256)": "infinite",
				"uniqueHashes(uint256)": "2830",
				"verifier()": "infinite",
				"vote(uint256,uint256,uint256,uint256[2],uint256[2][2],uint256[2])": "infinite",
				"votingEnd()": "2536",
				"votingStart()": "2472",
				"zeros(uint256)": "1465"
			}
		},
		"methodIdentifiers": {
			"FIELD_SIZE()": "414a37ba",
			"ROOT_HISTORY_SIZE()": "cd87a3b4",
			"ZERO_VALUE()": "ec732959",
			"addCandidate(uint64,string)": "5e559ea1",
			"candidates(uint256)": "3477ee2e",
			"commitments(bytes32)": "839df945",
			"commitmentss(uint256)": "32bcce08",
			"currentRootIndex()": "90eeb02b",
			"deleteCandidate(uint256)": "1e620cd4",
			"filledSubtrees(uint256)": "f178e47c",
			"getAllCandidates()": "2e6997fe",
			"getLastRoot()": "ba70f757",
			"getOptionCounter(uint256)": "955e0377",
			"getOwner()": "893d20e8",
			"getValidators()": "b7ab4db5",
			"hashLeftRight(uint256,uint256)": "5bb93995",
			"hasher()": "ed33639f",
			"isKnownRoot(bytes32)": "6d9833e3",
			"isVoterRegistered(uint256)": "6d3cba61",
			"levels()": "4ecf518b",
			"nextIndex()": "fc7e9c6f",
			"nullifiers(bytes32)": "2997e86b",
			"numCandidates()": "5216509a",
			"owner()": "8da5cb5b",
			"pendingUniqueHashes(uint256)": "d290a3cf",
			"registerVoter(uint256,uint256)": "be00d6a1",
			"registrationEnd()": "13446a75",
			"registrationStart()": "b4062a31",
			"roots(uint256)": "c2b40ae4",
			"setRegistrationPeriod(uint256,uint256)": "8bb2fb75",
			"setVotingPeriod(uint256,uint256)": "a15a36c7",
			"uniqueHashes(uint256)": "c1b1f732",
			"verifier()": "2b7ac3f3",
			"vote(uint256,uint256,uint256,uint256[2],uint256[2][2],uint256[2])": "ce8f6377",
			"votingEnd()": "85a38635",
			"votingStart()": "101158af",
			"zeros(uint256)": "e8295588"
		}
	},
	"abi": [
		{
			"inputs": [
				{
					"internalType": "uint32",
					"name": "_levels",
					"type": "uint32"
				},
				{
					"internalType": "contract IHasher",
					"name": "_hasher",
					"type": "address"
				},
				{
					"internalType": "contract IVerifier",
					"name": "_verifier",
					"type": "address"
				},
				{
					"internalType": "uint256",
					"name": "_registrationStart",
					"type": "uint256"
				},
				{
					"internalType": "uint256",
					"name": "_registrationEnd",
					"type": "uint256"
				},
				{
					"internalType": "uint256",
					"name": "_votingStart",
					"type": "uint256"
				},
				{
					"internalType": "uint256",
					"name": "_votingEnd",
					"type": "uint256"
				}
			],
			"stateMutability": "nonpayable",
			"type": "constructor"
		},
		{
			"anonymous": false,
			"inputs": [
				{
					"indexed": true,
					"internalType": "uint256",
					"name": "candidateId",
					"type": "uint256"
				},
				{
					"indexed": false,
					"internalType": "string",
					"name": "name",
					"type": "string"
				}
			],
			"name": "CandidateAdded",
			"type": "event"
		},
		{
			"anonymous": false,
			"inputs": [
				{
					"indexed": true,
					"internalType": "uint256",
					"name": "candidateId",
					"type": "uint256"
				}
			],
			"name": "CandidateDeleted",
			"type": "event"
		},
		{
			"anonymous": false,
			"inputs": [
				{
					"indexed": true,
					"internalType": "bytes32",
					"name": "commitment",
					"type": "bytes32"
				},
				{
					"indexed": false,
					"internalType": "uint32",
					"name": "leafIndex",
					"type": "uint32"
				},
				{
					"indexed": false,
					"internalType": "uint256",
					"name": "timestamp",
					"type": "uint256"
				}
			],
			"name": "Commit",
			"type": "event"
		},
		{
			"anonymous": false,
			"inputs": [
				{
					"indexed": true,
					"internalType": "address",
					"name": "voter",
					"type": "address"
				},
				{
					"indexed": false,
					"internalType": "uint256",
					"name": "uniqueHash",
					"type": "uint256"
				},
				{
					"indexed": false,
					"internalType": "uint256",
					"name": "commitment",
					"type": "uint256"
				}
			],
			"name": "VoterRegistered",
			"type": "event"
		},
		{
			"inputs": [],
			"name": "FIELD_SIZE",
			"outputs": [
				{
					"internalType": "uint256",
					"name": "",
					"type": "uint256"
				}
			],
			"stateMutability": "view",
			"type": "function"
		},
		{
			"inputs": [],
			"name": "ROOT_HISTORY_SIZE",
			"outputs": [
				{
					"internalType": "uint32",
					"name": "",
					"type": "uint32"
				}
			],
			"stateMutability": "view",
			"type": "function"
		},
		{
			"inputs": [],
			"name": "ZERO_VALUE",
			"outputs": [
				{
					"internalType": "uint256",
					"name": "",
					"type": "uint256"
				}
			],
			"stateMutability": "view",
			"type": "function"
		},
		{
			"inputs": [
				{
					"internalType": "uint64",
					"name": "_id",
					"type": "uint64"
				},
				{
					"internalType": "string",
					"name": "_name",
					"type": "string"
				}
			],
			"name": "addCandidate",
			"outputs": [],
			"stateMutability": "nonpayable",
			"type": "function"
		},
		{
			"inputs": [
				{
					"internalType": "uint256",
					"name": "",
					"type": "uint256"
				}
			],
			"name": "candidates",
			"outputs": [
				{
					"internalType": "uint64",
					"name": "id",
					"type": "uint64"
				},
				{
					"internalType": "string",
					"name": "name",
					"type": "string"
				},
				{
					"internalType": "uint64",
					"name": "voteCount",
					"type": "uint64"
				},
				{
					"internalType": "bool",
					"name": "exists",
					"type": "bool"
				}
			],
			"stateMutability": "view",
			"type": "function"
		},
		{
			"inputs": [
				{
					"internalType": "bytes32",
					"name": "",
					"type": "bytes32"
				}
			],
			"name": "commitments",
			"outputs": [
				{
					"internalType": "bool",
					"name": "",
					"type": "bool"
				}
			],
			"stateMutability": "view",
			"type": "function"
		},
		{
			"inputs": [
				{
					"internalType": "uint256",
					"name": "",
					"type": "uint256"
				}
			],
			"name": "commitmentss",
			"outputs": [
				{
					"internalType": "uint256",
					"name": "",
					"type": "uint256"
				}
			],
			"stateMutability": "view",
			"type": "function"
		},
		{
			"inputs": [],
			"name": "currentRootIndex",
			"outputs": [
				{
					"internalType": "uint32",
					"name": "",
					"type": "uint32"
				}
			],
			"stateMutability": "view",
			"type": "function"
		},
		{
			"inputs": [
				{
					"internalType": "uint256",
					"name": "_candidateId",
					"type": "uint256"
				}
			],
			"name": "deleteCandidate",
			"outputs": [],
			"stateMutability": "nonpayable",
			"type": "function"
		},
		{
			"inputs": [
				{
					"internalType": "uint256",
					"name": "",
					"type": "uint256"
				}
			],
			"name": "filledSubtrees",
			"outputs": [
				{
					"internalType": "bytes32",
					"name": "",
					"type": "bytes32"
				}
			],
			"stateMutability": "view",
			"type": "function"
		},
		{
			"inputs": [],
			"name": "getAllCandidates",
			"outputs": [
				{
					"internalType": "uint256",
					"name": "",
					"type": "uint256"
				},
				{
					"internalType": "string[]",
					"name": "",
					"type": "string[]"
				}
			],
			"stateMutability": "view",
			"type": "function"
		},
		{
			"inputs": [],
			"name": "getLastRoot",
			"outputs": [
				{
					"internalType": "bytes32",
					"name": "",
					"type": "bytes32"
				}
			],
			"stateMutability": "view",
			"type": "function"
		},
		{
			"inputs": [
				{
					"internalType": "uint256",
					"name": "_candidateId",
					"type": "uint256"
				}
			],
			"name": "getOptionCounter",
			"outputs": [
				{
					"internalType": "uint256",
					"name": "",
					"type": "uint256"
				}
			],
			"stateMutability": "view",
			"type": "function"
		},
		{
			"inputs": [],
			"name": "getOwner",
			"outputs": [
				{
					"internalType": "address",
					"name": "",
					"type": "address"
				}
			],
			"stateMutability": "view",
			"type": "function"
		},
		{
			"inputs": [],
			"name": "getValidators",
			"outputs": [
				{
					"internalType": "address[]",
					"name": "",
					"type": "address[]"
				}
			],
			"stateMutability": "view",
			"type": "function"
		},
		{
			"inputs": [
				{
					"internalType": "uint256",
					"name": "_left",
					"type": "uint256"
				},
				{
					"internalType": "uint256",
					"name": "_right",
					"type": "uint256"
				}
			],
			"name": "hashLeftRight",
			"outputs": [
				{
					"internalType": "bytes32",
					"name": "",
					"type": "bytes32"
				}
			],
			"stateMutability": "view",
			"type": "function"
		},
		{
			"inputs": [],
			"name": "hasher",
			"outputs": [
				{
					"internalType": "contract IHasher",
					"name": "",
					"type": "address"
				}
			],
			"stateMutability": "view",
			"type": "function"
		},
		{
			"inputs": [
				{
					"internalType": "bytes32",
					"name": "_root",
					"type": "bytes32"
				}
			],
			"name": "isKnownRoot",
			"outputs": [
				{
					"internalType": "bool",
					"name": "",
					"type": "bool"
				}
			],
			"stateMutability": "view",
			"type": "function"
		},
		{
			"inputs": [
				{
					"internalType": "uint256",
					"name": "_uniqueHash",
					"type": "uint256"
				}
			],
			"name": "isVoterRegistered",
			"outputs": [
				{
					"internalType": "bool",
					"name": "",
					"type": "bool"
				}
			],
			"stateMutability": "view",
			"type": "function"
		},
		{
			"inputs": [],
			"name": "levels",
			"outputs": [
				{
					"internalType": "uint32",
					"name": "",
					"type": "uint32"
				}
			],
			"stateMutability": "view",
			"type": "function"
		},
		{
			"inputs": [],
			"name": "nextIndex",
			"outputs": [
				{
					"internalType": "uint32",
					"name": "",
					"type": "uint32"
				}
			],
			"stateMutability": "view",
			"type": "function"
		},
		{
			"inputs": [
				{
					"internalType": "bytes32",
					"name": "",
					"type": "bytes32"
				}
			],
			"name": "nullifiers",
			"outputs": [
				{
					"internalType": "bool",
					"name": "",
					"type": "bool"
				}
			],
			"stateMutability": "view",
			"type": "function"
		},
		{
			"inputs": [],
			"name": "numCandidates",
			"outputs": [
				{
					"internalType": "uint256",
					"name": "",
					"type": "uint256"
				}
			],
			"stateMutability": "view",
			"type": "function"
		},
		{
			"inputs": [],
			"name": "owner",
			"outputs": [
				{
					"internalType": "address",
					"name": "",
					"type": "address"
				}
			],
			"stateMutability": "view",
			"type": "function"
		},
		{
			"inputs": [
				{
					"internalType": "uint256",
					"name": "",
					"type": "uint256"
				}
			],
			"name": "pendingUniqueHashes",
			"outputs": [
				{
					"internalType": "uint256",
					"name": "",
					"type": "uint256"
				}
			],
			"stateMutability": "view",
			"type": "function"
		},
		{
			"inputs": [
				{
					"internalType": "uint256",
					"name": "_uniqueHash",
					"type": "uint256"
				},
				{
					"internalType": "uint256",
					"name": "_commitment",
					"type": "uint256"
				}
			],
			"name": "registerVoter",
			"outputs": [],
			"stateMutability": "nonpayable",
			"type": "function"
		},
		{
			"inputs": [],
			"name": "registrationEnd",
			"outputs": [
				{
					"internalType": "uint256",
					"name": "",
					"type": "uint256"
				}
			],
			"stateMutability": "view",
			"type": "function"
		},
		{
			"inputs": [],
			"name": "registrationStart",
			"outputs": [
				{
					"internalType": "uint256",
					"name": "",
					"type": "uint256"
				}
			],
			"stateMutability": "view",
			"type": "function"
		},
		{
			"inputs": [
				{
					"internalType": "uint256",
					"name": "",
					"type": "uint256"
				}
			],
			"name": "roots",
			"outputs": [
				{
					"internalType": "bytes32",
					"name": "",
					"type": "bytes32"
				}
			],
			"stateMutability": "view",
			"type": "function"
		},
		{
			"inputs": [
				{
					"internalType": "uint256",
					"name": "_start",
					"type": "uint256"
				},
				{
					"internalType": "uint256",
					"name": "_end",
					"type": "uint256"
				}
			],
			"name": "setRegistrationPeriod",
			"outputs": [],
			"stateMutability": "nonpayable",
			"type": "function"
		},
		{
			"inputs": [
				{
					"internalType": "uint256",
					"name": "_start",
					"type": "uint256"
				},
				{
					"internalType": "uint256",
					"name": "_end",
					"type": "uint256"
				}
			],
			"name": "setVotingPeriod",
			"outputs": [],
			"stateMutability": "nonpayable",
			"type": "function"
		},
		{
			"inputs": [
				{
					"internalType": "uint256",
					"name": "",
					"type": "uint256"
				}
			],
			"name": "uniqueHashes",
			"outputs": [
				{
					"internalType": "bool",
					"name": "",
					"type": "bool"
				}
			],
			"stateMutability": "view",
			"type": "function"
		},
		{
			"inputs": [],
			"name": "verifier",
			"outputs": [
				{
					"internalType": "contract IVerifier",
					"name": "",
					"type": "address"
				}
			],
			"stateMutability": "view",
			"type": "function"
		},
		{
			"inputs": [
				{
					"internalType": "uint256",
					"name": "_candidateId",
					"type": "uint256"
				},
				{
					"internalType": "uint256",
					"name": "_nullifier",
					"type": "uint256"
				},
				{
					"internalType": "uint256",
					"name": "_root",
					"type": "uint256"
				},
				{
					"internalType": "uint256[2]",
					"name": "_proof_a",
					"type": "uint256[2]"
				},
				{
					"internalType": "uint256[2][2]",
					"name": "_proof_b",
					"type": "uint256[2][2]"
				},
				{
					"internalType": "uint256[2]",
					"name": "_proof_c",
					"type": "uint256[2]"
				}
			],
			"name": "vote",
			"outputs": [],
			"stateMutability": "nonpayable",
			"type": "function"
		},
		{
			"inputs": [],
			"name": "votingEnd",
			"outputs": [
				{
					"internalType": "uint256",
					"name": "",
					"type": "uint256"
				}
			],
			"stateMutability": "view",
			"type": "function"
		},
		{
			"inputs": [],
			"name": "votingStart",
			"outputs": [
				{
					"internalType": "uint256",
					"name": "",
					"type": "uint256"
				}
			],
			"stateMutability": "view",
			"type": "function"
		},
		{
			"inputs": [
				{
					"internalType": "uint256",
					"name": "i",
					"type": "uint256"
				}
			],
			"name": "zeros",
			"outputs": [
				{
					"internalType": "bytes32",
					"name": "",
					"type": "bytes32"
				}
			],
			"stateMutability": "pure",
			"type": "function"
		}
	]
}